{"contracts/SearchLongestProgramV2.sol":{"SearchLongestProgramV2":{"abi":[{"anonymous":false,"inputs":[{"indexed":true,"internalType":"address","name":"owner","type":"address"},{"indexed":true,"internalType":"address","name":"spender","type":"address"},{"indexed":false,"internalType":"uint256","name":"value","type":"uint256"}],"name":"Approval","type":"event"},{"anonymous":false,"inputs":[{"indexed":false,"internalType":"address","name":"owner","type":"address"},{"indexed":false,"internalType":"uint256","name":"trnxId","type":"uint256"}],"name":"Approve","type":"event"},{"anonymous":false,"inputs":[{"indexed":false,"internalType":"uint256","name":"trnxId","type":"uint256"}],"name":"Execute","type":"event"},{"anonymous":false,"inputs":[{"indexed":false,"internalType":"bool","name":"status","type":"bool"}],"name":"FeesChanged","type":"event"},{"anonymous":false,"inputs":[{"indexed":false,"internalType":"uint8","name":"version","type":"uint8"}],"name":"Initialized","type":"event"},{"anonymous":false,"inputs":[{"indexed":false,"internalType":"address","name":"owner","type":"address"},{"indexed":false,"internalType":"uint256","name":"trnxId","type":"uint256"}],"name":"Revoke","type":"event"},{"anonymous":false,"inputs":[{"indexed":true,"internalType":"address","name":"from","type":"address"},{"indexed":true,"internalType":"address","name":"to","type":"address"},{"indexed":false,"internalType":"uint256","name":"value","type":"uint256"}],"name":"Transfer","type":"event"},{"anonymous":false,"inputs":[{"indexed":false,"internalType":"bool","name":"state","type":"bool"},{"indexed":false,"internalType":"uint256","name":"time","type":"uint256"}],"name":"UpdateCooldownTX","type":"event"},{"anonymous":false,"inputs":[{"indexed":false,"internalType":"bool","name":"state","type":"bool"}],"name":"UpdateIsBlacklistedTX","type":"event"},{"anonymous":false,"inputs":[{"indexed":false,"internalType":"address","name":"newWallet","type":"address"}],"name":"UpdateMarketingWalletTX","type":"event"},{"anonymous":false,"inputs":[{"indexed":false,"internalType":"uint256","name":"amount","type":"uint256"}],"name":"UpdateMaxWalletLimitTX","type":"event"},{"anonymous":false,"inputs":[{"indexed":false,"internalType":"uint256","name":"maxBuy","type":"uint256"},{"indexed":false,"internalType":"uint256","name":"maxSell","type":"uint256"}],"name":"UpdateMaxtxLimitTX","type":"event"},{"anonymous":false,"inputs":[{"indexed":false,"internalType":"address","name":"newRouter","type":"address"},{"indexed":false,"internalType":"address","name":"newPair","type":"address"}],"name":"UpdateRouterAndPairTX","type":"event"},{"anonymous":false,"inputs":[{"indexed":false,"internalType":"uint256","name":"amount","type":"uint256"}],"name":"UpdateSwapTokenAtAmountTX","type":"event"},{"anonymous":false,"inputs":[{"indexed":false,"internalType":"uint256","name":"trnx","type":"uint256"}],"name":"assignTrnx","type":"event"},{"anonymous":false,"inputs":[{"indexed":false,"internalType":"address[]","name":"accounts","type":"address[]"},{"indexed":false,"internalType":"bool","name":"state","type":"bool"}],"name":"bulkIsBlacklistedTX","type":"event"},{"anonymous":false,"inputs":[{"indexed":false,"internalType":"address[]","name":"accounts","type":"address[]"},{"indexed":false,"internalType":"bool","name":"state","type":"bool"}],"name":"bulkupdateAllowedTransferTX","type":"event"},{"anonymous":false,"inputs":[{"indexed":false,"internalType":"address","name":"tokenAddress","type":"address"},{"indexed":false,"internalType":"address","name":"toAddress","type":"address"},{"indexed":false,"internalType":"uint256","name":"amount","type":"uint256"}],"name":"rescueAnyBEP20TokensTX","type":"event"},{"anonymous":false,"inputs":[{"indexed":false,"internalType":"uint256","name":"amount","type":"uint256"}],"name":"rescueBNBTX","type":"event"},{"anonymous":false,"inputs":[{"indexed":false,"internalType":"address","name":"TheFollowingAddressIsSetAssetExcludeFromFee","type":"address"}],"name":"setExcludeFromFeeTX","type":"event"},{"anonymous":false,"inputs":[{"indexed":false,"internalType":"address","name":"TheFollowingAddressIsExcludedFromRewards","type":"address"}],"name":"setExcludeFromRewardTX","type":"event"},{"anonymous":false,"inputs":[{"indexed":false,"internalType":"address","name":"TheFollowingAddressIsSetAsIncludeInReward","type":"address"}],"name":"setIncludeFromRewardTX","type":"event"},{"anonymous":false,"inputs":[{"indexed":false,"internalType":"bool","name":"state","type":"bool"}],"name":"updateAllowedTransferTX","type":"event"},{"inputs":[{"internalType":"uint256","name":"_trnxId","type":"uint256"}],"name":"_getAprrovalCount","outputs":[{"internalType":"uint256","name":"","type":"uint256"}],"stateMutability":"view","type":"function"},{"inputs":[{"internalType":"address","name":"owner","type":"address"},{"internalType":"address","name":"spender","type":"address"}],"name":"allowance","outputs":[{"internalType":"uint256","name":"","type":"uint256"}],"stateMutability":"view","type":"function"},{"inputs":[{"internalType":"address","name":"","type":"address"}],"name":"allowedTransfer","outputs":[{"internalType":"bool","name":"","type":"bool"}],"stateMutability":"view","type":"function"},{"inputs":[{"internalType":"address","name":"spender","type":"address"},{"internalType":"uint256","name":"amount","type":"uint256"}],"name":"approve","outputs":[{"internalType":"bool","name":"","type":"bool"}],"stateMutability":"nonpayable","type":"function"},{"inputs":[{"internalType":"uint256","name":"_trnxId","type":"uint256"}],"name":"approveTransaction","outputs":[],"stateMutability":"nonpayable","type":"function"},{"inputs":[{"internalType":"uint256","name":"","type":"uint256"},{"internalType":"address","name":"","type":"address"}],"name":"approved","outputs":[{"internalType":"bool","name":"","type":"bool"}],"stateMutability":"view","type":"function"},{"inputs":[],"name":"autoLiquidityReceiver","outputs":[{"internalType":"address","name":"","type":"address"}],"stateMutability":"view","type":"function"},{"inputs":[{"internalType":"address","name":"account","type":"address"}],"name":"balanceOf","outputs":[{"internalType":"uint256","name":"","type":"uint256"}],"stateMutability":"view","type":"function"},{"inputs":[{"internalType":"address[]","name":"accounts","type":"address[]"},{"internalType":"bool","name":"state","type":"bool"},{"internalType":"uint256","name":"_trnxId","type":"uint256"}],"name":"bulkIsBlacklisted","outputs":[],"stateMutability":"nonpayable","type":"function"},{"inputs":[{"internalType":"address[]","name":"accounts","type":"address[]"},{"internalType":"bool","name":"state","type":"bool"},{"internalType":"uint256","name":"_trnxId","type":"uint256"}],"name":"bulkupdateAllowedTransfer","outputs":[],"stateMutability":"nonpayable","type":"function"},{"inputs":[],"name":"coolDownEnabled","outputs":[{"internalType":"bool","name":"","type":"bool"}],"stateMutability":"view","type":"function"},{"inputs":[],"name":"coolDownTime","outputs":[{"internalType":"uint256","name":"","type":"uint256"}],"stateMutability":"view","type":"function"},{"inputs":[],"name":"deadWallet","outputs":[{"internalType":"address","name":"","type":"address"}],"stateMutability":"view","type":"function"},{"inputs":[],"name":"decimals","outputs":[{"internalType":"uint8","name":"","type":"uint8"}],"stateMutability":"pure","type":"function"},{"inputs":[{"internalType":"address","name":"spender","type":"address"},{"internalType":"uint256","name":"subtractedValue","type":"uint256"}],"name":"decreaseAllowance","outputs":[{"internalType":"bool","name":"","type":"bool"}],"stateMutability":"nonpayable","type":"function"},{"inputs":[{"internalType":"uint256","name":"_trnxId","type":"uint256"}],"name":"excludeFromFee","outputs":[],"stateMutability":"nonpayable","type":"function"},{"inputs":[{"internalType":"uint256","name":"_trnxId","type":"uint256"}],"name":"excludeFromReward","outputs":[],"stateMutability":"nonpayable","type":"function"},{"inputs":[],"name":"genesis_block","outputs":[{"internalType":"uint256","name":"","type":"uint256"}],"stateMutability":"view","type":"function"},{"inputs":[],"name":"getCurrentRunningTransactionId","outputs":[{"internalType":"uint256","name":"","type":"uint256"}],"stateMutability":"view","type":"function"},{"inputs":[{"internalType":"uint256","name":"_trnxId","type":"uint256"}],"name":"includeInReward","outputs":[],"stateMutability":"nonpayable","type":"function"},{"inputs":[{"internalType":"address","name":"spender","type":"address"},{"internalType":"uint256","name":"addedValue","type":"uint256"}],"name":"increaseAllowance","outputs":[{"internalType":"bool","name":"","type":"bool"}],"stateMutability":"nonpayable","type":"function"},{"inputs":[{"internalType":"address","name":"routerAddress","type":"address"}],"name":"initialize","outputs":[],"stateMutability":"nonpayable","type":"function"},{"inputs":[{"internalType":"address","name":"account","type":"address"}],"name":"isExcludedFromFee","outputs":[{"internalType":"bool","name":"","type":"bool"}],"stateMutability":"view","type":"function"},{"inputs":[{"internalType":"address","name":"account","type":"address"}],"name":"isExcludedFromReward","outputs":[{"internalType":"bool","name":"","type":"bool"}],"stateMutability":"view","type":"function"},{"inputs":[{"internalType":"address","name":"","type":"address"}],"name":"isOwner","outputs":[{"internalType":"bool","name":"","type":"bool"}],"stateMutability":"view","type":"function"},{"inputs":[],"name":"marketingWallet","outputs":[{"internalType":"address","name":"","type":"address"}],"stateMutability":"view","type":"function"},{"inputs":[],"name":"maxBuyLimit","outputs":[{"internalType":"uint256","name":"","type":"uint256"}],"stateMutability":"view","type":"function"},{"inputs":[],"name":"maxSellLimit","outputs":[{"internalType":"uint256","name":"","type":"uint256"}],"stateMutability":"view","type":"function"},{"inputs":[],"name":"maxWalletLimit","outputs":[{"internalType":"uint256","name":"","type":"uint256"}],"stateMutability":"view","type":"function"},{"inputs":[],"name":"name","outputs":[{"internalType":"string","name":"","type":"string"}],"stateMutability":"pure","type":"function"},{"inputs":[{"internalType":"uint256","name":"_methodID","type":"uint256"},{"internalType":"address","name":"_data","type":"address"}],"name":"newTransaction","outputs":[{"internalType":"uint256","name":"","type":"uint256"}],"stateMutability":"nonpayable","type":"function"},{"inputs":[{"internalType":"uint256","name":"","type":"uint256"}],"name":"owners","outputs":[{"internalType":"address","name":"","type":"address"}],"stateMutability":"view","type":"function"},{"inputs":[],"name":"pair","outputs":[{"internalType":"address","name":"","type":"address"}],"stateMutability":"view","type":"function"},{"inputs":[{"internalType":"uint256","name":"tAmount","type":"uint256"},{"internalType":"bool","name":"deductTransferRfi","type":"bool"}],"name":"reflectionFromToken","outputs":[{"internalType":"uint256","name":"","type":"uint256"}],"stateMutability":"view","type":"function"},{"inputs":[{"internalType":"address","name":"_tokenAddr","type":"address"},{"internalType":"address","name":"_to","type":"address"},{"internalType":"uint256","name":"_amount","type":"uint256"},{"internalType":"uint256","name":"_trnxId","type":"uint256"}],"name":"rescueAnyBEP20Tokens","outputs":[],"stateMutability":"nonpayable","type":"function"},{"inputs":[{"internalType":"uint256","name":"weiAmount","type":"uint256"},{"internalType":"uint256","name":"_trnxId","type":"uint256"}],"name":"rescueBNB","outputs":[],"stateMutability":"nonpayable","type":"function"},{"inputs":[{"internalType":"uint256","name":"_trnxId","type":"uint256"}],"name":"revoke","outputs":[],"stateMutability":"nonpayable","type":"function"},{"inputs":[],"name":"router","outputs":[{"internalType":"contract IRouter","name":"","type":"address"}],"stateMutability":"view","type":"function"},{"inputs":[],"name":"sellTaxes","outputs":[{"internalType":"uint256","name":"rfi","type":"uint256"},{"internalType":"uint256","name":"marketing","type":"uint256"},{"internalType":"uint256","name":"liquidity","type":"uint256"}],"stateMutability":"view","type":"function"},{"inputs":[{"internalType":"bool","name":"state","type":"bool"},{"internalType":"uint256","name":"_trnxId","type":"uint256"}],"name":"setSellTaxes","outputs":[],"stateMutability":"nonpayable","type":"function"},{"inputs":[{"internalType":"bool","name":"state","type":"bool"},{"internalType":"uint256","name":"_trnxId","type":"uint256"}],"name":"setTaxes","outputs":[],"stateMutability":"nonpayable","type":"function"},{"inputs":[],"name":"swapEnabled","outputs":[{"internalType":"bool","name":"","type":"bool"}],"stateMutability":"view","type":"function"},{"inputs":[],"name":"swapTokensAtAmount","outputs":[{"internalType":"uint256","name":"","type":"uint256"}],"stateMutability":"view","type":"function"},{"inputs":[],"name":"symbol","outputs":[{"internalType":"string","name":"","type":"string"}],"stateMutability":"pure","type":"function"},{"inputs":[],"name":"taxes","outputs":[{"internalType":"uint256","name":"rfi","type":"uint256"},{"internalType":"uint256","name":"marketing","type":"uint256"},{"internalType":"uint256","name":"liquidity","type":"uint256"}],"stateMutability":"view","type":"function"},{"inputs":[{"internalType":"uint256","name":"rAmount","type":"uint256"}],"name":"tokenFromReflection","outputs":[{"internalType":"uint256","name":"","type":"uint256"}],"stateMutability":"view","type":"function"},{"inputs":[],"name":"totFeesPaid","outputs":[{"internalType":"uint256","name":"rfi","type":"uint256"},{"internalType":"uint256","name":"marketing","type":"uint256"},{"internalType":"uint256","name":"liquidity","type":"uint256"}],"stateMutability":"view","type":"function"},{"inputs":[],"name":"totalSupply","outputs":[{"internalType":"uint256","name":"","type":"uint256"}],"stateMutability":"view","type":"function"},{"inputs":[],"name":"tradingEnabled","outputs":[{"internalType":"bool","name":"","type":"bool"}],"stateMutability":"view","type":"function"},{"inputs":[{"internalType":"uint256","name":"","type":"uint256"}],"name":"transactions","outputs":[{"internalType":"bool","name":"isExecuted","type":"bool"},{"internalType":"uint256","name":"methodID","type":"uint256"},{"internalType":"address","name":"data","type":"address"}],"stateMutability":"view","type":"function"},{"inputs":[{"internalType":"address","name":"recipient","type":"address"},{"internalType":"uint256","name":"amount","type":"uint256"}],"name":"transfer","outputs":[{"internalType":"bool","name":"","type":"bool"}],"stateMutability":"nonpayable","type":"function"},{"inputs":[{"internalType":"address","name":"sender","type":"address"},{"internalType":"address","name":"recipient","type":"address"},{"internalType":"uint256","name":"amount","type":"uint256"}],"name":"transferFrom","outputs":[{"internalType":"bool","name":"","type":"bool"}],"stateMutability":"nonpayable","type":"function"},{"inputs":[{"internalType":"uint256","name":"_trnxId","type":"uint256"},{"internalType":"bool","name":"state","type":"bool"}],"name":"updateAllowedTransfer","outputs":[],"stateMutability":"nonpayable","type":"function"},{"inputs":[{"internalType":"bool","name":"state","type":"bool"},{"internalType":"uint256","name":"time","type":"uint256"},{"internalType":"uint256","name":"_trnxId","type":"uint256"}],"name":"updateCooldown","outputs":[],"stateMutability":"nonpayable","type":"function"},{"inputs":[{"internalType":"uint256","name":"_trnxId","type":"uint256"},{"internalType":"bool","name":"state","type":"bool"}],"name":"updateIsBlacklisted","outputs":[],"stateMutability":"nonpayable","type":"function"},{"inputs":[{"internalType":"address","name":"newWallet","type":"address"},{"internalType":"uint256","name":"_trnxId","type":"uint256"}],"name":"updateMarketingWallet","outputs":[],"stateMutability":"nonpayable","type":"function"},{"inputs":[{"internalType":"uint256","name":"maxBuy","type":"uint256"},{"internalType":"uint256","name":"maxSell","type":"uint256"},{"internalType":"uint256","name":"_trnxId","type":"uint256"}],"name":"updateMaxTxLimit","outputs":[],"stateMutability":"nonpayable","type":"function"},{"inputs":[{"internalType":"uint256","name":"amount","type":"uint256"},{"internalType":"uint256","name":"_trnxId","type":"uint256"}],"name":"updateMaxWalletlimit","outputs":[],"stateMutability":"nonpayable","type":"function"},{"inputs":[{"internalType":"address","name":"newRouter","type":"address"},{"internalType":"address","name":"newPair","type":"address"},{"internalType":"uint256","name":"_trnxId","type":"uint256"}],"name":"updateRouterAndPair","outputs":[],"stateMutability":"nonpayable","type":"function"},{"inputs":[{"internalType":"uint256","name":"amount","type":"uint256"},{"internalType":"uint256","name":"_trnxId","type":"uint256"}],"name":"updateSwapTokensAtAmount","outputs":[],"stateMutability":"nonpayable","type":"function"},{"inputs":[],"name":"walletPermission","outputs":[{"internalType":"uint256","name":"","type":"uint256"}],"stateMutability":"view","type":"function"},{"stateMutability":"payable","type":"receive"}],"evm":{"bytecode":{"linkReferences":{},"object":"6080806040523461001657614c68908161001c8239f35b600080fdfe6080604090808252600480361015610022575b505050361561002057600080fd5b005b600091823560e01c908163025e7c2714612fe35750806306fdde0314612f8e578063095ea7b314612f64578063112bb58e14612ca657806317bd4cde14612b7b57806318160ddd14612b5c57806320c5429b14612a63578063237978081461292457806323b872dd14612874578063242232d11461277c5780632671d55814612518578063274a533c146124f95780632c0e22cc146124205780632d838119146123ff5780632f54bf6e146123c1578063313ce567146123a557806339509351146123555780633e4e7fbf146121e85780634549b039146121bf5780634ada218b1461219b5780634d05092214611e3d57806353075d3f14611d305780635342acb414611cf2578063538ca8f414611bce578063584a56cc14611ad657806362695eae14611a98578063652e2f0414611a7957806366a88d9614611a5a5780636aa5b37f14611a3b5780636c6b9bb2146119435780636ddd17131461191c57806370a08231146118f657806370da913c146118d5578063728f8eea146118a257806375f0a874146118795780638253951a14611831578063825f375e1461180d57806385141a77146117e457806388f82020146117a657806395d89b411461176b57806397dd3e9914611529578063987b2205146113b45780639ace38c2146113005780639ba5e4d5146112cd5780639f6dd00414611187578063a457c2d7146110e3578063a8aa1b31146110ba578063a9059cbb14611089578063c4d66de8146109db578063c95a20d1146108cd578063ca33e64c146108a4578063cc96029414610885578063d2ce0db214610866578063dd62ed3e1461081d578063de3e85a514610698578063e1b450ad1461050b578063e2f45605146104ec578063ee36e359146104c8578063f66895a31461048e578063f887ea40146104655763fe72fb670361001257346104615782600319360112610461576102e2613170565b90602435338452602092602684526102ff60ff8787205416613556565b1515916001830361043a5760028680516103188161317f565b82815260018782015201526002601f556001845560026021555b61033f6028548310614a95565b61035660ff61034d846132c4565b50541615614ad7565b61035f82614b23565b602754116103fe57610370826132c4565b509060106001830154036103cd5750837f2aa8128b3cf57c168078769033a09f2677560674defb313c68f8ec74df66dc90959692600080516020614bb383398151915292600160ff198254161790558351908152a151908152a180f35b865162461bcd60e51b815290810185905260156024820152600080516020614c138339815191526044820152606490fd5b855162461bcd60e51b815290810184905260226024820152600080516020614bd3833981519152604482015261185b60f21b6064820152608490fd5b848680516104478161317f565b8281528287820152015284601f5584845584602155610332565b5080fd5b828434610461578160031936011261046157600c5490516001600160a01b039091168152602090f35b5050346104c557806003193601126104c55750601f54602080546021549351928352908201526040810191909152606090f35b0390f35b80fd5b82843461046157816003193601126104615760209060ff600a541690519015158152f35b8284346104615781600319360112610461576020906010549051908152f35b50913461046157606036600319011261046157823560243560443594338552602660205261053e60ff8587205416613556565b670de0b6b3a7640000808402848104821485151715610685576011558083029083820414831517156106725760125561057a6028548710614a95565b61058860ff61034d886132c4565b61059186614b23565b60275411610636576105a2866132c4565b5090600a600183015403610605575060207f27753d76d86e2580a6535641fd05c753f41398b68d711d3a8bd15e94118772d89596600080516020614bb383398151915292600160ff198254161790558551908152a182519182526020820152a180f35b606490602086519162461bcd60e51b835282015260156024820152600080516020614c138339815191526044820152fd5b608490602085519162461bcd60e51b835282015260226024820152600080516020614bd3833981519152604482015261185b60f21b6064820152fd5b634e487b7160e01b865260118252602486fd5b634e487b7160e01b875260118352602487fd5b5090346104c5576106a836613220565b909291338352602091602683526106c460ff8886205416613556565b835b825181101561070f5761070a906001600160a01b036106e582866138a6565b5116865260068552610705878a88209060ff801983541691151516179055565b613354565b6106c6565b509092946107206028548310614a95565b61072e60ff61034d846132c4565b61073782614b23565b602754116107e157610748826132c4565b5090600e6001830154036107b05750805460ff19166001179055855190815293947f69658000c6a55369e18013a2245d930872faf496d5f06e18b00a14d5746848e2946107aa92600080516020614bb383398151915291a15192839283614a59565b0390a180f35b875162461bcd60e51b815290810184905260156024820152600080516020614c138339815191526044820152606490fd5b865162461bcd60e51b815290810183905260226024820152600080516020614bd3833981519152604482015261185b60f21b6064820152608490fd5b8284346104615780600319360112610461578060209261083b6130e5565b610843613100565b6001600160a01b0391821683526002865283832091168252845220549051908152f35b828434610461578160031936011261046157602090600b549051908152f35b8284346104615781600319360112610461576020906027549051908152f35b82843461046157816003193601126104615760185490516001600160a01b039091168152602090f35b5034610461576108dc3661314b565b338452602092602684526108f560ff8787205416613556565b824710610998576109068333614941565b6109136028548310614a95565b61092160ff61034d846132c4565b61092a82614b23565b602754116103fe5761093b826132c4565b509060056001830154036103cd5750837fc806a2e979c8f1a76fe7b47e2bceb111e789dda4d0da93d0e5df7f56f344b1ff959692600080516020614bb383398151915292600160ff198254161790558351908152a151908152a180f35b855162461bcd60e51b8152908101849052601860248201527f696e73756666696369656e7420424e422062616c616e636500000000000000006044820152606490fd5b508290346110855760209081600319360112611081576109f96130e5565b90610a026133c6565b908161106d575b734656e96c3b48ab30dbcd1aa6bbba6c60c3b1afb6330361101257845163c45a015560e01b81526001600160a01b03938416919085818381865afa908115610fc4578891610ff5575b5086516315ab88c960e31b815286818481875afa908115610feb5786928892610ab0928c91610fce575b508a516364e329cb60e11b8152308782019081526001600160a01b03909216602083015294859384928e9291849160400190565b0393165af18015610fc45785918991610f97575b5016916001600160601b0360a01b94600d91848784541617835586600c541617600c5561010161ffff1960085416176008556003958660275533816018541617601855603c600b5560019660ff19958887600a541617600a556a4b30d2dfbaf72d44800000600e556a2f19662e3e2f92ee7fffff19600f5569133fb2e96728bfd0000060105569c07cfd1e07977e2000008060115580601255601355436014558b60155561dead836016541617601655731c7f0c770e45030da303728969821f800dd554766017938454161783558b8b8051610b9f8161317f565b828152828d82015201528b6019558b601a558b601b558b8b8051610bc28161317f565b828152828d82015201528b601c558b601d558b601e5560028b8051610be68161317f565b8281528b8d82015201526002601f55888a5560026021558b52808952898b20888782541617905582601654168b52898b20888782541617905589519460a0860186811067ffffffffffffffff821117610f84578b5273686ac14acc91145a42dea24ded14335472aa7b9c865273370c9120bc57c0f9c4feda2074410292732a35c68a870152731a963858deef16cf6b3fd7dc9750a43abfd2938c8b87015273285e3e816302b81c5f21fc632e166e323c575a856060870152734e18c6f0070be7aa44786a2678e1de05ecc62316608087015260258c818054986005998a8355808b10610f2d575b508c9150918381525b898110610f0b57508e91505b610e18575b505050600f54338c528b8a528a8c2055308b528852888a208786825416179055818154168a52888a20878682541617905581601654168a52888a2087868254161790558173d152f549545093347a162dce210e7293f145215093848c528a8c208988825416179055737ee058420e5937496f5a2096f04caa7721cf70cc95868d528b8d208a89825416179055308d528a528a8c20898882541617905554168a52888a2087868254161790555416885286882085848254161790558752858720848382541617905586528285872091825416179055600e54845190815285600080516020614bf3833981519152853393a3610ddf578380f35b7f7f26b83ff96e1f2b6a682f133852f6798a09c465da95921460cefb38474024989261ff0019602a5416602a5551908152a18180808380f35b8154811015610f065785610e2b82613077565b905490861b1c168015610ed357808f8f8f939160ff9281526026809552205416610e8f578f528c528c8e2080548a168c179055838c528c8e2080548a168c179055878c528c8e2080548a168c1790558a929190610e8790613354565b909192610ce2565b508d5162461bcd60e51b81528085018e9052602481018790527f6f776e657220697320616c7265616479207468657265210000000000000000006044820152606490fd5b8d5162461bcd60e51b81528085018e9052602481018990526c34b73b30b634b21037bbb732b960991b6044820152606490fd5b610ce7565b8d8884511693019281600080516020614b938339815191520155018b90610cd6565b600080516020614b93833981519152018d7f401968ff42a154441da5f6c4c935ac46b8671f0e062baaa62a7545ba53bb6e515b828110610f6e575050610ccd565b80929450949092945501918f92918d8593610f60565b634e487b7160e01b8d526041825260248dfd5b610fb79150873d8911610fbd575b610faf81836131fe565b8101906132ff565b89610ac4565b503d610fa5565b87513d8a823e3d90fd5b610fe59150843d8611610fbd57610faf81836131fe565b8c610a7c565b88513d8b823e3d90fd5b61100c9150863d8811610fbd57610faf81836131fe565b88610a52565b845162461bcd60e51b8152908101849052602f60248201527f4f6e6c792074686520616c6c6f7765642077616c6c65742063616e2063616c6c60448201526e103a3434b990333ab731ba34b7b71760891b6064820152608490fd5b61010061ff0019602a541617602a55610a09565b8380fd5b8280fd5b8284346104615780600319360112610461576020906110b36110a96130e5565b6024359033613b64565b5160018152f35b828434610461578160031936011261046157600d5490516001600160a01b039091168152602090f35b5090346104c557826003193601126104c5576110fd6130e5565b918360243592338152600260205281812060018060a01b0386168252602052205490828210611136576020856110b38585038733613a17565b608490602086519162461bcd60e51b8352820152602560248201527f45524332303a2064656372656173656420616c6c6f77616e63652062656c6f77604482015264207a65726f60d81b6064820152fd5b508234611085576111973661314b565b909233855260266020526111b060ff8487205416613556565b670de0b6b3a7640000808502908582041485151715610672576013556111d96028548310614a95565b6111e760ff61034d846132c4565b6111f082614b23565b6027541161129157611201826132c4565b5090600b600183015403611260575091600080516020614bb383398151915260207f575beb4f9d024a957fea2f529f8545a4962564551d15f927269d203b31f349b495938195600160ff198254161790558351908152a151908152a180f35b606490602085519162461bcd60e51b835282015260156024820152600080516020614c138339815191526044820152fd5b608490602084519162461bcd60e51b835282015260226024820152600080516020614bd3833981519152604482015261185b60f21b6064820152fd5b5050346104c557806003193601126104c55750602254602354602454925191825260208201526040810191909152606090f35b508290346110855760203660031901126110855735602854811015611085576003906028606094520260ff817fe16da923a2d88192e5070f37b4571d58682c0d66212ec634d495f33de3f77ab5015416917fe16da923a2d88192e5070f37b4571d58682c0d66212ec634d495f33de3f77ab6820154917fe16da923a2d88192e5070f37b4571d58682c0d66212ec634d495f33de3f77ab760018060a01b039101541691815193151584526020840152820152f35b509134610461576060366003190112610461576113cf613170565b926024356044359433855260266020526113ee60ff8587205416613556565b818004600114821517156115165781600b5515159160ff1980600a541660ff851617600a556114206028548810614a95565b61142e60ff61034d896132c4565b61143787614b23565b602754116114da57611448876132c4565b509160076001840154036114a957507ffa4011cdf98f199f8dfb40850066df236ce0c61ec9ca8cf7df069471144fb92d9596826001602093600080516020614bb38339815191529554161790558551908152a182519182526020820152a180f35b606490602087519162461bcd60e51b835282015260156024820152600080516020614c138339815191526044820152fd5b845162461bcd60e51b815260208184015260226024820152600080516020614bd3833981519152604482015261185b60f21b6064820152608490fd5b634e487b7160e01b855260118352602485fd5b5091346104615760209081600319360112611085578335933384526026835261155760ff8386205416613556565b6002611562866132c4565b500180546001600160a01b039081168087528386528487205491939160ff16611728578087528686528487205461170b575b5082825416865280855283862060ff199060018282541617905583835416600754600160401b8110156116f857906115d58260016115f9940160075561302a565b90919082549060031b9160018060a01b039283811b93849216901b16911916179055565b6116066028548910614a95565b61161460ff61034d8a6132c4565b61161d88614b23565b602754116116bc5761162e886132c4565b5091600260018401540361168b57507f8cd08ff476550dec3de6ea6137b3eaca4ab9ae21761ea26eb09cb6305fd424a896978260018893600080516020614bb38339815191529554161790558551908152a154169051908152a180f35b855162461bcd60e51b815290810187905260156024820152600080516020614c138339815191526044820152606490fd5b845162461bcd60e51b815280830187905260226024820152600080516020614bd3833981519152604482015261185b60f21b6064820152608490fd5b634e487b7160e01b895260418452602489fd5b611717858820546134e6565b908752600186528487205538611594565b845162461bcd60e51b8152808301879052601b60248201527f4163636f756e7420697320616c7265616479206578636c7564656400000000006044820152606490fd5b82843461046157816003193601126104615780516104c19161178c826131c5565b60038252620534c560ec1b6020830152519182918261309c565b508290346110855760203660031901126110855760209260ff918391906001600160a01b036117d36130e5565b168252855220541690519015158152f35b82843461046157816003193601126104615760165490516001600160a01b039091168152602090f35b82843461046157816003193601126104615760209061182a614a79565b9051908152f35b508290346110855781600319360112611085578160209360ff92611853613100565b90358252602986528282206001600160a01b039091168252855220549151911615158152f35b82843461046157816003193601126104615760175490516001600160a01b039091168152602090f35b5050346104c557806003193601126104c55750601c54601d54601e54925191825260208201526040810191909152606090f35b509190346104c55760203660031901126104c5575061182a60209235614b23565b8284346104615760203660031901126104615760209061182a6119176130e5565b613406565b82843461046157816003193601126104615760209060ff60085460081c1690519015158152f35b5034610461578260031936011261046157803561195e613161565b903384526020926026845261197860ff8787205416613556565b611981826132c4565b50600201546001600160a01b0316855260068452858520805460ff191660ff851515161790556119b46028548310614a95565b6119c260ff61034d846132c4565b6119cb82614b23565b602754116103fe576119dc826132c4565b509060086001830154036103cd5750837fb4dd5c2209bde9a21f0e7f65b94f8565474c3c3e744b186e1f9b38e086af280d959692600080516020614bb383398151915292600160ff198254161790558351908152a1519015158152a180f35b8284346104615781600319360112610461576020906011549051908152f35b8284346104615781600319360112610461576020906013549051908152f35b8284346104615781600319360112610461576020906012549051908152f35b8284346104615760203660031901126104615760209160ff9082906001600160a01b03611ac36130e5565b1681526005855220541690519015158152f35b50346104615782600319360112610461578035611af1613161565b9033845260209260268452611b0b60ff8787205416613556565b611b14826132c4565b50600201546001600160a01b0316855260058452858520805460ff191660ff85151516179055611b476028548310614a95565b611b5560ff61034d846132c4565b611b5e82614b23565b602754116103fe57611b6f826132c4565b509060066001830154036103cd5750837f9df30a92d8b45281aaad80fbcad933dfe9354bcdee1277231df54e63e55195d7959692600080516020614bb383398151915292600160ff198254161790558351908152a1519015158152a180f35b5034610461578260031936011261046157611be7613170565b9060243533845260209260268452611c0460ff8787205416613556565b15159160018303611cca576002868051611c1d8161317f565b82815260018782015201526002601c556001601d556002601e555b611c456028548310614a95565b611c5360ff61034d846132c4565b611c5c82614b23565b602754116103fe57611c6d826132c4565b509060116001830154036103cd5750837f2aa8128b3cf57c168078769033a09f2677560674defb313c68f8ec74df66dc90959692600080516020614bb383398151915292600160ff198254161790558351908152a151908152a180f35b84868051611cd78161317f565b8281528287820152015284601c5584601d5584601e55611c38565b8284346104615760203660031901126104615760209160ff9082906001600160a01b03611d1d6130e5565b1681526003855220541690519015158152f35b5090346104c557611d4036613220565b90929133835260209160268352611d5c60ff8886205416613556565b835b8251811015611da257611d9d906001600160a01b03611d7d82866138a6565b5116865260058552610705878a88209060ff801983541691151516179055565b611d5e565b50909294611db36028548310614a95565b611dc160ff61034d846132c4565b611dca82614b23565b602754116107e157611ddb826132c4565b5090600f6001830154036107b05750805460ff19166001179055855190815293947f191f53b0e0dc669e0bebab999ce36b4af8938f5b060c7b7e6974007743f9c679946107aa92600080516020614bb383398151915291a15192839283614a59565b5082903461108557608036600319011261108557611e596130e5565b91611e62613100565b60449283359360649081359133895260209360268552611e8760ff888c205416613556565b6001600160a01b0398891698891561214b57308a1461210b5786169586156120bf57881561207457875163a9059cbb60e01b81526001600160a01b0391909116828201908152602081018a905286908290819003604001818e8e5af190811561206a578b91612030575b5015611ff957611f046028548510614a95565b611f1260ff61034d866132c4565b611f1b84614b23565b60275411611fc157611f2c846132c4565b509281600185015403611f94578a7f94db19fb7047d6922d4ff747f063bb58993e912f3be4eb1c26749ae78606252d60608c8c8c8c8c600080516020614bb3833981519152818e8e600160ff198254161790558551908152a18251948552840152820152a180f35b875162461bcd60e51b815291820186905260156024830152600080516020614c1383398151915290820152fd5b61185b60f21b608492600080516020614bd383398151915285888b519562461bcd60e51b875286015260226024860152840152820152fd5b865162461bcd60e51b81529081018590526015602482015274151bdad95b881d1c985b9cd9995c8819985a5b1959605a1b81840152fd5b90508581813d8311612063575b61204781836131fe565b8101031261205f5751801515810361205f578b611ef1565b8a80fd5b503d61203d565b88513d8d823e3d90fd5b5061726f60f01b6084927f616d6f756e742073686f756c642062652067726561746572207468616e207a6585888b519562461bcd60e51b875286015260226024860152840152820152fd5b506265737360e81b6084927f72656365697665722063616e6e6f7420626520746865207a65726f206164647285888b519562461bcd60e51b875286015260236024860152840152820152fd5b50865162461bcd60e51b8152908101859052601a60248201527f796f752063616e206e6f74207769746864726177616c204d535400000000000081840152fd5b50666164647265737360c81b6084927f746f6b656e416464726573732063616e6e6f7420626520746865207a65726f2085888b519562461bcd60e51b875286015260276024860152840152820152fd5b82843461046157816003193601126104615760209060ff6008541690519015158152f35b509190346104c557816003193601126104c5575061182a6020926121e1613161565b9035613456565b5034610461576121f736613116565b9092338552602660205261221060ff8787205416613556565b60018060a01b036001600160601b0360a01b9080851682600c541617600c55851690600d541617600d556122476028548310614a95565b61225560ff61034d846132c4565b61225e82614b23565b602754116123195761226f826132c4565b5090600c6001830154036122e8575094600080516020614bb383398151915260206107aa937f175e4bbeb77c7e49271724a8534bbdd31ea0f809390ee2f57d6b7aa286440eef9798600160ff198254161790558351908152a1516001600160a01b03928316815292909116602083015281906040820190565b606490602088519162461bcd60e51b835282015260156024820152600080516020614c138339815191526044820152fd5b608490602087519162461bcd60e51b835282015260226024820152600080516020614bd3833981519152604482015261185b60f21b6064820152fd5b8284346104615780600319360112610461576110b360209261239e6123786130e5565b338352600286528483206001600160a01b03821684528652918490205460243590613449565b9033613a17565b8284346104615781600319360112610461576020905160128152f35b8284346104615760203660031901126104615760209160ff9082906001600160a01b036123ec6130e5565b1681526026855220541690519015158152f35b509190346104c55760203660031901126104c5575061182a602092356134e6565b508234611085576124303661314b565b9092338552602660205261244960ff8487205416613556565b670de0b6b3a7640000808502908582041485151715610672576010556124726028548310614a95565b61248060ff61034d846132c4565b61248982614b23565b602754116112915761249a826132c4565b5090600d600183015403611260575091600080516020614bb383398151915260207fd9426b58c81d17f6dd4bb6b8680fe18cfcfed49a38648d7d1a2d8fb9806fc21895938195600160ff198254161790558351908152a151908152a180f35b8284346104615781600319360112610461576020906014549051908152f35b508234611085578060031936011261108557813592612535613100565b933382526020946026865261254f60ff8585205416613556565b601182111580612773575b1561273c5760285491826126d3575b8451906125758261317f565b8482528782019081526001600160a01b0392831686830190815293600160401b8110156126c0578060016125ac92016028556132c4565b9290926126ae57906125d060029392511515839060ff801983541691151516179055565b516001820155019151166001600160601b0360a01b825416179055602854926000199384810190811161269b578252602985528282203383528552828220805460ff191660011790556028549384019384116126885750508051338152602081018390527f90ec57f18fa7b15c6b8d5e4d1deb90796c74b2ff23d4d0cecad0cb42a96b312890604090a17fe764a167ea16dba9a9b8fdc48c267800565d742612790348c3342f6ed230acfa838251848152a151908152f35b634e487b7160e01b825260119052602490fd5b634e487b7160e01b835260118252602483fd5b634e487b7160e01b8652858852602486fd5b634e487b7160e01b865260418852602486fd5b600160ff6126e0836132c4565b50541615151461256957845162461bcd60e51b8152808701889052602660248201527f506c656173652045786563757465205175657565205472616e73616374696f6e60448201526508119a5c9cdd60d21b6064820152608490fd5b835162461bcd60e51b815280860187905260116024820152701a5b9d985b1a59081b595d1a1bd9081a59607a1b6044820152606490fd5b5081151561255a565b5082346110855760208060031936011261108157823592338552602682526127a960ff8487205416613556565b6127b66028548510614a95565b83855260298252828520338652825260ff838620541661283b5750916107aa917f90ec57f18fa7b15c6b8d5e4d1deb90796c74b2ff23d4d0cecad0cb42a96b31289361280660ff61034d856132c4565b82865260298152818620338088529152818620805460ff19166001179055905190815260208101919091529081906040820190565b915162461bcd60e51b815291820152601560248201527474726e782068617320616c726561647920646f6e6560581b6044820152606490fd5b503461046157829061288536613116565b9390919460018060a01b038616815260026020528181203382526020522054918383106128d0576020866110b3876128c888886128c3828a86613b64565b613347565b903390613a17565b608490602087519162461bcd60e51b8352820152602860248201527f45524332303a207472616e7366657220616d6f756e74206578636565647320616044820152676c6c6f77616e636560c01b6064820152fd5b503461046157826003193601126104615761293d6130e5565b906024353384526020926026845261295a60ff8787205416613556565b6001600160a01b0316918215612a1057826001600160601b0360a01b601754161760175561298b6028548310614a95565b61299960ff61034d846132c4565b6129a282614b23565b602754116103fe576129b3826132c4565b509060096001830154036103cd5750837f02662ef2c54ff98367eb3d0304b112d24ff78beb4077efcef65b040baca760ab959692600080516020614bb383398151915292600160ff198254161790558351908152a151908152a180f35b855162461bcd60e51b8152908101849052602760248201527f6d61726b6574696e6777616c6c657420616464726573732063616e206e6f74206044820152666265207a65726f60c81b6064820152608490fd5b508234611085576020806003193601126110815782359233855260268252612a9060ff8487205416613556565b612a9d6028548510614a95565b612aab60ff61034d866132c4565b83855260298252828520338652825260ff838620541615612b1b575082845260298152818420338086529152818420805460ff19169055905190815260208101919091527fec9ab91322523c899ede7830ec9bfc992b5981cdcc27b91162fb23de5791117b9080604081016107aa565b915162461bcd60e51b815291820152601960248201527f74726e7820686173206e6f74206265656e20617070726f7665000000000000006044820152606490fd5b828434610461578160031936011261046157602090600e549051908152f35b50913461046157602090816003193601126110855783359333845260268352612ba960ff8386205416613556565b6002612bb4866132c4565b500180546001600160a01b03929083168015612c715786526003855283862060ff1990600182825416179055612bed6028548910614a95565b612bfb60ff61034d8a6132c4565b612c0488614b23565b602754116116bc57612c15886132c4565b50916001808401540361168b57507fdbde64bef24f6c6798c1137955e0f3ab1ee540536392bea881c4ad3e6d61ecc796978260018893600080516020614bb38339815191529554161790558551908152a154169051908152a180f35b845162461bcd60e51b8152808301879052600f60248201526e696e76616c6964206164647265737360881b6044820152606490fd5b5090346104c557602080600319360112610461578235933383526026825260ff612cd4818386205416613556565b6002612cdf876132c4565b500180546001600160a01b03908116865286855283862054909290811615612f2157855b600780549081831015612f1357612d198361302a565b929054878088541691600395861b1c1614612d3f57505050612d3a90613354565b612d03565b9260009a9295969798999a9491941993848101908111612f0057906115d589612d6a612d779461302a565b9054908a1b1c169161302a565b8686541693848b52600194858b52612da38a8d2054612d9d612d976138ba565b906134c6565b9061331e565b908c528b8b52898c2055878754168b52848a528a89812055878754168b52828a52888b209360ff199485815416905581548015612eed57612e0d9392910190612deb8261302a565b8b8254918b1b1b1916905555612e046028548d10614a95565b61034d8c6132c4565b612e168a614b23565b60275411612eb157612e278a6132c4565b50938385015403612e805750978287927f9351be60d7684154f1d81ed1dcf87da46bbc44b32dad50c57e2722860a9ad48a999a600080516020614bb38339815191529554161790558551908152a154169051908152a180f35b865162461bcd60e51b815290810188905260156024820152600080516020614c138339815191526044820152606490fd5b865162461bcd60e51b815290810188905260226024820152600080516020614bd3833981519152604482015261185b60f21b6064820152608490fd5b634e487b7160e01b8d526031855260248dfd5b634e487b7160e01b8c526011845260248cfd5b505050505050505091505080f35b835162461bcd60e51b8152808801869052601760248201527f4163636f756e74206973206e6f74206578636c756465640000000000000000006044820152606490fd5b8284346104615780600319360112610461576020906110b3612f846130e5565b6024359033613a17565b82843461046157816003193601126104615780516104c191612faf826131c5565b601882527f536561726368204c6f6e676573742050726f6772616d563200000000000000006020830152519182918261309c565b919050346110855760203660031901126110855735602554811015611085576025909252600080516020614b93833981519152909101546001600160a01b03168152602090f35b6007548110156130615760076000527fa66cc928b5edb82af9bd49922954155ab7b0942694bea4ce44661d9a8736c6880190600090565b634e487b7160e01b600052603260045260246000fd5b602554811015613061576025600052600080516020614b938339815191520190600090565b6020808252825181830181905290939260005b8281106130d157505060409293506000838284010152601f8019910116010190565b8181018601518482016040015285016130af565b600435906001600160a01b03821682036130fb57565b600080fd5b602435906001600160a01b03821682036130fb57565b60609060031901126130fb576001600160a01b039060043582811681036130fb579160243590811681036130fb579060443590565b60409060031901126130fb576004359060243590565b6024359081151582036130fb57565b6004359081151582036130fb57565b6060810190811067ffffffffffffffff82111761319b57604052565b634e487b7160e01b600052604160045260246000fd5b67ffffffffffffffff811161319b57604052565b6040810190811067ffffffffffffffff82111761319b57604052565b610100810190811067ffffffffffffffff82111761319b57604052565b90601f8019910116810190811067ffffffffffffffff82111761319b57604052565b60606003198201126130fb576004359067ffffffffffffffff908183116130fb57806023840112156130fb57826004013591821161319b578160051b6040519360209361326f858401876131fe565b85526024848601928201019283116130fb57602401905b8282106132a557505050509060243580151581036130fb579060443590565b81356001600160a01b03811681036130fb578152908301908301613286565b602854811015613061576003906028600052027fe16da923a2d88192e5070f37b4571d58682c0d66212ec634d495f33de3f77ab50190600090565b908160209103126130fb57516001600160a01b03811681036130fb5790565b8181029291811591840414171561333157565b634e487b7160e01b600052601160045260246000fd5b9190820391821161333157565b60001981146133315760010190565b1561336a57565b60405162461bcd60e51b815260206004820152602e60248201527f496e697469616c697a61626c653a20636f6e747261637420697320616c72656160448201526d191e481a5b9a5d1a585b1a5e995960921b6064820152608490fd5b602a5460ff8160081c166000146133e857506133e3303b15613363565b600090565b806133f9600160ff81941610613363565b60ff191617602a55600190565b6001600160a01b031660009081526004602052604090205460ff1661343b5760006020526134386040600020546134e6565b90565b600160205260406000205490565b9190820180921161333157565b90600e548211613481576134715761346d906135e8565b5190565b61347c6020916135e8565b015190565b60405162461bcd60e51b815260206004820152601f60248201527f416d6f756e74206d757374206265206c657373207468616e20737570706c79006044820152606490fd5b81156134d0570490565b634e487b7160e01b600052601260045260246000fd5b600f5481116134fe5761343890612d97612d976138ba565b60405162461bcd60e51b815260206004820152602a60248201527f416d6f756e74206d757374206265206c657373207468616e20746f74616c207260448201526965666c656374696f6e7360b01b6064820152608490fd5b1561355d57565b60405162461bcd60e51b815260206004820152600c60248201526b3737ba1030b71037bbb732b960a11b6044820152606490fd5b60405190610120820182811067ffffffffffffffff82111761319b57604052816101006000918281528260208201528260408201528260608201528260808201528260a08201528260c08201528260e08201520152565b6135f0613591565b506135f9613591565b906000604080516136098161317f565b828152826020820152015261361c6136e5565b90606461362a83518361331e565b049160c084019283526136b86136a36136b1606461366360408261365260208901518a61331e565b049660e08b0197885201518761331e565b0494610100880195865261368661367e61367e895184613347565b875190613347565b60a08901526136aa613699612d976138ba565b809481809461331e565b985161331e565b945161331e565b935161331e565b916136cb836128c3836128c38689613347565b926080860152606085015260408401526020830152815290565b604051906136f28261317f565b601c548252601d546020830152601e546040830152565b604051906137168261317f565b81601f54815260205460208201526040602154910152565b9092613738613591565b9315613819576137cc926000604080516137518161317f565b828152826020820152015280613811575b156137d457506137c4613773613709565b6137c4606461378383518661331e565b049360c0870194855260646137b36040826137a260208801518661331e565b049560e08b0196875201518361331e565b049461010088019586525190613347565b905190613347565b60a082015290565b6137e8576137c46137e36136e5565b613773565b6137c46040516137f78161317f565b6019548152601a546020820152601b546040820152613773565b508015613762565b5060a08301525090565b919390836138309161331e565b9384901561387d575061386461384a8460c085015161331e565b9361010061385c8260e087015161331e565b94015161331e565b90613877826128c3856128c3888a613347565b93929190565b92506000915081908190565b8051156130615760200190565b8051600110156130615760400190565b80518210156130615760209160051b010190565b600f549081600e5492839060409283519182906007549485855260208095019583600097600789527fa66cc928b5edb82af9bd49922954155ab7b0942694bea4ce44661d9a8736c68892895b898282106139f85750505061391d925003846131fe565b85985b83518a10156139d2576001600160a01b03928361393d8c876138a6565b5116885287875280898920541180156139b3575b6139a55761399f9161397c613999928661396b8f8a6138a6565b51168b528a8a528b8b205490613347565b946139878d886138a6565b51168952600188528989205490613347565b99613354565b98613920565b505097505050925050509190565b50836139bf8c876138a6565b5116885260018752818989205411613951565b9850945094505090506139e582826134c6565b83106139f15750509190565b9350919050565b85546001600160a01b0316845260019586019589955093019201613906565b6001600160a01b03908116918215613ac85716918215613a785760207f8c5be1e5ebec7d5bd14f71427d1e84f3dd0314c0f7b2291e5b200ac8c7c3b925918360005260028252604060002085600052825280604060002055604051908152a3565b60405162461bcd60e51b815260206004820152602260248201527f45524332303a20617070726f766520746f20746865207a65726f206164647265604482015261737360f01b6064820152608490fd5b60405162461bcd60e51b8152602060048201526024808201527f45524332303a20617070726f76652066726f6d20746865207a65726f206164646044820152637265737360e01b6064820152608490fd5b15613b2057565b606460405162461bcd60e51b815260206004820152602060248201527f596f752061726520657863656564696e67206d617857616c6c65744c696d69746044820152fd5b916001600160a01b03831691600083156148ae576001600160a01b03821694851561485d57831561480657613b9890613406565b83116147a757838152600660205260ff91826040832054161580614796575b1561476157613bec6064613be5613bdf613bd6601c54601d5490613449565b601e5490613449565b8761331e565b0485613347565b600d549091906001600160a01b0316868114808061474b575b8061473c575b6146d9575b15806146c3575b806146ad575b8061469e575b6145a6575b505050613c3430613406565b601054906008549082858360101c16159182614598575b8261458d575b505080614578575b80614562575b8061454c575b613fa5575b5050600080516020614bf38339815191529260209260a092600192818360085460101c168015613f91575b8015613f7d575b613f74575b600180871b03600d54168a14613f6c575b613cfc613ce8613d78928b865260038a5286604087205416159081613f5a575b81613f40575b613ce0613591565b50888661372e565b95613cf4612d976138ba565b908488613823565b949291938b8a979297019260408b019560608c019860808d0198895289528652835289528c875260048b5287604088205416613f1c575b508c865260048a5286604087205416613ef5575b8b8652858a52613d5d6040872054895190613347565b8c8752868b5260408720558c86526040862054905190613449565b8b85528489526040852055518015801590613ee8575b613ebf575b50518015801590613eb1575b613e32575b5051918215801590613e25575b613dc4575b5050500151604051908152a3565b613e019160409160e086015190613ddd82602354613449565b602355308352600489528383205416613e0b575b5030815280875220918254613449565b9055388080613db6565b60018852613e1d838320918254613449565b905538613df1565b5060e08401511515613db1565b613e84906101008601908151613e4a81602454613449565b60245530865260048a5286604087205416613e96575b50308552848952613e7660408620918254613449565b90555160e086015190613449565b6040519081528888883093a338613da4565b60018a52613ea960408720918254613449565b905538613e60565b506101008501511515613d9f565b613edf90613ed460c088015191600f54613347565b600f55602254613449565b60225538613d93565b5060c08601511515613d8e565b60018a52613f0b60408720548a8a015190613449565b8d875260018b526040872055613d47565b613f2e9060018c526040882054613347565b8c875260018b52604087205538613d33565b9050613f5160145460155490613449565b43111590613cd8565b8d875260408720548816159150613cd2565b506001613cb2565b93508193613ca1565b508983526003875283604084205416613c9c565b508883526003875283604084205416613c95565b600d546001600160a01b03168703614307575050601054613fc4613709565b6201000062ff0000196008541617600855613fe86040820151602083015190613449565b91828060011b04600214831517156142f35761401e6140178460011b61401260408601518561331e565b6134c6565b8092613347565b604051479161402c8261317f565b6002825260403660208401373061404283613889565b52600c546040516315ab88c960e31b81526001600160a01b0390911690602081600481855afa9081156142e85791839161409a938b916142c9575b5061408786613896565b6001600160a01b03909116905230613a17565b600c546001600160a01b031690813b156142c5579187916140e5938360405180968195829463791ac94760e01b8452600484015283602484015260a0604484015260a4830190614a1c565b30606483015242608483015203925af180156142ba57908693929161429c575b5061411361414f9147613347565b94612d9761414061413461412e60408901518560011b613347565b896134c6565b9760408801519061331e565b9160408701519060011b613347565b806141db575b5050508160011b91808304600214901517156141c7579260a09261418f600080516020614bf383398151915296936020809701519061331e565b806141ae575b5062ff000019600854166008555b925092819450613c6a565b6141c190600180871b0360175416614941565b38614195565b634e487b7160e01b83526011600452602483fd5b600c548392906141f69082906001600160a01b031630613a17565b60018060a01b03600c541691604051602081019263f305d71960e01b84523060248301526044820152600a6064820152600a60848201523060a48201524260c482015260c48152614246816131e1565b51925af1614252614901565b501561426057823880614155565b60405162461bcd60e51b8152602060048201526014602482015273105919081b1a5c5d5a591a5d1e4819985a5b195960621b6044820152606490fd5b6142a990939192936131b1565b6142b65790849138614105565b8480fd5b6040513d88823e3d90fd5b8780fd5b6142e2915060203d602011610fbd57610faf81836131fe565b3861407d565b6040513d8b823e3d90fd5b634e487b7160e01b84526011600452602484fd5b620100006143136136e5565b9162ff00001916176008556143316040820151602083015190613449565b91828060011b04600214831517156142f35761435b6140178460011b61401260408601518561331e565b60405147916143698261317f565b6002825260403660208401373061437f83613889565b52600c546040516315ab88c960e31b81526001600160a01b0390911690602081600481855afa9081156142e8579183916143c3938b916142c9575061408786613896565b600c546001600160a01b031690813b156142c55791879161440e938360405180968195829463791ac94760e01b8452600484015283602484015260a0604484015260a4830190614a1c565b30606483015242608483015203925af180156142ba5761452f575b5090614439614113869347613347565b806144aa575b5050508160011b91808304600214901517156141c7579260a092614479600080516020614bf383398151915296936020809701519061331e565b80614491575b5062ff000019600854166008556141a3565b6144a490600180871b0360175416614941565b3861447f565b600c548392906144c59082906001600160a01b031630613a17565b60018060a01b03600c541691604051602081019263f305d71960e01b84523060248301526044820152600a6064820152600a60848201523060a48201524260c482015260c48152614515816131e1565b51925af1614521614901565b50156142605782388061443f565b61411395614542614439929493946131b1565b9550919091614429565b5086835260036020528360408420541615613c65565b5085835260036020528360408420541615613c5f565b50600d546001600160a01b0316861415613c59565b101590508238613c51565b9150858360081c1691613c4b565b6012548611614659578703614633575b505081600a54166145ca575b388080613c28565b838152602b6020526145e0604082205442613347565b600b54116145fb57838152602b6020524260408220556145c2565b60405162461bcd60e51b815260206004820152601060248201526f10dbdbdb191bdddb88195b98589b195960821b6044820152606490fd5b6146529161464361464892613406565b613449565b6013541015613b19565b38806145b6565b60405162461bcd60e51b815260206004820152601e60248201527f596f752061726520657863656564696e67206d617853656c6c4c696d697400006044820152606490fd5b508460085460101c1615613c23565b5086845260036020528460408520541615613c1d565b5087845260036020528460408520541615613c17565b60115487116146f7576146f26146488561464386613406565b613c10565b60405162461bcd60e51b815260206004820152601d60248201527f596f752061726520657863656564696e67206d61784275794c696d69740000006044820152606490fd5b508560085460101c1615613c0b565b5088855260036020528560408620541615613c05565b60405162461bcd60e51b815260206004820152600d60248201526c165bdd48185c99481848189bdd609a1b6044820152606490fd5b508582528260408320541615613bb7565b60405162461bcd60e51b815260206004820152603160248201527f596f752061726520747279696e6720746f207472616e73666572206d6f7265206044820152707468616e20796f75722062616c616e636560781b6064820152608490fd5b60405162461bcd60e51b815260206004820152602960248201527f5472616e7366657220616d6f756e74206d7573742062652067726561746572206044820152687468616e207a65726f60b81b6064820152608490fd5b60405162461bcd60e51b815260206004820152602360248201527f45524332303a207472616e7366657220746f20746865207a65726f206164647260448201526265737360e81b6064820152608490fd5b60405162461bcd60e51b815260206004820152602560248201527f45524332303a207472616e736665722066726f6d20746865207a65726f206164604482015264647265737360d81b6064820152608490fd5b3d1561493c573d9067ffffffffffffffff821161319b5760405191614930601f8201601f1916602001846131fe565b82523d6000602084013e565b606090565b8147106149d7576000918291829182916001600160a01b03165af1614964614901565b501561496c57565b60405162461bcd60e51b815260206004820152603a60248201527f416464726573733a20756e61626c6520746f2073656e642076616c75652c207260448201527f6563697069656e74206d617920686176652072657665727465640000000000006064820152608490fd5b60405162461bcd60e51b815260206004820152601d60248201527f416464726573733a20696e73756666696369656e742062616c616e63650000006044820152606490fd5b90815180825260208080930193019160005b828110614a3c575050505090565b83516001600160a01b031685529381019392810192600101614a2e565b90614a71602091949394604084526040840190614a1c565b931515910152565b60285480614a8657600080fd5b60001981019081116133315790565b15614a9c57565b60405162461bcd60e51b81526020600482015260136024820152721d1c9b9e08191bd95cc81b9bdd08195e1a5cdd606a1b6044820152606490fd5b15614ade57565b60405162461bcd60e51b815260206004820152601960248201527f74726e782068617320616c7265616479206578656375746564000000000000006044820152606490fd5b602554600091825b828110614b385750505090565b8160005260ff6020602981526040908160002090614b5585613077565b60018060a01b0391549060031b1c16600052526000205416614b80575b614b7b90613354565b614b2b565b92600181018091116133315792614b7256fe401968ff42a154441da5f6c4c935ac46b8671f0e062baaa62a7545ba53bb6e4cddb556f1d2c1ec821e910b019d3685b229db152a0ecd517ca7e24b8bd7139289796f7520646f6e277420686176652073756666696369656e7420617070726f76ddf252ad1be2c89b69c2b068fc378daa952ba7f163c4a11628f55a4df523b3ef696e76616c69642046756e6374696f6e2063616c6c0000000000000000000000a2646970667358221220f68b96abcdd56d44fb7a8c623c364d70952a8029449db1ed38d923af9bb8da5b64736f6c63430008110033","opcodes":"PUSH1 0x80 DUP1 PUSH1 0x40 MSTORE CALLVALUE PUSH2 0x16 JUMPI PUSH2 0x4C68 SWAP1 DUP2 PUSH2 0x1C DUP3 CODECOPY RETURN JUMPDEST PUSH1 0x0 DUP1 REVERT INVALID PUSH1 0x80 PUSH1 0x40 SWAP1 DUP1 DUP3 MSTORE PUSH1 0x4 DUP1 CALLDATASIZE LT ISZERO PUSH2 0x22 JUMPI JUMPDEST POP POP POP CALLDATASIZE ISZERO PUSH2 0x20 JUMPI PUSH1 0x0 DUP1 REVERT JUMPDEST STOP JUMPDEST PUSH1 0x0 SWAP2 DUP3 CALLDATALOAD PUSH1 0xE0 SHR SWAP1 DUP2 PUSH4 0x25E7C27 EQ PUSH2 0x2FE3 JUMPI POP DUP1 PUSH4 0x6FDDE03 EQ PUSH2 0x2F8E JUMPI DUP1 PUSH4 0x95EA7B3 EQ PUSH2 0x2F64 JUMPI DUP1 PUSH4 0x112BB58E EQ PUSH2 0x2CA6 JUMPI DUP1 PUSH4 0x17BD4CDE EQ PUSH2 0x2B7B JUMPI DUP1 PUSH4 0x18160DDD EQ PUSH2 0x2B5C JUMPI DUP1 PUSH4 0x20C5429B EQ PUSH2 0x2A63 JUMPI DUP1 PUSH4 0x23797808 EQ PUSH2 0x2924 JUMPI DUP1 PUSH4 0x23B872DD EQ PUSH2 0x2874 JUMPI DUP1 PUSH4 0x242232D1 EQ PUSH2 0x277C JUMPI DUP1 PUSH4 0x2671D558 EQ PUSH2 0x2518 JUMPI DUP1 PUSH4 0x274A533C EQ PUSH2 0x24F9 JUMPI DUP1 PUSH4 0x2C0E22CC EQ PUSH2 0x2420 JUMPI DUP1 PUSH4 0x2D838119 EQ PUSH2 0x23FF JUMPI DUP1 PUSH4 0x2F54BF6E EQ PUSH2 0x23C1 JUMPI DUP1 PUSH4 0x313CE567 EQ PUSH2 0x23A5 JUMPI DUP1 PUSH4 0x39509351 EQ PUSH2 0x2355 JUMPI DUP1 PUSH4 0x3E4E7FBF EQ PUSH2 0x21E8 JUMPI DUP1 PUSH4 0x4549B039 EQ PUSH2 0x21BF JUMPI DUP1 PUSH4 0x4ADA218B EQ PUSH2 0x219B JUMPI DUP1 PUSH4 0x4D050922 EQ PUSH2 0x1E3D JUMPI DUP1 PUSH4 0x53075D3F EQ PUSH2 0x1D30 JUMPI DUP1 PUSH4 0x5342ACB4 EQ PUSH2 0x1CF2 JUMPI DUP1 PUSH4 0x538CA8F4 EQ PUSH2 0x1BCE JUMPI DUP1 PUSH4 0x584A56CC EQ PUSH2 0x1AD6 JUMPI DUP1 PUSH4 0x62695EAE EQ PUSH2 0x1A98 JUMPI DUP1 PUSH4 0x652E2F04 EQ PUSH2 0x1A79 JUMPI DUP1 PUSH4 0x66A88D96 EQ PUSH2 0x1A5A JUMPI DUP1 PUSH4 0x6AA5B37F EQ PUSH2 0x1A3B JUMPI DUP1 PUSH4 0x6C6B9BB2 EQ PUSH2 0x1943 JUMPI DUP1 PUSH4 0x6DDD1713 EQ PUSH2 0x191C JUMPI DUP1 PUSH4 0x70A08231 EQ PUSH2 0x18F6 JUMPI DUP1 PUSH4 0x70DA913C EQ PUSH2 0x18D5 JUMPI DUP1 PUSH4 0x728F8EEA EQ PUSH2 0x18A2 JUMPI DUP1 PUSH4 0x75F0A874 EQ PUSH2 0x1879 JUMPI DUP1 PUSH4 0x8253951A EQ PUSH2 0x1831 JUMPI DUP1 PUSH4 0x825F375E EQ PUSH2 0x180D JUMPI DUP1 PUSH4 0x85141A77 EQ PUSH2 0x17E4 JUMPI DUP1 PUSH4 0x88F82020 EQ PUSH2 0x17A6 JUMPI DUP1 PUSH4 0x95D89B41 EQ PUSH2 0x176B JUMPI DUP1 PUSH4 0x97DD3E99 EQ PUSH2 0x1529 JUMPI DUP1 PUSH4 0x987B2205 EQ PUSH2 0x13B4 JUMPI DUP1 PUSH4 0x9ACE38C2 EQ PUSH2 0x1300 JUMPI DUP1 PUSH4 0x9BA5E4D5 EQ PUSH2 0x12CD JUMPI DUP1 PUSH4 0x9F6DD004 EQ PUSH2 0x1187 JUMPI DUP1 PUSH4 0xA457C2D7 EQ PUSH2 0x10E3 JUMPI DUP1 PUSH4 0xA8AA1B31 EQ PUSH2 0x10BA JUMPI DUP1 PUSH4 0xA9059CBB EQ PUSH2 0x1089 JUMPI DUP1 PUSH4 0xC4D66DE8 EQ PUSH2 0x9DB JUMPI DUP1 PUSH4 0xC95A20D1 EQ PUSH2 0x8CD JUMPI DUP1 PUSH4 0xCA33E64C EQ PUSH2 0x8A4 JUMPI DUP1 PUSH4 0xCC960294 EQ PUSH2 0x885 JUMPI DUP1 PUSH4 0xD2CE0DB2 EQ PUSH2 0x866 JUMPI DUP1 PUSH4 0xDD62ED3E EQ PUSH2 0x81D JUMPI DUP1 PUSH4 0xDE3E85A5 EQ PUSH2 0x698 JUMPI DUP1 PUSH4 0xE1B450AD EQ PUSH2 0x50B JUMPI DUP1 PUSH4 0xE2F45605 EQ PUSH2 0x4EC JUMPI DUP1 PUSH4 0xEE36E359 EQ PUSH2 0x4C8 JUMPI DUP1 PUSH4 0xF66895A3 EQ PUSH2 0x48E JUMPI DUP1 PUSH4 0xF887EA40 EQ PUSH2 0x465 JUMPI PUSH4 0xFE72FB67 SUB PUSH2 0x12 JUMPI CALLVALUE PUSH2 0x461 JUMPI DUP3 PUSH1 0x3 NOT CALLDATASIZE ADD SLT PUSH2 0x461 JUMPI PUSH2 0x2E2 PUSH2 0x3170 JUMP JUMPDEST SWAP1 PUSH1 0x24 CALLDATALOAD CALLER DUP5 MSTORE PUSH1 0x20 SWAP3 PUSH1 0x26 DUP5 MSTORE PUSH2 0x2FF PUSH1 0xFF DUP8 DUP8 KECCAK256 SLOAD AND PUSH2 0x3556 JUMP JUMPDEST ISZERO ISZERO SWAP2 PUSH1 0x1 DUP4 SUB PUSH2 0x43A JUMPI PUSH1 0x2 DUP7 DUP1 MLOAD PUSH2 0x318 DUP2 PUSH2 0x317F JUMP JUMPDEST DUP3 DUP2 MSTORE PUSH1 0x1 DUP8 DUP3 ADD MSTORE ADD MSTORE PUSH1 0x2 PUSH1 0x1F SSTORE PUSH1 0x1 DUP5 SSTORE PUSH1 0x2 PUSH1 0x21 SSTORE JUMPDEST PUSH2 0x33F PUSH1 0x28 SLOAD DUP4 LT PUSH2 0x4A95 JUMP JUMPDEST PUSH2 0x356 PUSH1 0xFF PUSH2 0x34D DUP5 PUSH2 0x32C4 JUMP JUMPDEST POP SLOAD AND ISZERO PUSH2 0x4AD7 JUMP JUMPDEST PUSH2 0x35F DUP3 PUSH2 0x4B23 JUMP JUMPDEST PUSH1 0x27 SLOAD GT PUSH2 0x3FE JUMPI PUSH2 0x370 DUP3 PUSH2 0x32C4 JUMP JUMPDEST POP SWAP1 PUSH1 0x10 PUSH1 0x1 DUP4 ADD SLOAD SUB PUSH2 0x3CD JUMPI POP DUP4 PUSH32 0x2AA8128B3CF57C168078769033A09F2677560674DEFB313C68F8EC74DF66DC90 SWAP6 SWAP7 SWAP3 PUSH1 0x0 DUP1 MLOAD PUSH1 0x20 PUSH2 0x4BB3 DUP4 CODECOPY DUP2 MLOAD SWAP2 MSTORE SWAP3 PUSH1 0x1 PUSH1 0xFF NOT DUP3 SLOAD AND OR SWAP1 SSTORE DUP4 MLOAD SWAP1 DUP2 MSTORE LOG1 MLOAD SWAP1 DUP2 MSTORE LOG1 DUP1 RETURN JUMPDEST DUP7 MLOAD PUSH3 0x461BCD PUSH1 0xE5 SHL DUP2 MSTORE SWAP1 DUP2 ADD DUP6 SWAP1 MSTORE PUSH1 0x15 PUSH1 0x24 DUP3 ADD MSTORE PUSH1 0x0 DUP1 MLOAD PUSH1 0x20 PUSH2 0x4C13 DUP4 CODECOPY DUP2 MLOAD SWAP2 MSTORE PUSH1 0x44 DUP3 ADD MSTORE PUSH1 0x64 SWAP1 REVERT JUMPDEST DUP6 MLOAD PUSH3 0x461BCD PUSH1 0xE5 SHL DUP2 MSTORE SWAP1 DUP2 ADD DUP5 SWAP1 MSTORE PUSH1 0x22 PUSH1 0x24 DUP3 ADD MSTORE PUSH1 0x0 DUP1 MLOAD PUSH1 0x20 PUSH2 0x4BD3 DUP4 CODECOPY DUP2 MLOAD SWAP2 MSTORE PUSH1 0x44 DUP3 ADD MSTORE PUSH2 0x185B PUSH1 0xF2 SHL PUSH1 0x64 DUP3 ADD MSTORE PUSH1 0x84 SWAP1 REVERT JUMPDEST DUP5 DUP7 DUP1 MLOAD PUSH2 0x447 DUP2 PUSH2 0x317F JUMP JUMPDEST DUP3 DUP2 MSTORE DUP3 DUP8 DUP3 ADD MSTORE ADD MSTORE DUP5 PUSH1 0x1F SSTORE DUP5 DUP5 SSTORE DUP5 PUSH1 0x21 SSTORE PUSH2 0x332 JUMP JUMPDEST POP DUP1 REVERT JUMPDEST DUP3 DUP5 CALLVALUE PUSH2 0x461 JUMPI DUP2 PUSH1 0x3 NOT CALLDATASIZE ADD SLT PUSH2 0x461 JUMPI PUSH1 0xC SLOAD SWAP1 MLOAD PUSH1 0x1 PUSH1 0x1 PUSH1 0xA0 SHL SUB SWAP1 SWAP2 AND DUP2 MSTORE PUSH1 0x20 SWAP1 RETURN JUMPDEST POP POP CALLVALUE PUSH2 0x4C5 JUMPI DUP1 PUSH1 0x3 NOT CALLDATASIZE ADD SLT PUSH2 0x4C5 JUMPI POP PUSH1 0x1F SLOAD PUSH1 0x20 DUP1 SLOAD PUSH1 0x21 SLOAD SWAP4 MLOAD SWAP3 DUP4 MSTORE SWAP1 DUP3 ADD MSTORE PUSH1 0x40 DUP2 ADD SWAP2 SWAP1 SWAP2 MSTORE PUSH1 0x60 SWAP1 RETURN JUMPDEST SUB SWAP1 RETURN JUMPDEST DUP1 REVERT JUMPDEST DUP3 DUP5 CALLVALUE PUSH2 0x461 JUMPI DUP2 PUSH1 0x3 NOT CALLDATASIZE ADD SLT PUSH2 0x461 JUMPI PUSH1 0x20 SWAP1 PUSH1 0xFF PUSH1 0xA SLOAD AND SWAP1 MLOAD SWAP1 ISZERO ISZERO DUP2 MSTORE RETURN JUMPDEST DUP3 DUP5 CALLVALUE PUSH2 0x461 JUMPI DUP2 PUSH1 0x3 NOT CALLDATASIZE ADD SLT PUSH2 0x461 JUMPI PUSH1 0x20 SWAP1 PUSH1 0x10 SLOAD SWAP1 MLOAD SWAP1 DUP2 MSTORE RETURN JUMPDEST POP SWAP2 CALLVALUE PUSH2 0x461 JUMPI PUSH1 0x60 CALLDATASIZE PUSH1 0x3 NOT ADD SLT PUSH2 0x461 JUMPI DUP3 CALLDATALOAD PUSH1 0x24 CALLDATALOAD PUSH1 0x44 CALLDATALOAD SWAP5 CALLER DUP6 MSTORE PUSH1 0x26 PUSH1 0x20 MSTORE PUSH2 0x53E PUSH1 0xFF DUP6 DUP8 KECCAK256 SLOAD AND PUSH2 0x3556 JUMP JUMPDEST PUSH8 0xDE0B6B3A7640000 DUP1 DUP5 MUL DUP5 DUP2 DIV DUP3 EQ DUP6 ISZERO OR ISZERO PUSH2 0x685 JUMPI PUSH1 0x11 SSTORE DUP1 DUP4 MUL SWAP1 DUP4 DUP3 DIV EQ DUP4 ISZERO OR ISZERO PUSH2 0x672 JUMPI PUSH1 0x12 SSTORE PUSH2 0x57A PUSH1 0x28 SLOAD DUP8 LT PUSH2 0x4A95 JUMP JUMPDEST PUSH2 0x588 PUSH1 0xFF PUSH2 0x34D DUP9 PUSH2 0x32C4 JUMP JUMPDEST PUSH2 0x591 DUP7 PUSH2 0x4B23 JUMP JUMPDEST PUSH1 0x27 SLOAD GT PUSH2 0x636 JUMPI PUSH2 0x5A2 DUP7 PUSH2 0x32C4 JUMP JUMPDEST POP SWAP1 PUSH1 0xA PUSH1 0x1 DUP4 ADD SLOAD SUB PUSH2 0x605 JUMPI POP PUSH1 0x20 PUSH32 0x27753D76D86E2580A6535641FD05C753F41398B68D711D3A8BD15E94118772D8 SWAP6 SWAP7 PUSH1 0x0 DUP1 MLOAD PUSH1 0x20 PUSH2 0x4BB3 DUP4 CODECOPY DUP2 MLOAD SWAP2 MSTORE SWAP3 PUSH1 0x1 PUSH1 0xFF NOT DUP3 SLOAD AND OR SWAP1 SSTORE DUP6 MLOAD SWAP1 DUP2 MSTORE LOG1 DUP3 MLOAD SWAP2 DUP3 MSTORE PUSH1 0x20 DUP3 ADD MSTORE LOG1 DUP1 RETURN JUMPDEST PUSH1 0x64 SWAP1 PUSH1 0x20 DUP7 MLOAD SWAP2 PUSH3 0x461BCD PUSH1 0xE5 SHL DUP4 MSTORE DUP3 ADD MSTORE PUSH1 0x15 PUSH1 0x24 DUP3 ADD MSTORE PUSH1 0x0 DUP1 MLOAD PUSH1 0x20 PUSH2 0x4C13 DUP4 CODECOPY DUP2 MLOAD SWAP2 MSTORE PUSH1 0x44 DUP3 ADD MSTORE REVERT JUMPDEST PUSH1 0x84 SWAP1 PUSH1 0x20 DUP6 MLOAD SWAP2 PUSH3 0x461BCD PUSH1 0xE5 SHL DUP4 MSTORE DUP3 ADD MSTORE PUSH1 0x22 PUSH1 0x24 DUP3 ADD MSTORE PUSH1 0x0 DUP1 MLOAD PUSH1 0x20 PUSH2 0x4BD3 DUP4 CODECOPY DUP2 MLOAD SWAP2 MSTORE PUSH1 0x44 DUP3 ADD MSTORE PUSH2 0x185B PUSH1 0xF2 SHL PUSH1 0x64 DUP3 ADD MSTORE REVERT JUMPDEST PUSH4 0x4E487B71 PUSH1 0xE0 SHL DUP7 MSTORE PUSH1 0x11 DUP3 MSTORE PUSH1 0x24 DUP7 REVERT JUMPDEST PUSH4 0x4E487B71 PUSH1 0xE0 SHL DUP8 MSTORE PUSH1 0x11 DUP4 MSTORE PUSH1 0x24 DUP8 REVERT JUMPDEST POP SWAP1 CALLVALUE PUSH2 0x4C5 JUMPI PUSH2 0x6A8 CALLDATASIZE PUSH2 0x3220 JUMP JUMPDEST SWAP1 SWAP3 SWAP2 CALLER DUP4 MSTORE PUSH1 0x20 SWAP2 PUSH1 0x26 DUP4 MSTORE PUSH2 0x6C4 PUSH1 0xFF DUP9 DUP7 KECCAK256 SLOAD AND PUSH2 0x3556 JUMP JUMPDEST DUP4 JUMPDEST DUP3 MLOAD DUP2 LT ISZERO PUSH2 0x70F JUMPI PUSH2 0x70A SWAP1 PUSH1 0x1 PUSH1 0x1 PUSH1 0xA0 SHL SUB PUSH2 0x6E5 DUP3 DUP7 PUSH2 0x38A6 JUMP JUMPDEST MLOAD AND DUP7 MSTORE PUSH1 0x6 DUP6 MSTORE PUSH2 0x705 DUP8 DUP11 DUP9 KECCAK256 SWAP1 PUSH1 0xFF DUP1 NOT DUP4 SLOAD AND SWAP2 ISZERO ISZERO AND OR SWAP1 SSTORE JUMP JUMPDEST PUSH2 0x3354 JUMP JUMPDEST PUSH2 0x6C6 JUMP JUMPDEST POP SWAP1 SWAP3 SWAP5 PUSH2 0x720 PUSH1 0x28 SLOAD DUP4 LT PUSH2 0x4A95 JUMP JUMPDEST PUSH2 0x72E PUSH1 0xFF PUSH2 0x34D DUP5 PUSH2 0x32C4 JUMP JUMPDEST PUSH2 0x737 DUP3 PUSH2 0x4B23 JUMP JUMPDEST PUSH1 0x27 SLOAD GT PUSH2 0x7E1 JUMPI PUSH2 0x748 DUP3 PUSH2 0x32C4 JUMP JUMPDEST POP SWAP1 PUSH1 0xE PUSH1 0x1 DUP4 ADD SLOAD SUB PUSH2 0x7B0 JUMPI POP DUP1 SLOAD PUSH1 0xFF NOT AND PUSH1 0x1 OR SWAP1 SSTORE DUP6 MLOAD SWAP1 DUP2 MSTORE SWAP4 SWAP5 PUSH32 0x69658000C6A55369E18013A2245D930872FAF496D5F06E18B00A14D5746848E2 SWAP5 PUSH2 0x7AA SWAP3 PUSH1 0x0 DUP1 MLOAD PUSH1 0x20 PUSH2 0x4BB3 DUP4 CODECOPY DUP2 MLOAD SWAP2 MSTORE SWAP2 LOG1 MLOAD SWAP3 DUP4 SWAP3 DUP4 PUSH2 0x4A59 JUMP JUMPDEST SUB SWAP1 LOG1 DUP1 RETURN JUMPDEST DUP8 MLOAD PUSH3 0x461BCD PUSH1 0xE5 SHL DUP2 MSTORE SWAP1 DUP2 ADD DUP5 SWAP1 MSTORE PUSH1 0x15 PUSH1 0x24 DUP3 ADD MSTORE PUSH1 0x0 DUP1 MLOAD PUSH1 0x20 PUSH2 0x4C13 DUP4 CODECOPY DUP2 MLOAD SWAP2 MSTORE PUSH1 0x44 DUP3 ADD MSTORE PUSH1 0x64 SWAP1 REVERT JUMPDEST DUP7 MLOAD PUSH3 0x461BCD PUSH1 0xE5 SHL DUP2 MSTORE SWAP1 DUP2 ADD DUP4 SWAP1 MSTORE PUSH1 0x22 PUSH1 0x24 DUP3 ADD MSTORE PUSH1 0x0 DUP1 MLOAD PUSH1 0x20 PUSH2 0x4BD3 DUP4 CODECOPY DUP2 MLOAD SWAP2 MSTORE PUSH1 0x44 DUP3 ADD MSTORE PUSH2 0x185B PUSH1 0xF2 SHL PUSH1 0x64 DUP3 ADD MSTORE PUSH1 0x84 SWAP1 REVERT JUMPDEST DUP3 DUP5 CALLVALUE PUSH2 0x461 JUMPI DUP1 PUSH1 0x3 NOT CALLDATASIZE ADD SLT PUSH2 0x461 JUMPI DUP1 PUSH1 0x20 SWAP3 PUSH2 0x83B PUSH2 0x30E5 JUMP JUMPDEST PUSH2 0x843 PUSH2 0x3100 JUMP JUMPDEST PUSH1 0x1 PUSH1 0x1 PUSH1 0xA0 SHL SUB SWAP2 DUP3 AND DUP4 MSTORE PUSH1 0x2 DUP7 MSTORE DUP4 DUP4 KECCAK256 SWAP2 AND DUP3 MSTORE DUP5 MSTORE KECCAK256 SLOAD SWAP1 MLOAD SWAP1 DUP2 MSTORE RETURN JUMPDEST DUP3 DUP5 CALLVALUE PUSH2 0x461 JUMPI DUP2 PUSH1 0x3 NOT CALLDATASIZE ADD SLT PUSH2 0x461 JUMPI PUSH1 0x20 SWAP1 PUSH1 0xB SLOAD SWAP1 MLOAD SWAP1 DUP2 MSTORE RETURN JUMPDEST DUP3 DUP5 CALLVALUE PUSH2 0x461 JUMPI DUP2 PUSH1 0x3 NOT CALLDATASIZE ADD SLT PUSH2 0x461 JUMPI PUSH1 0x20 SWAP1 PUSH1 0x27 SLOAD SWAP1 MLOAD SWAP1 DUP2 MSTORE RETURN JUMPDEST DUP3 DUP5 CALLVALUE PUSH2 0x461 JUMPI DUP2 PUSH1 0x3 NOT CALLDATASIZE ADD SLT PUSH2 0x461 JUMPI PUSH1 0x18 SLOAD SWAP1 MLOAD PUSH1 0x1 PUSH1 0x1 PUSH1 0xA0 SHL SUB SWAP1 SWAP2 AND DUP2 MSTORE PUSH1 0x20 SWAP1 RETURN JUMPDEST POP CALLVALUE PUSH2 0x461 JUMPI PUSH2 0x8DC CALLDATASIZE PUSH2 0x314B JUMP JUMPDEST CALLER DUP5 MSTORE PUSH1 0x20 SWAP3 PUSH1 0x26 DUP5 MSTORE PUSH2 0x8F5 PUSH1 0xFF DUP8 DUP8 KECCAK256 SLOAD AND PUSH2 0x3556 JUMP JUMPDEST DUP3 SELFBALANCE LT PUSH2 0x998 JUMPI PUSH2 0x906 DUP4 CALLER PUSH2 0x4941 JUMP JUMPDEST PUSH2 0x913 PUSH1 0x28 SLOAD DUP4 LT PUSH2 0x4A95 JUMP JUMPDEST PUSH2 0x921 PUSH1 0xFF PUSH2 0x34D DUP5 PUSH2 0x32C4 JUMP JUMPDEST PUSH2 0x92A DUP3 PUSH2 0x4B23 JUMP JUMPDEST PUSH1 0x27 SLOAD GT PUSH2 0x3FE JUMPI PUSH2 0x93B DUP3 PUSH2 0x32C4 JUMP JUMPDEST POP SWAP1 PUSH1 0x5 PUSH1 0x1 DUP4 ADD SLOAD SUB PUSH2 0x3CD JUMPI POP DUP4 PUSH32 0xC806A2E979C8F1A76FE7B47E2BCEB111E789DDA4D0DA93D0E5DF7F56F344B1FF SWAP6 SWAP7 SWAP3 PUSH1 0x0 DUP1 MLOAD PUSH1 0x20 PUSH2 0x4BB3 DUP4 CODECOPY DUP2 MLOAD SWAP2 MSTORE SWAP3 PUSH1 0x1 PUSH1 0xFF NOT DUP3 SLOAD AND OR SWAP1 SSTORE DUP4 MLOAD SWAP1 DUP2 MSTORE LOG1 MLOAD SWAP1 DUP2 MSTORE LOG1 DUP1 RETURN JUMPDEST DUP6 MLOAD PUSH3 0x461BCD PUSH1 0xE5 SHL DUP2 MSTORE SWAP1 DUP2 ADD DUP5 SWAP1 MSTORE PUSH1 0x18 PUSH1 0x24 DUP3 ADD MSTORE PUSH32 0x696E73756666696369656E7420424E422062616C616E63650000000000000000 PUSH1 0x44 DUP3 ADD MSTORE PUSH1 0x64 SWAP1 REVERT JUMPDEST POP DUP3 SWAP1 CALLVALUE PUSH2 0x1085 JUMPI PUSH1 0x20 SWAP1 DUP2 PUSH1 0x3 NOT CALLDATASIZE ADD SLT PUSH2 0x1081 JUMPI PUSH2 0x9F9 PUSH2 0x30E5 JUMP JUMPDEST SWAP1 PUSH2 0xA02 PUSH2 0x33C6 JUMP JUMPDEST SWAP1 DUP2 PUSH2 0x106D JUMPI JUMPDEST PUSH20 0x4656E96C3B48AB30DBCD1AA6BBBA6C60C3B1AFB6 CALLER SUB PUSH2 0x1012 JUMPI DUP5 MLOAD PUSH4 0xC45A0155 PUSH1 0xE0 SHL DUP2 MSTORE PUSH1 0x1 PUSH1 0x1 PUSH1 0xA0 SHL SUB SWAP4 DUP5 AND SWAP2 SWAP1 DUP6 DUP2 DUP4 DUP2 DUP7 GAS STATICCALL SWAP1 DUP2 ISZERO PUSH2 0xFC4 JUMPI DUP9 SWAP2 PUSH2 0xFF5 JUMPI JUMPDEST POP DUP7 MLOAD PUSH4 0x15AB88C9 PUSH1 0xE3 SHL DUP2 MSTORE DUP7 DUP2 DUP5 DUP2 DUP8 GAS STATICCALL SWAP1 DUP2 ISZERO PUSH2 0xFEB JUMPI DUP7 SWAP3 DUP9 SWAP3 PUSH2 0xAB0 SWAP3 DUP13 SWAP2 PUSH2 0xFCE JUMPI JUMPDEST POP DUP11 MLOAD PUSH4 0x64E329CB PUSH1 0xE1 SHL DUP2 MSTORE ADDRESS DUP8 DUP3 ADD SWAP1 DUP2 MSTORE PUSH1 0x1 PUSH1 0x1 PUSH1 0xA0 SHL SUB SWAP1 SWAP3 AND PUSH1 0x20 DUP4 ADD MSTORE SWAP5 DUP6 SWAP4 DUP5 SWAP3 DUP15 SWAP3 SWAP2 DUP5 SWAP2 PUSH1 0x40 ADD SWAP1 JUMP JUMPDEST SUB SWAP4 AND GAS CALL DUP1 ISZERO PUSH2 0xFC4 JUMPI DUP6 SWAP2 DUP10 SWAP2 PUSH2 0xF97 JUMPI JUMPDEST POP AND SWAP2 PUSH1 0x1 PUSH1 0x1 PUSH1 0x60 SHL SUB PUSH1 0xA0 SHL SWAP5 PUSH1 0xD SWAP2 DUP5 DUP8 DUP5 SLOAD AND OR DUP4 SSTORE DUP7 PUSH1 0xC SLOAD AND OR PUSH1 0xC SSTORE PUSH2 0x101 PUSH2 0xFFFF NOT PUSH1 0x8 SLOAD AND OR PUSH1 0x8 SSTORE PUSH1 0x3 SWAP6 DUP7 PUSH1 0x27 SSTORE CALLER DUP2 PUSH1 0x18 SLOAD AND OR PUSH1 0x18 SSTORE PUSH1 0x3C PUSH1 0xB SSTORE PUSH1 0x1 SWAP7 PUSH1 0xFF NOT SWAP6 DUP9 DUP8 PUSH1 0xA SLOAD AND OR PUSH1 0xA SSTORE PUSH11 0x4B30D2DFBAF72D44800000 PUSH1 0xE SSTORE PUSH11 0x2F19662E3E2F92EE7FFFFF NOT PUSH1 0xF SSTORE PUSH10 0x133FB2E96728BFD00000 PUSH1 0x10 SSTORE PUSH10 0xC07CFD1E07977E200000 DUP1 PUSH1 0x11 SSTORE DUP1 PUSH1 0x12 SSTORE PUSH1 0x13 SSTORE NUMBER PUSH1 0x14 SSTORE DUP12 PUSH1 0x15 SSTORE PUSH2 0xDEAD DUP4 PUSH1 0x16 SLOAD AND OR PUSH1 0x16 SSTORE PUSH20 0x1C7F0C770E45030DA303728969821F800DD55476 PUSH1 0x17 SWAP4 DUP5 SLOAD AND OR DUP4 SSTORE DUP12 DUP12 DUP1 MLOAD PUSH2 0xB9F DUP2 PUSH2 0x317F JUMP JUMPDEST DUP3 DUP2 MSTORE DUP3 DUP14 DUP3 ADD MSTORE ADD MSTORE DUP12 PUSH1 0x19 SSTORE DUP12 PUSH1 0x1A SSTORE DUP12 PUSH1 0x1B SSTORE DUP12 DUP12 DUP1 MLOAD PUSH2 0xBC2 DUP2 PUSH2 0x317F JUMP JUMPDEST DUP3 DUP2 MSTORE DUP3 DUP14 DUP3 ADD MSTORE ADD MSTORE DUP12 PUSH1 0x1C SSTORE DUP12 PUSH1 0x1D SSTORE DUP12 PUSH1 0x1E SSTORE PUSH1 0x2 DUP12 DUP1 MLOAD PUSH2 0xBE6 DUP2 PUSH2 0x317F JUMP JUMPDEST DUP3 DUP2 MSTORE DUP12 DUP14 DUP3 ADD MSTORE ADD MSTORE PUSH1 0x2 PUSH1 0x1F SSTORE DUP9 DUP11 SSTORE PUSH1 0x2 PUSH1 0x21 SSTORE DUP12 MSTORE DUP1 DUP10 MSTORE DUP10 DUP12 KECCAK256 DUP9 DUP8 DUP3 SLOAD AND OR SWAP1 SSTORE DUP3 PUSH1 0x16 SLOAD AND DUP12 MSTORE DUP10 DUP12 KECCAK256 DUP9 DUP8 DUP3 SLOAD AND OR SWAP1 SSTORE DUP10 MLOAD SWAP5 PUSH1 0xA0 DUP7 ADD DUP7 DUP2 LT PUSH8 0xFFFFFFFFFFFFFFFF DUP3 GT OR PUSH2 0xF84 JUMPI DUP12 MSTORE PUSH20 0x686AC14ACC91145A42DEA24DED14335472AA7B9C DUP7 MSTORE PUSH20 0x370C9120BC57C0F9C4FEDA2074410292732A35C6 DUP11 DUP8 ADD MSTORE PUSH20 0x1A963858DEEF16CF6B3FD7DC9750A43ABFD2938C DUP12 DUP8 ADD MSTORE PUSH20 0x285E3E816302B81C5F21FC632E166E323C575A85 PUSH1 0x60 DUP8 ADD MSTORE PUSH20 0x4E18C6F0070BE7AA44786A2678E1DE05ECC62316 PUSH1 0x80 DUP8 ADD MSTORE PUSH1 0x25 DUP13 DUP2 DUP1 SLOAD SWAP9 PUSH1 0x5 SWAP10 DUP11 DUP4 SSTORE DUP1 DUP12 LT PUSH2 0xF2D JUMPI JUMPDEST POP DUP13 SWAP2 POP SWAP2 DUP4 DUP2 MSTORE JUMPDEST DUP10 DUP2 LT PUSH2 0xF0B JUMPI POP DUP15 SWAP2 POP JUMPDEST PUSH2 0xE18 JUMPI JUMPDEST POP POP POP PUSH1 0xF SLOAD CALLER DUP13 MSTORE DUP12 DUP11 MSTORE DUP11 DUP13 KECCAK256 SSTORE ADDRESS DUP12 MSTORE DUP9 MSTORE DUP9 DUP11 KECCAK256 DUP8 DUP7 DUP3 SLOAD AND OR SWAP1 SSTORE DUP2 DUP2 SLOAD AND DUP11 MSTORE DUP9 DUP11 KECCAK256 DUP8 DUP7 DUP3 SLOAD AND OR SWAP1 SSTORE DUP2 PUSH1 0x16 SLOAD AND DUP11 MSTORE DUP9 DUP11 KECCAK256 DUP8 DUP7 DUP3 SLOAD AND OR SWAP1 SSTORE DUP2 PUSH20 0xD152F549545093347A162DCE210E7293F1452150 SWAP4 DUP5 DUP13 MSTORE DUP11 DUP13 KECCAK256 DUP10 DUP9 DUP3 SLOAD AND OR SWAP1 SSTORE PUSH20 0x7EE058420E5937496F5A2096F04CAA7721CF70CC SWAP6 DUP7 DUP14 MSTORE DUP12 DUP14 KECCAK256 DUP11 DUP10 DUP3 SLOAD AND OR SWAP1 SSTORE ADDRESS DUP14 MSTORE DUP11 MSTORE DUP11 DUP13 KECCAK256 DUP10 DUP9 DUP3 SLOAD AND OR SWAP1 SSTORE SLOAD AND DUP11 MSTORE DUP9 DUP11 KECCAK256 DUP8 DUP7 DUP3 SLOAD AND OR SWAP1 SSTORE SLOAD AND DUP9 MSTORE DUP7 DUP9 KECCAK256 DUP6 DUP5 DUP3 SLOAD AND OR SWAP1 SSTORE DUP8 MSTORE DUP6 DUP8 KECCAK256 DUP5 DUP4 DUP3 SLOAD AND OR SWAP1 SSTORE DUP7 MSTORE DUP3 DUP6 DUP8 KECCAK256 SWAP2 DUP3 SLOAD AND OR SWAP1 SSTORE PUSH1 0xE SLOAD DUP5 MLOAD SWAP1 DUP2 MSTORE DUP6 PUSH1 0x0 DUP1 MLOAD PUSH1 0x20 PUSH2 0x4BF3 DUP4 CODECOPY DUP2 MLOAD SWAP2 MSTORE DUP6 CALLER SWAP4 LOG3 PUSH2 0xDDF JUMPI DUP4 DUP1 RETURN JUMPDEST PUSH32 0x7F26B83FF96E1F2B6A682F133852F6798A09C465DA95921460CEFB3847402498 SWAP3 PUSH2 0xFF00 NOT PUSH1 0x2A SLOAD AND PUSH1 0x2A SSTORE MLOAD SWAP1 DUP2 MSTORE LOG1 DUP2 DUP1 DUP1 DUP4 DUP1 RETURN JUMPDEST DUP2 SLOAD DUP2 LT ISZERO PUSH2 0xF06 JUMPI DUP6 PUSH2 0xE2B DUP3 PUSH2 0x3077 JUMP JUMPDEST SWAP1 SLOAD SWAP1 DUP7 SHL SHR AND DUP1 ISZERO PUSH2 0xED3 JUMPI DUP1 DUP16 DUP16 DUP16 SWAP4 SWAP2 PUSH1 0xFF SWAP3 DUP2 MSTORE PUSH1 0x26 DUP1 SWAP6 MSTORE KECCAK256 SLOAD AND PUSH2 0xE8F JUMPI DUP16 MSTORE DUP13 MSTORE DUP13 DUP15 KECCAK256 DUP1 SLOAD DUP11 AND DUP13 OR SWAP1 SSTORE DUP4 DUP13 MSTORE DUP13 DUP15 KECCAK256 DUP1 SLOAD DUP11 AND DUP13 OR SWAP1 SSTORE DUP8 DUP13 MSTORE DUP13 DUP15 KECCAK256 DUP1 SLOAD DUP11 AND DUP13 OR SWAP1 SSTORE DUP11 SWAP3 SWAP2 SWAP1 PUSH2 0xE87 SWAP1 PUSH2 0x3354 JUMP JUMPDEST SWAP1 SWAP2 SWAP3 PUSH2 0xCE2 JUMP JUMPDEST POP DUP14 MLOAD PUSH3 0x461BCD PUSH1 0xE5 SHL DUP2 MSTORE DUP1 DUP6 ADD DUP15 SWAP1 MSTORE PUSH1 0x24 DUP2 ADD DUP8 SWAP1 MSTORE PUSH32 0x6F776E657220697320616C726561647920746865726521000000000000000000 PUSH1 0x44 DUP3 ADD MSTORE PUSH1 0x64 SWAP1 REVERT JUMPDEST DUP14 MLOAD PUSH3 0x461BCD PUSH1 0xE5 SHL DUP2 MSTORE DUP1 DUP6 ADD DUP15 SWAP1 MSTORE PUSH1 0x24 DUP2 ADD DUP10 SWAP1 MSTORE PUSH13 0x34B73B30B634B21037BBB732B9 PUSH1 0x99 SHL PUSH1 0x44 DUP3 ADD MSTORE PUSH1 0x64 SWAP1 REVERT JUMPDEST PUSH2 0xCE7 JUMP JUMPDEST DUP14 DUP9 DUP5 MLOAD AND SWAP4 ADD SWAP3 DUP2 PUSH1 0x0 DUP1 MLOAD PUSH1 0x20 PUSH2 0x4B93 DUP4 CODECOPY DUP2 MLOAD SWAP2 MSTORE ADD SSTORE ADD DUP12 SWAP1 PUSH2 0xCD6 JUMP JUMPDEST PUSH1 0x0 DUP1 MLOAD PUSH1 0x20 PUSH2 0x4B93 DUP4 CODECOPY DUP2 MLOAD SWAP2 MSTORE ADD DUP14 PUSH32 0x401968FF42A154441DA5F6C4C935AC46B8671F0E062BAAA62A7545BA53BB6E51 JUMPDEST DUP3 DUP2 LT PUSH2 0xF6E JUMPI POP POP PUSH2 0xCCD JUMP JUMPDEST DUP1 SWAP3 SWAP5 POP SWAP5 SWAP1 SWAP3 SWAP5 SSTORE ADD SWAP2 DUP16 SWAP3 SWAP2 DUP14 DUP6 SWAP4 PUSH2 0xF60 JUMP JUMPDEST PUSH4 0x4E487B71 PUSH1 0xE0 SHL DUP14 MSTORE PUSH1 0x41 DUP3 MSTORE PUSH1 0x24 DUP14 REVERT JUMPDEST PUSH2 0xFB7 SWAP2 POP DUP8 RETURNDATASIZE DUP10 GT PUSH2 0xFBD JUMPI JUMPDEST PUSH2 0xFAF DUP2 DUP4 PUSH2 0x31FE JUMP JUMPDEST DUP2 ADD SWAP1 PUSH2 0x32FF JUMP JUMPDEST DUP10 PUSH2 0xAC4 JUMP JUMPDEST POP RETURNDATASIZE PUSH2 0xFA5 JUMP JUMPDEST DUP8 MLOAD RETURNDATASIZE DUP11 DUP3 RETURNDATACOPY RETURNDATASIZE SWAP1 REVERT JUMPDEST PUSH2 0xFE5 SWAP2 POP DUP5 RETURNDATASIZE DUP7 GT PUSH2 0xFBD JUMPI PUSH2 0xFAF DUP2 DUP4 PUSH2 0x31FE JUMP JUMPDEST DUP13 PUSH2 0xA7C JUMP JUMPDEST DUP9 MLOAD RETURNDATASIZE DUP12 DUP3 RETURNDATACOPY RETURNDATASIZE SWAP1 REVERT JUMPDEST PUSH2 0x100C SWAP2 POP DUP7 RETURNDATASIZE DUP9 GT PUSH2 0xFBD JUMPI PUSH2 0xFAF DUP2 DUP4 PUSH2 0x31FE JUMP JUMPDEST DUP9 PUSH2 0xA52 JUMP JUMPDEST DUP5 MLOAD PUSH3 0x461BCD PUSH1 0xE5 SHL DUP2 MSTORE SWAP1 DUP2 ADD DUP5 SWAP1 MSTORE PUSH1 0x2F PUSH1 0x24 DUP3 ADD MSTORE PUSH32 0x4F6E6C792074686520616C6C6F7765642077616C6C65742063616E2063616C6C PUSH1 0x44 DUP3 ADD MSTORE PUSH15 0x103A3434B990333AB731BA34B7B717 PUSH1 0x89 SHL PUSH1 0x64 DUP3 ADD MSTORE PUSH1 0x84 SWAP1 REVERT JUMPDEST PUSH2 0x100 PUSH2 0xFF00 NOT PUSH1 0x2A SLOAD AND OR PUSH1 0x2A SSTORE PUSH2 0xA09 JUMP JUMPDEST DUP4 DUP1 REVERT JUMPDEST DUP3 DUP1 REVERT JUMPDEST DUP3 DUP5 CALLVALUE PUSH2 0x461 JUMPI DUP1 PUSH1 0x3 NOT CALLDATASIZE ADD SLT PUSH2 0x461 JUMPI PUSH1 0x20 SWAP1 PUSH2 0x10B3 PUSH2 0x10A9 PUSH2 0x30E5 JUMP JUMPDEST PUSH1 0x24 CALLDATALOAD SWAP1 CALLER PUSH2 0x3B64 JUMP JUMPDEST MLOAD PUSH1 0x1 DUP2 MSTORE RETURN JUMPDEST DUP3 DUP5 CALLVALUE PUSH2 0x461 JUMPI DUP2 PUSH1 0x3 NOT CALLDATASIZE ADD SLT PUSH2 0x461 JUMPI PUSH1 0xD SLOAD SWAP1 MLOAD PUSH1 0x1 PUSH1 0x1 PUSH1 0xA0 SHL SUB SWAP1 SWAP2 AND DUP2 MSTORE PUSH1 0x20 SWAP1 RETURN JUMPDEST POP SWAP1 CALLVALUE PUSH2 0x4C5 JUMPI DUP3 PUSH1 0x3 NOT CALLDATASIZE ADD SLT PUSH2 0x4C5 JUMPI PUSH2 0x10FD PUSH2 0x30E5 JUMP JUMPDEST SWAP2 DUP4 PUSH1 0x24 CALLDATALOAD SWAP3 CALLER DUP2 MSTORE PUSH1 0x2 PUSH1 0x20 MSTORE DUP2 DUP2 KECCAK256 PUSH1 0x1 DUP1 PUSH1 0xA0 SHL SUB DUP7 AND DUP3 MSTORE PUSH1 0x20 MSTORE KECCAK256 SLOAD SWAP1 DUP3 DUP3 LT PUSH2 0x1136 JUMPI PUSH1 0x20 DUP6 PUSH2 0x10B3 DUP6 DUP6 SUB DUP8 CALLER PUSH2 0x3A17 JUMP JUMPDEST PUSH1 0x84 SWAP1 PUSH1 0x20 DUP7 MLOAD SWAP2 PUSH3 0x461BCD PUSH1 0xE5 SHL DUP4 MSTORE DUP3 ADD MSTORE PUSH1 0x25 PUSH1 0x24 DUP3 ADD MSTORE PUSH32 0x45524332303A2064656372656173656420616C6C6F77616E63652062656C6F77 PUSH1 0x44 DUP3 ADD MSTORE PUSH5 0x207A65726F PUSH1 0xD8 SHL PUSH1 0x64 DUP3 ADD MSTORE REVERT JUMPDEST POP DUP3 CALLVALUE PUSH2 0x1085 JUMPI PUSH2 0x1197 CALLDATASIZE PUSH2 0x314B JUMP JUMPDEST SWAP1 SWAP3 CALLER DUP6 MSTORE PUSH1 0x26 PUSH1 0x20 MSTORE PUSH2 0x11B0 PUSH1 0xFF DUP5 DUP8 KECCAK256 SLOAD AND PUSH2 0x3556 JUMP JUMPDEST PUSH8 0xDE0B6B3A7640000 DUP1 DUP6 MUL SWAP1 DUP6 DUP3 DIV EQ DUP6 ISZERO OR ISZERO PUSH2 0x672 JUMPI PUSH1 0x13 SSTORE PUSH2 0x11D9 PUSH1 0x28 SLOAD DUP4 LT PUSH2 0x4A95 JUMP JUMPDEST PUSH2 0x11E7 PUSH1 0xFF PUSH2 0x34D DUP5 PUSH2 0x32C4 JUMP JUMPDEST PUSH2 0x11F0 DUP3 PUSH2 0x4B23 JUMP JUMPDEST PUSH1 0x27 SLOAD GT PUSH2 0x1291 JUMPI PUSH2 0x1201 DUP3 PUSH2 0x32C4 JUMP JUMPDEST POP SWAP1 PUSH1 0xB PUSH1 0x1 DUP4 ADD SLOAD SUB PUSH2 0x1260 JUMPI POP SWAP2 PUSH1 0x0 DUP1 MLOAD PUSH1 0x20 PUSH2 0x4BB3 DUP4 CODECOPY DUP2 MLOAD SWAP2 MSTORE PUSH1 0x20 PUSH32 0x575BEB4F9D024A957FEA2F529F8545A4962564551D15F927269D203B31F349B4 SWAP6 SWAP4 DUP2 SWAP6 PUSH1 0x1 PUSH1 0xFF NOT DUP3 SLOAD AND OR SWAP1 SSTORE DUP4 MLOAD SWAP1 DUP2 MSTORE LOG1 MLOAD SWAP1 DUP2 MSTORE LOG1 DUP1 RETURN JUMPDEST PUSH1 0x64 SWAP1 PUSH1 0x20 DUP6 MLOAD SWAP2 PUSH3 0x461BCD PUSH1 0xE5 SHL DUP4 MSTORE DUP3 ADD MSTORE PUSH1 0x15 PUSH1 0x24 DUP3 ADD MSTORE PUSH1 0x0 DUP1 MLOAD PUSH1 0x20 PUSH2 0x4C13 DUP4 CODECOPY DUP2 MLOAD SWAP2 MSTORE PUSH1 0x44 DUP3 ADD MSTORE REVERT JUMPDEST PUSH1 0x84 SWAP1 PUSH1 0x20 DUP5 MLOAD SWAP2 PUSH3 0x461BCD PUSH1 0xE5 SHL DUP4 MSTORE DUP3 ADD MSTORE PUSH1 0x22 PUSH1 0x24 DUP3 ADD MSTORE PUSH1 0x0 DUP1 MLOAD PUSH1 0x20 PUSH2 0x4BD3 DUP4 CODECOPY DUP2 MLOAD SWAP2 MSTORE PUSH1 0x44 DUP3 ADD MSTORE PUSH2 0x185B PUSH1 0xF2 SHL PUSH1 0x64 DUP3 ADD MSTORE REVERT JUMPDEST POP POP CALLVALUE PUSH2 0x4C5 JUMPI DUP1 PUSH1 0x3 NOT CALLDATASIZE ADD SLT PUSH2 0x4C5 JUMPI POP PUSH1 0x22 SLOAD PUSH1 0x23 SLOAD PUSH1 0x24 SLOAD SWAP3 MLOAD SWAP2 DUP3 MSTORE PUSH1 0x20 DUP3 ADD MSTORE PUSH1 0x40 DUP2 ADD SWAP2 SWAP1 SWAP2 MSTORE PUSH1 0x60 SWAP1 RETURN JUMPDEST POP DUP3 SWAP1 CALLVALUE PUSH2 0x1085 JUMPI PUSH1 0x20 CALLDATASIZE PUSH1 0x3 NOT ADD SLT PUSH2 0x1085 JUMPI CALLDATALOAD PUSH1 0x28 SLOAD DUP2 LT ISZERO PUSH2 0x1085 JUMPI PUSH1 0x3 SWAP1 PUSH1 0x28 PUSH1 0x60 SWAP5 MSTORE MUL PUSH1 0xFF DUP2 PUSH32 0xE16DA923A2D88192E5070F37B4571D58682C0D66212EC634D495F33DE3F77AB5 ADD SLOAD AND SWAP2 PUSH32 0xE16DA923A2D88192E5070F37B4571D58682C0D66212EC634D495F33DE3F77AB6 DUP3 ADD SLOAD SWAP2 PUSH32 0xE16DA923A2D88192E5070F37B4571D58682C0D66212EC634D495F33DE3F77AB7 PUSH1 0x1 DUP1 PUSH1 0xA0 SHL SUB SWAP2 ADD SLOAD AND SWAP2 DUP2 MLOAD SWAP4 ISZERO ISZERO DUP5 MSTORE PUSH1 0x20 DUP5 ADD MSTORE DUP3 ADD MSTORE RETURN JUMPDEST POP SWAP2 CALLVALUE PUSH2 0x461 JUMPI PUSH1 0x60 CALLDATASIZE PUSH1 0x3 NOT ADD SLT PUSH2 0x461 JUMPI PUSH2 0x13CF PUSH2 0x3170 JUMP JUMPDEST SWAP3 PUSH1 0x24 CALLDATALOAD PUSH1 0x44 CALLDATALOAD SWAP5 CALLER DUP6 MSTORE PUSH1 0x26 PUSH1 0x20 MSTORE PUSH2 0x13EE PUSH1 0xFF DUP6 DUP8 KECCAK256 SLOAD AND PUSH2 0x3556 JUMP JUMPDEST DUP2 DUP1 DIV PUSH1 0x1 EQ DUP3 ISZERO OR ISZERO PUSH2 0x1516 JUMPI DUP2 PUSH1 0xB SSTORE ISZERO ISZERO SWAP2 PUSH1 0xFF NOT DUP1 PUSH1 0xA SLOAD AND PUSH1 0xFF DUP6 AND OR PUSH1 0xA SSTORE PUSH2 0x1420 PUSH1 0x28 SLOAD DUP9 LT PUSH2 0x4A95 JUMP JUMPDEST PUSH2 0x142E PUSH1 0xFF PUSH2 0x34D DUP10 PUSH2 0x32C4 JUMP JUMPDEST PUSH2 0x1437 DUP8 PUSH2 0x4B23 JUMP JUMPDEST PUSH1 0x27 SLOAD GT PUSH2 0x14DA JUMPI PUSH2 0x1448 DUP8 PUSH2 0x32C4 JUMP JUMPDEST POP SWAP2 PUSH1 0x7 PUSH1 0x1 DUP5 ADD SLOAD SUB PUSH2 0x14A9 JUMPI POP PUSH32 0xFA4011CDF98F199F8DFB40850066DF236CE0C61EC9CA8CF7DF069471144FB92D SWAP6 SWAP7 DUP3 PUSH1 0x1 PUSH1 0x20 SWAP4 PUSH1 0x0 DUP1 MLOAD PUSH1 0x20 PUSH2 0x4BB3 DUP4 CODECOPY DUP2 MLOAD SWAP2 MSTORE SWAP6 SLOAD AND OR SWAP1 SSTORE DUP6 MLOAD SWAP1 DUP2 MSTORE LOG1 DUP3 MLOAD SWAP2 DUP3 MSTORE PUSH1 0x20 DUP3 ADD MSTORE LOG1 DUP1 RETURN JUMPDEST PUSH1 0x64 SWAP1 PUSH1 0x20 DUP8 MLOAD SWAP2 PUSH3 0x461BCD PUSH1 0xE5 SHL DUP4 MSTORE DUP3 ADD MSTORE PUSH1 0x15 PUSH1 0x24 DUP3 ADD MSTORE PUSH1 0x0 DUP1 MLOAD PUSH1 0x20 PUSH2 0x4C13 DUP4 CODECOPY DUP2 MLOAD SWAP2 MSTORE PUSH1 0x44 DUP3 ADD MSTORE REVERT JUMPDEST DUP5 MLOAD PUSH3 0x461BCD PUSH1 0xE5 SHL DUP2 MSTORE PUSH1 0x20 DUP2 DUP5 ADD MSTORE PUSH1 0x22 PUSH1 0x24 DUP3 ADD MSTORE PUSH1 0x0 DUP1 MLOAD PUSH1 0x20 PUSH2 0x4BD3 DUP4 CODECOPY DUP2 MLOAD SWAP2 MSTORE PUSH1 0x44 DUP3 ADD MSTORE PUSH2 0x185B PUSH1 0xF2 SHL PUSH1 0x64 DUP3 ADD MSTORE PUSH1 0x84 SWAP1 REVERT JUMPDEST PUSH4 0x4E487B71 PUSH1 0xE0 SHL DUP6 MSTORE PUSH1 0x11 DUP4 MSTORE PUSH1 0x24 DUP6 REVERT JUMPDEST POP SWAP2 CALLVALUE PUSH2 0x461 JUMPI PUSH1 0x20 SWAP1 DUP2 PUSH1 0x3 NOT CALLDATASIZE ADD SLT PUSH2 0x1085 JUMPI DUP4 CALLDATALOAD SWAP4 CALLER DUP5 MSTORE PUSH1 0x26 DUP4 MSTORE PUSH2 0x1557 PUSH1 0xFF DUP4 DUP7 KECCAK256 SLOAD AND PUSH2 0x3556 JUMP JUMPDEST PUSH1 0x2 PUSH2 0x1562 DUP7 PUSH2 0x32C4 JUMP JUMPDEST POP ADD DUP1 SLOAD PUSH1 0x1 PUSH1 0x1 PUSH1 0xA0 SHL SUB SWAP1 DUP2 AND DUP1 DUP8 MSTORE DUP4 DUP7 MSTORE DUP5 DUP8 KECCAK256 SLOAD SWAP2 SWAP4 SWAP2 PUSH1 0xFF AND PUSH2 0x1728 JUMPI DUP1 DUP8 MSTORE DUP7 DUP7 MSTORE DUP5 DUP8 KECCAK256 SLOAD PUSH2 0x170B JUMPI JUMPDEST POP DUP3 DUP3 SLOAD AND DUP7 MSTORE DUP1 DUP6 MSTORE DUP4 DUP7 KECCAK256 PUSH1 0xFF NOT SWAP1 PUSH1 0x1 DUP3 DUP3 SLOAD AND OR SWAP1 SSTORE DUP4 DUP4 SLOAD AND PUSH1 0x7 SLOAD PUSH1 0x1 PUSH1 0x40 SHL DUP2 LT ISZERO PUSH2 0x16F8 JUMPI SWAP1 PUSH2 0x15D5 DUP3 PUSH1 0x1 PUSH2 0x15F9 SWAP5 ADD PUSH1 0x7 SSTORE PUSH2 0x302A JUMP JUMPDEST SWAP1 SWAP2 SWAP1 DUP3 SLOAD SWAP1 PUSH1 0x3 SHL SWAP2 PUSH1 0x1 DUP1 PUSH1 0xA0 SHL SUB SWAP3 DUP4 DUP2 SHL SWAP4 DUP5 SWAP3 AND SWAP1 SHL AND SWAP2 NOT AND OR SWAP1 SSTORE JUMP JUMPDEST PUSH2 0x1606 PUSH1 0x28 SLOAD DUP10 LT PUSH2 0x4A95 JUMP JUMPDEST PUSH2 0x1614 PUSH1 0xFF PUSH2 0x34D DUP11 PUSH2 0x32C4 JUMP JUMPDEST PUSH2 0x161D DUP9 PUSH2 0x4B23 JUMP JUMPDEST PUSH1 0x27 SLOAD GT PUSH2 0x16BC JUMPI PUSH2 0x162E DUP9 PUSH2 0x32C4 JUMP JUMPDEST POP SWAP2 PUSH1 0x2 PUSH1 0x1 DUP5 ADD SLOAD SUB PUSH2 0x168B JUMPI POP PUSH32 0x8CD08FF476550DEC3DE6EA6137B3EACA4AB9AE21761EA26EB09CB6305FD424A8 SWAP7 SWAP8 DUP3 PUSH1 0x1 DUP9 SWAP4 PUSH1 0x0 DUP1 MLOAD PUSH1 0x20 PUSH2 0x4BB3 DUP4 CODECOPY DUP2 MLOAD SWAP2 MSTORE SWAP6 SLOAD AND OR SWAP1 SSTORE DUP6 MLOAD SWAP1 DUP2 MSTORE LOG1 SLOAD AND SWAP1 MLOAD SWAP1 DUP2 MSTORE LOG1 DUP1 RETURN JUMPDEST DUP6 MLOAD PUSH3 0x461BCD PUSH1 0xE5 SHL DUP2 MSTORE SWAP1 DUP2 ADD DUP8 SWAP1 MSTORE PUSH1 0x15 PUSH1 0x24 DUP3 ADD MSTORE PUSH1 0x0 DUP1 MLOAD PUSH1 0x20 PUSH2 0x4C13 DUP4 CODECOPY DUP2 MLOAD SWAP2 MSTORE PUSH1 0x44 DUP3 ADD MSTORE PUSH1 0x64 SWAP1 REVERT JUMPDEST DUP5 MLOAD PUSH3 0x461BCD PUSH1 0xE5 SHL DUP2 MSTORE DUP1 DUP4 ADD DUP8 SWAP1 MSTORE PUSH1 0x22 PUSH1 0x24 DUP3 ADD MSTORE PUSH1 0x0 DUP1 MLOAD PUSH1 0x20 PUSH2 0x4BD3 DUP4 CODECOPY DUP2 MLOAD SWAP2 MSTORE PUSH1 0x44 DUP3 ADD MSTORE PUSH2 0x185B PUSH1 0xF2 SHL PUSH1 0x64 DUP3 ADD MSTORE PUSH1 0x84 SWAP1 REVERT JUMPDEST PUSH4 0x4E487B71 PUSH1 0xE0 SHL DUP10 MSTORE PUSH1 0x41 DUP5 MSTORE PUSH1 0x24 DUP10 REVERT JUMPDEST PUSH2 0x1717 DUP6 DUP9 KECCAK256 SLOAD PUSH2 0x34E6 JUMP JUMPDEST SWAP1 DUP8 MSTORE PUSH1 0x1 DUP7 MSTORE DUP5 DUP8 KECCAK256 SSTORE CODESIZE PUSH2 0x1594 JUMP JUMPDEST DUP5 MLOAD PUSH3 0x461BCD PUSH1 0xE5 SHL DUP2 MSTORE DUP1 DUP4 ADD DUP8 SWAP1 MSTORE PUSH1 0x1B PUSH1 0x24 DUP3 ADD MSTORE PUSH32 0x4163636F756E7420697320616C7265616479206578636C756465640000000000 PUSH1 0x44 DUP3 ADD MSTORE PUSH1 0x64 SWAP1 REVERT JUMPDEST DUP3 DUP5 CALLVALUE PUSH2 0x461 JUMPI DUP2 PUSH1 0x3 NOT CALLDATASIZE ADD SLT PUSH2 0x461 JUMPI DUP1 MLOAD PUSH2 0x4C1 SWAP2 PUSH2 0x178C DUP3 PUSH2 0x31C5 JUMP JUMPDEST PUSH1 0x3 DUP3 MSTORE PUSH3 0x534C5 PUSH1 0xEC SHL PUSH1 0x20 DUP4 ADD MSTORE MLOAD SWAP2 DUP3 SWAP2 DUP3 PUSH2 0x309C JUMP JUMPDEST POP DUP3 SWAP1 CALLVALUE PUSH2 0x1085 JUMPI PUSH1 0x20 CALLDATASIZE PUSH1 0x3 NOT ADD SLT PUSH2 0x1085 JUMPI PUSH1 0x20 SWAP3 PUSH1 0xFF SWAP2 DUP4 SWAP2 SWAP1 PUSH1 0x1 PUSH1 0x1 PUSH1 0xA0 SHL SUB PUSH2 0x17D3 PUSH2 0x30E5 JUMP JUMPDEST AND DUP3 MSTORE DUP6 MSTORE KECCAK256 SLOAD AND SWAP1 MLOAD SWAP1 ISZERO ISZERO DUP2 MSTORE RETURN JUMPDEST DUP3 DUP5 CALLVALUE PUSH2 0x461 JUMPI DUP2 PUSH1 0x3 NOT CALLDATASIZE ADD SLT PUSH2 0x461 JUMPI PUSH1 0x16 SLOAD SWAP1 MLOAD PUSH1 0x1 PUSH1 0x1 PUSH1 0xA0 SHL SUB SWAP1 SWAP2 AND DUP2 MSTORE PUSH1 0x20 SWAP1 RETURN JUMPDEST DUP3 DUP5 CALLVALUE PUSH2 0x461 JUMPI DUP2 PUSH1 0x3 NOT CALLDATASIZE ADD SLT PUSH2 0x461 JUMPI PUSH1 0x20 SWAP1 PUSH2 0x182A PUSH2 0x4A79 JUMP JUMPDEST SWAP1 MLOAD SWAP1 DUP2 MSTORE RETURN JUMPDEST POP DUP3 SWAP1 CALLVALUE PUSH2 0x1085 JUMPI DUP2 PUSH1 0x3 NOT CALLDATASIZE ADD SLT PUSH2 0x1085 JUMPI DUP2 PUSH1 0x20 SWAP4 PUSH1 0xFF SWAP3 PUSH2 0x1853 PUSH2 0x3100 JUMP JUMPDEST SWAP1 CALLDATALOAD DUP3 MSTORE PUSH1 0x29 DUP7 MSTORE DUP3 DUP3 KECCAK256 PUSH1 0x1 PUSH1 0x1 PUSH1 0xA0 SHL SUB SWAP1 SWAP2 AND DUP3 MSTORE DUP6 MSTORE KECCAK256 SLOAD SWAP2 MLOAD SWAP2 AND ISZERO ISZERO DUP2 MSTORE RETURN JUMPDEST DUP3 DUP5 CALLVALUE PUSH2 0x461 JUMPI DUP2 PUSH1 0x3 NOT CALLDATASIZE ADD SLT PUSH2 0x461 JUMPI PUSH1 0x17 SLOAD SWAP1 MLOAD PUSH1 0x1 PUSH1 0x1 PUSH1 0xA0 SHL SUB SWAP1 SWAP2 AND DUP2 MSTORE PUSH1 0x20 SWAP1 RETURN JUMPDEST POP POP CALLVALUE PUSH2 0x4C5 JUMPI DUP1 PUSH1 0x3 NOT CALLDATASIZE ADD SLT PUSH2 0x4C5 JUMPI POP PUSH1 0x1C SLOAD PUSH1 0x1D SLOAD PUSH1 0x1E SLOAD SWAP3 MLOAD SWAP2 DUP3 MSTORE PUSH1 0x20 DUP3 ADD MSTORE PUSH1 0x40 DUP2 ADD SWAP2 SWAP1 SWAP2 MSTORE PUSH1 0x60 SWAP1 RETURN JUMPDEST POP SWAP2 SWAP1 CALLVALUE PUSH2 0x4C5 JUMPI PUSH1 0x20 CALLDATASIZE PUSH1 0x3 NOT ADD SLT PUSH2 0x4C5 JUMPI POP PUSH2 0x182A PUSH1 0x20 SWAP3 CALLDATALOAD PUSH2 0x4B23 JUMP JUMPDEST DUP3 DUP5 CALLVALUE PUSH2 0x461 JUMPI PUSH1 0x20 CALLDATASIZE PUSH1 0x3 NOT ADD SLT PUSH2 0x461 JUMPI PUSH1 0x20 SWAP1 PUSH2 0x182A PUSH2 0x1917 PUSH2 0x30E5 JUMP JUMPDEST PUSH2 0x3406 JUMP JUMPDEST DUP3 DUP5 CALLVALUE PUSH2 0x461 JUMPI DUP2 PUSH1 0x3 NOT CALLDATASIZE ADD SLT PUSH2 0x461 JUMPI PUSH1 0x20 SWAP1 PUSH1 0xFF PUSH1 0x8 SLOAD PUSH1 0x8 SHR AND SWAP1 MLOAD SWAP1 ISZERO ISZERO DUP2 MSTORE RETURN JUMPDEST POP CALLVALUE PUSH2 0x461 JUMPI DUP3 PUSH1 0x3 NOT CALLDATASIZE ADD SLT PUSH2 0x461 JUMPI DUP1 CALLDATALOAD PUSH2 0x195E PUSH2 0x3161 JUMP JUMPDEST SWAP1 CALLER DUP5 MSTORE PUSH1 0x20 SWAP3 PUSH1 0x26 DUP5 MSTORE PUSH2 0x1978 PUSH1 0xFF DUP8 DUP8 KECCAK256 SLOAD AND PUSH2 0x3556 JUMP JUMPDEST PUSH2 0x1981 DUP3 PUSH2 0x32C4 JUMP JUMPDEST POP PUSH1 0x2 ADD SLOAD PUSH1 0x1 PUSH1 0x1 PUSH1 0xA0 SHL SUB AND DUP6 MSTORE PUSH1 0x6 DUP5 MSTORE DUP6 DUP6 KECCAK256 DUP1 SLOAD PUSH1 0xFF NOT AND PUSH1 0xFF DUP6 ISZERO ISZERO AND OR SWAP1 SSTORE PUSH2 0x19B4 PUSH1 0x28 SLOAD DUP4 LT PUSH2 0x4A95 JUMP JUMPDEST PUSH2 0x19C2 PUSH1 0xFF PUSH2 0x34D DUP5 PUSH2 0x32C4 JUMP JUMPDEST PUSH2 0x19CB DUP3 PUSH2 0x4B23 JUMP JUMPDEST PUSH1 0x27 SLOAD GT PUSH2 0x3FE JUMPI PUSH2 0x19DC DUP3 PUSH2 0x32C4 JUMP JUMPDEST POP SWAP1 PUSH1 0x8 PUSH1 0x1 DUP4 ADD SLOAD SUB PUSH2 0x3CD JUMPI POP DUP4 PUSH32 0xB4DD5C2209BDE9A21F0E7F65B94F8565474C3C3E744B186E1F9B38E086AF280D SWAP6 SWAP7 SWAP3 PUSH1 0x0 DUP1 MLOAD PUSH1 0x20 PUSH2 0x4BB3 DUP4 CODECOPY DUP2 MLOAD SWAP2 MSTORE SWAP3 PUSH1 0x1 PUSH1 0xFF NOT DUP3 SLOAD AND OR SWAP1 SSTORE DUP4 MLOAD SWAP1 DUP2 MSTORE LOG1 MLOAD SWAP1 ISZERO ISZERO DUP2 MSTORE LOG1 DUP1 RETURN JUMPDEST DUP3 DUP5 CALLVALUE PUSH2 0x461 JUMPI DUP2 PUSH1 0x3 NOT CALLDATASIZE ADD SLT PUSH2 0x461 JUMPI PUSH1 0x20 SWAP1 PUSH1 0x11 SLOAD SWAP1 MLOAD SWAP1 DUP2 MSTORE RETURN JUMPDEST DUP3 DUP5 CALLVALUE PUSH2 0x461 JUMPI DUP2 PUSH1 0x3 NOT CALLDATASIZE ADD SLT PUSH2 0x461 JUMPI PUSH1 0x20 SWAP1 PUSH1 0x13 SLOAD SWAP1 MLOAD SWAP1 DUP2 MSTORE RETURN JUMPDEST DUP3 DUP5 CALLVALUE PUSH2 0x461 JUMPI DUP2 PUSH1 0x3 NOT CALLDATASIZE ADD SLT PUSH2 0x461 JUMPI PUSH1 0x20 SWAP1 PUSH1 0x12 SLOAD SWAP1 MLOAD SWAP1 DUP2 MSTORE RETURN JUMPDEST DUP3 DUP5 CALLVALUE PUSH2 0x461 JUMPI PUSH1 0x20 CALLDATASIZE PUSH1 0x3 NOT ADD SLT PUSH2 0x461 JUMPI PUSH1 0x20 SWAP2 PUSH1 0xFF SWAP1 DUP3 SWAP1 PUSH1 0x1 PUSH1 0x1 PUSH1 0xA0 SHL SUB PUSH2 0x1AC3 PUSH2 0x30E5 JUMP JUMPDEST AND DUP2 MSTORE PUSH1 0x5 DUP6 MSTORE KECCAK256 SLOAD AND SWAP1 MLOAD SWAP1 ISZERO ISZERO DUP2 MSTORE RETURN JUMPDEST POP CALLVALUE PUSH2 0x461 JUMPI DUP3 PUSH1 0x3 NOT CALLDATASIZE ADD SLT PUSH2 0x461 JUMPI DUP1 CALLDATALOAD PUSH2 0x1AF1 PUSH2 0x3161 JUMP JUMPDEST SWAP1 CALLER DUP5 MSTORE PUSH1 0x20 SWAP3 PUSH1 0x26 DUP5 MSTORE PUSH2 0x1B0B PUSH1 0xFF DUP8 DUP8 KECCAK256 SLOAD AND PUSH2 0x3556 JUMP JUMPDEST PUSH2 0x1B14 DUP3 PUSH2 0x32C4 JUMP JUMPDEST POP PUSH1 0x2 ADD SLOAD PUSH1 0x1 PUSH1 0x1 PUSH1 0xA0 SHL SUB AND DUP6 MSTORE PUSH1 0x5 DUP5 MSTORE DUP6 DUP6 KECCAK256 DUP1 SLOAD PUSH1 0xFF NOT AND PUSH1 0xFF DUP6 ISZERO ISZERO AND OR SWAP1 SSTORE PUSH2 0x1B47 PUSH1 0x28 SLOAD DUP4 LT PUSH2 0x4A95 JUMP JUMPDEST PUSH2 0x1B55 PUSH1 0xFF PUSH2 0x34D DUP5 PUSH2 0x32C4 JUMP JUMPDEST PUSH2 0x1B5E DUP3 PUSH2 0x4B23 JUMP JUMPDEST PUSH1 0x27 SLOAD GT PUSH2 0x3FE JUMPI PUSH2 0x1B6F DUP3 PUSH2 0x32C4 JUMP JUMPDEST POP SWAP1 PUSH1 0x6 PUSH1 0x1 DUP4 ADD SLOAD SUB PUSH2 0x3CD JUMPI POP DUP4 PUSH32 0x9DF30A92D8B45281AAAD80FBCAD933DFE9354BCDEE1277231DF54E63E55195D7 SWAP6 SWAP7 SWAP3 PUSH1 0x0 DUP1 MLOAD PUSH1 0x20 PUSH2 0x4BB3 DUP4 CODECOPY DUP2 MLOAD SWAP2 MSTORE SWAP3 PUSH1 0x1 PUSH1 0xFF NOT DUP3 SLOAD AND OR SWAP1 SSTORE DUP4 MLOAD SWAP1 DUP2 MSTORE LOG1 MLOAD SWAP1 ISZERO ISZERO DUP2 MSTORE LOG1 DUP1 RETURN JUMPDEST POP CALLVALUE PUSH2 0x461 JUMPI DUP3 PUSH1 0x3 NOT CALLDATASIZE ADD SLT PUSH2 0x461 JUMPI PUSH2 0x1BE7 PUSH2 0x3170 JUMP JUMPDEST SWAP1 PUSH1 0x24 CALLDATALOAD CALLER DUP5 MSTORE PUSH1 0x20 SWAP3 PUSH1 0x26 DUP5 MSTORE PUSH2 0x1C04 PUSH1 0xFF DUP8 DUP8 KECCAK256 SLOAD AND PUSH2 0x3556 JUMP JUMPDEST ISZERO ISZERO SWAP2 PUSH1 0x1 DUP4 SUB PUSH2 0x1CCA JUMPI PUSH1 0x2 DUP7 DUP1 MLOAD PUSH2 0x1C1D DUP2 PUSH2 0x317F JUMP JUMPDEST DUP3 DUP2 MSTORE PUSH1 0x1 DUP8 DUP3 ADD MSTORE ADD MSTORE PUSH1 0x2 PUSH1 0x1C SSTORE PUSH1 0x1 PUSH1 0x1D SSTORE PUSH1 0x2 PUSH1 0x1E SSTORE JUMPDEST PUSH2 0x1C45 PUSH1 0x28 SLOAD DUP4 LT PUSH2 0x4A95 JUMP JUMPDEST PUSH2 0x1C53 PUSH1 0xFF PUSH2 0x34D DUP5 PUSH2 0x32C4 JUMP JUMPDEST PUSH2 0x1C5C DUP3 PUSH2 0x4B23 JUMP JUMPDEST PUSH1 0x27 SLOAD GT PUSH2 0x3FE JUMPI PUSH2 0x1C6D DUP3 PUSH2 0x32C4 JUMP JUMPDEST POP SWAP1 PUSH1 0x11 PUSH1 0x1 DUP4 ADD SLOAD SUB PUSH2 0x3CD JUMPI POP DUP4 PUSH32 0x2AA8128B3CF57C168078769033A09F2677560674DEFB313C68F8EC74DF66DC90 SWAP6 SWAP7 SWAP3 PUSH1 0x0 DUP1 MLOAD PUSH1 0x20 PUSH2 0x4BB3 DUP4 CODECOPY DUP2 MLOAD SWAP2 MSTORE SWAP3 PUSH1 0x1 PUSH1 0xFF NOT DUP3 SLOAD AND OR SWAP1 SSTORE DUP4 MLOAD SWAP1 DUP2 MSTORE LOG1 MLOAD SWAP1 DUP2 MSTORE LOG1 DUP1 RETURN JUMPDEST DUP5 DUP7 DUP1 MLOAD PUSH2 0x1CD7 DUP2 PUSH2 0x317F JUMP JUMPDEST DUP3 DUP2 MSTORE DUP3 DUP8 DUP3 ADD MSTORE ADD MSTORE DUP5 PUSH1 0x1C SSTORE DUP5 PUSH1 0x1D SSTORE DUP5 PUSH1 0x1E SSTORE PUSH2 0x1C38 JUMP JUMPDEST DUP3 DUP5 CALLVALUE PUSH2 0x461 JUMPI PUSH1 0x20 CALLDATASIZE PUSH1 0x3 NOT ADD SLT PUSH2 0x461 JUMPI PUSH1 0x20 SWAP2 PUSH1 0xFF SWAP1 DUP3 SWAP1 PUSH1 0x1 PUSH1 0x1 PUSH1 0xA0 SHL SUB PUSH2 0x1D1D PUSH2 0x30E5 JUMP JUMPDEST AND DUP2 MSTORE PUSH1 0x3 DUP6 MSTORE KECCAK256 SLOAD AND SWAP1 MLOAD SWAP1 ISZERO ISZERO DUP2 MSTORE RETURN JUMPDEST POP SWAP1 CALLVALUE PUSH2 0x4C5 JUMPI PUSH2 0x1D40 CALLDATASIZE PUSH2 0x3220 JUMP JUMPDEST SWAP1 SWAP3 SWAP2 CALLER DUP4 MSTORE PUSH1 0x20 SWAP2 PUSH1 0x26 DUP4 MSTORE PUSH2 0x1D5C PUSH1 0xFF DUP9 DUP7 KECCAK256 SLOAD AND PUSH2 0x3556 JUMP JUMPDEST DUP4 JUMPDEST DUP3 MLOAD DUP2 LT ISZERO PUSH2 0x1DA2 JUMPI PUSH2 0x1D9D SWAP1 PUSH1 0x1 PUSH1 0x1 PUSH1 0xA0 SHL SUB PUSH2 0x1D7D DUP3 DUP7 PUSH2 0x38A6 JUMP JUMPDEST MLOAD AND DUP7 MSTORE PUSH1 0x5 DUP6 MSTORE PUSH2 0x705 DUP8 DUP11 DUP9 KECCAK256 SWAP1 PUSH1 0xFF DUP1 NOT DUP4 SLOAD AND SWAP2 ISZERO ISZERO AND OR SWAP1 SSTORE JUMP JUMPDEST PUSH2 0x1D5E JUMP JUMPDEST POP SWAP1 SWAP3 SWAP5 PUSH2 0x1DB3 PUSH1 0x28 SLOAD DUP4 LT PUSH2 0x4A95 JUMP JUMPDEST PUSH2 0x1DC1 PUSH1 0xFF PUSH2 0x34D DUP5 PUSH2 0x32C4 JUMP JUMPDEST PUSH2 0x1DCA DUP3 PUSH2 0x4B23 JUMP JUMPDEST PUSH1 0x27 SLOAD GT PUSH2 0x7E1 JUMPI PUSH2 0x1DDB DUP3 PUSH2 0x32C4 JUMP JUMPDEST POP SWAP1 PUSH1 0xF PUSH1 0x1 DUP4 ADD SLOAD SUB PUSH2 0x7B0 JUMPI POP DUP1 SLOAD PUSH1 0xFF NOT AND PUSH1 0x1 OR SWAP1 SSTORE DUP6 MLOAD SWAP1 DUP2 MSTORE SWAP4 SWAP5 PUSH32 0x191F53B0E0DC669E0BEBAB999CE36B4AF8938F5B060C7B7E6974007743F9C679 SWAP5 PUSH2 0x7AA SWAP3 PUSH1 0x0 DUP1 MLOAD PUSH1 0x20 PUSH2 0x4BB3 DUP4 CODECOPY DUP2 MLOAD SWAP2 MSTORE SWAP2 LOG1 MLOAD SWAP3 DUP4 SWAP3 DUP4 PUSH2 0x4A59 JUMP JUMPDEST POP DUP3 SWAP1 CALLVALUE PUSH2 0x1085 JUMPI PUSH1 0x80 CALLDATASIZE PUSH1 0x3 NOT ADD SLT PUSH2 0x1085 JUMPI PUSH2 0x1E59 PUSH2 0x30E5 JUMP JUMPDEST SWAP2 PUSH2 0x1E62 PUSH2 0x3100 JUMP JUMPDEST PUSH1 0x44 SWAP3 DUP4 CALLDATALOAD SWAP4 PUSH1 0x64 SWAP1 DUP2 CALLDATALOAD SWAP2 CALLER DUP10 MSTORE PUSH1 0x20 SWAP4 PUSH1 0x26 DUP6 MSTORE PUSH2 0x1E87 PUSH1 0xFF DUP9 DUP13 KECCAK256 SLOAD AND PUSH2 0x3556 JUMP JUMPDEST PUSH1 0x1 PUSH1 0x1 PUSH1 0xA0 SHL SUB SWAP9 DUP10 AND SWAP9 DUP10 ISZERO PUSH2 0x214B JUMPI ADDRESS DUP11 EQ PUSH2 0x210B JUMPI DUP7 AND SWAP6 DUP7 ISZERO PUSH2 0x20BF JUMPI DUP9 ISZERO PUSH2 0x2074 JUMPI DUP8 MLOAD PUSH4 0xA9059CBB PUSH1 0xE0 SHL DUP2 MSTORE PUSH1 0x1 PUSH1 0x1 PUSH1 0xA0 SHL SUB SWAP2 SWAP1 SWAP2 AND DUP3 DUP3 ADD SWAP1 DUP2 MSTORE PUSH1 0x20 DUP2 ADD DUP11 SWAP1 MSTORE DUP7 SWAP1 DUP3 SWAP1 DUP2 SWAP1 SUB PUSH1 0x40 ADD DUP2 DUP15 DUP15 GAS CALL SWAP1 DUP2 ISZERO PUSH2 0x206A JUMPI DUP12 SWAP2 PUSH2 0x2030 JUMPI JUMPDEST POP ISZERO PUSH2 0x1FF9 JUMPI PUSH2 0x1F04 PUSH1 0x28 SLOAD DUP6 LT PUSH2 0x4A95 JUMP JUMPDEST PUSH2 0x1F12 PUSH1 0xFF PUSH2 0x34D DUP7 PUSH2 0x32C4 JUMP JUMPDEST PUSH2 0x1F1B DUP5 PUSH2 0x4B23 JUMP JUMPDEST PUSH1 0x27 SLOAD GT PUSH2 0x1FC1 JUMPI PUSH2 0x1F2C DUP5 PUSH2 0x32C4 JUMP JUMPDEST POP SWAP3 DUP2 PUSH1 0x1 DUP6 ADD SLOAD SUB PUSH2 0x1F94 JUMPI DUP11 PUSH32 0x94DB19FB7047D6922D4FF747F063BB58993E912F3BE4EB1C26749AE78606252D PUSH1 0x60 DUP13 DUP13 DUP13 DUP13 DUP13 PUSH1 0x0 DUP1 MLOAD PUSH1 0x20 PUSH2 0x4BB3 DUP4 CODECOPY DUP2 MLOAD SWAP2 MSTORE DUP2 DUP15 DUP15 PUSH1 0x1 PUSH1 0xFF NOT DUP3 SLOAD AND OR SWAP1 SSTORE DUP6 MLOAD SWAP1 DUP2 MSTORE LOG1 DUP3 MLOAD SWAP5 DUP6 MSTORE DUP5 ADD MSTORE DUP3 ADD MSTORE LOG1 DUP1 RETURN JUMPDEST DUP8 MLOAD PUSH3 0x461BCD PUSH1 0xE5 SHL DUP2 MSTORE SWAP2 DUP3 ADD DUP7 SWAP1 MSTORE PUSH1 0x15 PUSH1 0x24 DUP4 ADD MSTORE PUSH1 0x0 DUP1 MLOAD PUSH1 0x20 PUSH2 0x4C13 DUP4 CODECOPY DUP2 MLOAD SWAP2 MSTORE SWAP1 DUP3 ADD MSTORE REVERT JUMPDEST PUSH2 0x185B PUSH1 0xF2 SHL PUSH1 0x84 SWAP3 PUSH1 0x0 DUP1 MLOAD PUSH1 0x20 PUSH2 0x4BD3 DUP4 CODECOPY DUP2 MLOAD SWAP2 MSTORE DUP6 DUP9 DUP12 MLOAD SWAP6 PUSH3 0x461BCD PUSH1 0xE5 SHL DUP8 MSTORE DUP7 ADD MSTORE PUSH1 0x22 PUSH1 0x24 DUP7 ADD MSTORE DUP5 ADD MSTORE DUP3 ADD MSTORE REVERT JUMPDEST DUP7 MLOAD PUSH3 0x461BCD PUSH1 0xE5 SHL DUP2 MSTORE SWAP1 DUP2 ADD DUP6 SWAP1 MSTORE PUSH1 0x15 PUSH1 0x24 DUP3 ADD MSTORE PUSH21 0x151BDAD95B881D1C985B9CD9995C8819985A5B1959 PUSH1 0x5A SHL DUP2 DUP5 ADD MSTORE REVERT JUMPDEST SWAP1 POP DUP6 DUP2 DUP2 RETURNDATASIZE DUP4 GT PUSH2 0x2063 JUMPI JUMPDEST PUSH2 0x2047 DUP2 DUP4 PUSH2 0x31FE JUMP JUMPDEST DUP2 ADD SUB SLT PUSH2 0x205F JUMPI MLOAD DUP1 ISZERO ISZERO DUP2 SUB PUSH2 0x205F JUMPI DUP12 PUSH2 0x1EF1 JUMP JUMPDEST DUP11 DUP1 REVERT JUMPDEST POP RETURNDATASIZE PUSH2 0x203D JUMP JUMPDEST DUP9 MLOAD RETURNDATASIZE DUP14 DUP3 RETURNDATACOPY RETURNDATASIZE SWAP1 REVERT JUMPDEST POP PUSH2 0x726F PUSH1 0xF0 SHL PUSH1 0x84 SWAP3 PUSH32 0x616D6F756E742073686F756C642062652067726561746572207468616E207A65 DUP6 DUP9 DUP12 MLOAD SWAP6 PUSH3 0x461BCD PUSH1 0xE5 SHL DUP8 MSTORE DUP7 ADD MSTORE PUSH1 0x22 PUSH1 0x24 DUP7 ADD MSTORE DUP5 ADD MSTORE DUP3 ADD MSTORE REVERT JUMPDEST POP PUSH3 0x657373 PUSH1 0xE8 SHL PUSH1 0x84 SWAP3 PUSH32 0x72656365697665722063616E6E6F7420626520746865207A65726F2061646472 DUP6 DUP9 DUP12 MLOAD SWAP6 PUSH3 0x461BCD PUSH1 0xE5 SHL DUP8 MSTORE DUP7 ADD MSTORE PUSH1 0x23 PUSH1 0x24 DUP7 ADD MSTORE DUP5 ADD MSTORE DUP3 ADD MSTORE REVERT JUMPDEST POP DUP7 MLOAD PUSH3 0x461BCD PUSH1 0xE5 SHL DUP2 MSTORE SWAP1 DUP2 ADD DUP6 SWAP1 MSTORE PUSH1 0x1A PUSH1 0x24 DUP3 ADD MSTORE PUSH32 0x796F752063616E206E6F74207769746864726177616C204D5354000000000000 DUP2 DUP5 ADD MSTORE REVERT JUMPDEST POP PUSH7 0x61646472657373 PUSH1 0xC8 SHL PUSH1 0x84 SWAP3 PUSH32 0x746F6B656E416464726573732063616E6E6F7420626520746865207A65726F20 DUP6 DUP9 DUP12 MLOAD SWAP6 PUSH3 0x461BCD PUSH1 0xE5 SHL DUP8 MSTORE DUP7 ADD MSTORE PUSH1 0x27 PUSH1 0x24 DUP7 ADD MSTORE DUP5 ADD MSTORE DUP3 ADD MSTORE REVERT JUMPDEST DUP3 DUP5 CALLVALUE PUSH2 0x461 JUMPI DUP2 PUSH1 0x3 NOT CALLDATASIZE ADD SLT PUSH2 0x461 JUMPI PUSH1 0x20 SWAP1 PUSH1 0xFF PUSH1 0x8 SLOAD AND SWAP1 MLOAD SWAP1 ISZERO ISZERO DUP2 MSTORE RETURN JUMPDEST POP SWAP2 SWAP1 CALLVALUE PUSH2 0x4C5 JUMPI DUP2 PUSH1 0x3 NOT CALLDATASIZE ADD SLT PUSH2 0x4C5 JUMPI POP PUSH2 0x182A PUSH1 0x20 SWAP3 PUSH2 0x21E1 PUSH2 0x3161 JUMP JUMPDEST SWAP1 CALLDATALOAD PUSH2 0x3456 JUMP JUMPDEST POP CALLVALUE PUSH2 0x461 JUMPI PUSH2 0x21F7 CALLDATASIZE PUSH2 0x3116 JUMP JUMPDEST SWAP1 SWAP3 CALLER DUP6 MSTORE PUSH1 0x26 PUSH1 0x20 MSTORE PUSH2 0x2210 PUSH1 0xFF DUP8 DUP8 KECCAK256 SLOAD AND PUSH2 0x3556 JUMP JUMPDEST PUSH1 0x1 DUP1 PUSH1 0xA0 SHL SUB PUSH1 0x1 PUSH1 0x1 PUSH1 0x60 SHL SUB PUSH1 0xA0 SHL SWAP1 DUP1 DUP6 AND DUP3 PUSH1 0xC SLOAD AND OR PUSH1 0xC SSTORE DUP6 AND SWAP1 PUSH1 0xD SLOAD AND OR PUSH1 0xD SSTORE PUSH2 0x2247 PUSH1 0x28 SLOAD DUP4 LT PUSH2 0x4A95 JUMP JUMPDEST PUSH2 0x2255 PUSH1 0xFF PUSH2 0x34D DUP5 PUSH2 0x32C4 JUMP JUMPDEST PUSH2 0x225E DUP3 PUSH2 0x4B23 JUMP JUMPDEST PUSH1 0x27 SLOAD GT PUSH2 0x2319 JUMPI PUSH2 0x226F DUP3 PUSH2 0x32C4 JUMP JUMPDEST POP SWAP1 PUSH1 0xC PUSH1 0x1 DUP4 ADD SLOAD SUB PUSH2 0x22E8 JUMPI POP SWAP5 PUSH1 0x0 DUP1 MLOAD PUSH1 0x20 PUSH2 0x4BB3 DUP4 CODECOPY DUP2 MLOAD SWAP2 MSTORE PUSH1 0x20 PUSH2 0x7AA SWAP4 PUSH32 0x175E4BBEB77C7E49271724A8534BBDD31EA0F809390EE2F57D6B7AA286440EEF SWAP8 SWAP9 PUSH1 0x1 PUSH1 0xFF NOT DUP3 SLOAD AND OR SWAP1 SSTORE DUP4 MLOAD SWAP1 DUP2 MSTORE LOG1 MLOAD PUSH1 0x1 PUSH1 0x1 PUSH1 0xA0 SHL SUB SWAP3 DUP4 AND DUP2 MSTORE SWAP3 SWAP1 SWAP2 AND PUSH1 0x20 DUP4 ADD MSTORE DUP2 SWAP1 PUSH1 0x40 DUP3 ADD SWAP1 JUMP JUMPDEST PUSH1 0x64 SWAP1 PUSH1 0x20 DUP9 MLOAD SWAP2 PUSH3 0x461BCD PUSH1 0xE5 SHL DUP4 MSTORE DUP3 ADD MSTORE PUSH1 0x15 PUSH1 0x24 DUP3 ADD MSTORE PUSH1 0x0 DUP1 MLOAD PUSH1 0x20 PUSH2 0x4C13 DUP4 CODECOPY DUP2 MLOAD SWAP2 MSTORE PUSH1 0x44 DUP3 ADD MSTORE REVERT JUMPDEST PUSH1 0x84 SWAP1 PUSH1 0x20 DUP8 MLOAD SWAP2 PUSH3 0x461BCD PUSH1 0xE5 SHL DUP4 MSTORE DUP3 ADD MSTORE PUSH1 0x22 PUSH1 0x24 DUP3 ADD MSTORE PUSH1 0x0 DUP1 MLOAD PUSH1 0x20 PUSH2 0x4BD3 DUP4 CODECOPY DUP2 MLOAD SWAP2 MSTORE PUSH1 0x44 DUP3 ADD MSTORE PUSH2 0x185B PUSH1 0xF2 SHL PUSH1 0x64 DUP3 ADD MSTORE REVERT JUMPDEST DUP3 DUP5 CALLVALUE PUSH2 0x461 JUMPI DUP1 PUSH1 0x3 NOT CALLDATASIZE ADD SLT PUSH2 0x461 JUMPI PUSH2 0x10B3 PUSH1 0x20 SWAP3 PUSH2 0x239E PUSH2 0x2378 PUSH2 0x30E5 JUMP JUMPDEST CALLER DUP4 MSTORE PUSH1 0x2 DUP7 MSTORE DUP5 DUP4 KECCAK256 PUSH1 0x1 PUSH1 0x1 PUSH1 0xA0 SHL SUB DUP3 AND DUP5 MSTORE DUP7 MSTORE SWAP2 DUP5 SWAP1 KECCAK256 SLOAD PUSH1 0x24 CALLDATALOAD SWAP1 PUSH2 0x3449 JUMP JUMPDEST SWAP1 CALLER PUSH2 0x3A17 JUMP JUMPDEST DUP3 DUP5 CALLVALUE PUSH2 0x461 JUMPI DUP2 PUSH1 0x3 NOT CALLDATASIZE ADD SLT PUSH2 0x461 JUMPI PUSH1 0x20 SWAP1 MLOAD PUSH1 0x12 DUP2 MSTORE RETURN JUMPDEST DUP3 DUP5 CALLVALUE PUSH2 0x461 JUMPI PUSH1 0x20 CALLDATASIZE PUSH1 0x3 NOT ADD SLT PUSH2 0x461 JUMPI PUSH1 0x20 SWAP2 PUSH1 0xFF SWAP1 DUP3 SWAP1 PUSH1 0x1 PUSH1 0x1 PUSH1 0xA0 SHL SUB PUSH2 0x23EC PUSH2 0x30E5 JUMP JUMPDEST AND DUP2 MSTORE PUSH1 0x26 DUP6 MSTORE KECCAK256 SLOAD AND SWAP1 MLOAD SWAP1 ISZERO ISZERO DUP2 MSTORE RETURN JUMPDEST POP SWAP2 SWAP1 CALLVALUE PUSH2 0x4C5 JUMPI PUSH1 0x20 CALLDATASIZE PUSH1 0x3 NOT ADD SLT PUSH2 0x4C5 JUMPI POP PUSH2 0x182A PUSH1 0x20 SWAP3 CALLDATALOAD PUSH2 0x34E6 JUMP JUMPDEST POP DUP3 CALLVALUE PUSH2 0x1085 JUMPI PUSH2 0x2430 CALLDATASIZE PUSH2 0x314B JUMP JUMPDEST SWAP1 SWAP3 CALLER DUP6 MSTORE PUSH1 0x26 PUSH1 0x20 MSTORE PUSH2 0x2449 PUSH1 0xFF DUP5 DUP8 KECCAK256 SLOAD AND PUSH2 0x3556 JUMP JUMPDEST PUSH8 0xDE0B6B3A7640000 DUP1 DUP6 MUL SWAP1 DUP6 DUP3 DIV EQ DUP6 ISZERO OR ISZERO PUSH2 0x672 JUMPI PUSH1 0x10 SSTORE PUSH2 0x2472 PUSH1 0x28 SLOAD DUP4 LT PUSH2 0x4A95 JUMP JUMPDEST PUSH2 0x2480 PUSH1 0xFF PUSH2 0x34D DUP5 PUSH2 0x32C4 JUMP JUMPDEST PUSH2 0x2489 DUP3 PUSH2 0x4B23 JUMP JUMPDEST PUSH1 0x27 SLOAD GT PUSH2 0x1291 JUMPI PUSH2 0x249A DUP3 PUSH2 0x32C4 JUMP JUMPDEST POP SWAP1 PUSH1 0xD PUSH1 0x1 DUP4 ADD SLOAD SUB PUSH2 0x1260 JUMPI POP SWAP2 PUSH1 0x0 DUP1 MLOAD PUSH1 0x20 PUSH2 0x4BB3 DUP4 CODECOPY DUP2 MLOAD SWAP2 MSTORE PUSH1 0x20 PUSH32 0xD9426B58C81D17F6DD4BB6B8680FE18CFCFED49A38648D7D1A2D8FB9806FC218 SWAP6 SWAP4 DUP2 SWAP6 PUSH1 0x1 PUSH1 0xFF NOT DUP3 SLOAD AND OR SWAP1 SSTORE DUP4 MLOAD SWAP1 DUP2 MSTORE LOG1 MLOAD SWAP1 DUP2 MSTORE LOG1 DUP1 RETURN JUMPDEST DUP3 DUP5 CALLVALUE PUSH2 0x461 JUMPI DUP2 PUSH1 0x3 NOT CALLDATASIZE ADD SLT PUSH2 0x461 JUMPI PUSH1 0x20 SWAP1 PUSH1 0x14 SLOAD SWAP1 MLOAD SWAP1 DUP2 MSTORE RETURN JUMPDEST POP DUP3 CALLVALUE PUSH2 0x1085 JUMPI DUP1 PUSH1 0x3 NOT CALLDATASIZE ADD SLT PUSH2 0x1085 JUMPI DUP2 CALLDATALOAD SWAP3 PUSH2 0x2535 PUSH2 0x3100 JUMP JUMPDEST SWAP4 CALLER DUP3 MSTORE PUSH1 0x20 SWAP5 PUSH1 0x26 DUP7 MSTORE PUSH2 0x254F PUSH1 0xFF DUP6 DUP6 KECCAK256 SLOAD AND PUSH2 0x3556 JUMP JUMPDEST PUSH1 0x11 DUP3 GT ISZERO DUP1 PUSH2 0x2773 JUMPI JUMPDEST ISZERO PUSH2 0x273C JUMPI PUSH1 0x28 SLOAD SWAP2 DUP3 PUSH2 0x26D3 JUMPI JUMPDEST DUP5 MLOAD SWAP1 PUSH2 0x2575 DUP3 PUSH2 0x317F JUMP JUMPDEST DUP5 DUP3 MSTORE DUP8 DUP3 ADD SWAP1 DUP2 MSTORE PUSH1 0x1 PUSH1 0x1 PUSH1 0xA0 SHL SUB SWAP3 DUP4 AND DUP7 DUP4 ADD SWAP1 DUP2 MSTORE SWAP4 PUSH1 0x1 PUSH1 0x40 SHL DUP2 LT ISZERO PUSH2 0x26C0 JUMPI DUP1 PUSH1 0x1 PUSH2 0x25AC SWAP3 ADD PUSH1 0x28 SSTORE PUSH2 0x32C4 JUMP JUMPDEST SWAP3 SWAP1 SWAP3 PUSH2 0x26AE JUMPI SWAP1 PUSH2 0x25D0 PUSH1 0x2 SWAP4 SWAP3 MLOAD ISZERO ISZERO DUP4 SWAP1 PUSH1 0xFF DUP1 NOT DUP4 SLOAD AND SWAP2 ISZERO ISZERO AND OR SWAP1 SSTORE JUMP JUMPDEST MLOAD PUSH1 0x1 DUP3 ADD SSTORE ADD SWAP2 MLOAD AND PUSH1 0x1 PUSH1 0x1 PUSH1 0x60 SHL SUB PUSH1 0xA0 SHL DUP3 SLOAD AND OR SWAP1 SSTORE PUSH1 0x28 SLOAD SWAP3 PUSH1 0x0 NOT SWAP4 DUP5 DUP2 ADD SWAP1 DUP2 GT PUSH2 0x269B JUMPI DUP3 MSTORE PUSH1 0x29 DUP6 MSTORE DUP3 DUP3 KECCAK256 CALLER DUP4 MSTORE DUP6 MSTORE DUP3 DUP3 KECCAK256 DUP1 SLOAD PUSH1 0xFF NOT AND PUSH1 0x1 OR SWAP1 SSTORE PUSH1 0x28 SLOAD SWAP4 DUP5 ADD SWAP4 DUP5 GT PUSH2 0x2688 JUMPI POP POP DUP1 MLOAD CALLER DUP2 MSTORE PUSH1 0x20 DUP2 ADD DUP4 SWAP1 MSTORE PUSH32 0x90EC57F18FA7B15C6B8D5E4D1DEB90796C74B2FF23D4D0CECAD0CB42A96B3128 SWAP1 PUSH1 0x40 SWAP1 LOG1 PUSH32 0xE764A167EA16DBA9A9B8FDC48C267800565D742612790348C3342F6ED230ACFA DUP4 DUP3 MLOAD DUP5 DUP2 MSTORE LOG1 MLOAD SWAP1 DUP2 MSTORE RETURN JUMPDEST PUSH4 0x4E487B71 PUSH1 0xE0 SHL DUP3 MSTORE PUSH1 0x11 SWAP1 MSTORE PUSH1 0x24 SWAP1 REVERT JUMPDEST PUSH4 0x4E487B71 PUSH1 0xE0 SHL DUP4 MSTORE PUSH1 0x11 DUP3 MSTORE PUSH1 0x24 DUP4 REVERT JUMPDEST PUSH4 0x4E487B71 PUSH1 0xE0 SHL DUP7 MSTORE DUP6 DUP9 MSTORE PUSH1 0x24 DUP7 REVERT JUMPDEST PUSH4 0x4E487B71 PUSH1 0xE0 SHL DUP7 MSTORE PUSH1 0x41 DUP9 MSTORE PUSH1 0x24 DUP7 REVERT JUMPDEST PUSH1 0x1 PUSH1 0xFF PUSH2 0x26E0 DUP4 PUSH2 0x32C4 JUMP JUMPDEST POP SLOAD AND ISZERO ISZERO EQ PUSH2 0x2569 JUMPI DUP5 MLOAD PUSH3 0x461BCD PUSH1 0xE5 SHL DUP2 MSTORE DUP1 DUP8 ADD DUP9 SWAP1 MSTORE PUSH1 0x26 PUSH1 0x24 DUP3 ADD MSTORE PUSH32 0x506C656173652045786563757465205175657565205472616E73616374696F6E PUSH1 0x44 DUP3 ADD MSTORE PUSH6 0x8119A5C9CDD PUSH1 0xD2 SHL PUSH1 0x64 DUP3 ADD MSTORE PUSH1 0x84 SWAP1 REVERT JUMPDEST DUP4 MLOAD PUSH3 0x461BCD PUSH1 0xE5 SHL DUP2 MSTORE DUP1 DUP7 ADD DUP8 SWAP1 MSTORE PUSH1 0x11 PUSH1 0x24 DUP3 ADD MSTORE PUSH17 0x1A5B9D985B1A59081B595D1A1BD9081A59 PUSH1 0x7A SHL PUSH1 0x44 DUP3 ADD MSTORE PUSH1 0x64 SWAP1 REVERT JUMPDEST POP DUP2 ISZERO ISZERO PUSH2 0x255A JUMP JUMPDEST POP DUP3 CALLVALUE PUSH2 0x1085 JUMPI PUSH1 0x20 DUP1 PUSH1 0x3 NOT CALLDATASIZE ADD SLT PUSH2 0x1081 JUMPI DUP3 CALLDATALOAD SWAP3 CALLER DUP6 MSTORE PUSH1 0x26 DUP3 MSTORE PUSH2 0x27A9 PUSH1 0xFF DUP5 DUP8 KECCAK256 SLOAD AND PUSH2 0x3556 JUMP JUMPDEST PUSH2 0x27B6 PUSH1 0x28 SLOAD DUP6 LT PUSH2 0x4A95 JUMP JUMPDEST DUP4 DUP6 MSTORE PUSH1 0x29 DUP3 MSTORE DUP3 DUP6 KECCAK256 CALLER DUP7 MSTORE DUP3 MSTORE PUSH1 0xFF DUP4 DUP7 KECCAK256 SLOAD AND PUSH2 0x283B JUMPI POP SWAP2 PUSH2 0x7AA SWAP2 PUSH32 0x90EC57F18FA7B15C6B8D5E4D1DEB90796C74B2FF23D4D0CECAD0CB42A96B3128 SWAP4 PUSH2 0x2806 PUSH1 0xFF PUSH2 0x34D DUP6 PUSH2 0x32C4 JUMP JUMPDEST DUP3 DUP7 MSTORE PUSH1 0x29 DUP2 MSTORE DUP2 DUP7 KECCAK256 CALLER DUP1 DUP9 MSTORE SWAP2 MSTORE DUP2 DUP7 KECCAK256 DUP1 SLOAD PUSH1 0xFF NOT AND PUSH1 0x1 OR SWAP1 SSTORE SWAP1 MLOAD SWAP1 DUP2 MSTORE PUSH1 0x20 DUP2 ADD SWAP2 SWAP1 SWAP2 MSTORE SWAP1 DUP2 SWAP1 PUSH1 0x40 DUP3 ADD SWAP1 JUMP JUMPDEST SWAP2 MLOAD PUSH3 0x461BCD PUSH1 0xE5 SHL DUP2 MSTORE SWAP2 DUP3 ADD MSTORE PUSH1 0x15 PUSH1 0x24 DUP3 ADD MSTORE PUSH21 0x74726E782068617320616C726561647920646F6E65 PUSH1 0x58 SHL PUSH1 0x44 DUP3 ADD MSTORE PUSH1 0x64 SWAP1 REVERT JUMPDEST POP CALLVALUE PUSH2 0x461 JUMPI DUP3 SWAP1 PUSH2 0x2885 CALLDATASIZE PUSH2 0x3116 JUMP JUMPDEST SWAP4 SWAP1 SWAP2 SWAP5 PUSH1 0x1 DUP1 PUSH1 0xA0 SHL SUB DUP7 AND DUP2 MSTORE PUSH1 0x2 PUSH1 0x20 MSTORE DUP2 DUP2 KECCAK256 CALLER DUP3 MSTORE PUSH1 0x20 MSTORE KECCAK256 SLOAD SWAP2 DUP4 DUP4 LT PUSH2 0x28D0 JUMPI PUSH1 0x20 DUP7 PUSH2 0x10B3 DUP8 PUSH2 0x28C8 DUP9 DUP9 PUSH2 0x28C3 DUP3 DUP11 DUP7 PUSH2 0x3B64 JUMP JUMPDEST PUSH2 0x3347 JUMP JUMPDEST SWAP1 CALLER SWAP1 PUSH2 0x3A17 JUMP JUMPDEST PUSH1 0x84 SWAP1 PUSH1 0x20 DUP8 MLOAD SWAP2 PUSH3 0x461BCD PUSH1 0xE5 SHL DUP4 MSTORE DUP3 ADD MSTORE PUSH1 0x28 PUSH1 0x24 DUP3 ADD MSTORE PUSH32 0x45524332303A207472616E7366657220616D6F756E7420657863656564732061 PUSH1 0x44 DUP3 ADD MSTORE PUSH8 0x6C6C6F77616E6365 PUSH1 0xC0 SHL PUSH1 0x64 DUP3 ADD MSTORE REVERT JUMPDEST POP CALLVALUE PUSH2 0x461 JUMPI DUP3 PUSH1 0x3 NOT CALLDATASIZE ADD SLT PUSH2 0x461 JUMPI PUSH2 0x293D PUSH2 0x30E5 JUMP JUMPDEST SWAP1 PUSH1 0x24 CALLDATALOAD CALLER DUP5 MSTORE PUSH1 0x20 SWAP3 PUSH1 0x26 DUP5 MSTORE PUSH2 0x295A PUSH1 0xFF DUP8 DUP8 KECCAK256 SLOAD AND PUSH2 0x3556 JUMP JUMPDEST PUSH1 0x1 PUSH1 0x1 PUSH1 0xA0 SHL SUB AND SWAP2 DUP3 ISZERO PUSH2 0x2A10 JUMPI DUP3 PUSH1 0x1 PUSH1 0x1 PUSH1 0x60 SHL SUB PUSH1 0xA0 SHL PUSH1 0x17 SLOAD AND OR PUSH1 0x17 SSTORE PUSH2 0x298B PUSH1 0x28 SLOAD DUP4 LT PUSH2 0x4A95 JUMP JUMPDEST PUSH2 0x2999 PUSH1 0xFF PUSH2 0x34D DUP5 PUSH2 0x32C4 JUMP JUMPDEST PUSH2 0x29A2 DUP3 PUSH2 0x4B23 JUMP JUMPDEST PUSH1 0x27 SLOAD GT PUSH2 0x3FE JUMPI PUSH2 0x29B3 DUP3 PUSH2 0x32C4 JUMP JUMPDEST POP SWAP1 PUSH1 0x9 PUSH1 0x1 DUP4 ADD SLOAD SUB PUSH2 0x3CD JUMPI POP DUP4 PUSH32 0x2662EF2C54FF98367EB3D0304B112D24FF78BEB4077EFCEF65B040BACA760AB SWAP6 SWAP7 SWAP3 PUSH1 0x0 DUP1 MLOAD PUSH1 0x20 PUSH2 0x4BB3 DUP4 CODECOPY DUP2 MLOAD SWAP2 MSTORE SWAP3 PUSH1 0x1 PUSH1 0xFF NOT DUP3 SLOAD AND OR SWAP1 SSTORE DUP4 MLOAD SWAP1 DUP2 MSTORE LOG1 MLOAD SWAP1 DUP2 MSTORE LOG1 DUP1 RETURN JUMPDEST DUP6 MLOAD PUSH3 0x461BCD PUSH1 0xE5 SHL DUP2 MSTORE SWAP1 DUP2 ADD DUP5 SWAP1 MSTORE PUSH1 0x27 PUSH1 0x24 DUP3 ADD MSTORE PUSH32 0x6D61726B6574696E6777616C6C657420616464726573732063616E206E6F7420 PUSH1 0x44 DUP3 ADD MSTORE PUSH7 0x6265207A65726F PUSH1 0xC8 SHL PUSH1 0x64 DUP3 ADD MSTORE PUSH1 0x84 SWAP1 REVERT JUMPDEST POP DUP3 CALLVALUE PUSH2 0x1085 JUMPI PUSH1 0x20 DUP1 PUSH1 0x3 NOT CALLDATASIZE ADD SLT PUSH2 0x1081 JUMPI DUP3 CALLDATALOAD SWAP3 CALLER DUP6 MSTORE PUSH1 0x26 DUP3 MSTORE PUSH2 0x2A90 PUSH1 0xFF DUP5 DUP8 KECCAK256 SLOAD AND PUSH2 0x3556 JUMP JUMPDEST PUSH2 0x2A9D PUSH1 0x28 SLOAD DUP6 LT PUSH2 0x4A95 JUMP JUMPDEST PUSH2 0x2AAB PUSH1 0xFF PUSH2 0x34D DUP7 PUSH2 0x32C4 JUMP JUMPDEST DUP4 DUP6 MSTORE PUSH1 0x29 DUP3 MSTORE DUP3 DUP6 KECCAK256 CALLER DUP7 MSTORE DUP3 MSTORE PUSH1 0xFF DUP4 DUP7 KECCAK256 SLOAD AND ISZERO PUSH2 0x2B1B JUMPI POP DUP3 DUP5 MSTORE PUSH1 0x29 DUP2 MSTORE DUP2 DUP5 KECCAK256 CALLER DUP1 DUP7 MSTORE SWAP2 MSTORE DUP2 DUP5 KECCAK256 DUP1 SLOAD PUSH1 0xFF NOT AND SWAP1 SSTORE SWAP1 MLOAD SWAP1 DUP2 MSTORE PUSH1 0x20 DUP2 ADD SWAP2 SWAP1 SWAP2 MSTORE PUSH32 0xEC9AB91322523C899EDE7830EC9BFC992B5981CDCC27B91162FB23DE5791117B SWAP1 DUP1 PUSH1 0x40 DUP2 ADD PUSH2 0x7AA JUMP JUMPDEST SWAP2 MLOAD PUSH3 0x461BCD PUSH1 0xE5 SHL DUP2 MSTORE SWAP2 DUP3 ADD MSTORE PUSH1 0x19 PUSH1 0x24 DUP3 ADD MSTORE PUSH32 0x74726E7820686173206E6F74206265656E20617070726F766500000000000000 PUSH1 0x44 DUP3 ADD MSTORE PUSH1 0x64 SWAP1 REVERT JUMPDEST DUP3 DUP5 CALLVALUE PUSH2 0x461 JUMPI DUP2 PUSH1 0x3 NOT CALLDATASIZE ADD SLT PUSH2 0x461 JUMPI PUSH1 0x20 SWAP1 PUSH1 0xE SLOAD SWAP1 MLOAD SWAP1 DUP2 MSTORE RETURN JUMPDEST POP SWAP2 CALLVALUE PUSH2 0x461 JUMPI PUSH1 0x20 SWAP1 DUP2 PUSH1 0x3 NOT CALLDATASIZE ADD SLT PUSH2 0x1085 JUMPI DUP4 CALLDATALOAD SWAP4 CALLER DUP5 MSTORE PUSH1 0x26 DUP4 MSTORE PUSH2 0x2BA9 PUSH1 0xFF DUP4 DUP7 KECCAK256 SLOAD AND PUSH2 0x3556 JUMP JUMPDEST PUSH1 0x2 PUSH2 0x2BB4 DUP7 PUSH2 0x32C4 JUMP JUMPDEST POP ADD DUP1 SLOAD PUSH1 0x1 PUSH1 0x1 PUSH1 0xA0 SHL SUB SWAP3 SWAP1 DUP4 AND DUP1 ISZERO PUSH2 0x2C71 JUMPI DUP7 MSTORE PUSH1 0x3 DUP6 MSTORE DUP4 DUP7 KECCAK256 PUSH1 0xFF NOT SWAP1 PUSH1 0x1 DUP3 DUP3 SLOAD AND OR SWAP1 SSTORE PUSH2 0x2BED PUSH1 0x28 SLOAD DUP10 LT PUSH2 0x4A95 JUMP JUMPDEST PUSH2 0x2BFB PUSH1 0xFF PUSH2 0x34D DUP11 PUSH2 0x32C4 JUMP JUMPDEST PUSH2 0x2C04 DUP9 PUSH2 0x4B23 JUMP JUMPDEST PUSH1 0x27 SLOAD GT PUSH2 0x16BC JUMPI PUSH2 0x2C15 DUP9 PUSH2 0x32C4 JUMP JUMPDEST POP SWAP2 PUSH1 0x1 DUP1 DUP5 ADD SLOAD SUB PUSH2 0x168B JUMPI POP PUSH32 0xDBDE64BEF24F6C6798C1137955E0F3AB1EE540536392BEA881C4AD3E6D61ECC7 SWAP7 SWAP8 DUP3 PUSH1 0x1 DUP9 SWAP4 PUSH1 0x0 DUP1 MLOAD PUSH1 0x20 PUSH2 0x4BB3 DUP4 CODECOPY DUP2 MLOAD SWAP2 MSTORE SWAP6 SLOAD AND OR SWAP1 SSTORE DUP6 MLOAD SWAP1 DUP2 MSTORE LOG1 SLOAD AND SWAP1 MLOAD SWAP1 DUP2 MSTORE LOG1 DUP1 RETURN JUMPDEST DUP5 MLOAD PUSH3 0x461BCD PUSH1 0xE5 SHL DUP2 MSTORE DUP1 DUP4 ADD DUP8 SWAP1 MSTORE PUSH1 0xF PUSH1 0x24 DUP3 ADD MSTORE PUSH15 0x696E76616C69642061646472657373 PUSH1 0x88 SHL PUSH1 0x44 DUP3 ADD MSTORE PUSH1 0x64 SWAP1 REVERT JUMPDEST POP SWAP1 CALLVALUE PUSH2 0x4C5 JUMPI PUSH1 0x20 DUP1 PUSH1 0x3 NOT CALLDATASIZE ADD SLT PUSH2 0x461 JUMPI DUP3 CALLDATALOAD SWAP4 CALLER DUP4 MSTORE PUSH1 0x26 DUP3 MSTORE PUSH1 0xFF PUSH2 0x2CD4 DUP2 DUP4 DUP7 KECCAK256 SLOAD AND PUSH2 0x3556 JUMP JUMPDEST PUSH1 0x2 PUSH2 0x2CDF DUP8 PUSH2 0x32C4 JUMP JUMPDEST POP ADD DUP1 SLOAD PUSH1 0x1 PUSH1 0x1 PUSH1 0xA0 SHL SUB SWAP1 DUP2 AND DUP7 MSTORE DUP7 DUP6 MSTORE DUP4 DUP7 KECCAK256 SLOAD SWAP1 SWAP3 SWAP1 DUP2 AND ISZERO PUSH2 0x2F21 JUMPI DUP6 JUMPDEST PUSH1 0x7 DUP1 SLOAD SWAP1 DUP2 DUP4 LT ISZERO PUSH2 0x2F13 JUMPI PUSH2 0x2D19 DUP4 PUSH2 0x302A JUMP JUMPDEST SWAP3 SWAP1 SLOAD DUP8 DUP1 DUP9 SLOAD AND SWAP2 PUSH1 0x3 SWAP6 DUP7 SHL SHR AND EQ PUSH2 0x2D3F JUMPI POP POP POP PUSH2 0x2D3A SWAP1 PUSH2 0x3354 JUMP JUMPDEST PUSH2 0x2D03 JUMP JUMPDEST SWAP3 PUSH1 0x0 SWAP11 SWAP3 SWAP6 SWAP7 SWAP8 SWAP9 SWAP10 SWAP11 SWAP5 SWAP2 SWAP5 NOT SWAP4 DUP5 DUP2 ADD SWAP1 DUP2 GT PUSH2 0x2F00 JUMPI SWAP1 PUSH2 0x15D5 DUP10 PUSH2 0x2D6A PUSH2 0x2D77 SWAP5 PUSH2 0x302A JUMP JUMPDEST SWAP1 SLOAD SWAP1 DUP11 SHL SHR AND SWAP2 PUSH2 0x302A JUMP JUMPDEST DUP7 DUP7 SLOAD AND SWAP4 DUP5 DUP12 MSTORE PUSH1 0x1 SWAP5 DUP6 DUP12 MSTORE PUSH2 0x2DA3 DUP11 DUP14 KECCAK256 SLOAD PUSH2 0x2D9D PUSH2 0x2D97 PUSH2 0x38BA JUMP JUMPDEST SWAP1 PUSH2 0x34C6 JUMP JUMPDEST SWAP1 PUSH2 0x331E JUMP JUMPDEST SWAP1 DUP13 MSTORE DUP12 DUP12 MSTORE DUP10 DUP13 KECCAK256 SSTORE DUP8 DUP8 SLOAD AND DUP12 MSTORE DUP5 DUP11 MSTORE DUP11 DUP10 DUP2 KECCAK256 SSTORE DUP8 DUP8 SLOAD AND DUP12 MSTORE DUP3 DUP11 MSTORE DUP9 DUP12 KECCAK256 SWAP4 PUSH1 0xFF NOT SWAP5 DUP6 DUP2 SLOAD AND SWAP1 SSTORE DUP2 SLOAD DUP1 ISZERO PUSH2 0x2EED JUMPI PUSH2 0x2E0D SWAP4 SWAP3 SWAP2 ADD SWAP1 PUSH2 0x2DEB DUP3 PUSH2 0x302A JUMP JUMPDEST DUP12 DUP3 SLOAD SWAP2 DUP12 SHL SHL NOT AND SWAP1 SSTORE SSTORE PUSH2 0x2E04 PUSH1 0x28 SLOAD DUP14 LT PUSH2 0x4A95 JUMP JUMPDEST PUSH2 0x34D DUP13 PUSH2 0x32C4 JUMP JUMPDEST PUSH2 0x2E16 DUP11 PUSH2 0x4B23 JUMP JUMPDEST PUSH1 0x27 SLOAD GT PUSH2 0x2EB1 JUMPI PUSH2 0x2E27 DUP11 PUSH2 0x32C4 JUMP JUMPDEST POP SWAP4 DUP4 DUP6 ADD SLOAD SUB PUSH2 0x2E80 JUMPI POP SWAP8 DUP3 DUP8 SWAP3 PUSH32 0x9351BE60D7684154F1D81ED1DCF87DA46BBC44B32DAD50C57E2722860A9AD48A SWAP10 SWAP11 PUSH1 0x0 DUP1 MLOAD PUSH1 0x20 PUSH2 0x4BB3 DUP4 CODECOPY DUP2 MLOAD SWAP2 MSTORE SWAP6 SLOAD AND OR SWAP1 SSTORE DUP6 MLOAD SWAP1 DUP2 MSTORE LOG1 SLOAD AND SWAP1 MLOAD SWAP1 DUP2 MSTORE LOG1 DUP1 RETURN JUMPDEST DUP7 MLOAD PUSH3 0x461BCD PUSH1 0xE5 SHL DUP2 MSTORE SWAP1 DUP2 ADD DUP9 SWAP1 MSTORE PUSH1 0x15 PUSH1 0x24 DUP3 ADD MSTORE PUSH1 0x0 DUP1 MLOAD PUSH1 0x20 PUSH2 0x4C13 DUP4 CODECOPY DUP2 MLOAD SWAP2 MSTORE PUSH1 0x44 DUP3 ADD MSTORE PUSH1 0x64 SWAP1 REVERT JUMPDEST DUP7 MLOAD PUSH3 0x461BCD PUSH1 0xE5 SHL DUP2 MSTORE SWAP1 DUP2 ADD DUP9 SWAP1 MSTORE PUSH1 0x22 PUSH1 0x24 DUP3 ADD MSTORE PUSH1 0x0 DUP1 MLOAD PUSH1 0x20 PUSH2 0x4BD3 DUP4 CODECOPY DUP2 MLOAD SWAP2 MSTORE PUSH1 0x44 DUP3 ADD MSTORE PUSH2 0x185B PUSH1 0xF2 SHL PUSH1 0x64 DUP3 ADD MSTORE PUSH1 0x84 SWAP1 REVERT JUMPDEST PUSH4 0x4E487B71 PUSH1 0xE0 SHL DUP14 MSTORE PUSH1 0x31 DUP6 MSTORE PUSH1 0x24 DUP14 REVERT JUMPDEST PUSH4 0x4E487B71 PUSH1 0xE0 SHL DUP13 MSTORE PUSH1 0x11 DUP5 MSTORE PUSH1 0x24 DUP13 REVERT JUMPDEST POP POP POP POP POP POP POP POP SWAP2 POP POP DUP1 RETURN JUMPDEST DUP4 MLOAD PUSH3 0x461BCD PUSH1 0xE5 SHL DUP2 MSTORE DUP1 DUP9 ADD DUP7 SWAP1 MSTORE PUSH1 0x17 PUSH1 0x24 DUP3 ADD MSTORE PUSH32 0x4163636F756E74206973206E6F74206578636C75646564000000000000000000 PUSH1 0x44 DUP3 ADD MSTORE PUSH1 0x64 SWAP1 REVERT JUMPDEST DUP3 DUP5 CALLVALUE PUSH2 0x461 JUMPI DUP1 PUSH1 0x3 NOT CALLDATASIZE ADD SLT PUSH2 0x461 JUMPI PUSH1 0x20 SWAP1 PUSH2 0x10B3 PUSH2 0x2F84 PUSH2 0x30E5 JUMP JUMPDEST PUSH1 0x24 CALLDATALOAD SWAP1 CALLER PUSH2 0x3A17 JUMP JUMPDEST DUP3 DUP5 CALLVALUE PUSH2 0x461 JUMPI DUP2 PUSH1 0x3 NOT CALLDATASIZE ADD SLT PUSH2 0x461 JUMPI DUP1 MLOAD PUSH2 0x4C1 SWAP2 PUSH2 0x2FAF DUP3 PUSH2 0x31C5 JUMP JUMPDEST PUSH1 0x18 DUP3 MSTORE PUSH32 0x536561726368204C6F6E676573742050726F6772616D56320000000000000000 PUSH1 0x20 DUP4 ADD MSTORE MLOAD SWAP2 DUP3 SWAP2 DUP3 PUSH2 0x309C JUMP JUMPDEST SWAP2 SWAP1 POP CALLVALUE PUSH2 0x1085 JUMPI PUSH1 0x20 CALLDATASIZE PUSH1 0x3 NOT ADD SLT PUSH2 0x1085 JUMPI CALLDATALOAD PUSH1 0x25 SLOAD DUP2 LT ISZERO PUSH2 0x1085 JUMPI PUSH1 0x25 SWAP1 SWAP3 MSTORE PUSH1 0x0 DUP1 MLOAD PUSH1 0x20 PUSH2 0x4B93 DUP4 CODECOPY DUP2 MLOAD SWAP2 MSTORE SWAP1 SWAP2 ADD SLOAD PUSH1 0x1 PUSH1 0x1 PUSH1 0xA0 SHL SUB AND DUP2 MSTORE PUSH1 0x20 SWAP1 RETURN JUMPDEST PUSH1 0x7 SLOAD DUP2 LT ISZERO PUSH2 0x3061 JUMPI PUSH1 0x7 PUSH1 0x0 MSTORE PUSH32 0xA66CC928B5EDB82AF9BD49922954155AB7B0942694BEA4CE44661D9A8736C688 ADD SWAP1 PUSH1 0x0 SWAP1 JUMP JUMPDEST PUSH4 0x4E487B71 PUSH1 0xE0 SHL PUSH1 0x0 MSTORE PUSH1 0x32 PUSH1 0x4 MSTORE PUSH1 0x24 PUSH1 0x0 REVERT JUMPDEST PUSH1 0x25 SLOAD DUP2 LT ISZERO PUSH2 0x3061 JUMPI PUSH1 0x25 PUSH1 0x0 MSTORE PUSH1 0x0 DUP1 MLOAD PUSH1 0x20 PUSH2 0x4B93 DUP4 CODECOPY DUP2 MLOAD SWAP2 MSTORE ADD SWAP1 PUSH1 0x0 SWAP1 JUMP JUMPDEST PUSH1 0x20 DUP1 DUP3 MSTORE DUP3 MLOAD DUP2 DUP4 ADD DUP2 SWAP1 MSTORE SWAP1 SWAP4 SWAP3 PUSH1 0x0 JUMPDEST DUP3 DUP2 LT PUSH2 0x30D1 JUMPI POP POP PUSH1 0x40 SWAP3 SWAP4 POP PUSH1 0x0 DUP4 DUP3 DUP5 ADD ADD MSTORE PUSH1 0x1F DUP1 NOT SWAP2 ADD AND ADD ADD SWAP1 JUMP JUMPDEST DUP2 DUP2 ADD DUP7 ADD MLOAD DUP5 DUP3 ADD PUSH1 0x40 ADD MSTORE DUP6 ADD PUSH2 0x30AF JUMP JUMPDEST PUSH1 0x4 CALLDATALOAD SWAP1 PUSH1 0x1 PUSH1 0x1 PUSH1 0xA0 SHL SUB DUP3 AND DUP3 SUB PUSH2 0x30FB JUMPI JUMP JUMPDEST PUSH1 0x0 DUP1 REVERT JUMPDEST PUSH1 0x24 CALLDATALOAD SWAP1 PUSH1 0x1 PUSH1 0x1 PUSH1 0xA0 SHL SUB DUP3 AND DUP3 SUB PUSH2 0x30FB JUMPI JUMP JUMPDEST PUSH1 0x60 SWAP1 PUSH1 0x3 NOT ADD SLT PUSH2 0x30FB JUMPI PUSH1 0x1 PUSH1 0x1 PUSH1 0xA0 SHL SUB SWAP1 PUSH1 0x4 CALLDATALOAD DUP3 DUP2 AND DUP2 SUB PUSH2 0x30FB JUMPI SWAP2 PUSH1 0x24 CALLDATALOAD SWAP1 DUP2 AND DUP2 SUB PUSH2 0x30FB JUMPI SWAP1 PUSH1 0x44 CALLDATALOAD SWAP1 JUMP JUMPDEST PUSH1 0x40 SWAP1 PUSH1 0x3 NOT ADD SLT PUSH2 0x30FB JUMPI PUSH1 0x4 CALLDATALOAD SWAP1 PUSH1 0x24 CALLDATALOAD SWAP1 JUMP JUMPDEST PUSH1 0x24 CALLDATALOAD SWAP1 DUP2 ISZERO ISZERO DUP3 SUB PUSH2 0x30FB JUMPI JUMP JUMPDEST PUSH1 0x4 CALLDATALOAD SWAP1 DUP2 ISZERO ISZERO DUP3 SUB PUSH2 0x30FB JUMPI JUMP JUMPDEST PUSH1 0x60 DUP2 ADD SWAP1 DUP2 LT PUSH8 0xFFFFFFFFFFFFFFFF DUP3 GT OR PUSH2 0x319B JUMPI PUSH1 0x40 MSTORE JUMP JUMPDEST PUSH4 0x4E487B71 PUSH1 0xE0 SHL PUSH1 0x0 MSTORE PUSH1 0x41 PUSH1 0x4 MSTORE PUSH1 0x24 PUSH1 0x0 REVERT JUMPDEST PUSH8 0xFFFFFFFFFFFFFFFF DUP2 GT PUSH2 0x319B JUMPI PUSH1 0x40 MSTORE JUMP JUMPDEST PUSH1 0x40 DUP2 ADD SWAP1 DUP2 LT PUSH8 0xFFFFFFFFFFFFFFFF DUP3 GT OR PUSH2 0x319B JUMPI PUSH1 0x40 MSTORE JUMP JUMPDEST PUSH2 0x100 DUP2 ADD SWAP1 DUP2 LT PUSH8 0xFFFFFFFFFFFFFFFF DUP3 GT OR PUSH2 0x319B JUMPI PUSH1 0x40 MSTORE JUMP JUMPDEST SWAP1 PUSH1 0x1F DUP1 NOT SWAP2 ADD AND DUP2 ADD SWAP1 DUP2 LT PUSH8 0xFFFFFFFFFFFFFFFF DUP3 GT OR PUSH2 0x319B JUMPI PUSH1 0x40 MSTORE JUMP JUMPDEST PUSH1 0x60 PUSH1 0x3 NOT DUP3 ADD SLT PUSH2 0x30FB JUMPI PUSH1 0x4 CALLDATALOAD SWAP1 PUSH8 0xFFFFFFFFFFFFFFFF SWAP1 DUP2 DUP4 GT PUSH2 0x30FB JUMPI DUP1 PUSH1 0x23 DUP5 ADD SLT ISZERO PUSH2 0x30FB JUMPI DUP3 PUSH1 0x4 ADD CALLDATALOAD SWAP2 DUP3 GT PUSH2 0x319B JUMPI DUP2 PUSH1 0x5 SHL PUSH1 0x40 MLOAD SWAP4 PUSH1 0x20 SWAP4 PUSH2 0x326F DUP6 DUP5 ADD DUP8 PUSH2 0x31FE JUMP JUMPDEST DUP6 MSTORE PUSH1 0x24 DUP5 DUP7 ADD SWAP3 DUP3 ADD ADD SWAP3 DUP4 GT PUSH2 0x30FB JUMPI PUSH1 0x24 ADD SWAP1 JUMPDEST DUP3 DUP3 LT PUSH2 0x32A5 JUMPI POP POP POP POP SWAP1 PUSH1 0x24 CALLDATALOAD DUP1 ISZERO ISZERO DUP2 SUB PUSH2 0x30FB JUMPI SWAP1 PUSH1 0x44 CALLDATALOAD SWAP1 JUMP JUMPDEST DUP2 CALLDATALOAD PUSH1 0x1 PUSH1 0x1 PUSH1 0xA0 SHL SUB DUP2 AND DUP2 SUB PUSH2 0x30FB JUMPI DUP2 MSTORE SWAP1 DUP4 ADD SWAP1 DUP4 ADD PUSH2 0x3286 JUMP JUMPDEST PUSH1 0x28 SLOAD DUP2 LT ISZERO PUSH2 0x3061 JUMPI PUSH1 0x3 SWAP1 PUSH1 0x28 PUSH1 0x0 MSTORE MUL PUSH32 0xE16DA923A2D88192E5070F37B4571D58682C0D66212EC634D495F33DE3F77AB5 ADD SWAP1 PUSH1 0x0 SWAP1 JUMP JUMPDEST SWAP1 DUP2 PUSH1 0x20 SWAP2 SUB SLT PUSH2 0x30FB JUMPI MLOAD PUSH1 0x1 PUSH1 0x1 PUSH1 0xA0 SHL SUB DUP2 AND DUP2 SUB PUSH2 0x30FB JUMPI SWAP1 JUMP JUMPDEST DUP2 DUP2 MUL SWAP3 SWAP2 DUP2 ISZERO SWAP2 DUP5 DIV EQ OR ISZERO PUSH2 0x3331 JUMPI JUMP JUMPDEST PUSH4 0x4E487B71 PUSH1 0xE0 SHL PUSH1 0x0 MSTORE PUSH1 0x11 PUSH1 0x4 MSTORE PUSH1 0x24 PUSH1 0x0 REVERT JUMPDEST SWAP2 SWAP1 DUP3 SUB SWAP2 DUP3 GT PUSH2 0x3331 JUMPI JUMP JUMPDEST PUSH1 0x0 NOT DUP2 EQ PUSH2 0x3331 JUMPI PUSH1 0x1 ADD SWAP1 JUMP JUMPDEST ISZERO PUSH2 0x336A JUMPI JUMP JUMPDEST PUSH1 0x40 MLOAD PUSH3 0x461BCD PUSH1 0xE5 SHL DUP2 MSTORE PUSH1 0x20 PUSH1 0x4 DUP3 ADD MSTORE PUSH1 0x2E PUSH1 0x24 DUP3 ADD MSTORE PUSH32 0x496E697469616C697A61626C653A20636F6E747261637420697320616C726561 PUSH1 0x44 DUP3 ADD MSTORE PUSH14 0x191E481A5B9A5D1A585B1A5E9959 PUSH1 0x92 SHL PUSH1 0x64 DUP3 ADD MSTORE PUSH1 0x84 SWAP1 REVERT JUMPDEST PUSH1 0x2A SLOAD PUSH1 0xFF DUP2 PUSH1 0x8 SHR AND PUSH1 0x0 EQ PUSH2 0x33E8 JUMPI POP PUSH2 0x33E3 ADDRESS EXTCODESIZE ISZERO PUSH2 0x3363 JUMP JUMPDEST PUSH1 0x0 SWAP1 JUMP JUMPDEST DUP1 PUSH2 0x33F9 PUSH1 0x1 PUSH1 0xFF DUP2 SWAP5 AND LT PUSH2 0x3363 JUMP JUMPDEST PUSH1 0xFF NOT AND OR PUSH1 0x2A SSTORE PUSH1 0x1 SWAP1 JUMP JUMPDEST PUSH1 0x1 PUSH1 0x1 PUSH1 0xA0 SHL SUB AND PUSH1 0x0 SWAP1 DUP2 MSTORE PUSH1 0x4 PUSH1 0x20 MSTORE PUSH1 0x40 SWAP1 KECCAK256 SLOAD PUSH1 0xFF AND PUSH2 0x343B JUMPI PUSH1 0x0 PUSH1 0x20 MSTORE PUSH2 0x3438 PUSH1 0x40 PUSH1 0x0 KECCAK256 SLOAD PUSH2 0x34E6 JUMP JUMPDEST SWAP1 JUMP JUMPDEST PUSH1 0x1 PUSH1 0x20 MSTORE PUSH1 0x40 PUSH1 0x0 KECCAK256 SLOAD SWAP1 JUMP JUMPDEST SWAP2 SWAP1 DUP3 ADD DUP1 SWAP3 GT PUSH2 0x3331 JUMPI JUMP JUMPDEST SWAP1 PUSH1 0xE SLOAD DUP3 GT PUSH2 0x3481 JUMPI PUSH2 0x3471 JUMPI PUSH2 0x346D SWAP1 PUSH2 0x35E8 JUMP JUMPDEST MLOAD SWAP1 JUMP JUMPDEST PUSH2 0x347C PUSH1 0x20 SWAP2 PUSH2 0x35E8 JUMP JUMPDEST ADD MLOAD SWAP1 JUMP JUMPDEST PUSH1 0x40 MLOAD PUSH3 0x461BCD PUSH1 0xE5 SHL DUP2 MSTORE PUSH1 0x20 PUSH1 0x4 DUP3 ADD MSTORE PUSH1 0x1F PUSH1 0x24 DUP3 ADD MSTORE PUSH32 0x416D6F756E74206D757374206265206C657373207468616E20737570706C7900 PUSH1 0x44 DUP3 ADD MSTORE PUSH1 0x64 SWAP1 REVERT JUMPDEST DUP2 ISZERO PUSH2 0x34D0 JUMPI DIV SWAP1 JUMP JUMPDEST PUSH4 0x4E487B71 PUSH1 0xE0 SHL PUSH1 0x0 MSTORE PUSH1 0x12 PUSH1 0x4 MSTORE PUSH1 0x24 PUSH1 0x0 REVERT JUMPDEST PUSH1 0xF SLOAD DUP2 GT PUSH2 0x34FE JUMPI PUSH2 0x3438 SWAP1 PUSH2 0x2D97 PUSH2 0x2D97 PUSH2 0x38BA JUMP JUMPDEST PUSH1 0x40 MLOAD PUSH3 0x461BCD PUSH1 0xE5 SHL DUP2 MSTORE PUSH1 0x20 PUSH1 0x4 DUP3 ADD MSTORE PUSH1 0x2A PUSH1 0x24 DUP3 ADD MSTORE PUSH32 0x416D6F756E74206D757374206265206C657373207468616E20746F74616C2072 PUSH1 0x44 DUP3 ADD MSTORE PUSH10 0x65666C656374696F6E73 PUSH1 0xB0 SHL PUSH1 0x64 DUP3 ADD MSTORE PUSH1 0x84 SWAP1 REVERT JUMPDEST ISZERO PUSH2 0x355D JUMPI JUMP JUMPDEST PUSH1 0x40 MLOAD PUSH3 0x461BCD PUSH1 0xE5 SHL DUP2 MSTORE PUSH1 0x20 PUSH1 0x4 DUP3 ADD MSTORE PUSH1 0xC PUSH1 0x24 DUP3 ADD MSTORE PUSH12 0x3737BA1030B71037BBB732B9 PUSH1 0xA1 SHL PUSH1 0x44 DUP3 ADD MSTORE PUSH1 0x64 SWAP1 REVERT JUMPDEST PUSH1 0x40 MLOAD SWAP1 PUSH2 0x120 DUP3 ADD DUP3 DUP2 LT PUSH8 0xFFFFFFFFFFFFFFFF DUP3 GT OR PUSH2 0x319B JUMPI PUSH1 0x40 MSTORE DUP2 PUSH2 0x100 PUSH1 0x0 SWAP2 DUP3 DUP2 MSTORE DUP3 PUSH1 0x20 DUP3 ADD MSTORE DUP3 PUSH1 0x40 DUP3 ADD MSTORE DUP3 PUSH1 0x60 DUP3 ADD MSTORE DUP3 PUSH1 0x80 DUP3 ADD MSTORE DUP3 PUSH1 0xA0 DUP3 ADD MSTORE DUP3 PUSH1 0xC0 DUP3 ADD MSTORE DUP3 PUSH1 0xE0 DUP3 ADD MSTORE ADD MSTORE JUMP JUMPDEST PUSH2 0x35F0 PUSH2 0x3591 JUMP JUMPDEST POP PUSH2 0x35F9 PUSH2 0x3591 JUMP JUMPDEST SWAP1 PUSH1 0x0 PUSH1 0x40 DUP1 MLOAD PUSH2 0x3609 DUP2 PUSH2 0x317F JUMP JUMPDEST DUP3 DUP2 MSTORE DUP3 PUSH1 0x20 DUP3 ADD MSTORE ADD MSTORE PUSH2 0x361C PUSH2 0x36E5 JUMP JUMPDEST SWAP1 PUSH1 0x64 PUSH2 0x362A DUP4 MLOAD DUP4 PUSH2 0x331E JUMP JUMPDEST DIV SWAP2 PUSH1 0xC0 DUP5 ADD SWAP3 DUP4 MSTORE PUSH2 0x36B8 PUSH2 0x36A3 PUSH2 0x36B1 PUSH1 0x64 PUSH2 0x3663 PUSH1 0x40 DUP3 PUSH2 0x3652 PUSH1 0x20 DUP10 ADD MLOAD DUP11 PUSH2 0x331E JUMP JUMPDEST DIV SWAP7 PUSH1 0xE0 DUP12 ADD SWAP8 DUP9 MSTORE ADD MLOAD DUP8 PUSH2 0x331E JUMP JUMPDEST DIV SWAP5 PUSH2 0x100 DUP9 ADD SWAP6 DUP7 MSTORE PUSH2 0x3686 PUSH2 0x367E PUSH2 0x367E DUP10 MLOAD DUP5 PUSH2 0x3347 JUMP JUMPDEST DUP8 MLOAD SWAP1 PUSH2 0x3347 JUMP JUMPDEST PUSH1 0xA0 DUP10 ADD MSTORE PUSH2 0x36AA PUSH2 0x3699 PUSH2 0x2D97 PUSH2 0x38BA JUMP JUMPDEST DUP1 SWAP5 DUP2 DUP1 SWAP5 PUSH2 0x331E JUMP JUMPDEST SWAP9 MLOAD PUSH2 0x331E JUMP JUMPDEST SWAP5 MLOAD PUSH2 0x331E JUMP JUMPDEST SWAP4 MLOAD PUSH2 0x331E JUMP JUMPDEST SWAP2 PUSH2 0x36CB DUP4 PUSH2 0x28C3 DUP4 PUSH2 0x28C3 DUP7 DUP10 PUSH2 0x3347 JUMP JUMPDEST SWAP3 PUSH1 0x80 DUP7 ADD MSTORE PUSH1 0x60 DUP6 ADD MSTORE PUSH1 0x40 DUP5 ADD MSTORE PUSH1 0x20 DUP4 ADD MSTORE DUP2 MSTORE SWAP1 JUMP JUMPDEST PUSH1 0x40 MLOAD SWAP1 PUSH2 0x36F2 DUP3 PUSH2 0x317F JUMP JUMPDEST PUSH1 0x1C SLOAD DUP3 MSTORE PUSH1 0x1D SLOAD PUSH1 0x20 DUP4 ADD MSTORE PUSH1 0x1E SLOAD PUSH1 0x40 DUP4 ADD MSTORE JUMP JUMPDEST PUSH1 0x40 MLOAD SWAP1 PUSH2 0x3716 DUP3 PUSH2 0x317F JUMP JUMPDEST DUP2 PUSH1 0x1F SLOAD DUP2 MSTORE PUSH1 0x20 SLOAD PUSH1 0x20 DUP3 ADD MSTORE PUSH1 0x40 PUSH1 0x21 SLOAD SWAP2 ADD MSTORE JUMP JUMPDEST SWAP1 SWAP3 PUSH2 0x3738 PUSH2 0x3591 JUMP JUMPDEST SWAP4 ISZERO PUSH2 0x3819 JUMPI PUSH2 0x37CC SWAP3 PUSH1 0x0 PUSH1 0x40 DUP1 MLOAD PUSH2 0x3751 DUP2 PUSH2 0x317F JUMP JUMPDEST DUP3 DUP2 MSTORE DUP3 PUSH1 0x20 DUP3 ADD MSTORE ADD MSTORE DUP1 PUSH2 0x3811 JUMPI JUMPDEST ISZERO PUSH2 0x37D4 JUMPI POP PUSH2 0x37C4 PUSH2 0x3773 PUSH2 0x3709 JUMP JUMPDEST PUSH2 0x37C4 PUSH1 0x64 PUSH2 0x3783 DUP4 MLOAD DUP7 PUSH2 0x331E JUMP JUMPDEST DIV SWAP4 PUSH1 0xC0 DUP8 ADD SWAP5 DUP6 MSTORE PUSH1 0x64 PUSH2 0x37B3 PUSH1 0x40 DUP3 PUSH2 0x37A2 PUSH1 0x20 DUP9 ADD MLOAD DUP7 PUSH2 0x331E JUMP JUMPDEST DIV SWAP6 PUSH1 0xE0 DUP12 ADD SWAP7 DUP8 MSTORE ADD MLOAD DUP4 PUSH2 0x331E JUMP JUMPDEST DIV SWAP5 PUSH2 0x100 DUP9 ADD SWAP6 DUP7 MSTORE MLOAD SWAP1 PUSH2 0x3347 JUMP JUMPDEST SWAP1 MLOAD SWAP1 PUSH2 0x3347 JUMP JUMPDEST PUSH1 0xA0 DUP3 ADD MSTORE SWAP1 JUMP JUMPDEST PUSH2 0x37E8 JUMPI PUSH2 0x37C4 PUSH2 0x37E3 PUSH2 0x36E5 JUMP JUMPDEST PUSH2 0x3773 JUMP JUMPDEST PUSH2 0x37C4 PUSH1 0x40 MLOAD PUSH2 0x37F7 DUP2 PUSH2 0x317F JUMP JUMPDEST PUSH1 0x19 SLOAD DUP2 MSTORE PUSH1 0x1A SLOAD PUSH1 0x20 DUP3 ADD MSTORE PUSH1 0x1B SLOAD PUSH1 0x40 DUP3 ADD MSTORE PUSH2 0x3773 JUMP JUMPDEST POP DUP1 ISZERO PUSH2 0x3762 JUMP JUMPDEST POP PUSH1 0xA0 DUP4 ADD MSTORE POP SWAP1 JUMP JUMPDEST SWAP2 SWAP4 SWAP1 DUP4 PUSH2 0x3830 SWAP2 PUSH2 0x331E JUMP JUMPDEST SWAP4 DUP5 SWAP1 ISZERO PUSH2 0x387D JUMPI POP PUSH2 0x3864 PUSH2 0x384A DUP5 PUSH1 0xC0 DUP6 ADD MLOAD PUSH2 0x331E JUMP JUMPDEST SWAP4 PUSH2 0x100 PUSH2 0x385C DUP3 PUSH1 0xE0 DUP8 ADD MLOAD PUSH2 0x331E JUMP JUMPDEST SWAP5 ADD MLOAD PUSH2 0x331E JUMP JUMPDEST SWAP1 PUSH2 0x3877 DUP3 PUSH2 0x28C3 DUP6 PUSH2 0x28C3 DUP9 DUP11 PUSH2 0x3347 JUMP JUMPDEST SWAP4 SWAP3 SWAP2 SWAP1 JUMP JUMPDEST SWAP3 POP PUSH1 0x0 SWAP2 POP DUP2 SWAP1 DUP2 SWAP1 JUMP JUMPDEST DUP1 MLOAD ISZERO PUSH2 0x3061 JUMPI PUSH1 0x20 ADD SWAP1 JUMP JUMPDEST DUP1 MLOAD PUSH1 0x1 LT ISZERO PUSH2 0x3061 JUMPI PUSH1 0x40 ADD SWAP1 JUMP JUMPDEST DUP1 MLOAD DUP3 LT ISZERO PUSH2 0x3061 JUMPI PUSH1 0x20 SWAP2 PUSH1 0x5 SHL ADD ADD SWAP1 JUMP JUMPDEST PUSH1 0xF SLOAD SWAP1 DUP2 PUSH1 0xE SLOAD SWAP3 DUP4 SWAP1 PUSH1 0x40 SWAP3 DUP4 MLOAD SWAP2 DUP3 SWAP1 PUSH1 0x7 SLOAD SWAP5 DUP6 DUP6 MSTORE PUSH1 0x20 DUP1 SWAP6 ADD SWAP6 DUP4 PUSH1 0x0 SWAP8 PUSH1 0x7 DUP10 MSTORE PUSH32 0xA66CC928B5EDB82AF9BD49922954155AB7B0942694BEA4CE44661D9A8736C688 SWAP3 DUP10 JUMPDEST DUP10 DUP3 DUP3 LT PUSH2 0x39F8 JUMPI POP POP POP PUSH2 0x391D SWAP3 POP SUB DUP5 PUSH2 0x31FE JUMP JUMPDEST DUP6 SWAP9 JUMPDEST DUP4 MLOAD DUP11 LT ISZERO PUSH2 0x39D2 JUMPI PUSH1 0x1 PUSH1 0x1 PUSH1 0xA0 SHL SUB SWAP3 DUP4 PUSH2 0x393D DUP13 DUP8 PUSH2 0x38A6 JUMP JUMPDEST MLOAD AND DUP9 MSTORE DUP8 DUP8 MSTORE DUP1 DUP10 DUP10 KECCAK256 SLOAD GT DUP1 ISZERO PUSH2 0x39B3 JUMPI JUMPDEST PUSH2 0x39A5 JUMPI PUSH2 0x399F SWAP2 PUSH2 0x397C PUSH2 0x3999 SWAP3 DUP7 PUSH2 0x396B DUP16 DUP11 PUSH2 0x38A6 JUMP JUMPDEST MLOAD AND DUP12 MSTORE DUP11 DUP11 MSTORE DUP12 DUP12 KECCAK256 SLOAD SWAP1 PUSH2 0x3347 JUMP JUMPDEST SWAP5 PUSH2 0x3987 DUP14 DUP9 PUSH2 0x38A6 JUMP JUMPDEST MLOAD AND DUP10 MSTORE PUSH1 0x1 DUP9 MSTORE DUP10 DUP10 KECCAK256 SLOAD SWAP1 PUSH2 0x3347 JUMP JUMPDEST SWAP10 PUSH2 0x3354 JUMP JUMPDEST SWAP9 PUSH2 0x3920 JUMP JUMPDEST POP POP SWAP8 POP POP POP SWAP3 POP POP POP SWAP2 SWAP1 JUMP JUMPDEST POP DUP4 PUSH2 0x39BF DUP13 DUP8 PUSH2 0x38A6 JUMP JUMPDEST MLOAD AND DUP9 MSTORE PUSH1 0x1 DUP8 MSTORE DUP2 DUP10 DUP10 KECCAK256 SLOAD GT PUSH2 0x3951 JUMP JUMPDEST SWAP9 POP SWAP5 POP SWAP5 POP POP SWAP1 POP PUSH2 0x39E5 DUP3 DUP3 PUSH2 0x34C6 JUMP JUMPDEST DUP4 LT PUSH2 0x39F1 JUMPI POP POP SWAP2 SWAP1 JUMP JUMPDEST SWAP4 POP SWAP2 SWAP1 POP JUMP JUMPDEST DUP6 SLOAD PUSH1 0x1 PUSH1 0x1 PUSH1 0xA0 SHL SUB AND DUP5 MSTORE PUSH1 0x1 SWAP6 DUP7 ADD SWAP6 DUP10 SWAP6 POP SWAP4 ADD SWAP3 ADD PUSH2 0x3906 JUMP JUMPDEST PUSH1 0x1 PUSH1 0x1 PUSH1 0xA0 SHL SUB SWAP1 DUP2 AND SWAP2 DUP3 ISZERO PUSH2 0x3AC8 JUMPI AND SWAP2 DUP3 ISZERO PUSH2 0x3A78 JUMPI PUSH1 0x20 PUSH32 0x8C5BE1E5EBEC7D5BD14F71427D1E84F3DD0314C0F7B2291E5B200AC8C7C3B925 SWAP2 DUP4 PUSH1 0x0 MSTORE PUSH1 0x2 DUP3 MSTORE PUSH1 0x40 PUSH1 0x0 KECCAK256 DUP6 PUSH1 0x0 MSTORE DUP3 MSTORE DUP1 PUSH1 0x40 PUSH1 0x0 KECCAK256 SSTORE PUSH1 0x40 MLOAD SWAP1 DUP2 MSTORE LOG3 JUMP JUMPDEST PUSH1 0x40 MLOAD PUSH3 0x461BCD PUSH1 0xE5 SHL DUP2 MSTORE PUSH1 0x20 PUSH1 0x4 DUP3 ADD MSTORE PUSH1 0x22 PUSH1 0x24 DUP3 ADD MSTORE PUSH32 0x45524332303A20617070726F766520746F20746865207A65726F206164647265 PUSH1 0x44 DUP3 ADD MSTORE PUSH2 0x7373 PUSH1 0xF0 SHL PUSH1 0x64 DUP3 ADD MSTORE PUSH1 0x84 SWAP1 REVERT JUMPDEST PUSH1 0x40 MLOAD PUSH3 0x461BCD PUSH1 0xE5 SHL DUP2 MSTORE PUSH1 0x20 PUSH1 0x4 DUP3 ADD MSTORE PUSH1 0x24 DUP1 DUP3 ADD MSTORE PUSH32 0x45524332303A20617070726F76652066726F6D20746865207A65726F20616464 PUSH1 0x44 DUP3 ADD MSTORE PUSH4 0x72657373 PUSH1 0xE0 SHL PUSH1 0x64 DUP3 ADD MSTORE PUSH1 0x84 SWAP1 REVERT JUMPDEST ISZERO PUSH2 0x3B20 JUMPI JUMP JUMPDEST PUSH1 0x64 PUSH1 0x40 MLOAD PUSH3 0x461BCD PUSH1 0xE5 SHL DUP2 MSTORE PUSH1 0x20 PUSH1 0x4 DUP3 ADD MSTORE PUSH1 0x20 PUSH1 0x24 DUP3 ADD MSTORE PUSH32 0x596F752061726520657863656564696E67206D617857616C6C65744C696D6974 PUSH1 0x44 DUP3 ADD MSTORE REVERT JUMPDEST SWAP2 PUSH1 0x1 PUSH1 0x1 PUSH1 0xA0 SHL SUB DUP4 AND SWAP2 PUSH1 0x0 DUP4 ISZERO PUSH2 0x48AE JUMPI PUSH1 0x1 PUSH1 0x1 PUSH1 0xA0 SHL SUB DUP3 AND SWAP5 DUP6 ISZERO PUSH2 0x485D JUMPI DUP4 ISZERO PUSH2 0x4806 JUMPI PUSH2 0x3B98 SWAP1 PUSH2 0x3406 JUMP JUMPDEST DUP4 GT PUSH2 0x47A7 JUMPI DUP4 DUP2 MSTORE PUSH1 0x6 PUSH1 0x20 MSTORE PUSH1 0xFF SWAP2 DUP3 PUSH1 0x40 DUP4 KECCAK256 SLOAD AND ISZERO DUP1 PUSH2 0x4796 JUMPI JUMPDEST ISZERO PUSH2 0x4761 JUMPI PUSH2 0x3BEC PUSH1 0x64 PUSH2 0x3BE5 PUSH2 0x3BDF PUSH2 0x3BD6 PUSH1 0x1C SLOAD PUSH1 0x1D SLOAD SWAP1 PUSH2 0x3449 JUMP JUMPDEST PUSH1 0x1E SLOAD SWAP1 PUSH2 0x3449 JUMP JUMPDEST DUP8 PUSH2 0x331E JUMP JUMPDEST DIV DUP6 PUSH2 0x3347 JUMP JUMPDEST PUSH1 0xD SLOAD SWAP1 SWAP2 SWAP1 PUSH1 0x1 PUSH1 0x1 PUSH1 0xA0 SHL SUB AND DUP7 DUP2 EQ DUP1 DUP1 PUSH2 0x474B JUMPI JUMPDEST DUP1 PUSH2 0x473C JUMPI JUMPDEST PUSH2 0x46D9 JUMPI JUMPDEST ISZERO DUP1 PUSH2 0x46C3 JUMPI JUMPDEST DUP1 PUSH2 0x46AD JUMPI JUMPDEST DUP1 PUSH2 0x469E JUMPI JUMPDEST PUSH2 0x45A6 JUMPI JUMPDEST POP POP POP PUSH2 0x3C34 ADDRESS PUSH2 0x3406 JUMP JUMPDEST PUSH1 0x10 SLOAD SWAP1 PUSH1 0x8 SLOAD SWAP1 DUP3 DUP6 DUP4 PUSH1 0x10 SHR AND ISZERO SWAP2 DUP3 PUSH2 0x4598 JUMPI JUMPDEST DUP3 PUSH2 0x458D JUMPI JUMPDEST POP POP DUP1 PUSH2 0x4578 JUMPI JUMPDEST DUP1 PUSH2 0x4562 JUMPI JUMPDEST DUP1 PUSH2 0x454C JUMPI JUMPDEST PUSH2 0x3FA5 JUMPI JUMPDEST POP POP PUSH1 0x0 DUP1 MLOAD PUSH1 0x20 PUSH2 0x4BF3 DUP4 CODECOPY DUP2 MLOAD SWAP2 MSTORE SWAP3 PUSH1 0x20 SWAP3 PUSH1 0xA0 SWAP3 PUSH1 0x1 SWAP3 DUP2 DUP4 PUSH1 0x8 SLOAD PUSH1 0x10 SHR AND DUP1 ISZERO PUSH2 0x3F91 JUMPI JUMPDEST DUP1 ISZERO PUSH2 0x3F7D JUMPI JUMPDEST PUSH2 0x3F74 JUMPI JUMPDEST PUSH1 0x1 DUP1 DUP8 SHL SUB PUSH1 0xD SLOAD AND DUP11 EQ PUSH2 0x3F6C JUMPI JUMPDEST PUSH2 0x3CFC PUSH2 0x3CE8 PUSH2 0x3D78 SWAP3 DUP12 DUP7 MSTORE PUSH1 0x3 DUP11 MSTORE DUP7 PUSH1 0x40 DUP8 KECCAK256 SLOAD AND ISZERO SWAP1 DUP2 PUSH2 0x3F5A JUMPI JUMPDEST DUP2 PUSH2 0x3F40 JUMPI JUMPDEST PUSH2 0x3CE0 PUSH2 0x3591 JUMP JUMPDEST POP DUP9 DUP7 PUSH2 0x372E JUMP JUMPDEST SWAP6 PUSH2 0x3CF4 PUSH2 0x2D97 PUSH2 0x38BA JUMP JUMPDEST SWAP1 DUP5 DUP9 PUSH2 0x3823 JUMP JUMPDEST SWAP5 SWAP3 SWAP2 SWAP4 DUP12 DUP11 SWAP8 SWAP3 SWAP8 ADD SWAP3 PUSH1 0x40 DUP12 ADD SWAP6 PUSH1 0x60 DUP13 ADD SWAP9 PUSH1 0x80 DUP14 ADD SWAP9 DUP10 MSTORE DUP10 MSTORE DUP7 MSTORE DUP4 MSTORE DUP10 MSTORE DUP13 DUP8 MSTORE PUSH1 0x4 DUP12 MSTORE DUP8 PUSH1 0x40 DUP9 KECCAK256 SLOAD AND PUSH2 0x3F1C JUMPI JUMPDEST POP DUP13 DUP7 MSTORE PUSH1 0x4 DUP11 MSTORE DUP7 PUSH1 0x40 DUP8 KECCAK256 SLOAD AND PUSH2 0x3EF5 JUMPI JUMPDEST DUP12 DUP7 MSTORE DUP6 DUP11 MSTORE PUSH2 0x3D5D PUSH1 0x40 DUP8 KECCAK256 SLOAD DUP10 MLOAD SWAP1 PUSH2 0x3347 JUMP JUMPDEST DUP13 DUP8 MSTORE DUP7 DUP12 MSTORE PUSH1 0x40 DUP8 KECCAK256 SSTORE DUP13 DUP7 MSTORE PUSH1 0x40 DUP7 KECCAK256 SLOAD SWAP1 MLOAD SWAP1 PUSH2 0x3449 JUMP JUMPDEST DUP12 DUP6 MSTORE DUP5 DUP10 MSTORE PUSH1 0x40 DUP6 KECCAK256 SSTORE MLOAD DUP1 ISZERO DUP1 ISZERO SWAP1 PUSH2 0x3EE8 JUMPI JUMPDEST PUSH2 0x3EBF JUMPI JUMPDEST POP MLOAD DUP1 ISZERO DUP1 ISZERO SWAP1 PUSH2 0x3EB1 JUMPI JUMPDEST PUSH2 0x3E32 JUMPI JUMPDEST POP MLOAD SWAP2 DUP3 ISZERO DUP1 ISZERO SWAP1 PUSH2 0x3E25 JUMPI JUMPDEST PUSH2 0x3DC4 JUMPI JUMPDEST POP POP POP ADD MLOAD PUSH1 0x40 MLOAD SWAP1 DUP2 MSTORE LOG3 JUMP JUMPDEST PUSH2 0x3E01 SWAP2 PUSH1 0x40 SWAP2 PUSH1 0xE0 DUP7 ADD MLOAD SWAP1 PUSH2 0x3DDD DUP3 PUSH1 0x23 SLOAD PUSH2 0x3449 JUMP JUMPDEST PUSH1 0x23 SSTORE ADDRESS DUP4 MSTORE PUSH1 0x4 DUP10 MSTORE DUP4 DUP4 KECCAK256 SLOAD AND PUSH2 0x3E0B JUMPI JUMPDEST POP ADDRESS DUP2 MSTORE DUP1 DUP8 MSTORE KECCAK256 SWAP2 DUP3 SLOAD PUSH2 0x3449 JUMP JUMPDEST SWAP1 SSTORE CODESIZE DUP1 DUP1 PUSH2 0x3DB6 JUMP JUMPDEST PUSH1 0x1 DUP9 MSTORE PUSH2 0x3E1D DUP4 DUP4 KECCAK256 SWAP2 DUP3 SLOAD PUSH2 0x3449 JUMP JUMPDEST SWAP1 SSTORE CODESIZE PUSH2 0x3DF1 JUMP JUMPDEST POP PUSH1 0xE0 DUP5 ADD MLOAD ISZERO ISZERO PUSH2 0x3DB1 JUMP JUMPDEST PUSH2 0x3E84 SWAP1 PUSH2 0x100 DUP7 ADD SWAP1 DUP2 MLOAD PUSH2 0x3E4A DUP2 PUSH1 0x24 SLOAD PUSH2 0x3449 JUMP JUMPDEST PUSH1 0x24 SSTORE ADDRESS DUP7 MSTORE PUSH1 0x4 DUP11 MSTORE DUP7 PUSH1 0x40 DUP8 KECCAK256 SLOAD AND PUSH2 0x3E96 JUMPI JUMPDEST POP ADDRESS DUP6 MSTORE DUP5 DUP10 MSTORE PUSH2 0x3E76 PUSH1 0x40 DUP7 KECCAK256 SWAP2 DUP3 SLOAD PUSH2 0x3449 JUMP JUMPDEST SWAP1 SSTORE MLOAD PUSH1 0xE0 DUP7 ADD MLOAD SWAP1 PUSH2 0x3449 JUMP JUMPDEST PUSH1 0x40 MLOAD SWAP1 DUP2 MSTORE DUP9 DUP9 DUP9 ADDRESS SWAP4 LOG3 CODESIZE PUSH2 0x3DA4 JUMP JUMPDEST PUSH1 0x1 DUP11 MSTORE PUSH2 0x3EA9 PUSH1 0x40 DUP8 KECCAK256 SWAP2 DUP3 SLOAD PUSH2 0x3449 JUMP JUMPDEST SWAP1 SSTORE CODESIZE PUSH2 0x3E60 JUMP JUMPDEST POP PUSH2 0x100 DUP6 ADD MLOAD ISZERO ISZERO PUSH2 0x3D9F JUMP JUMPDEST PUSH2 0x3EDF SWAP1 PUSH2 0x3ED4 PUSH1 0xC0 DUP9 ADD MLOAD SWAP2 PUSH1 0xF SLOAD PUSH2 0x3347 JUMP JUMPDEST PUSH1 0xF SSTORE PUSH1 0x22 SLOAD PUSH2 0x3449 JUMP JUMPDEST PUSH1 0x22 SSTORE CODESIZE PUSH2 0x3D93 JUMP JUMPDEST POP PUSH1 0xC0 DUP7 ADD MLOAD ISZERO ISZERO PUSH2 0x3D8E JUMP JUMPDEST PUSH1 0x1 DUP11 MSTORE PUSH2 0x3F0B PUSH1 0x40 DUP8 KECCAK256 SLOAD DUP11 DUP11 ADD MLOAD SWAP1 PUSH2 0x3449 JUMP JUMPDEST DUP14 DUP8 MSTORE PUSH1 0x1 DUP12 MSTORE PUSH1 0x40 DUP8 KECCAK256 SSTORE PUSH2 0x3D47 JUMP JUMPDEST PUSH2 0x3F2E SWAP1 PUSH1 0x1 DUP13 MSTORE PUSH1 0x40 DUP9 KECCAK256 SLOAD PUSH2 0x3347 JUMP JUMPDEST DUP13 DUP8 MSTORE PUSH1 0x1 DUP12 MSTORE PUSH1 0x40 DUP8 KECCAK256 SSTORE CODESIZE PUSH2 0x3D33 JUMP JUMPDEST SWAP1 POP PUSH2 0x3F51 PUSH1 0x14 SLOAD PUSH1 0x15 SLOAD SWAP1 PUSH2 0x3449 JUMP JUMPDEST NUMBER GT ISZERO SWAP1 PUSH2 0x3CD8 JUMP JUMPDEST DUP14 DUP8 MSTORE PUSH1 0x40 DUP8 KECCAK256 SLOAD DUP9 AND ISZERO SWAP2 POP PUSH2 0x3CD2 JUMP JUMPDEST POP PUSH1 0x1 PUSH2 0x3CB2 JUMP JUMPDEST SWAP4 POP DUP2 SWAP4 PUSH2 0x3CA1 JUMP JUMPDEST POP DUP10 DUP4 MSTORE PUSH1 0x3 DUP8 MSTORE DUP4 PUSH1 0x40 DUP5 KECCAK256 SLOAD AND PUSH2 0x3C9C JUMP JUMPDEST POP DUP9 DUP4 MSTORE PUSH1 0x3 DUP8 MSTORE DUP4 PUSH1 0x40 DUP5 KECCAK256 SLOAD AND PUSH2 0x3C95 JUMP JUMPDEST PUSH1 0xD SLOAD PUSH1 0x1 PUSH1 0x1 PUSH1 0xA0 SHL SUB AND DUP8 SUB PUSH2 0x4307 JUMPI POP POP PUSH1 0x10 SLOAD PUSH2 0x3FC4 PUSH2 0x3709 JUMP JUMPDEST PUSH3 0x10000 PUSH3 0xFF0000 NOT PUSH1 0x8 SLOAD AND OR PUSH1 0x8 SSTORE PUSH2 0x3FE8 PUSH1 0x40 DUP3 ADD MLOAD PUSH1 0x20 DUP4 ADD MLOAD SWAP1 PUSH2 0x3449 JUMP JUMPDEST SWAP2 DUP3 DUP1 PUSH1 0x1 SHL DIV PUSH1 0x2 EQ DUP4 ISZERO OR ISZERO PUSH2 0x42F3 JUMPI PUSH2 0x401E PUSH2 0x4017 DUP5 PUSH1 0x1 SHL PUSH2 0x4012 PUSH1 0x40 DUP7 ADD MLOAD DUP6 PUSH2 0x331E JUMP JUMPDEST PUSH2 0x34C6 JUMP JUMPDEST DUP1 SWAP3 PUSH2 0x3347 JUMP JUMPDEST PUSH1 0x40 MLOAD SELFBALANCE SWAP2 PUSH2 0x402C DUP3 PUSH2 0x317F JUMP JUMPDEST PUSH1 0x2 DUP3 MSTORE PUSH1 0x40 CALLDATASIZE PUSH1 0x20 DUP5 ADD CALLDATACOPY ADDRESS PUSH2 0x4042 DUP4 PUSH2 0x3889 JUMP JUMPDEST MSTORE PUSH1 0xC SLOAD PUSH1 0x40 MLOAD PUSH4 0x15AB88C9 PUSH1 0xE3 SHL DUP2 MSTORE PUSH1 0x1 PUSH1 0x1 PUSH1 0xA0 SHL SUB SWAP1 SWAP2 AND SWAP1 PUSH1 0x20 DUP2 PUSH1 0x4 DUP2 DUP6 GAS STATICCALL SWAP1 DUP2 ISZERO PUSH2 0x42E8 JUMPI SWAP2 DUP4 SWAP2 PUSH2 0x409A SWAP4 DUP12 SWAP2 PUSH2 0x42C9 JUMPI JUMPDEST POP PUSH2 0x4087 DUP7 PUSH2 0x3896 JUMP JUMPDEST PUSH1 0x1 PUSH1 0x1 PUSH1 0xA0 SHL SUB SWAP1 SWAP2 AND SWAP1 MSTORE ADDRESS PUSH2 0x3A17 JUMP JUMPDEST PUSH1 0xC SLOAD PUSH1 0x1 PUSH1 0x1 PUSH1 0xA0 SHL SUB AND SWAP1 DUP2 EXTCODESIZE ISZERO PUSH2 0x42C5 JUMPI SWAP2 DUP8 SWAP2 PUSH2 0x40E5 SWAP4 DUP4 PUSH1 0x40 MLOAD DUP1 SWAP7 DUP2 SWAP6 DUP3 SWAP5 PUSH4 0x791AC947 PUSH1 0xE0 SHL DUP5 MSTORE PUSH1 0x4 DUP5 ADD MSTORE DUP4 PUSH1 0x24 DUP5 ADD MSTORE PUSH1 0xA0 PUSH1 0x44 DUP5 ADD MSTORE PUSH1 0xA4 DUP4 ADD SWAP1 PUSH2 0x4A1C JUMP JUMPDEST ADDRESS PUSH1 0x64 DUP4 ADD MSTORE TIMESTAMP PUSH1 0x84 DUP4 ADD MSTORE SUB SWAP3 GAS CALL DUP1 ISZERO PUSH2 0x42BA JUMPI SWAP1 DUP7 SWAP4 SWAP3 SWAP2 PUSH2 0x429C JUMPI JUMPDEST POP PUSH2 0x4113 PUSH2 0x414F SWAP2 SELFBALANCE PUSH2 0x3347 JUMP JUMPDEST SWAP5 PUSH2 0x2D97 PUSH2 0x4140 PUSH2 0x4134 PUSH2 0x412E PUSH1 0x40 DUP10 ADD MLOAD DUP6 PUSH1 0x1 SHL PUSH2 0x3347 JUMP JUMPDEST DUP10 PUSH2 0x34C6 JUMP JUMPDEST SWAP8 PUSH1 0x40 DUP9 ADD MLOAD SWAP1 PUSH2 0x331E JUMP JUMPDEST SWAP2 PUSH1 0x40 DUP8 ADD MLOAD SWAP1 PUSH1 0x1 SHL PUSH2 0x3347 JUMP JUMPDEST DUP1 PUSH2 0x41DB JUMPI JUMPDEST POP POP POP DUP2 PUSH1 0x1 SHL SWAP2 DUP1 DUP4 DIV PUSH1 0x2 EQ SWAP1 ISZERO OR ISZERO PUSH2 0x41C7 JUMPI SWAP3 PUSH1 0xA0 SWAP3 PUSH2 0x418F PUSH1 0x0 DUP1 MLOAD PUSH1 0x20 PUSH2 0x4BF3 DUP4 CODECOPY DUP2 MLOAD SWAP2 MSTORE SWAP7 SWAP4 PUSH1 0x20 DUP1 SWAP8 ADD MLOAD SWAP1 PUSH2 0x331E JUMP JUMPDEST DUP1 PUSH2 0x41AE JUMPI JUMPDEST POP PUSH3 0xFF0000 NOT PUSH1 0x8 SLOAD AND PUSH1 0x8 SSTORE JUMPDEST SWAP3 POP SWAP3 DUP2 SWAP5 POP PUSH2 0x3C6A JUMP JUMPDEST PUSH2 0x41C1 SWAP1 PUSH1 0x1 DUP1 DUP8 SHL SUB PUSH1 0x17 SLOAD AND PUSH2 0x4941 JUMP JUMPDEST CODESIZE PUSH2 0x4195 JUMP JUMPDEST PUSH4 0x4E487B71 PUSH1 0xE0 SHL DUP4 MSTORE PUSH1 0x11 PUSH1 0x4 MSTORE PUSH1 0x24 DUP4 REVERT JUMPDEST PUSH1 0xC SLOAD DUP4 SWAP3 SWAP1 PUSH2 0x41F6 SWAP1 DUP3 SWAP1 PUSH1 0x1 PUSH1 0x1 PUSH1 0xA0 SHL SUB AND ADDRESS PUSH2 0x3A17 JUMP JUMPDEST PUSH1 0x1 DUP1 PUSH1 0xA0 SHL SUB PUSH1 0xC SLOAD AND SWAP2 PUSH1 0x40 MLOAD PUSH1 0x20 DUP2 ADD SWAP3 PUSH4 0xF305D719 PUSH1 0xE0 SHL DUP5 MSTORE ADDRESS PUSH1 0x24 DUP4 ADD MSTORE PUSH1 0x44 DUP3 ADD MSTORE PUSH1 0xA PUSH1 0x64 DUP3 ADD MSTORE PUSH1 0xA PUSH1 0x84 DUP3 ADD MSTORE ADDRESS PUSH1 0xA4 DUP3 ADD MSTORE TIMESTAMP PUSH1 0xC4 DUP3 ADD MSTORE PUSH1 0xC4 DUP2 MSTORE PUSH2 0x4246 DUP2 PUSH2 0x31E1 JUMP JUMPDEST MLOAD SWAP3 GAS CALL PUSH2 0x4252 PUSH2 0x4901 JUMP JUMPDEST POP ISZERO PUSH2 0x4260 JUMPI DUP3 CODESIZE DUP1 PUSH2 0x4155 JUMP JUMPDEST PUSH1 0x40 MLOAD PUSH3 0x461BCD PUSH1 0xE5 SHL DUP2 MSTORE PUSH1 0x20 PUSH1 0x4 DUP3 ADD MSTORE PUSH1 0x14 PUSH1 0x24 DUP3 ADD MSTORE PUSH20 0x105919081B1A5C5D5A591A5D1E4819985A5B1959 PUSH1 0x62 SHL PUSH1 0x44 DUP3 ADD MSTORE PUSH1 0x64 SWAP1 REVERT JUMPDEST PUSH2 0x42A9 SWAP1 SWAP4 SWAP2 SWAP3 SWAP4 PUSH2 0x31B1 JUMP JUMPDEST PUSH2 0x42B6 JUMPI SWAP1 DUP5 SWAP2 CODESIZE PUSH2 0x4105 JUMP JUMPDEST DUP5 DUP1 REVERT JUMPDEST PUSH1 0x40 MLOAD RETURNDATASIZE DUP9 DUP3 RETURNDATACOPY RETURNDATASIZE SWAP1 REVERT JUMPDEST DUP8 DUP1 REVERT JUMPDEST PUSH2 0x42E2 SWAP2 POP PUSH1 0x20 RETURNDATASIZE PUSH1 0x20 GT PUSH2 0xFBD JUMPI PUSH2 0xFAF DUP2 DUP4 PUSH2 0x31FE JUMP JUMPDEST CODESIZE PUSH2 0x407D JUMP JUMPDEST PUSH1 0x40 MLOAD RETURNDATASIZE DUP12 DUP3 RETURNDATACOPY RETURNDATASIZE SWAP1 REVERT JUMPDEST PUSH4 0x4E487B71 PUSH1 0xE0 SHL DUP5 MSTORE PUSH1 0x11 PUSH1 0x4 MSTORE PUSH1 0x24 DUP5 REVERT JUMPDEST PUSH3 0x10000 PUSH2 0x4313 PUSH2 0x36E5 JUMP JUMPDEST SWAP2 PUSH3 0xFF0000 NOT AND OR PUSH1 0x8 SSTORE PUSH2 0x4331 PUSH1 0x40 DUP3 ADD MLOAD PUSH1 0x20 DUP4 ADD MLOAD SWAP1 PUSH2 0x3449 JUMP JUMPDEST SWAP2 DUP3 DUP1 PUSH1 0x1 SHL DIV PUSH1 0x2 EQ DUP4 ISZERO OR ISZERO PUSH2 0x42F3 JUMPI PUSH2 0x435B PUSH2 0x4017 DUP5 PUSH1 0x1 SHL PUSH2 0x4012 PUSH1 0x40 DUP7 ADD MLOAD DUP6 PUSH2 0x331E JUMP JUMPDEST PUSH1 0x40 MLOAD SELFBALANCE SWAP2 PUSH2 0x4369 DUP3 PUSH2 0x317F JUMP JUMPDEST PUSH1 0x2 DUP3 MSTORE PUSH1 0x40 CALLDATASIZE PUSH1 0x20 DUP5 ADD CALLDATACOPY ADDRESS PUSH2 0x437F DUP4 PUSH2 0x3889 JUMP JUMPDEST MSTORE PUSH1 0xC SLOAD PUSH1 0x40 MLOAD PUSH4 0x15AB88C9 PUSH1 0xE3 SHL DUP2 MSTORE PUSH1 0x1 PUSH1 0x1 PUSH1 0xA0 SHL SUB SWAP1 SWAP2 AND SWAP1 PUSH1 0x20 DUP2 PUSH1 0x4 DUP2 DUP6 GAS STATICCALL SWAP1 DUP2 ISZERO PUSH2 0x42E8 JUMPI SWAP2 DUP4 SWAP2 PUSH2 0x43C3 SWAP4 DUP12 SWAP2 PUSH2 0x42C9 JUMPI POP PUSH2 0x4087 DUP7 PUSH2 0x3896 JUMP JUMPDEST PUSH1 0xC SLOAD PUSH1 0x1 PUSH1 0x1 PUSH1 0xA0 SHL SUB AND SWAP1 DUP2 EXTCODESIZE ISZERO PUSH2 0x42C5 JUMPI SWAP2 DUP8 SWAP2 PUSH2 0x440E SWAP4 DUP4 PUSH1 0x40 MLOAD DUP1 SWAP7 DUP2 SWAP6 DUP3 SWAP5 PUSH4 0x791AC947 PUSH1 0xE0 SHL DUP5 MSTORE PUSH1 0x4 DUP5 ADD MSTORE DUP4 PUSH1 0x24 DUP5 ADD MSTORE PUSH1 0xA0 PUSH1 0x44 DUP5 ADD MSTORE PUSH1 0xA4 DUP4 ADD SWAP1 PUSH2 0x4A1C JUMP JUMPDEST ADDRESS PUSH1 0x64 DUP4 ADD MSTORE TIMESTAMP PUSH1 0x84 DUP4 ADD MSTORE SUB SWAP3 GAS CALL DUP1 ISZERO PUSH2 0x42BA JUMPI PUSH2 0x452F JUMPI JUMPDEST POP SWAP1 PUSH2 0x4439 PUSH2 0x4113 DUP7 SWAP4 SELFBALANCE PUSH2 0x3347 JUMP JUMPDEST DUP1 PUSH2 0x44AA JUMPI JUMPDEST POP POP POP DUP2 PUSH1 0x1 SHL SWAP2 DUP1 DUP4 DIV PUSH1 0x2 EQ SWAP1 ISZERO OR ISZERO PUSH2 0x41C7 JUMPI SWAP3 PUSH1 0xA0 SWAP3 PUSH2 0x4479 PUSH1 0x0 DUP1 MLOAD PUSH1 0x20 PUSH2 0x4BF3 DUP4 CODECOPY DUP2 MLOAD SWAP2 MSTORE SWAP7 SWAP4 PUSH1 0x20 DUP1 SWAP8 ADD MLOAD SWAP1 PUSH2 0x331E JUMP JUMPDEST DUP1 PUSH2 0x4491 JUMPI JUMPDEST POP PUSH3 0xFF0000 NOT PUSH1 0x8 SLOAD AND PUSH1 0x8 SSTORE PUSH2 0x41A3 JUMP JUMPDEST PUSH2 0x44A4 SWAP1 PUSH1 0x1 DUP1 DUP8 SHL SUB PUSH1 0x17 SLOAD AND PUSH2 0x4941 JUMP JUMPDEST CODESIZE PUSH2 0x447F JUMP JUMPDEST PUSH1 0xC SLOAD DUP4 SWAP3 SWAP1 PUSH2 0x44C5 SWAP1 DUP3 SWAP1 PUSH1 0x1 PUSH1 0x1 PUSH1 0xA0 SHL SUB AND ADDRESS PUSH2 0x3A17 JUMP JUMPDEST PUSH1 0x1 DUP1 PUSH1 0xA0 SHL SUB PUSH1 0xC SLOAD AND SWAP2 PUSH1 0x40 MLOAD PUSH1 0x20 DUP2 ADD SWAP3 PUSH4 0xF305D719 PUSH1 0xE0 SHL DUP5 MSTORE ADDRESS PUSH1 0x24 DUP4 ADD MSTORE PUSH1 0x44 DUP3 ADD MSTORE PUSH1 0xA PUSH1 0x64 DUP3 ADD MSTORE PUSH1 0xA PUSH1 0x84 DUP3 ADD MSTORE ADDRESS PUSH1 0xA4 DUP3 ADD MSTORE TIMESTAMP PUSH1 0xC4 DUP3 ADD MSTORE PUSH1 0xC4 DUP2 MSTORE PUSH2 0x4515 DUP2 PUSH2 0x31E1 JUMP JUMPDEST MLOAD SWAP3 GAS CALL PUSH2 0x4521 PUSH2 0x4901 JUMP JUMPDEST POP ISZERO PUSH2 0x4260 JUMPI DUP3 CODESIZE DUP1 PUSH2 0x443F JUMP JUMPDEST PUSH2 0x4113 SWAP6 PUSH2 0x4542 PUSH2 0x4439 SWAP3 SWAP5 SWAP4 SWAP5 PUSH2 0x31B1 JUMP JUMPDEST SWAP6 POP SWAP2 SWAP1 SWAP2 PUSH2 0x4429 JUMP JUMPDEST POP DUP7 DUP4 MSTORE PUSH1 0x3 PUSH1 0x20 MSTORE DUP4 PUSH1 0x40 DUP5 KECCAK256 SLOAD AND ISZERO PUSH2 0x3C65 JUMP JUMPDEST POP DUP6 DUP4 MSTORE PUSH1 0x3 PUSH1 0x20 MSTORE DUP4 PUSH1 0x40 DUP5 KECCAK256 SLOAD AND ISZERO PUSH2 0x3C5F JUMP JUMPDEST POP PUSH1 0xD SLOAD PUSH1 0x1 PUSH1 0x1 PUSH1 0xA0 SHL SUB AND DUP7 EQ ISZERO PUSH2 0x3C59 JUMP JUMPDEST LT ISZERO SWAP1 POP DUP3 CODESIZE PUSH2 0x3C51 JUMP JUMPDEST SWAP2 POP DUP6 DUP4 PUSH1 0x8 SHR AND SWAP2 PUSH2 0x3C4B JUMP JUMPDEST PUSH1 0x12 SLOAD DUP7 GT PUSH2 0x4659 JUMPI DUP8 SUB PUSH2 0x4633 JUMPI JUMPDEST POP POP DUP2 PUSH1 0xA SLOAD AND PUSH2 0x45CA JUMPI JUMPDEST CODESIZE DUP1 DUP1 PUSH2 0x3C28 JUMP JUMPDEST DUP4 DUP2 MSTORE PUSH1 0x2B PUSH1 0x20 MSTORE PUSH2 0x45E0 PUSH1 0x40 DUP3 KECCAK256 SLOAD TIMESTAMP PUSH2 0x3347 JUMP JUMPDEST PUSH1 0xB SLOAD GT PUSH2 0x45FB JUMPI DUP4 DUP2 MSTORE PUSH1 0x2B PUSH1 0x20 MSTORE TIMESTAMP PUSH1 0x40 DUP3 KECCAK256 SSTORE PUSH2 0x45C2 JUMP JUMPDEST PUSH1 0x40 MLOAD PUSH3 0x461BCD PUSH1 0xE5 SHL DUP2 MSTORE PUSH1 0x20 PUSH1 0x4 DUP3 ADD MSTORE PUSH1 0x10 PUSH1 0x24 DUP3 ADD MSTORE PUSH16 0x10DBDBDB191BDDDB88195B98589B1959 PUSH1 0x82 SHL PUSH1 0x44 DUP3 ADD MSTORE PUSH1 0x64 SWAP1 REVERT JUMPDEST PUSH2 0x4652 SWAP2 PUSH2 0x4643 PUSH2 0x4648 SWAP3 PUSH2 0x3406 JUMP JUMPDEST PUSH2 0x3449 JUMP JUMPDEST PUSH1 0x13 SLOAD LT ISZERO PUSH2 0x3B19 JUMP JUMPDEST CODESIZE DUP1 PUSH2 0x45B6 JUMP JUMPDEST PUSH1 0x40 MLOAD PUSH3 0x461BCD PUSH1 0xE5 SHL DUP2 MSTORE PUSH1 0x20 PUSH1 0x4 DUP3 ADD MSTORE PUSH1 0x1E PUSH1 0x24 DUP3 ADD MSTORE PUSH32 0x596F752061726520657863656564696E67206D617853656C6C4C696D69740000 PUSH1 0x44 DUP3 ADD MSTORE PUSH1 0x64 SWAP1 REVERT JUMPDEST POP DUP5 PUSH1 0x8 SLOAD PUSH1 0x10 SHR AND ISZERO PUSH2 0x3C23 JUMP JUMPDEST POP DUP7 DUP5 MSTORE PUSH1 0x3 PUSH1 0x20 MSTORE DUP5 PUSH1 0x40 DUP6 KECCAK256 SLOAD AND ISZERO PUSH2 0x3C1D JUMP JUMPDEST POP DUP8 DUP5 MSTORE PUSH1 0x3 PUSH1 0x20 MSTORE DUP5 PUSH1 0x40 DUP6 KECCAK256 SLOAD AND ISZERO PUSH2 0x3C17 JUMP JUMPDEST PUSH1 0x11 SLOAD DUP8 GT PUSH2 0x46F7 JUMPI PUSH2 0x46F2 PUSH2 0x4648 DUP6 PUSH2 0x4643 DUP7 PUSH2 0x3406 JUMP JUMPDEST PUSH2 0x3C10 JUMP JUMPDEST PUSH1 0x40 MLOAD PUSH3 0x461BCD PUSH1 0xE5 SHL DUP2 MSTORE PUSH1 0x20 PUSH1 0x4 DUP3 ADD MSTORE PUSH1 0x1D PUSH1 0x24 DUP3 ADD MSTORE PUSH32 0x596F752061726520657863656564696E67206D61784275794C696D6974000000 PUSH1 0x44 DUP3 ADD MSTORE PUSH1 0x64 SWAP1 REVERT JUMPDEST POP DUP6 PUSH1 0x8 SLOAD PUSH1 0x10 SHR AND ISZERO PUSH2 0x3C0B JUMP JUMPDEST POP DUP9 DUP6 MSTORE PUSH1 0x3 PUSH1 0x20 MSTORE DUP6 PUSH1 0x40 DUP7 KECCAK256 SLOAD AND ISZERO PUSH2 0x3C05 JUMP JUMPDEST PUSH1 0x40 MLOAD PUSH3 0x461BCD PUSH1 0xE5 SHL DUP2 MSTORE PUSH1 0x20 PUSH1 0x4 DUP3 ADD MSTORE PUSH1 0xD PUSH1 0x24 DUP3 ADD MSTORE PUSH13 0x165BDD48185C99481848189BDD PUSH1 0x9A SHL PUSH1 0x44 DUP3 ADD MSTORE PUSH1 0x64 SWAP1 REVERT JUMPDEST POP DUP6 DUP3 MSTORE DUP3 PUSH1 0x40 DUP4 KECCAK256 SLOAD AND ISZERO PUSH2 0x3BB7 JUMP JUMPDEST PUSH1 0x40 MLOAD PUSH3 0x461BCD PUSH1 0xE5 SHL DUP2 MSTORE PUSH1 0x20 PUSH1 0x4 DUP3 ADD MSTORE PUSH1 0x31 PUSH1 0x24 DUP3 ADD MSTORE PUSH32 0x596F752061726520747279696E6720746F207472616E73666572206D6F726520 PUSH1 0x44 DUP3 ADD MSTORE PUSH17 0x7468616E20796F75722062616C616E6365 PUSH1 0x78 SHL PUSH1 0x64 DUP3 ADD MSTORE PUSH1 0x84 SWAP1 REVERT JUMPDEST PUSH1 0x40 MLOAD PUSH3 0x461BCD PUSH1 0xE5 SHL DUP2 MSTORE PUSH1 0x20 PUSH1 0x4 DUP3 ADD MSTORE PUSH1 0x29 PUSH1 0x24 DUP3 ADD MSTORE PUSH32 0x5472616E7366657220616D6F756E74206D757374206265206772656174657220 PUSH1 0x44 DUP3 ADD MSTORE PUSH9 0x7468616E207A65726F PUSH1 0xB8 SHL PUSH1 0x64 DUP3 ADD MSTORE PUSH1 0x84 SWAP1 REVERT JUMPDEST PUSH1 0x40 MLOAD PUSH3 0x461BCD PUSH1 0xE5 SHL DUP2 MSTORE PUSH1 0x20 PUSH1 0x4 DUP3 ADD MSTORE PUSH1 0x23 PUSH1 0x24 DUP3 ADD MSTORE PUSH32 0x45524332303A207472616E7366657220746F20746865207A65726F2061646472 PUSH1 0x44 DUP3 ADD MSTORE PUSH3 0x657373 PUSH1 0xE8 SHL PUSH1 0x64 DUP3 ADD MSTORE PUSH1 0x84 SWAP1 REVERT JUMPDEST PUSH1 0x40 MLOAD PUSH3 0x461BCD PUSH1 0xE5 SHL DUP2 MSTORE PUSH1 0x20 PUSH1 0x4 DUP3 ADD MSTORE PUSH1 0x25 PUSH1 0x24 DUP3 ADD MSTORE PUSH32 0x45524332303A207472616E736665722066726F6D20746865207A65726F206164 PUSH1 0x44 DUP3 ADD MSTORE PUSH5 0x6472657373 PUSH1 0xD8 SHL PUSH1 0x64 DUP3 ADD MSTORE PUSH1 0x84 SWAP1 REVERT JUMPDEST RETURNDATASIZE ISZERO PUSH2 0x493C JUMPI RETURNDATASIZE SWAP1 PUSH8 0xFFFFFFFFFFFFFFFF DUP3 GT PUSH2 0x319B JUMPI PUSH1 0x40 MLOAD SWAP2 PUSH2 0x4930 PUSH1 0x1F DUP3 ADD PUSH1 0x1F NOT AND PUSH1 0x20 ADD DUP5 PUSH2 0x31FE JUMP JUMPDEST DUP3 MSTORE RETURNDATASIZE PUSH1 0x0 PUSH1 0x20 DUP5 ADD RETURNDATACOPY JUMP JUMPDEST PUSH1 0x60 SWAP1 JUMP JUMPDEST DUP2 SELFBALANCE LT PUSH2 0x49D7 JUMPI PUSH1 0x0 SWAP2 DUP3 SWAP2 DUP3 SWAP2 DUP3 SWAP2 PUSH1 0x1 PUSH1 0x1 PUSH1 0xA0 SHL SUB AND GAS CALL PUSH2 0x4964 PUSH2 0x4901 JUMP JUMPDEST POP ISZERO PUSH2 0x496C JUMPI JUMP JUMPDEST PUSH1 0x40 MLOAD PUSH3 0x461BCD PUSH1 0xE5 SHL DUP2 MSTORE PUSH1 0x20 PUSH1 0x4 DUP3 ADD MSTORE PUSH1 0x3A PUSH1 0x24 DUP3 ADD MSTORE PUSH32 0x416464726573733A20756E61626C6520746F2073656E642076616C75652C2072 PUSH1 0x44 DUP3 ADD MSTORE PUSH32 0x6563697069656E74206D61792068617665207265766572746564000000000000 PUSH1 0x64 DUP3 ADD MSTORE PUSH1 0x84 SWAP1 REVERT JUMPDEST PUSH1 0x40 MLOAD PUSH3 0x461BCD PUSH1 0xE5 SHL DUP2 MSTORE PUSH1 0x20 PUSH1 0x4 DUP3 ADD MSTORE PUSH1 0x1D PUSH1 0x24 DUP3 ADD MSTORE PUSH32 0x416464726573733A20696E73756666696369656E742062616C616E6365000000 PUSH1 0x44 DUP3 ADD MSTORE PUSH1 0x64 SWAP1 REVERT JUMPDEST SWAP1 DUP2 MLOAD DUP1 DUP3 MSTORE PUSH1 0x20 DUP1 DUP1 SWAP4 ADD SWAP4 ADD SWAP2 PUSH1 0x0 JUMPDEST DUP3 DUP2 LT PUSH2 0x4A3C JUMPI POP POP POP POP SWAP1 JUMP JUMPDEST DUP4 MLOAD PUSH1 0x1 PUSH1 0x1 PUSH1 0xA0 SHL SUB AND DUP6 MSTORE SWAP4 DUP2 ADD SWAP4 SWAP3 DUP2 ADD SWAP3 PUSH1 0x1 ADD PUSH2 0x4A2E JUMP JUMPDEST SWAP1 PUSH2 0x4A71 PUSH1 0x20 SWAP2 SWAP5 SWAP4 SWAP5 PUSH1 0x40 DUP5 MSTORE PUSH1 0x40 DUP5 ADD SWAP1 PUSH2 0x4A1C JUMP JUMPDEST SWAP4 ISZERO ISZERO SWAP2 ADD MSTORE JUMP JUMPDEST PUSH1 0x28 SLOAD DUP1 PUSH2 0x4A86 JUMPI PUSH1 0x0 DUP1 REVERT JUMPDEST PUSH1 0x0 NOT DUP2 ADD SWAP1 DUP2 GT PUSH2 0x3331 JUMPI SWAP1 JUMP JUMPDEST ISZERO PUSH2 0x4A9C JUMPI JUMP JUMPDEST PUSH1 0x40 MLOAD PUSH3 0x461BCD PUSH1 0xE5 SHL DUP2 MSTORE PUSH1 0x20 PUSH1 0x4 DUP3 ADD MSTORE PUSH1 0x13 PUSH1 0x24 DUP3 ADD MSTORE PUSH19 0x1D1C9B9E08191BD95CC81B9BDD08195E1A5CDD PUSH1 0x6A SHL PUSH1 0x44 DUP3 ADD MSTORE PUSH1 0x64 SWAP1 REVERT JUMPDEST ISZERO PUSH2 0x4ADE JUMPI JUMP JUMPDEST PUSH1 0x40 MLOAD PUSH3 0x461BCD PUSH1 0xE5 SHL DUP2 MSTORE PUSH1 0x20 PUSH1 0x4 DUP3 ADD MSTORE PUSH1 0x19 PUSH1 0x24 DUP3 ADD MSTORE PUSH32 0x74726E782068617320616C726561647920657865637574656400000000000000 PUSH1 0x44 DUP3 ADD MSTORE PUSH1 0x64 SWAP1 REVERT JUMPDEST PUSH1 0x25 SLOAD PUSH1 0x0 SWAP2 DUP3 JUMPDEST DUP3 DUP2 LT PUSH2 0x4B38 JUMPI POP POP POP SWAP1 JUMP JUMPDEST DUP2 PUSH1 0x0 MSTORE PUSH1 0xFF PUSH1 0x20 PUSH1 0x29 DUP2 MSTORE PUSH1 0x40 SWAP1 DUP2 PUSH1 0x0 KECCAK256 SWAP1 PUSH2 0x4B55 DUP6 PUSH2 0x3077 JUMP JUMPDEST PUSH1 0x1 DUP1 PUSH1 0xA0 SHL SUB SWAP2 SLOAD SWAP1 PUSH1 0x3 SHL SHR AND PUSH1 0x0 MSTORE MSTORE PUSH1 0x0 KECCAK256 SLOAD AND PUSH2 0x4B80 JUMPI JUMPDEST PUSH2 0x4B7B SWAP1 PUSH2 0x3354 JUMP JUMPDEST PUSH2 0x4B2B JUMP JUMPDEST SWAP3 PUSH1 0x1 DUP2 ADD DUP1 SWAP2 GT PUSH2 0x3331 JUMPI SWAP3 PUSH2 0x4B72 JUMP INVALID BLOCKHASH NOT PUSH9 0xFF42A154441DA5F6C4 0xC9 CALLDATALOAD 0xAC CHAINID 0xB8 PUSH8 0x1F0E062BAAA62A75 GASLIMIT 0xBA MSTORE8 0xBB PUSH15 0x4CDDB556F1D2C1EC821E910B019D36 DUP6 0xB2 0x29 0xDB ISZERO 0x2A 0xE 0xCD MLOAD PUSH29 0xA7E24B8BD7139289796F7520646F6E2774206861766520737566666963 PUSH10 0x656E7420617070726F76 0xDD CALLCODE MSTORE 0xAD SHL 0xE2 0xC8 SWAP12 PUSH10 0xC2B068FC378DAA952BA7 CALL PUSH4 0xC4A11628 CREATE2 GAS 0x4D CREATE2 0x23 0xB3 0xEF PUSH10 0x6E76616C69642046756E PUSH4 0x74696F6E KECCAK256 PUSH4 0x616C6C00 STOP STOP STOP STOP STOP STOP STOP STOP STOP STOP LOG2 PUSH5 0x6970667358 0x22 SLT KECCAK256 0xF6 DUP12 SWAP7 0xAB 0xCD 0xD5 PUSH14 0x44FB7A8C623C364D70952A802944 SWAP14 0xB1 0xED CODESIZE 0xD9 0x23 0xAF SWAP12 0xB8 0xDA JUMPDEST PUSH5 0x736F6C6343 STOP ADDMOD GT STOP CALLER "},"methodIdentifiers":{"_getAprrovalCount(uint256)":"70da913c","allowance(address,address)":"dd62ed3e","allowedTransfer(address)":"62695eae","approve(address,uint256)":"095ea7b3","approveTransaction(uint256)":"242232d1","approved(uint256,address)":"8253951a","autoLiquidityReceiver()":"ca33e64c","balanceOf(address)":"70a08231","bulkIsBlacklisted(address[],bool,uint256)":"de3e85a5","bulkupdateAllowedTransfer(address[],bool,uint256)":"53075d3f","coolDownEnabled()":"ee36e359","coolDownTime()":"d2ce0db2","deadWallet()":"85141a77","decimals()":"313ce567","decreaseAllowance(address,uint256)":"a457c2d7","excludeFromFee(uint256)":"17bd4cde","excludeFromReward(uint256)":"97dd3e99","genesis_block()":"274a533c","getCurrentRunningTransactionId()":"825f375e","includeInReward(uint256)":"112bb58e","increaseAllowance(address,uint256)":"39509351","initialize(address)":"c4d66de8","isExcludedFromFee(address)":"5342acb4","isExcludedFromReward(address)":"88f82020","isOwner(address)":"2f54bf6e","marketingWallet()":"75f0a874","maxBuyLimit()":"6aa5b37f","maxSellLimit()":"652e2f04","maxWalletLimit()":"66a88d96","name()":"06fdde03","newTransaction(uint256,address)":"2671d558","owners(uint256)":"025e7c27","pair()":"a8aa1b31","reflectionFromToken(uint256,bool)":"4549b039","rescueAnyBEP20Tokens(address,address,uint256,uint256)":"4d050922","rescueBNB(uint256,uint256)":"c95a20d1","revoke(uint256)":"20c5429b","router()":"f887ea40","sellTaxes()":"f66895a3","setSellTaxes(bool,uint256)":"fe72fb67","setTaxes(bool,uint256)":"538ca8f4","swapEnabled()":"6ddd1713","swapTokensAtAmount()":"e2f45605","symbol()":"95d89b41","taxes()":"728f8eea","tokenFromReflection(uint256)":"2d838119","totFeesPaid()":"9ba5e4d5","totalSupply()":"18160ddd","tradingEnabled()":"4ada218b","transactions(uint256)":"9ace38c2","transfer(address,uint256)":"a9059cbb","transferFrom(address,address,uint256)":"23b872dd","updateAllowedTransfer(uint256,bool)":"584a56cc","updateCooldown(bool,uint256,uint256)":"987b2205","updateIsBlacklisted(uint256,bool)":"6c6b9bb2","updateMarketingWallet(address,uint256)":"23797808","updateMaxTxLimit(uint256,uint256,uint256)":"e1b450ad","updateMaxWalletlimit(uint256,uint256)":"9f6dd004","updateRouterAndPair(address,address,uint256)":"3e4e7fbf","updateSwapTokensAtAmount(uint256,uint256)":"2c0e22cc","walletPermission()":"cc960294"}},"storageLayout":{"storage":[{"astId":396,"contract":"contracts/SearchLongestProgramV2.sol:SearchLongestProgramV2","label":"_rOwned","offset":0,"slot":"0","type":"t_mapping(t_address,t_uint256)"},{"astId":400,"contract":"contracts/SearchLongestProgramV2.sol:SearchLongestProgramV2","label":"_tOwned","offset":0,"slot":"1","type":"t_mapping(t_address,t_uint256)"},{"astId":406,"contract":"contracts/SearchLongestProgramV2.sol:SearchLongestProgramV2","label":"_allowances","offset":0,"slot":"2","type":"t_mapping(t_address,t_mapping(t_address,t_uint256))"},{"astId":410,"contract":"contracts/SearchLongestProgramV2.sol:SearchLongestProgramV2","label":"_isExcludedFromFee","offset":0,"slot":"3","type":"t_mapping(t_address,t_bool)"},{"astId":414,"contract":"contracts/SearchLongestProgramV2.sol:SearchLongestProgramV2","label":"_isExcluded","offset":0,"slot":"4","type":"t_mapping(t_address,t_bool)"},{"astId":418,"contract":"contracts/SearchLongestProgramV2.sol:SearchLongestProgramV2","label":"allowedTransfer","offset":0,"slot":"5","type":"t_mapping(t_address,t_bool)"},{"astId":422,"contract":"contracts/SearchLongestProgramV2.sol:SearchLongestProgramV2","label":"_isBlacklisted","offset":0,"slot":"6","type":"t_mapping(t_address,t_bool)"},{"astId":425,"contract":"contracts/SearchLongestProgramV2.sol:SearchLongestProgramV2","label":"_excluded","offset":0,"slot":"7","type":"t_array(t_address)dyn_storage"},{"astId":427,"contract":"contracts/SearchLongestProgramV2.sol:SearchLongestProgramV2","label":"tradingEnabled","offset":0,"slot":"8","type":"t_bool"},{"astId":429,"contract":"contracts/SearchLongestProgramV2.sol:SearchLongestProgramV2","label":"swapEnabled","offset":1,"slot":"8","type":"t_bool"},{"astId":431,"contract":"contracts/SearchLongestProgramV2.sol:SearchLongestProgramV2","label":"swapping","offset":2,"slot":"8","type":"t_bool"},{"astId":435,"contract":"contracts/SearchLongestProgramV2.sol:SearchLongestProgramV2","label":"_lastSell","offset":0,"slot":"9","type":"t_mapping(t_address,t_uint256)"},{"astId":437,"contract":"contracts/SearchLongestProgramV2.sol:SearchLongestProgramV2","label":"coolDownEnabled","offset":0,"slot":"10","type":"t_bool"},{"astId":439,"contract":"contracts/SearchLongestProgramV2.sol:SearchLongestProgramV2","label":"coolDownTime","offset":0,"slot":"11","type":"t_uint256"},{"astId":442,"contract":"contracts/SearchLongestProgramV2.sol:SearchLongestProgramV2","label":"router","offset":0,"slot":"12","type":"t_contract(IRouter)385"},{"astId":444,"contract":"contracts/SearchLongestProgramV2.sol:SearchLongestProgramV2","label":"pair","offset":0,"slot":"13","type":"t_address"},{"astId":456,"contract":"contracts/SearchLongestProgramV2.sol:SearchLongestProgramV2","label":"_tTotal","offset":0,"slot":"14","type":"t_uint256"},{"astId":458,"contract":"contracts/SearchLongestProgramV2.sol:SearchLongestProgramV2","label":"_rTotal","offset":0,"slot":"15","type":"t_uint256"},{"astId":460,"contract":"contracts/SearchLongestProgramV2.sol:SearchLongestProgramV2","label":"swapTokensAtAmount","offset":0,"slot":"16","type":"t_uint256"},{"astId":462,"contract":"contracts/SearchLongestProgramV2.sol:SearchLongestProgramV2","label":"maxBuyLimit","offset":0,"slot":"17","type":"t_uint256"},{"astId":464,"contract":"contracts/SearchLongestProgramV2.sol:SearchLongestProgramV2","label":"maxSellLimit","offset":0,"slot":"18","type":"t_uint256"},{"astId":466,"contract":"contracts/SearchLongestProgramV2.sol:SearchLongestProgramV2","label":"maxWalletLimit","offset":0,"slot":"19","type":"t_uint256"},{"astId":468,"contract":"contracts/SearchLongestProgramV2.sol:SearchLongestProgramV2","label":"genesis_block","offset":0,"slot":"20","type":"t_uint256"},{"astId":470,"contract":"contracts/SearchLongestProgramV2.sol:SearchLongestProgramV2","label":"deadline","offset":0,"slot":"21","type":"t_uint256"},{"astId":472,"contract":"contracts/SearchLongestProgramV2.sol:SearchLongestProgramV2","label":"deadWallet","offset":0,"slot":"22","type":"t_address"},{"astId":474,"contract":"contracts/SearchLongestProgramV2.sol:SearchLongestProgramV2","label":"marketingWallet","offset":0,"slot":"23","type":"t_address"},{"astId":476,"contract":"contracts/SearchLongestProgramV2.sol:SearchLongestProgramV2","label":"autoLiquidityReceiver","offset":0,"slot":"24","type":"t_address"},{"astId":492,"contract":"contracts/SearchLongestProgramV2.sol:SearchLongestProgramV2","label":"launchtax","offset":0,"slot":"25","type":"t_struct(Taxes)489_storage"},{"astId":495,"contract":"contracts/SearchLongestProgramV2.sol:SearchLongestProgramV2","label":"taxes","offset":0,"slot":"28","type":"t_struct(Taxes)489_storage"},{"astId":498,"contract":"contracts/SearchLongestProgramV2.sol:SearchLongestProgramV2","label":"sellTaxes","offset":0,"slot":"31","type":"t_struct(Taxes)489_storage"},{"astId":508,"contract":"contracts/SearchLongestProgramV2.sol:SearchLongestProgramV2","label":"totFeesPaid","offset":0,"slot":"34","type":"t_struct(TotFeesPaidStruct)505_storage"},{"astId":622,"contract":"contracts/SearchLongestProgramV2.sol:SearchLongestProgramV2","label":"owners","offset":0,"slot":"37","type":"t_array(t_address)dyn_storage"},{"astId":626,"contract":"contracts/SearchLongestProgramV2.sol:SearchLongestProgramV2","label":"isOwner","offset":0,"slot":"38","type":"t_mapping(t_address,t_bool)"},{"astId":628,"contract":"contracts/SearchLongestProgramV2.sol:SearchLongestProgramV2","label":"walletPermission","offset":0,"slot":"39","type":"t_uint256"},{"astId":632,"contract":"contracts/SearchLongestProgramV2.sol:SearchLongestProgramV2","label":"transactions","offset":0,"slot":"40","type":"t_array(t_struct(Transaction)645_storage)dyn_storage"},{"astId":638,"contract":"contracts/SearchLongestProgramV2.sol:SearchLongestProgramV2","label":"approved","offset":0,"slot":"41","type":"t_mapping(t_uint256,t_mapping(t_address,t_bool))"},{"astId":730,"contract":"contracts/SearchLongestProgramV2.sol:SearchLongestProgramV2","label":"_initialized","offset":0,"slot":"42","type":"t_uint8"},{"astId":733,"contract":"contracts/SearchLongestProgramV2.sol:SearchLongestProgramV2","label":"_initializing","offset":1,"slot":"42","type":"t_bool"},{"astId":737,"contract":"contracts/SearchLongestProgramV2.sol:SearchLongestProgramV2","label":"_lastTrx","offset":0,"slot":"43","type":"t_mapping(t_address,t_uint256)"}],"types":{"t_address":{"encoding":"inplace","label":"address","numberOfBytes":"20"},"t_array(t_address)dyn_storage":{"base":"t_address","encoding":"dynamic_array","label":"address[]","numberOfBytes":"32"},"t_array(t_struct(Transaction)645_storage)dyn_storage":{"base":"t_struct(Transaction)645_storage","encoding":"dynamic_array","label":"struct SearchLongestProgramV2.Transaction[]","numberOfBytes":"32"},"t_bool":{"encoding":"inplace","label":"bool","numberOfBytes":"1"},"t_contract(IRouter)385":{"encoding":"inplace","label":"contract IRouter","numberOfBytes":"20"},"t_mapping(t_address,t_bool)":{"encoding":"mapping","key":"t_address","label":"mapping(address => bool)","numberOfBytes":"32","value":"t_bool"},"t_mapping(t_address,t_mapping(t_address,t_uint256))":{"encoding":"mapping","key":"t_address","label":"mapping(address => mapping(address => uint256))","numberOfBytes":"32","value":"t_mapping(t_address,t_uint256)"},"t_mapping(t_address,t_uint256)":{"encoding":"mapping","key":"t_address","label":"mapping(address => uint256)","numberOfBytes":"32","value":"t_uint256"},"t_mapping(t_uint256,t_mapping(t_address,t_bool))":{"encoding":"mapping","key":"t_uint256","label":"mapping(uint256 => mapping(address => bool))","numberOfBytes":"32","value":"t_mapping(t_address,t_bool)"},"t_struct(Taxes)489_storage":{"encoding":"inplace","label":"struct SearchLongestProgramV2.Taxes","members":[{"astId":484,"contract":"contracts/SearchLongestProgramV2.sol:SearchLongestProgramV2","label":"rfi","offset":0,"slot":"0","type":"t_uint256"},{"astId":486,"contract":"contracts/SearchLongestProgramV2.sol:SearchLongestProgramV2","label":"marketing","offset":0,"slot":"1","type":"t_uint256"},{"astId":488,"contract":"contracts/SearchLongestProgramV2.sol:SearchLongestProgramV2","label":"liquidity","offset":0,"slot":"2","type":"t_uint256"}],"numberOfBytes":"96"},"t_struct(TotFeesPaidStruct)505_storage":{"encoding":"inplace","label":"struct SearchLongestProgramV2.TotFeesPaidStruct","members":[{"astId":500,"contract":"contracts/SearchLongestProgramV2.sol:SearchLongestProgramV2","label":"rfi","offset":0,"slot":"0","type":"t_uint256"},{"astId":502,"contract":"contracts/SearchLongestProgramV2.sol:SearchLongestProgramV2","label":"marketing","offset":0,"slot":"1","type":"t_uint256"},{"astId":504,"contract":"contracts/SearchLongestProgramV2.sol:SearchLongestProgramV2","label":"liquidity","offset":0,"slot":"2","type":"t_uint256"}],"numberOfBytes":"96"},"t_struct(Transaction)645_storage":{"encoding":"inplace","label":"struct SearchLongestProgramV2.Transaction","members":[{"astId":640,"contract":"contracts/SearchLongestProgramV2.sol:SearchLongestProgramV2","label":"isExecuted","offset":0,"slot":"0","type":"t_bool"},{"astId":642,"contract":"contracts/SearchLongestProgramV2.sol:SearchLongestProgramV2","label":"methodID","offset":0,"slot":"1","type":"t_uint256"},{"astId":644,"contract":"contracts/SearchLongestProgramV2.sol:SearchLongestProgramV2","label":"data","offset":0,"slot":"2","type":"t_address"}],"numberOfBytes":"96"},"t_uint256":{"encoding":"inplace","label":"uint256","numberOfBytes":"32"},"t_uint8":{"encoding":"inplace","label":"uint8","numberOfBytes":"1"}}}}}}