{"contracts/MowgliSanctuaryTokenV3.sol":{"MowgliSanctuaryTokenV3":{"abi":[{"anonymous":false,"inputs":[{"indexed":true,"internalType":"address","name":"owner","type":"address"},{"indexed":true,"internalType":"address","name":"spender","type":"address"},{"indexed":false,"internalType":"uint256","name":"value","type":"uint256"}],"name":"Approval","type":"event"},{"anonymous":false,"inputs":[{"indexed":false,"internalType":"address","name":"owner","type":"address"},{"indexed":false,"internalType":"uint256","name":"trnxId","type":"uint256"}],"name":"Approve","type":"event"},{"anonymous":false,"inputs":[{"indexed":false,"internalType":"uint256","name":"trnxId","type":"uint256"}],"name":"Execute","type":"event"},{"anonymous":false,"inputs":[{"indexed":false,"internalType":"bool","name":"status","type":"bool"}],"name":"FeesChanged","type":"event"},{"anonymous":false,"inputs":[{"indexed":false,"internalType":"uint8","name":"version","type":"uint8"}],"name":"Initialized","type":"event"},{"anonymous":false,"inputs":[{"indexed":false,"internalType":"address","name":"owner","type":"address"},{"indexed":false,"internalType":"uint256","name":"trnxId","type":"uint256"}],"name":"Revoke","type":"event"},{"anonymous":false,"inputs":[{"indexed":true,"internalType":"address","name":"from","type":"address"},{"indexed":true,"internalType":"address","name":"to","type":"address"},{"indexed":false,"internalType":"uint256","name":"value","type":"uint256"}],"name":"Transfer","type":"event"},{"anonymous":false,"inputs":[{"indexed":false,"internalType":"bool","name":"state","type":"bool"},{"indexed":false,"internalType":"uint256","name":"time","type":"uint256"}],"name":"UpdateCooldownTX","type":"event"},{"anonymous":false,"inputs":[{"indexed":false,"internalType":"bool","name":"state","type":"bool"}],"name":"UpdateIsBlacklistedTX","type":"event"},{"anonymous":false,"inputs":[{"indexed":false,"internalType":"address","name":"newWallet","type":"address"}],"name":"UpdateMarketingWalletTX","type":"event"},{"anonymous":false,"inputs":[{"indexed":false,"internalType":"uint256","name":"amount","type":"uint256"}],"name":"UpdateMaxWalletLimitTX","type":"event"},{"anonymous":false,"inputs":[{"indexed":false,"internalType":"uint256","name":"maxBuy","type":"uint256"},{"indexed":false,"internalType":"uint256","name":"maxSell","type":"uint256"}],"name":"UpdateMaxtxLimitTX","type":"event"},{"anonymous":false,"inputs":[{"indexed":false,"internalType":"address","name":"newRouter","type":"address"},{"indexed":false,"internalType":"address","name":"newPair","type":"address"}],"name":"UpdateRouterAndPairTX","type":"event"},{"anonymous":false,"inputs":[{"indexed":false,"internalType":"uint256","name":"amount","type":"uint256"}],"name":"UpdateSwapTokenAtAmountTX","type":"event"},{"anonymous":false,"inputs":[{"indexed":false,"internalType":"uint256","name":"trnx","type":"uint256"}],"name":"assignTrnx","type":"event"},{"anonymous":false,"inputs":[{"indexed":false,"internalType":"address[]","name":"accounts","type":"address[]"},{"indexed":false,"internalType":"bool","name":"state","type":"bool"}],"name":"bulkIsBlacklistedTX","type":"event"},{"anonymous":false,"inputs":[{"indexed":false,"internalType":"address[]","name":"accounts","type":"address[]"},{"indexed":false,"internalType":"bool","name":"state","type":"bool"}],"name":"bulkupdateAllowedTransferTX","type":"event"},{"anonymous":false,"inputs":[{"indexed":false,"internalType":"uint256","name":"amount","type":"uint256"}],"name":"rescueBNBTX","type":"event"},{"anonymous":false,"inputs":[{"indexed":false,"internalType":"address","name":"TheFollowingAddressIsSetAssetExcludeFromFee","type":"address"}],"name":"setExcludeFromFeeTX","type":"event"},{"anonymous":false,"inputs":[{"indexed":false,"internalType":"address","name":"TheFollowingAddressIsExcludedFromRewards","type":"address"}],"name":"setExcludeFromRewardTX","type":"event"},{"anonymous":false,"inputs":[{"indexed":false,"internalType":"address","name":"TheFollowingAddressIsSetAsIncludeInReward","type":"address"}],"name":"setIncludeFromRewardTX","type":"event"},{"anonymous":false,"inputs":[{"indexed":false,"internalType":"bool","name":"state","type":"bool"}],"name":"updateAllowedTransferTX","type":"event"},{"inputs":[{"internalType":"uint256","name":"_trnxId","type":"uint256"}],"name":"_getAprrovalCount","outputs":[{"internalType":"uint256","name":"","type":"uint256"}],"stateMutability":"view","type":"function"},{"inputs":[{"internalType":"address","name":"owner","type":"address"},{"internalType":"address","name":"spender","type":"address"}],"name":"allowance","outputs":[{"internalType":"uint256","name":"","type":"uint256"}],"stateMutability":"view","type":"function"},{"inputs":[{"internalType":"address","name":"","type":"address"}],"name":"allowedTransfer","outputs":[{"internalType":"bool","name":"","type":"bool"}],"stateMutability":"view","type":"function"},{"inputs":[{"internalType":"address","name":"spender","type":"address"},{"internalType":"uint256","name":"amount","type":"uint256"}],"name":"approve","outputs":[{"internalType":"bool","name":"","type":"bool"}],"stateMutability":"nonpayable","type":"function"},{"inputs":[{"internalType":"uint256","name":"_trnxId","type":"uint256"}],"name":"approveTransaction","outputs":[],"stateMutability":"nonpayable","type":"function"},{"inputs":[{"internalType":"uint256","name":"","type":"uint256"},{"internalType":"address","name":"","type":"address"}],"name":"approved","outputs":[{"internalType":"bool","name":"","type":"bool"}],"stateMutability":"view","type":"function"},{"inputs":[],"name":"autoLiquidityReceiver","outputs":[{"internalType":"address","name":"","type":"address"}],"stateMutability":"view","type":"function"},{"inputs":[{"internalType":"address","name":"account","type":"address"}],"name":"balanceOf","outputs":[{"internalType":"uint256","name":"","type":"uint256"}],"stateMutability":"view","type":"function"},{"inputs":[{"internalType":"address[]","name":"accounts","type":"address[]"},{"internalType":"bool","name":"state","type":"bool"},{"internalType":"uint256","name":"_trnxId","type":"uint256"}],"name":"bulkIsBlacklisted","outputs":[],"stateMutability":"nonpayable","type":"function"},{"inputs":[{"internalType":"address[]","name":"accounts","type":"address[]"},{"internalType":"bool","name":"state","type":"bool"},{"internalType":"uint256","name":"_trnxId","type":"uint256"}],"name":"bulkupdateAllowedTransfer","outputs":[],"stateMutability":"nonpayable","type":"function"},{"inputs":[],"name":"coolDownEnabled","outputs":[{"internalType":"bool","name":"","type":"bool"}],"stateMutability":"view","type":"function"},{"inputs":[],"name":"coolDownTime","outputs":[{"internalType":"uint256","name":"","type":"uint256"}],"stateMutability":"view","type":"function"},{"inputs":[],"name":"deadWallet","outputs":[{"internalType":"address","name":"","type":"address"}],"stateMutability":"view","type":"function"},{"inputs":[],"name":"decimals","outputs":[{"internalType":"uint8","name":"","type":"uint8"}],"stateMutability":"pure","type":"function"},{"inputs":[{"internalType":"address","name":"spender","type":"address"},{"internalType":"uint256","name":"subtractedValue","type":"uint256"}],"name":"decreaseAllowance","outputs":[{"internalType":"bool","name":"","type":"bool"}],"stateMutability":"nonpayable","type":"function"},{"inputs":[{"internalType":"uint256","name":"_trnxId","type":"uint256"}],"name":"excludeFromFee","outputs":[],"stateMutability":"nonpayable","type":"function"},{"inputs":[{"internalType":"uint256","name":"_trnxId","type":"uint256"}],"name":"excludeFromReward","outputs":[],"stateMutability":"nonpayable","type":"function"},{"inputs":[],"name":"genesis_block","outputs":[{"internalType":"uint256","name":"","type":"uint256"}],"stateMutability":"view","type":"function"},{"inputs":[],"name":"getCurrentRunningTransactionId","outputs":[{"internalType":"uint256","name":"","type":"uint256"}],"stateMutability":"view","type":"function"},{"inputs":[{"internalType":"uint256","name":"_trnxId","type":"uint256"}],"name":"includeInReward","outputs":[],"stateMutability":"nonpayable","type":"function"},{"inputs":[{"internalType":"address","name":"spender","type":"address"},{"internalType":"uint256","name":"addedValue","type":"uint256"}],"name":"increaseAllowance","outputs":[{"internalType":"bool","name":"","type":"bool"}],"stateMutability":"nonpayable","type":"function"},{"inputs":[{"internalType":"address","name":"routerAddress","type":"address"}],"name":"initialize","outputs":[],"stateMutability":"nonpayable","type":"function"},{"inputs":[{"internalType":"address","name":"account","type":"address"}],"name":"isExcludedFromFee","outputs":[{"internalType":"bool","name":"","type":"bool"}],"stateMutability":"view","type":"function"},{"inputs":[{"internalType":"address","name":"account","type":"address"}],"name":"isExcludedFromReward","outputs":[{"internalType":"bool","name":"","type":"bool"}],"stateMutability":"view","type":"function"},{"inputs":[{"internalType":"address","name":"","type":"address"}],"name":"isOwner","outputs":[{"internalType":"bool","name":"","type":"bool"}],"stateMutability":"view","type":"function"},{"inputs":[],"name":"marketingWallet","outputs":[{"internalType":"address","name":"","type":"address"}],"stateMutability":"view","type":"function"},{"inputs":[],"name":"maxBuyLimit","outputs":[{"internalType":"uint256","name":"","type":"uint256"}],"stateMutability":"view","type":"function"},{"inputs":[],"name":"maxSellLimit","outputs":[{"internalType":"uint256","name":"","type":"uint256"}],"stateMutability":"view","type":"function"},{"inputs":[],"name":"maxWalletLimit","outputs":[{"internalType":"uint256","name":"","type":"uint256"}],"stateMutability":"view","type":"function"},{"inputs":[],"name":"name","outputs":[{"internalType":"string","name":"","type":"string"}],"stateMutability":"pure","type":"function"},{"inputs":[{"internalType":"uint256","name":"_methodID","type":"uint256"},{"internalType":"address","name":"_data","type":"address"}],"name":"newTransaction","outputs":[{"internalType":"uint256","name":"","type":"uint256"}],"stateMutability":"nonpayable","type":"function"},{"inputs":[{"internalType":"uint256","name":"","type":"uint256"}],"name":"owners","outputs":[{"internalType":"address","name":"","type":"address"}],"stateMutability":"view","type":"function"},{"inputs":[],"name":"pair","outputs":[{"internalType":"address","name":"","type":"address"}],"stateMutability":"view","type":"function"},{"inputs":[{"internalType":"uint256","name":"tAmount","type":"uint256"},{"internalType":"bool","name":"deductTransferRfi","type":"bool"}],"name":"reflectionFromToken","outputs":[{"internalType":"uint256","name":"","type":"uint256"}],"stateMutability":"view","type":"function"},{"inputs":[{"internalType":"uint256","name":"weiAmount","type":"uint256"},{"internalType":"uint256","name":"_trnxId","type":"uint256"}],"name":"rescueBNB","outputs":[],"stateMutability":"nonpayable","type":"function"},{"inputs":[{"internalType":"uint256","name":"_trnxId","type":"uint256"}],"name":"revoke","outputs":[],"stateMutability":"nonpayable","type":"function"},{"inputs":[],"name":"router","outputs":[{"internalType":"contract IRouter","name":"","type":"address"}],"stateMutability":"view","type":"function"},{"inputs":[],"name":"sellTaxes","outputs":[{"internalType":"uint256","name":"rfi","type":"uint256"},{"internalType":"uint256","name":"marketing","type":"uint256"},{"internalType":"uint256","name":"liquidity","type":"uint256"}],"stateMutability":"view","type":"function"},{"inputs":[{"internalType":"address","name":"newData","type":"address"},{"internalType":"uint256","name":"_trnxId","type":"uint256"}],"name":"setData","outputs":[],"stateMutability":"nonpayable","type":"function"},{"inputs":[{"internalType":"bool","name":"state","type":"bool"},{"internalType":"uint256","name":"_trnxId","type":"uint256"}],"name":"setSellTaxes","outputs":[],"stateMutability":"nonpayable","type":"function"},{"inputs":[{"internalType":"bool","name":"state","type":"bool"},{"internalType":"uint256","name":"_trnxId","type":"uint256"}],"name":"setTaxes","outputs":[],"stateMutability":"nonpayable","type":"function"},{"inputs":[],"name":"swapEnabled","outputs":[{"internalType":"bool","name":"","type":"bool"}],"stateMutability":"view","type":"function"},{"inputs":[],"name":"swapTokensAtAmount","outputs":[{"internalType":"uint256","name":"","type":"uint256"}],"stateMutability":"view","type":"function"},{"inputs":[],"name":"symbol","outputs":[{"internalType":"string","name":"","type":"string"}],"stateMutability":"pure","type":"function"},{"inputs":[],"name":"taxes","outputs":[{"internalType":"uint256","name":"rfi","type":"uint256"},{"internalType":"uint256","name":"marketing","type":"uint256"},{"internalType":"uint256","name":"liquidity","type":"uint256"}],"stateMutability":"view","type":"function"},{"inputs":[{"internalType":"uint256","name":"rAmount","type":"uint256"}],"name":"tokenFromReflection","outputs":[{"internalType":"uint256","name":"","type":"uint256"}],"stateMutability":"view","type":"function"},{"inputs":[],"name":"totFeesPaid","outputs":[{"internalType":"uint256","name":"rfi","type":"uint256"},{"internalType":"uint256","name":"marketing","type":"uint256"},{"internalType":"uint256","name":"liquidity","type":"uint256"}],"stateMutability":"view","type":"function"},{"inputs":[],"name":"totalSupply","outputs":[{"internalType":"uint256","name":"","type":"uint256"}],"stateMutability":"view","type":"function"},{"inputs":[],"name":"tradingEnabled","outputs":[{"internalType":"bool","name":"","type":"bool"}],"stateMutability":"view","type":"function"},{"inputs":[{"internalType":"uint256","name":"","type":"uint256"}],"name":"transactions","outputs":[{"internalType":"bool","name":"isExecuted","type":"bool"},{"internalType":"uint256","name":"methodID","type":"uint256"},{"internalType":"address","name":"data","type":"address"}],"stateMutability":"view","type":"function"},{"inputs":[{"internalType":"address","name":"recipient","type":"address"},{"internalType":"uint256","name":"amount","type":"uint256"}],"name":"transfer","outputs":[{"internalType":"bool","name":"","type":"bool"}],"stateMutability":"nonpayable","type":"function"},{"inputs":[{"internalType":"address","name":"sender","type":"address"},{"internalType":"address","name":"recipient","type":"address"},{"internalType":"uint256","name":"amount","type":"uint256"}],"name":"transferFrom","outputs":[{"internalType":"bool","name":"","type":"bool"}],"stateMutability":"nonpayable","type":"function"},{"inputs":[{"internalType":"uint256","name":"_trnxId","type":"uint256"},{"internalType":"bool","name":"state","type":"bool"}],"name":"updateAllowedTransfer","outputs":[],"stateMutability":"nonpayable","type":"function"},{"inputs":[{"internalType":"bool","name":"state","type":"bool"},{"internalType":"uint256","name":"time","type":"uint256"},{"internalType":"uint256","name":"_trnxId","type":"uint256"}],"name":"updateCooldown","outputs":[],"stateMutability":"nonpayable","type":"function"},{"inputs":[{"internalType":"uint256","name":"_trnxId","type":"uint256"},{"internalType":"bool","name":"state","type":"bool"}],"name":"updateIsBlacklisted","outputs":[],"stateMutability":"nonpayable","type":"function"},{"inputs":[{"internalType":"address","name":"newWallet","type":"address"},{"internalType":"uint256","name":"_trnxId","type":"uint256"}],"name":"updateMarketingWallet","outputs":[],"stateMutability":"nonpayable","type":"function"},{"inputs":[{"internalType":"uint256","name":"maxBuy","type":"uint256"},{"internalType":"uint256","name":"maxSell","type":"uint256"},{"internalType":"uint256","name":"_trnxId","type":"uint256"}],"name":"updateMaxTxLimit","outputs":[],"stateMutability":"nonpayable","type":"function"},{"inputs":[{"internalType":"uint256","name":"amount","type":"uint256"},{"internalType":"uint256","name":"_trnxId","type":"uint256"}],"name":"updateMaxWalletlimit","outputs":[],"stateMutability":"nonpayable","type":"function"},{"inputs":[{"internalType":"address","name":"newRouter","type":"address"},{"internalType":"address","name":"newPair","type":"address"},{"internalType":"uint256","name":"_trnxId","type":"uint256"}],"name":"updateRouterAndPair","outputs":[],"stateMutability":"nonpayable","type":"function"},{"inputs":[{"internalType":"uint256","name":"amount","type":"uint256"},{"internalType":"uint256","name":"_trnxId","type":"uint256"}],"name":"updateSwapTokensAtAmount","outputs":[],"stateMutability":"nonpayable","type":"function"},{"inputs":[],"name":"walletPermission","outputs":[{"internalType":"uint256","name":"","type":"uint256"}],"stateMutability":"view","type":"function"},{"stateMutability":"payable","type":"receive"}],"evm":{"bytecode":{"linkReferences":{},"object":"60808060405234610016576148ee908161001c8239f35b600080fdfe60a080604052600436101561001d575b50361561001b57600080fd5b005b60003560e01c908163025e7c2714612cda5750806306fdde0314612c8b578063095ea7b314612c65578063112bb58e146129ab57806317bd4cde1461287b57806318160ddd1461285d57806320c5429b14612756578063237978081461261557806323b872dd14612565578063242232d1146124615780632671d55814612219578063274a533c146121fb5780632c0e22cc146121235780632d838119146121055780632f54bf6e146120c6578063313ce567146120aa57806339509351146120595780633e4e7fbf14611f125780634549b03914611eec5780634ada218b14611ec957806353075d3f14611dbc5780635342acb414611d7d578063538ca8f414611c53578063584a56cc14611b5657806362695eae14611b17578063652e2f0414611af957806366a88d9614611adb5780636aa5b37f14611abd5780636c6b9bb2146119c05780636ddd17131461199a57806370a082311461197757806370da913c14611959578063728f8eea1461192757806375f0a874146118fe57806381308721146117db5780638253951a1461178e578063825f375e1461176b57806385141a771461174257806388f820201461170357806395d89b41146116c757806397dd3e99146114f6578063987b2205146114025780639ace38c21461134b5780639ba5e4d5146113195780639f6dd00414611241578063a457c2d71461119a578063a8aa1b3114611171578063a9059cbb14611140578063c4d66de8146109ff578063c95a20d1146108ee578063ca33e64c146108c5578063cc960294146108a7578063d2ce0db214610889578063dd62ed3e14610838578063de3e85a5146106a6578063e1b450ad1461051a578063e2f45605146104fc578063ee36e359146104d9578063f66895a3146104a3578063f887ea401461047a5763fe72fb67146102c9573861000f565b34610475576040366003190112610475576102e2612e84565b60243590336000526020906026825261030260ff60406000205416612fe0565b1515600181036104495760026040805161031b81612e93565b82815260018582015201526002601f556001825560026021555b610342602854841061471f565b61035960ff61035085612fa5565b5054161561477d565b610362836147c9565b6027541161040b5761037383612fa5565b5060106001820154036103ce57827f2aa8128b3cf57c168078769033a09f2677560674defb313c68f8ec74df66dc909460008051602061485983398151915292600160ff19825416179055604051908152a1604051908152a1005b60405162461bcd60e51b81526004810184905260156024820152741a5b9d985b1a5908119d5b98dd1a5bdb8818d85b1b605a1b6044820152606490fd5b60405162461bcd60e51b81526004810183905260226024820152600080516020614879833981519152604482015261185b60f21b6064820152608490fd5b60006040805161045881612e93565b828152828582015201526000601f55600082556000602155610335565b600080fd5b3461047557600036600319011261047557600c546040516001600160a01b039091168152602090f35b3461047557600036600319011261047557601f5460208054602154604080519485529284019190915290820152606090f35b0390f35b3461047557600036600319011261047557602060ff600a54166040519015158152f35b34610475576000366003190112610475576020601054604051908152f35b34610475576060366003190112610475576004356024356044359133600052602660205261054f60ff60406000205416612fe0565b670de0b6b3a7640000808202828104821483151715610690576011558083029083820414831517156106905760125561058b602854841061471f565b61059960ff61035085612fa5565b6105a2836147c9565b60275411610652576105b383612fa5565b5091600a6001840154036106155760008051602061485983398151915260207f27753d76d86e2580a6535641fd05c753f41398b68d711d3a8bd15e94118772d895604095600160ff198254161790558551908152a182519182526020820152a1005b60405162461bcd60e51b81526020600482015260156024820152741a5b9d985b1a5908119d5b98dd1a5bdb8818d85b1b605a1b6044820152606490fd5b60405162461bcd60e51b81526020600482015260226024820152600080516020614879833981519152604482015261185b60f21b6064820152608490fd5b634e487b7160e01b600052601160045260246000fd5b34610475576106b436612f01565b9033600052602092602684526106d160ff60406000205416612fe0565b60005b81518110156107205761071b906001600160a01b036106f38285613571565b5116600052600686526107168460406000209060ff801983541691151516179055565b61305a565b6106d4565b509091610730602854821061471f565b61073e60ff61035083612fa5565b610747816147c9565b602754116107fa5761075881612fa5565b50600e6001820154036107bd57805460ff191660011790556040519081527f69658000c6a55369e18013a2245d930872faf496d5f06e18b00a14d5746848e29360008051602061485983398151915291a16107b8604051928392836146ff565b0390a1005b60405162461bcd60e51b81526004810186905260156024820152741a5b9d985b1a5908119d5b98dd1a5bdb8818d85b1b605a1b6044820152606490fd5b60405162461bcd60e51b81526004810185905260226024820152600080516020614879833981519152604482015261185b60f21b6064820152608490fd5b3461047557604036600319011261047557610851612dfe565b610859612e14565b9060018060a01b038091166000526002602052604060002091166000526020526020604060002054604051908152f35b34610475576000366003190112610475576020600b54604051908152f35b34610475576000366003190112610475576020602754604051908152f35b34610475576000366003190112610475576018546040516001600160a01b039091168152602090f35b34610475576108fc36612e5f565b90336000526020906026825261091960ff60406000205416612fe0565b8047106109ba5761092a813361459f565b610937602854841061471f565b61094560ff61035085612fa5565b61094e836147c9565b6027541161040b5761095f83612fa5565b5060056001820154036103ce57827fc806a2e979c8f1a76fe7b47e2bceb111e789dda4d0da93d0e5df7f56f344b1ff9460008051602061485983398151915292600160ff19825416179055604051908152a1604051908152a1005b60405162461bcd60e51b815260048101839052601860248201527f696e73756666696369656e7420424e422062616c616e636500000000000000006044820152606490fd5b3461047557602036600319011261047557610a18612dfe565b610a206130cc565b908161112c575b336000526026602052610a4160ff60406000205416612fe0565b6001600160a01b031680156110ef5760405163c45a015560e01b8152602081600481855afa9081156110a7576000916110d0575b506040516315ab88c960e31b8152602081600481865afa9081156110a757600092602092610ad79285916110b3575b506040516364e329cb60e11b81523060048201526001600160a01b03909116602482015293849283919082906044820190565b03926001600160a01b03165af180156110a757731c7f0c770e45030da303728969821f800dd5547691600091611078575b5060018060a01b0316916001600160601b0360a01b908382600d541617600d5581600c541617600c5561010161ffff196008541617600855600360275533816018541617601855603c600b55600160ff19600a541617600a556a4b30d2dfbaf72d44800000600e556a2f19662e3e2f92ee7fffff19600f5569133fb2e96728bfd0000060105569c07cfd1e07977e200000806011558060125560135543601455600060155561dead8160165416176016556017541617601755600060408051610bd081612e93565b828152826020820152015260006019556000601a556000601b55600060408051610bf981612e93565b82815282602082015201526000601c556000601d556000601e55600260408051610c2281612e93565b8281526001602082015201526002601f556001602055600260215560005260036020526040600020600160ff1982541617905560018060a01b03601654166000526040600020600160ff1982541617905560405160a0810181811067ffffffffffffffff8211176110625760405273185e6f5bcf406cfd79ffb3ad234fe949b1fc1f2d815273f5cc2a3ee03bf0268dbd2eadcadd809a0cbdcc846020820152738525320621a3b4ffca04b5952a3cdd82630c7dd7604082015273285e3e816302b81c5f21fc632e166e323c575a856060820152734e18c6f0070be7aa44786a2678e1de05ecc623166080820152602554600560255580600510611017575b50602560005260005b60058110610fec578260005b602554811015610e4157610d4881612d6e565b905460039190911b1c6001600160a01b0316908115610e0c5781600052602660205260ff60406000205416610dc757610dc29160005260266020526040600020600160ff1982541617905560036020526040600020600160ff1982541617905560056020526040600020600160ff1982541617905561305a565b610d35565b60405162461bcd60e51b815260206004820152601760248201527f6f776e657220697320616c7265616479207468657265210000000000000000006044820152606490fd5b60405162461bcd60e51b815260206004820152600d60248201526c34b73b30b634b21037bbb732b960991b6044820152606490fd5b50600f54336000818152602081815260408083209490945530808352600382528483208054600160ff199182168117909255601780546001600160a01b03908116875288872080548416851790556016548116875288872080548416851790557f3efc5036fe05c92b9c3fc0cea34acb14206cd57734df649b22774d2d35c1b77c80548416851790557fab360e1e10c9f724560bc8029134d9d7833875485d0cd50c8128e8cbfd7bc5ad8054841685179055938652600585528786208054831684179055600d5484168652878620805483168417905554909216845285842080548316821790557ffce55f359ec7536995dc53f21ed2590a73429c5294b44c06f08563c496a5ad6e8054831682179055737ee058420e5937496f5a2096f04caa7721cf70cc84527f44a2a600709f8cde8afd7855cb5942b5d2110b9db2958abac6cf1b0cb7641d058054909216179055600e5493519384529192909160008051602061489983398151915291a3610fb457005b61ff0019602a5416602a557f7f26b83ff96e1f2b6a682f133852f6798a09c465da95921460cefb3847402498602060405160018152a1005b81516001600160a01b0316600080516020614839833981519152820155602090910190600101610d29565b600080516020614839833981519152017f401968ff42a154441da5f6c4c935ac46b8671f0e062baaa62a7545ba53bb6e515b8181106110565750610d20565b60008155600101611049565b634e487b7160e01b600052604160045260246000fd5b61109a915060203d6020116110a0575b6110928183612edf565b81019061301b565b84610b08565b503d611088565b6040513d6000823e3d90fd5b6110ca9150843d86116110a0576110928183612edf565b87610aa4565b6110e9915060203d6020116110a0576110928183612edf565b83610a75565b60405162461bcd60e51b81526020600482015260156024820152742937baba32b91030b2323932b9b99032b6b83a3c9760591b6044820152606490fd5b61010061ff0019602a541617602a55610a27565b346104755760403660031901126104755761116661115c612dfe565b602435903361382f565b602060405160018152f35b3461047557600036600319011261047557600d546040516001600160a01b039091168152602090f35b34610475576040366003190112610475576111b3612dfe565b60243590336000526002602052604060002060018060a01b038216600052602052604060002054918083106111ee57611166920390336136e2565b60405162461bcd60e51b815260206004820152602560248201527f45524332303a2064656372656173656420616c6c6f77616e63652062656c6f77604482015264207a65726f60d81b6064820152608490fd5b346104755761124f36612e5f565b9033600052602660205261126a60ff60406000205416612fe0565b670de0b6b3a764000080820290828204148215171561069057601355611293602854831061471f565b6112a160ff61035084612fa5565b6112aa826147c9565b60275411610652576112bb82612fa5565b5090600b6001830154036106155760008051602061485983398151915260207f575beb4f9d024a957fea2f529f8545a4962564551d15f927269d203b31f349b4948194600160ff19825416179055604051908152a1604051908152a1005b346104755760003660031901126104755760225460235460245460408051938452602084019290925290820152606090f35b346104755760203660031901126104755760043560285481101561047557600360609160286000520260ff817fe16da923a2d88192e5070f37b4571d58682c0d66212ec634d495f33de3f77ab5015416907fe16da923a2d88192e5070f37b4571d58682c0d66212ec634d495f33de3f77ab6810154907fe16da923a2d88192e5070f37b4571d58682c0d66212ec634d495f33de3f77ab760018060a01b039101541690604051921515835260208301526040820152f35b346104755760603660031901126104755761141b612e84565b602435906044359033600052602660205261143d60ff60406000205416612fe0565b828004600114831517156106905782600b55151560ff199283600a541660ff831617600a5561146f602854841061471f565b61147d60ff61035085612fa5565b611486836147c9565b602754116106525761149783612fa5565b5060076001820154036106155760206040948260017ffa4011cdf98f199f8dfb40850066df236ce0c61ec9ca8cf7df069471144fb92d986000805160206148598339815191529554161790558551908152a182519182526020820152a1005b34610475576020806003193601126104755760043590336000526026815261152560ff60406000205416612fe0565b600261153083612fa5565b500160018060a01b039081815416806000526004845260ff60406000205416611682578060005260008452604060002054611660575b508181541660005260048352604060002060ff19906001828254161790558282541660075490600160401b821015611062576115ab8260016115cf9401600755612d21565b90919082549060031b9160018060a01b039283811b93849216901b16911916179055565b6115dc602854861061471f565b6115ea60ff61035087612fa5565b6115f3856147c9565b602754116107fa5761160485612fa5565b509060026001830154036107bd577f8cd08ff476550dec3de6ea6137b3eaca4ab9ae21761ea26eb09cb6305fd424a8958260018793600080516020614859833981519152955416179055604051908152a15416604051908152a1005b61166e6040600020546131ec565b906000526001845260406000205584611566565b60405162461bcd60e51b815260048101859052601b60248201527f4163636f756e7420697320616c7265616479206578636c7564656400000000006044820152606490fd5b34610475576000366003190112610475576104d56040516116e781612ec3565b60038152621354d560ea1b602082015260405191829182612db5565b34610475576020366003190112610475576001600160a01b03611724612dfe565b166000526004602052602060ff604060002054166040519015158152f35b34610475576000366003190112610475576016546040516001600160a01b039091168152602090f35b34610475576000366003190112610475576020611786614761565b604051908152f35b34610475576040366003190112610475576117a7612e14565b600435600052602960205260406000209060018060a01b0316600052602052602060ff604060002054166040519015158152f35b34610475576040366003190112610475576117f4612dfe565b60243590611805602854831061471f565b33600052602660205261181f60ff60406000205416612fe0565b61182882612fa5565b506001600160a01b039091169081156118b957600201906001600160601b0360a01b82541617905561185d602854821061471f565b61186b60ff61035083612fa5565b611874816147c9565b602754116106525761188581612fa5565b50601260018201540361061557805460ff1916600117905560405190815260008051602061485983398151915290602090a1005b60405162461bcd60e51b815260206004820152601c60248201527f4461746120616464726573732063616e206e6f74206265207a65726f000000006044820152606490fd5b34610475576000366003190112610475576017546040516001600160a01b039091168152602090f35b3461047557600036600319011261047557601c54601d54601e5460408051938452602084019290925290820152606090f35b346104755760203660031901126104755760206117866004356147c9565b34610475576020366003190112610475576020611786611995612dfe565b61310c565b3461047557600036600319011261047557602060ff60085460081c166040519015158152f35b34610475576040366003190112610475576004356119dc612e75565b33600052602090602682526119f860ff60406000205416612fe0565b611a0183612fa5565b50600201546001600160a01b031660009081526006835260409020805460ff191660ff83151516179055611a38602854841061471f565b611a4660ff61035085612fa5565b611a4f836147c9565b6027541161040b57611a6083612fa5565b5060086001820154036103ce57827fb4dd5c2209bde9a21f0e7f65b94f8565474c3c3e744b186e1f9b38e086af280d9460008051602061485983398151915292600160ff19825416179055604051908152a16040519015158152a1005b34610475576000366003190112610475576020601154604051908152f35b34610475576000366003190112610475576020601354604051908152f35b34610475576000366003190112610475576020601254604051908152f35b34610475576020366003190112610475576001600160a01b03611b38612dfe565b166000526005602052602060ff604060002054166040519015158152f35b3461047557604036600319011261047557600435611b72612e75565b3360005260209060268252611b8e60ff60406000205416612fe0565b611b9783612fa5565b50600201546001600160a01b031660009081526005835260409020805460ff191660ff83151516179055611bce602854841061471f565b611bdc60ff61035085612fa5565b611be5836147c9565b6027541161040b57611bf683612fa5565b5060066001820154036103ce57827f9df30a92d8b45281aaad80fbcad933dfe9354bcdee1277231df54e63e55195d79460008051602061485983398151915292600160ff19825416179055604051908152a16040519015158152a1005b3461047557604036600319011261047557611c6c612e84565b602435903360005260209060268252611c8c60ff60406000205416612fe0565b151560018103611d5057600260408051611ca581612e93565b82815260018582015201526002601c556001601d556002601e555b611ccd602854841061471f565b611cdb60ff61035085612fa5565b611ce4836147c9565b6027541161040b57611cf583612fa5565b5060116001820154036103ce57827f2aa8128b3cf57c168078769033a09f2677560674defb313c68f8ec74df66dc909460008051602061485983398151915292600160ff19825416179055604051908152a1604051908152a1005b600060408051611d5f81612e93565b828152828582015201526000601c556000601d556000601e55611cc0565b34610475576020366003190112610475576001600160a01b03611d9e612dfe565b166000526003602052602060ff604060002054166040519015158152f35b3461047557611dca36612f01565b903360005260209260268452611de760ff60406000205416612fe0565b60005b8151811015611e3157611e2c906001600160a01b03611e098285613571565b5116600052600586526107168460406000209060ff801983541691151516179055565b611dea565b509091611e41602854821061471f565b611e4f60ff61035083612fa5565b611e58816147c9565b602754116107fa57611e6981612fa5565b50600f6001820154036107bd57805460ff191660011790556040519081527f191f53b0e0dc669e0bebab999ce36b4af8938f5b060c7b7e6974007743f9c6799360008051602061485983398151915291a16107b8604051928392836146ff565b3461047557600036600319011261047557602060ff600854166040519015158152f35b34610475576040366003190112610475576020611786611f0a612e75565b60043561315c565b3461047557611f2036612e2a565b913360005260209260268452611f3d60ff60406000205416612fe0565b60018060a01b036001600160601b0360a01b9080841682600c541617600c55841690811561201657600d541617600d55611f7a602854821061471f565b611f8860ff61035083612fa5565b611f91816147c9565b602754116107fa57611fa281612fa5565b50600c6001820154036107bd57805460ff191660011790556040519081527f175e4bbeb77c7e49271724a8534bbdd31ea0f809390ee2f57d6b7aa286440eef9360008051602061485983398151915291a1604080516001600160a01b039283168152929091166020830152819081016107b8565b6064866040519062461bcd60e51b825280600483015260248201527f4e6577207061697220616464726573732063616e206e6f74206265207a65726f6044820152fd5b3461047557604036600319011261047557611166612075612dfe565b336000526002602052604060002060018060a01b0382166000526020526120a360243560406000205461314f565b90336136e2565b3461047557600036600319011261047557602060405160128152f35b34610475576020366003190112610475576001600160a01b036120e7612dfe565b166000526026602052602060ff604060002054166040519015158152f35b346104755760203660031901126104755760206117866004356131ec565b346104755761213136612e5f565b9033600052602660205261214c60ff60406000205416612fe0565b670de0b6b3a764000080820290828204148215171561069057601055612175602854831061471f565b61218360ff61035084612fa5565b61218c826147c9565b602754116106525761219d82612fa5565b5090600d6001830154036106155760008051602061485983398151915260207fd9426b58c81d17f6dd4bb6b8680fe18cfcfed49a38648d7d1a2d8fb9806fc218948194600160ff19825416179055604051908152a1604051908152a1005b34610475576000366003190112610475576020601454604051908152f35b3461047557604036600319011261047557600435612235612e14565b90336000526020916026835261225260ff60406000205416612fe0565b601282111580612458575b1561241f5760285491826123a8575b6040519061227982612e93565b600082528482019081526001600160a01b039283166040830190815293600160401b811015611062578060016122b29201602855612fa5565b919091612392576122d4600293511515839060ff801983541691151516179055565b516001820155019151166001600160601b0360a01b82541617905560285460001990818101908111610690576000526029825260406000203360005282526040600020600160ff198254161790556028549081019081116106905760408051338152602081018390527f90ec57f18fa7b15c6b8d5e4d1deb90796c74b2ff23d4d0cecad0cb42a96b31289190a17fe764a167ea16dba9a9b8fdc48c267800565d742612790348c3342f6ed230acfa82604051838152a1604051908152f35b634e487b7160e01b600052600060045260246000fd5b60001983018381116106905760ff6123c1600192612fa5565b50541615151461226c5760405162461bcd60e51b815260048101859052602660248201527f506c656173652045786563757465205175657565205472616e73616374696f6e60448201526508119a5c9cdd60d21b6064820152608490fd5b60405162461bcd60e51b81526004810184905260116024820152701a5b9d985b1a59081b595d1a1bd9081a59607a1b6044820152606490fd5b5081151561225d565b34610475576020806003193601126104755760043590336000526026815261249060ff60406000205416612fe0565b61249d602854831061471f565b8160005260298152604060002033600052815260ff6040600020541661252957816107b8916124f160ff6103507f90ec57f18fa7b15c6b8d5e4d1deb90796c74b2ff23d4d0cecad0cb42a96b312896612fa5565b600082815260298252604080822033808452935290819020805460ff1916600117905580519182526020820192909252918291820190565b6064906040519062461bcd60e51b82526004820152601560248201527474726e782068617320616c726561647920646f6e6560581b6044820152fd5b346104755761257336612e2a565b919060018060a01b0382166000526002602052604060002033600052602052604060002054928084106125bf57611166936125b2826125b7948661382f565b61304d565b9033906136e2565b60405162461bcd60e51b815260206004820152602860248201527f45524332303a207472616e7366657220616d6f756e74206578636565647320616044820152676c6c6f77616e636560c01b6064820152608490fd5b346104755760403660031901126104755761262e612dfe565b60243590336000526020906026825261264e60ff60406000205416612fe0565b6001600160a01b0316801561270157806001600160601b0360a01b601754161760175561267e602854841061471f565b61268c60ff61035085612fa5565b612695836147c9565b6027541161040b576126a683612fa5565b5060096001820154036103ce57827f02662ef2c54ff98367eb3d0304b112d24ff78beb4077efcef65b040baca760ab9460008051602061485983398151915292600160ff19825416179055604051908152a1604051908152a1005b60405162461bcd60e51b815260048101839052602760248201527f6d61726b6574696e6777616c6c657420616464726573732063616e206e6f74206044820152666265207a65726f60c81b6064820152608490fd5b34610475576020806003193601126104755760043590336000526026815261278560ff60406000205416612fe0565b612792602854831061471f565b6127a060ff61035084612fa5565b8160005260298152604060002033600052815260ff604060002054161561281957600082815260298252604080822033808452935290819020805460ff19169055805191825260208201929092527fec9ab91322523c899ede7830ec9bfc992b5981cdcc27b91162fb23de5791117b91819081016107b8565b6064906040519062461bcd60e51b82526004820152601960248201527f74726e7820686173206e6f74206265656e20617070726f7665000000000000006044820152fd5b34610475576000366003190112610475576020600e54604051908152f35b3461047557602080600319360112610475576004359033600052602681526128aa60ff60406000205416612fe0565b60026128b583612fa5565b500180546001600160a01b039190821680156129745760005260038352604060002060ff19906001828254161790556128f1602854861061471f565b6128ff60ff61035087612fa5565b612908856147c9565b602754116107fa5761291985612fa5565b5090600180830154036107bd577fdbde64bef24f6c6798c1137955e0f3ab1ee540536392bea881c4ad3e6d61ecc7958260018793600080516020614859833981519152955416179055604051908152a15416604051908152a1005b60405162461bcd60e51b815260048101859052600f60248201526e696e76616c6964206164647265737360881b6044820152606490fd5b34610475576020806003193601126104755760043590336000526026815260ff906129dc8260406000205416612fe0565b60026129e784612fa5565b500160018060a01b03908181541660005260048352836040600020541615612c205760005b60078054908183101561001b57612a2283612d21565b929054868087541691600395861b1c1614612a4857505050612a439061305a565b612a0c565b600097939192949596971991828201918211610690576115ab88612a6e612a7b94612d21565b905490891b1c1691612d21565b858554169283600052600193848952612aaa604060002054612aa4612a9e613585565b906131cc565b9061303a565b90600052600089526040600020558686541660005283885260006040812055868654166000526004885260406000209260ff19938481541690558054928315612c0a57612b1e930190612afc82612d21565b8a8254918a1b1b1916905555612b156028548a1061471f565b61035089612fa5565b612b27876147c9565b60275411612bcc57612b3887612fa5565b50928284015403612b8f578254161790556040519384527f9351be60d7684154f1d81ed1dcf87da46bbc44b32dad50c57e2722860a9ad48a93600080516020614859833981519152908490a15416604051908152a1005b60405162461bcd60e51b81526004810187905260156024820152741a5b9d985b1a5908119d5b98dd1a5bdb8818d85b1b605a1b6044820152606490fd5b60405162461bcd60e51b81526004810187905260226024820152600080516020614879833981519152604482015261185b60f21b6064820152608490fd5b634e487b7160e01b600052603160045260246000fd5b60405162461bcd60e51b815260048101849052601760248201527f4163636f756e74206973206e6f74206578636c756465640000000000000000006044820152606490fd5b3461047557604036600319011261047557611166612c81612dfe565b60243590336136e2565b34610475576000366003190112610475576104d5604051612cab81612ec3565b601681527526b7bbb3b6349029b0b731ba3ab0b93c902a37b5b2b760511b602082015260405191829182612db5565b346104755760203660031901126104755760043590602554821015610475576025600052600080516020614839833981519152909101546001600160a01b03168152602090f35b600754811015612d585760076000527fa66cc928b5edb82af9bd49922954155ab7b0942694bea4ce44661d9a8736c6880190600090565b634e487b7160e01b600052603260045260246000fd5b602554811015612d585760256000526000805160206148398339815191520190600090565b60255415612d5857602560005260008051602061483983398151915290600090565b6020808252825181830181905290939260005b828110612dea57505060409293506000838284010152601f8019910116010190565b818101860151848201604001528501612dc8565b600435906001600160a01b038216820361047557565b602435906001600160a01b038216820361047557565b6060906003190112610475576001600160a01b0390600435828116810361047557916024359081168103610475579060443590565b6040906003190112610475576004359060243590565b60243590811515820361047557565b60043590811515820361047557565b6060810190811067ffffffffffffffff82111761106257604052565b67ffffffffffffffff811161106257604052565b6040810190811067ffffffffffffffff82111761106257604052565b90601f8019910116810190811067ffffffffffffffff82111761106257604052565b6060600319820112610475576004359067ffffffffffffffff908183116104755780602384011215610475578260040135918211611062578160051b60405193602093612f5085840187612edf565b855260248486019282010192831161047557602401905b828210612f865750505050906024358015158103610475579060443590565b81356001600160a01b0381168103610475578152908301908301612f67565b602854811015612d58576003906028600052027fe16da923a2d88192e5070f37b4571d58682c0d66212ec634d495f33de3f77ab50190600090565b15612fe757565b60405162461bcd60e51b815260206004820152600c60248201526b3737ba1030b71037bbb732b960a11b6044820152606490fd5b9081602091031261047557516001600160a01b03811681036104755790565b8181029291811591840414171561069057565b9190820391821161069057565b60001981146106905760010190565b1561307057565b60405162461bcd60e51b815260206004820152602e60248201527f496e697469616c697a61626c653a20636f6e747261637420697320616c72656160448201526d191e481a5b9a5d1a585b1a5e995960921b6064820152608490fd5b602a5460ff8160081c166000146130ee57506130e9303b15613069565b600090565b806130ff600160ff81941610613069565b60ff191617602a55600190565b6001600160a01b031660009081526004602052604090205460ff1661314157600060205261313e6040600020546131ec565b90565b600160205260406000205490565b9190820180921161069057565b90600e5482116131875761317757613173906132b3565b5190565b6131826020916132b3565b015190565b60405162461bcd60e51b815260206004820152601f60248201527f416d6f756e74206d757374206265206c657373207468616e20737570706c79006044820152606490fd5b81156131d6570490565b634e487b7160e01b600052601260045260246000fd5b600f5481116132045761313e90612a9e612a9e613585565b60405162461bcd60e51b815260206004820152602a60248201527f416d6f756e74206d757374206265206c657373207468616e20746f74616c207260448201526965666c656374696f6e7360b01b6064820152608490fd5b60405190610120820182811067ffffffffffffffff82111761106257604052816101006000918281528260208201528260408201528260608201528260808201528260a08201528260c08201528260e08201520152565b6132bb61325c565b506132c461325c565b906000604080516132d481612e93565b82815282602082015201526132e76133b0565b9060646132f583518361303a565b049160c0840192835261338361336e61337c606461332e60408261331d60208901518a61303a565b049660e08b0197885201518761303a565b0494610100880195865261335161334961334989518461304d565b87519061304d565b60a0890152613375613364612a9e613585565b809481809461303a565b985161303a565b945161303a565b935161303a565b91613396836125b2836125b2868961304d565b926080860152606085015260408401526020830152815290565b604051906133bd82612e93565b601c548252601d546020830152601e546040830152565b604051906133e182612e93565b81601f54815260205460208201526040602154910152565b909261340361325c565b93156134e4576134979260006040805161341c81612e93565b8281528260208201520152806134dc575b1561349f575061348f61343e6133d4565b61348f606461344e83518661303a565b049360c08701948552606461347e60408261346d60208801518661303a565b049560e08b0196875201518361303a565b04946101008801958652519061304d565b90519061304d565b60a082015290565b6134b35761348f6134ae6133b0565b61343e565b61348f6040516134c281612e93565b6019548152601a546020820152601b54604082015261343e565b50801561342d565b5060a08301525090565b919390836134fb9161303a565b93849015613548575061352f6135158460c085015161303a565b936101006135278260e087015161303a565b94015161303a565b90613542826125b2856125b2888a61304d565b93929190565b92506000915081908190565b805115612d585760200190565b805160011015612d585760400190565b8051821015612d585760209160051b010190565b600f549081600e5492839060409283519182906007549485855260208095019583600097600789527fa66cc928b5edb82af9bd49922954155ab7b0942694bea4ce44661d9a8736c68892895b898282106136c3575050506135e892500384612edf565b85985b83518a101561369d576001600160a01b0392836136088c87613571565b51168852878752808989205411801561367e575b6136705761366a9161364761366492866136368f8a613571565b51168b528a8a528b8b20549061304d565b946136528d88613571565b5116895260018852898920549061304d565b9961305a565b986135eb565b505097505050925050509190565b508361368a8c87613571565b511688526001875281898920541161361c565b9850945094505090506136b082826131cc565b83106136bc5750509190565b9350919050565b85546001600160a01b03168452600195860195899550930192016135d1565b6001600160a01b0390811691821561379357169182156137435760207f8c5be1e5ebec7d5bd14f71427d1e84f3dd0314c0f7b2291e5b200ac8c7c3b925918360005260028252604060002085600052825280604060002055604051908152a3565b60405162461bcd60e51b815260206004820152602260248201527f45524332303a20617070726f766520746f20746865207a65726f206164647265604482015261737360f01b6064820152608490fd5b60405162461bcd60e51b8152602060048201526024808201527f45524332303a20617070726f76652066726f6d20746865207a65726f206164646044820152637265737360e01b6064820152608490fd5b156137eb57565b606460405162461bcd60e51b815260206004820152602060248201527f596f752061726520657863656564696e67206d617857616c6c65744c696d69746044820152fd5b916001600160a01b03831691906000831561454c576001600160a01b0383169485156144fb5782156144a4576138649061310c565b8211614445578381526020608052600660205260409260ff84832054161580614434575b156143ff57600d548391906001600160a01b031686811480806143e8575b806143d8575b61436d575b1580614356575b8061433f575b8061432f575b614284575b5050506138d53061310c565b60105490600854908260ff8360101c16159182614275575b8261426a575b505080614255575b8061423e575b80614227575b613c65575b5050600080516020614899833981519152929160a0916001918160ff60085460101c168015613c4f575b8015613c39575b613c30575b600180861b03600d54168914613c28575b61399f61398b613a21928a865260036080515260ff8987205416159081613c16575b81613bfc575b61398361325c565b5087866133f9565b94613997612a9e613585565b9084876134ee565b949291936080969196518901928b8a019560608b019860808c0198895289528652835288528b875260046080515260ff8a88205416613bd6575b508b865260046080515260ff8987205416613bad575b8a86528560805152613a068987205488519061304d565b8b87528660805152898720558b86528886205490519061314f565b8a8552846080515287852055518015801590613ba0575b613b77575b50518015801590613b69575b613ae4575b505190848215801590613ad7575b613a72575b5050500151905190815260805190a3565b613ab19160e0850151613a878160235461314f565b60235530825260046080515260ff8383205416613abb575b5030815280608051522091825461314f565b9055388084613a61565b600160805152613acf83832091825461314f565b905538613a9f565b5060e08401511515613a5c565b613b39906101008501908151613afc8160245461314f565b60245530865260046080515260ff8987205416613b4d575b503085528460805152613b2b88862091825461314f565b90555160e08501519061314f565b85519081528787309260805190a338613a4e565b600160805152613b6189872091825461314f565b905538613b14565b506101008401511515613a49565b613b9790613b8c60c087015191600f5461304d565b600f5560225461314f565b60225538613a3d565b5060c08501511515613a38565b600160805152613bc489872054898901519061314f565b8c8752600160805152898720556139ef565b613be9906001608051528a88205461304d565b8b875260016080515289872055386139d9565b9050613c0d6014546015549061314f565b4311159061397b565b8c87528987205460ff16159150613975565b506001613953565b92508192613942565b5088835260036080515260ff868420541661393d565b5087835260036080515260ff8684205416613936565b600d546001600160a01b03168703613fba575050601054613c846133d4565b6201000062ff0000196008541617600855613ca8858201516080518301519061314f565b91828060011b0460021483151715613fa657613cdd613cd68460011b613cd1898601518561303a565b6131cc565b809261304d565b86514791613cea82612e93565b60028252883660805184013730613d0083613554565b52600c5489516315ab88c960e31b81526080516001600160a01b039092169181600481855afa908115613f9c57918391613d58938b91613f7d575b50613d4586613561565b6001600160a01b039091169052306136e2565b600c546001600160a01b031690813b15613f7957918791613da293838c5180968195829463791ac94760e01b8452600484015283602484015260a0604484015260a48301906146c2565b30606483015242608483015203925af18015613f6f57908691613f57575b5050613dcf613e08914761304d565b93612a9e613dfa613def613de98b8801518560011b61304d565b886131cc565b968a8701519061303a565b91898601519060011b61304d565b9081613e93575b50508160011b9180830460021490151715613e7f5791613e4860008051602061489983398151915295949260a09460805101519061303a565b80613e66575b5062ff000019600854166008555b918193945061390c565b613e7990600180861b036017541661459f565b38613e4e565b634e487b7160e01b83526011600452602483fd5b600c5460609190613eaf9082906001600160a01b0316306136e2565b600c546001600160a01b03169060c490613ec7612d93565b959054938b51968795869463f305d71960e01b865230600487015260248601528b60448601528b606486015260018060a01b039160031b1c1660848401524260a48401525af18015613f4d57613f1e575b80613e0f565b606090813d8111613f46575b613f348183612edf565b81010312613f425738613f18565b8280fd5b503d613f2a565b86513d86823e3d90fd5b613f6090612eaf565b613f6b578438613dc0565b8480fd5b88513d88823e3d90fd5b8780fd5b613f9691506080513d81116110a0576110928183612edf565b38613d3b565b8b513d8b823e3d90fd5b634e487b7160e01b84526011600452602484fd5b62010000613fc66133b0565b9162ff0000191617600855613fe4858201516080518301519061314f565b91828060011b0460021483151715613fa65761400d613cd68460011b613cd1898601518561303a565b8651479161401a82612e93565b6002825288366080518401373061403083613554565b52600c5489516315ab88c960e31b81526080516001600160a01b039092169181600481855afa908115613f9c57918391614074938b91613f7d5750613d4586613561565b600c546001600160a01b031690813b15613f79579187916140be93838c5180968195829463791ac94760e01b8452600484015283602484015260a0604484015260a48301906146c2565b30606483015242608483015203925af18015613f6f5761420e575b50613dcf6140e7914761304d565b9081614158575b50508160011b9180830460021490151715613e7f579161412760008051602061489983398151915295949260a09460805101519061303a565b8061413f575b5062ff00001960085416600855613e5c565b61415290600180861b036017541661459f565b3861412d565b600c54606091906141749082906001600160a01b0316306136e2565b600c546001600160a01b03169060c49061418c612d93565b959054938b51968795869463f305d71960e01b865230600487015260248601528b60448601528b606486015260018060a01b039160031b1c1660848401524260a48401525af18015613f4d576141e3575b806140ee565b606090813d8111614207575b6141f98183612edf565b81010312613f4257386141dd565b503d6141ef565b6140e7919561421f613dcf92612eaf565b9591506140d9565b5086835260036080515260ff858420541615613907565b5085835260036080515260ff858420541615613901565b50600d546001600160a01b03168614156138fb565b1015905082386138f3565b915060ff8360081c16916138ed565b8703614309575b505060ff600a54166142a0575b8138806138c9565b838152602b608051526142b6838220544261304d565b600b54116142d157838152602b608051524283822055614298565b825162461bcd60e51b81526080516004820152601060248201526f10dbdbdb191bdddb88195b98589b195960821b6044820152606490fd5b6143289161431961431e9261310c565b61314f565b60135410156137e4565b813861428b565b5060ff60085460101c16156138c4565b5086845260036080515260ff8685205416156138be565b5087845260036080515260ff8685205416156138b8565b9091925060115485116143935790829161438e61431e87614319819761310c565b6138b1565b855162461bcd60e51b81526080516004820152601d60248201527f596f752061726520657863656564696e67206d61784275794c696d69740000006044820152606490fd5b5060ff60085460101c16156138ac565b5088855260036080515260ff8786205416156138a6565b835162461bcd60e51b81526080516004820152600d60248201526c165bdd48185c99481848189bdd609a1b6044820152606490fd5b5085825260ff848320541615613888565b60405162461bcd60e51b815260206004820152603160248201527f596f752061726520747279696e6720746f207472616e73666572206d6f7265206044820152707468616e20796f75722062616c616e636560781b6064820152608490fd5b60405162461bcd60e51b815260206004820152602960248201527f5472616e7366657220616d6f756e74206d7573742062652067726561746572206044820152687468616e207a65726f60b81b6064820152608490fd5b60405162461bcd60e51b815260206004820152602360248201527f45524332303a207472616e7366657220746f20746865207a65726f206164647260448201526265737360e81b6064820152608490fd5b60405162461bcd60e51b815260206004820152602560248201527f45524332303a207472616e736665722066726f6d20746865207a65726f206164604482015264647265737360d81b6064820152608490fd5b81471061467d57600080808094819460018060a01b03165af1903d15614677573d9067ffffffffffffffff821161466357604051916145e8601f8201601f191660200184612edf565b825260203d92013e5b156145f857565b60405162461bcd60e51b815260206004820152603a60248201527f416464726573733a20756e61626c6520746f2073656e642076616c75652c207260448201527f6563697069656e74206d617920686176652072657665727465640000000000006064820152608490fd5b634e487b7160e01b81526041600452602490fd5b506145f1565b60405162461bcd60e51b815260206004820152601d60248201527f416464726573733a20696e73756666696369656e742062616c616e63650000006044820152606490fd5b90815180825260208080930193019160005b8281106146e2575050505090565b83516001600160a01b0316855293810193928101926001016146d4565b906147176020919493946040845260408401906146c2565b931515910152565b1561472657565b60405162461bcd60e51b81526020600482015260136024820152721d1c9b9e08191bd95cc81b9bdd08195e1a5cdd606a1b6044820152606490fd5b6028548061476e57600080fd5b60001981019081116106905790565b1561478457565b60405162461bcd60e51b815260206004820152601960248201527f74726e782068617320616c7265616479206578656375746564000000000000006044820152606490fd5b602554600091825b8281106147de5750505090565b8160005260ff60206029815260409081600020906147fb85612d6e565b60018060a01b0391549060031b1c16600052526000205416614826575b6148219061305a565b6147d1565b9260018101809111610690579261481856fe401968ff42a154441da5f6c4c935ac46b8671f0e062baaa62a7545ba53bb6e4cddb556f1d2c1ec821e910b019d3685b229db152a0ecd517ca7e24b8bd7139289796f7520646f6e277420686176652073756666696369656e7420617070726f76ddf252ad1be2c89b69c2b068fc378daa952ba7f163c4a11628f55a4df523b3efa2646970667358221220426d9f3da4aa0b682a8ca690431dae0fe8f43def55f8f94beca0e19e6edd49fb64736f6c63430008110033","opcodes":"PUSH1 0x80 DUP1 PUSH1 0x40 MSTORE CALLVALUE PUSH2 0x16 JUMPI PUSH2 0x48EE SWAP1 DUP2 PUSH2 0x1C DUP3 CODECOPY RETURN JUMPDEST PUSH1 0x0 DUP1 REVERT INVALID PUSH1 0xA0 DUP1 PUSH1 0x40 MSTORE PUSH1 0x4 CALLDATASIZE LT ISZERO PUSH2 0x1D JUMPI JUMPDEST POP CALLDATASIZE ISZERO PUSH2 0x1B JUMPI PUSH1 0x0 DUP1 REVERT JUMPDEST STOP JUMPDEST PUSH1 0x0 CALLDATALOAD PUSH1 0xE0 SHR SWAP1 DUP2 PUSH4 0x25E7C27 EQ PUSH2 0x2CDA JUMPI POP DUP1 PUSH4 0x6FDDE03 EQ PUSH2 0x2C8B JUMPI DUP1 PUSH4 0x95EA7B3 EQ PUSH2 0x2C65 JUMPI DUP1 PUSH4 0x112BB58E EQ PUSH2 0x29AB JUMPI DUP1 PUSH4 0x17BD4CDE EQ PUSH2 0x287B JUMPI DUP1 PUSH4 0x18160DDD EQ PUSH2 0x285D JUMPI DUP1 PUSH4 0x20C5429B EQ PUSH2 0x2756 JUMPI DUP1 PUSH4 0x23797808 EQ PUSH2 0x2615 JUMPI DUP1 PUSH4 0x23B872DD EQ PUSH2 0x2565 JUMPI DUP1 PUSH4 0x242232D1 EQ PUSH2 0x2461 JUMPI DUP1 PUSH4 0x2671D558 EQ PUSH2 0x2219 JUMPI DUP1 PUSH4 0x274A533C EQ PUSH2 0x21FB JUMPI DUP1 PUSH4 0x2C0E22CC EQ PUSH2 0x2123 JUMPI DUP1 PUSH4 0x2D838119 EQ PUSH2 0x2105 JUMPI DUP1 PUSH4 0x2F54BF6E EQ PUSH2 0x20C6 JUMPI DUP1 PUSH4 0x313CE567 EQ PUSH2 0x20AA JUMPI DUP1 PUSH4 0x39509351 EQ PUSH2 0x2059 JUMPI DUP1 PUSH4 0x3E4E7FBF EQ PUSH2 0x1F12 JUMPI DUP1 PUSH4 0x4549B039 EQ PUSH2 0x1EEC JUMPI DUP1 PUSH4 0x4ADA218B EQ PUSH2 0x1EC9 JUMPI DUP1 PUSH4 0x53075D3F EQ PUSH2 0x1DBC JUMPI DUP1 PUSH4 0x5342ACB4 EQ PUSH2 0x1D7D JUMPI DUP1 PUSH4 0x538CA8F4 EQ PUSH2 0x1C53 JUMPI DUP1 PUSH4 0x584A56CC EQ PUSH2 0x1B56 JUMPI DUP1 PUSH4 0x62695EAE EQ PUSH2 0x1B17 JUMPI DUP1 PUSH4 0x652E2F04 EQ PUSH2 0x1AF9 JUMPI DUP1 PUSH4 0x66A88D96 EQ PUSH2 0x1ADB JUMPI DUP1 PUSH4 0x6AA5B37F EQ PUSH2 0x1ABD JUMPI DUP1 PUSH4 0x6C6B9BB2 EQ PUSH2 0x19C0 JUMPI DUP1 PUSH4 0x6DDD1713 EQ PUSH2 0x199A JUMPI DUP1 PUSH4 0x70A08231 EQ PUSH2 0x1977 JUMPI DUP1 PUSH4 0x70DA913C EQ PUSH2 0x1959 JUMPI DUP1 PUSH4 0x728F8EEA EQ PUSH2 0x1927 JUMPI DUP1 PUSH4 0x75F0A874 EQ PUSH2 0x18FE JUMPI DUP1 PUSH4 0x81308721 EQ PUSH2 0x17DB JUMPI DUP1 PUSH4 0x8253951A EQ PUSH2 0x178E JUMPI DUP1 PUSH4 0x825F375E EQ PUSH2 0x176B JUMPI DUP1 PUSH4 0x85141A77 EQ PUSH2 0x1742 JUMPI DUP1 PUSH4 0x88F82020 EQ PUSH2 0x1703 JUMPI DUP1 PUSH4 0x95D89B41 EQ PUSH2 0x16C7 JUMPI DUP1 PUSH4 0x97DD3E99 EQ PUSH2 0x14F6 JUMPI DUP1 PUSH4 0x987B2205 EQ PUSH2 0x1402 JUMPI DUP1 PUSH4 0x9ACE38C2 EQ PUSH2 0x134B JUMPI DUP1 PUSH4 0x9BA5E4D5 EQ PUSH2 0x1319 JUMPI DUP1 PUSH4 0x9F6DD004 EQ PUSH2 0x1241 JUMPI DUP1 PUSH4 0xA457C2D7 EQ PUSH2 0x119A JUMPI DUP1 PUSH4 0xA8AA1B31 EQ PUSH2 0x1171 JUMPI DUP1 PUSH4 0xA9059CBB EQ PUSH2 0x1140 JUMPI DUP1 PUSH4 0xC4D66DE8 EQ PUSH2 0x9FF JUMPI DUP1 PUSH4 0xC95A20D1 EQ PUSH2 0x8EE JUMPI DUP1 PUSH4 0xCA33E64C EQ PUSH2 0x8C5 JUMPI DUP1 PUSH4 0xCC960294 EQ PUSH2 0x8A7 JUMPI DUP1 PUSH4 0xD2CE0DB2 EQ PUSH2 0x889 JUMPI DUP1 PUSH4 0xDD62ED3E EQ PUSH2 0x838 JUMPI DUP1 PUSH4 0xDE3E85A5 EQ PUSH2 0x6A6 JUMPI DUP1 PUSH4 0xE1B450AD EQ PUSH2 0x51A JUMPI DUP1 PUSH4 0xE2F45605 EQ PUSH2 0x4FC JUMPI DUP1 PUSH4 0xEE36E359 EQ PUSH2 0x4D9 JUMPI DUP1 PUSH4 0xF66895A3 EQ PUSH2 0x4A3 JUMPI DUP1 PUSH4 0xF887EA40 EQ PUSH2 0x47A JUMPI PUSH4 0xFE72FB67 EQ PUSH2 0x2C9 JUMPI CODESIZE PUSH2 0xF JUMP JUMPDEST CALLVALUE PUSH2 0x475 JUMPI PUSH1 0x40 CALLDATASIZE PUSH1 0x3 NOT ADD SLT PUSH2 0x475 JUMPI PUSH2 0x2E2 PUSH2 0x2E84 JUMP JUMPDEST PUSH1 0x24 CALLDATALOAD SWAP1 CALLER PUSH1 0x0 MSTORE PUSH1 0x20 SWAP1 PUSH1 0x26 DUP3 MSTORE PUSH2 0x302 PUSH1 0xFF PUSH1 0x40 PUSH1 0x0 KECCAK256 SLOAD AND PUSH2 0x2FE0 JUMP JUMPDEST ISZERO ISZERO PUSH1 0x1 DUP2 SUB PUSH2 0x449 JUMPI PUSH1 0x2 PUSH1 0x40 DUP1 MLOAD PUSH2 0x31B DUP2 PUSH2 0x2E93 JUMP JUMPDEST DUP3 DUP2 MSTORE PUSH1 0x1 DUP6 DUP3 ADD MSTORE ADD MSTORE PUSH1 0x2 PUSH1 0x1F SSTORE PUSH1 0x1 DUP3 SSTORE PUSH1 0x2 PUSH1 0x21 SSTORE JUMPDEST PUSH2 0x342 PUSH1 0x28 SLOAD DUP5 LT PUSH2 0x471F JUMP JUMPDEST PUSH2 0x359 PUSH1 0xFF PUSH2 0x350 DUP6 PUSH2 0x2FA5 JUMP JUMPDEST POP SLOAD AND ISZERO PUSH2 0x477D JUMP JUMPDEST PUSH2 0x362 DUP4 PUSH2 0x47C9 JUMP JUMPDEST PUSH1 0x27 SLOAD GT PUSH2 0x40B JUMPI PUSH2 0x373 DUP4 PUSH2 0x2FA5 JUMP JUMPDEST POP PUSH1 0x10 PUSH1 0x1 DUP3 ADD SLOAD SUB PUSH2 0x3CE JUMPI DUP3 PUSH32 0x2AA8128B3CF57C168078769033A09F2677560674DEFB313C68F8EC74DF66DC90 SWAP5 PUSH1 0x0 DUP1 MLOAD PUSH1 0x20 PUSH2 0x4859 DUP4 CODECOPY DUP2 MLOAD SWAP2 MSTORE SWAP3 PUSH1 0x1 PUSH1 0xFF NOT DUP3 SLOAD AND OR SWAP1 SSTORE PUSH1 0x40 MLOAD SWAP1 DUP2 MSTORE LOG1 PUSH1 0x40 MLOAD SWAP1 DUP2 MSTORE LOG1 STOP JUMPDEST PUSH1 0x40 MLOAD PUSH3 0x461BCD PUSH1 0xE5 SHL DUP2 MSTORE PUSH1 0x4 DUP2 ADD DUP5 SWAP1 MSTORE PUSH1 0x15 PUSH1 0x24 DUP3 ADD MSTORE PUSH21 0x1A5B9D985B1A5908119D5B98DD1A5BDB8818D85B1B PUSH1 0x5A SHL PUSH1 0x44 DUP3 ADD MSTORE PUSH1 0x64 SWAP1 REVERT JUMPDEST PUSH1 0x40 MLOAD PUSH3 0x461BCD PUSH1 0xE5 SHL DUP2 MSTORE PUSH1 0x4 DUP2 ADD DUP4 SWAP1 MSTORE PUSH1 0x22 PUSH1 0x24 DUP3 ADD MSTORE PUSH1 0x0 DUP1 MLOAD PUSH1 0x20 PUSH2 0x4879 DUP4 CODECOPY DUP2 MLOAD SWAP2 MSTORE PUSH1 0x44 DUP3 ADD MSTORE PUSH2 0x185B PUSH1 0xF2 SHL PUSH1 0x64 DUP3 ADD MSTORE PUSH1 0x84 SWAP1 REVERT JUMPDEST PUSH1 0x0 PUSH1 0x40 DUP1 MLOAD PUSH2 0x458 DUP2 PUSH2 0x2E93 JUMP JUMPDEST DUP3 DUP2 MSTORE DUP3 DUP6 DUP3 ADD MSTORE ADD MSTORE PUSH1 0x0 PUSH1 0x1F SSTORE PUSH1 0x0 DUP3 SSTORE PUSH1 0x0 PUSH1 0x21 SSTORE PUSH2 0x335 JUMP JUMPDEST PUSH1 0x0 DUP1 REVERT JUMPDEST CALLVALUE PUSH2 0x475 JUMPI PUSH1 0x0 CALLDATASIZE PUSH1 0x3 NOT ADD SLT PUSH2 0x475 JUMPI PUSH1 0xC SLOAD PUSH1 0x40 MLOAD PUSH1 0x1 PUSH1 0x1 PUSH1 0xA0 SHL SUB SWAP1 SWAP2 AND DUP2 MSTORE PUSH1 0x20 SWAP1 RETURN JUMPDEST CALLVALUE PUSH2 0x475 JUMPI PUSH1 0x0 CALLDATASIZE PUSH1 0x3 NOT ADD SLT PUSH2 0x475 JUMPI PUSH1 0x1F SLOAD PUSH1 0x20 DUP1 SLOAD PUSH1 0x21 SLOAD PUSH1 0x40 DUP1 MLOAD SWAP5 DUP6 MSTORE SWAP3 DUP5 ADD SWAP2 SWAP1 SWAP2 MSTORE SWAP1 DUP3 ADD MSTORE PUSH1 0x60 SWAP1 RETURN JUMPDEST SUB SWAP1 RETURN JUMPDEST CALLVALUE PUSH2 0x475 JUMPI PUSH1 0x0 CALLDATASIZE PUSH1 0x3 NOT ADD SLT PUSH2 0x475 JUMPI PUSH1 0x20 PUSH1 0xFF PUSH1 0xA SLOAD AND PUSH1 0x40 MLOAD SWAP1 ISZERO ISZERO DUP2 MSTORE RETURN JUMPDEST CALLVALUE PUSH2 0x475 JUMPI PUSH1 0x0 CALLDATASIZE PUSH1 0x3 NOT ADD SLT PUSH2 0x475 JUMPI PUSH1 0x20 PUSH1 0x10 SLOAD PUSH1 0x40 MLOAD SWAP1 DUP2 MSTORE RETURN JUMPDEST CALLVALUE PUSH2 0x475 JUMPI PUSH1 0x60 CALLDATASIZE PUSH1 0x3 NOT ADD SLT PUSH2 0x475 JUMPI PUSH1 0x4 CALLDATALOAD PUSH1 0x24 CALLDATALOAD PUSH1 0x44 CALLDATALOAD SWAP2 CALLER PUSH1 0x0 MSTORE PUSH1 0x26 PUSH1 0x20 MSTORE PUSH2 0x54F PUSH1 0xFF PUSH1 0x40 PUSH1 0x0 KECCAK256 SLOAD AND PUSH2 0x2FE0 JUMP JUMPDEST PUSH8 0xDE0B6B3A7640000 DUP1 DUP3 MUL DUP3 DUP2 DIV DUP3 EQ DUP4 ISZERO OR ISZERO PUSH2 0x690 JUMPI PUSH1 0x11 SSTORE DUP1 DUP4 MUL SWAP1 DUP4 DUP3 DIV EQ DUP4 ISZERO OR ISZERO PUSH2 0x690 JUMPI PUSH1 0x12 SSTORE PUSH2 0x58B PUSH1 0x28 SLOAD DUP5 LT PUSH2 0x471F JUMP JUMPDEST PUSH2 0x599 PUSH1 0xFF PUSH2 0x350 DUP6 PUSH2 0x2FA5 JUMP JUMPDEST PUSH2 0x5A2 DUP4 PUSH2 0x47C9 JUMP JUMPDEST PUSH1 0x27 SLOAD GT PUSH2 0x652 JUMPI PUSH2 0x5B3 DUP4 PUSH2 0x2FA5 JUMP JUMPDEST POP SWAP2 PUSH1 0xA PUSH1 0x1 DUP5 ADD SLOAD SUB PUSH2 0x615 JUMPI PUSH1 0x0 DUP1 MLOAD PUSH1 0x20 PUSH2 0x4859 DUP4 CODECOPY DUP2 MLOAD SWAP2 MSTORE PUSH1 0x20 PUSH32 0x27753D76D86E2580A6535641FD05C753F41398B68D711D3A8BD15E94118772D8 SWAP6 PUSH1 0x40 SWAP6 PUSH1 0x1 PUSH1 0xFF NOT DUP3 SLOAD AND OR SWAP1 SSTORE DUP6 MLOAD SWAP1 DUP2 MSTORE LOG1 DUP3 MLOAD SWAP2 DUP3 MSTORE PUSH1 0x20 DUP3 ADD MSTORE LOG1 STOP JUMPDEST PUSH1 0x40 MLOAD PUSH3 0x461BCD PUSH1 0xE5 SHL DUP2 MSTORE PUSH1 0x20 PUSH1 0x4 DUP3 ADD MSTORE PUSH1 0x15 PUSH1 0x24 DUP3 ADD MSTORE PUSH21 0x1A5B9D985B1A5908119D5B98DD1A5BDB8818D85B1B PUSH1 0x5A SHL PUSH1 0x44 DUP3 ADD MSTORE PUSH1 0x64 SWAP1 REVERT JUMPDEST PUSH1 0x40 MLOAD PUSH3 0x461BCD PUSH1 0xE5 SHL DUP2 MSTORE PUSH1 0x20 PUSH1 0x4 DUP3 ADD MSTORE PUSH1 0x22 PUSH1 0x24 DUP3 ADD MSTORE PUSH1 0x0 DUP1 MLOAD PUSH1 0x20 PUSH2 0x4879 DUP4 CODECOPY DUP2 MLOAD SWAP2 MSTORE PUSH1 0x44 DUP3 ADD MSTORE PUSH2 0x185B PUSH1 0xF2 SHL PUSH1 0x64 DUP3 ADD MSTORE PUSH1 0x84 SWAP1 REVERT JUMPDEST PUSH4 0x4E487B71 PUSH1 0xE0 SHL PUSH1 0x0 MSTORE PUSH1 0x11 PUSH1 0x4 MSTORE PUSH1 0x24 PUSH1 0x0 REVERT JUMPDEST CALLVALUE PUSH2 0x475 JUMPI PUSH2 0x6B4 CALLDATASIZE PUSH2 0x2F01 JUMP JUMPDEST SWAP1 CALLER PUSH1 0x0 MSTORE PUSH1 0x20 SWAP3 PUSH1 0x26 DUP5 MSTORE PUSH2 0x6D1 PUSH1 0xFF PUSH1 0x40 PUSH1 0x0 KECCAK256 SLOAD AND PUSH2 0x2FE0 JUMP JUMPDEST PUSH1 0x0 JUMPDEST DUP2 MLOAD DUP2 LT ISZERO PUSH2 0x720 JUMPI PUSH2 0x71B SWAP1 PUSH1 0x1 PUSH1 0x1 PUSH1 0xA0 SHL SUB PUSH2 0x6F3 DUP3 DUP6 PUSH2 0x3571 JUMP JUMPDEST MLOAD AND PUSH1 0x0 MSTORE PUSH1 0x6 DUP7 MSTORE PUSH2 0x716 DUP5 PUSH1 0x40 PUSH1 0x0 KECCAK256 SWAP1 PUSH1 0xFF DUP1 NOT DUP4 SLOAD AND SWAP2 ISZERO ISZERO AND OR SWAP1 SSTORE JUMP JUMPDEST PUSH2 0x305A JUMP JUMPDEST PUSH2 0x6D4 JUMP JUMPDEST POP SWAP1 SWAP2 PUSH2 0x730 PUSH1 0x28 SLOAD DUP3 LT PUSH2 0x471F JUMP JUMPDEST PUSH2 0x73E PUSH1 0xFF PUSH2 0x350 DUP4 PUSH2 0x2FA5 JUMP JUMPDEST PUSH2 0x747 DUP2 PUSH2 0x47C9 JUMP JUMPDEST PUSH1 0x27 SLOAD GT PUSH2 0x7FA JUMPI PUSH2 0x758 DUP2 PUSH2 0x2FA5 JUMP JUMPDEST POP PUSH1 0xE PUSH1 0x1 DUP3 ADD SLOAD SUB PUSH2 0x7BD JUMPI DUP1 SLOAD PUSH1 0xFF NOT AND PUSH1 0x1 OR SWAP1 SSTORE PUSH1 0x40 MLOAD SWAP1 DUP2 MSTORE PUSH32 0x69658000C6A55369E18013A2245D930872FAF496D5F06E18B00A14D5746848E2 SWAP4 PUSH1 0x0 DUP1 MLOAD PUSH1 0x20 PUSH2 0x4859 DUP4 CODECOPY DUP2 MLOAD SWAP2 MSTORE SWAP2 LOG1 PUSH2 0x7B8 PUSH1 0x40 MLOAD SWAP3 DUP4 SWAP3 DUP4 PUSH2 0x46FF JUMP JUMPDEST SUB SWAP1 LOG1 STOP JUMPDEST PUSH1 0x40 MLOAD PUSH3 0x461BCD PUSH1 0xE5 SHL DUP2 MSTORE PUSH1 0x4 DUP2 ADD DUP7 SWAP1 MSTORE PUSH1 0x15 PUSH1 0x24 DUP3 ADD MSTORE PUSH21 0x1A5B9D985B1A5908119D5B98DD1A5BDB8818D85B1B PUSH1 0x5A SHL PUSH1 0x44 DUP3 ADD MSTORE PUSH1 0x64 SWAP1 REVERT JUMPDEST PUSH1 0x40 MLOAD PUSH3 0x461BCD PUSH1 0xE5 SHL DUP2 MSTORE PUSH1 0x4 DUP2 ADD DUP6 SWAP1 MSTORE PUSH1 0x22 PUSH1 0x24 DUP3 ADD MSTORE PUSH1 0x0 DUP1 MLOAD PUSH1 0x20 PUSH2 0x4879 DUP4 CODECOPY DUP2 MLOAD SWAP2 MSTORE PUSH1 0x44 DUP3 ADD MSTORE PUSH2 0x185B PUSH1 0xF2 SHL PUSH1 0x64 DUP3 ADD MSTORE PUSH1 0x84 SWAP1 REVERT JUMPDEST CALLVALUE PUSH2 0x475 JUMPI PUSH1 0x40 CALLDATASIZE PUSH1 0x3 NOT ADD SLT PUSH2 0x475 JUMPI PUSH2 0x851 PUSH2 0x2DFE JUMP JUMPDEST PUSH2 0x859 PUSH2 0x2E14 JUMP JUMPDEST SWAP1 PUSH1 0x1 DUP1 PUSH1 0xA0 SHL SUB DUP1 SWAP2 AND PUSH1 0x0 MSTORE PUSH1 0x2 PUSH1 0x20 MSTORE PUSH1 0x40 PUSH1 0x0 KECCAK256 SWAP2 AND PUSH1 0x0 MSTORE PUSH1 0x20 MSTORE PUSH1 0x20 PUSH1 0x40 PUSH1 0x0 KECCAK256 SLOAD PUSH1 0x40 MLOAD SWAP1 DUP2 MSTORE RETURN JUMPDEST CALLVALUE PUSH2 0x475 JUMPI PUSH1 0x0 CALLDATASIZE PUSH1 0x3 NOT ADD SLT PUSH2 0x475 JUMPI PUSH1 0x20 PUSH1 0xB SLOAD PUSH1 0x40 MLOAD SWAP1 DUP2 MSTORE RETURN JUMPDEST CALLVALUE PUSH2 0x475 JUMPI PUSH1 0x0 CALLDATASIZE PUSH1 0x3 NOT ADD SLT PUSH2 0x475 JUMPI PUSH1 0x20 PUSH1 0x27 SLOAD PUSH1 0x40 MLOAD SWAP1 DUP2 MSTORE RETURN JUMPDEST CALLVALUE PUSH2 0x475 JUMPI PUSH1 0x0 CALLDATASIZE PUSH1 0x3 NOT ADD SLT PUSH2 0x475 JUMPI PUSH1 0x18 SLOAD PUSH1 0x40 MLOAD PUSH1 0x1 PUSH1 0x1 PUSH1 0xA0 SHL SUB SWAP1 SWAP2 AND DUP2 MSTORE PUSH1 0x20 SWAP1 RETURN JUMPDEST CALLVALUE PUSH2 0x475 JUMPI PUSH2 0x8FC CALLDATASIZE PUSH2 0x2E5F JUMP JUMPDEST SWAP1 CALLER PUSH1 0x0 MSTORE PUSH1 0x20 SWAP1 PUSH1 0x26 DUP3 MSTORE PUSH2 0x919 PUSH1 0xFF PUSH1 0x40 PUSH1 0x0 KECCAK256 SLOAD AND PUSH2 0x2FE0 JUMP JUMPDEST DUP1 SELFBALANCE LT PUSH2 0x9BA JUMPI PUSH2 0x92A DUP2 CALLER PUSH2 0x459F JUMP JUMPDEST PUSH2 0x937 PUSH1 0x28 SLOAD DUP5 LT PUSH2 0x471F JUMP JUMPDEST PUSH2 0x945 PUSH1 0xFF PUSH2 0x350 DUP6 PUSH2 0x2FA5 JUMP JUMPDEST PUSH2 0x94E DUP4 PUSH2 0x47C9 JUMP JUMPDEST PUSH1 0x27 SLOAD GT PUSH2 0x40B JUMPI PUSH2 0x95F DUP4 PUSH2 0x2FA5 JUMP JUMPDEST POP PUSH1 0x5 PUSH1 0x1 DUP3 ADD SLOAD SUB PUSH2 0x3CE JUMPI DUP3 PUSH32 0xC806A2E979C8F1A76FE7B47E2BCEB111E789DDA4D0DA93D0E5DF7F56F344B1FF SWAP5 PUSH1 0x0 DUP1 MLOAD PUSH1 0x20 PUSH2 0x4859 DUP4 CODECOPY DUP2 MLOAD SWAP2 MSTORE SWAP3 PUSH1 0x1 PUSH1 0xFF NOT DUP3 SLOAD AND OR SWAP1 SSTORE PUSH1 0x40 MLOAD SWAP1 DUP2 MSTORE LOG1 PUSH1 0x40 MLOAD SWAP1 DUP2 MSTORE LOG1 STOP JUMPDEST PUSH1 0x40 MLOAD PUSH3 0x461BCD PUSH1 0xE5 SHL DUP2 MSTORE PUSH1 0x4 DUP2 ADD DUP4 SWAP1 MSTORE PUSH1 0x18 PUSH1 0x24 DUP3 ADD MSTORE PUSH32 0x696E73756666696369656E7420424E422062616C616E63650000000000000000 PUSH1 0x44 DUP3 ADD MSTORE PUSH1 0x64 SWAP1 REVERT JUMPDEST CALLVALUE PUSH2 0x475 JUMPI PUSH1 0x20 CALLDATASIZE PUSH1 0x3 NOT ADD SLT PUSH2 0x475 JUMPI PUSH2 0xA18 PUSH2 0x2DFE JUMP JUMPDEST PUSH2 0xA20 PUSH2 0x30CC JUMP JUMPDEST SWAP1 DUP2 PUSH2 0x112C JUMPI JUMPDEST CALLER PUSH1 0x0 MSTORE PUSH1 0x26 PUSH1 0x20 MSTORE PUSH2 0xA41 PUSH1 0xFF PUSH1 0x40 PUSH1 0x0 KECCAK256 SLOAD AND PUSH2 0x2FE0 JUMP JUMPDEST PUSH1 0x1 PUSH1 0x1 PUSH1 0xA0 SHL SUB AND DUP1 ISZERO PUSH2 0x10EF JUMPI PUSH1 0x40 MLOAD PUSH4 0xC45A0155 PUSH1 0xE0 SHL DUP2 MSTORE PUSH1 0x20 DUP2 PUSH1 0x4 DUP2 DUP6 GAS STATICCALL SWAP1 DUP2 ISZERO PUSH2 0x10A7 JUMPI PUSH1 0x0 SWAP2 PUSH2 0x10D0 JUMPI JUMPDEST POP PUSH1 0x40 MLOAD PUSH4 0x15AB88C9 PUSH1 0xE3 SHL DUP2 MSTORE PUSH1 0x20 DUP2 PUSH1 0x4 DUP2 DUP7 GAS STATICCALL SWAP1 DUP2 ISZERO PUSH2 0x10A7 JUMPI PUSH1 0x0 SWAP3 PUSH1 0x20 SWAP3 PUSH2 0xAD7 SWAP3 DUP6 SWAP2 PUSH2 0x10B3 JUMPI JUMPDEST POP PUSH1 0x40 MLOAD PUSH4 0x64E329CB PUSH1 0xE1 SHL DUP2 MSTORE ADDRESS PUSH1 0x4 DUP3 ADD MSTORE PUSH1 0x1 PUSH1 0x1 PUSH1 0xA0 SHL SUB SWAP1 SWAP2 AND PUSH1 0x24 DUP3 ADD MSTORE SWAP4 DUP5 SWAP3 DUP4 SWAP2 SWAP1 DUP3 SWAP1 PUSH1 0x44 DUP3 ADD SWAP1 JUMP JUMPDEST SUB SWAP3 PUSH1 0x1 PUSH1 0x1 PUSH1 0xA0 SHL SUB AND GAS CALL DUP1 ISZERO PUSH2 0x10A7 JUMPI PUSH20 0x1C7F0C770E45030DA303728969821F800DD55476 SWAP2 PUSH1 0x0 SWAP2 PUSH2 0x1078 JUMPI JUMPDEST POP PUSH1 0x1 DUP1 PUSH1 0xA0 SHL SUB AND SWAP2 PUSH1 0x1 PUSH1 0x1 PUSH1 0x60 SHL SUB PUSH1 0xA0 SHL SWAP1 DUP4 DUP3 PUSH1 0xD SLOAD AND OR PUSH1 0xD SSTORE DUP2 PUSH1 0xC SLOAD AND OR PUSH1 0xC SSTORE PUSH2 0x101 PUSH2 0xFFFF NOT PUSH1 0x8 SLOAD AND OR PUSH1 0x8 SSTORE PUSH1 0x3 PUSH1 0x27 SSTORE CALLER DUP2 PUSH1 0x18 SLOAD AND OR PUSH1 0x18 SSTORE PUSH1 0x3C PUSH1 0xB SSTORE PUSH1 0x1 PUSH1 0xFF NOT PUSH1 0xA SLOAD AND OR PUSH1 0xA SSTORE PUSH11 0x4B30D2DFBAF72D44800000 PUSH1 0xE SSTORE PUSH11 0x2F19662E3E2F92EE7FFFFF NOT PUSH1 0xF SSTORE PUSH10 0x133FB2E96728BFD00000 PUSH1 0x10 SSTORE PUSH10 0xC07CFD1E07977E200000 DUP1 PUSH1 0x11 SSTORE DUP1 PUSH1 0x12 SSTORE PUSH1 0x13 SSTORE NUMBER PUSH1 0x14 SSTORE PUSH1 0x0 PUSH1 0x15 SSTORE PUSH2 0xDEAD DUP2 PUSH1 0x16 SLOAD AND OR PUSH1 0x16 SSTORE PUSH1 0x17 SLOAD AND OR PUSH1 0x17 SSTORE PUSH1 0x0 PUSH1 0x40 DUP1 MLOAD PUSH2 0xBD0 DUP2 PUSH2 0x2E93 JUMP JUMPDEST DUP3 DUP2 MSTORE DUP3 PUSH1 0x20 DUP3 ADD MSTORE ADD MSTORE PUSH1 0x0 PUSH1 0x19 SSTORE PUSH1 0x0 PUSH1 0x1A SSTORE PUSH1 0x0 PUSH1 0x1B SSTORE PUSH1 0x0 PUSH1 0x40 DUP1 MLOAD PUSH2 0xBF9 DUP2 PUSH2 0x2E93 JUMP JUMPDEST DUP3 DUP2 MSTORE DUP3 PUSH1 0x20 DUP3 ADD MSTORE ADD MSTORE PUSH1 0x0 PUSH1 0x1C SSTORE PUSH1 0x0 PUSH1 0x1D SSTORE PUSH1 0x0 PUSH1 0x1E SSTORE PUSH1 0x2 PUSH1 0x40 DUP1 MLOAD PUSH2 0xC22 DUP2 PUSH2 0x2E93 JUMP JUMPDEST DUP3 DUP2 MSTORE PUSH1 0x1 PUSH1 0x20 DUP3 ADD MSTORE ADD MSTORE PUSH1 0x2 PUSH1 0x1F SSTORE PUSH1 0x1 PUSH1 0x20 SSTORE PUSH1 0x2 PUSH1 0x21 SSTORE PUSH1 0x0 MSTORE PUSH1 0x3 PUSH1 0x20 MSTORE PUSH1 0x40 PUSH1 0x0 KECCAK256 PUSH1 0x1 PUSH1 0xFF NOT DUP3 SLOAD AND OR SWAP1 SSTORE PUSH1 0x1 DUP1 PUSH1 0xA0 SHL SUB PUSH1 0x16 SLOAD AND PUSH1 0x0 MSTORE PUSH1 0x40 PUSH1 0x0 KECCAK256 PUSH1 0x1 PUSH1 0xFF NOT DUP3 SLOAD AND OR SWAP1 SSTORE PUSH1 0x40 MLOAD PUSH1 0xA0 DUP2 ADD DUP2 DUP2 LT PUSH8 0xFFFFFFFFFFFFFFFF DUP3 GT OR PUSH2 0x1062 JUMPI PUSH1 0x40 MSTORE PUSH20 0x185E6F5BCF406CFD79FFB3AD234FE949B1FC1F2D DUP2 MSTORE PUSH20 0xF5CC2A3EE03BF0268DBD2EADCADD809A0CBDCC84 PUSH1 0x20 DUP3 ADD MSTORE PUSH20 0x8525320621A3B4FFCA04B5952A3CDD82630C7DD7 PUSH1 0x40 DUP3 ADD MSTORE PUSH20 0x285E3E816302B81C5F21FC632E166E323C575A85 PUSH1 0x60 DUP3 ADD MSTORE PUSH20 0x4E18C6F0070BE7AA44786A2678E1DE05ECC62316 PUSH1 0x80 DUP3 ADD MSTORE PUSH1 0x25 SLOAD PUSH1 0x5 PUSH1 0x25 SSTORE DUP1 PUSH1 0x5 LT PUSH2 0x1017 JUMPI JUMPDEST POP PUSH1 0x25 PUSH1 0x0 MSTORE PUSH1 0x0 JUMPDEST PUSH1 0x5 DUP2 LT PUSH2 0xFEC JUMPI DUP3 PUSH1 0x0 JUMPDEST PUSH1 0x25 SLOAD DUP2 LT ISZERO PUSH2 0xE41 JUMPI PUSH2 0xD48 DUP2 PUSH2 0x2D6E JUMP JUMPDEST SWAP1 SLOAD PUSH1 0x3 SWAP2 SWAP1 SWAP2 SHL SHR PUSH1 0x1 PUSH1 0x1 PUSH1 0xA0 SHL SUB AND SWAP1 DUP2 ISZERO PUSH2 0xE0C JUMPI DUP2 PUSH1 0x0 MSTORE PUSH1 0x26 PUSH1 0x20 MSTORE PUSH1 0xFF PUSH1 0x40 PUSH1 0x0 KECCAK256 SLOAD AND PUSH2 0xDC7 JUMPI PUSH2 0xDC2 SWAP2 PUSH1 0x0 MSTORE PUSH1 0x26 PUSH1 0x20 MSTORE PUSH1 0x40 PUSH1 0x0 KECCAK256 PUSH1 0x1 PUSH1 0xFF NOT DUP3 SLOAD AND OR SWAP1 SSTORE PUSH1 0x3 PUSH1 0x20 MSTORE PUSH1 0x40 PUSH1 0x0 KECCAK256 PUSH1 0x1 PUSH1 0xFF NOT DUP3 SLOAD AND OR SWAP1 SSTORE PUSH1 0x5 PUSH1 0x20 MSTORE PUSH1 0x40 PUSH1 0x0 KECCAK256 PUSH1 0x1 PUSH1 0xFF NOT DUP3 SLOAD AND OR SWAP1 SSTORE PUSH2 0x305A JUMP JUMPDEST PUSH2 0xD35 JUMP JUMPDEST PUSH1 0x40 MLOAD PUSH3 0x461BCD PUSH1 0xE5 SHL DUP2 MSTORE PUSH1 0x20 PUSH1 0x4 DUP3 ADD MSTORE PUSH1 0x17 PUSH1 0x24 DUP3 ADD MSTORE PUSH32 0x6F776E657220697320616C726561647920746865726521000000000000000000 PUSH1 0x44 DUP3 ADD MSTORE PUSH1 0x64 SWAP1 REVERT JUMPDEST PUSH1 0x40 MLOAD PUSH3 0x461BCD PUSH1 0xE5 SHL DUP2 MSTORE PUSH1 0x20 PUSH1 0x4 DUP3 ADD MSTORE PUSH1 0xD PUSH1 0x24 DUP3 ADD MSTORE PUSH13 0x34B73B30B634B21037BBB732B9 PUSH1 0x99 SHL PUSH1 0x44 DUP3 ADD MSTORE PUSH1 0x64 SWAP1 REVERT JUMPDEST POP PUSH1 0xF SLOAD CALLER PUSH1 0x0 DUP2 DUP2 MSTORE PUSH1 0x20 DUP2 DUP2 MSTORE PUSH1 0x40 DUP1 DUP4 KECCAK256 SWAP5 SWAP1 SWAP5 SSTORE ADDRESS DUP1 DUP4 MSTORE PUSH1 0x3 DUP3 MSTORE DUP5 DUP4 KECCAK256 DUP1 SLOAD PUSH1 0x1 PUSH1 0xFF NOT SWAP2 DUP3 AND DUP2 OR SWAP1 SWAP3 SSTORE PUSH1 0x17 DUP1 SLOAD PUSH1 0x1 PUSH1 0x1 PUSH1 0xA0 SHL SUB SWAP1 DUP2 AND DUP8 MSTORE DUP9 DUP8 KECCAK256 DUP1 SLOAD DUP5 AND DUP6 OR SWAP1 SSTORE PUSH1 0x16 SLOAD DUP2 AND DUP8 MSTORE DUP9 DUP8 KECCAK256 DUP1 SLOAD DUP5 AND DUP6 OR SWAP1 SSTORE PUSH32 0x3EFC5036FE05C92B9C3FC0CEA34ACB14206CD57734DF649B22774D2D35C1B77C DUP1 SLOAD DUP5 AND DUP6 OR SWAP1 SSTORE PUSH32 0xAB360E1E10C9F724560BC8029134D9D7833875485D0CD50C8128E8CBFD7BC5AD DUP1 SLOAD DUP5 AND DUP6 OR SWAP1 SSTORE SWAP4 DUP7 MSTORE PUSH1 0x5 DUP6 MSTORE DUP8 DUP7 KECCAK256 DUP1 SLOAD DUP4 AND DUP5 OR SWAP1 SSTORE PUSH1 0xD SLOAD DUP5 AND DUP7 MSTORE DUP8 DUP7 KECCAK256 DUP1 SLOAD DUP4 AND DUP5 OR SWAP1 SSTORE SLOAD SWAP1 SWAP3 AND DUP5 MSTORE DUP6 DUP5 KECCAK256 DUP1 SLOAD DUP4 AND DUP3 OR SWAP1 SSTORE PUSH32 0xFCE55F359EC7536995DC53F21ED2590A73429C5294B44C06F08563C496A5AD6E DUP1 SLOAD DUP4 AND DUP3 OR SWAP1 SSTORE PUSH20 0x7EE058420E5937496F5A2096F04CAA7721CF70CC DUP5 MSTORE PUSH32 0x44A2A600709F8CDE8AFD7855CB5942B5D2110B9DB2958ABAC6CF1B0CB7641D05 DUP1 SLOAD SWAP1 SWAP3 AND OR SWAP1 SSTORE PUSH1 0xE SLOAD SWAP4 MLOAD SWAP4 DUP5 MSTORE SWAP2 SWAP3 SWAP1 SWAP2 PUSH1 0x0 DUP1 MLOAD PUSH1 0x20 PUSH2 0x4899 DUP4 CODECOPY DUP2 MLOAD SWAP2 MSTORE SWAP2 LOG3 PUSH2 0xFB4 JUMPI STOP JUMPDEST PUSH2 0xFF00 NOT PUSH1 0x2A SLOAD AND PUSH1 0x2A SSTORE PUSH32 0x7F26B83FF96E1F2B6A682F133852F6798A09C465DA95921460CEFB3847402498 PUSH1 0x20 PUSH1 0x40 MLOAD PUSH1 0x1 DUP2 MSTORE LOG1 STOP JUMPDEST DUP2 MLOAD PUSH1 0x1 PUSH1 0x1 PUSH1 0xA0 SHL SUB AND PUSH1 0x0 DUP1 MLOAD PUSH1 0x20 PUSH2 0x4839 DUP4 CODECOPY DUP2 MLOAD SWAP2 MSTORE DUP3 ADD SSTORE PUSH1 0x20 SWAP1 SWAP2 ADD SWAP1 PUSH1 0x1 ADD PUSH2 0xD29 JUMP JUMPDEST PUSH1 0x0 DUP1 MLOAD PUSH1 0x20 PUSH2 0x4839 DUP4 CODECOPY DUP2 MLOAD SWAP2 MSTORE ADD PUSH32 0x401968FF42A154441DA5F6C4C935AC46B8671F0E062BAAA62A7545BA53BB6E51 JUMPDEST DUP2 DUP2 LT PUSH2 0x1056 JUMPI POP PUSH2 0xD20 JUMP JUMPDEST PUSH1 0x0 DUP2 SSTORE PUSH1 0x1 ADD PUSH2 0x1049 JUMP JUMPDEST PUSH4 0x4E487B71 PUSH1 0xE0 SHL PUSH1 0x0 MSTORE PUSH1 0x41 PUSH1 0x4 MSTORE PUSH1 0x24 PUSH1 0x0 REVERT JUMPDEST PUSH2 0x109A SWAP2 POP PUSH1 0x20 RETURNDATASIZE PUSH1 0x20 GT PUSH2 0x10A0 JUMPI JUMPDEST PUSH2 0x1092 DUP2 DUP4 PUSH2 0x2EDF JUMP JUMPDEST DUP2 ADD SWAP1 PUSH2 0x301B JUMP JUMPDEST DUP5 PUSH2 0xB08 JUMP JUMPDEST POP RETURNDATASIZE PUSH2 0x1088 JUMP JUMPDEST PUSH1 0x40 MLOAD RETURNDATASIZE PUSH1 0x0 DUP3 RETURNDATACOPY RETURNDATASIZE SWAP1 REVERT JUMPDEST PUSH2 0x10CA SWAP2 POP DUP5 RETURNDATASIZE DUP7 GT PUSH2 0x10A0 JUMPI PUSH2 0x1092 DUP2 DUP4 PUSH2 0x2EDF JUMP JUMPDEST DUP8 PUSH2 0xAA4 JUMP JUMPDEST PUSH2 0x10E9 SWAP2 POP PUSH1 0x20 RETURNDATASIZE PUSH1 0x20 GT PUSH2 0x10A0 JUMPI PUSH2 0x1092 DUP2 DUP4 PUSH2 0x2EDF JUMP JUMPDEST DUP4 PUSH2 0xA75 JUMP JUMPDEST PUSH1 0x40 MLOAD PUSH3 0x461BCD PUSH1 0xE5 SHL DUP2 MSTORE PUSH1 0x20 PUSH1 0x4 DUP3 ADD MSTORE PUSH1 0x15 PUSH1 0x24 DUP3 ADD MSTORE PUSH21 0x2937BABA32B91030B2323932B9B99032B6B83A3C97 PUSH1 0x59 SHL PUSH1 0x44 DUP3 ADD MSTORE PUSH1 0x64 SWAP1 REVERT JUMPDEST PUSH2 0x100 PUSH2 0xFF00 NOT PUSH1 0x2A SLOAD AND OR PUSH1 0x2A SSTORE PUSH2 0xA27 JUMP JUMPDEST CALLVALUE PUSH2 0x475 JUMPI PUSH1 0x40 CALLDATASIZE PUSH1 0x3 NOT ADD SLT PUSH2 0x475 JUMPI PUSH2 0x1166 PUSH2 0x115C PUSH2 0x2DFE JUMP JUMPDEST PUSH1 0x24 CALLDATALOAD SWAP1 CALLER PUSH2 0x382F JUMP JUMPDEST PUSH1 0x20 PUSH1 0x40 MLOAD PUSH1 0x1 DUP2 MSTORE RETURN JUMPDEST CALLVALUE PUSH2 0x475 JUMPI PUSH1 0x0 CALLDATASIZE PUSH1 0x3 NOT ADD SLT PUSH2 0x475 JUMPI PUSH1 0xD SLOAD PUSH1 0x40 MLOAD PUSH1 0x1 PUSH1 0x1 PUSH1 0xA0 SHL SUB SWAP1 SWAP2 AND DUP2 MSTORE PUSH1 0x20 SWAP1 RETURN JUMPDEST CALLVALUE PUSH2 0x475 JUMPI PUSH1 0x40 CALLDATASIZE PUSH1 0x3 NOT ADD SLT PUSH2 0x475 JUMPI PUSH2 0x11B3 PUSH2 0x2DFE JUMP JUMPDEST PUSH1 0x24 CALLDATALOAD SWAP1 CALLER PUSH1 0x0 MSTORE PUSH1 0x2 PUSH1 0x20 MSTORE PUSH1 0x40 PUSH1 0x0 KECCAK256 PUSH1 0x1 DUP1 PUSH1 0xA0 SHL SUB DUP3 AND PUSH1 0x0 MSTORE PUSH1 0x20 MSTORE PUSH1 0x40 PUSH1 0x0 KECCAK256 SLOAD SWAP2 DUP1 DUP4 LT PUSH2 0x11EE JUMPI PUSH2 0x1166 SWAP3 SUB SWAP1 CALLER PUSH2 0x36E2 JUMP JUMPDEST PUSH1 0x40 MLOAD PUSH3 0x461BCD PUSH1 0xE5 SHL DUP2 MSTORE PUSH1 0x20 PUSH1 0x4 DUP3 ADD MSTORE PUSH1 0x25 PUSH1 0x24 DUP3 ADD MSTORE PUSH32 0x45524332303A2064656372656173656420616C6C6F77616E63652062656C6F77 PUSH1 0x44 DUP3 ADD MSTORE PUSH5 0x207A65726F PUSH1 0xD8 SHL PUSH1 0x64 DUP3 ADD MSTORE PUSH1 0x84 SWAP1 REVERT JUMPDEST CALLVALUE PUSH2 0x475 JUMPI PUSH2 0x124F CALLDATASIZE PUSH2 0x2E5F JUMP JUMPDEST SWAP1 CALLER PUSH1 0x0 MSTORE PUSH1 0x26 PUSH1 0x20 MSTORE PUSH2 0x126A PUSH1 0xFF PUSH1 0x40 PUSH1 0x0 KECCAK256 SLOAD AND PUSH2 0x2FE0 JUMP JUMPDEST PUSH8 0xDE0B6B3A7640000 DUP1 DUP3 MUL SWAP1 DUP3 DUP3 DIV EQ DUP3 ISZERO OR ISZERO PUSH2 0x690 JUMPI PUSH1 0x13 SSTORE PUSH2 0x1293 PUSH1 0x28 SLOAD DUP4 LT PUSH2 0x471F JUMP JUMPDEST PUSH2 0x12A1 PUSH1 0xFF PUSH2 0x350 DUP5 PUSH2 0x2FA5 JUMP JUMPDEST PUSH2 0x12AA DUP3 PUSH2 0x47C9 JUMP JUMPDEST PUSH1 0x27 SLOAD GT PUSH2 0x652 JUMPI PUSH2 0x12BB DUP3 PUSH2 0x2FA5 JUMP JUMPDEST POP SWAP1 PUSH1 0xB PUSH1 0x1 DUP4 ADD SLOAD SUB PUSH2 0x615 JUMPI PUSH1 0x0 DUP1 MLOAD PUSH1 0x20 PUSH2 0x4859 DUP4 CODECOPY DUP2 MLOAD SWAP2 MSTORE PUSH1 0x20 PUSH32 0x575BEB4F9D024A957FEA2F529F8545A4962564551D15F927269D203B31F349B4 SWAP5 DUP2 SWAP5 PUSH1 0x1 PUSH1 0xFF NOT DUP3 SLOAD AND OR SWAP1 SSTORE PUSH1 0x40 MLOAD SWAP1 DUP2 MSTORE LOG1 PUSH1 0x40 MLOAD SWAP1 DUP2 MSTORE LOG1 STOP JUMPDEST CALLVALUE PUSH2 0x475 JUMPI PUSH1 0x0 CALLDATASIZE PUSH1 0x3 NOT ADD SLT PUSH2 0x475 JUMPI PUSH1 0x22 SLOAD PUSH1 0x23 SLOAD PUSH1 0x24 SLOAD PUSH1 0x40 DUP1 MLOAD SWAP4 DUP5 MSTORE PUSH1 0x20 DUP5 ADD SWAP3 SWAP1 SWAP3 MSTORE SWAP1 DUP3 ADD MSTORE PUSH1 0x60 SWAP1 RETURN JUMPDEST CALLVALUE PUSH2 0x475 JUMPI PUSH1 0x20 CALLDATASIZE PUSH1 0x3 NOT ADD SLT PUSH2 0x475 JUMPI PUSH1 0x4 CALLDATALOAD PUSH1 0x28 SLOAD DUP2 LT ISZERO PUSH2 0x475 JUMPI PUSH1 0x3 PUSH1 0x60 SWAP2 PUSH1 0x28 PUSH1 0x0 MSTORE MUL PUSH1 0xFF DUP2 PUSH32 0xE16DA923A2D88192E5070F37B4571D58682C0D66212EC634D495F33DE3F77AB5 ADD SLOAD AND SWAP1 PUSH32 0xE16DA923A2D88192E5070F37B4571D58682C0D66212EC634D495F33DE3F77AB6 DUP2 ADD SLOAD SWAP1 PUSH32 0xE16DA923A2D88192E5070F37B4571D58682C0D66212EC634D495F33DE3F77AB7 PUSH1 0x1 DUP1 PUSH1 0xA0 SHL SUB SWAP2 ADD SLOAD AND SWAP1 PUSH1 0x40 MLOAD SWAP3 ISZERO ISZERO DUP4 MSTORE PUSH1 0x20 DUP4 ADD MSTORE PUSH1 0x40 DUP3 ADD MSTORE RETURN JUMPDEST CALLVALUE PUSH2 0x475 JUMPI PUSH1 0x60 CALLDATASIZE PUSH1 0x3 NOT ADD SLT PUSH2 0x475 JUMPI PUSH2 0x141B PUSH2 0x2E84 JUMP JUMPDEST PUSH1 0x24 CALLDATALOAD SWAP1 PUSH1 0x44 CALLDATALOAD SWAP1 CALLER PUSH1 0x0 MSTORE PUSH1 0x26 PUSH1 0x20 MSTORE PUSH2 0x143D PUSH1 0xFF PUSH1 0x40 PUSH1 0x0 KECCAK256 SLOAD AND PUSH2 0x2FE0 JUMP JUMPDEST DUP3 DUP1 DIV PUSH1 0x1 EQ DUP4 ISZERO OR ISZERO PUSH2 0x690 JUMPI DUP3 PUSH1 0xB SSTORE ISZERO ISZERO PUSH1 0xFF NOT SWAP3 DUP4 PUSH1 0xA SLOAD AND PUSH1 0xFF DUP4 AND OR PUSH1 0xA SSTORE PUSH2 0x146F PUSH1 0x28 SLOAD DUP5 LT PUSH2 0x471F JUMP JUMPDEST PUSH2 0x147D PUSH1 0xFF PUSH2 0x350 DUP6 PUSH2 0x2FA5 JUMP JUMPDEST PUSH2 0x1486 DUP4 PUSH2 0x47C9 JUMP JUMPDEST PUSH1 0x27 SLOAD GT PUSH2 0x652 JUMPI PUSH2 0x1497 DUP4 PUSH2 0x2FA5 JUMP JUMPDEST POP PUSH1 0x7 PUSH1 0x1 DUP3 ADD SLOAD SUB PUSH2 0x615 JUMPI PUSH1 0x20 PUSH1 0x40 SWAP5 DUP3 PUSH1 0x1 PUSH32 0xFA4011CDF98F199F8DFB40850066DF236CE0C61EC9CA8CF7DF069471144FB92D SWAP9 PUSH1 0x0 DUP1 MLOAD PUSH1 0x20 PUSH2 0x4859 DUP4 CODECOPY DUP2 MLOAD SWAP2 MSTORE SWAP6 SLOAD AND OR SWAP1 SSTORE DUP6 MLOAD SWAP1 DUP2 MSTORE LOG1 DUP3 MLOAD SWAP2 DUP3 MSTORE PUSH1 0x20 DUP3 ADD MSTORE LOG1 STOP JUMPDEST CALLVALUE PUSH2 0x475 JUMPI PUSH1 0x20 DUP1 PUSH1 0x3 NOT CALLDATASIZE ADD SLT PUSH2 0x475 JUMPI PUSH1 0x4 CALLDATALOAD SWAP1 CALLER PUSH1 0x0 MSTORE PUSH1 0x26 DUP2 MSTORE PUSH2 0x1525 PUSH1 0xFF PUSH1 0x40 PUSH1 0x0 KECCAK256 SLOAD AND PUSH2 0x2FE0 JUMP JUMPDEST PUSH1 0x2 PUSH2 0x1530 DUP4 PUSH2 0x2FA5 JUMP JUMPDEST POP ADD PUSH1 0x1 DUP1 PUSH1 0xA0 SHL SUB SWAP1 DUP2 DUP2 SLOAD AND DUP1 PUSH1 0x0 MSTORE PUSH1 0x4 DUP5 MSTORE PUSH1 0xFF PUSH1 0x40 PUSH1 0x0 KECCAK256 SLOAD AND PUSH2 0x1682 JUMPI DUP1 PUSH1 0x0 MSTORE PUSH1 0x0 DUP5 MSTORE PUSH1 0x40 PUSH1 0x0 KECCAK256 SLOAD PUSH2 0x1660 JUMPI JUMPDEST POP DUP2 DUP2 SLOAD AND PUSH1 0x0 MSTORE PUSH1 0x4 DUP4 MSTORE PUSH1 0x40 PUSH1 0x0 KECCAK256 PUSH1 0xFF NOT SWAP1 PUSH1 0x1 DUP3 DUP3 SLOAD AND OR SWAP1 SSTORE DUP3 DUP3 SLOAD AND PUSH1 0x7 SLOAD SWAP1 PUSH1 0x1 PUSH1 0x40 SHL DUP3 LT ISZERO PUSH2 0x1062 JUMPI PUSH2 0x15AB DUP3 PUSH1 0x1 PUSH2 0x15CF SWAP5 ADD PUSH1 0x7 SSTORE PUSH2 0x2D21 JUMP JUMPDEST SWAP1 SWAP2 SWAP1 DUP3 SLOAD SWAP1 PUSH1 0x3 SHL SWAP2 PUSH1 0x1 DUP1 PUSH1 0xA0 SHL SUB SWAP3 DUP4 DUP2 SHL SWAP4 DUP5 SWAP3 AND SWAP1 SHL AND SWAP2 NOT AND OR SWAP1 SSTORE JUMP JUMPDEST PUSH2 0x15DC PUSH1 0x28 SLOAD DUP7 LT PUSH2 0x471F JUMP JUMPDEST PUSH2 0x15EA PUSH1 0xFF PUSH2 0x350 DUP8 PUSH2 0x2FA5 JUMP JUMPDEST PUSH2 0x15F3 DUP6 PUSH2 0x47C9 JUMP JUMPDEST PUSH1 0x27 SLOAD GT PUSH2 0x7FA JUMPI PUSH2 0x1604 DUP6 PUSH2 0x2FA5 JUMP JUMPDEST POP SWAP1 PUSH1 0x2 PUSH1 0x1 DUP4 ADD SLOAD SUB PUSH2 0x7BD JUMPI PUSH32 0x8CD08FF476550DEC3DE6EA6137B3EACA4AB9AE21761EA26EB09CB6305FD424A8 SWAP6 DUP3 PUSH1 0x1 DUP8 SWAP4 PUSH1 0x0 DUP1 MLOAD PUSH1 0x20 PUSH2 0x4859 DUP4 CODECOPY DUP2 MLOAD SWAP2 MSTORE SWAP6 SLOAD AND OR SWAP1 SSTORE PUSH1 0x40 MLOAD SWAP1 DUP2 MSTORE LOG1 SLOAD AND PUSH1 0x40 MLOAD SWAP1 DUP2 MSTORE LOG1 STOP JUMPDEST PUSH2 0x166E PUSH1 0x40 PUSH1 0x0 KECCAK256 SLOAD PUSH2 0x31EC JUMP JUMPDEST SWAP1 PUSH1 0x0 MSTORE PUSH1 0x1 DUP5 MSTORE PUSH1 0x40 PUSH1 0x0 KECCAK256 SSTORE DUP5 PUSH2 0x1566 JUMP JUMPDEST PUSH1 0x40 MLOAD PUSH3 0x461BCD PUSH1 0xE5 SHL DUP2 MSTORE PUSH1 0x4 DUP2 ADD DUP6 SWAP1 MSTORE PUSH1 0x1B PUSH1 0x24 DUP3 ADD MSTORE PUSH32 0x4163636F756E7420697320616C7265616479206578636C756465640000000000 PUSH1 0x44 DUP3 ADD MSTORE PUSH1 0x64 SWAP1 REVERT JUMPDEST CALLVALUE PUSH2 0x475 JUMPI PUSH1 0x0 CALLDATASIZE PUSH1 0x3 NOT ADD SLT PUSH2 0x475 JUMPI PUSH2 0x4D5 PUSH1 0x40 MLOAD PUSH2 0x16E7 DUP2 PUSH2 0x2EC3 JUMP JUMPDEST PUSH1 0x3 DUP2 MSTORE PUSH3 0x1354D5 PUSH1 0xEA SHL PUSH1 0x20 DUP3 ADD MSTORE PUSH1 0x40 MLOAD SWAP2 DUP3 SWAP2 DUP3 PUSH2 0x2DB5 JUMP JUMPDEST CALLVALUE PUSH2 0x475 JUMPI PUSH1 0x20 CALLDATASIZE PUSH1 0x3 NOT ADD SLT PUSH2 0x475 JUMPI PUSH1 0x1 PUSH1 0x1 PUSH1 0xA0 SHL SUB PUSH2 0x1724 PUSH2 0x2DFE JUMP JUMPDEST AND PUSH1 0x0 MSTORE PUSH1 0x4 PUSH1 0x20 MSTORE PUSH1 0x20 PUSH1 0xFF PUSH1 0x40 PUSH1 0x0 KECCAK256 SLOAD AND PUSH1 0x40 MLOAD SWAP1 ISZERO ISZERO DUP2 MSTORE RETURN JUMPDEST CALLVALUE PUSH2 0x475 JUMPI PUSH1 0x0 CALLDATASIZE PUSH1 0x3 NOT ADD SLT PUSH2 0x475 JUMPI PUSH1 0x16 SLOAD PUSH1 0x40 MLOAD PUSH1 0x1 PUSH1 0x1 PUSH1 0xA0 SHL SUB SWAP1 SWAP2 AND DUP2 MSTORE PUSH1 0x20 SWAP1 RETURN JUMPDEST CALLVALUE PUSH2 0x475 JUMPI PUSH1 0x0 CALLDATASIZE PUSH1 0x3 NOT ADD SLT PUSH2 0x475 JUMPI PUSH1 0x20 PUSH2 0x1786 PUSH2 0x4761 JUMP JUMPDEST PUSH1 0x40 MLOAD SWAP1 DUP2 MSTORE RETURN JUMPDEST CALLVALUE PUSH2 0x475 JUMPI PUSH1 0x40 CALLDATASIZE PUSH1 0x3 NOT ADD SLT PUSH2 0x475 JUMPI PUSH2 0x17A7 PUSH2 0x2E14 JUMP JUMPDEST PUSH1 0x4 CALLDATALOAD PUSH1 0x0 MSTORE PUSH1 0x29 PUSH1 0x20 MSTORE PUSH1 0x40 PUSH1 0x0 KECCAK256 SWAP1 PUSH1 0x1 DUP1 PUSH1 0xA0 SHL SUB AND PUSH1 0x0 MSTORE PUSH1 0x20 MSTORE PUSH1 0x20 PUSH1 0xFF PUSH1 0x40 PUSH1 0x0 KECCAK256 SLOAD AND PUSH1 0x40 MLOAD SWAP1 ISZERO ISZERO DUP2 MSTORE RETURN JUMPDEST CALLVALUE PUSH2 0x475 JUMPI PUSH1 0x40 CALLDATASIZE PUSH1 0x3 NOT ADD SLT PUSH2 0x475 JUMPI PUSH2 0x17F4 PUSH2 0x2DFE JUMP JUMPDEST PUSH1 0x24 CALLDATALOAD SWAP1 PUSH2 0x1805 PUSH1 0x28 SLOAD DUP4 LT PUSH2 0x471F JUMP JUMPDEST CALLER PUSH1 0x0 MSTORE PUSH1 0x26 PUSH1 0x20 MSTORE PUSH2 0x181F PUSH1 0xFF PUSH1 0x40 PUSH1 0x0 KECCAK256 SLOAD AND PUSH2 0x2FE0 JUMP JUMPDEST PUSH2 0x1828 DUP3 PUSH2 0x2FA5 JUMP JUMPDEST POP PUSH1 0x1 PUSH1 0x1 PUSH1 0xA0 SHL SUB SWAP1 SWAP2 AND SWAP1 DUP2 ISZERO PUSH2 0x18B9 JUMPI PUSH1 0x2 ADD SWAP1 PUSH1 0x1 PUSH1 0x1 PUSH1 0x60 SHL SUB PUSH1 0xA0 SHL DUP3 SLOAD AND OR SWAP1 SSTORE PUSH2 0x185D PUSH1 0x28 SLOAD DUP3 LT PUSH2 0x471F JUMP JUMPDEST PUSH2 0x186B PUSH1 0xFF PUSH2 0x350 DUP4 PUSH2 0x2FA5 JUMP JUMPDEST PUSH2 0x1874 DUP2 PUSH2 0x47C9 JUMP JUMPDEST PUSH1 0x27 SLOAD GT PUSH2 0x652 JUMPI PUSH2 0x1885 DUP2 PUSH2 0x2FA5 JUMP JUMPDEST POP PUSH1 0x12 PUSH1 0x1 DUP3 ADD SLOAD SUB PUSH2 0x615 JUMPI DUP1 SLOAD PUSH1 0xFF NOT AND PUSH1 0x1 OR SWAP1 SSTORE PUSH1 0x40 MLOAD SWAP1 DUP2 MSTORE PUSH1 0x0 DUP1 MLOAD PUSH1 0x20 PUSH2 0x4859 DUP4 CODECOPY DUP2 MLOAD SWAP2 MSTORE SWAP1 PUSH1 0x20 SWAP1 LOG1 STOP JUMPDEST PUSH1 0x40 MLOAD PUSH3 0x461BCD PUSH1 0xE5 SHL DUP2 MSTORE PUSH1 0x20 PUSH1 0x4 DUP3 ADD MSTORE PUSH1 0x1C PUSH1 0x24 DUP3 ADD MSTORE PUSH32 0x4461746120616464726573732063616E206E6F74206265207A65726F00000000 PUSH1 0x44 DUP3 ADD MSTORE PUSH1 0x64 SWAP1 REVERT JUMPDEST CALLVALUE PUSH2 0x475 JUMPI PUSH1 0x0 CALLDATASIZE PUSH1 0x3 NOT ADD SLT PUSH2 0x475 JUMPI PUSH1 0x17 SLOAD PUSH1 0x40 MLOAD PUSH1 0x1 PUSH1 0x1 PUSH1 0xA0 SHL SUB SWAP1 SWAP2 AND DUP2 MSTORE PUSH1 0x20 SWAP1 RETURN JUMPDEST CALLVALUE PUSH2 0x475 JUMPI PUSH1 0x0 CALLDATASIZE PUSH1 0x3 NOT ADD SLT PUSH2 0x475 JUMPI PUSH1 0x1C SLOAD PUSH1 0x1D SLOAD PUSH1 0x1E SLOAD PUSH1 0x40 DUP1 MLOAD SWAP4 DUP5 MSTORE PUSH1 0x20 DUP5 ADD SWAP3 SWAP1 SWAP3 MSTORE SWAP1 DUP3 ADD MSTORE PUSH1 0x60 SWAP1 RETURN JUMPDEST CALLVALUE PUSH2 0x475 JUMPI PUSH1 0x20 CALLDATASIZE PUSH1 0x3 NOT ADD SLT PUSH2 0x475 JUMPI PUSH1 0x20 PUSH2 0x1786 PUSH1 0x4 CALLDATALOAD PUSH2 0x47C9 JUMP JUMPDEST CALLVALUE PUSH2 0x475 JUMPI PUSH1 0x20 CALLDATASIZE PUSH1 0x3 NOT ADD SLT PUSH2 0x475 JUMPI PUSH1 0x20 PUSH2 0x1786 PUSH2 0x1995 PUSH2 0x2DFE JUMP JUMPDEST PUSH2 0x310C JUMP JUMPDEST CALLVALUE PUSH2 0x475 JUMPI PUSH1 0x0 CALLDATASIZE PUSH1 0x3 NOT ADD SLT PUSH2 0x475 JUMPI PUSH1 0x20 PUSH1 0xFF PUSH1 0x8 SLOAD PUSH1 0x8 SHR AND PUSH1 0x40 MLOAD SWAP1 ISZERO ISZERO DUP2 MSTORE RETURN JUMPDEST CALLVALUE PUSH2 0x475 JUMPI PUSH1 0x40 CALLDATASIZE PUSH1 0x3 NOT ADD SLT PUSH2 0x475 JUMPI PUSH1 0x4 CALLDATALOAD PUSH2 0x19DC PUSH2 0x2E75 JUMP JUMPDEST CALLER PUSH1 0x0 MSTORE PUSH1 0x20 SWAP1 PUSH1 0x26 DUP3 MSTORE PUSH2 0x19F8 PUSH1 0xFF PUSH1 0x40 PUSH1 0x0 KECCAK256 SLOAD AND PUSH2 0x2FE0 JUMP JUMPDEST PUSH2 0x1A01 DUP4 PUSH2 0x2FA5 JUMP JUMPDEST POP PUSH1 0x2 ADD SLOAD PUSH1 0x1 PUSH1 0x1 PUSH1 0xA0 SHL SUB AND PUSH1 0x0 SWAP1 DUP2 MSTORE PUSH1 0x6 DUP4 MSTORE PUSH1 0x40 SWAP1 KECCAK256 DUP1 SLOAD PUSH1 0xFF NOT AND PUSH1 0xFF DUP4 ISZERO ISZERO AND OR SWAP1 SSTORE PUSH2 0x1A38 PUSH1 0x28 SLOAD DUP5 LT PUSH2 0x471F JUMP JUMPDEST PUSH2 0x1A46 PUSH1 0xFF PUSH2 0x350 DUP6 PUSH2 0x2FA5 JUMP JUMPDEST PUSH2 0x1A4F DUP4 PUSH2 0x47C9 JUMP JUMPDEST PUSH1 0x27 SLOAD GT PUSH2 0x40B JUMPI PUSH2 0x1A60 DUP4 PUSH2 0x2FA5 JUMP JUMPDEST POP PUSH1 0x8 PUSH1 0x1 DUP3 ADD SLOAD SUB PUSH2 0x3CE JUMPI DUP3 PUSH32 0xB4DD5C2209BDE9A21F0E7F65B94F8565474C3C3E744B186E1F9B38E086AF280D SWAP5 PUSH1 0x0 DUP1 MLOAD PUSH1 0x20 PUSH2 0x4859 DUP4 CODECOPY DUP2 MLOAD SWAP2 MSTORE SWAP3 PUSH1 0x1 PUSH1 0xFF NOT DUP3 SLOAD AND OR SWAP1 SSTORE PUSH1 0x40 MLOAD SWAP1 DUP2 MSTORE LOG1 PUSH1 0x40 MLOAD SWAP1 ISZERO ISZERO DUP2 MSTORE LOG1 STOP JUMPDEST CALLVALUE PUSH2 0x475 JUMPI PUSH1 0x0 CALLDATASIZE PUSH1 0x3 NOT ADD SLT PUSH2 0x475 JUMPI PUSH1 0x20 PUSH1 0x11 SLOAD PUSH1 0x40 MLOAD SWAP1 DUP2 MSTORE RETURN JUMPDEST CALLVALUE PUSH2 0x475 JUMPI PUSH1 0x0 CALLDATASIZE PUSH1 0x3 NOT ADD SLT PUSH2 0x475 JUMPI PUSH1 0x20 PUSH1 0x13 SLOAD PUSH1 0x40 MLOAD SWAP1 DUP2 MSTORE RETURN JUMPDEST CALLVALUE PUSH2 0x475 JUMPI PUSH1 0x0 CALLDATASIZE PUSH1 0x3 NOT ADD SLT PUSH2 0x475 JUMPI PUSH1 0x20 PUSH1 0x12 SLOAD PUSH1 0x40 MLOAD SWAP1 DUP2 MSTORE RETURN JUMPDEST CALLVALUE PUSH2 0x475 JUMPI PUSH1 0x20 CALLDATASIZE PUSH1 0x3 NOT ADD SLT PUSH2 0x475 JUMPI PUSH1 0x1 PUSH1 0x1 PUSH1 0xA0 SHL SUB PUSH2 0x1B38 PUSH2 0x2DFE JUMP JUMPDEST AND PUSH1 0x0 MSTORE PUSH1 0x5 PUSH1 0x20 MSTORE PUSH1 0x20 PUSH1 0xFF PUSH1 0x40 PUSH1 0x0 KECCAK256 SLOAD AND PUSH1 0x40 MLOAD SWAP1 ISZERO ISZERO DUP2 MSTORE RETURN JUMPDEST CALLVALUE PUSH2 0x475 JUMPI PUSH1 0x40 CALLDATASIZE PUSH1 0x3 NOT ADD SLT PUSH2 0x475 JUMPI PUSH1 0x4 CALLDATALOAD PUSH2 0x1B72 PUSH2 0x2E75 JUMP JUMPDEST CALLER PUSH1 0x0 MSTORE PUSH1 0x20 SWAP1 PUSH1 0x26 DUP3 MSTORE PUSH2 0x1B8E PUSH1 0xFF PUSH1 0x40 PUSH1 0x0 KECCAK256 SLOAD AND PUSH2 0x2FE0 JUMP JUMPDEST PUSH2 0x1B97 DUP4 PUSH2 0x2FA5 JUMP JUMPDEST POP PUSH1 0x2 ADD SLOAD PUSH1 0x1 PUSH1 0x1 PUSH1 0xA0 SHL SUB AND PUSH1 0x0 SWAP1 DUP2 MSTORE PUSH1 0x5 DUP4 MSTORE PUSH1 0x40 SWAP1 KECCAK256 DUP1 SLOAD PUSH1 0xFF NOT AND PUSH1 0xFF DUP4 ISZERO ISZERO AND OR SWAP1 SSTORE PUSH2 0x1BCE PUSH1 0x28 SLOAD DUP5 LT PUSH2 0x471F JUMP JUMPDEST PUSH2 0x1BDC PUSH1 0xFF PUSH2 0x350 DUP6 PUSH2 0x2FA5 JUMP JUMPDEST PUSH2 0x1BE5 DUP4 PUSH2 0x47C9 JUMP JUMPDEST PUSH1 0x27 SLOAD GT PUSH2 0x40B JUMPI PUSH2 0x1BF6 DUP4 PUSH2 0x2FA5 JUMP JUMPDEST POP PUSH1 0x6 PUSH1 0x1 DUP3 ADD SLOAD SUB PUSH2 0x3CE JUMPI DUP3 PUSH32 0x9DF30A92D8B45281AAAD80FBCAD933DFE9354BCDEE1277231DF54E63E55195D7 SWAP5 PUSH1 0x0 DUP1 MLOAD PUSH1 0x20 PUSH2 0x4859 DUP4 CODECOPY DUP2 MLOAD SWAP2 MSTORE SWAP3 PUSH1 0x1 PUSH1 0xFF NOT DUP3 SLOAD AND OR SWAP1 SSTORE PUSH1 0x40 MLOAD SWAP1 DUP2 MSTORE LOG1 PUSH1 0x40 MLOAD SWAP1 ISZERO ISZERO DUP2 MSTORE LOG1 STOP JUMPDEST CALLVALUE PUSH2 0x475 JUMPI PUSH1 0x40 CALLDATASIZE PUSH1 0x3 NOT ADD SLT PUSH2 0x475 JUMPI PUSH2 0x1C6C PUSH2 0x2E84 JUMP JUMPDEST PUSH1 0x24 CALLDATALOAD SWAP1 CALLER PUSH1 0x0 MSTORE PUSH1 0x20 SWAP1 PUSH1 0x26 DUP3 MSTORE PUSH2 0x1C8C PUSH1 0xFF PUSH1 0x40 PUSH1 0x0 KECCAK256 SLOAD AND PUSH2 0x2FE0 JUMP JUMPDEST ISZERO ISZERO PUSH1 0x1 DUP2 SUB PUSH2 0x1D50 JUMPI PUSH1 0x2 PUSH1 0x40 DUP1 MLOAD PUSH2 0x1CA5 DUP2 PUSH2 0x2E93 JUMP JUMPDEST DUP3 DUP2 MSTORE PUSH1 0x1 DUP6 DUP3 ADD MSTORE ADD MSTORE PUSH1 0x2 PUSH1 0x1C SSTORE PUSH1 0x1 PUSH1 0x1D SSTORE PUSH1 0x2 PUSH1 0x1E SSTORE JUMPDEST PUSH2 0x1CCD PUSH1 0x28 SLOAD DUP5 LT PUSH2 0x471F JUMP JUMPDEST PUSH2 0x1CDB PUSH1 0xFF PUSH2 0x350 DUP6 PUSH2 0x2FA5 JUMP JUMPDEST PUSH2 0x1CE4 DUP4 PUSH2 0x47C9 JUMP JUMPDEST PUSH1 0x27 SLOAD GT PUSH2 0x40B JUMPI PUSH2 0x1CF5 DUP4 PUSH2 0x2FA5 JUMP JUMPDEST POP PUSH1 0x11 PUSH1 0x1 DUP3 ADD SLOAD SUB PUSH2 0x3CE JUMPI DUP3 PUSH32 0x2AA8128B3CF57C168078769033A09F2677560674DEFB313C68F8EC74DF66DC90 SWAP5 PUSH1 0x0 DUP1 MLOAD PUSH1 0x20 PUSH2 0x4859 DUP4 CODECOPY DUP2 MLOAD SWAP2 MSTORE SWAP3 PUSH1 0x1 PUSH1 0xFF NOT DUP3 SLOAD AND OR SWAP1 SSTORE PUSH1 0x40 MLOAD SWAP1 DUP2 MSTORE LOG1 PUSH1 0x40 MLOAD SWAP1 DUP2 MSTORE LOG1 STOP JUMPDEST PUSH1 0x0 PUSH1 0x40 DUP1 MLOAD PUSH2 0x1D5F DUP2 PUSH2 0x2E93 JUMP JUMPDEST DUP3 DUP2 MSTORE DUP3 DUP6 DUP3 ADD MSTORE ADD MSTORE PUSH1 0x0 PUSH1 0x1C SSTORE PUSH1 0x0 PUSH1 0x1D SSTORE PUSH1 0x0 PUSH1 0x1E SSTORE PUSH2 0x1CC0 JUMP JUMPDEST CALLVALUE PUSH2 0x475 JUMPI PUSH1 0x20 CALLDATASIZE PUSH1 0x3 NOT ADD SLT PUSH2 0x475 JUMPI PUSH1 0x1 PUSH1 0x1 PUSH1 0xA0 SHL SUB PUSH2 0x1D9E PUSH2 0x2DFE JUMP JUMPDEST AND PUSH1 0x0 MSTORE PUSH1 0x3 PUSH1 0x20 MSTORE PUSH1 0x20 PUSH1 0xFF PUSH1 0x40 PUSH1 0x0 KECCAK256 SLOAD AND PUSH1 0x40 MLOAD SWAP1 ISZERO ISZERO DUP2 MSTORE RETURN JUMPDEST CALLVALUE PUSH2 0x475 JUMPI PUSH2 0x1DCA CALLDATASIZE PUSH2 0x2F01 JUMP JUMPDEST SWAP1 CALLER PUSH1 0x0 MSTORE PUSH1 0x20 SWAP3 PUSH1 0x26 DUP5 MSTORE PUSH2 0x1DE7 PUSH1 0xFF PUSH1 0x40 PUSH1 0x0 KECCAK256 SLOAD AND PUSH2 0x2FE0 JUMP JUMPDEST PUSH1 0x0 JUMPDEST DUP2 MLOAD DUP2 LT ISZERO PUSH2 0x1E31 JUMPI PUSH2 0x1E2C SWAP1 PUSH1 0x1 PUSH1 0x1 PUSH1 0xA0 SHL SUB PUSH2 0x1E09 DUP3 DUP6 PUSH2 0x3571 JUMP JUMPDEST MLOAD AND PUSH1 0x0 MSTORE PUSH1 0x5 DUP7 MSTORE PUSH2 0x716 DUP5 PUSH1 0x40 PUSH1 0x0 KECCAK256 SWAP1 PUSH1 0xFF DUP1 NOT DUP4 SLOAD AND SWAP2 ISZERO ISZERO AND OR SWAP1 SSTORE JUMP JUMPDEST PUSH2 0x1DEA JUMP JUMPDEST POP SWAP1 SWAP2 PUSH2 0x1E41 PUSH1 0x28 SLOAD DUP3 LT PUSH2 0x471F JUMP JUMPDEST PUSH2 0x1E4F PUSH1 0xFF PUSH2 0x350 DUP4 PUSH2 0x2FA5 JUMP JUMPDEST PUSH2 0x1E58 DUP2 PUSH2 0x47C9 JUMP JUMPDEST PUSH1 0x27 SLOAD GT PUSH2 0x7FA JUMPI PUSH2 0x1E69 DUP2 PUSH2 0x2FA5 JUMP JUMPDEST POP PUSH1 0xF PUSH1 0x1 DUP3 ADD SLOAD SUB PUSH2 0x7BD JUMPI DUP1 SLOAD PUSH1 0xFF NOT AND PUSH1 0x1 OR SWAP1 SSTORE PUSH1 0x40 MLOAD SWAP1 DUP2 MSTORE PUSH32 0x191F53B0E0DC669E0BEBAB999CE36B4AF8938F5B060C7B7E6974007743F9C679 SWAP4 PUSH1 0x0 DUP1 MLOAD PUSH1 0x20 PUSH2 0x4859 DUP4 CODECOPY DUP2 MLOAD SWAP2 MSTORE SWAP2 LOG1 PUSH2 0x7B8 PUSH1 0x40 MLOAD SWAP3 DUP4 SWAP3 DUP4 PUSH2 0x46FF JUMP JUMPDEST CALLVALUE PUSH2 0x475 JUMPI PUSH1 0x0 CALLDATASIZE PUSH1 0x3 NOT ADD SLT PUSH2 0x475 JUMPI PUSH1 0x20 PUSH1 0xFF PUSH1 0x8 SLOAD AND PUSH1 0x40 MLOAD SWAP1 ISZERO ISZERO DUP2 MSTORE RETURN JUMPDEST CALLVALUE PUSH2 0x475 JUMPI PUSH1 0x40 CALLDATASIZE PUSH1 0x3 NOT ADD SLT PUSH2 0x475 JUMPI PUSH1 0x20 PUSH2 0x1786 PUSH2 0x1F0A PUSH2 0x2E75 JUMP JUMPDEST PUSH1 0x4 CALLDATALOAD PUSH2 0x315C JUMP JUMPDEST CALLVALUE PUSH2 0x475 JUMPI PUSH2 0x1F20 CALLDATASIZE PUSH2 0x2E2A JUMP JUMPDEST SWAP2 CALLER PUSH1 0x0 MSTORE PUSH1 0x20 SWAP3 PUSH1 0x26 DUP5 MSTORE PUSH2 0x1F3D PUSH1 0xFF PUSH1 0x40 PUSH1 0x0 KECCAK256 SLOAD AND PUSH2 0x2FE0 JUMP JUMPDEST PUSH1 0x1 DUP1 PUSH1 0xA0 SHL SUB PUSH1 0x1 PUSH1 0x1 PUSH1 0x60 SHL SUB PUSH1 0xA0 SHL SWAP1 DUP1 DUP5 AND DUP3 PUSH1 0xC SLOAD AND OR PUSH1 0xC SSTORE DUP5 AND SWAP1 DUP2 ISZERO PUSH2 0x2016 JUMPI PUSH1 0xD SLOAD AND OR PUSH1 0xD SSTORE PUSH2 0x1F7A PUSH1 0x28 SLOAD DUP3 LT PUSH2 0x471F JUMP JUMPDEST PUSH2 0x1F88 PUSH1 0xFF PUSH2 0x350 DUP4 PUSH2 0x2FA5 JUMP JUMPDEST PUSH2 0x1F91 DUP2 PUSH2 0x47C9 JUMP JUMPDEST PUSH1 0x27 SLOAD GT PUSH2 0x7FA JUMPI PUSH2 0x1FA2 DUP2 PUSH2 0x2FA5 JUMP JUMPDEST POP PUSH1 0xC PUSH1 0x1 DUP3 ADD SLOAD SUB PUSH2 0x7BD JUMPI DUP1 SLOAD PUSH1 0xFF NOT AND PUSH1 0x1 OR SWAP1 SSTORE PUSH1 0x40 MLOAD SWAP1 DUP2 MSTORE PUSH32 0x175E4BBEB77C7E49271724A8534BBDD31EA0F809390EE2F57D6B7AA286440EEF SWAP4 PUSH1 0x0 DUP1 MLOAD PUSH1 0x20 PUSH2 0x4859 DUP4 CODECOPY DUP2 MLOAD SWAP2 MSTORE SWAP2 LOG1 PUSH1 0x40 DUP1 MLOAD PUSH1 0x1 PUSH1 0x1 PUSH1 0xA0 SHL SUB SWAP3 DUP4 AND DUP2 MSTORE SWAP3 SWAP1 SWAP2 AND PUSH1 0x20 DUP4 ADD MSTORE DUP2 SWAP1 DUP2 ADD PUSH2 0x7B8 JUMP JUMPDEST PUSH1 0x64 DUP7 PUSH1 0x40 MLOAD SWAP1 PUSH3 0x461BCD PUSH1 0xE5 SHL DUP3 MSTORE DUP1 PUSH1 0x4 DUP4 ADD MSTORE PUSH1 0x24 DUP3 ADD MSTORE PUSH32 0x4E6577207061697220616464726573732063616E206E6F74206265207A65726F PUSH1 0x44 DUP3 ADD MSTORE REVERT JUMPDEST CALLVALUE PUSH2 0x475 JUMPI PUSH1 0x40 CALLDATASIZE PUSH1 0x3 NOT ADD SLT PUSH2 0x475 JUMPI PUSH2 0x1166 PUSH2 0x2075 PUSH2 0x2DFE JUMP JUMPDEST CALLER PUSH1 0x0 MSTORE PUSH1 0x2 PUSH1 0x20 MSTORE PUSH1 0x40 PUSH1 0x0 KECCAK256 PUSH1 0x1 DUP1 PUSH1 0xA0 SHL SUB DUP3 AND PUSH1 0x0 MSTORE PUSH1 0x20 MSTORE PUSH2 0x20A3 PUSH1 0x24 CALLDATALOAD PUSH1 0x40 PUSH1 0x0 KECCAK256 SLOAD PUSH2 0x314F JUMP JUMPDEST SWAP1 CALLER PUSH2 0x36E2 JUMP JUMPDEST CALLVALUE PUSH2 0x475 JUMPI PUSH1 0x0 CALLDATASIZE PUSH1 0x3 NOT ADD SLT PUSH2 0x475 JUMPI PUSH1 0x20 PUSH1 0x40 MLOAD PUSH1 0x12 DUP2 MSTORE RETURN JUMPDEST CALLVALUE PUSH2 0x475 JUMPI PUSH1 0x20 CALLDATASIZE PUSH1 0x3 NOT ADD SLT PUSH2 0x475 JUMPI PUSH1 0x1 PUSH1 0x1 PUSH1 0xA0 SHL SUB PUSH2 0x20E7 PUSH2 0x2DFE JUMP JUMPDEST AND PUSH1 0x0 MSTORE PUSH1 0x26 PUSH1 0x20 MSTORE PUSH1 0x20 PUSH1 0xFF PUSH1 0x40 PUSH1 0x0 KECCAK256 SLOAD AND PUSH1 0x40 MLOAD SWAP1 ISZERO ISZERO DUP2 MSTORE RETURN JUMPDEST CALLVALUE PUSH2 0x475 JUMPI PUSH1 0x20 CALLDATASIZE PUSH1 0x3 NOT ADD SLT PUSH2 0x475 JUMPI PUSH1 0x20 PUSH2 0x1786 PUSH1 0x4 CALLDATALOAD PUSH2 0x31EC JUMP JUMPDEST CALLVALUE PUSH2 0x475 JUMPI PUSH2 0x2131 CALLDATASIZE PUSH2 0x2E5F JUMP JUMPDEST SWAP1 CALLER PUSH1 0x0 MSTORE PUSH1 0x26 PUSH1 0x20 MSTORE PUSH2 0x214C PUSH1 0xFF PUSH1 0x40 PUSH1 0x0 KECCAK256 SLOAD AND PUSH2 0x2FE0 JUMP JUMPDEST PUSH8 0xDE0B6B3A7640000 DUP1 DUP3 MUL SWAP1 DUP3 DUP3 DIV EQ DUP3 ISZERO OR ISZERO PUSH2 0x690 JUMPI PUSH1 0x10 SSTORE PUSH2 0x2175 PUSH1 0x28 SLOAD DUP4 LT PUSH2 0x471F JUMP JUMPDEST PUSH2 0x2183 PUSH1 0xFF PUSH2 0x350 DUP5 PUSH2 0x2FA5 JUMP JUMPDEST PUSH2 0x218C DUP3 PUSH2 0x47C9 JUMP JUMPDEST PUSH1 0x27 SLOAD GT PUSH2 0x652 JUMPI PUSH2 0x219D DUP3 PUSH2 0x2FA5 JUMP JUMPDEST POP SWAP1 PUSH1 0xD PUSH1 0x1 DUP4 ADD SLOAD SUB PUSH2 0x615 JUMPI PUSH1 0x0 DUP1 MLOAD PUSH1 0x20 PUSH2 0x4859 DUP4 CODECOPY DUP2 MLOAD SWAP2 MSTORE PUSH1 0x20 PUSH32 0xD9426B58C81D17F6DD4BB6B8680FE18CFCFED49A38648D7D1A2D8FB9806FC218 SWAP5 DUP2 SWAP5 PUSH1 0x1 PUSH1 0xFF NOT DUP3 SLOAD AND OR SWAP1 SSTORE PUSH1 0x40 MLOAD SWAP1 DUP2 MSTORE LOG1 PUSH1 0x40 MLOAD SWAP1 DUP2 MSTORE LOG1 STOP JUMPDEST CALLVALUE PUSH2 0x475 JUMPI PUSH1 0x0 CALLDATASIZE PUSH1 0x3 NOT ADD SLT PUSH2 0x475 JUMPI PUSH1 0x20 PUSH1 0x14 SLOAD PUSH1 0x40 MLOAD SWAP1 DUP2 MSTORE RETURN JUMPDEST CALLVALUE PUSH2 0x475 JUMPI PUSH1 0x40 CALLDATASIZE PUSH1 0x3 NOT ADD SLT PUSH2 0x475 JUMPI PUSH1 0x4 CALLDATALOAD PUSH2 0x2235 PUSH2 0x2E14 JUMP JUMPDEST SWAP1 CALLER PUSH1 0x0 MSTORE PUSH1 0x20 SWAP2 PUSH1 0x26 DUP4 MSTORE PUSH2 0x2252 PUSH1 0xFF PUSH1 0x40 PUSH1 0x0 KECCAK256 SLOAD AND PUSH2 0x2FE0 JUMP JUMPDEST PUSH1 0x12 DUP3 GT ISZERO DUP1 PUSH2 0x2458 JUMPI JUMPDEST ISZERO PUSH2 0x241F JUMPI PUSH1 0x28 SLOAD SWAP2 DUP3 PUSH2 0x23A8 JUMPI JUMPDEST PUSH1 0x40 MLOAD SWAP1 PUSH2 0x2279 DUP3 PUSH2 0x2E93 JUMP JUMPDEST PUSH1 0x0 DUP3 MSTORE DUP5 DUP3 ADD SWAP1 DUP2 MSTORE PUSH1 0x1 PUSH1 0x1 PUSH1 0xA0 SHL SUB SWAP3 DUP4 AND PUSH1 0x40 DUP4 ADD SWAP1 DUP2 MSTORE SWAP4 PUSH1 0x1 PUSH1 0x40 SHL DUP2 LT ISZERO PUSH2 0x1062 JUMPI DUP1 PUSH1 0x1 PUSH2 0x22B2 SWAP3 ADD PUSH1 0x28 SSTORE PUSH2 0x2FA5 JUMP JUMPDEST SWAP2 SWAP1 SWAP2 PUSH2 0x2392 JUMPI PUSH2 0x22D4 PUSH1 0x2 SWAP4 MLOAD ISZERO ISZERO DUP4 SWAP1 PUSH1 0xFF DUP1 NOT DUP4 SLOAD AND SWAP2 ISZERO ISZERO AND OR SWAP1 SSTORE JUMP JUMPDEST MLOAD PUSH1 0x1 DUP3 ADD SSTORE ADD SWAP2 MLOAD AND PUSH1 0x1 PUSH1 0x1 PUSH1 0x60 SHL SUB PUSH1 0xA0 SHL DUP3 SLOAD AND OR SWAP1 SSTORE PUSH1 0x28 SLOAD PUSH1 0x0 NOT SWAP1 DUP2 DUP2 ADD SWAP1 DUP2 GT PUSH2 0x690 JUMPI PUSH1 0x0 MSTORE PUSH1 0x29 DUP3 MSTORE PUSH1 0x40 PUSH1 0x0 KECCAK256 CALLER PUSH1 0x0 MSTORE DUP3 MSTORE PUSH1 0x40 PUSH1 0x0 KECCAK256 PUSH1 0x1 PUSH1 0xFF NOT DUP3 SLOAD AND OR SWAP1 SSTORE PUSH1 0x28 SLOAD SWAP1 DUP2 ADD SWAP1 DUP2 GT PUSH2 0x690 JUMPI PUSH1 0x40 DUP1 MLOAD CALLER DUP2 MSTORE PUSH1 0x20 DUP2 ADD DUP4 SWAP1 MSTORE PUSH32 0x90EC57F18FA7B15C6B8D5E4D1DEB90796C74B2FF23D4D0CECAD0CB42A96B3128 SWAP2 SWAP1 LOG1 PUSH32 0xE764A167EA16DBA9A9B8FDC48C267800565D742612790348C3342F6ED230ACFA DUP3 PUSH1 0x40 MLOAD DUP4 DUP2 MSTORE LOG1 PUSH1 0x40 MLOAD SWAP1 DUP2 MSTORE RETURN JUMPDEST PUSH4 0x4E487B71 PUSH1 0xE0 SHL PUSH1 0x0 MSTORE PUSH1 0x0 PUSH1 0x4 MSTORE PUSH1 0x24 PUSH1 0x0 REVERT JUMPDEST PUSH1 0x0 NOT DUP4 ADD DUP4 DUP2 GT PUSH2 0x690 JUMPI PUSH1 0xFF PUSH2 0x23C1 PUSH1 0x1 SWAP3 PUSH2 0x2FA5 JUMP JUMPDEST POP SLOAD AND ISZERO ISZERO EQ PUSH2 0x226C JUMPI PUSH1 0x40 MLOAD PUSH3 0x461BCD PUSH1 0xE5 SHL DUP2 MSTORE PUSH1 0x4 DUP2 ADD DUP6 SWAP1 MSTORE PUSH1 0x26 PUSH1 0x24 DUP3 ADD MSTORE PUSH32 0x506C656173652045786563757465205175657565205472616E73616374696F6E PUSH1 0x44 DUP3 ADD MSTORE PUSH6 0x8119A5C9CDD PUSH1 0xD2 SHL PUSH1 0x64 DUP3 ADD MSTORE PUSH1 0x84 SWAP1 REVERT JUMPDEST PUSH1 0x40 MLOAD PUSH3 0x461BCD PUSH1 0xE5 SHL DUP2 MSTORE PUSH1 0x4 DUP2 ADD DUP5 SWAP1 MSTORE PUSH1 0x11 PUSH1 0x24 DUP3 ADD MSTORE PUSH17 0x1A5B9D985B1A59081B595D1A1BD9081A59 PUSH1 0x7A SHL PUSH1 0x44 DUP3 ADD MSTORE PUSH1 0x64 SWAP1 REVERT JUMPDEST POP DUP2 ISZERO ISZERO PUSH2 0x225D JUMP JUMPDEST CALLVALUE PUSH2 0x475 JUMPI PUSH1 0x20 DUP1 PUSH1 0x3 NOT CALLDATASIZE ADD SLT PUSH2 0x475 JUMPI PUSH1 0x4 CALLDATALOAD SWAP1 CALLER PUSH1 0x0 MSTORE PUSH1 0x26 DUP2 MSTORE PUSH2 0x2490 PUSH1 0xFF PUSH1 0x40 PUSH1 0x0 KECCAK256 SLOAD AND PUSH2 0x2FE0 JUMP JUMPDEST PUSH2 0x249D PUSH1 0x28 SLOAD DUP4 LT PUSH2 0x471F JUMP JUMPDEST DUP2 PUSH1 0x0 MSTORE PUSH1 0x29 DUP2 MSTORE PUSH1 0x40 PUSH1 0x0 KECCAK256 CALLER PUSH1 0x0 MSTORE DUP2 MSTORE PUSH1 0xFF PUSH1 0x40 PUSH1 0x0 KECCAK256 SLOAD AND PUSH2 0x2529 JUMPI DUP2 PUSH2 0x7B8 SWAP2 PUSH2 0x24F1 PUSH1 0xFF PUSH2 0x350 PUSH32 0x90EC57F18FA7B15C6B8D5E4D1DEB90796C74B2FF23D4D0CECAD0CB42A96B3128 SWAP7 PUSH2 0x2FA5 JUMP JUMPDEST PUSH1 0x0 DUP3 DUP2 MSTORE PUSH1 0x29 DUP3 MSTORE PUSH1 0x40 DUP1 DUP3 KECCAK256 CALLER DUP1 DUP5 MSTORE SWAP4 MSTORE SWAP1 DUP2 SWAP1 KECCAK256 DUP1 SLOAD PUSH1 0xFF NOT AND PUSH1 0x1 OR SWAP1 SSTORE DUP1 MLOAD SWAP2 DUP3 MSTORE PUSH1 0x20 DUP3 ADD SWAP3 SWAP1 SWAP3 MSTORE SWAP2 DUP3 SWAP2 DUP3 ADD SWAP1 JUMP JUMPDEST PUSH1 0x64 SWAP1 PUSH1 0x40 MLOAD SWAP1 PUSH3 0x461BCD PUSH1 0xE5 SHL DUP3 MSTORE PUSH1 0x4 DUP3 ADD MSTORE PUSH1 0x15 PUSH1 0x24 DUP3 ADD MSTORE PUSH21 0x74726E782068617320616C726561647920646F6E65 PUSH1 0x58 SHL PUSH1 0x44 DUP3 ADD MSTORE REVERT JUMPDEST CALLVALUE PUSH2 0x475 JUMPI PUSH2 0x2573 CALLDATASIZE PUSH2 0x2E2A JUMP JUMPDEST SWAP2 SWAP1 PUSH1 0x1 DUP1 PUSH1 0xA0 SHL SUB DUP3 AND PUSH1 0x0 MSTORE PUSH1 0x2 PUSH1 0x20 MSTORE PUSH1 0x40 PUSH1 0x0 KECCAK256 CALLER PUSH1 0x0 MSTORE PUSH1 0x20 MSTORE PUSH1 0x40 PUSH1 0x0 KECCAK256 SLOAD SWAP3 DUP1 DUP5 LT PUSH2 0x25BF JUMPI PUSH2 0x1166 SWAP4 PUSH2 0x25B2 DUP3 PUSH2 0x25B7 SWAP5 DUP7 PUSH2 0x382F JUMP JUMPDEST PUSH2 0x304D JUMP JUMPDEST SWAP1 CALLER SWAP1 PUSH2 0x36E2 JUMP JUMPDEST PUSH1 0x40 MLOAD PUSH3 0x461BCD PUSH1 0xE5 SHL DUP2 MSTORE PUSH1 0x20 PUSH1 0x4 DUP3 ADD MSTORE PUSH1 0x28 PUSH1 0x24 DUP3 ADD MSTORE PUSH32 0x45524332303A207472616E7366657220616D6F756E7420657863656564732061 PUSH1 0x44 DUP3 ADD MSTORE PUSH8 0x6C6C6F77616E6365 PUSH1 0xC0 SHL PUSH1 0x64 DUP3 ADD MSTORE PUSH1 0x84 SWAP1 REVERT JUMPDEST CALLVALUE PUSH2 0x475 JUMPI PUSH1 0x40 CALLDATASIZE PUSH1 0x3 NOT ADD SLT PUSH2 0x475 JUMPI PUSH2 0x262E PUSH2 0x2DFE JUMP JUMPDEST PUSH1 0x24 CALLDATALOAD SWAP1 CALLER PUSH1 0x0 MSTORE PUSH1 0x20 SWAP1 PUSH1 0x26 DUP3 MSTORE PUSH2 0x264E PUSH1 0xFF PUSH1 0x40 PUSH1 0x0 KECCAK256 SLOAD AND PUSH2 0x2FE0 JUMP JUMPDEST PUSH1 0x1 PUSH1 0x1 PUSH1 0xA0 SHL SUB AND DUP1 ISZERO PUSH2 0x2701 JUMPI DUP1 PUSH1 0x1 PUSH1 0x1 PUSH1 0x60 SHL SUB PUSH1 0xA0 SHL PUSH1 0x17 SLOAD AND OR PUSH1 0x17 SSTORE PUSH2 0x267E PUSH1 0x28 SLOAD DUP5 LT PUSH2 0x471F JUMP JUMPDEST PUSH2 0x268C PUSH1 0xFF PUSH2 0x350 DUP6 PUSH2 0x2FA5 JUMP JUMPDEST PUSH2 0x2695 DUP4 PUSH2 0x47C9 JUMP JUMPDEST PUSH1 0x27 SLOAD GT PUSH2 0x40B JUMPI PUSH2 0x26A6 DUP4 PUSH2 0x2FA5 JUMP JUMPDEST POP PUSH1 0x9 PUSH1 0x1 DUP3 ADD SLOAD SUB PUSH2 0x3CE JUMPI DUP3 PUSH32 0x2662EF2C54FF98367EB3D0304B112D24FF78BEB4077EFCEF65B040BACA760AB SWAP5 PUSH1 0x0 DUP1 MLOAD PUSH1 0x20 PUSH2 0x4859 DUP4 CODECOPY DUP2 MLOAD SWAP2 MSTORE SWAP3 PUSH1 0x1 PUSH1 0xFF NOT DUP3 SLOAD AND OR SWAP1 SSTORE PUSH1 0x40 MLOAD SWAP1 DUP2 MSTORE LOG1 PUSH1 0x40 MLOAD SWAP1 DUP2 MSTORE LOG1 STOP JUMPDEST PUSH1 0x40 MLOAD PUSH3 0x461BCD PUSH1 0xE5 SHL DUP2 MSTORE PUSH1 0x4 DUP2 ADD DUP4 SWAP1 MSTORE PUSH1 0x27 PUSH1 0x24 DUP3 ADD MSTORE PUSH32 0x6D61726B6574696E6777616C6C657420616464726573732063616E206E6F7420 PUSH1 0x44 DUP3 ADD MSTORE PUSH7 0x6265207A65726F PUSH1 0xC8 SHL PUSH1 0x64 DUP3 ADD MSTORE PUSH1 0x84 SWAP1 REVERT JUMPDEST CALLVALUE PUSH2 0x475 JUMPI PUSH1 0x20 DUP1 PUSH1 0x3 NOT CALLDATASIZE ADD SLT PUSH2 0x475 JUMPI PUSH1 0x4 CALLDATALOAD SWAP1 CALLER PUSH1 0x0 MSTORE PUSH1 0x26 DUP2 MSTORE PUSH2 0x2785 PUSH1 0xFF PUSH1 0x40 PUSH1 0x0 KECCAK256 SLOAD AND PUSH2 0x2FE0 JUMP JUMPDEST PUSH2 0x2792 PUSH1 0x28 SLOAD DUP4 LT PUSH2 0x471F JUMP JUMPDEST PUSH2 0x27A0 PUSH1 0xFF PUSH2 0x350 DUP5 PUSH2 0x2FA5 JUMP JUMPDEST DUP2 PUSH1 0x0 MSTORE PUSH1 0x29 DUP2 MSTORE PUSH1 0x40 PUSH1 0x0 KECCAK256 CALLER PUSH1 0x0 MSTORE DUP2 MSTORE PUSH1 0xFF PUSH1 0x40 PUSH1 0x0 KECCAK256 SLOAD AND ISZERO PUSH2 0x2819 JUMPI PUSH1 0x0 DUP3 DUP2 MSTORE PUSH1 0x29 DUP3 MSTORE PUSH1 0x40 DUP1 DUP3 KECCAK256 CALLER DUP1 DUP5 MSTORE SWAP4 MSTORE SWAP1 DUP2 SWAP1 KECCAK256 DUP1 SLOAD PUSH1 0xFF NOT AND SWAP1 SSTORE DUP1 MLOAD SWAP2 DUP3 MSTORE PUSH1 0x20 DUP3 ADD SWAP3 SWAP1 SWAP3 MSTORE PUSH32 0xEC9AB91322523C899EDE7830EC9BFC992B5981CDCC27B91162FB23DE5791117B SWAP2 DUP2 SWAP1 DUP2 ADD PUSH2 0x7B8 JUMP JUMPDEST PUSH1 0x64 SWAP1 PUSH1 0x40 MLOAD SWAP1 PUSH3 0x461BCD PUSH1 0xE5 SHL DUP3 MSTORE PUSH1 0x4 DUP3 ADD MSTORE PUSH1 0x19 PUSH1 0x24 DUP3 ADD MSTORE PUSH32 0x74726E7820686173206E6F74206265656E20617070726F766500000000000000 PUSH1 0x44 DUP3 ADD MSTORE REVERT JUMPDEST CALLVALUE PUSH2 0x475 JUMPI PUSH1 0x0 CALLDATASIZE PUSH1 0x3 NOT ADD SLT PUSH2 0x475 JUMPI PUSH1 0x20 PUSH1 0xE SLOAD PUSH1 0x40 MLOAD SWAP1 DUP2 MSTORE RETURN JUMPDEST CALLVALUE PUSH2 0x475 JUMPI PUSH1 0x20 DUP1 PUSH1 0x3 NOT CALLDATASIZE ADD SLT PUSH2 0x475 JUMPI PUSH1 0x4 CALLDATALOAD SWAP1 CALLER PUSH1 0x0 MSTORE PUSH1 0x26 DUP2 MSTORE PUSH2 0x28AA PUSH1 0xFF PUSH1 0x40 PUSH1 0x0 KECCAK256 SLOAD AND PUSH2 0x2FE0 JUMP JUMPDEST PUSH1 0x2 PUSH2 0x28B5 DUP4 PUSH2 0x2FA5 JUMP JUMPDEST POP ADD DUP1 SLOAD PUSH1 0x1 PUSH1 0x1 PUSH1 0xA0 SHL SUB SWAP2 SWAP1 DUP3 AND DUP1 ISZERO PUSH2 0x2974 JUMPI PUSH1 0x0 MSTORE PUSH1 0x3 DUP4 MSTORE PUSH1 0x40 PUSH1 0x0 KECCAK256 PUSH1 0xFF NOT SWAP1 PUSH1 0x1 DUP3 DUP3 SLOAD AND OR SWAP1 SSTORE PUSH2 0x28F1 PUSH1 0x28 SLOAD DUP7 LT PUSH2 0x471F JUMP JUMPDEST PUSH2 0x28FF PUSH1 0xFF PUSH2 0x350 DUP8 PUSH2 0x2FA5 JUMP JUMPDEST PUSH2 0x2908 DUP6 PUSH2 0x47C9 JUMP JUMPDEST PUSH1 0x27 SLOAD GT PUSH2 0x7FA JUMPI PUSH2 0x2919 DUP6 PUSH2 0x2FA5 JUMP JUMPDEST POP SWAP1 PUSH1 0x1 DUP1 DUP4 ADD SLOAD SUB PUSH2 0x7BD JUMPI PUSH32 0xDBDE64BEF24F6C6798C1137955E0F3AB1EE540536392BEA881C4AD3E6D61ECC7 SWAP6 DUP3 PUSH1 0x1 DUP8 SWAP4 PUSH1 0x0 DUP1 MLOAD PUSH1 0x20 PUSH2 0x4859 DUP4 CODECOPY DUP2 MLOAD SWAP2 MSTORE SWAP6 SLOAD AND OR SWAP1 SSTORE PUSH1 0x40 MLOAD SWAP1 DUP2 MSTORE LOG1 SLOAD AND PUSH1 0x40 MLOAD SWAP1 DUP2 MSTORE LOG1 STOP JUMPDEST PUSH1 0x40 MLOAD PUSH3 0x461BCD PUSH1 0xE5 SHL DUP2 MSTORE PUSH1 0x4 DUP2 ADD DUP6 SWAP1 MSTORE PUSH1 0xF PUSH1 0x24 DUP3 ADD MSTORE PUSH15 0x696E76616C69642061646472657373 PUSH1 0x88 SHL PUSH1 0x44 DUP3 ADD MSTORE PUSH1 0x64 SWAP1 REVERT JUMPDEST CALLVALUE PUSH2 0x475 JUMPI PUSH1 0x20 DUP1 PUSH1 0x3 NOT CALLDATASIZE ADD SLT PUSH2 0x475 JUMPI PUSH1 0x4 CALLDATALOAD SWAP1 CALLER PUSH1 0x0 MSTORE PUSH1 0x26 DUP2 MSTORE PUSH1 0xFF SWAP1 PUSH2 0x29DC DUP3 PUSH1 0x40 PUSH1 0x0 KECCAK256 SLOAD AND PUSH2 0x2FE0 JUMP JUMPDEST PUSH1 0x2 PUSH2 0x29E7 DUP5 PUSH2 0x2FA5 JUMP JUMPDEST POP ADD PUSH1 0x1 DUP1 PUSH1 0xA0 SHL SUB SWAP1 DUP2 DUP2 SLOAD AND PUSH1 0x0 MSTORE PUSH1 0x4 DUP4 MSTORE DUP4 PUSH1 0x40 PUSH1 0x0 KECCAK256 SLOAD AND ISZERO PUSH2 0x2C20 JUMPI PUSH1 0x0 JUMPDEST PUSH1 0x7 DUP1 SLOAD SWAP1 DUP2 DUP4 LT ISZERO PUSH2 0x1B JUMPI PUSH2 0x2A22 DUP4 PUSH2 0x2D21 JUMP JUMPDEST SWAP3 SWAP1 SLOAD DUP7 DUP1 DUP8 SLOAD AND SWAP2 PUSH1 0x3 SWAP6 DUP7 SHL SHR AND EQ PUSH2 0x2A48 JUMPI POP POP POP PUSH2 0x2A43 SWAP1 PUSH2 0x305A JUMP JUMPDEST PUSH2 0x2A0C JUMP JUMPDEST PUSH1 0x0 SWAP8 SWAP4 SWAP2 SWAP3 SWAP5 SWAP6 SWAP7 SWAP8 NOT SWAP2 DUP3 DUP3 ADD SWAP2 DUP3 GT PUSH2 0x690 JUMPI PUSH2 0x15AB DUP9 PUSH2 0x2A6E PUSH2 0x2A7B SWAP5 PUSH2 0x2D21 JUMP JUMPDEST SWAP1 SLOAD SWAP1 DUP10 SHL SHR AND SWAP2 PUSH2 0x2D21 JUMP JUMPDEST DUP6 DUP6 SLOAD AND SWAP3 DUP4 PUSH1 0x0 MSTORE PUSH1 0x1 SWAP4 DUP5 DUP10 MSTORE PUSH2 0x2AAA PUSH1 0x40 PUSH1 0x0 KECCAK256 SLOAD PUSH2 0x2AA4 PUSH2 0x2A9E PUSH2 0x3585 JUMP JUMPDEST SWAP1 PUSH2 0x31CC JUMP JUMPDEST SWAP1 PUSH2 0x303A JUMP JUMPDEST SWAP1 PUSH1 0x0 MSTORE PUSH1 0x0 DUP10 MSTORE PUSH1 0x40 PUSH1 0x0 KECCAK256 SSTORE DUP7 DUP7 SLOAD AND PUSH1 0x0 MSTORE DUP4 DUP9 MSTORE PUSH1 0x0 PUSH1 0x40 DUP2 KECCAK256 SSTORE DUP7 DUP7 SLOAD AND PUSH1 0x0 MSTORE PUSH1 0x4 DUP9 MSTORE PUSH1 0x40 PUSH1 0x0 KECCAK256 SWAP3 PUSH1 0xFF NOT SWAP4 DUP5 DUP2 SLOAD AND SWAP1 SSTORE DUP1 SLOAD SWAP3 DUP4 ISZERO PUSH2 0x2C0A JUMPI PUSH2 0x2B1E SWAP4 ADD SWAP1 PUSH2 0x2AFC DUP3 PUSH2 0x2D21 JUMP JUMPDEST DUP11 DUP3 SLOAD SWAP2 DUP11 SHL SHL NOT AND SWAP1 SSTORE SSTORE PUSH2 0x2B15 PUSH1 0x28 SLOAD DUP11 LT PUSH2 0x471F JUMP JUMPDEST PUSH2 0x350 DUP10 PUSH2 0x2FA5 JUMP JUMPDEST PUSH2 0x2B27 DUP8 PUSH2 0x47C9 JUMP JUMPDEST PUSH1 0x27 SLOAD GT PUSH2 0x2BCC JUMPI PUSH2 0x2B38 DUP8 PUSH2 0x2FA5 JUMP JUMPDEST POP SWAP3 DUP3 DUP5 ADD SLOAD SUB PUSH2 0x2B8F JUMPI DUP3 SLOAD AND OR SWAP1 SSTORE PUSH1 0x40 MLOAD SWAP4 DUP5 MSTORE PUSH32 0x9351BE60D7684154F1D81ED1DCF87DA46BBC44B32DAD50C57E2722860A9AD48A SWAP4 PUSH1 0x0 DUP1 MLOAD PUSH1 0x20 PUSH2 0x4859 DUP4 CODECOPY DUP2 MLOAD SWAP2 MSTORE SWAP1 DUP5 SWAP1 LOG1 SLOAD AND PUSH1 0x40 MLOAD SWAP1 DUP2 MSTORE LOG1 STOP JUMPDEST PUSH1 0x40 MLOAD PUSH3 0x461BCD PUSH1 0xE5 SHL DUP2 MSTORE PUSH1 0x4 DUP2 ADD DUP8 SWAP1 MSTORE PUSH1 0x15 PUSH1 0x24 DUP3 ADD MSTORE PUSH21 0x1A5B9D985B1A5908119D5B98DD1A5BDB8818D85B1B PUSH1 0x5A SHL PUSH1 0x44 DUP3 ADD MSTORE PUSH1 0x64 SWAP1 REVERT JUMPDEST PUSH1 0x40 MLOAD PUSH3 0x461BCD PUSH1 0xE5 SHL DUP2 MSTORE PUSH1 0x4 DUP2 ADD DUP8 SWAP1 MSTORE PUSH1 0x22 PUSH1 0x24 DUP3 ADD MSTORE PUSH1 0x0 DUP1 MLOAD PUSH1 0x20 PUSH2 0x4879 DUP4 CODECOPY DUP2 MLOAD SWAP2 MSTORE PUSH1 0x44 DUP3 ADD MSTORE PUSH2 0x185B PUSH1 0xF2 SHL PUSH1 0x64 DUP3 ADD MSTORE PUSH1 0x84 SWAP1 REVERT JUMPDEST PUSH4 0x4E487B71 PUSH1 0xE0 SHL PUSH1 0x0 MSTORE PUSH1 0x31 PUSH1 0x4 MSTORE PUSH1 0x24 PUSH1 0x0 REVERT JUMPDEST PUSH1 0x40 MLOAD PUSH3 0x461BCD PUSH1 0xE5 SHL DUP2 MSTORE PUSH1 0x4 DUP2 ADD DUP5 SWAP1 MSTORE PUSH1 0x17 PUSH1 0x24 DUP3 ADD MSTORE PUSH32 0x4163636F756E74206973206E6F74206578636C75646564000000000000000000 PUSH1 0x44 DUP3 ADD MSTORE PUSH1 0x64 SWAP1 REVERT JUMPDEST CALLVALUE PUSH2 0x475 JUMPI PUSH1 0x40 CALLDATASIZE PUSH1 0x3 NOT ADD SLT PUSH2 0x475 JUMPI PUSH2 0x1166 PUSH2 0x2C81 PUSH2 0x2DFE JUMP JUMPDEST PUSH1 0x24 CALLDATALOAD SWAP1 CALLER PUSH2 0x36E2 JUMP JUMPDEST CALLVALUE PUSH2 0x475 JUMPI PUSH1 0x0 CALLDATASIZE PUSH1 0x3 NOT ADD SLT PUSH2 0x475 JUMPI PUSH2 0x4D5 PUSH1 0x40 MLOAD PUSH2 0x2CAB DUP2 PUSH2 0x2EC3 JUMP JUMPDEST PUSH1 0x16 DUP2 MSTORE PUSH22 0x26B7BBB3B6349029B0B731BA3AB0B93C902A37B5B2B7 PUSH1 0x51 SHL PUSH1 0x20 DUP3 ADD MSTORE PUSH1 0x40 MLOAD SWAP2 DUP3 SWAP2 DUP3 PUSH2 0x2DB5 JUMP JUMPDEST CALLVALUE PUSH2 0x475 JUMPI PUSH1 0x20 CALLDATASIZE PUSH1 0x3 NOT ADD SLT PUSH2 0x475 JUMPI PUSH1 0x4 CALLDATALOAD SWAP1 PUSH1 0x25 SLOAD DUP3 LT ISZERO PUSH2 0x475 JUMPI PUSH1 0x25 PUSH1 0x0 MSTORE PUSH1 0x0 DUP1 MLOAD PUSH1 0x20 PUSH2 0x4839 DUP4 CODECOPY DUP2 MLOAD SWAP2 MSTORE SWAP1 SWAP2 ADD SLOAD PUSH1 0x1 PUSH1 0x1 PUSH1 0xA0 SHL SUB AND DUP2 MSTORE PUSH1 0x20 SWAP1 RETURN JUMPDEST PUSH1 0x7 SLOAD DUP2 LT ISZERO PUSH2 0x2D58 JUMPI PUSH1 0x7 PUSH1 0x0 MSTORE PUSH32 0xA66CC928B5EDB82AF9BD49922954155AB7B0942694BEA4CE44661D9A8736C688 ADD SWAP1 PUSH1 0x0 SWAP1 JUMP JUMPDEST PUSH4 0x4E487B71 PUSH1 0xE0 SHL PUSH1 0x0 MSTORE PUSH1 0x32 PUSH1 0x4 MSTORE PUSH1 0x24 PUSH1 0x0 REVERT JUMPDEST PUSH1 0x25 SLOAD DUP2 LT ISZERO PUSH2 0x2D58 JUMPI PUSH1 0x25 PUSH1 0x0 MSTORE PUSH1 0x0 DUP1 MLOAD PUSH1 0x20 PUSH2 0x4839 DUP4 CODECOPY DUP2 MLOAD SWAP2 MSTORE ADD SWAP1 PUSH1 0x0 SWAP1 JUMP JUMPDEST PUSH1 0x25 SLOAD ISZERO PUSH2 0x2D58 JUMPI PUSH1 0x25 PUSH1 0x0 MSTORE PUSH1 0x0 DUP1 MLOAD PUSH1 0x20 PUSH2 0x4839 DUP4 CODECOPY DUP2 MLOAD SWAP2 MSTORE SWAP1 PUSH1 0x0 SWAP1 JUMP JUMPDEST PUSH1 0x20 DUP1 DUP3 MSTORE DUP3 MLOAD DUP2 DUP4 ADD DUP2 SWAP1 MSTORE SWAP1 SWAP4 SWAP3 PUSH1 0x0 JUMPDEST DUP3 DUP2 LT PUSH2 0x2DEA JUMPI POP POP PUSH1 0x40 SWAP3 SWAP4 POP PUSH1 0x0 DUP4 DUP3 DUP5 ADD ADD MSTORE PUSH1 0x1F DUP1 NOT SWAP2 ADD AND ADD ADD SWAP1 JUMP JUMPDEST DUP2 DUP2 ADD DUP7 ADD MLOAD DUP5 DUP3 ADD PUSH1 0x40 ADD MSTORE DUP6 ADD PUSH2 0x2DC8 JUMP JUMPDEST PUSH1 0x4 CALLDATALOAD SWAP1 PUSH1 0x1 PUSH1 0x1 PUSH1 0xA0 SHL SUB DUP3 AND DUP3 SUB PUSH2 0x475 JUMPI JUMP JUMPDEST PUSH1 0x24 CALLDATALOAD SWAP1 PUSH1 0x1 PUSH1 0x1 PUSH1 0xA0 SHL SUB DUP3 AND DUP3 SUB PUSH2 0x475 JUMPI JUMP JUMPDEST PUSH1 0x60 SWAP1 PUSH1 0x3 NOT ADD SLT PUSH2 0x475 JUMPI PUSH1 0x1 PUSH1 0x1 PUSH1 0xA0 SHL SUB SWAP1 PUSH1 0x4 CALLDATALOAD DUP3 DUP2 AND DUP2 SUB PUSH2 0x475 JUMPI SWAP2 PUSH1 0x24 CALLDATALOAD SWAP1 DUP2 AND DUP2 SUB PUSH2 0x475 JUMPI SWAP1 PUSH1 0x44 CALLDATALOAD SWAP1 JUMP JUMPDEST PUSH1 0x40 SWAP1 PUSH1 0x3 NOT ADD SLT PUSH2 0x475 JUMPI PUSH1 0x4 CALLDATALOAD SWAP1 PUSH1 0x24 CALLDATALOAD SWAP1 JUMP JUMPDEST PUSH1 0x24 CALLDATALOAD SWAP1 DUP2 ISZERO ISZERO DUP3 SUB PUSH2 0x475 JUMPI JUMP JUMPDEST PUSH1 0x4 CALLDATALOAD SWAP1 DUP2 ISZERO ISZERO DUP3 SUB PUSH2 0x475 JUMPI JUMP JUMPDEST PUSH1 0x60 DUP2 ADD SWAP1 DUP2 LT PUSH8 0xFFFFFFFFFFFFFFFF DUP3 GT OR PUSH2 0x1062 JUMPI PUSH1 0x40 MSTORE JUMP JUMPDEST PUSH8 0xFFFFFFFFFFFFFFFF DUP2 GT PUSH2 0x1062 JUMPI PUSH1 0x40 MSTORE JUMP JUMPDEST PUSH1 0x40 DUP2 ADD SWAP1 DUP2 LT PUSH8 0xFFFFFFFFFFFFFFFF DUP3 GT OR PUSH2 0x1062 JUMPI PUSH1 0x40 MSTORE JUMP JUMPDEST SWAP1 PUSH1 0x1F DUP1 NOT SWAP2 ADD AND DUP2 ADD SWAP1 DUP2 LT PUSH8 0xFFFFFFFFFFFFFFFF DUP3 GT OR PUSH2 0x1062 JUMPI PUSH1 0x40 MSTORE JUMP JUMPDEST PUSH1 0x60 PUSH1 0x3 NOT DUP3 ADD SLT PUSH2 0x475 JUMPI PUSH1 0x4 CALLDATALOAD SWAP1 PUSH8 0xFFFFFFFFFFFFFFFF SWAP1 DUP2 DUP4 GT PUSH2 0x475 JUMPI DUP1 PUSH1 0x23 DUP5 ADD SLT ISZERO PUSH2 0x475 JUMPI DUP3 PUSH1 0x4 ADD CALLDATALOAD SWAP2 DUP3 GT PUSH2 0x1062 JUMPI DUP2 PUSH1 0x5 SHL PUSH1 0x40 MLOAD SWAP4 PUSH1 0x20 SWAP4 PUSH2 0x2F50 DUP6 DUP5 ADD DUP8 PUSH2 0x2EDF JUMP JUMPDEST DUP6 MSTORE PUSH1 0x24 DUP5 DUP7 ADD SWAP3 DUP3 ADD ADD SWAP3 DUP4 GT PUSH2 0x475 JUMPI PUSH1 0x24 ADD SWAP1 JUMPDEST DUP3 DUP3 LT PUSH2 0x2F86 JUMPI POP POP POP POP SWAP1 PUSH1 0x24 CALLDATALOAD DUP1 ISZERO ISZERO DUP2 SUB PUSH2 0x475 JUMPI SWAP1 PUSH1 0x44 CALLDATALOAD SWAP1 JUMP JUMPDEST DUP2 CALLDATALOAD PUSH1 0x1 PUSH1 0x1 PUSH1 0xA0 SHL SUB DUP2 AND DUP2 SUB PUSH2 0x475 JUMPI DUP2 MSTORE SWAP1 DUP4 ADD SWAP1 DUP4 ADD PUSH2 0x2F67 JUMP JUMPDEST PUSH1 0x28 SLOAD DUP2 LT ISZERO PUSH2 0x2D58 JUMPI PUSH1 0x3 SWAP1 PUSH1 0x28 PUSH1 0x0 MSTORE MUL PUSH32 0xE16DA923A2D88192E5070F37B4571D58682C0D66212EC634D495F33DE3F77AB5 ADD SWAP1 PUSH1 0x0 SWAP1 JUMP JUMPDEST ISZERO PUSH2 0x2FE7 JUMPI JUMP JUMPDEST PUSH1 0x40 MLOAD PUSH3 0x461BCD PUSH1 0xE5 SHL DUP2 MSTORE PUSH1 0x20 PUSH1 0x4 DUP3 ADD MSTORE PUSH1 0xC PUSH1 0x24 DUP3 ADD MSTORE PUSH12 0x3737BA1030B71037BBB732B9 PUSH1 0xA1 SHL PUSH1 0x44 DUP3 ADD MSTORE PUSH1 0x64 SWAP1 REVERT JUMPDEST SWAP1 DUP2 PUSH1 0x20 SWAP2 SUB SLT PUSH2 0x475 JUMPI MLOAD PUSH1 0x1 PUSH1 0x1 PUSH1 0xA0 SHL SUB DUP2 AND DUP2 SUB PUSH2 0x475 JUMPI SWAP1 JUMP JUMPDEST DUP2 DUP2 MUL SWAP3 SWAP2 DUP2 ISZERO SWAP2 DUP5 DIV EQ OR ISZERO PUSH2 0x690 JUMPI JUMP JUMPDEST SWAP2 SWAP1 DUP3 SUB SWAP2 DUP3 GT PUSH2 0x690 JUMPI JUMP JUMPDEST PUSH1 0x0 NOT DUP2 EQ PUSH2 0x690 JUMPI PUSH1 0x1 ADD SWAP1 JUMP JUMPDEST ISZERO PUSH2 0x3070 JUMPI JUMP JUMPDEST PUSH1 0x40 MLOAD PUSH3 0x461BCD PUSH1 0xE5 SHL DUP2 MSTORE PUSH1 0x20 PUSH1 0x4 DUP3 ADD MSTORE PUSH1 0x2E PUSH1 0x24 DUP3 ADD MSTORE PUSH32 0x496E697469616C697A61626C653A20636F6E747261637420697320616C726561 PUSH1 0x44 DUP3 ADD MSTORE PUSH14 0x191E481A5B9A5D1A585B1A5E9959 PUSH1 0x92 SHL PUSH1 0x64 DUP3 ADD MSTORE PUSH1 0x84 SWAP1 REVERT JUMPDEST PUSH1 0x2A SLOAD PUSH1 0xFF DUP2 PUSH1 0x8 SHR AND PUSH1 0x0 EQ PUSH2 0x30EE JUMPI POP PUSH2 0x30E9 ADDRESS EXTCODESIZE ISZERO PUSH2 0x3069 JUMP JUMPDEST PUSH1 0x0 SWAP1 JUMP JUMPDEST DUP1 PUSH2 0x30FF PUSH1 0x1 PUSH1 0xFF DUP2 SWAP5 AND LT PUSH2 0x3069 JUMP JUMPDEST PUSH1 0xFF NOT AND OR PUSH1 0x2A SSTORE PUSH1 0x1 SWAP1 JUMP JUMPDEST PUSH1 0x1 PUSH1 0x1 PUSH1 0xA0 SHL SUB AND PUSH1 0x0 SWAP1 DUP2 MSTORE PUSH1 0x4 PUSH1 0x20 MSTORE PUSH1 0x40 SWAP1 KECCAK256 SLOAD PUSH1 0xFF AND PUSH2 0x3141 JUMPI PUSH1 0x0 PUSH1 0x20 MSTORE PUSH2 0x313E PUSH1 0x40 PUSH1 0x0 KECCAK256 SLOAD PUSH2 0x31EC JUMP JUMPDEST SWAP1 JUMP JUMPDEST PUSH1 0x1 PUSH1 0x20 MSTORE PUSH1 0x40 PUSH1 0x0 KECCAK256 SLOAD SWAP1 JUMP JUMPDEST SWAP2 SWAP1 DUP3 ADD DUP1 SWAP3 GT PUSH2 0x690 JUMPI JUMP JUMPDEST SWAP1 PUSH1 0xE SLOAD DUP3 GT PUSH2 0x3187 JUMPI PUSH2 0x3177 JUMPI PUSH2 0x3173 SWAP1 PUSH2 0x32B3 JUMP JUMPDEST MLOAD SWAP1 JUMP JUMPDEST PUSH2 0x3182 PUSH1 0x20 SWAP2 PUSH2 0x32B3 JUMP JUMPDEST ADD MLOAD SWAP1 JUMP JUMPDEST PUSH1 0x40 MLOAD PUSH3 0x461BCD PUSH1 0xE5 SHL DUP2 MSTORE PUSH1 0x20 PUSH1 0x4 DUP3 ADD MSTORE PUSH1 0x1F PUSH1 0x24 DUP3 ADD MSTORE PUSH32 0x416D6F756E74206D757374206265206C657373207468616E20737570706C7900 PUSH1 0x44 DUP3 ADD MSTORE PUSH1 0x64 SWAP1 REVERT JUMPDEST DUP2 ISZERO PUSH2 0x31D6 JUMPI DIV SWAP1 JUMP JUMPDEST PUSH4 0x4E487B71 PUSH1 0xE0 SHL PUSH1 0x0 MSTORE PUSH1 0x12 PUSH1 0x4 MSTORE PUSH1 0x24 PUSH1 0x0 REVERT JUMPDEST PUSH1 0xF SLOAD DUP2 GT PUSH2 0x3204 JUMPI PUSH2 0x313E SWAP1 PUSH2 0x2A9E PUSH2 0x2A9E PUSH2 0x3585 JUMP JUMPDEST PUSH1 0x40 MLOAD PUSH3 0x461BCD PUSH1 0xE5 SHL DUP2 MSTORE PUSH1 0x20 PUSH1 0x4 DUP3 ADD MSTORE PUSH1 0x2A PUSH1 0x24 DUP3 ADD MSTORE PUSH32 0x416D6F756E74206D757374206265206C657373207468616E20746F74616C2072 PUSH1 0x44 DUP3 ADD MSTORE PUSH10 0x65666C656374696F6E73 PUSH1 0xB0 SHL PUSH1 0x64 DUP3 ADD MSTORE PUSH1 0x84 SWAP1 REVERT JUMPDEST PUSH1 0x40 MLOAD SWAP1 PUSH2 0x120 DUP3 ADD DUP3 DUP2 LT PUSH8 0xFFFFFFFFFFFFFFFF DUP3 GT OR PUSH2 0x1062 JUMPI PUSH1 0x40 MSTORE DUP2 PUSH2 0x100 PUSH1 0x0 SWAP2 DUP3 DUP2 MSTORE DUP3 PUSH1 0x20 DUP3 ADD MSTORE DUP3 PUSH1 0x40 DUP3 ADD MSTORE DUP3 PUSH1 0x60 DUP3 ADD MSTORE DUP3 PUSH1 0x80 DUP3 ADD MSTORE DUP3 PUSH1 0xA0 DUP3 ADD MSTORE DUP3 PUSH1 0xC0 DUP3 ADD MSTORE DUP3 PUSH1 0xE0 DUP3 ADD MSTORE ADD MSTORE JUMP JUMPDEST PUSH2 0x32BB PUSH2 0x325C JUMP JUMPDEST POP PUSH2 0x32C4 PUSH2 0x325C JUMP JUMPDEST SWAP1 PUSH1 0x0 PUSH1 0x40 DUP1 MLOAD PUSH2 0x32D4 DUP2 PUSH2 0x2E93 JUMP JUMPDEST DUP3 DUP2 MSTORE DUP3 PUSH1 0x20 DUP3 ADD MSTORE ADD MSTORE PUSH2 0x32E7 PUSH2 0x33B0 JUMP JUMPDEST SWAP1 PUSH1 0x64 PUSH2 0x32F5 DUP4 MLOAD DUP4 PUSH2 0x303A JUMP JUMPDEST DIV SWAP2 PUSH1 0xC0 DUP5 ADD SWAP3 DUP4 MSTORE PUSH2 0x3383 PUSH2 0x336E PUSH2 0x337C PUSH1 0x64 PUSH2 0x332E PUSH1 0x40 DUP3 PUSH2 0x331D PUSH1 0x20 DUP10 ADD MLOAD DUP11 PUSH2 0x303A JUMP JUMPDEST DIV SWAP7 PUSH1 0xE0 DUP12 ADD SWAP8 DUP9 MSTORE ADD MLOAD DUP8 PUSH2 0x303A JUMP JUMPDEST DIV SWAP5 PUSH2 0x100 DUP9 ADD SWAP6 DUP7 MSTORE PUSH2 0x3351 PUSH2 0x3349 PUSH2 0x3349 DUP10 MLOAD DUP5 PUSH2 0x304D JUMP JUMPDEST DUP8 MLOAD SWAP1 PUSH2 0x304D JUMP JUMPDEST PUSH1 0xA0 DUP10 ADD MSTORE PUSH2 0x3375 PUSH2 0x3364 PUSH2 0x2A9E PUSH2 0x3585 JUMP JUMPDEST DUP1 SWAP5 DUP2 DUP1 SWAP5 PUSH2 0x303A JUMP JUMPDEST SWAP9 MLOAD PUSH2 0x303A JUMP JUMPDEST SWAP5 MLOAD PUSH2 0x303A JUMP JUMPDEST SWAP4 MLOAD PUSH2 0x303A JUMP JUMPDEST SWAP2 PUSH2 0x3396 DUP4 PUSH2 0x25B2 DUP4 PUSH2 0x25B2 DUP7 DUP10 PUSH2 0x304D JUMP JUMPDEST SWAP3 PUSH1 0x80 DUP7 ADD MSTORE PUSH1 0x60 DUP6 ADD MSTORE PUSH1 0x40 DUP5 ADD MSTORE PUSH1 0x20 DUP4 ADD MSTORE DUP2 MSTORE SWAP1 JUMP JUMPDEST PUSH1 0x40 MLOAD SWAP1 PUSH2 0x33BD DUP3 PUSH2 0x2E93 JUMP JUMPDEST PUSH1 0x1C SLOAD DUP3 MSTORE PUSH1 0x1D SLOAD PUSH1 0x20 DUP4 ADD MSTORE PUSH1 0x1E SLOAD PUSH1 0x40 DUP4 ADD MSTORE JUMP JUMPDEST PUSH1 0x40 MLOAD SWAP1 PUSH2 0x33E1 DUP3 PUSH2 0x2E93 JUMP JUMPDEST DUP2 PUSH1 0x1F SLOAD DUP2 MSTORE PUSH1 0x20 SLOAD PUSH1 0x20 DUP3 ADD MSTORE PUSH1 0x40 PUSH1 0x21 SLOAD SWAP2 ADD MSTORE JUMP JUMPDEST SWAP1 SWAP3 PUSH2 0x3403 PUSH2 0x325C JUMP JUMPDEST SWAP4 ISZERO PUSH2 0x34E4 JUMPI PUSH2 0x3497 SWAP3 PUSH1 0x0 PUSH1 0x40 DUP1 MLOAD PUSH2 0x341C DUP2 PUSH2 0x2E93 JUMP JUMPDEST DUP3 DUP2 MSTORE DUP3 PUSH1 0x20 DUP3 ADD MSTORE ADD MSTORE DUP1 PUSH2 0x34DC JUMPI JUMPDEST ISZERO PUSH2 0x349F JUMPI POP PUSH2 0x348F PUSH2 0x343E PUSH2 0x33D4 JUMP JUMPDEST PUSH2 0x348F PUSH1 0x64 PUSH2 0x344E DUP4 MLOAD DUP7 PUSH2 0x303A JUMP JUMPDEST DIV SWAP4 PUSH1 0xC0 DUP8 ADD SWAP5 DUP6 MSTORE PUSH1 0x64 PUSH2 0x347E PUSH1 0x40 DUP3 PUSH2 0x346D PUSH1 0x20 DUP9 ADD MLOAD DUP7 PUSH2 0x303A JUMP JUMPDEST DIV SWAP6 PUSH1 0xE0 DUP12 ADD SWAP7 DUP8 MSTORE ADD MLOAD DUP4 PUSH2 0x303A JUMP JUMPDEST DIV SWAP5 PUSH2 0x100 DUP9 ADD SWAP6 DUP7 MSTORE MLOAD SWAP1 PUSH2 0x304D JUMP JUMPDEST SWAP1 MLOAD SWAP1 PUSH2 0x304D JUMP JUMPDEST PUSH1 0xA0 DUP3 ADD MSTORE SWAP1 JUMP JUMPDEST PUSH2 0x34B3 JUMPI PUSH2 0x348F PUSH2 0x34AE PUSH2 0x33B0 JUMP JUMPDEST PUSH2 0x343E JUMP JUMPDEST PUSH2 0x348F PUSH1 0x40 MLOAD PUSH2 0x34C2 DUP2 PUSH2 0x2E93 JUMP JUMPDEST PUSH1 0x19 SLOAD DUP2 MSTORE PUSH1 0x1A SLOAD PUSH1 0x20 DUP3 ADD MSTORE PUSH1 0x1B SLOAD PUSH1 0x40 DUP3 ADD MSTORE PUSH2 0x343E JUMP JUMPDEST POP DUP1 ISZERO PUSH2 0x342D JUMP JUMPDEST POP PUSH1 0xA0 DUP4 ADD MSTORE POP SWAP1 JUMP JUMPDEST SWAP2 SWAP4 SWAP1 DUP4 PUSH2 0x34FB SWAP2 PUSH2 0x303A JUMP JUMPDEST SWAP4 DUP5 SWAP1 ISZERO PUSH2 0x3548 JUMPI POP PUSH2 0x352F PUSH2 0x3515 DUP5 PUSH1 0xC0 DUP6 ADD MLOAD PUSH2 0x303A JUMP JUMPDEST SWAP4 PUSH2 0x100 PUSH2 0x3527 DUP3 PUSH1 0xE0 DUP8 ADD MLOAD PUSH2 0x303A JUMP JUMPDEST SWAP5 ADD MLOAD PUSH2 0x303A JUMP JUMPDEST SWAP1 PUSH2 0x3542 DUP3 PUSH2 0x25B2 DUP6 PUSH2 0x25B2 DUP9 DUP11 PUSH2 0x304D JUMP JUMPDEST SWAP4 SWAP3 SWAP2 SWAP1 JUMP JUMPDEST SWAP3 POP PUSH1 0x0 SWAP2 POP DUP2 SWAP1 DUP2 SWAP1 JUMP JUMPDEST DUP1 MLOAD ISZERO PUSH2 0x2D58 JUMPI PUSH1 0x20 ADD SWAP1 JUMP JUMPDEST DUP1 MLOAD PUSH1 0x1 LT ISZERO PUSH2 0x2D58 JUMPI PUSH1 0x40 ADD SWAP1 JUMP JUMPDEST DUP1 MLOAD DUP3 LT ISZERO PUSH2 0x2D58 JUMPI PUSH1 0x20 SWAP2 PUSH1 0x5 SHL ADD ADD SWAP1 JUMP JUMPDEST PUSH1 0xF SLOAD SWAP1 DUP2 PUSH1 0xE SLOAD SWAP3 DUP4 SWAP1 PUSH1 0x40 SWAP3 DUP4 MLOAD SWAP2 DUP3 SWAP1 PUSH1 0x7 SLOAD SWAP5 DUP6 DUP6 MSTORE PUSH1 0x20 DUP1 SWAP6 ADD SWAP6 DUP4 PUSH1 0x0 SWAP8 PUSH1 0x7 DUP10 MSTORE PUSH32 0xA66CC928B5EDB82AF9BD49922954155AB7B0942694BEA4CE44661D9A8736C688 SWAP3 DUP10 JUMPDEST DUP10 DUP3 DUP3 LT PUSH2 0x36C3 JUMPI POP POP POP PUSH2 0x35E8 SWAP3 POP SUB DUP5 PUSH2 0x2EDF JUMP JUMPDEST DUP6 SWAP9 JUMPDEST DUP4 MLOAD DUP11 LT ISZERO PUSH2 0x369D JUMPI PUSH1 0x1 PUSH1 0x1 PUSH1 0xA0 SHL SUB SWAP3 DUP4 PUSH2 0x3608 DUP13 DUP8 PUSH2 0x3571 JUMP JUMPDEST MLOAD AND DUP9 MSTORE DUP8 DUP8 MSTORE DUP1 DUP10 DUP10 KECCAK256 SLOAD GT DUP1 ISZERO PUSH2 0x367E JUMPI JUMPDEST PUSH2 0x3670 JUMPI PUSH2 0x366A SWAP2 PUSH2 0x3647 PUSH2 0x3664 SWAP3 DUP7 PUSH2 0x3636 DUP16 DUP11 PUSH2 0x3571 JUMP JUMPDEST MLOAD AND DUP12 MSTORE DUP11 DUP11 MSTORE DUP12 DUP12 KECCAK256 SLOAD SWAP1 PUSH2 0x304D JUMP JUMPDEST SWAP5 PUSH2 0x3652 DUP14 DUP9 PUSH2 0x3571 JUMP JUMPDEST MLOAD AND DUP10 MSTORE PUSH1 0x1 DUP9 MSTORE DUP10 DUP10 KECCAK256 SLOAD SWAP1 PUSH2 0x304D JUMP JUMPDEST SWAP10 PUSH2 0x305A JUMP JUMPDEST SWAP9 PUSH2 0x35EB JUMP JUMPDEST POP POP SWAP8 POP POP POP SWAP3 POP POP POP SWAP2 SWAP1 JUMP JUMPDEST POP DUP4 PUSH2 0x368A DUP13 DUP8 PUSH2 0x3571 JUMP JUMPDEST MLOAD AND DUP9 MSTORE PUSH1 0x1 DUP8 MSTORE DUP2 DUP10 DUP10 KECCAK256 SLOAD GT PUSH2 0x361C JUMP JUMPDEST SWAP9 POP SWAP5 POP SWAP5 POP POP SWAP1 POP PUSH2 0x36B0 DUP3 DUP3 PUSH2 0x31CC JUMP JUMPDEST DUP4 LT PUSH2 0x36BC JUMPI POP POP SWAP2 SWAP1 JUMP JUMPDEST SWAP4 POP SWAP2 SWAP1 POP JUMP JUMPDEST DUP6 SLOAD PUSH1 0x1 PUSH1 0x1 PUSH1 0xA0 SHL SUB AND DUP5 MSTORE PUSH1 0x1 SWAP6 DUP7 ADD SWAP6 DUP10 SWAP6 POP SWAP4 ADD SWAP3 ADD PUSH2 0x35D1 JUMP JUMPDEST PUSH1 0x1 PUSH1 0x1 PUSH1 0xA0 SHL SUB SWAP1 DUP2 AND SWAP2 DUP3 ISZERO PUSH2 0x3793 JUMPI AND SWAP2 DUP3 ISZERO PUSH2 0x3743 JUMPI PUSH1 0x20 PUSH32 0x8C5BE1E5EBEC7D5BD14F71427D1E84F3DD0314C0F7B2291E5B200AC8C7C3B925 SWAP2 DUP4 PUSH1 0x0 MSTORE PUSH1 0x2 DUP3 MSTORE PUSH1 0x40 PUSH1 0x0 KECCAK256 DUP6 PUSH1 0x0 MSTORE DUP3 MSTORE DUP1 PUSH1 0x40 PUSH1 0x0 KECCAK256 SSTORE PUSH1 0x40 MLOAD SWAP1 DUP2 MSTORE LOG3 JUMP JUMPDEST PUSH1 0x40 MLOAD PUSH3 0x461BCD PUSH1 0xE5 SHL DUP2 MSTORE PUSH1 0x20 PUSH1 0x4 DUP3 ADD MSTORE PUSH1 0x22 PUSH1 0x24 DUP3 ADD MSTORE PUSH32 0x45524332303A20617070726F766520746F20746865207A65726F206164647265 PUSH1 0x44 DUP3 ADD MSTORE PUSH2 0x7373 PUSH1 0xF0 SHL PUSH1 0x64 DUP3 ADD MSTORE PUSH1 0x84 SWAP1 REVERT JUMPDEST PUSH1 0x40 MLOAD PUSH3 0x461BCD PUSH1 0xE5 SHL DUP2 MSTORE PUSH1 0x20 PUSH1 0x4 DUP3 ADD MSTORE PUSH1 0x24 DUP1 DUP3 ADD MSTORE PUSH32 0x45524332303A20617070726F76652066726F6D20746865207A65726F20616464 PUSH1 0x44 DUP3 ADD MSTORE PUSH4 0x72657373 PUSH1 0xE0 SHL PUSH1 0x64 DUP3 ADD MSTORE PUSH1 0x84 SWAP1 REVERT JUMPDEST ISZERO PUSH2 0x37EB JUMPI JUMP JUMPDEST PUSH1 0x64 PUSH1 0x40 MLOAD PUSH3 0x461BCD PUSH1 0xE5 SHL DUP2 MSTORE PUSH1 0x20 PUSH1 0x4 DUP3 ADD MSTORE PUSH1 0x20 PUSH1 0x24 DUP3 ADD MSTORE PUSH32 0x596F752061726520657863656564696E67206D617857616C6C65744C696D6974 PUSH1 0x44 DUP3 ADD MSTORE REVERT JUMPDEST SWAP2 PUSH1 0x1 PUSH1 0x1 PUSH1 0xA0 SHL SUB DUP4 AND SWAP2 SWAP1 PUSH1 0x0 DUP4 ISZERO PUSH2 0x454C JUMPI PUSH1 0x1 PUSH1 0x1 PUSH1 0xA0 SHL SUB DUP4 AND SWAP5 DUP6 ISZERO PUSH2 0x44FB JUMPI DUP3 ISZERO PUSH2 0x44A4 JUMPI PUSH2 0x3864 SWAP1 PUSH2 0x310C JUMP JUMPDEST DUP3 GT PUSH2 0x4445 JUMPI DUP4 DUP2 MSTORE PUSH1 0x20 PUSH1 0x80 MSTORE PUSH1 0x6 PUSH1 0x20 MSTORE PUSH1 0x40 SWAP3 PUSH1 0xFF DUP5 DUP4 KECCAK256 SLOAD AND ISZERO DUP1 PUSH2 0x4434 JUMPI JUMPDEST ISZERO PUSH2 0x43FF JUMPI PUSH1 0xD SLOAD DUP4 SWAP2 SWAP1 PUSH1 0x1 PUSH1 0x1 PUSH1 0xA0 SHL SUB AND DUP7 DUP2 EQ DUP1 DUP1 PUSH2 0x43E8 JUMPI JUMPDEST DUP1 PUSH2 0x43D8 JUMPI JUMPDEST PUSH2 0x436D JUMPI JUMPDEST ISZERO DUP1 PUSH2 0x4356 JUMPI JUMPDEST DUP1 PUSH2 0x433F JUMPI JUMPDEST DUP1 PUSH2 0x432F JUMPI JUMPDEST PUSH2 0x4284 JUMPI JUMPDEST POP POP POP PUSH2 0x38D5 ADDRESS PUSH2 0x310C JUMP JUMPDEST PUSH1 0x10 SLOAD SWAP1 PUSH1 0x8 SLOAD SWAP1 DUP3 PUSH1 0xFF DUP4 PUSH1 0x10 SHR AND ISZERO SWAP2 DUP3 PUSH2 0x4275 JUMPI JUMPDEST DUP3 PUSH2 0x426A JUMPI JUMPDEST POP POP DUP1 PUSH2 0x4255 JUMPI JUMPDEST DUP1 PUSH2 0x423E JUMPI JUMPDEST DUP1 PUSH2 0x4227 JUMPI JUMPDEST PUSH2 0x3C65 JUMPI JUMPDEST POP POP PUSH1 0x0 DUP1 MLOAD PUSH1 0x20 PUSH2 0x4899 DUP4 CODECOPY DUP2 MLOAD SWAP2 MSTORE SWAP3 SWAP2 PUSH1 0xA0 SWAP2 PUSH1 0x1 SWAP2 DUP2 PUSH1 0xFF PUSH1 0x8 SLOAD PUSH1 0x10 SHR AND DUP1 ISZERO PUSH2 0x3C4F JUMPI JUMPDEST DUP1 ISZERO PUSH2 0x3C39 JUMPI JUMPDEST PUSH2 0x3C30 JUMPI JUMPDEST PUSH1 0x1 DUP1 DUP7 SHL SUB PUSH1 0xD SLOAD AND DUP10 EQ PUSH2 0x3C28 JUMPI JUMPDEST PUSH2 0x399F PUSH2 0x398B PUSH2 0x3A21 SWAP3 DUP11 DUP7 MSTORE PUSH1 0x3 PUSH1 0x80 MLOAD MSTORE PUSH1 0xFF DUP10 DUP8 KECCAK256 SLOAD AND ISZERO SWAP1 DUP2 PUSH2 0x3C16 JUMPI JUMPDEST DUP2 PUSH2 0x3BFC JUMPI JUMPDEST PUSH2 0x3983 PUSH2 0x325C JUMP JUMPDEST POP DUP8 DUP7 PUSH2 0x33F9 JUMP JUMPDEST SWAP5 PUSH2 0x3997 PUSH2 0x2A9E PUSH2 0x3585 JUMP JUMPDEST SWAP1 DUP5 DUP8 PUSH2 0x34EE JUMP JUMPDEST SWAP5 SWAP3 SWAP2 SWAP4 PUSH1 0x80 SWAP7 SWAP2 SWAP7 MLOAD DUP10 ADD SWAP3 DUP12 DUP11 ADD SWAP6 PUSH1 0x60 DUP12 ADD SWAP9 PUSH1 0x80 DUP13 ADD SWAP9 DUP10 MSTORE DUP10 MSTORE DUP7 MSTORE DUP4 MSTORE DUP9 MSTORE DUP12 DUP8 MSTORE PUSH1 0x4 PUSH1 0x80 MLOAD MSTORE PUSH1 0xFF DUP11 DUP9 KECCAK256 SLOAD AND PUSH2 0x3BD6 JUMPI JUMPDEST POP DUP12 DUP7 MSTORE PUSH1 0x4 PUSH1 0x80 MLOAD MSTORE PUSH1 0xFF DUP10 DUP8 KECCAK256 SLOAD AND PUSH2 0x3BAD JUMPI JUMPDEST DUP11 DUP7 MSTORE DUP6 PUSH1 0x80 MLOAD MSTORE PUSH2 0x3A06 DUP10 DUP8 KECCAK256 SLOAD DUP9 MLOAD SWAP1 PUSH2 0x304D JUMP JUMPDEST DUP12 DUP8 MSTORE DUP7 PUSH1 0x80 MLOAD MSTORE DUP10 DUP8 KECCAK256 SSTORE DUP12 DUP7 MSTORE DUP9 DUP7 KECCAK256 SLOAD SWAP1 MLOAD SWAP1 PUSH2 0x314F JUMP JUMPDEST DUP11 DUP6 MSTORE DUP5 PUSH1 0x80 MLOAD MSTORE DUP8 DUP6 KECCAK256 SSTORE MLOAD DUP1 ISZERO DUP1 ISZERO SWAP1 PUSH2 0x3BA0 JUMPI JUMPDEST PUSH2 0x3B77 JUMPI JUMPDEST POP MLOAD DUP1 ISZERO DUP1 ISZERO SWAP1 PUSH2 0x3B69 JUMPI JUMPDEST PUSH2 0x3AE4 JUMPI JUMPDEST POP MLOAD SWAP1 DUP5 DUP3 ISZERO DUP1 ISZERO SWAP1 PUSH2 0x3AD7 JUMPI JUMPDEST PUSH2 0x3A72 JUMPI JUMPDEST POP POP POP ADD MLOAD SWAP1 MLOAD SWAP1 DUP2 MSTORE PUSH1 0x80 MLOAD SWAP1 LOG3 JUMP JUMPDEST PUSH2 0x3AB1 SWAP2 PUSH1 0xE0 DUP6 ADD MLOAD PUSH2 0x3A87 DUP2 PUSH1 0x23 SLOAD PUSH2 0x314F JUMP JUMPDEST PUSH1 0x23 SSTORE ADDRESS DUP3 MSTORE PUSH1 0x4 PUSH1 0x80 MLOAD MSTORE PUSH1 0xFF DUP4 DUP4 KECCAK256 SLOAD AND PUSH2 0x3ABB JUMPI JUMPDEST POP ADDRESS DUP2 MSTORE DUP1 PUSH1 0x80 MLOAD MSTORE KECCAK256 SWAP2 DUP3 SLOAD PUSH2 0x314F JUMP JUMPDEST SWAP1 SSTORE CODESIZE DUP1 DUP5 PUSH2 0x3A61 JUMP JUMPDEST PUSH1 0x1 PUSH1 0x80 MLOAD MSTORE PUSH2 0x3ACF DUP4 DUP4 KECCAK256 SWAP2 DUP3 SLOAD PUSH2 0x314F JUMP JUMPDEST SWAP1 SSTORE CODESIZE PUSH2 0x3A9F JUMP JUMPDEST POP PUSH1 0xE0 DUP5 ADD MLOAD ISZERO ISZERO PUSH2 0x3A5C JUMP JUMPDEST PUSH2 0x3B39 SWAP1 PUSH2 0x100 DUP6 ADD SWAP1 DUP2 MLOAD PUSH2 0x3AFC DUP2 PUSH1 0x24 SLOAD PUSH2 0x314F JUMP JUMPDEST PUSH1 0x24 SSTORE ADDRESS DUP7 MSTORE PUSH1 0x4 PUSH1 0x80 MLOAD MSTORE PUSH1 0xFF DUP10 DUP8 KECCAK256 SLOAD AND PUSH2 0x3B4D JUMPI JUMPDEST POP ADDRESS DUP6 MSTORE DUP5 PUSH1 0x80 MLOAD MSTORE PUSH2 0x3B2B DUP9 DUP7 KECCAK256 SWAP2 DUP3 SLOAD PUSH2 0x314F JUMP JUMPDEST SWAP1 SSTORE MLOAD PUSH1 0xE0 DUP6 ADD MLOAD SWAP1 PUSH2 0x314F JUMP JUMPDEST DUP6 MLOAD SWAP1 DUP2 MSTORE DUP8 DUP8 ADDRESS SWAP3 PUSH1 0x80 MLOAD SWAP1 LOG3 CODESIZE PUSH2 0x3A4E JUMP JUMPDEST PUSH1 0x1 PUSH1 0x80 MLOAD MSTORE PUSH2 0x3B61 DUP10 DUP8 KECCAK256 SWAP2 DUP3 SLOAD PUSH2 0x314F JUMP JUMPDEST SWAP1 SSTORE CODESIZE PUSH2 0x3B14 JUMP JUMPDEST POP PUSH2 0x100 DUP5 ADD MLOAD ISZERO ISZERO PUSH2 0x3A49 JUMP JUMPDEST PUSH2 0x3B97 SWAP1 PUSH2 0x3B8C PUSH1 0xC0 DUP8 ADD MLOAD SWAP2 PUSH1 0xF SLOAD PUSH2 0x304D JUMP JUMPDEST PUSH1 0xF SSTORE PUSH1 0x22 SLOAD PUSH2 0x314F JUMP JUMPDEST PUSH1 0x22 SSTORE CODESIZE PUSH2 0x3A3D JUMP JUMPDEST POP PUSH1 0xC0 DUP6 ADD MLOAD ISZERO ISZERO PUSH2 0x3A38 JUMP JUMPDEST PUSH1 0x1 PUSH1 0x80 MLOAD MSTORE PUSH2 0x3BC4 DUP10 DUP8 KECCAK256 SLOAD DUP10 DUP10 ADD MLOAD SWAP1 PUSH2 0x314F JUMP JUMPDEST DUP13 DUP8 MSTORE PUSH1 0x1 PUSH1 0x80 MLOAD MSTORE DUP10 DUP8 KECCAK256 SSTORE PUSH2 0x39EF JUMP JUMPDEST PUSH2 0x3BE9 SWAP1 PUSH1 0x1 PUSH1 0x80 MLOAD MSTORE DUP11 DUP9 KECCAK256 SLOAD PUSH2 0x304D JUMP JUMPDEST DUP12 DUP8 MSTORE PUSH1 0x1 PUSH1 0x80 MLOAD MSTORE DUP10 DUP8 KECCAK256 SSTORE CODESIZE PUSH2 0x39D9 JUMP JUMPDEST SWAP1 POP PUSH2 0x3C0D PUSH1 0x14 SLOAD PUSH1 0x15 SLOAD SWAP1 PUSH2 0x314F JUMP JUMPDEST NUMBER GT ISZERO SWAP1 PUSH2 0x397B JUMP JUMPDEST DUP13 DUP8 MSTORE DUP10 DUP8 KECCAK256 SLOAD PUSH1 0xFF AND ISZERO SWAP2 POP PUSH2 0x3975 JUMP JUMPDEST POP PUSH1 0x1 PUSH2 0x3953 JUMP JUMPDEST SWAP3 POP DUP2 SWAP3 PUSH2 0x3942 JUMP JUMPDEST POP DUP9 DUP4 MSTORE PUSH1 0x3 PUSH1 0x80 MLOAD MSTORE PUSH1 0xFF DUP7 DUP5 KECCAK256 SLOAD AND PUSH2 0x393D JUMP JUMPDEST POP DUP8 DUP4 MSTORE PUSH1 0x3 PUSH1 0x80 MLOAD MSTORE PUSH1 0xFF DUP7 DUP5 KECCAK256 SLOAD AND PUSH2 0x3936 JUMP JUMPDEST PUSH1 0xD SLOAD PUSH1 0x1 PUSH1 0x1 PUSH1 0xA0 SHL SUB AND DUP8 SUB PUSH2 0x3FBA JUMPI POP POP PUSH1 0x10 SLOAD PUSH2 0x3C84 PUSH2 0x33D4 JUMP JUMPDEST PUSH3 0x10000 PUSH3 0xFF0000 NOT PUSH1 0x8 SLOAD AND OR PUSH1 0x8 SSTORE PUSH2 0x3CA8 DUP6 DUP3 ADD MLOAD PUSH1 0x80 MLOAD DUP4 ADD MLOAD SWAP1 PUSH2 0x314F JUMP JUMPDEST SWAP2 DUP3 DUP1 PUSH1 0x1 SHL DIV PUSH1 0x2 EQ DUP4 ISZERO OR ISZERO PUSH2 0x3FA6 JUMPI PUSH2 0x3CDD PUSH2 0x3CD6 DUP5 PUSH1 0x1 SHL PUSH2 0x3CD1 DUP10 DUP7 ADD MLOAD DUP6 PUSH2 0x303A JUMP JUMPDEST PUSH2 0x31CC JUMP JUMPDEST DUP1 SWAP3 PUSH2 0x304D JUMP JUMPDEST DUP7 MLOAD SELFBALANCE SWAP2 PUSH2 0x3CEA DUP3 PUSH2 0x2E93 JUMP JUMPDEST PUSH1 0x2 DUP3 MSTORE DUP9 CALLDATASIZE PUSH1 0x80 MLOAD DUP5 ADD CALLDATACOPY ADDRESS PUSH2 0x3D00 DUP4 PUSH2 0x3554 JUMP JUMPDEST MSTORE PUSH1 0xC SLOAD DUP10 MLOAD PUSH4 0x15AB88C9 PUSH1 0xE3 SHL DUP2 MSTORE PUSH1 0x80 MLOAD PUSH1 0x1 PUSH1 0x1 PUSH1 0xA0 SHL SUB SWAP1 SWAP3 AND SWAP2 DUP2 PUSH1 0x4 DUP2 DUP6 GAS STATICCALL SWAP1 DUP2 ISZERO PUSH2 0x3F9C JUMPI SWAP2 DUP4 SWAP2 PUSH2 0x3D58 SWAP4 DUP12 SWAP2 PUSH2 0x3F7D JUMPI JUMPDEST POP PUSH2 0x3D45 DUP7 PUSH2 0x3561 JUMP JUMPDEST PUSH1 0x1 PUSH1 0x1 PUSH1 0xA0 SHL SUB SWAP1 SWAP2 AND SWAP1 MSTORE ADDRESS PUSH2 0x36E2 JUMP JUMPDEST PUSH1 0xC SLOAD PUSH1 0x1 PUSH1 0x1 PUSH1 0xA0 SHL SUB AND SWAP1 DUP2 EXTCODESIZE ISZERO PUSH2 0x3F79 JUMPI SWAP2 DUP8 SWAP2 PUSH2 0x3DA2 SWAP4 DUP4 DUP13 MLOAD DUP1 SWAP7 DUP2 SWAP6 DUP3 SWAP5 PUSH4 0x791AC947 PUSH1 0xE0 SHL DUP5 MSTORE PUSH1 0x4 DUP5 ADD MSTORE DUP4 PUSH1 0x24 DUP5 ADD MSTORE PUSH1 0xA0 PUSH1 0x44 DUP5 ADD MSTORE PUSH1 0xA4 DUP4 ADD SWAP1 PUSH2 0x46C2 JUMP JUMPDEST ADDRESS PUSH1 0x64 DUP4 ADD MSTORE TIMESTAMP PUSH1 0x84 DUP4 ADD MSTORE SUB SWAP3 GAS CALL DUP1 ISZERO PUSH2 0x3F6F JUMPI SWAP1 DUP7 SWAP2 PUSH2 0x3F57 JUMPI JUMPDEST POP POP PUSH2 0x3DCF PUSH2 0x3E08 SWAP2 SELFBALANCE PUSH2 0x304D JUMP JUMPDEST SWAP4 PUSH2 0x2A9E PUSH2 0x3DFA PUSH2 0x3DEF PUSH2 0x3DE9 DUP12 DUP9 ADD MLOAD DUP6 PUSH1 0x1 SHL PUSH2 0x304D JUMP JUMPDEST DUP9 PUSH2 0x31CC JUMP JUMPDEST SWAP7 DUP11 DUP8 ADD MLOAD SWAP1 PUSH2 0x303A JUMP JUMPDEST SWAP2 DUP10 DUP7 ADD MLOAD SWAP1 PUSH1 0x1 SHL PUSH2 0x304D JUMP JUMPDEST SWAP1 DUP2 PUSH2 0x3E93 JUMPI JUMPDEST POP POP DUP2 PUSH1 0x1 SHL SWAP2 DUP1 DUP4 DIV PUSH1 0x2 EQ SWAP1 ISZERO OR ISZERO PUSH2 0x3E7F JUMPI SWAP2 PUSH2 0x3E48 PUSH1 0x0 DUP1 MLOAD PUSH1 0x20 PUSH2 0x4899 DUP4 CODECOPY DUP2 MLOAD SWAP2 MSTORE SWAP6 SWAP5 SWAP3 PUSH1 0xA0 SWAP5 PUSH1 0x80 MLOAD ADD MLOAD SWAP1 PUSH2 0x303A JUMP JUMPDEST DUP1 PUSH2 0x3E66 JUMPI JUMPDEST POP PUSH3 0xFF0000 NOT PUSH1 0x8 SLOAD AND PUSH1 0x8 SSTORE JUMPDEST SWAP2 DUP2 SWAP4 SWAP5 POP PUSH2 0x390C JUMP JUMPDEST PUSH2 0x3E79 SWAP1 PUSH1 0x1 DUP1 DUP7 SHL SUB PUSH1 0x17 SLOAD AND PUSH2 0x459F JUMP JUMPDEST CODESIZE PUSH2 0x3E4E JUMP JUMPDEST PUSH4 0x4E487B71 PUSH1 0xE0 SHL DUP4 MSTORE PUSH1 0x11 PUSH1 0x4 MSTORE PUSH1 0x24 DUP4 REVERT JUMPDEST PUSH1 0xC SLOAD PUSH1 0x60 SWAP2 SWAP1 PUSH2 0x3EAF SWAP1 DUP3 SWAP1 PUSH1 0x1 PUSH1 0x1 PUSH1 0xA0 SHL SUB AND ADDRESS PUSH2 0x36E2 JUMP JUMPDEST PUSH1 0xC SLOAD PUSH1 0x1 PUSH1 0x1 PUSH1 0xA0 SHL SUB AND SWAP1 PUSH1 0xC4 SWAP1 PUSH2 0x3EC7 PUSH2 0x2D93 JUMP JUMPDEST SWAP6 SWAP1 SLOAD SWAP4 DUP12 MLOAD SWAP7 DUP8 SWAP6 DUP7 SWAP5 PUSH4 0xF305D719 PUSH1 0xE0 SHL DUP7 MSTORE ADDRESS PUSH1 0x4 DUP8 ADD MSTORE PUSH1 0x24 DUP7 ADD MSTORE DUP12 PUSH1 0x44 DUP7 ADD MSTORE DUP12 PUSH1 0x64 DUP7 ADD MSTORE PUSH1 0x1 DUP1 PUSH1 0xA0 SHL SUB SWAP2 PUSH1 0x3 SHL SHR AND PUSH1 0x84 DUP5 ADD MSTORE TIMESTAMP PUSH1 0xA4 DUP5 ADD MSTORE GAS CALL DUP1 ISZERO PUSH2 0x3F4D JUMPI PUSH2 0x3F1E JUMPI JUMPDEST DUP1 PUSH2 0x3E0F JUMP JUMPDEST PUSH1 0x60 SWAP1 DUP2 RETURNDATASIZE DUP2 GT PUSH2 0x3F46 JUMPI JUMPDEST PUSH2 0x3F34 DUP2 DUP4 PUSH2 0x2EDF JUMP JUMPDEST DUP2 ADD SUB SLT PUSH2 0x3F42 JUMPI CODESIZE PUSH2 0x3F18 JUMP JUMPDEST DUP3 DUP1 REVERT JUMPDEST POP RETURNDATASIZE PUSH2 0x3F2A JUMP JUMPDEST DUP7 MLOAD RETURNDATASIZE DUP7 DUP3 RETURNDATACOPY RETURNDATASIZE SWAP1 REVERT JUMPDEST PUSH2 0x3F60 SWAP1 PUSH2 0x2EAF JUMP JUMPDEST PUSH2 0x3F6B JUMPI DUP5 CODESIZE PUSH2 0x3DC0 JUMP JUMPDEST DUP5 DUP1 REVERT JUMPDEST DUP9 MLOAD RETURNDATASIZE DUP9 DUP3 RETURNDATACOPY RETURNDATASIZE SWAP1 REVERT JUMPDEST DUP8 DUP1 REVERT JUMPDEST PUSH2 0x3F96 SWAP2 POP PUSH1 0x80 MLOAD RETURNDATASIZE DUP2 GT PUSH2 0x10A0 JUMPI PUSH2 0x1092 DUP2 DUP4 PUSH2 0x2EDF JUMP JUMPDEST CODESIZE PUSH2 0x3D3B JUMP JUMPDEST DUP12 MLOAD RETURNDATASIZE DUP12 DUP3 RETURNDATACOPY RETURNDATASIZE SWAP1 REVERT JUMPDEST PUSH4 0x4E487B71 PUSH1 0xE0 SHL DUP5 MSTORE PUSH1 0x11 PUSH1 0x4 MSTORE PUSH1 0x24 DUP5 REVERT JUMPDEST PUSH3 0x10000 PUSH2 0x3FC6 PUSH2 0x33B0 JUMP JUMPDEST SWAP2 PUSH3 0xFF0000 NOT AND OR PUSH1 0x8 SSTORE PUSH2 0x3FE4 DUP6 DUP3 ADD MLOAD PUSH1 0x80 MLOAD DUP4 ADD MLOAD SWAP1 PUSH2 0x314F JUMP JUMPDEST SWAP2 DUP3 DUP1 PUSH1 0x1 SHL DIV PUSH1 0x2 EQ DUP4 ISZERO OR ISZERO PUSH2 0x3FA6 JUMPI PUSH2 0x400D PUSH2 0x3CD6 DUP5 PUSH1 0x1 SHL PUSH2 0x3CD1 DUP10 DUP7 ADD MLOAD DUP6 PUSH2 0x303A JUMP JUMPDEST DUP7 MLOAD SELFBALANCE SWAP2 PUSH2 0x401A DUP3 PUSH2 0x2E93 JUMP JUMPDEST PUSH1 0x2 DUP3 MSTORE DUP9 CALLDATASIZE PUSH1 0x80 MLOAD DUP5 ADD CALLDATACOPY ADDRESS PUSH2 0x4030 DUP4 PUSH2 0x3554 JUMP JUMPDEST MSTORE PUSH1 0xC SLOAD DUP10 MLOAD PUSH4 0x15AB88C9 PUSH1 0xE3 SHL DUP2 MSTORE PUSH1 0x80 MLOAD PUSH1 0x1 PUSH1 0x1 PUSH1 0xA0 SHL SUB SWAP1 SWAP3 AND SWAP2 DUP2 PUSH1 0x4 DUP2 DUP6 GAS STATICCALL SWAP1 DUP2 ISZERO PUSH2 0x3F9C JUMPI SWAP2 DUP4 SWAP2 PUSH2 0x4074 SWAP4 DUP12 SWAP2 PUSH2 0x3F7D JUMPI POP PUSH2 0x3D45 DUP7 PUSH2 0x3561 JUMP JUMPDEST PUSH1 0xC SLOAD PUSH1 0x1 PUSH1 0x1 PUSH1 0xA0 SHL SUB AND SWAP1 DUP2 EXTCODESIZE ISZERO PUSH2 0x3F79 JUMPI SWAP2 DUP8 SWAP2 PUSH2 0x40BE SWAP4 DUP4 DUP13 MLOAD DUP1 SWAP7 DUP2 SWAP6 DUP3 SWAP5 PUSH4 0x791AC947 PUSH1 0xE0 SHL DUP5 MSTORE PUSH1 0x4 DUP5 ADD MSTORE DUP4 PUSH1 0x24 DUP5 ADD MSTORE PUSH1 0xA0 PUSH1 0x44 DUP5 ADD MSTORE PUSH1 0xA4 DUP4 ADD SWAP1 PUSH2 0x46C2 JUMP JUMPDEST ADDRESS PUSH1 0x64 DUP4 ADD MSTORE TIMESTAMP PUSH1 0x84 DUP4 ADD MSTORE SUB SWAP3 GAS CALL DUP1 ISZERO PUSH2 0x3F6F JUMPI PUSH2 0x420E JUMPI JUMPDEST POP PUSH2 0x3DCF PUSH2 0x40E7 SWAP2 SELFBALANCE PUSH2 0x304D JUMP JUMPDEST SWAP1 DUP2 PUSH2 0x4158 JUMPI JUMPDEST POP POP DUP2 PUSH1 0x1 SHL SWAP2 DUP1 DUP4 DIV PUSH1 0x2 EQ SWAP1 ISZERO OR ISZERO PUSH2 0x3E7F JUMPI SWAP2 PUSH2 0x4127 PUSH1 0x0 DUP1 MLOAD PUSH1 0x20 PUSH2 0x4899 DUP4 CODECOPY DUP2 MLOAD SWAP2 MSTORE SWAP6 SWAP5 SWAP3 PUSH1 0xA0 SWAP5 PUSH1 0x80 MLOAD ADD MLOAD SWAP1 PUSH2 0x303A JUMP JUMPDEST DUP1 PUSH2 0x413F JUMPI JUMPDEST POP PUSH3 0xFF0000 NOT PUSH1 0x8 SLOAD AND PUSH1 0x8 SSTORE PUSH2 0x3E5C JUMP JUMPDEST PUSH2 0x4152 SWAP1 PUSH1 0x1 DUP1 DUP7 SHL SUB PUSH1 0x17 SLOAD AND PUSH2 0x459F JUMP JUMPDEST CODESIZE PUSH2 0x412D JUMP JUMPDEST PUSH1 0xC SLOAD PUSH1 0x60 SWAP2 SWAP1 PUSH2 0x4174 SWAP1 DUP3 SWAP1 PUSH1 0x1 PUSH1 0x1 PUSH1 0xA0 SHL SUB AND ADDRESS PUSH2 0x36E2 JUMP JUMPDEST PUSH1 0xC SLOAD PUSH1 0x1 PUSH1 0x1 PUSH1 0xA0 SHL SUB AND SWAP1 PUSH1 0xC4 SWAP1 PUSH2 0x418C PUSH2 0x2D93 JUMP JUMPDEST SWAP6 SWAP1 SLOAD SWAP4 DUP12 MLOAD SWAP7 DUP8 SWAP6 DUP7 SWAP5 PUSH4 0xF305D719 PUSH1 0xE0 SHL DUP7 MSTORE ADDRESS PUSH1 0x4 DUP8 ADD MSTORE PUSH1 0x24 DUP7 ADD MSTORE DUP12 PUSH1 0x44 DUP7 ADD MSTORE DUP12 PUSH1 0x64 DUP7 ADD MSTORE PUSH1 0x1 DUP1 PUSH1 0xA0 SHL SUB SWAP2 PUSH1 0x3 SHL SHR AND PUSH1 0x84 DUP5 ADD MSTORE TIMESTAMP PUSH1 0xA4 DUP5 ADD MSTORE GAS CALL DUP1 ISZERO PUSH2 0x3F4D JUMPI PUSH2 0x41E3 JUMPI JUMPDEST DUP1 PUSH2 0x40EE JUMP JUMPDEST PUSH1 0x60 SWAP1 DUP2 RETURNDATASIZE DUP2 GT PUSH2 0x4207 JUMPI JUMPDEST PUSH2 0x41F9 DUP2 DUP4 PUSH2 0x2EDF JUMP JUMPDEST DUP2 ADD SUB SLT PUSH2 0x3F42 JUMPI CODESIZE PUSH2 0x41DD JUMP JUMPDEST POP RETURNDATASIZE PUSH2 0x41EF JUMP JUMPDEST PUSH2 0x40E7 SWAP2 SWAP6 PUSH2 0x421F PUSH2 0x3DCF SWAP3 PUSH2 0x2EAF JUMP JUMPDEST SWAP6 SWAP2 POP PUSH2 0x40D9 JUMP JUMPDEST POP DUP7 DUP4 MSTORE PUSH1 0x3 PUSH1 0x80 MLOAD MSTORE PUSH1 0xFF DUP6 DUP5 KECCAK256 SLOAD AND ISZERO PUSH2 0x3907 JUMP JUMPDEST POP DUP6 DUP4 MSTORE PUSH1 0x3 PUSH1 0x80 MLOAD MSTORE PUSH1 0xFF DUP6 DUP5 KECCAK256 SLOAD AND ISZERO PUSH2 0x3901 JUMP JUMPDEST POP PUSH1 0xD SLOAD PUSH1 0x1 PUSH1 0x1 PUSH1 0xA0 SHL SUB AND DUP7 EQ ISZERO PUSH2 0x38FB JUMP JUMPDEST LT ISZERO SWAP1 POP DUP3 CODESIZE PUSH2 0x38F3 JUMP JUMPDEST SWAP2 POP PUSH1 0xFF DUP4 PUSH1 0x8 SHR AND SWAP2 PUSH2 0x38ED JUMP JUMPDEST DUP8 SUB PUSH2 0x4309 JUMPI JUMPDEST POP POP PUSH1 0xFF PUSH1 0xA SLOAD AND PUSH2 0x42A0 JUMPI JUMPDEST DUP2 CODESIZE DUP1 PUSH2 0x38C9 JUMP JUMPDEST DUP4 DUP2 MSTORE PUSH1 0x2B PUSH1 0x80 MLOAD MSTORE PUSH2 0x42B6 DUP4 DUP3 KECCAK256 SLOAD TIMESTAMP PUSH2 0x304D JUMP JUMPDEST PUSH1 0xB SLOAD GT PUSH2 0x42D1 JUMPI DUP4 DUP2 MSTORE PUSH1 0x2B PUSH1 0x80 MLOAD MSTORE TIMESTAMP DUP4 DUP3 KECCAK256 SSTORE PUSH2 0x4298 JUMP JUMPDEST DUP3 MLOAD PUSH3 0x461BCD PUSH1 0xE5 SHL DUP2 MSTORE PUSH1 0x80 MLOAD PUSH1 0x4 DUP3 ADD MSTORE PUSH1 0x10 PUSH1 0x24 DUP3 ADD MSTORE PUSH16 0x10DBDBDB191BDDDB88195B98589B1959 PUSH1 0x82 SHL PUSH1 0x44 DUP3 ADD MSTORE PUSH1 0x64 SWAP1 REVERT JUMPDEST PUSH2 0x4328 SWAP2 PUSH2 0x4319 PUSH2 0x431E SWAP3 PUSH2 0x310C JUMP JUMPDEST PUSH2 0x314F JUMP JUMPDEST PUSH1 0x13 SLOAD LT ISZERO PUSH2 0x37E4 JUMP JUMPDEST DUP2 CODESIZE PUSH2 0x428B JUMP JUMPDEST POP PUSH1 0xFF PUSH1 0x8 SLOAD PUSH1 0x10 SHR AND ISZERO PUSH2 0x38C4 JUMP JUMPDEST POP DUP7 DUP5 MSTORE PUSH1 0x3 PUSH1 0x80 MLOAD MSTORE PUSH1 0xFF DUP7 DUP6 KECCAK256 SLOAD AND ISZERO PUSH2 0x38BE JUMP JUMPDEST POP DUP8 DUP5 MSTORE PUSH1 0x3 PUSH1 0x80 MLOAD MSTORE PUSH1 0xFF DUP7 DUP6 KECCAK256 SLOAD AND ISZERO PUSH2 0x38B8 JUMP JUMPDEST SWAP1 SWAP2 SWAP3 POP PUSH1 0x11 SLOAD DUP6 GT PUSH2 0x4393 JUMPI SWAP1 DUP3 SWAP2 PUSH2 0x438E PUSH2 0x431E DUP8 PUSH2 0x4319 DUP2 SWAP8 PUSH2 0x310C JUMP JUMPDEST PUSH2 0x38B1 JUMP JUMPDEST DUP6 MLOAD PUSH3 0x461BCD PUSH1 0xE5 SHL DUP2 MSTORE PUSH1 0x80 MLOAD PUSH1 0x4 DUP3 ADD MSTORE PUSH1 0x1D PUSH1 0x24 DUP3 ADD MSTORE PUSH32 0x596F752061726520657863656564696E67206D61784275794C696D6974000000 PUSH1 0x44 DUP3 ADD MSTORE PUSH1 0x64 SWAP1 REVERT JUMPDEST POP PUSH1 0xFF PUSH1 0x8 SLOAD PUSH1 0x10 SHR AND ISZERO PUSH2 0x38AC JUMP JUMPDEST POP DUP9 DUP6 MSTORE PUSH1 0x3 PUSH1 0x80 MLOAD MSTORE PUSH1 0xFF DUP8 DUP7 KECCAK256 SLOAD AND ISZERO PUSH2 0x38A6 JUMP JUMPDEST DUP4 MLOAD PUSH3 0x461BCD PUSH1 0xE5 SHL DUP2 MSTORE PUSH1 0x80 MLOAD PUSH1 0x4 DUP3 ADD MSTORE PUSH1 0xD PUSH1 0x24 DUP3 ADD MSTORE PUSH13 0x165BDD48185C99481848189BDD PUSH1 0x9A SHL PUSH1 0x44 DUP3 ADD MSTORE PUSH1 0x64 SWAP1 REVERT JUMPDEST POP DUP6 DUP3 MSTORE PUSH1 0xFF DUP5 DUP4 KECCAK256 SLOAD AND ISZERO PUSH2 0x3888 JUMP JUMPDEST PUSH1 0x40 MLOAD PUSH3 0x461BCD PUSH1 0xE5 SHL DUP2 MSTORE PUSH1 0x20 PUSH1 0x4 DUP3 ADD MSTORE PUSH1 0x31 PUSH1 0x24 DUP3 ADD MSTORE PUSH32 0x596F752061726520747279696E6720746F207472616E73666572206D6F726520 PUSH1 0x44 DUP3 ADD MSTORE PUSH17 0x7468616E20796F75722062616C616E6365 PUSH1 0x78 SHL PUSH1 0x64 DUP3 ADD MSTORE PUSH1 0x84 SWAP1 REVERT JUMPDEST PUSH1 0x40 MLOAD PUSH3 0x461BCD PUSH1 0xE5 SHL DUP2 MSTORE PUSH1 0x20 PUSH1 0x4 DUP3 ADD MSTORE PUSH1 0x29 PUSH1 0x24 DUP3 ADD MSTORE PUSH32 0x5472616E7366657220616D6F756E74206D757374206265206772656174657220 PUSH1 0x44 DUP3 ADD MSTORE PUSH9 0x7468616E207A65726F PUSH1 0xB8 SHL PUSH1 0x64 DUP3 ADD MSTORE PUSH1 0x84 SWAP1 REVERT JUMPDEST PUSH1 0x40 MLOAD PUSH3 0x461BCD PUSH1 0xE5 SHL DUP2 MSTORE PUSH1 0x20 PUSH1 0x4 DUP3 ADD MSTORE PUSH1 0x23 PUSH1 0x24 DUP3 ADD MSTORE PUSH32 0x45524332303A207472616E7366657220746F20746865207A65726F2061646472 PUSH1 0x44 DUP3 ADD MSTORE PUSH3 0x657373 PUSH1 0xE8 SHL PUSH1 0x64 DUP3 ADD MSTORE PUSH1 0x84 SWAP1 REVERT JUMPDEST PUSH1 0x40 MLOAD PUSH3 0x461BCD PUSH1 0xE5 SHL DUP2 MSTORE PUSH1 0x20 PUSH1 0x4 DUP3 ADD MSTORE PUSH1 0x25 PUSH1 0x24 DUP3 ADD MSTORE PUSH32 0x45524332303A207472616E736665722066726F6D20746865207A65726F206164 PUSH1 0x44 DUP3 ADD MSTORE PUSH5 0x6472657373 PUSH1 0xD8 SHL PUSH1 0x64 DUP3 ADD MSTORE PUSH1 0x84 SWAP1 REVERT JUMPDEST DUP2 SELFBALANCE LT PUSH2 0x467D JUMPI PUSH1 0x0 DUP1 DUP1 DUP1 SWAP5 DUP2 SWAP5 PUSH1 0x1 DUP1 PUSH1 0xA0 SHL SUB AND GAS CALL SWAP1 RETURNDATASIZE ISZERO PUSH2 0x4677 JUMPI RETURNDATASIZE SWAP1 PUSH8 0xFFFFFFFFFFFFFFFF DUP3 GT PUSH2 0x4663 JUMPI PUSH1 0x40 MLOAD SWAP2 PUSH2 0x45E8 PUSH1 0x1F DUP3 ADD PUSH1 0x1F NOT AND PUSH1 0x20 ADD DUP5 PUSH2 0x2EDF JUMP JUMPDEST DUP3 MSTORE PUSH1 0x20 RETURNDATASIZE SWAP3 ADD RETURNDATACOPY JUMPDEST ISZERO PUSH2 0x45F8 JUMPI JUMP JUMPDEST PUSH1 0x40 MLOAD PUSH3 0x461BCD PUSH1 0xE5 SHL DUP2 MSTORE PUSH1 0x20 PUSH1 0x4 DUP3 ADD MSTORE PUSH1 0x3A PUSH1 0x24 DUP3 ADD MSTORE PUSH32 0x416464726573733A20756E61626C6520746F2073656E642076616C75652C2072 PUSH1 0x44 DUP3 ADD MSTORE PUSH32 0x6563697069656E74206D61792068617665207265766572746564000000000000 PUSH1 0x64 DUP3 ADD MSTORE PUSH1 0x84 SWAP1 REVERT JUMPDEST PUSH4 0x4E487B71 PUSH1 0xE0 SHL DUP2 MSTORE PUSH1 0x41 PUSH1 0x4 MSTORE PUSH1 0x24 SWAP1 REVERT JUMPDEST POP PUSH2 0x45F1 JUMP JUMPDEST PUSH1 0x40 MLOAD PUSH3 0x461BCD PUSH1 0xE5 SHL DUP2 MSTORE PUSH1 0x20 PUSH1 0x4 DUP3 ADD MSTORE PUSH1 0x1D PUSH1 0x24 DUP3 ADD MSTORE PUSH32 0x416464726573733A20696E73756666696369656E742062616C616E6365000000 PUSH1 0x44 DUP3 ADD MSTORE PUSH1 0x64 SWAP1 REVERT JUMPDEST SWAP1 DUP2 MLOAD DUP1 DUP3 MSTORE PUSH1 0x20 DUP1 DUP1 SWAP4 ADD SWAP4 ADD SWAP2 PUSH1 0x0 JUMPDEST DUP3 DUP2 LT PUSH2 0x46E2 JUMPI POP POP POP POP SWAP1 JUMP JUMPDEST DUP4 MLOAD PUSH1 0x1 PUSH1 0x1 PUSH1 0xA0 SHL SUB AND DUP6 MSTORE SWAP4 DUP2 ADD SWAP4 SWAP3 DUP2 ADD SWAP3 PUSH1 0x1 ADD PUSH2 0x46D4 JUMP JUMPDEST SWAP1 PUSH2 0x4717 PUSH1 0x20 SWAP2 SWAP5 SWAP4 SWAP5 PUSH1 0x40 DUP5 MSTORE PUSH1 0x40 DUP5 ADD SWAP1 PUSH2 0x46C2 JUMP JUMPDEST SWAP4 ISZERO ISZERO SWAP2 ADD MSTORE JUMP JUMPDEST ISZERO PUSH2 0x4726 JUMPI JUMP JUMPDEST PUSH1 0x40 MLOAD PUSH3 0x461BCD PUSH1 0xE5 SHL DUP2 MSTORE PUSH1 0x20 PUSH1 0x4 DUP3 ADD MSTORE PUSH1 0x13 PUSH1 0x24 DUP3 ADD MSTORE PUSH19 0x1D1C9B9E08191BD95CC81B9BDD08195E1A5CDD PUSH1 0x6A SHL PUSH1 0x44 DUP3 ADD MSTORE PUSH1 0x64 SWAP1 REVERT JUMPDEST PUSH1 0x28 SLOAD DUP1 PUSH2 0x476E JUMPI PUSH1 0x0 DUP1 REVERT JUMPDEST PUSH1 0x0 NOT DUP2 ADD SWAP1 DUP2 GT PUSH2 0x690 JUMPI SWAP1 JUMP JUMPDEST ISZERO PUSH2 0x4784 JUMPI JUMP JUMPDEST PUSH1 0x40 MLOAD PUSH3 0x461BCD PUSH1 0xE5 SHL DUP2 MSTORE PUSH1 0x20 PUSH1 0x4 DUP3 ADD MSTORE PUSH1 0x19 PUSH1 0x24 DUP3 ADD MSTORE PUSH32 0x74726E782068617320616C726561647920657865637574656400000000000000 PUSH1 0x44 DUP3 ADD MSTORE PUSH1 0x64 SWAP1 REVERT JUMPDEST PUSH1 0x25 SLOAD PUSH1 0x0 SWAP2 DUP3 JUMPDEST DUP3 DUP2 LT PUSH2 0x47DE JUMPI POP POP POP SWAP1 JUMP JUMPDEST DUP2 PUSH1 0x0 MSTORE PUSH1 0xFF PUSH1 0x20 PUSH1 0x29 DUP2 MSTORE PUSH1 0x40 SWAP1 DUP2 PUSH1 0x0 KECCAK256 SWAP1 PUSH2 0x47FB DUP6 PUSH2 0x2D6E JUMP JUMPDEST PUSH1 0x1 DUP1 PUSH1 0xA0 SHL SUB SWAP2 SLOAD SWAP1 PUSH1 0x3 SHL SHR AND PUSH1 0x0 MSTORE MSTORE PUSH1 0x0 KECCAK256 SLOAD AND PUSH2 0x4826 JUMPI JUMPDEST PUSH2 0x4821 SWAP1 PUSH2 0x305A JUMP JUMPDEST PUSH2 0x47D1 JUMP JUMPDEST SWAP3 PUSH1 0x1 DUP2 ADD DUP1 SWAP2 GT PUSH2 0x690 JUMPI SWAP3 PUSH2 0x4818 JUMP INVALID BLOCKHASH NOT PUSH9 0xFF42A154441DA5F6C4 0xC9 CALLDATALOAD 0xAC CHAINID 0xB8 PUSH8 0x1F0E062BAAA62A75 GASLIMIT 0xBA MSTORE8 0xBB PUSH15 0x4CDDB556F1D2C1EC821E910B019D36 DUP6 0xB2 0x29 0xDB ISZERO 0x2A 0xE 0xCD MLOAD PUSH29 0xA7E24B8BD7139289796F7520646F6E2774206861766520737566666963 PUSH10 0x656E7420617070726F76 0xDD CALLCODE MSTORE 0xAD SHL 0xE2 0xC8 SWAP12 PUSH10 0xC2B068FC378DAA952BA7 CALL PUSH4 0xC4A11628 CREATE2 GAS 0x4D CREATE2 0x23 0xB3 0xEF LOG2 PUSH5 0x6970667358 0x22 SLT KECCAK256 TIMESTAMP PUSH14 0x9F3DA4AA0B682A8CA690431DAE0F 0xE8 DELEGATECALL RETURNDATASIZE 0xEF SSTORE 0xF8 0xF9 0x4B 0xEC LOG0 0xE1 SWAP15 PUSH15 0xDD49FB64736F6C6343000811003300 "},"methodIdentifiers":{"_getAprrovalCount(uint256)":"70da913c","allowance(address,address)":"dd62ed3e","allowedTransfer(address)":"62695eae","approve(address,uint256)":"095ea7b3","approveTransaction(uint256)":"242232d1","approved(uint256,address)":"8253951a","autoLiquidityReceiver()":"ca33e64c","balanceOf(address)":"70a08231","bulkIsBlacklisted(address[],bool,uint256)":"de3e85a5","bulkupdateAllowedTransfer(address[],bool,uint256)":"53075d3f","coolDownEnabled()":"ee36e359","coolDownTime()":"d2ce0db2","deadWallet()":"85141a77","decimals()":"313ce567","decreaseAllowance(address,uint256)":"a457c2d7","excludeFromFee(uint256)":"17bd4cde","excludeFromReward(uint256)":"97dd3e99","genesis_block()":"274a533c","getCurrentRunningTransactionId()":"825f375e","includeInReward(uint256)":"112bb58e","increaseAllowance(address,uint256)":"39509351","initialize(address)":"c4d66de8","isExcludedFromFee(address)":"5342acb4","isExcludedFromReward(address)":"88f82020","isOwner(address)":"2f54bf6e","marketingWallet()":"75f0a874","maxBuyLimit()":"6aa5b37f","maxSellLimit()":"652e2f04","maxWalletLimit()":"66a88d96","name()":"06fdde03","newTransaction(uint256,address)":"2671d558","owners(uint256)":"025e7c27","pair()":"a8aa1b31","reflectionFromToken(uint256,bool)":"4549b039","rescueBNB(uint256,uint256)":"c95a20d1","revoke(uint256)":"20c5429b","router()":"f887ea40","sellTaxes()":"f66895a3","setData(address,uint256)":"81308721","setSellTaxes(bool,uint256)":"fe72fb67","setTaxes(bool,uint256)":"538ca8f4","swapEnabled()":"6ddd1713","swapTokensAtAmount()":"e2f45605","symbol()":"95d89b41","taxes()":"728f8eea","tokenFromReflection(uint256)":"2d838119","totFeesPaid()":"9ba5e4d5","totalSupply()":"18160ddd","tradingEnabled()":"4ada218b","transactions(uint256)":"9ace38c2","transfer(address,uint256)":"a9059cbb","transferFrom(address,address,uint256)":"23b872dd","updateAllowedTransfer(uint256,bool)":"584a56cc","updateCooldown(bool,uint256,uint256)":"987b2205","updateIsBlacklisted(uint256,bool)":"6c6b9bb2","updateMarketingWallet(address,uint256)":"23797808","updateMaxTxLimit(uint256,uint256,uint256)":"e1b450ad","updateMaxWalletlimit(uint256,uint256)":"9f6dd004","updateRouterAndPair(address,address,uint256)":"3e4e7fbf","updateSwapTokensAtAmount(uint256,uint256)":"2c0e22cc","walletPermission()":"cc960294"}},"storageLayout":{"storage":[{"astId":396,"contract":"contracts/MowgliSanctuaryTokenV3.sol:MowgliSanctuaryTokenV3","label":"_rOwned","offset":0,"slot":"0","type":"t_mapping(t_address,t_uint256)"},{"astId":400,"contract":"contracts/MowgliSanctuaryTokenV3.sol:MowgliSanctuaryTokenV3","label":"_tOwned","offset":0,"slot":"1","type":"t_mapping(t_address,t_uint256)"},{"astId":406,"contract":"contracts/MowgliSanctuaryTokenV3.sol:MowgliSanctuaryTokenV3","label":"_allowances","offset":0,"slot":"2","type":"t_mapping(t_address,t_mapping(t_address,t_uint256))"},{"astId":410,"contract":"contracts/MowgliSanctuaryTokenV3.sol:MowgliSanctuaryTokenV3","label":"_isExcludedFromFee","offset":0,"slot":"3","type":"t_mapping(t_address,t_bool)"},{"astId":414,"contract":"contracts/MowgliSanctuaryTokenV3.sol:MowgliSanctuaryTokenV3","label":"_isExcluded","offset":0,"slot":"4","type":"t_mapping(t_address,t_bool)"},{"astId":418,"contract":"contracts/MowgliSanctuaryTokenV3.sol:MowgliSanctuaryTokenV3","label":"allowedTransfer","offset":0,"slot":"5","type":"t_mapping(t_address,t_bool)"},{"astId":422,"contract":"contracts/MowgliSanctuaryTokenV3.sol:MowgliSanctuaryTokenV3","label":"_isBlacklisted","offset":0,"slot":"6","type":"t_mapping(t_address,t_bool)"},{"astId":425,"contract":"contracts/MowgliSanctuaryTokenV3.sol:MowgliSanctuaryTokenV3","label":"_excluded","offset":0,"slot":"7","type":"t_array(t_address)dyn_storage"},{"astId":427,"contract":"contracts/MowgliSanctuaryTokenV3.sol:MowgliSanctuaryTokenV3","label":"tradingEnabled","offset":0,"slot":"8","type":"t_bool"},{"astId":429,"contract":"contracts/MowgliSanctuaryTokenV3.sol:MowgliSanctuaryTokenV3","label":"swapEnabled","offset":1,"slot":"8","type":"t_bool"},{"astId":431,"contract":"contracts/MowgliSanctuaryTokenV3.sol:MowgliSanctuaryTokenV3","label":"swapping","offset":2,"slot":"8","type":"t_bool"},{"astId":435,"contract":"contracts/MowgliSanctuaryTokenV3.sol:MowgliSanctuaryTokenV3","label":"_lastSell","offset":0,"slot":"9","type":"t_mapping(t_address,t_uint256)"},{"astId":437,"contract":"contracts/MowgliSanctuaryTokenV3.sol:MowgliSanctuaryTokenV3","label":"coolDownEnabled","offset":0,"slot":"10","type":"t_bool"},{"astId":439,"contract":"contracts/MowgliSanctuaryTokenV3.sol:MowgliSanctuaryTokenV3","label":"coolDownTime","offset":0,"slot":"11","type":"t_uint256"},{"astId":442,"contract":"contracts/MowgliSanctuaryTokenV3.sol:MowgliSanctuaryTokenV3","label":"router","offset":0,"slot":"12","type":"t_contract(IRouter)385"},{"astId":444,"contract":"contracts/MowgliSanctuaryTokenV3.sol:MowgliSanctuaryTokenV3","label":"pair","offset":0,"slot":"13","type":"t_address"},{"astId":456,"contract":"contracts/MowgliSanctuaryTokenV3.sol:MowgliSanctuaryTokenV3","label":"_tTotal","offset":0,"slot":"14","type":"t_uint256"},{"astId":458,"contract":"contracts/MowgliSanctuaryTokenV3.sol:MowgliSanctuaryTokenV3","label":"_rTotal","offset":0,"slot":"15","type":"t_uint256"},{"astId":460,"contract":"contracts/MowgliSanctuaryTokenV3.sol:MowgliSanctuaryTokenV3","label":"swapTokensAtAmount","offset":0,"slot":"16","type":"t_uint256"},{"astId":462,"contract":"contracts/MowgliSanctuaryTokenV3.sol:MowgliSanctuaryTokenV3","label":"maxBuyLimit","offset":0,"slot":"17","type":"t_uint256"},{"astId":464,"contract":"contracts/MowgliSanctuaryTokenV3.sol:MowgliSanctuaryTokenV3","label":"maxSellLimit","offset":0,"slot":"18","type":"t_uint256"},{"astId":466,"contract":"contracts/MowgliSanctuaryTokenV3.sol:MowgliSanctuaryTokenV3","label":"maxWalletLimit","offset":0,"slot":"19","type":"t_uint256"},{"astId":468,"contract":"contracts/MowgliSanctuaryTokenV3.sol:MowgliSanctuaryTokenV3","label":"genesis_block","offset":0,"slot":"20","type":"t_uint256"},{"astId":470,"contract":"contracts/MowgliSanctuaryTokenV3.sol:MowgliSanctuaryTokenV3","label":"deadline","offset":0,"slot":"21","type":"t_uint256"},{"astId":472,"contract":"contracts/MowgliSanctuaryTokenV3.sol:MowgliSanctuaryTokenV3","label":"deadWallet","offset":0,"slot":"22","type":"t_address"},{"astId":474,"contract":"contracts/MowgliSanctuaryTokenV3.sol:MowgliSanctuaryTokenV3","label":"marketingWallet","offset":0,"slot":"23","type":"t_address"},{"astId":476,"contract":"contracts/MowgliSanctuaryTokenV3.sol:MowgliSanctuaryTokenV3","label":"autoLiquidityReceiver","offset":0,"slot":"24","type":"t_address"},{"astId":492,"contract":"contracts/MowgliSanctuaryTokenV3.sol:MowgliSanctuaryTokenV3","label":"launchtax","offset":0,"slot":"25","type":"t_struct(Taxes)489_storage"},{"astId":495,"contract":"contracts/MowgliSanctuaryTokenV3.sol:MowgliSanctuaryTokenV3","label":"taxes","offset":0,"slot":"28","type":"t_struct(Taxes)489_storage"},{"astId":498,"contract":"contracts/MowgliSanctuaryTokenV3.sol:MowgliSanctuaryTokenV3","label":"sellTaxes","offset":0,"slot":"31","type":"t_struct(Taxes)489_storage"},{"astId":508,"contract":"contracts/MowgliSanctuaryTokenV3.sol:MowgliSanctuaryTokenV3","label":"totFeesPaid","offset":0,"slot":"34","type":"t_struct(TotFeesPaidStruct)505_storage"},{"astId":614,"contract":"contracts/MowgliSanctuaryTokenV3.sol:MowgliSanctuaryTokenV3","label":"owners","offset":0,"slot":"37","type":"t_array(t_address)dyn_storage"},{"astId":618,"contract":"contracts/MowgliSanctuaryTokenV3.sol:MowgliSanctuaryTokenV3","label":"isOwner","offset":0,"slot":"38","type":"t_mapping(t_address,t_bool)"},{"astId":620,"contract":"contracts/MowgliSanctuaryTokenV3.sol:MowgliSanctuaryTokenV3","label":"walletPermission","offset":0,"slot":"39","type":"t_uint256"},{"astId":624,"contract":"contracts/MowgliSanctuaryTokenV3.sol:MowgliSanctuaryTokenV3","label":"transactions","offset":0,"slot":"40","type":"t_array(t_struct(Transaction)637_storage)dyn_storage"},{"astId":630,"contract":"contracts/MowgliSanctuaryTokenV3.sol:MowgliSanctuaryTokenV3","label":"approved","offset":0,"slot":"41","type":"t_mapping(t_uint256,t_mapping(t_address,t_bool))"},{"astId":722,"contract":"contracts/MowgliSanctuaryTokenV3.sol:MowgliSanctuaryTokenV3","label":"_initialized","offset":0,"slot":"42","type":"t_uint8"},{"astId":725,"contract":"contracts/MowgliSanctuaryTokenV3.sol:MowgliSanctuaryTokenV3","label":"_initializing","offset":1,"slot":"42","type":"t_bool"},{"astId":729,"contract":"contracts/MowgliSanctuaryTokenV3.sol:MowgliSanctuaryTokenV3","label":"_lastTrx","offset":0,"slot":"43","type":"t_mapping(t_address,t_uint256)"}],"types":{"t_address":{"encoding":"inplace","label":"address","numberOfBytes":"20"},"t_array(t_address)dyn_storage":{"base":"t_address","encoding":"dynamic_array","label":"address[]","numberOfBytes":"32"},"t_array(t_struct(Transaction)637_storage)dyn_storage":{"base":"t_struct(Transaction)637_storage","encoding":"dynamic_array","label":"struct MowgliSanctuaryTokenV3.Transaction[]","numberOfBytes":"32"},"t_bool":{"encoding":"inplace","label":"bool","numberOfBytes":"1"},"t_contract(IRouter)385":{"encoding":"inplace","label":"contract IRouter","numberOfBytes":"20"},"t_mapping(t_address,t_bool)":{"encoding":"mapping","key":"t_address","label":"mapping(address => bool)","numberOfBytes":"32","value":"t_bool"},"t_mapping(t_address,t_mapping(t_address,t_uint256))":{"encoding":"mapping","key":"t_address","label":"mapping(address => mapping(address => uint256))","numberOfBytes":"32","value":"t_mapping(t_address,t_uint256)"},"t_mapping(t_address,t_uint256)":{"encoding":"mapping","key":"t_address","label":"mapping(address => uint256)","numberOfBytes":"32","value":"t_uint256"},"t_mapping(t_uint256,t_mapping(t_address,t_bool))":{"encoding":"mapping","key":"t_uint256","label":"mapping(uint256 => mapping(address => bool))","numberOfBytes":"32","value":"t_mapping(t_address,t_bool)"},"t_struct(Taxes)489_storage":{"encoding":"inplace","label":"struct MowgliSanctuaryTokenV3.Taxes","members":[{"astId":484,"contract":"contracts/MowgliSanctuaryTokenV3.sol:MowgliSanctuaryTokenV3","label":"rfi","offset":0,"slot":"0","type":"t_uint256"},{"astId":486,"contract":"contracts/MowgliSanctuaryTokenV3.sol:MowgliSanctuaryTokenV3","label":"marketing","offset":0,"slot":"1","type":"t_uint256"},{"astId":488,"contract":"contracts/MowgliSanctuaryTokenV3.sol:MowgliSanctuaryTokenV3","label":"liquidity","offset":0,"slot":"2","type":"t_uint256"}],"numberOfBytes":"96"},"t_struct(TotFeesPaidStruct)505_storage":{"encoding":"inplace","label":"struct MowgliSanctuaryTokenV3.TotFeesPaidStruct","members":[{"astId":500,"contract":"contracts/MowgliSanctuaryTokenV3.sol:MowgliSanctuaryTokenV3","label":"rfi","offset":0,"slot":"0","type":"t_uint256"},{"astId":502,"contract":"contracts/MowgliSanctuaryTokenV3.sol:MowgliSanctuaryTokenV3","label":"marketing","offset":0,"slot":"1","type":"t_uint256"},{"astId":504,"contract":"contracts/MowgliSanctuaryTokenV3.sol:MowgliSanctuaryTokenV3","label":"liquidity","offset":0,"slot":"2","type":"t_uint256"}],"numberOfBytes":"96"},"t_struct(Transaction)637_storage":{"encoding":"inplace","label":"struct MowgliSanctuaryTokenV3.Transaction","members":[{"astId":632,"contract":"contracts/MowgliSanctuaryTokenV3.sol:MowgliSanctuaryTokenV3","label":"isExecuted","offset":0,"slot":"0","type":"t_bool"},{"astId":634,"contract":"contracts/MowgliSanctuaryTokenV3.sol:MowgliSanctuaryTokenV3","label":"methodID","offset":0,"slot":"1","type":"t_uint256"},{"astId":636,"contract":"contracts/MowgliSanctuaryTokenV3.sol:MowgliSanctuaryTokenV3","label":"data","offset":0,"slot":"2","type":"t_address"}],"numberOfBytes":"96"},"t_uint256":{"encoding":"inplace","label":"uint256","numberOfBytes":"32"},"t_uint8":{"encoding":"inplace","label":"uint8","numberOfBytes":"1"}}}}}}