{"contracts/MowgliSanctuaryTokenV1.sol":{"MowgliSanctuaryTokenV1":{"abi":[{"anonymous":false,"inputs":[{"indexed":true,"internalType":"address","name":"owner","type":"address"},{"indexed":true,"internalType":"address","name":"spender","type":"address"},{"indexed":false,"internalType":"uint256","name":"value","type":"uint256"}],"name":"Approval","type":"event"},{"anonymous":false,"inputs":[{"indexed":false,"internalType":"address","name":"owner","type":"address"},{"indexed":false,"internalType":"uint256","name":"trnxId","type":"uint256"}],"name":"Approve","type":"event"},{"anonymous":false,"inputs":[{"indexed":false,"internalType":"uint256","name":"trnxId","type":"uint256"}],"name":"Execute","type":"event"},{"anonymous":false,"inputs":[{"indexed":false,"internalType":"bool","name":"status","type":"bool"}],"name":"FeesChanged","type":"event"},{"anonymous":false,"inputs":[{"indexed":false,"internalType":"uint8","name":"version","type":"uint8"}],"name":"Initialized","type":"event"},{"anonymous":false,"inputs":[{"indexed":false,"internalType":"address","name":"owner","type":"address"},{"indexed":false,"internalType":"uint256","name":"trnxId","type":"uint256"}],"name":"Revoke","type":"event"},{"anonymous":false,"inputs":[{"indexed":true,"internalType":"address","name":"from","type":"address"},{"indexed":true,"internalType":"address","name":"to","type":"address"},{"indexed":false,"internalType":"uint256","name":"value","type":"uint256"}],"name":"Transfer","type":"event"},{"anonymous":false,"inputs":[{"indexed":false,"internalType":"bool","name":"state","type":"bool"},{"indexed":false,"internalType":"uint256","name":"time","type":"uint256"}],"name":"UpdateCooldownTX","type":"event"},{"anonymous":false,"inputs":[{"indexed":false,"internalType":"bool","name":"state","type":"bool"}],"name":"UpdateIsBlacklistedTX","type":"event"},{"anonymous":false,"inputs":[{"indexed":false,"internalType":"address","name":"newWallet","type":"address"}],"name":"UpdateMarketingWalletTX","type":"event"},{"anonymous":false,"inputs":[{"indexed":false,"internalType":"uint256","name":"amount","type":"uint256"}],"name":"UpdateMaxWalletLimitTX","type":"event"},{"anonymous":false,"inputs":[{"indexed":false,"internalType":"uint256","name":"maxBuy","type":"uint256"},{"indexed":false,"internalType":"uint256","name":"maxSell","type":"uint256"}],"name":"UpdateMaxtxLimitTX","type":"event"},{"anonymous":false,"inputs":[{"indexed":false,"internalType":"address","name":"newRouter","type":"address"},{"indexed":false,"internalType":"address","name":"newPair","type":"address"}],"name":"UpdateRouterAndPairTX","type":"event"},{"anonymous":false,"inputs":[{"indexed":false,"internalType":"uint256","name":"amount","type":"uint256"}],"name":"UpdateSwapTokenAtAmountTX","type":"event"},{"anonymous":false,"inputs":[{"indexed":false,"internalType":"uint256","name":"trnx","type":"uint256"}],"name":"assignTrnx","type":"event"},{"anonymous":false,"inputs":[{"indexed":false,"internalType":"address[]","name":"accounts","type":"address[]"},{"indexed":false,"internalType":"bool","name":"state","type":"bool"}],"name":"bulkIsBlacklistedTX","type":"event"},{"anonymous":false,"inputs":[{"indexed":false,"internalType":"address[]","name":"accounts","type":"address[]"},{"indexed":false,"internalType":"bool","name":"state","type":"bool"}],"name":"bulkupdateAllowedTransferTX","type":"event"},{"anonymous":false,"inputs":[{"indexed":false,"internalType":"address","name":"tokenAddress","type":"address"},{"indexed":false,"internalType":"address","name":"toAddress","type":"address"},{"indexed":false,"internalType":"uint256","name":"amount","type":"uint256"}],"name":"rescueAnyBEP20TokensTX","type":"event"},{"anonymous":false,"inputs":[{"indexed":false,"internalType":"uint256","name":"amount","type":"uint256"}],"name":"rescueBNBTX","type":"event"},{"anonymous":false,"inputs":[{"indexed":false,"internalType":"address","name":"TheFollowingAddressIsSetAssetExcludeFromFee","type":"address"}],"name":"setExcludeFromFeeTX","type":"event"},{"anonymous":false,"inputs":[{"indexed":false,"internalType":"address","name":"TheFollowingAddressIsExcludedFromRewards","type":"address"}],"name":"setExcludeFromRewardTX","type":"event"},{"anonymous":false,"inputs":[{"indexed":false,"internalType":"address","name":"TheFollowingAddressIsSetAsIncludeInReward","type":"address"}],"name":"setIncludeFromRewardTX","type":"event"},{"anonymous":false,"inputs":[{"indexed":false,"internalType":"bool","name":"state","type":"bool"}],"name":"updateAllowedTransferTX","type":"event"},{"inputs":[{"internalType":"uint256","name":"_trnxId","type":"uint256"}],"name":"_getAprrovalCount","outputs":[{"internalType":"uint256","name":"","type":"uint256"}],"stateMutability":"view","type":"function"},{"inputs":[{"internalType":"address","name":"owner","type":"address"},{"internalType":"address","name":"spender","type":"address"}],"name":"allowance","outputs":[{"internalType":"uint256","name":"","type":"uint256"}],"stateMutability":"view","type":"function"},{"inputs":[{"internalType":"address","name":"","type":"address"}],"name":"allowedTransfer","outputs":[{"internalType":"bool","name":"","type":"bool"}],"stateMutability":"view","type":"function"},{"inputs":[{"internalType":"address","name":"spender","type":"address"},{"internalType":"uint256","name":"amount","type":"uint256"}],"name":"approve","outputs":[{"internalType":"bool","name":"","type":"bool"}],"stateMutability":"nonpayable","type":"function"},{"inputs":[{"internalType":"uint256","name":"_trnxId","type":"uint256"}],"name":"approveTransaction","outputs":[],"stateMutability":"nonpayable","type":"function"},{"inputs":[{"internalType":"uint256","name":"","type":"uint256"},{"internalType":"address","name":"","type":"address"}],"name":"approved","outputs":[{"internalType":"bool","name":"","type":"bool"}],"stateMutability":"view","type":"function"},{"inputs":[],"name":"autoLiquidityReceiver","outputs":[{"internalType":"address","name":"","type":"address"}],"stateMutability":"view","type":"function"},{"inputs":[{"internalType":"address","name":"account","type":"address"}],"name":"balanceOf","outputs":[{"internalType":"uint256","name":"","type":"uint256"}],"stateMutability":"view","type":"function"},{"inputs":[{"internalType":"address[]","name":"accounts","type":"address[]"},{"internalType":"bool","name":"state","type":"bool"},{"internalType":"uint256","name":"_trnxId","type":"uint256"}],"name":"bulkIsBlacklisted","outputs":[],"stateMutability":"nonpayable","type":"function"},{"inputs":[{"internalType":"address[]","name":"accounts","type":"address[]"},{"internalType":"bool","name":"state","type":"bool"},{"internalType":"uint256","name":"_trnxId","type":"uint256"}],"name":"bulkupdateAllowedTransfer","outputs":[],"stateMutability":"nonpayable","type":"function"},{"inputs":[],"name":"coolDownEnabled","outputs":[{"internalType":"bool","name":"","type":"bool"}],"stateMutability":"view","type":"function"},{"inputs":[],"name":"coolDownTime","outputs":[{"internalType":"uint256","name":"","type":"uint256"}],"stateMutability":"view","type":"function"},{"inputs":[],"name":"deadWallet","outputs":[{"internalType":"address","name":"","type":"address"}],"stateMutability":"view","type":"function"},{"inputs":[],"name":"decimals","outputs":[{"internalType":"uint8","name":"","type":"uint8"}],"stateMutability":"pure","type":"function"},{"inputs":[{"internalType":"address","name":"spender","type":"address"},{"internalType":"uint256","name":"subtractedValue","type":"uint256"}],"name":"decreaseAllowance","outputs":[{"internalType":"bool","name":"","type":"bool"}],"stateMutability":"nonpayable","type":"function"},{"inputs":[{"internalType":"uint256","name":"_trnxId","type":"uint256"}],"name":"excludeFromFee","outputs":[],"stateMutability":"nonpayable","type":"function"},{"inputs":[{"internalType":"uint256","name":"_trnxId","type":"uint256"}],"name":"excludeFromReward","outputs":[],"stateMutability":"nonpayable","type":"function"},{"inputs":[],"name":"genesis_block","outputs":[{"internalType":"uint256","name":"","type":"uint256"}],"stateMutability":"view","type":"function"},{"inputs":[],"name":"getCurrentRunningTransactionId","outputs":[{"internalType":"uint256","name":"","type":"uint256"}],"stateMutability":"view","type":"function"},{"inputs":[{"internalType":"uint256","name":"_trnxId","type":"uint256"}],"name":"includeInReward","outputs":[],"stateMutability":"nonpayable","type":"function"},{"inputs":[{"internalType":"address","name":"spender","type":"address"},{"internalType":"uint256","name":"addedValue","type":"uint256"}],"name":"increaseAllowance","outputs":[{"internalType":"bool","name":"","type":"bool"}],"stateMutability":"nonpayable","type":"function"},{"inputs":[{"internalType":"address","name":"routerAddress","type":"address"}],"name":"initialize","outputs":[],"stateMutability":"nonpayable","type":"function"},{"inputs":[{"internalType":"address","name":"account","type":"address"}],"name":"isExcludedFromFee","outputs":[{"internalType":"bool","name":"","type":"bool"}],"stateMutability":"view","type":"function"},{"inputs":[{"internalType":"address","name":"account","type":"address"}],"name":"isExcludedFromReward","outputs":[{"internalType":"bool","name":"","type":"bool"}],"stateMutability":"view","type":"function"},{"inputs":[{"internalType":"address","name":"","type":"address"}],"name":"isOwner","outputs":[{"internalType":"bool","name":"","type":"bool"}],"stateMutability":"view","type":"function"},{"inputs":[],"name":"marketingWallet","outputs":[{"internalType":"address","name":"","type":"address"}],"stateMutability":"view","type":"function"},{"inputs":[],"name":"maxBuyLimit","outputs":[{"internalType":"uint256","name":"","type":"uint256"}],"stateMutability":"view","type":"function"},{"inputs":[],"name":"maxSellLimit","outputs":[{"internalType":"uint256","name":"","type":"uint256"}],"stateMutability":"view","type":"function"},{"inputs":[],"name":"maxWalletLimit","outputs":[{"internalType":"uint256","name":"","type":"uint256"}],"stateMutability":"view","type":"function"},{"inputs":[],"name":"name","outputs":[{"internalType":"string","name":"","type":"string"}],"stateMutability":"pure","type":"function"},{"inputs":[{"internalType":"uint256","name":"_methodID","type":"uint256"},{"internalType":"address","name":"_data","type":"address"}],"name":"newTransaction","outputs":[{"internalType":"uint256","name":"","type":"uint256"}],"stateMutability":"nonpayable","type":"function"},{"inputs":[{"internalType":"uint256","name":"","type":"uint256"}],"name":"owners","outputs":[{"internalType":"address","name":"","type":"address"}],"stateMutability":"view","type":"function"},{"inputs":[],"name":"pair","outputs":[{"internalType":"address","name":"","type":"address"}],"stateMutability":"view","type":"function"},{"inputs":[{"internalType":"uint256","name":"tAmount","type":"uint256"},{"internalType":"bool","name":"deductTransferRfi","type":"bool"}],"name":"reflectionFromToken","outputs":[{"internalType":"uint256","name":"","type":"uint256"}],"stateMutability":"view","type":"function"},{"inputs":[{"internalType":"address","name":"_tokenAddr","type":"address"},{"internalType":"address","name":"_to","type":"address"},{"internalType":"uint256","name":"_amount","type":"uint256"},{"internalType":"uint256","name":"_trnxId","type":"uint256"}],"name":"rescueAnyBEP20Tokens","outputs":[],"stateMutability":"nonpayable","type":"function"},{"inputs":[{"internalType":"uint256","name":"weiAmount","type":"uint256"},{"internalType":"uint256","name":"_trnxId","type":"uint256"}],"name":"rescueBNB","outputs":[],"stateMutability":"nonpayable","type":"function"},{"inputs":[{"internalType":"uint256","name":"_trnxId","type":"uint256"}],"name":"revoke","outputs":[],"stateMutability":"nonpayable","type":"function"},{"inputs":[],"name":"router","outputs":[{"internalType":"contract IRouter","name":"","type":"address"}],"stateMutability":"view","type":"function"},{"inputs":[],"name":"sellTaxes","outputs":[{"internalType":"uint256","name":"rfi","type":"uint256"},{"internalType":"uint256","name":"marketing","type":"uint256"},{"internalType":"uint256","name":"liquidity","type":"uint256"}],"stateMutability":"view","type":"function"},{"inputs":[{"internalType":"address","name":"newData","type":"address"},{"internalType":"uint256","name":"_trnxId","type":"uint256"}],"name":"setData","outputs":[],"stateMutability":"nonpayable","type":"function"},{"inputs":[{"internalType":"bool","name":"state","type":"bool"},{"internalType":"uint256","name":"_trnxId","type":"uint256"}],"name":"setSellTaxes","outputs":[],"stateMutability":"nonpayable","type":"function"},{"inputs":[{"internalType":"bool","name":"state","type":"bool"},{"internalType":"uint256","name":"_trnxId","type":"uint256"}],"name":"setTaxes","outputs":[],"stateMutability":"nonpayable","type":"function"},{"inputs":[],"name":"swapEnabled","outputs":[{"internalType":"bool","name":"","type":"bool"}],"stateMutability":"view","type":"function"},{"inputs":[],"name":"swapTokensAtAmount","outputs":[{"internalType":"uint256","name":"","type":"uint256"}],"stateMutability":"view","type":"function"},{"inputs":[],"name":"symbol","outputs":[{"internalType":"string","name":"","type":"string"}],"stateMutability":"pure","type":"function"},{"inputs":[],"name":"taxes","outputs":[{"internalType":"uint256","name":"rfi","type":"uint256"},{"internalType":"uint256","name":"marketing","type":"uint256"},{"internalType":"uint256","name":"liquidity","type":"uint256"}],"stateMutability":"view","type":"function"},{"inputs":[{"internalType":"uint256","name":"rAmount","type":"uint256"}],"name":"tokenFromReflection","outputs":[{"internalType":"uint256","name":"","type":"uint256"}],"stateMutability":"view","type":"function"},{"inputs":[],"name":"totFeesPaid","outputs":[{"internalType":"uint256","name":"rfi","type":"uint256"},{"internalType":"uint256","name":"marketing","type":"uint256"},{"internalType":"uint256","name":"liquidity","type":"uint256"}],"stateMutability":"view","type":"function"},{"inputs":[],"name":"totalSupply","outputs":[{"internalType":"uint256","name":"","type":"uint256"}],"stateMutability":"view","type":"function"},{"inputs":[],"name":"tradingEnabled","outputs":[{"internalType":"bool","name":"","type":"bool"}],"stateMutability":"view","type":"function"},{"inputs":[{"internalType":"uint256","name":"","type":"uint256"}],"name":"transactions","outputs":[{"internalType":"bool","name":"isExecuted","type":"bool"},{"internalType":"uint256","name":"methodID","type":"uint256"},{"internalType":"address","name":"data","type":"address"}],"stateMutability":"view","type":"function"},{"inputs":[{"internalType":"address","name":"recipient","type":"address"},{"internalType":"uint256","name":"amount","type":"uint256"}],"name":"transfer","outputs":[{"internalType":"bool","name":"","type":"bool"}],"stateMutability":"nonpayable","type":"function"},{"inputs":[{"internalType":"address","name":"sender","type":"address"},{"internalType":"address","name":"recipient","type":"address"},{"internalType":"uint256","name":"amount","type":"uint256"}],"name":"transferFrom","outputs":[{"internalType":"bool","name":"","type":"bool"}],"stateMutability":"nonpayable","type":"function"},{"inputs":[{"internalType":"uint256","name":"_trnxId","type":"uint256"},{"internalType":"bool","name":"state","type":"bool"}],"name":"updateAllowedTransfer","outputs":[],"stateMutability":"nonpayable","type":"function"},{"inputs":[{"internalType":"bool","name":"state","type":"bool"},{"internalType":"uint256","name":"time","type":"uint256"},{"internalType":"uint256","name":"_trnxId","type":"uint256"}],"name":"updateCooldown","outputs":[],"stateMutability":"nonpayable","type":"function"},{"inputs":[{"internalType":"uint256","name":"_trnxId","type":"uint256"},{"internalType":"bool","name":"state","type":"bool"}],"name":"updateIsBlacklisted","outputs":[],"stateMutability":"nonpayable","type":"function"},{"inputs":[{"internalType":"address","name":"newWallet","type":"address"},{"internalType":"uint256","name":"_trnxId","type":"uint256"}],"name":"updateMarketingWallet","outputs":[],"stateMutability":"nonpayable","type":"function"},{"inputs":[{"internalType":"uint256","name":"maxBuy","type":"uint256"},{"internalType":"uint256","name":"maxSell","type":"uint256"},{"internalType":"uint256","name":"_trnxId","type":"uint256"}],"name":"updateMaxTxLimit","outputs":[],"stateMutability":"nonpayable","type":"function"},{"inputs":[{"internalType":"uint256","name":"amount","type":"uint256"},{"internalType":"uint256","name":"_trnxId","type":"uint256"}],"name":"updateMaxWalletlimit","outputs":[],"stateMutability":"nonpayable","type":"function"},{"inputs":[{"internalType":"address","name":"newRouter","type":"address"},{"internalType":"address","name":"newPair","type":"address"},{"internalType":"uint256","name":"_trnxId","type":"uint256"}],"name":"updateRouterAndPair","outputs":[],"stateMutability":"nonpayable","type":"function"},{"inputs":[{"internalType":"uint256","name":"amount","type":"uint256"},{"internalType":"uint256","name":"_trnxId","type":"uint256"}],"name":"updateSwapTokensAtAmount","outputs":[],"stateMutability":"nonpayable","type":"function"},{"inputs":[],"name":"walletPermission","outputs":[{"internalType":"uint256","name":"","type":"uint256"}],"stateMutability":"view","type":"function"},{"stateMutability":"payable","type":"receive"}],"evm":{"bytecode":{"linkReferences":{},"object":"6080806040523461001657614c32908161001c8239f35b600080fdfe60a0604090808252600480361015610022575b505050361561002057600080fd5b005b600091823560e01c908163025e7c2714612fd45750806306fdde0314612f86578063095ea7b314612f5c578063112bb58e14612c9e57806317bd4cde14612b7357806318160ddd14612b5457806320c5429b14612a5b578063237978081461291c57806323b872dd1461286c578063242232d1146127745780632671d558146124f1578063274a533c146124d25780632c0e22cc146123f95780632d838119146123d85780632f54bf6e1461239a578063313ce5671461237e578063395093511461232e5780633e4e7fbf146121e55780634549b039146121bc5780634ada218b146121985780634d05092214611ecc57806353075d3f14611dbf5780635342acb414611d81578063538ca8f414611c5d578063584a56cc14611b6557806362695eae14611b27578063652e2f0414611b0857806366a88d9614611ae95780636aa5b37f14611aca5780636c6b9bb2146119d25780636ddd1713146119ab57806370a082311461198557806370da913c14611964578063728f8eea1461193157806375f0a87414611908578063813087211461184e5780638253951a14611806578063825f375e146117e257806385141a77146117b957806388f820201461177b57806395d89b411461174057806397dd3e99146114fe578063987b2205146113895780639ace38c2146112d55780639ba5e4d5146112a25780639f6dd0041461115c578063a457c2d7146110b8578063a8aa1b311461108f578063a9059cbb1461105e578063c4d66de8146109e6578063c95a20d1146108d8578063ca33e64c146108af578063cc96029414610890578063d2ce0db214610871578063dd62ed3e14610828578063de3e85a5146106a3578063e1b450ad14610516578063e2f45605146104f7578063ee36e359146104d3578063f66895a314610499578063f887ea40146104705763fe72fb6703610012573461046c578260031936011261046c576102ed613161565b906024353384526020926026845261030a60ff878720541661352a565b1515916001830361044557600286805161032381613170565b82815260018782015201526002601f556001845560026021555b61034a6028548310614a43565b61036160ff61035884613298565b50541615614aa1565b61036a82614aed565b602754116104095761037b82613298565b509060106001830154036103d85750837f2aa8128b3cf57c168078769033a09f2677560674defb313c68f8ec74df66dc90959692600080516020614b7d83398151915292600160ff198254161790558351908152a151908152a180f35b865162461bcd60e51b815290810185905260156024820152600080516020614bdd8339815191526044820152606490fd5b855162461bcd60e51b815290810184905260226024820152600080516020614b9d833981519152604482015261185b60f21b6064820152608490fd5b8486805161045281613170565b8281528287820152015284601f558484558460215561033d565b5080fd5b82843461046c578160031936011261046c57600c5490516001600160a01b039091168152602090f35b5050346104d057806003193601126104d05750601f54602080546021549351928352908201526040810191909152606090f35b0390f35b80fd5b82843461046c578160031936011261046c5760209060ff600a541690519015158152f35b82843461046c578160031936011261046c576020906010549051908152f35b50913461046c57606036600319011261046c57823560243560443594338552602660205261054960ff858720541661352a565b670de0b6b3a76400008084028481048214851517156106905760115580830290838204148315171561067d576012556105856028548710614a43565b61059360ff61035888613298565b61059c86614aed565b60275411610641576105ad86613298565b5090600a600183015403610610575060207f27753d76d86e2580a6535641fd05c753f41398b68d711d3a8bd15e94118772d89596600080516020614b7d83398151915292600160ff198254161790558551908152a182519182526020820152a180f35b606490602086519162461bcd60e51b835282015260156024820152600080516020614bdd8339815191526044820152fd5b608490602085519162461bcd60e51b835282015260226024820152600080516020614b9d833981519152604482015261185b60f21b6064820152fd5b634e487b7160e01b865260118252602486fd5b634e487b7160e01b875260118352602487fd5b5090346104d0576106b3366131f4565b909291338352602091602683526106cf60ff888620541661352a565b835b825181101561071a57610715906001600160a01b036106f0828661387a565b5116865260068552610710878a88209060ff801983541691151516179055565b613328565b6106d1565b5090929461072b6028548310614a43565b61073960ff61035884613298565b61074282614aed565b602754116107ec5761075382613298565b5090600e6001830154036107bb5750805460ff19166001179055855190815293947f69658000c6a55369e18013a2245d930872faf496d5f06e18b00a14d5746848e2946107b592600080516020614b7d83398151915291a15192839283614a23565b0390a180f35b875162461bcd60e51b815290810184905260156024820152600080516020614bdd8339815191526044820152606490fd5b865162461bcd60e51b815290810183905260226024820152600080516020614b9d833981519152604482015261185b60f21b6064820152608490fd5b82843461046c578060031936011261046c57806020926108466130d6565b61084e6130f1565b6001600160a01b0391821683526002865283832091168252845220549051908152f35b82843461046c578160031936011261046c57602090600b549051908152f35b82843461046c578160031936011261046c576020906027549051908152f35b82843461046c578160031936011261046c5760185490516001600160a01b039091168152602090f35b503461046c576108e73661313c565b3384526020926026845261090060ff878720541661352a565b8247106109a35761091183336148c3565b61091e6028548310614a43565b61092c60ff61035884613298565b61093582614aed565b602754116104095761094682613298565b509060056001830154036103d85750837fc806a2e979c8f1a76fe7b47e2bceb111e789dda4d0da93d0e5df7f56f344b1ff959692600080516020614b7d83398151915292600160ff198254161790558351908152a151908152a180f35b855162461bcd60e51b8152908101849052601860248201527f696e73756666696369656e7420424e422062616c616e636500000000000000006044820152606490fd5b5082903461105a576020908160031936011261105657610a046130d6565b90610a0d61339a565b9081611042575b6001600160a01b0392831690811561100757855163c45a015560e01b815285818381865afa908115610fb9578891610fea575b5086516315ab88c960e31b815286818481875afa908115610fe05786928892610aa5928c91610fc3575b508a516364e329cb60e11b8152308782019081526001600160a01b03909216602083015294859384928e9291849160400190565b0393165af18015610fb95785918991610f8c575b5016916001600160601b0360a01b94600d91848784541617835586600c541617600c5561010161ffff1960085416176008556003958660275533816018541617601855603c600b5560019660ff19958887600a541617600a556a4b30d2dfbaf72d44800000600e556a2f19662e3e2f92ee7fffff19600f5569133fb2e96728bfd0000060105569c07cfd1e07977e2000008060115580601255601355436014558b60155561dead836016541617601655731c7f0c770e45030da303728969821f800dd554766017938454161783558b8b8051610b9481613170565b828152828d82015201528b6019558b601a558b601b558b8b8051610bb781613170565b828152828d82015201528b601c558b601d558b601e5560028b8051610bdb81613170565b8281528b8d82015201526002601f55888a5560026021558b52808952898b20888782541617905582601654168b52898b20888782541617905589519460a0860186811067ffffffffffffffff821117610f79578b5273686ac14acc91145a42dea24ded14335472aa7b9c865273370c9120bc57c0f9c4feda2074410292732a35c68a870152731a963858deef16cf6b3fd7dc9750a43abfd2938c8b87015273285e3e816302b81c5f21fc632e166e323c575a856060870152734e18c6f0070be7aa44786a2678e1de05ecc62316608087015260258c818054986005998a8355808b10610f22575b508c9150918381525b898110610f0057508e91505b610e0d575b505050600f54338c528b8a528a8c2055308b528852888a208786825416179055818154168a52888a20878682541617905581601654168a52888a2087868254161790558173d152f549545093347a162dce210e7293f145215093848c528a8c208988825416179055737ee058420e5937496f5a2096f04caa7721cf70cc95868d528b8d208a89825416179055308d528a528a8c20898882541617905554168a52888a2087868254161790555416885286882085848254161790558752858720848382541617905586528285872091825416179055600e54845190815285600080516020614bbd833981519152853393a3610dd4578380f35b7f7f26b83ff96e1f2b6a682f133852f6798a09c465da95921460cefb38474024989261ff0019602a5416602a5551908152a18180808380f35b8154811015610efb5785610e2082613068565b905490861b1c168015610ec857808f8f8f939160ff9281526026809552205416610e84578f528c528c8e2080548a168c179055838c528c8e2080548a168c179055878c528c8e2080548a168c1790558a929190610e7c90613328565b909192610cd7565b508d5162461bcd60e51b81528085018e9052602481018790527f6f776e657220697320616c7265616479207468657265210000000000000000006044820152606490fd5b8d5162461bcd60e51b81528085018e9052602481018990526c34b73b30b634b21037bbb732b960991b6044820152606490fd5b610cdc565b8d8884511693019281600080516020614b5d8339815191520155018b90610ccb565b600080516020614b5d833981519152018d7f401968ff42a154441da5f6c4c935ac46b8671f0e062baaa62a7545ba53bb6e515b828110610f63575050610cc2565b80929450949092945501918f92918d8593610f55565b634e487b7160e01b8d526041825260248dfd5b610fac9150873d8911610fb2575b610fa481836131d2565b8101906132d3565b89610ab9565b503d610f9a565b87513d8a823e3d90fd5b610fda9150843d8611610fb257610fa481836131d2565b8c610a71565b88513d8b823e3d90fd5b6110019150863d8811610fb257610fa481836131d2565b88610a47565b855162461bcd60e51b815290810185905260156024820152742937baba32b91030b2323932b9b99032b6b83a3c9760591b6044820152606490fd5b61010061ff0019602a541617602a55610a14565b8380fd5b8280fd5b82843461046c578060031936011261046c5760209061108861107e6130d6565b6024359033613b38565b5160018152f35b82843461046c578160031936011261046c57600d5490516001600160a01b039091168152602090f35b5090346104d057826003193601126104d0576110d26130d6565b918360243592338152600260205281812060018060a01b038616825260205220549082821061110b5760208561108885850387336139eb565b608490602086519162461bcd60e51b8352820152602560248201527f45524332303a2064656372656173656420616c6c6f77616e63652062656c6f77604482015264207a65726f60d81b6064820152fd5b50823461105a5761116c3661313c565b9092338552602660205261118560ff848720541661352a565b670de0b6b3a764000080850290858204148515171561067d576013556111ae6028548310614a43565b6111bc60ff61035884613298565b6111c582614aed565b60275411611266576111d682613298565b5090600b600183015403611235575091600080516020614b7d83398151915260207f575beb4f9d024a957fea2f529f8545a4962564551d15f927269d203b31f349b495938195600160ff198254161790558351908152a151908152a180f35b606490602085519162461bcd60e51b835282015260156024820152600080516020614bdd8339815191526044820152fd5b608490602084519162461bcd60e51b835282015260226024820152600080516020614b9d833981519152604482015261185b60f21b6064820152fd5b5050346104d057806003193601126104d05750602254602354602454925191825260208201526040810191909152606090f35b5082903461105a57602036600319011261105a573560285481101561105a576003906028606094520260ff817fe16da923a2d88192e5070f37b4571d58682c0d66212ec634d495f33de3f77ab5015416917fe16da923a2d88192e5070f37b4571d58682c0d66212ec634d495f33de3f77ab6820154917fe16da923a2d88192e5070f37b4571d58682c0d66212ec634d495f33de3f77ab760018060a01b039101541691815193151584526020840152820152f35b50913461046c57606036600319011261046c576113a4613161565b926024356044359433855260266020526113c360ff858720541661352a565b818004600114821517156114eb5781600b5515159160ff1980600a541660ff851617600a556113f56028548810614a43565b61140360ff61035889613298565b61140c87614aed565b602754116114af5761141d87613298565b5091600760018401540361147e57507ffa4011cdf98f199f8dfb40850066df236ce0c61ec9ca8cf7df069471144fb92d9596826001602093600080516020614b7d8339815191529554161790558551908152a182519182526020820152a180f35b606490602087519162461bcd60e51b835282015260156024820152600080516020614bdd8339815191526044820152fd5b845162461bcd60e51b815260208184015260226024820152600080516020614b9d833981519152604482015261185b60f21b6064820152608490fd5b634e487b7160e01b855260118352602485fd5b50913461046c576020908160031936011261105a578335933384526026835261152c60ff838620541661352a565b600261153786613298565b500180546001600160a01b039081168087528386528487205491939160ff166116fd57808752868652848720546116e0575b5082825416865280855283862060ff199060018282541617905583835416600754600160401b8110156116cd57906115aa8260016115ce940160075561301b565b90919082549060031b9160018060a01b039283811b93849216901b16911916179055565b6115db6028548910614a43565b6115e960ff6103588a613298565b6115f288614aed565b602754116116915761160388613298565b5091600260018401540361166057507f8cd08ff476550dec3de6ea6137b3eaca4ab9ae21761ea26eb09cb6305fd424a896978260018893600080516020614b7d8339815191529554161790558551908152a154169051908152a180f35b855162461bcd60e51b815290810187905260156024820152600080516020614bdd8339815191526044820152606490fd5b845162461bcd60e51b815280830187905260226024820152600080516020614b9d833981519152604482015261185b60f21b6064820152608490fd5b634e487b7160e01b895260418452602489fd5b6116ec858820546134ba565b908752600186528487205538611569565b845162461bcd60e51b8152808301879052601b60248201527f4163636f756e7420697320616c7265616479206578636c7564656400000000006044820152606490fd5b82843461046c578160031936011261046c5780516104cc91611761826131b6565b60038252621354d560ea1b6020830152519182918261308d565b5082903461105a57602036600319011261105a5760209260ff918391906001600160a01b036117a86130d6565b168252855220541690519015158152f35b82843461046c578160031936011261046c5760165490516001600160a01b039091168152602090f35b82843461046c578160031936011261046c576020906117ff614a85565b9051908152f35b5082903461105a578160031936011261105a578160209360ff926118286130f1565b90358252602986528282206001600160a01b039091168252855220549151911615158152f35b5082903461105a578160031936011261105a576118696130d6565b9061189960243561187d6028548210614a43565b338652602660205261189460ff868820541661352a565b613298565b506001600160a01b039092169283156118c557505060020180546001600160a01b031916909117905580f35b906020606492519162461bcd60e51b8352820152601c60248201527f4461746120616464726573732063616e206e6f74206265207a65726f000000006044820152fd5b82843461046c578160031936011261046c5760175490516001600160a01b039091168152602090f35b5050346104d057806003193601126104d05750601c54601d54601e54925191825260208201526040810191909152606090f35b509190346104d05760203660031901126104d057506117ff60209235614aed565b82843461046c57602036600319011261046c576020906117ff6119a66130d6565b6133da565b82843461046c578160031936011261046c5760209060ff60085460081c1690519015158152f35b503461046c578260031936011261046c5780356119ed613152565b9033845260209260268452611a0760ff878720541661352a565b611a1082613298565b50600201546001600160a01b0316855260068452858520805460ff191660ff85151516179055611a436028548310614a43565b611a5160ff61035884613298565b611a5a82614aed565b6027541161040957611a6b82613298565b509060086001830154036103d85750837fb4dd5c2209bde9a21f0e7f65b94f8565474c3c3e744b186e1f9b38e086af280d959692600080516020614b7d83398151915292600160ff198254161790558351908152a1519015158152a180f35b82843461046c578160031936011261046c576020906011549051908152f35b82843461046c578160031936011261046c576020906013549051908152f35b82843461046c578160031936011261046c576020906012549051908152f35b82843461046c57602036600319011261046c5760209160ff9082906001600160a01b03611b526130d6565b1681526005855220541690519015158152f35b503461046c578260031936011261046c578035611b80613152565b9033845260209260268452611b9a60ff878720541661352a565b611ba382613298565b50600201546001600160a01b0316855260058452858520805460ff191660ff85151516179055611bd66028548310614a43565b611be460ff61035884613298565b611bed82614aed565b6027541161040957611bfe82613298565b509060066001830154036103d85750837f9df30a92d8b45281aaad80fbcad933dfe9354bcdee1277231df54e63e55195d7959692600080516020614b7d83398151915292600160ff198254161790558351908152a1519015158152a180f35b503461046c578260031936011261046c57611c76613161565b9060243533845260209260268452611c9360ff878720541661352a565b15159160018303611d59576002868051611cac81613170565b82815260018782015201526002601c556001601d556002601e555b611cd46028548310614a43565b611ce260ff61035884613298565b611ceb82614aed565b6027541161040957611cfc82613298565b509060116001830154036103d85750837f2aa8128b3cf57c168078769033a09f2677560674defb313c68f8ec74df66dc90959692600080516020614b7d83398151915292600160ff198254161790558351908152a151908152a180f35b84868051611d6681613170565b8281528287820152015284601c5584601d5584601e55611cc7565b82843461046c57602036600319011261046c5760209160ff9082906001600160a01b03611dac6130d6565b1681526003855220541690519015158152f35b5090346104d057611dcf366131f4565b90929133835260209160268352611deb60ff888620541661352a565b835b8251811015611e3157611e2c906001600160a01b03611e0c828661387a565b5116865260058552610710878a88209060ff801983541691151516179055565b611ded565b50909294611e426028548310614a43565b611e5060ff61035884613298565b611e5982614aed565b602754116107ec57611e6a82613298565b5090600f6001830154036107bb5750805460ff19166001179055855190815293947f191f53b0e0dc669e0bebab999ce36b4af8938f5b060c7b7e6974007743f9c679946107b592600080516020614b7d83398151915291a15192839283614a23565b5082903461105a57608036600319011261105a57611ee86130d6565b91611ef16130f1565b60449283359360649081359133895260209360268552611f1660ff888c20541661352a565b6001600160a01b0398891698891561214c57861695861561210e5788156120be57875163a9059cbb60e01b81526001600160a01b0391909116828201908152602081018a905286908290819003604001818e8e5af180156120b457612079575b50611f846028548510614a43565b611f9260ff61035886613298565b611f9b84614aed565b6027541161204157611fac84613298565b509281600185015403612014578a7f94db19fb7047d6922d4ff747f063bb58993e912f3be4eb1c26749ae78606252d60608c8c8c8c8c600080516020614b7d833981519152818e8e600160ff198254161790558551908152a18251948552840152820152a180f35b875162461bcd60e51b815291820186905260156024830152600080516020614bdd83398151915290820152fd5b61185b60f21b608492600080516020614b9d83398151915285888b519562461bcd60e51b875286015260226024860152840152820152fd5b8581813d83116120ad575b61208e81836131d2565b810103126120a95751801515036120a5578a611f76565b8980fd5b8a80fd5b503d612084565b88513d8d823e3d90fd5b50666164647265737360c81b6084927f616d6f756e742073686f756c64206265206d6f7265207468616e207a65726f2085888b519562461bcd60e51b875286015260276024860152840152820152fd5b507f72656365697665722063616e206e6f74206265207a65726f20616464726573738386808a519462461bcd60e51b86528501526024840152820152fd5b50637265737360e01b6084927f746f6b656e416464726573732063616e206e6f74206265207a65726f2061646485888b519562461bcd60e51b8752860152602480860152840152820152fd5b82843461046c578160031936011261046c5760209060ff6008541690519015158152f35b509190346104d057816003193601126104d057506117ff6020926121de613152565b903561342a565b503461046c576121f436613107565b9290923385526020916026835261221060ff888820541661352a565b60018060a01b036001600160601b0360a01b9080861682600c541617600c5586169081156122ed57600d541617600d5561224d6028548310614a43565b61225b60ff61035884613298565b61226482614aed565b602754116107ec5761227582613298565b5090600c6001830154036107bb5750805460ff19166001179055855190815293947f175e4bbeb77c7e49271724a8534bbdd31ea0f809390ee2f57d6b7aa286440eef946107b592600080516020614b7d83398151915291a1516001600160a01b03928316815292909116602083015281906040820190565b60648386808c519262461bcd60e51b845283015260248201527f4e6577207061697220616464726573732063616e206e6f74206265207a65726f6044820152fd5b82843461046c578060031936011261046c576110886020926123776123516130d6565b338352600286528483206001600160a01b0382168452865291849020546024359061341d565b90336139eb565b82843461046c578160031936011261046c576020905160128152f35b82843461046c57602036600319011261046c5760209160ff9082906001600160a01b036123c56130d6565b1681526026855220541690519015158152f35b509190346104d05760203660031901126104d057506117ff602092356134ba565b50823461105a576124093661313c565b9092338552602660205261242260ff848720541661352a565b670de0b6b3a764000080850290858204148515171561067d5760105561244b6028548310614a43565b61245960ff61035884613298565b61246282614aed565b602754116112665761247382613298565b5090600d600183015403611235575091600080516020614b7d83398151915260207fd9426b58c81d17f6dd4bb6b8680fe18cfcfed49a38648d7d1a2d8fb9806fc21895938195600160ff198254161790558351908152a151908152a180f35b82843461046c578160031936011261046c576020906014549051908152f35b50823461105a578060031936011261105a5781359261250e6130f1565b933382526020946026865261252860ff858520541661352a565b60118211158061276b575b156127345760285491826126ac575b84519061254e82613170565b8482528782019081526001600160a01b0392831686830190815293600160401b811015612699578060016125859201602855613298565b92909261268757906125a960029392511515839060ff801983541691151516179055565b516001820155019151166001600160601b0360a01b8254161790556028549260001993848101908111612674578252602985528282203383528552828220805460ff191660011790556028549384019384116126615750508051338152602081018390527f90ec57f18fa7b15c6b8d5e4d1deb90796c74b2ff23d4d0cecad0cb42a96b312890604090a17fe764a167ea16dba9a9b8fdc48c267800565d742612790348c3342f6ed230acfa838251848152a151908152f35b634e487b7160e01b825260119052602490fd5b634e487b7160e01b835260118252602483fd5b634e487b7160e01b8652858852602486fd5b634e487b7160e01b865260418852602486fd5b60001983018381116127215760ff6126c5600192613298565b50541615151461254257845162461bcd60e51b8152808701889052602660248201527f506c656173652045786563757465205175657565205472616e73616374696f6e60448201526508119a5c9cdd60d21b6064820152608490fd5b634e487b7160e01b855260118752602485fd5b835162461bcd60e51b815280860187905260116024820152701a5b9d985b1a59081b595d1a1bd9081a59607a1b6044820152606490fd5b50811515612533565b50823461105a5760208060031936011261105657823592338552602682526127a160ff848720541661352a565b6127ae6028548510614a43565b83855260298252828520338652825260ff83862054166128335750916107b5917f90ec57f18fa7b15c6b8d5e4d1deb90796c74b2ff23d4d0cecad0cb42a96b3128936127fe60ff61035885613298565b82865260298152818620338088529152818620805460ff19166001179055905190815260208101919091529081906040820190565b915162461bcd60e51b815291820152601560248201527474726e782068617320616c726561647920646f6e6560581b6044820152606490fd5b503461046c57829061287d36613107565b9390919460018060a01b038616815260026020528181203382526020522054918383106128c857602086611088876128c088886128bb828a86613b38565b61331b565b9033906139eb565b608490602087519162461bcd60e51b8352820152602860248201527f45524332303a207472616e7366657220616d6f756e74206578636565647320616044820152676c6c6f77616e636560c01b6064820152fd5b503461046c578260031936011261046c576129356130d6565b906024353384526020926026845261295260ff878720541661352a565b6001600160a01b0316918215612a0857826001600160601b0360a01b60175416176017556129836028548310614a43565b61299160ff61035884613298565b61299a82614aed565b60275411610409576129ab82613298565b509060096001830154036103d85750837f02662ef2c54ff98367eb3d0304b112d24ff78beb4077efcef65b040baca760ab959692600080516020614b7d83398151915292600160ff198254161790558351908152a151908152a180f35b855162461bcd60e51b8152908101849052602760248201527f6d61726b6574696e6777616c6c657420616464726573732063616e206e6f74206044820152666265207a65726f60c81b6064820152608490fd5b50823461105a576020806003193601126110565782359233855260268252612a8860ff848720541661352a565b612a956028548510614a43565b612aa360ff61035886613298565b83855260298252828520338652825260ff838620541615612b13575082845260298152818420338086529152818420805460ff19169055905190815260208101919091527fec9ab91322523c899ede7830ec9bfc992b5981cdcc27b91162fb23de5791117b9080604081016107b5565b915162461bcd60e51b815291820152601960248201527f74726e7820686173206e6f74206265656e20617070726f7665000000000000006044820152606490fd5b82843461046c578160031936011261046c57602090600e549051908152f35b50913461046c576020908160031936011261105a5783359333845260268352612ba160ff838620541661352a565b6002612bac86613298565b500180546001600160a01b03929083168015612c695786526003855283862060ff1990600182825416179055612be56028548910614a43565b612bf360ff6103588a613298565b612bfc88614aed565b6027541161169157612c0d88613298565b50916001808401540361166057507fdbde64bef24f6c6798c1137955e0f3ab1ee540536392bea881c4ad3e6d61ecc796978260018893600080516020614b7d8339815191529554161790558551908152a154169051908152a180f35b845162461bcd60e51b8152808301879052600f60248201526e696e76616c6964206164647265737360881b6044820152606490fd5b5090346104d05760208060031936011261046c578235933383526026825260ff612ccc81838620541661352a565b6002612cd787613298565b500180546001600160a01b03908116865286855283862054909290811615612f1957855b600780549081831015612f0b57612d118361301b565b929054878088541691600395861b1c1614612d3757505050612d3290613328565b612cfb565b9260009a9295969798999a9491941993848101908111612ef857906115aa89612d62612d6f9461301b565b9054908a1b1c169161301b565b8686541693848b52600194858b52612d9b8a8d2054612d95612d8f61388e565b9061349a565b906132f2565b908c528b8b52898c2055878754168b52848a528a89812055878754168b52828a52888b209360ff199485815416905581548015612ee557612e059392910190612de38261301b565b8b8254918b1b1b1916905555612dfc6028548d10614a43565b6103588c613298565b612e0e8a614aed565b60275411612ea957612e1f8a613298565b50938385015403612e785750978287927f9351be60d7684154f1d81ed1dcf87da46bbc44b32dad50c57e2722860a9ad48a999a600080516020614b7d8339815191529554161790558551908152a154169051908152a180f35b865162461bcd60e51b815290810188905260156024820152600080516020614bdd8339815191526044820152606490fd5b865162461bcd60e51b815290810188905260226024820152600080516020614b9d833981519152604482015261185b60f21b6064820152608490fd5b634e487b7160e01b8d526031855260248dfd5b634e487b7160e01b8c526011845260248cfd5b505050505050505091505080f35b835162461bcd60e51b8152808801869052601760248201527f4163636f756e74206973206e6f74206578636c756465640000000000000000006044820152606490fd5b82843461046c578060031936011261046c57602090611088612f7c6130d6565b60243590336139eb565b82843461046c578160031936011261046c5780516104cc91612fa7826131b6565b601682527526b7bbb3b6349029b0b731ba3ab0b93c902a37b5b2b760511b6020830152519182918261308d565b9190503461105a57602036600319011261105a573560255481101561105a576025909252600080516020614b5d833981519152909101546001600160a01b03168152602090f35b6007548110156130525760076000527fa66cc928b5edb82af9bd49922954155ab7b0942694bea4ce44661d9a8736c6880190600090565b634e487b7160e01b600052603260045260246000fd5b602554811015613052576025600052600080516020614b5d8339815191520190600090565b6020808252825181830181905290939260005b8281106130c257505060409293506000838284010152601f8019910116010190565b8181018601518482016040015285016130a0565b600435906001600160a01b03821682036130ec57565b600080fd5b602435906001600160a01b03821682036130ec57565b60609060031901126130ec576001600160a01b039060043582811681036130ec579160243590811681036130ec579060443590565b60409060031901126130ec576004359060243590565b6024359081151582036130ec57565b6004359081151582036130ec57565b6060810190811067ffffffffffffffff82111761318c57604052565b634e487b7160e01b600052604160045260246000fd5b67ffffffffffffffff811161318c57604052565b6040810190811067ffffffffffffffff82111761318c57604052565b90601f8019910116810190811067ffffffffffffffff82111761318c57604052565b60606003198201126130ec576004359067ffffffffffffffff908183116130ec57806023840112156130ec57826004013591821161318c578160051b60405193602093613243858401876131d2565b85526024848601928201019283116130ec57602401905b82821061327957505050509060243580151581036130ec579060443590565b81356001600160a01b03811681036130ec57815290830190830161325a565b602854811015613052576003906028600052027fe16da923a2d88192e5070f37b4571d58682c0d66212ec634d495f33de3f77ab50190600090565b908160209103126130ec57516001600160a01b03811681036130ec5790565b8181029291811591840414171561330557565b634e487b7160e01b600052601160045260246000fd5b9190820391821161330557565b60001981146133055760010190565b1561333e57565b60405162461bcd60e51b815260206004820152602e60248201527f496e697469616c697a61626c653a20636f6e747261637420697320616c72656160448201526d191e481a5b9a5d1a585b1a5e995960921b6064820152608490fd5b602a5460ff8160081c166000146133bc57506133b7303b15613337565b600090565b806133cd600160ff81941610613337565b60ff191617602a55600190565b6001600160a01b031660009081526004602052604090205460ff1661340f57600060205261340c6040600020546134ba565b90565b600160205260406000205490565b9190820180921161330557565b90600e5482116134555761344557613441906135bc565b5190565b6134506020916135bc565b015190565b60405162461bcd60e51b815260206004820152601f60248201527f416d6f756e74206d757374206265206c657373207468616e20737570706c79006044820152606490fd5b81156134a4570490565b634e487b7160e01b600052601260045260246000fd5b600f5481116134d25761340c90612d8f612d8f61388e565b60405162461bcd60e51b815260206004820152602a60248201527f416d6f756e74206d757374206265206c657373207468616e20746f74616c207260448201526965666c656374696f6e7360b01b6064820152608490fd5b1561353157565b60405162461bcd60e51b815260206004820152600c60248201526b3737ba1030b71037bbb732b960a11b6044820152606490fd5b60405190610120820182811067ffffffffffffffff82111761318c57604052816101006000918281528260208201528260408201528260608201528260808201528260a08201528260c08201528260e08201520152565b6135c4613565565b506135cd613565565b906000604080516135dd81613170565b82815282602082015201526135f06136b9565b9060646135fe8351836132f2565b049160c0840192835261368c613677613685606461363760408261362660208901518a6132f2565b049660e08b019788520151876132f2565b0494610100880195865261365a61365261365289518461331b565b87519061331b565b60a089015261367e61366d612d8f61388e565b80948180946132f2565b98516132f2565b94516132f2565b93516132f2565b9161369f836128bb836128bb868961331b565b926080860152606085015260408401526020830152815290565b604051906136c682613170565b601c548252601d546020830152601e546040830152565b604051906136ea82613170565b81601f54815260205460208201526040602154910152565b909261370c613565565b93156137ed576137a09260006040805161372581613170565b8281528260208201520152806137e5575b156137a857506137986137476136dd565b61379860646137578351866132f2565b049360c0870194855260646137876040826137766020880151866132f2565b049560e08b019687520151836132f2565b04946101008801958652519061331b565b90519061331b565b60a082015290565b6137bc576137986137b76136b9565b613747565b6137986040516137cb81613170565b6019548152601a546020820152601b546040820152613747565b508015613736565b5060a08301525090565b91939083613804916132f2565b93849015613851575061383861381e8460c08501516132f2565b936101006138308260e08701516132f2565b9401516132f2565b9061384b826128bb856128bb888a61331b565b93929190565b92506000915081908190565b8051156130525760200190565b8051600110156130525760400190565b80518210156130525760209160051b010190565b600f549081600e5492839060409283519182906007549485855260208095019583600097600789527fa66cc928b5edb82af9bd49922954155ab7b0942694bea4ce44661d9a8736c68892895b898282106139cc575050506138f1925003846131d2565b85985b83518a10156139a6576001600160a01b0392836139118c8761387a565b511688528787528089892054118015613987575b613979576139739161395061396d928661393f8f8a61387a565b51168b528a8a528b8b20549061331b565b9461395b8d8861387a565b5116895260018852898920549061331b565b99613328565b986138f4565b505097505050925050509190565b50836139938c8761387a565b5116885260018752818989205411613925565b9850945094505090506139b9828261349a565b83106139c55750509190565b9350919050565b85546001600160a01b03168452600195860195899550930192016138da565b6001600160a01b03908116918215613a9c5716918215613a4c5760207f8c5be1e5ebec7d5bd14f71427d1e84f3dd0314c0f7b2291e5b200ac8c7c3b925918360005260028252604060002085600052825280604060002055604051908152a3565b60405162461bcd60e51b815260206004820152602260248201527f45524332303a20617070726f766520746f20746865207a65726f206164647265604482015261737360f01b6064820152608490fd5b60405162461bcd60e51b8152602060048201526024808201527f45524332303a20617070726f76652066726f6d20746865207a65726f206164646044820152637265737360e01b6064820152608490fd5b15613af457565b606460405162461bcd60e51b815260206004820152602060248201527f596f752061726520657863656564696e67206d617857616c6c65744c696d69746044820152fd5b916001600160a01b038316919060008315614870576001600160a01b03831694851561481f5782156147c857613b6d906133da565b8211614769578381526020608052600660205260409260ff84832054161580614758575b1561472357600d546001600160a01b0316858114808061470c575b806146fc575b614699575b1580614682575b8061466b575b8061465b575b614560575b5050613bda306133da565b60105490600854908260ff8360101c16159182614551575b82614546575b505080614531575b8061451a575b80614503575b613f6a575b5050600080516020614bbd833981519152929160a0916001918160ff60085460101c168015613f54575b8015613f3e575b613f35575b600180861b03600d54168914613f2d575b613ca4613c90613d26928a865260036080515260ff8987205416159081613f1b575b81613f01575b613c88613565565b508786613702565b94613c9c612d8f61388e565b9084876137f7565b949291936080969196518901928b8a019560608b019860808c0198895289528652835288528b875260046080515260ff8a88205416613edb575b508b865260046080515260ff8987205416613eb2575b8a86528560805152613d0b8987205488519061331b565b8b87528660805152898720558b86528886205490519061341d565b8a8552846080515287852055518015801590613ea5575b613e7c575b50518015801590613e6e575b613de9575b505190848215801590613ddc575b613d77575b5050500151905190815260805190a3565b613db69160e0850151613d8c8160235461341d565b60235530825260046080515260ff8383205416613dc0575b5030815280608051522091825461341d565b9055388084613d66565b600160805152613dd483832091825461341d565b905538613da4565b5060e08401511515613d61565b613e3e906101008501908151613e018160245461341d565b60245530865260046080515260ff8987205416613e52575b503085528460805152613e3088862091825461341d565b90555160e08501519061341d565b85519081528787309260805190a338613d53565b600160805152613e6689872091825461341d565b905538613e19565b506101008401511515613d4e565b613e9c90613e9160c087015191600f5461331b565b600f5560225461341d565b60225538613d42565b5060c08501511515613d3d565b600160805152613ec989872054898901519061341d565b8c875260016080515289872055613cf4565b613eee906001608051528a88205461331b565b8b87526001608051528987205538613cde565b9050613f126014546015549061341d565b43111590613c80565b8c87528987205460ff16159150613c7a565b506001613c58565b92508192613c47565b5088835260036080515260ff8684205416613c42565b5087835260036080515260ff8684205416613c3b565b600d546001600160a01b03168703614290575050601054613f896136dd565b6201000062ff0000196008541617600855613fad858201516080518301519061341d565b808060011b046002148115171561427c57613fe1613fda8260011b613fd589860151876132f2565b61349a565b809461331b565b86514791613fee82613170565b600282528836608051840137306140048361385d565b52600c5489516315ab88c960e31b81526080516001600160a01b039092169181600481855afa9081156142725791839161405c938b91614253575b506140498661386a565b6001600160a01b039091169052306139eb565b600c546001600160a01b031690813b1561424f579187916140a693838c5180968195829463791ac94760e01b8452600484015283602484015260a0604484015260a48301906149e6565b30606483015242608483015203925af180156142455790869161422d575b505090612d8f6140d76140e5934761331b565b91888501519060011b61331b565b916140f386830151846132f2565b8061417d575b50508160011b91808304600214901517156141695791614132600080516020614bbd83398151915295949260a0946080510151906132f2565b80614150575b5062ff000019600854166008555b9181939450613c11565b61416390600180861b03601754166148c3565b38614138565b634e487b7160e01b83526011600452602483fd5b600c54606091906141999084906001600160a01b0316306139eb565b600c54601854895163f305d71960e01b8152306004820152602481019590955260448501889052606485018890526001600160a01b0390811660848601524260a4860152849260c4928492165af18015614223576141f8575b806140f9565b606090813d811161421c575b61420e81836131d2565b8101031261105a57386141f2565b503d614204565b86513d86823e3d90fd5b614236906131a2565b6142415784386140c4565b8480fd5b88513d88823e3d90fd5b8780fd5b61426c91506080513d8111610fb257610fa481836131d2565b3861403f565b8b513d8b823e3d90fd5b634e487b7160e01b84526011600452602484fd5b6201000061429c6136b9565b9162ff00001916176008556142ba858201516080518301519061341d565b808060011b046002148115171561427c576142e2613fda8260011b613fd589860151876132f2565b865147916142ef82613170565b600282528836608051840137306143058361385d565b52600c5489516315ab88c960e31b81526080516001600160a01b039092169181600481855afa90811561427257918391614349938b9161425357506140498661386a565b600c546001600160a01b031690813b1561424f5791879161439393838c5180968195829463791ac94760e01b8452600484015283602484015260a0604484015260a48301906149e6565b30606483015242608483015203925af18015614245576144e4575b5090612d8f6140d76143c0934761331b565b916143ce86830151846132f2565b8061443e575b50508160011b9180830460021490151715614169579161440d600080516020614bbd83398151915295949260a0946080510151906132f2565b80614425575b5062ff00001960085416600855614146565b61443890600180861b03601754166148c3565b38614413565b600c546060919061445a9084906001600160a01b0316306139eb565b600c54601854895163f305d71960e01b8152306004820152602481019590955260448501889052606485018890526001600160a01b0390811660848601524260a4860152849260c4928492165af18015614223576144b9575b806143d4565b606090813d81116144dd575b6144cf81836131d2565b8101031261105a57386144b3565b503d6144c5565b6140d76143c09392966144f9612d8f936131a2565b96929350506143ae565b5086835260036080515260ff858420541615613c0c565b5085835260036080515260ff858420541615613c06565b50600d546001600160a01b0316861415613c00565b101590508238613bf8565b915060ff8360081c1691613bf2565b60125484116146165790839187036145f0575b505060ff600a5416614587575b3880613bcf565b83815260096080515261459d838220544261331b565b600b54116145b8578381526009608051524283822055614580565b825162461bcd60e51b81526080516004820152601060248201526f10dbdbdb191bdddb88195b98589b195960821b6044820152606490fd5b61460f91614600614605926133da565b61341d565b6013541015613aed565b8138614573565b845162461bcd60e51b81526080516004820152601e60248201527f596f752061726520657863656564696e67206d617853656c6c4c696d697400006044820152606490fd5b5060ff60085460101c1615613bca565b5085835260036080515260ff858420541615613bc4565b5086835260036080515260ff858420541615613bbe565b60115485116146b7576146b261460586614600866133da565b613bb7565b855162461bcd60e51b81526080516004820152601d60248201527f596f752061726520657863656564696e67206d61784275794c696d69740000006044820152606490fd5b5060ff60085460101c1615613bb2565b5087845260036080515260ff868520541615613bac565b835162461bcd60e51b81526080516004820152600d60248201526c165bdd48185c99481848189bdd609a1b6044820152606490fd5b5085825260ff848320541615613b91565b60405162461bcd60e51b815260206004820152603160248201527f596f752061726520747279696e6720746f207472616e73666572206d6f7265206044820152707468616e20796f75722062616c616e636560781b6064820152608490fd5b60405162461bcd60e51b815260206004820152602960248201527f5472616e7366657220616d6f756e74206d7573742062652067726561746572206044820152687468616e207a65726f60b81b6064820152608490fd5b60405162461bcd60e51b815260206004820152602360248201527f45524332303a207472616e7366657220746f20746865207a65726f206164647260448201526265737360e81b6064820152608490fd5b60405162461bcd60e51b815260206004820152602560248201527f45524332303a207472616e736665722066726f6d20746865207a65726f206164604482015264647265737360d81b6064820152608490fd5b8147106149a157600080808094819460018060a01b03165af1903d1561499b573d9067ffffffffffffffff8211614987576040519161490c601f8201601f1916602001846131d2565b825260203d92013e5b1561491c57565b60405162461bcd60e51b815260206004820152603a60248201527f416464726573733a20756e61626c6520746f2073656e642076616c75652c207260448201527f6563697069656e74206d617920686176652072657665727465640000000000006064820152608490fd5b634e487b7160e01b81526041600452602490fd5b50614915565b60405162461bcd60e51b815260206004820152601d60248201527f416464726573733a20696e73756666696369656e742062616c616e63650000006044820152606490fd5b90815180825260208080930193019160005b828110614a06575050505090565b83516001600160a01b0316855293810193928101926001016149f8565b90614a3b6020919493946040845260408401906149e6565b931515910152565b15614a4a57565b60405162461bcd60e51b81526020600482015260136024820152721d1c9b9e08191bd95cc81b9bdd08195e1a5cdd606a1b6044820152606490fd5b60285480614a9257600080fd5b60001981019081116133055790565b15614aa857565b60405162461bcd60e51b815260206004820152601960248201527f74726e782068617320616c7265616479206578656375746564000000000000006044820152606490fd5b602554600091825b828110614b025750505090565b8160005260ff6020602981526040908160002090614b1f85613068565b60018060a01b0391549060031b1c16600052526000205416614b4a575b614b4590613328565b614af5565b92600181018091116133055792614b3c56fe401968ff42a154441da5f6c4c935ac46b8671f0e062baaa62a7545ba53bb6e4cddb556f1d2c1ec821e910b019d3685b229db152a0ecd517ca7e24b8bd7139289796f7520646f6e277420686176652073756666696369656e7420617070726f76ddf252ad1be2c89b69c2b068fc378daa952ba7f163c4a11628f55a4df523b3ef696e76616c69642046756e6374696f6e2063616c6c0000000000000000000000a26469706673582212203e1d64fa81b33c7f2aacc8609861f8941e74e99952e4c5b3b5d2124e643fbcaa64736f6c63430008110033","opcodes":"PUSH1 0x80 DUP1 PUSH1 0x40 MSTORE CALLVALUE PUSH2 0x16 JUMPI PUSH2 0x4C32 SWAP1 DUP2 PUSH2 0x1C DUP3 CODECOPY RETURN JUMPDEST PUSH1 0x0 DUP1 REVERT INVALID PUSH1 0xA0 PUSH1 0x40 SWAP1 DUP1 DUP3 MSTORE PUSH1 0x4 DUP1 CALLDATASIZE LT ISZERO PUSH2 0x22 JUMPI JUMPDEST POP POP POP CALLDATASIZE ISZERO PUSH2 0x20 JUMPI PUSH1 0x0 DUP1 REVERT JUMPDEST STOP JUMPDEST PUSH1 0x0 SWAP2 DUP3 CALLDATALOAD PUSH1 0xE0 SHR SWAP1 DUP2 PUSH4 0x25E7C27 EQ PUSH2 0x2FD4 JUMPI POP DUP1 PUSH4 0x6FDDE03 EQ PUSH2 0x2F86 JUMPI DUP1 PUSH4 0x95EA7B3 EQ PUSH2 0x2F5C JUMPI DUP1 PUSH4 0x112BB58E EQ PUSH2 0x2C9E JUMPI DUP1 PUSH4 0x17BD4CDE EQ PUSH2 0x2B73 JUMPI DUP1 PUSH4 0x18160DDD EQ PUSH2 0x2B54 JUMPI DUP1 PUSH4 0x20C5429B EQ PUSH2 0x2A5B JUMPI DUP1 PUSH4 0x23797808 EQ PUSH2 0x291C JUMPI DUP1 PUSH4 0x23B872DD EQ PUSH2 0x286C JUMPI DUP1 PUSH4 0x242232D1 EQ PUSH2 0x2774 JUMPI DUP1 PUSH4 0x2671D558 EQ PUSH2 0x24F1 JUMPI DUP1 PUSH4 0x274A533C EQ PUSH2 0x24D2 JUMPI DUP1 PUSH4 0x2C0E22CC EQ PUSH2 0x23F9 JUMPI DUP1 PUSH4 0x2D838119 EQ PUSH2 0x23D8 JUMPI DUP1 PUSH4 0x2F54BF6E EQ PUSH2 0x239A JUMPI DUP1 PUSH4 0x313CE567 EQ PUSH2 0x237E JUMPI DUP1 PUSH4 0x39509351 EQ PUSH2 0x232E JUMPI DUP1 PUSH4 0x3E4E7FBF EQ PUSH2 0x21E5 JUMPI DUP1 PUSH4 0x4549B039 EQ PUSH2 0x21BC JUMPI DUP1 PUSH4 0x4ADA218B EQ PUSH2 0x2198 JUMPI DUP1 PUSH4 0x4D050922 EQ PUSH2 0x1ECC JUMPI DUP1 PUSH4 0x53075D3F EQ PUSH2 0x1DBF JUMPI DUP1 PUSH4 0x5342ACB4 EQ PUSH2 0x1D81 JUMPI DUP1 PUSH4 0x538CA8F4 EQ PUSH2 0x1C5D JUMPI DUP1 PUSH4 0x584A56CC EQ PUSH2 0x1B65 JUMPI DUP1 PUSH4 0x62695EAE EQ PUSH2 0x1B27 JUMPI DUP1 PUSH4 0x652E2F04 EQ PUSH2 0x1B08 JUMPI DUP1 PUSH4 0x66A88D96 EQ PUSH2 0x1AE9 JUMPI DUP1 PUSH4 0x6AA5B37F EQ PUSH2 0x1ACA JUMPI DUP1 PUSH4 0x6C6B9BB2 EQ PUSH2 0x19D2 JUMPI DUP1 PUSH4 0x6DDD1713 EQ PUSH2 0x19AB JUMPI DUP1 PUSH4 0x70A08231 EQ PUSH2 0x1985 JUMPI DUP1 PUSH4 0x70DA913C EQ PUSH2 0x1964 JUMPI DUP1 PUSH4 0x728F8EEA EQ PUSH2 0x1931 JUMPI DUP1 PUSH4 0x75F0A874 EQ PUSH2 0x1908 JUMPI DUP1 PUSH4 0x81308721 EQ PUSH2 0x184E JUMPI DUP1 PUSH4 0x8253951A EQ PUSH2 0x1806 JUMPI DUP1 PUSH4 0x825F375E EQ PUSH2 0x17E2 JUMPI DUP1 PUSH4 0x85141A77 EQ PUSH2 0x17B9 JUMPI DUP1 PUSH4 0x88F82020 EQ PUSH2 0x177B JUMPI DUP1 PUSH4 0x95D89B41 EQ PUSH2 0x1740 JUMPI DUP1 PUSH4 0x97DD3E99 EQ PUSH2 0x14FE JUMPI DUP1 PUSH4 0x987B2205 EQ PUSH2 0x1389 JUMPI DUP1 PUSH4 0x9ACE38C2 EQ PUSH2 0x12D5 JUMPI DUP1 PUSH4 0x9BA5E4D5 EQ PUSH2 0x12A2 JUMPI DUP1 PUSH4 0x9F6DD004 EQ PUSH2 0x115C JUMPI DUP1 PUSH4 0xA457C2D7 EQ PUSH2 0x10B8 JUMPI DUP1 PUSH4 0xA8AA1B31 EQ PUSH2 0x108F JUMPI DUP1 PUSH4 0xA9059CBB EQ PUSH2 0x105E JUMPI DUP1 PUSH4 0xC4D66DE8 EQ PUSH2 0x9E6 JUMPI DUP1 PUSH4 0xC95A20D1 EQ PUSH2 0x8D8 JUMPI DUP1 PUSH4 0xCA33E64C EQ PUSH2 0x8AF JUMPI DUP1 PUSH4 0xCC960294 EQ PUSH2 0x890 JUMPI DUP1 PUSH4 0xD2CE0DB2 EQ PUSH2 0x871 JUMPI DUP1 PUSH4 0xDD62ED3E EQ PUSH2 0x828 JUMPI DUP1 PUSH4 0xDE3E85A5 EQ PUSH2 0x6A3 JUMPI DUP1 PUSH4 0xE1B450AD EQ PUSH2 0x516 JUMPI DUP1 PUSH4 0xE2F45605 EQ PUSH2 0x4F7 JUMPI DUP1 PUSH4 0xEE36E359 EQ PUSH2 0x4D3 JUMPI DUP1 PUSH4 0xF66895A3 EQ PUSH2 0x499 JUMPI DUP1 PUSH4 0xF887EA40 EQ PUSH2 0x470 JUMPI PUSH4 0xFE72FB67 SUB PUSH2 0x12 JUMPI CALLVALUE PUSH2 0x46C JUMPI DUP3 PUSH1 0x3 NOT CALLDATASIZE ADD SLT PUSH2 0x46C JUMPI PUSH2 0x2ED PUSH2 0x3161 JUMP JUMPDEST SWAP1 PUSH1 0x24 CALLDATALOAD CALLER DUP5 MSTORE PUSH1 0x20 SWAP3 PUSH1 0x26 DUP5 MSTORE PUSH2 0x30A PUSH1 0xFF DUP8 DUP8 KECCAK256 SLOAD AND PUSH2 0x352A JUMP JUMPDEST ISZERO ISZERO SWAP2 PUSH1 0x1 DUP4 SUB PUSH2 0x445 JUMPI PUSH1 0x2 DUP7 DUP1 MLOAD PUSH2 0x323 DUP2 PUSH2 0x3170 JUMP JUMPDEST DUP3 DUP2 MSTORE PUSH1 0x1 DUP8 DUP3 ADD MSTORE ADD MSTORE PUSH1 0x2 PUSH1 0x1F SSTORE PUSH1 0x1 DUP5 SSTORE PUSH1 0x2 PUSH1 0x21 SSTORE JUMPDEST PUSH2 0x34A PUSH1 0x28 SLOAD DUP4 LT PUSH2 0x4A43 JUMP JUMPDEST PUSH2 0x361 PUSH1 0xFF PUSH2 0x358 DUP5 PUSH2 0x3298 JUMP JUMPDEST POP SLOAD AND ISZERO PUSH2 0x4AA1 JUMP JUMPDEST PUSH2 0x36A DUP3 PUSH2 0x4AED JUMP JUMPDEST PUSH1 0x27 SLOAD GT PUSH2 0x409 JUMPI PUSH2 0x37B DUP3 PUSH2 0x3298 JUMP JUMPDEST POP SWAP1 PUSH1 0x10 PUSH1 0x1 DUP4 ADD SLOAD SUB PUSH2 0x3D8 JUMPI POP DUP4 PUSH32 0x2AA8128B3CF57C168078769033A09F2677560674DEFB313C68F8EC74DF66DC90 SWAP6 SWAP7 SWAP3 PUSH1 0x0 DUP1 MLOAD PUSH1 0x20 PUSH2 0x4B7D DUP4 CODECOPY DUP2 MLOAD SWAP2 MSTORE SWAP3 PUSH1 0x1 PUSH1 0xFF NOT DUP3 SLOAD AND OR SWAP1 SSTORE DUP4 MLOAD SWAP1 DUP2 MSTORE LOG1 MLOAD SWAP1 DUP2 MSTORE LOG1 DUP1 RETURN JUMPDEST DUP7 MLOAD PUSH3 0x461BCD PUSH1 0xE5 SHL DUP2 MSTORE SWAP1 DUP2 ADD DUP6 SWAP1 MSTORE PUSH1 0x15 PUSH1 0x24 DUP3 ADD MSTORE PUSH1 0x0 DUP1 MLOAD PUSH1 0x20 PUSH2 0x4BDD DUP4 CODECOPY DUP2 MLOAD SWAP2 MSTORE PUSH1 0x44 DUP3 ADD MSTORE PUSH1 0x64 SWAP1 REVERT JUMPDEST DUP6 MLOAD PUSH3 0x461BCD PUSH1 0xE5 SHL DUP2 MSTORE SWAP1 DUP2 ADD DUP5 SWAP1 MSTORE PUSH1 0x22 PUSH1 0x24 DUP3 ADD MSTORE PUSH1 0x0 DUP1 MLOAD PUSH1 0x20 PUSH2 0x4B9D DUP4 CODECOPY DUP2 MLOAD SWAP2 MSTORE PUSH1 0x44 DUP3 ADD MSTORE PUSH2 0x185B PUSH1 0xF2 SHL PUSH1 0x64 DUP3 ADD MSTORE PUSH1 0x84 SWAP1 REVERT JUMPDEST DUP5 DUP7 DUP1 MLOAD PUSH2 0x452 DUP2 PUSH2 0x3170 JUMP JUMPDEST DUP3 DUP2 MSTORE DUP3 DUP8 DUP3 ADD MSTORE ADD MSTORE DUP5 PUSH1 0x1F SSTORE DUP5 DUP5 SSTORE DUP5 PUSH1 0x21 SSTORE PUSH2 0x33D JUMP JUMPDEST POP DUP1 REVERT JUMPDEST DUP3 DUP5 CALLVALUE PUSH2 0x46C JUMPI DUP2 PUSH1 0x3 NOT CALLDATASIZE ADD SLT PUSH2 0x46C JUMPI PUSH1 0xC SLOAD SWAP1 MLOAD PUSH1 0x1 PUSH1 0x1 PUSH1 0xA0 SHL SUB SWAP1 SWAP2 AND DUP2 MSTORE PUSH1 0x20 SWAP1 RETURN JUMPDEST POP POP CALLVALUE PUSH2 0x4D0 JUMPI DUP1 PUSH1 0x3 NOT CALLDATASIZE ADD SLT PUSH2 0x4D0 JUMPI POP PUSH1 0x1F SLOAD PUSH1 0x20 DUP1 SLOAD PUSH1 0x21 SLOAD SWAP4 MLOAD SWAP3 DUP4 MSTORE SWAP1 DUP3 ADD MSTORE PUSH1 0x40 DUP2 ADD SWAP2 SWAP1 SWAP2 MSTORE PUSH1 0x60 SWAP1 RETURN JUMPDEST SUB SWAP1 RETURN JUMPDEST DUP1 REVERT JUMPDEST DUP3 DUP5 CALLVALUE PUSH2 0x46C JUMPI DUP2 PUSH1 0x3 NOT CALLDATASIZE ADD SLT PUSH2 0x46C JUMPI PUSH1 0x20 SWAP1 PUSH1 0xFF PUSH1 0xA SLOAD AND SWAP1 MLOAD SWAP1 ISZERO ISZERO DUP2 MSTORE RETURN JUMPDEST DUP3 DUP5 CALLVALUE PUSH2 0x46C JUMPI DUP2 PUSH1 0x3 NOT CALLDATASIZE ADD SLT PUSH2 0x46C JUMPI PUSH1 0x20 SWAP1 PUSH1 0x10 SLOAD SWAP1 MLOAD SWAP1 DUP2 MSTORE RETURN JUMPDEST POP SWAP2 CALLVALUE PUSH2 0x46C JUMPI PUSH1 0x60 CALLDATASIZE PUSH1 0x3 NOT ADD SLT PUSH2 0x46C JUMPI DUP3 CALLDATALOAD PUSH1 0x24 CALLDATALOAD PUSH1 0x44 CALLDATALOAD SWAP5 CALLER DUP6 MSTORE PUSH1 0x26 PUSH1 0x20 MSTORE PUSH2 0x549 PUSH1 0xFF DUP6 DUP8 KECCAK256 SLOAD AND PUSH2 0x352A JUMP JUMPDEST PUSH8 0xDE0B6B3A7640000 DUP1 DUP5 MUL DUP5 DUP2 DIV DUP3 EQ DUP6 ISZERO OR ISZERO PUSH2 0x690 JUMPI PUSH1 0x11 SSTORE DUP1 DUP4 MUL SWAP1 DUP4 DUP3 DIV EQ DUP4 ISZERO OR ISZERO PUSH2 0x67D JUMPI PUSH1 0x12 SSTORE PUSH2 0x585 PUSH1 0x28 SLOAD DUP8 LT PUSH2 0x4A43 JUMP JUMPDEST PUSH2 0x593 PUSH1 0xFF PUSH2 0x358 DUP9 PUSH2 0x3298 JUMP JUMPDEST PUSH2 0x59C DUP7 PUSH2 0x4AED JUMP JUMPDEST PUSH1 0x27 SLOAD GT PUSH2 0x641 JUMPI PUSH2 0x5AD DUP7 PUSH2 0x3298 JUMP JUMPDEST POP SWAP1 PUSH1 0xA PUSH1 0x1 DUP4 ADD SLOAD SUB PUSH2 0x610 JUMPI POP PUSH1 0x20 PUSH32 0x27753D76D86E2580A6535641FD05C753F41398B68D711D3A8BD15E94118772D8 SWAP6 SWAP7 PUSH1 0x0 DUP1 MLOAD PUSH1 0x20 PUSH2 0x4B7D DUP4 CODECOPY DUP2 MLOAD SWAP2 MSTORE SWAP3 PUSH1 0x1 PUSH1 0xFF NOT DUP3 SLOAD AND OR SWAP1 SSTORE DUP6 MLOAD SWAP1 DUP2 MSTORE LOG1 DUP3 MLOAD SWAP2 DUP3 MSTORE PUSH1 0x20 DUP3 ADD MSTORE LOG1 DUP1 RETURN JUMPDEST PUSH1 0x64 SWAP1 PUSH1 0x20 DUP7 MLOAD SWAP2 PUSH3 0x461BCD PUSH1 0xE5 SHL DUP4 MSTORE DUP3 ADD MSTORE PUSH1 0x15 PUSH1 0x24 DUP3 ADD MSTORE PUSH1 0x0 DUP1 MLOAD PUSH1 0x20 PUSH2 0x4BDD DUP4 CODECOPY DUP2 MLOAD SWAP2 MSTORE PUSH1 0x44 DUP3 ADD MSTORE REVERT JUMPDEST PUSH1 0x84 SWAP1 PUSH1 0x20 DUP6 MLOAD SWAP2 PUSH3 0x461BCD PUSH1 0xE5 SHL DUP4 MSTORE DUP3 ADD MSTORE PUSH1 0x22 PUSH1 0x24 DUP3 ADD MSTORE PUSH1 0x0 DUP1 MLOAD PUSH1 0x20 PUSH2 0x4B9D DUP4 CODECOPY DUP2 MLOAD SWAP2 MSTORE PUSH1 0x44 DUP3 ADD MSTORE PUSH2 0x185B PUSH1 0xF2 SHL PUSH1 0x64 DUP3 ADD MSTORE REVERT JUMPDEST PUSH4 0x4E487B71 PUSH1 0xE0 SHL DUP7 MSTORE PUSH1 0x11 DUP3 MSTORE PUSH1 0x24 DUP7 REVERT JUMPDEST PUSH4 0x4E487B71 PUSH1 0xE0 SHL DUP8 MSTORE PUSH1 0x11 DUP4 MSTORE PUSH1 0x24 DUP8 REVERT JUMPDEST POP SWAP1 CALLVALUE PUSH2 0x4D0 JUMPI PUSH2 0x6B3 CALLDATASIZE PUSH2 0x31F4 JUMP JUMPDEST SWAP1 SWAP3 SWAP2 CALLER DUP4 MSTORE PUSH1 0x20 SWAP2 PUSH1 0x26 DUP4 MSTORE PUSH2 0x6CF PUSH1 0xFF DUP9 DUP7 KECCAK256 SLOAD AND PUSH2 0x352A JUMP JUMPDEST DUP4 JUMPDEST DUP3 MLOAD DUP2 LT ISZERO PUSH2 0x71A JUMPI PUSH2 0x715 SWAP1 PUSH1 0x1 PUSH1 0x1 PUSH1 0xA0 SHL SUB PUSH2 0x6F0 DUP3 DUP7 PUSH2 0x387A JUMP JUMPDEST MLOAD AND DUP7 MSTORE PUSH1 0x6 DUP6 MSTORE PUSH2 0x710 DUP8 DUP11 DUP9 KECCAK256 SWAP1 PUSH1 0xFF DUP1 NOT DUP4 SLOAD AND SWAP2 ISZERO ISZERO AND OR SWAP1 SSTORE JUMP JUMPDEST PUSH2 0x3328 JUMP JUMPDEST PUSH2 0x6D1 JUMP JUMPDEST POP SWAP1 SWAP3 SWAP5 PUSH2 0x72B PUSH1 0x28 SLOAD DUP4 LT PUSH2 0x4A43 JUMP JUMPDEST PUSH2 0x739 PUSH1 0xFF PUSH2 0x358 DUP5 PUSH2 0x3298 JUMP JUMPDEST PUSH2 0x742 DUP3 PUSH2 0x4AED JUMP JUMPDEST PUSH1 0x27 SLOAD GT PUSH2 0x7EC JUMPI PUSH2 0x753 DUP3 PUSH2 0x3298 JUMP JUMPDEST POP SWAP1 PUSH1 0xE PUSH1 0x1 DUP4 ADD SLOAD SUB PUSH2 0x7BB JUMPI POP DUP1 SLOAD PUSH1 0xFF NOT AND PUSH1 0x1 OR SWAP1 SSTORE DUP6 MLOAD SWAP1 DUP2 MSTORE SWAP4 SWAP5 PUSH32 0x69658000C6A55369E18013A2245D930872FAF496D5F06E18B00A14D5746848E2 SWAP5 PUSH2 0x7B5 SWAP3 PUSH1 0x0 DUP1 MLOAD PUSH1 0x20 PUSH2 0x4B7D DUP4 CODECOPY DUP2 MLOAD SWAP2 MSTORE SWAP2 LOG1 MLOAD SWAP3 DUP4 SWAP3 DUP4 PUSH2 0x4A23 JUMP JUMPDEST SUB SWAP1 LOG1 DUP1 RETURN JUMPDEST DUP8 MLOAD PUSH3 0x461BCD PUSH1 0xE5 SHL DUP2 MSTORE SWAP1 DUP2 ADD DUP5 SWAP1 MSTORE PUSH1 0x15 PUSH1 0x24 DUP3 ADD MSTORE PUSH1 0x0 DUP1 MLOAD PUSH1 0x20 PUSH2 0x4BDD DUP4 CODECOPY DUP2 MLOAD SWAP2 MSTORE PUSH1 0x44 DUP3 ADD MSTORE PUSH1 0x64 SWAP1 REVERT JUMPDEST DUP7 MLOAD PUSH3 0x461BCD PUSH1 0xE5 SHL DUP2 MSTORE SWAP1 DUP2 ADD DUP4 SWAP1 MSTORE PUSH1 0x22 PUSH1 0x24 DUP3 ADD MSTORE PUSH1 0x0 DUP1 MLOAD PUSH1 0x20 PUSH2 0x4B9D DUP4 CODECOPY DUP2 MLOAD SWAP2 MSTORE PUSH1 0x44 DUP3 ADD MSTORE PUSH2 0x185B PUSH1 0xF2 SHL PUSH1 0x64 DUP3 ADD MSTORE PUSH1 0x84 SWAP1 REVERT JUMPDEST DUP3 DUP5 CALLVALUE PUSH2 0x46C JUMPI DUP1 PUSH1 0x3 NOT CALLDATASIZE ADD SLT PUSH2 0x46C JUMPI DUP1 PUSH1 0x20 SWAP3 PUSH2 0x846 PUSH2 0x30D6 JUMP JUMPDEST PUSH2 0x84E PUSH2 0x30F1 JUMP JUMPDEST PUSH1 0x1 PUSH1 0x1 PUSH1 0xA0 SHL SUB SWAP2 DUP3 AND DUP4 MSTORE PUSH1 0x2 DUP7 MSTORE DUP4 DUP4 KECCAK256 SWAP2 AND DUP3 MSTORE DUP5 MSTORE KECCAK256 SLOAD SWAP1 MLOAD SWAP1 DUP2 MSTORE RETURN JUMPDEST DUP3 DUP5 CALLVALUE PUSH2 0x46C JUMPI DUP2 PUSH1 0x3 NOT CALLDATASIZE ADD SLT PUSH2 0x46C JUMPI PUSH1 0x20 SWAP1 PUSH1 0xB SLOAD SWAP1 MLOAD SWAP1 DUP2 MSTORE RETURN JUMPDEST DUP3 DUP5 CALLVALUE PUSH2 0x46C JUMPI DUP2 PUSH1 0x3 NOT CALLDATASIZE ADD SLT PUSH2 0x46C JUMPI PUSH1 0x20 SWAP1 PUSH1 0x27 SLOAD SWAP1 MLOAD SWAP1 DUP2 MSTORE RETURN JUMPDEST DUP3 DUP5 CALLVALUE PUSH2 0x46C JUMPI DUP2 PUSH1 0x3 NOT CALLDATASIZE ADD SLT PUSH2 0x46C JUMPI PUSH1 0x18 SLOAD SWAP1 MLOAD PUSH1 0x1 PUSH1 0x1 PUSH1 0xA0 SHL SUB SWAP1 SWAP2 AND DUP2 MSTORE PUSH1 0x20 SWAP1 RETURN JUMPDEST POP CALLVALUE PUSH2 0x46C JUMPI PUSH2 0x8E7 CALLDATASIZE PUSH2 0x313C JUMP JUMPDEST CALLER DUP5 MSTORE PUSH1 0x20 SWAP3 PUSH1 0x26 DUP5 MSTORE PUSH2 0x900 PUSH1 0xFF DUP8 DUP8 KECCAK256 SLOAD AND PUSH2 0x352A JUMP JUMPDEST DUP3 SELFBALANCE LT PUSH2 0x9A3 JUMPI PUSH2 0x911 DUP4 CALLER PUSH2 0x48C3 JUMP JUMPDEST PUSH2 0x91E PUSH1 0x28 SLOAD DUP4 LT PUSH2 0x4A43 JUMP JUMPDEST PUSH2 0x92C PUSH1 0xFF PUSH2 0x358 DUP5 PUSH2 0x3298 JUMP JUMPDEST PUSH2 0x935 DUP3 PUSH2 0x4AED JUMP JUMPDEST PUSH1 0x27 SLOAD GT PUSH2 0x409 JUMPI PUSH2 0x946 DUP3 PUSH2 0x3298 JUMP JUMPDEST POP SWAP1 PUSH1 0x5 PUSH1 0x1 DUP4 ADD SLOAD SUB PUSH2 0x3D8 JUMPI POP DUP4 PUSH32 0xC806A2E979C8F1A76FE7B47E2BCEB111E789DDA4D0DA93D0E5DF7F56F344B1FF SWAP6 SWAP7 SWAP3 PUSH1 0x0 DUP1 MLOAD PUSH1 0x20 PUSH2 0x4B7D DUP4 CODECOPY DUP2 MLOAD SWAP2 MSTORE SWAP3 PUSH1 0x1 PUSH1 0xFF NOT DUP3 SLOAD AND OR SWAP1 SSTORE DUP4 MLOAD SWAP1 DUP2 MSTORE LOG1 MLOAD SWAP1 DUP2 MSTORE LOG1 DUP1 RETURN JUMPDEST DUP6 MLOAD PUSH3 0x461BCD PUSH1 0xE5 SHL DUP2 MSTORE SWAP1 DUP2 ADD DUP5 SWAP1 MSTORE PUSH1 0x18 PUSH1 0x24 DUP3 ADD MSTORE PUSH32 0x696E73756666696369656E7420424E422062616C616E63650000000000000000 PUSH1 0x44 DUP3 ADD MSTORE PUSH1 0x64 SWAP1 REVERT JUMPDEST POP DUP3 SWAP1 CALLVALUE PUSH2 0x105A JUMPI PUSH1 0x20 SWAP1 DUP2 PUSH1 0x3 NOT CALLDATASIZE ADD SLT PUSH2 0x1056 JUMPI PUSH2 0xA04 PUSH2 0x30D6 JUMP JUMPDEST SWAP1 PUSH2 0xA0D PUSH2 0x339A JUMP JUMPDEST SWAP1 DUP2 PUSH2 0x1042 JUMPI JUMPDEST PUSH1 0x1 PUSH1 0x1 PUSH1 0xA0 SHL SUB SWAP3 DUP4 AND SWAP1 DUP2 ISZERO PUSH2 0x1007 JUMPI DUP6 MLOAD PUSH4 0xC45A0155 PUSH1 0xE0 SHL DUP2 MSTORE DUP6 DUP2 DUP4 DUP2 DUP7 GAS STATICCALL SWAP1 DUP2 ISZERO PUSH2 0xFB9 JUMPI DUP9 SWAP2 PUSH2 0xFEA JUMPI JUMPDEST POP DUP7 MLOAD PUSH4 0x15AB88C9 PUSH1 0xE3 SHL DUP2 MSTORE DUP7 DUP2 DUP5 DUP2 DUP8 GAS STATICCALL SWAP1 DUP2 ISZERO PUSH2 0xFE0 JUMPI DUP7 SWAP3 DUP9 SWAP3 PUSH2 0xAA5 SWAP3 DUP13 SWAP2 PUSH2 0xFC3 JUMPI JUMPDEST POP DUP11 MLOAD PUSH4 0x64E329CB PUSH1 0xE1 SHL DUP2 MSTORE ADDRESS DUP8 DUP3 ADD SWAP1 DUP2 MSTORE PUSH1 0x1 PUSH1 0x1 PUSH1 0xA0 SHL SUB SWAP1 SWAP3 AND PUSH1 0x20 DUP4 ADD MSTORE SWAP5 DUP6 SWAP4 DUP5 SWAP3 DUP15 SWAP3 SWAP2 DUP5 SWAP2 PUSH1 0x40 ADD SWAP1 JUMP JUMPDEST SUB SWAP4 AND GAS CALL DUP1 ISZERO PUSH2 0xFB9 JUMPI DUP6 SWAP2 DUP10 SWAP2 PUSH2 0xF8C JUMPI JUMPDEST POP AND SWAP2 PUSH1 0x1 PUSH1 0x1 PUSH1 0x60 SHL SUB PUSH1 0xA0 SHL SWAP5 PUSH1 0xD SWAP2 DUP5 DUP8 DUP5 SLOAD AND OR DUP4 SSTORE DUP7 PUSH1 0xC SLOAD AND OR PUSH1 0xC SSTORE PUSH2 0x101 PUSH2 0xFFFF NOT PUSH1 0x8 SLOAD AND OR PUSH1 0x8 SSTORE PUSH1 0x3 SWAP6 DUP7 PUSH1 0x27 SSTORE CALLER DUP2 PUSH1 0x18 SLOAD AND OR PUSH1 0x18 SSTORE PUSH1 0x3C PUSH1 0xB SSTORE PUSH1 0x1 SWAP7 PUSH1 0xFF NOT SWAP6 DUP9 DUP8 PUSH1 0xA SLOAD AND OR PUSH1 0xA SSTORE PUSH11 0x4B30D2DFBAF72D44800000 PUSH1 0xE SSTORE PUSH11 0x2F19662E3E2F92EE7FFFFF NOT PUSH1 0xF SSTORE PUSH10 0x133FB2E96728BFD00000 PUSH1 0x10 SSTORE PUSH10 0xC07CFD1E07977E200000 DUP1 PUSH1 0x11 SSTORE DUP1 PUSH1 0x12 SSTORE PUSH1 0x13 SSTORE NUMBER PUSH1 0x14 SSTORE DUP12 PUSH1 0x15 SSTORE PUSH2 0xDEAD DUP4 PUSH1 0x16 SLOAD AND OR PUSH1 0x16 SSTORE PUSH20 0x1C7F0C770E45030DA303728969821F800DD55476 PUSH1 0x17 SWAP4 DUP5 SLOAD AND OR DUP4 SSTORE DUP12 DUP12 DUP1 MLOAD PUSH2 0xB94 DUP2 PUSH2 0x3170 JUMP JUMPDEST DUP3 DUP2 MSTORE DUP3 DUP14 DUP3 ADD MSTORE ADD MSTORE DUP12 PUSH1 0x19 SSTORE DUP12 PUSH1 0x1A SSTORE DUP12 PUSH1 0x1B SSTORE DUP12 DUP12 DUP1 MLOAD PUSH2 0xBB7 DUP2 PUSH2 0x3170 JUMP JUMPDEST DUP3 DUP2 MSTORE DUP3 DUP14 DUP3 ADD MSTORE ADD MSTORE DUP12 PUSH1 0x1C SSTORE DUP12 PUSH1 0x1D SSTORE DUP12 PUSH1 0x1E SSTORE PUSH1 0x2 DUP12 DUP1 MLOAD PUSH2 0xBDB DUP2 PUSH2 0x3170 JUMP JUMPDEST DUP3 DUP2 MSTORE DUP12 DUP14 DUP3 ADD MSTORE ADD MSTORE PUSH1 0x2 PUSH1 0x1F SSTORE DUP9 DUP11 SSTORE PUSH1 0x2 PUSH1 0x21 SSTORE DUP12 MSTORE DUP1 DUP10 MSTORE DUP10 DUP12 KECCAK256 DUP9 DUP8 DUP3 SLOAD AND OR SWAP1 SSTORE DUP3 PUSH1 0x16 SLOAD AND DUP12 MSTORE DUP10 DUP12 KECCAK256 DUP9 DUP8 DUP3 SLOAD AND OR SWAP1 SSTORE DUP10 MLOAD SWAP5 PUSH1 0xA0 DUP7 ADD DUP7 DUP2 LT PUSH8 0xFFFFFFFFFFFFFFFF DUP3 GT OR PUSH2 0xF79 JUMPI DUP12 MSTORE PUSH20 0x686AC14ACC91145A42DEA24DED14335472AA7B9C DUP7 MSTORE PUSH20 0x370C9120BC57C0F9C4FEDA2074410292732A35C6 DUP11 DUP8 ADD MSTORE PUSH20 0x1A963858DEEF16CF6B3FD7DC9750A43ABFD2938C DUP12 DUP8 ADD MSTORE PUSH20 0x285E3E816302B81C5F21FC632E166E323C575A85 PUSH1 0x60 DUP8 ADD MSTORE PUSH20 0x4E18C6F0070BE7AA44786A2678E1DE05ECC62316 PUSH1 0x80 DUP8 ADD MSTORE PUSH1 0x25 DUP13 DUP2 DUP1 SLOAD SWAP9 PUSH1 0x5 SWAP10 DUP11 DUP4 SSTORE DUP1 DUP12 LT PUSH2 0xF22 JUMPI JUMPDEST POP DUP13 SWAP2 POP SWAP2 DUP4 DUP2 MSTORE JUMPDEST DUP10 DUP2 LT PUSH2 0xF00 JUMPI POP DUP15 SWAP2 POP JUMPDEST PUSH2 0xE0D JUMPI JUMPDEST POP POP POP PUSH1 0xF SLOAD CALLER DUP13 MSTORE DUP12 DUP11 MSTORE DUP11 DUP13 KECCAK256 SSTORE ADDRESS DUP12 MSTORE DUP9 MSTORE DUP9 DUP11 KECCAK256 DUP8 DUP7 DUP3 SLOAD AND OR SWAP1 SSTORE DUP2 DUP2 SLOAD AND DUP11 MSTORE DUP9 DUP11 KECCAK256 DUP8 DUP7 DUP3 SLOAD AND OR SWAP1 SSTORE DUP2 PUSH1 0x16 SLOAD AND DUP11 MSTORE DUP9 DUP11 KECCAK256 DUP8 DUP7 DUP3 SLOAD AND OR SWAP1 SSTORE DUP2 PUSH20 0xD152F549545093347A162DCE210E7293F1452150 SWAP4 DUP5 DUP13 MSTORE DUP11 DUP13 KECCAK256 DUP10 DUP9 DUP3 SLOAD AND OR SWAP1 SSTORE PUSH20 0x7EE058420E5937496F5A2096F04CAA7721CF70CC SWAP6 DUP7 DUP14 MSTORE DUP12 DUP14 KECCAK256 DUP11 DUP10 DUP3 SLOAD AND OR SWAP1 SSTORE ADDRESS DUP14 MSTORE DUP11 MSTORE DUP11 DUP13 KECCAK256 DUP10 DUP9 DUP3 SLOAD AND OR SWAP1 SSTORE SLOAD AND DUP11 MSTORE DUP9 DUP11 KECCAK256 DUP8 DUP7 DUP3 SLOAD AND OR SWAP1 SSTORE SLOAD AND DUP9 MSTORE DUP7 DUP9 KECCAK256 DUP6 DUP5 DUP3 SLOAD AND OR SWAP1 SSTORE DUP8 MSTORE DUP6 DUP8 KECCAK256 DUP5 DUP4 DUP3 SLOAD AND OR SWAP1 SSTORE DUP7 MSTORE DUP3 DUP6 DUP8 KECCAK256 SWAP2 DUP3 SLOAD AND OR SWAP1 SSTORE PUSH1 0xE SLOAD DUP5 MLOAD SWAP1 DUP2 MSTORE DUP6 PUSH1 0x0 DUP1 MLOAD PUSH1 0x20 PUSH2 0x4BBD DUP4 CODECOPY DUP2 MLOAD SWAP2 MSTORE DUP6 CALLER SWAP4 LOG3 PUSH2 0xDD4 JUMPI DUP4 DUP1 RETURN JUMPDEST PUSH32 0x7F26B83FF96E1F2B6A682F133852F6798A09C465DA95921460CEFB3847402498 SWAP3 PUSH2 0xFF00 NOT PUSH1 0x2A SLOAD AND PUSH1 0x2A SSTORE MLOAD SWAP1 DUP2 MSTORE LOG1 DUP2 DUP1 DUP1 DUP4 DUP1 RETURN JUMPDEST DUP2 SLOAD DUP2 LT ISZERO PUSH2 0xEFB JUMPI DUP6 PUSH2 0xE20 DUP3 PUSH2 0x3068 JUMP JUMPDEST SWAP1 SLOAD SWAP1 DUP7 SHL SHR AND DUP1 ISZERO PUSH2 0xEC8 JUMPI DUP1 DUP16 DUP16 DUP16 SWAP4 SWAP2 PUSH1 0xFF SWAP3 DUP2 MSTORE PUSH1 0x26 DUP1 SWAP6 MSTORE KECCAK256 SLOAD AND PUSH2 0xE84 JUMPI DUP16 MSTORE DUP13 MSTORE DUP13 DUP15 KECCAK256 DUP1 SLOAD DUP11 AND DUP13 OR SWAP1 SSTORE DUP4 DUP13 MSTORE DUP13 DUP15 KECCAK256 DUP1 SLOAD DUP11 AND DUP13 OR SWAP1 SSTORE DUP8 DUP13 MSTORE DUP13 DUP15 KECCAK256 DUP1 SLOAD DUP11 AND DUP13 OR SWAP1 SSTORE DUP11 SWAP3 SWAP2 SWAP1 PUSH2 0xE7C SWAP1 PUSH2 0x3328 JUMP JUMPDEST SWAP1 SWAP2 SWAP3 PUSH2 0xCD7 JUMP JUMPDEST POP DUP14 MLOAD PUSH3 0x461BCD PUSH1 0xE5 SHL DUP2 MSTORE DUP1 DUP6 ADD DUP15 SWAP1 MSTORE PUSH1 0x24 DUP2 ADD DUP8 SWAP1 MSTORE PUSH32 0x6F776E657220697320616C726561647920746865726521000000000000000000 PUSH1 0x44 DUP3 ADD MSTORE PUSH1 0x64 SWAP1 REVERT JUMPDEST DUP14 MLOAD PUSH3 0x461BCD PUSH1 0xE5 SHL DUP2 MSTORE DUP1 DUP6 ADD DUP15 SWAP1 MSTORE PUSH1 0x24 DUP2 ADD DUP10 SWAP1 MSTORE PUSH13 0x34B73B30B634B21037BBB732B9 PUSH1 0x99 SHL PUSH1 0x44 DUP3 ADD MSTORE PUSH1 0x64 SWAP1 REVERT JUMPDEST PUSH2 0xCDC JUMP JUMPDEST DUP14 DUP9 DUP5 MLOAD AND SWAP4 ADD SWAP3 DUP2 PUSH1 0x0 DUP1 MLOAD PUSH1 0x20 PUSH2 0x4B5D DUP4 CODECOPY DUP2 MLOAD SWAP2 MSTORE ADD SSTORE ADD DUP12 SWAP1 PUSH2 0xCCB JUMP JUMPDEST PUSH1 0x0 DUP1 MLOAD PUSH1 0x20 PUSH2 0x4B5D DUP4 CODECOPY DUP2 MLOAD SWAP2 MSTORE ADD DUP14 PUSH32 0x401968FF42A154441DA5F6C4C935AC46B8671F0E062BAAA62A7545BA53BB6E51 JUMPDEST DUP3 DUP2 LT PUSH2 0xF63 JUMPI POP POP PUSH2 0xCC2 JUMP JUMPDEST DUP1 SWAP3 SWAP5 POP SWAP5 SWAP1 SWAP3 SWAP5 SSTORE ADD SWAP2 DUP16 SWAP3 SWAP2 DUP14 DUP6 SWAP4 PUSH2 0xF55 JUMP JUMPDEST PUSH4 0x4E487B71 PUSH1 0xE0 SHL DUP14 MSTORE PUSH1 0x41 DUP3 MSTORE PUSH1 0x24 DUP14 REVERT JUMPDEST PUSH2 0xFAC SWAP2 POP DUP8 RETURNDATASIZE DUP10 GT PUSH2 0xFB2 JUMPI JUMPDEST PUSH2 0xFA4 DUP2 DUP4 PUSH2 0x31D2 JUMP JUMPDEST DUP2 ADD SWAP1 PUSH2 0x32D3 JUMP JUMPDEST DUP10 PUSH2 0xAB9 JUMP JUMPDEST POP RETURNDATASIZE PUSH2 0xF9A JUMP JUMPDEST DUP8 MLOAD RETURNDATASIZE DUP11 DUP3 RETURNDATACOPY RETURNDATASIZE SWAP1 REVERT JUMPDEST PUSH2 0xFDA SWAP2 POP DUP5 RETURNDATASIZE DUP7 GT PUSH2 0xFB2 JUMPI PUSH2 0xFA4 DUP2 DUP4 PUSH2 0x31D2 JUMP JUMPDEST DUP13 PUSH2 0xA71 JUMP JUMPDEST DUP9 MLOAD RETURNDATASIZE DUP12 DUP3 RETURNDATACOPY RETURNDATASIZE SWAP1 REVERT JUMPDEST PUSH2 0x1001 SWAP2 POP DUP7 RETURNDATASIZE DUP9 GT PUSH2 0xFB2 JUMPI PUSH2 0xFA4 DUP2 DUP4 PUSH2 0x31D2 JUMP JUMPDEST DUP9 PUSH2 0xA47 JUMP JUMPDEST DUP6 MLOAD PUSH3 0x461BCD PUSH1 0xE5 SHL DUP2 MSTORE SWAP1 DUP2 ADD DUP6 SWAP1 MSTORE PUSH1 0x15 PUSH1 0x24 DUP3 ADD MSTORE PUSH21 0x2937BABA32B91030B2323932B9B99032B6B83A3C97 PUSH1 0x59 SHL PUSH1 0x44 DUP3 ADD MSTORE PUSH1 0x64 SWAP1 REVERT JUMPDEST PUSH2 0x100 PUSH2 0xFF00 NOT PUSH1 0x2A SLOAD AND OR PUSH1 0x2A SSTORE PUSH2 0xA14 JUMP JUMPDEST DUP4 DUP1 REVERT JUMPDEST DUP3 DUP1 REVERT JUMPDEST DUP3 DUP5 CALLVALUE PUSH2 0x46C JUMPI DUP1 PUSH1 0x3 NOT CALLDATASIZE ADD SLT PUSH2 0x46C JUMPI PUSH1 0x20 SWAP1 PUSH2 0x1088 PUSH2 0x107E PUSH2 0x30D6 JUMP JUMPDEST PUSH1 0x24 CALLDATALOAD SWAP1 CALLER PUSH2 0x3B38 JUMP JUMPDEST MLOAD PUSH1 0x1 DUP2 MSTORE RETURN JUMPDEST DUP3 DUP5 CALLVALUE PUSH2 0x46C JUMPI DUP2 PUSH1 0x3 NOT CALLDATASIZE ADD SLT PUSH2 0x46C JUMPI PUSH1 0xD SLOAD SWAP1 MLOAD PUSH1 0x1 PUSH1 0x1 PUSH1 0xA0 SHL SUB SWAP1 SWAP2 AND DUP2 MSTORE PUSH1 0x20 SWAP1 RETURN JUMPDEST POP SWAP1 CALLVALUE PUSH2 0x4D0 JUMPI DUP3 PUSH1 0x3 NOT CALLDATASIZE ADD SLT PUSH2 0x4D0 JUMPI PUSH2 0x10D2 PUSH2 0x30D6 JUMP JUMPDEST SWAP2 DUP4 PUSH1 0x24 CALLDATALOAD SWAP3 CALLER DUP2 MSTORE PUSH1 0x2 PUSH1 0x20 MSTORE DUP2 DUP2 KECCAK256 PUSH1 0x1 DUP1 PUSH1 0xA0 SHL SUB DUP7 AND DUP3 MSTORE PUSH1 0x20 MSTORE KECCAK256 SLOAD SWAP1 DUP3 DUP3 LT PUSH2 0x110B JUMPI PUSH1 0x20 DUP6 PUSH2 0x1088 DUP6 DUP6 SUB DUP8 CALLER PUSH2 0x39EB JUMP JUMPDEST PUSH1 0x84 SWAP1 PUSH1 0x20 DUP7 MLOAD SWAP2 PUSH3 0x461BCD PUSH1 0xE5 SHL DUP4 MSTORE DUP3 ADD MSTORE PUSH1 0x25 PUSH1 0x24 DUP3 ADD MSTORE PUSH32 0x45524332303A2064656372656173656420616C6C6F77616E63652062656C6F77 PUSH1 0x44 DUP3 ADD MSTORE PUSH5 0x207A65726F PUSH1 0xD8 SHL PUSH1 0x64 DUP3 ADD MSTORE REVERT JUMPDEST POP DUP3 CALLVALUE PUSH2 0x105A JUMPI PUSH2 0x116C CALLDATASIZE PUSH2 0x313C JUMP JUMPDEST SWAP1 SWAP3 CALLER DUP6 MSTORE PUSH1 0x26 PUSH1 0x20 MSTORE PUSH2 0x1185 PUSH1 0xFF DUP5 DUP8 KECCAK256 SLOAD AND PUSH2 0x352A JUMP JUMPDEST PUSH8 0xDE0B6B3A7640000 DUP1 DUP6 MUL SWAP1 DUP6 DUP3 DIV EQ DUP6 ISZERO OR ISZERO PUSH2 0x67D JUMPI PUSH1 0x13 SSTORE PUSH2 0x11AE PUSH1 0x28 SLOAD DUP4 LT PUSH2 0x4A43 JUMP JUMPDEST PUSH2 0x11BC PUSH1 0xFF PUSH2 0x358 DUP5 PUSH2 0x3298 JUMP JUMPDEST PUSH2 0x11C5 DUP3 PUSH2 0x4AED JUMP JUMPDEST PUSH1 0x27 SLOAD GT PUSH2 0x1266 JUMPI PUSH2 0x11D6 DUP3 PUSH2 0x3298 JUMP JUMPDEST POP SWAP1 PUSH1 0xB PUSH1 0x1 DUP4 ADD SLOAD SUB PUSH2 0x1235 JUMPI POP SWAP2 PUSH1 0x0 DUP1 MLOAD PUSH1 0x20 PUSH2 0x4B7D DUP4 CODECOPY DUP2 MLOAD SWAP2 MSTORE PUSH1 0x20 PUSH32 0x575BEB4F9D024A957FEA2F529F8545A4962564551D15F927269D203B31F349B4 SWAP6 SWAP4 DUP2 SWAP6 PUSH1 0x1 PUSH1 0xFF NOT DUP3 SLOAD AND OR SWAP1 SSTORE DUP4 MLOAD SWAP1 DUP2 MSTORE LOG1 MLOAD SWAP1 DUP2 MSTORE LOG1 DUP1 RETURN JUMPDEST PUSH1 0x64 SWAP1 PUSH1 0x20 DUP6 MLOAD SWAP2 PUSH3 0x461BCD PUSH1 0xE5 SHL DUP4 MSTORE DUP3 ADD MSTORE PUSH1 0x15 PUSH1 0x24 DUP3 ADD MSTORE PUSH1 0x0 DUP1 MLOAD PUSH1 0x20 PUSH2 0x4BDD DUP4 CODECOPY DUP2 MLOAD SWAP2 MSTORE PUSH1 0x44 DUP3 ADD MSTORE REVERT JUMPDEST PUSH1 0x84 SWAP1 PUSH1 0x20 DUP5 MLOAD SWAP2 PUSH3 0x461BCD PUSH1 0xE5 SHL DUP4 MSTORE DUP3 ADD MSTORE PUSH1 0x22 PUSH1 0x24 DUP3 ADD MSTORE PUSH1 0x0 DUP1 MLOAD PUSH1 0x20 PUSH2 0x4B9D DUP4 CODECOPY DUP2 MLOAD SWAP2 MSTORE PUSH1 0x44 DUP3 ADD MSTORE PUSH2 0x185B PUSH1 0xF2 SHL PUSH1 0x64 DUP3 ADD MSTORE REVERT JUMPDEST POP POP CALLVALUE PUSH2 0x4D0 JUMPI DUP1 PUSH1 0x3 NOT CALLDATASIZE ADD SLT PUSH2 0x4D0 JUMPI POP PUSH1 0x22 SLOAD PUSH1 0x23 SLOAD PUSH1 0x24 SLOAD SWAP3 MLOAD SWAP2 DUP3 MSTORE PUSH1 0x20 DUP3 ADD MSTORE PUSH1 0x40 DUP2 ADD SWAP2 SWAP1 SWAP2 MSTORE PUSH1 0x60 SWAP1 RETURN JUMPDEST POP DUP3 SWAP1 CALLVALUE PUSH2 0x105A JUMPI PUSH1 0x20 CALLDATASIZE PUSH1 0x3 NOT ADD SLT PUSH2 0x105A JUMPI CALLDATALOAD PUSH1 0x28 SLOAD DUP2 LT ISZERO PUSH2 0x105A JUMPI PUSH1 0x3 SWAP1 PUSH1 0x28 PUSH1 0x60 SWAP5 MSTORE MUL PUSH1 0xFF DUP2 PUSH32 0xE16DA923A2D88192E5070F37B4571D58682C0D66212EC634D495F33DE3F77AB5 ADD SLOAD AND SWAP2 PUSH32 0xE16DA923A2D88192E5070F37B4571D58682C0D66212EC634D495F33DE3F77AB6 DUP3 ADD SLOAD SWAP2 PUSH32 0xE16DA923A2D88192E5070F37B4571D58682C0D66212EC634D495F33DE3F77AB7 PUSH1 0x1 DUP1 PUSH1 0xA0 SHL SUB SWAP2 ADD SLOAD AND SWAP2 DUP2 MLOAD SWAP4 ISZERO ISZERO DUP5 MSTORE PUSH1 0x20 DUP5 ADD MSTORE DUP3 ADD MSTORE RETURN JUMPDEST POP SWAP2 CALLVALUE PUSH2 0x46C JUMPI PUSH1 0x60 CALLDATASIZE PUSH1 0x3 NOT ADD SLT PUSH2 0x46C JUMPI PUSH2 0x13A4 PUSH2 0x3161 JUMP JUMPDEST SWAP3 PUSH1 0x24 CALLDATALOAD PUSH1 0x44 CALLDATALOAD SWAP5 CALLER DUP6 MSTORE PUSH1 0x26 PUSH1 0x20 MSTORE PUSH2 0x13C3 PUSH1 0xFF DUP6 DUP8 KECCAK256 SLOAD AND PUSH2 0x352A JUMP JUMPDEST DUP2 DUP1 DIV PUSH1 0x1 EQ DUP3 ISZERO OR ISZERO PUSH2 0x14EB JUMPI DUP2 PUSH1 0xB SSTORE ISZERO ISZERO SWAP2 PUSH1 0xFF NOT DUP1 PUSH1 0xA SLOAD AND PUSH1 0xFF DUP6 AND OR PUSH1 0xA SSTORE PUSH2 0x13F5 PUSH1 0x28 SLOAD DUP9 LT PUSH2 0x4A43 JUMP JUMPDEST PUSH2 0x1403 PUSH1 0xFF PUSH2 0x358 DUP10 PUSH2 0x3298 JUMP JUMPDEST PUSH2 0x140C DUP8 PUSH2 0x4AED JUMP JUMPDEST PUSH1 0x27 SLOAD GT PUSH2 0x14AF JUMPI PUSH2 0x141D DUP8 PUSH2 0x3298 JUMP JUMPDEST POP SWAP2 PUSH1 0x7 PUSH1 0x1 DUP5 ADD SLOAD SUB PUSH2 0x147E JUMPI POP PUSH32 0xFA4011CDF98F199F8DFB40850066DF236CE0C61EC9CA8CF7DF069471144FB92D SWAP6 SWAP7 DUP3 PUSH1 0x1 PUSH1 0x20 SWAP4 PUSH1 0x0 DUP1 MLOAD PUSH1 0x20 PUSH2 0x4B7D DUP4 CODECOPY DUP2 MLOAD SWAP2 MSTORE SWAP6 SLOAD AND OR SWAP1 SSTORE DUP6 MLOAD SWAP1 DUP2 MSTORE LOG1 DUP3 MLOAD SWAP2 DUP3 MSTORE PUSH1 0x20 DUP3 ADD MSTORE LOG1 DUP1 RETURN JUMPDEST PUSH1 0x64 SWAP1 PUSH1 0x20 DUP8 MLOAD SWAP2 PUSH3 0x461BCD PUSH1 0xE5 SHL DUP4 MSTORE DUP3 ADD MSTORE PUSH1 0x15 PUSH1 0x24 DUP3 ADD MSTORE PUSH1 0x0 DUP1 MLOAD PUSH1 0x20 PUSH2 0x4BDD DUP4 CODECOPY DUP2 MLOAD SWAP2 MSTORE PUSH1 0x44 DUP3 ADD MSTORE REVERT JUMPDEST DUP5 MLOAD PUSH3 0x461BCD PUSH1 0xE5 SHL DUP2 MSTORE PUSH1 0x20 DUP2 DUP5 ADD MSTORE PUSH1 0x22 PUSH1 0x24 DUP3 ADD MSTORE PUSH1 0x0 DUP1 MLOAD PUSH1 0x20 PUSH2 0x4B9D DUP4 CODECOPY DUP2 MLOAD SWAP2 MSTORE PUSH1 0x44 DUP3 ADD MSTORE PUSH2 0x185B PUSH1 0xF2 SHL PUSH1 0x64 DUP3 ADD MSTORE PUSH1 0x84 SWAP1 REVERT JUMPDEST PUSH4 0x4E487B71 PUSH1 0xE0 SHL DUP6 MSTORE PUSH1 0x11 DUP4 MSTORE PUSH1 0x24 DUP6 REVERT JUMPDEST POP SWAP2 CALLVALUE PUSH2 0x46C JUMPI PUSH1 0x20 SWAP1 DUP2 PUSH1 0x3 NOT CALLDATASIZE ADD SLT PUSH2 0x105A JUMPI DUP4 CALLDATALOAD SWAP4 CALLER DUP5 MSTORE PUSH1 0x26 DUP4 MSTORE PUSH2 0x152C PUSH1 0xFF DUP4 DUP7 KECCAK256 SLOAD AND PUSH2 0x352A JUMP JUMPDEST PUSH1 0x2 PUSH2 0x1537 DUP7 PUSH2 0x3298 JUMP JUMPDEST POP ADD DUP1 SLOAD PUSH1 0x1 PUSH1 0x1 PUSH1 0xA0 SHL SUB SWAP1 DUP2 AND DUP1 DUP8 MSTORE DUP4 DUP7 MSTORE DUP5 DUP8 KECCAK256 SLOAD SWAP2 SWAP4 SWAP2 PUSH1 0xFF AND PUSH2 0x16FD JUMPI DUP1 DUP8 MSTORE DUP7 DUP7 MSTORE DUP5 DUP8 KECCAK256 SLOAD PUSH2 0x16E0 JUMPI JUMPDEST POP DUP3 DUP3 SLOAD AND DUP7 MSTORE DUP1 DUP6 MSTORE DUP4 DUP7 KECCAK256 PUSH1 0xFF NOT SWAP1 PUSH1 0x1 DUP3 DUP3 SLOAD AND OR SWAP1 SSTORE DUP4 DUP4 SLOAD AND PUSH1 0x7 SLOAD PUSH1 0x1 PUSH1 0x40 SHL DUP2 LT ISZERO PUSH2 0x16CD JUMPI SWAP1 PUSH2 0x15AA DUP3 PUSH1 0x1 PUSH2 0x15CE SWAP5 ADD PUSH1 0x7 SSTORE PUSH2 0x301B JUMP JUMPDEST SWAP1 SWAP2 SWAP1 DUP3 SLOAD SWAP1 PUSH1 0x3 SHL SWAP2 PUSH1 0x1 DUP1 PUSH1 0xA0 SHL SUB SWAP3 DUP4 DUP2 SHL SWAP4 DUP5 SWAP3 AND SWAP1 SHL AND SWAP2 NOT AND OR SWAP1 SSTORE JUMP JUMPDEST PUSH2 0x15DB PUSH1 0x28 SLOAD DUP10 LT PUSH2 0x4A43 JUMP JUMPDEST PUSH2 0x15E9 PUSH1 0xFF PUSH2 0x358 DUP11 PUSH2 0x3298 JUMP JUMPDEST PUSH2 0x15F2 DUP9 PUSH2 0x4AED JUMP JUMPDEST PUSH1 0x27 SLOAD GT PUSH2 0x1691 JUMPI PUSH2 0x1603 DUP9 PUSH2 0x3298 JUMP JUMPDEST POP SWAP2 PUSH1 0x2 PUSH1 0x1 DUP5 ADD SLOAD SUB PUSH2 0x1660 JUMPI POP PUSH32 0x8CD08FF476550DEC3DE6EA6137B3EACA4AB9AE21761EA26EB09CB6305FD424A8 SWAP7 SWAP8 DUP3 PUSH1 0x1 DUP9 SWAP4 PUSH1 0x0 DUP1 MLOAD PUSH1 0x20 PUSH2 0x4B7D DUP4 CODECOPY DUP2 MLOAD SWAP2 MSTORE SWAP6 SLOAD AND OR SWAP1 SSTORE DUP6 MLOAD SWAP1 DUP2 MSTORE LOG1 SLOAD AND SWAP1 MLOAD SWAP1 DUP2 MSTORE LOG1 DUP1 RETURN JUMPDEST DUP6 MLOAD PUSH3 0x461BCD PUSH1 0xE5 SHL DUP2 MSTORE SWAP1 DUP2 ADD DUP8 SWAP1 MSTORE PUSH1 0x15 PUSH1 0x24 DUP3 ADD MSTORE PUSH1 0x0 DUP1 MLOAD PUSH1 0x20 PUSH2 0x4BDD DUP4 CODECOPY DUP2 MLOAD SWAP2 MSTORE PUSH1 0x44 DUP3 ADD MSTORE PUSH1 0x64 SWAP1 REVERT JUMPDEST DUP5 MLOAD PUSH3 0x461BCD PUSH1 0xE5 SHL DUP2 MSTORE DUP1 DUP4 ADD DUP8 SWAP1 MSTORE PUSH1 0x22 PUSH1 0x24 DUP3 ADD MSTORE PUSH1 0x0 DUP1 MLOAD PUSH1 0x20 PUSH2 0x4B9D DUP4 CODECOPY DUP2 MLOAD SWAP2 MSTORE PUSH1 0x44 DUP3 ADD MSTORE PUSH2 0x185B PUSH1 0xF2 SHL PUSH1 0x64 DUP3 ADD MSTORE PUSH1 0x84 SWAP1 REVERT JUMPDEST PUSH4 0x4E487B71 PUSH1 0xE0 SHL DUP10 MSTORE PUSH1 0x41 DUP5 MSTORE PUSH1 0x24 DUP10 REVERT JUMPDEST PUSH2 0x16EC DUP6 DUP9 KECCAK256 SLOAD PUSH2 0x34BA JUMP JUMPDEST SWAP1 DUP8 MSTORE PUSH1 0x1 DUP7 MSTORE DUP5 DUP8 KECCAK256 SSTORE CODESIZE PUSH2 0x1569 JUMP JUMPDEST DUP5 MLOAD PUSH3 0x461BCD PUSH1 0xE5 SHL DUP2 MSTORE DUP1 DUP4 ADD DUP8 SWAP1 MSTORE PUSH1 0x1B PUSH1 0x24 DUP3 ADD MSTORE PUSH32 0x4163636F756E7420697320616C7265616479206578636C756465640000000000 PUSH1 0x44 DUP3 ADD MSTORE PUSH1 0x64 SWAP1 REVERT JUMPDEST DUP3 DUP5 CALLVALUE PUSH2 0x46C JUMPI DUP2 PUSH1 0x3 NOT CALLDATASIZE ADD SLT PUSH2 0x46C JUMPI DUP1 MLOAD PUSH2 0x4CC SWAP2 PUSH2 0x1761 DUP3 PUSH2 0x31B6 JUMP JUMPDEST PUSH1 0x3 DUP3 MSTORE PUSH3 0x1354D5 PUSH1 0xEA SHL PUSH1 0x20 DUP4 ADD MSTORE MLOAD SWAP2 DUP3 SWAP2 DUP3 PUSH2 0x308D JUMP JUMPDEST POP DUP3 SWAP1 CALLVALUE PUSH2 0x105A JUMPI PUSH1 0x20 CALLDATASIZE PUSH1 0x3 NOT ADD SLT PUSH2 0x105A JUMPI PUSH1 0x20 SWAP3 PUSH1 0xFF SWAP2 DUP4 SWAP2 SWAP1 PUSH1 0x1 PUSH1 0x1 PUSH1 0xA0 SHL SUB PUSH2 0x17A8 PUSH2 0x30D6 JUMP JUMPDEST AND DUP3 MSTORE DUP6 MSTORE KECCAK256 SLOAD AND SWAP1 MLOAD SWAP1 ISZERO ISZERO DUP2 MSTORE RETURN JUMPDEST DUP3 DUP5 CALLVALUE PUSH2 0x46C JUMPI DUP2 PUSH1 0x3 NOT CALLDATASIZE ADD SLT PUSH2 0x46C JUMPI PUSH1 0x16 SLOAD SWAP1 MLOAD PUSH1 0x1 PUSH1 0x1 PUSH1 0xA0 SHL SUB SWAP1 SWAP2 AND DUP2 MSTORE PUSH1 0x20 SWAP1 RETURN JUMPDEST DUP3 DUP5 CALLVALUE PUSH2 0x46C JUMPI DUP2 PUSH1 0x3 NOT CALLDATASIZE ADD SLT PUSH2 0x46C JUMPI PUSH1 0x20 SWAP1 PUSH2 0x17FF PUSH2 0x4A85 JUMP JUMPDEST SWAP1 MLOAD SWAP1 DUP2 MSTORE RETURN JUMPDEST POP DUP3 SWAP1 CALLVALUE PUSH2 0x105A JUMPI DUP2 PUSH1 0x3 NOT CALLDATASIZE ADD SLT PUSH2 0x105A JUMPI DUP2 PUSH1 0x20 SWAP4 PUSH1 0xFF SWAP3 PUSH2 0x1828 PUSH2 0x30F1 JUMP JUMPDEST SWAP1 CALLDATALOAD DUP3 MSTORE PUSH1 0x29 DUP7 MSTORE DUP3 DUP3 KECCAK256 PUSH1 0x1 PUSH1 0x1 PUSH1 0xA0 SHL SUB SWAP1 SWAP2 AND DUP3 MSTORE DUP6 MSTORE KECCAK256 SLOAD SWAP2 MLOAD SWAP2 AND ISZERO ISZERO DUP2 MSTORE RETURN JUMPDEST POP DUP3 SWAP1 CALLVALUE PUSH2 0x105A JUMPI DUP2 PUSH1 0x3 NOT CALLDATASIZE ADD SLT PUSH2 0x105A JUMPI PUSH2 0x1869 PUSH2 0x30D6 JUMP JUMPDEST SWAP1 PUSH2 0x1899 PUSH1 0x24 CALLDATALOAD PUSH2 0x187D PUSH1 0x28 SLOAD DUP3 LT PUSH2 0x4A43 JUMP JUMPDEST CALLER DUP7 MSTORE PUSH1 0x26 PUSH1 0x20 MSTORE PUSH2 0x1894 PUSH1 0xFF DUP7 DUP9 KECCAK256 SLOAD AND PUSH2 0x352A JUMP JUMPDEST PUSH2 0x3298 JUMP JUMPDEST POP PUSH1 0x1 PUSH1 0x1 PUSH1 0xA0 SHL SUB SWAP1 SWAP3 AND SWAP3 DUP4 ISZERO PUSH2 0x18C5 JUMPI POP POP PUSH1 0x2 ADD DUP1 SLOAD PUSH1 0x1 PUSH1 0x1 PUSH1 0xA0 SHL SUB NOT AND SWAP1 SWAP2 OR SWAP1 SSTORE DUP1 RETURN JUMPDEST SWAP1 PUSH1 0x20 PUSH1 0x64 SWAP3 MLOAD SWAP2 PUSH3 0x461BCD PUSH1 0xE5 SHL DUP4 MSTORE DUP3 ADD MSTORE PUSH1 0x1C PUSH1 0x24 DUP3 ADD MSTORE PUSH32 0x4461746120616464726573732063616E206E6F74206265207A65726F00000000 PUSH1 0x44 DUP3 ADD MSTORE REVERT JUMPDEST DUP3 DUP5 CALLVALUE PUSH2 0x46C JUMPI DUP2 PUSH1 0x3 NOT CALLDATASIZE ADD SLT PUSH2 0x46C JUMPI PUSH1 0x17 SLOAD SWAP1 MLOAD PUSH1 0x1 PUSH1 0x1 PUSH1 0xA0 SHL SUB SWAP1 SWAP2 AND DUP2 MSTORE PUSH1 0x20 SWAP1 RETURN JUMPDEST POP POP CALLVALUE PUSH2 0x4D0 JUMPI DUP1 PUSH1 0x3 NOT CALLDATASIZE ADD SLT PUSH2 0x4D0 JUMPI POP PUSH1 0x1C SLOAD PUSH1 0x1D SLOAD PUSH1 0x1E SLOAD SWAP3 MLOAD SWAP2 DUP3 MSTORE PUSH1 0x20 DUP3 ADD MSTORE PUSH1 0x40 DUP2 ADD SWAP2 SWAP1 SWAP2 MSTORE PUSH1 0x60 SWAP1 RETURN JUMPDEST POP SWAP2 SWAP1 CALLVALUE PUSH2 0x4D0 JUMPI PUSH1 0x20 CALLDATASIZE PUSH1 0x3 NOT ADD SLT PUSH2 0x4D0 JUMPI POP PUSH2 0x17FF PUSH1 0x20 SWAP3 CALLDATALOAD PUSH2 0x4AED JUMP JUMPDEST DUP3 DUP5 CALLVALUE PUSH2 0x46C JUMPI PUSH1 0x20 CALLDATASIZE PUSH1 0x3 NOT ADD SLT PUSH2 0x46C JUMPI PUSH1 0x20 SWAP1 PUSH2 0x17FF PUSH2 0x19A6 PUSH2 0x30D6 JUMP JUMPDEST PUSH2 0x33DA JUMP JUMPDEST DUP3 DUP5 CALLVALUE PUSH2 0x46C JUMPI DUP2 PUSH1 0x3 NOT CALLDATASIZE ADD SLT PUSH2 0x46C JUMPI PUSH1 0x20 SWAP1 PUSH1 0xFF PUSH1 0x8 SLOAD PUSH1 0x8 SHR AND SWAP1 MLOAD SWAP1 ISZERO ISZERO DUP2 MSTORE RETURN JUMPDEST POP CALLVALUE PUSH2 0x46C JUMPI DUP3 PUSH1 0x3 NOT CALLDATASIZE ADD SLT PUSH2 0x46C JUMPI DUP1 CALLDATALOAD PUSH2 0x19ED PUSH2 0x3152 JUMP JUMPDEST SWAP1 CALLER DUP5 MSTORE PUSH1 0x20 SWAP3 PUSH1 0x26 DUP5 MSTORE PUSH2 0x1A07 PUSH1 0xFF DUP8 DUP8 KECCAK256 SLOAD AND PUSH2 0x352A JUMP JUMPDEST PUSH2 0x1A10 DUP3 PUSH2 0x3298 JUMP JUMPDEST POP PUSH1 0x2 ADD SLOAD PUSH1 0x1 PUSH1 0x1 PUSH1 0xA0 SHL SUB AND DUP6 MSTORE PUSH1 0x6 DUP5 MSTORE DUP6 DUP6 KECCAK256 DUP1 SLOAD PUSH1 0xFF NOT AND PUSH1 0xFF DUP6 ISZERO ISZERO AND OR SWAP1 SSTORE PUSH2 0x1A43 PUSH1 0x28 SLOAD DUP4 LT PUSH2 0x4A43 JUMP JUMPDEST PUSH2 0x1A51 PUSH1 0xFF PUSH2 0x358 DUP5 PUSH2 0x3298 JUMP JUMPDEST PUSH2 0x1A5A DUP3 PUSH2 0x4AED JUMP JUMPDEST PUSH1 0x27 SLOAD GT PUSH2 0x409 JUMPI PUSH2 0x1A6B DUP3 PUSH2 0x3298 JUMP JUMPDEST POP SWAP1 PUSH1 0x8 PUSH1 0x1 DUP4 ADD SLOAD SUB PUSH2 0x3D8 JUMPI POP DUP4 PUSH32 0xB4DD5C2209BDE9A21F0E7F65B94F8565474C3C3E744B186E1F9B38E086AF280D SWAP6 SWAP7 SWAP3 PUSH1 0x0 DUP1 MLOAD PUSH1 0x20 PUSH2 0x4B7D DUP4 CODECOPY DUP2 MLOAD SWAP2 MSTORE SWAP3 PUSH1 0x1 PUSH1 0xFF NOT DUP3 SLOAD AND OR SWAP1 SSTORE DUP4 MLOAD SWAP1 DUP2 MSTORE LOG1 MLOAD SWAP1 ISZERO ISZERO DUP2 MSTORE LOG1 DUP1 RETURN JUMPDEST DUP3 DUP5 CALLVALUE PUSH2 0x46C JUMPI DUP2 PUSH1 0x3 NOT CALLDATASIZE ADD SLT PUSH2 0x46C JUMPI PUSH1 0x20 SWAP1 PUSH1 0x11 SLOAD SWAP1 MLOAD SWAP1 DUP2 MSTORE RETURN JUMPDEST DUP3 DUP5 CALLVALUE PUSH2 0x46C JUMPI DUP2 PUSH1 0x3 NOT CALLDATASIZE ADD SLT PUSH2 0x46C JUMPI PUSH1 0x20 SWAP1 PUSH1 0x13 SLOAD SWAP1 MLOAD SWAP1 DUP2 MSTORE RETURN JUMPDEST DUP3 DUP5 CALLVALUE PUSH2 0x46C JUMPI DUP2 PUSH1 0x3 NOT CALLDATASIZE ADD SLT PUSH2 0x46C JUMPI PUSH1 0x20 SWAP1 PUSH1 0x12 SLOAD SWAP1 MLOAD SWAP1 DUP2 MSTORE RETURN JUMPDEST DUP3 DUP5 CALLVALUE PUSH2 0x46C JUMPI PUSH1 0x20 CALLDATASIZE PUSH1 0x3 NOT ADD SLT PUSH2 0x46C JUMPI PUSH1 0x20 SWAP2 PUSH1 0xFF SWAP1 DUP3 SWAP1 PUSH1 0x1 PUSH1 0x1 PUSH1 0xA0 SHL SUB PUSH2 0x1B52 PUSH2 0x30D6 JUMP JUMPDEST AND DUP2 MSTORE PUSH1 0x5 DUP6 MSTORE KECCAK256 SLOAD AND SWAP1 MLOAD SWAP1 ISZERO ISZERO DUP2 MSTORE RETURN JUMPDEST POP CALLVALUE PUSH2 0x46C JUMPI DUP3 PUSH1 0x3 NOT CALLDATASIZE ADD SLT PUSH2 0x46C JUMPI DUP1 CALLDATALOAD PUSH2 0x1B80 PUSH2 0x3152 JUMP JUMPDEST SWAP1 CALLER DUP5 MSTORE PUSH1 0x20 SWAP3 PUSH1 0x26 DUP5 MSTORE PUSH2 0x1B9A PUSH1 0xFF DUP8 DUP8 KECCAK256 SLOAD AND PUSH2 0x352A JUMP JUMPDEST PUSH2 0x1BA3 DUP3 PUSH2 0x3298 JUMP JUMPDEST POP PUSH1 0x2 ADD SLOAD PUSH1 0x1 PUSH1 0x1 PUSH1 0xA0 SHL SUB AND DUP6 MSTORE PUSH1 0x5 DUP5 MSTORE DUP6 DUP6 KECCAK256 DUP1 SLOAD PUSH1 0xFF NOT AND PUSH1 0xFF DUP6 ISZERO ISZERO AND OR SWAP1 SSTORE PUSH2 0x1BD6 PUSH1 0x28 SLOAD DUP4 LT PUSH2 0x4A43 JUMP JUMPDEST PUSH2 0x1BE4 PUSH1 0xFF PUSH2 0x358 DUP5 PUSH2 0x3298 JUMP JUMPDEST PUSH2 0x1BED DUP3 PUSH2 0x4AED JUMP JUMPDEST PUSH1 0x27 SLOAD GT PUSH2 0x409 JUMPI PUSH2 0x1BFE DUP3 PUSH2 0x3298 JUMP JUMPDEST POP SWAP1 PUSH1 0x6 PUSH1 0x1 DUP4 ADD SLOAD SUB PUSH2 0x3D8 JUMPI POP DUP4 PUSH32 0x9DF30A92D8B45281AAAD80FBCAD933DFE9354BCDEE1277231DF54E63E55195D7 SWAP6 SWAP7 SWAP3 PUSH1 0x0 DUP1 MLOAD PUSH1 0x20 PUSH2 0x4B7D DUP4 CODECOPY DUP2 MLOAD SWAP2 MSTORE SWAP3 PUSH1 0x1 PUSH1 0xFF NOT DUP3 SLOAD AND OR SWAP1 SSTORE DUP4 MLOAD SWAP1 DUP2 MSTORE LOG1 MLOAD SWAP1 ISZERO ISZERO DUP2 MSTORE LOG1 DUP1 RETURN JUMPDEST POP CALLVALUE PUSH2 0x46C JUMPI DUP3 PUSH1 0x3 NOT CALLDATASIZE ADD SLT PUSH2 0x46C JUMPI PUSH2 0x1C76 PUSH2 0x3161 JUMP JUMPDEST SWAP1 PUSH1 0x24 CALLDATALOAD CALLER DUP5 MSTORE PUSH1 0x20 SWAP3 PUSH1 0x26 DUP5 MSTORE PUSH2 0x1C93 PUSH1 0xFF DUP8 DUP8 KECCAK256 SLOAD AND PUSH2 0x352A JUMP JUMPDEST ISZERO ISZERO SWAP2 PUSH1 0x1 DUP4 SUB PUSH2 0x1D59 JUMPI PUSH1 0x2 DUP7 DUP1 MLOAD PUSH2 0x1CAC DUP2 PUSH2 0x3170 JUMP JUMPDEST DUP3 DUP2 MSTORE PUSH1 0x1 DUP8 DUP3 ADD MSTORE ADD MSTORE PUSH1 0x2 PUSH1 0x1C SSTORE PUSH1 0x1 PUSH1 0x1D SSTORE PUSH1 0x2 PUSH1 0x1E SSTORE JUMPDEST PUSH2 0x1CD4 PUSH1 0x28 SLOAD DUP4 LT PUSH2 0x4A43 JUMP JUMPDEST PUSH2 0x1CE2 PUSH1 0xFF PUSH2 0x358 DUP5 PUSH2 0x3298 JUMP JUMPDEST PUSH2 0x1CEB DUP3 PUSH2 0x4AED JUMP JUMPDEST PUSH1 0x27 SLOAD GT PUSH2 0x409 JUMPI PUSH2 0x1CFC DUP3 PUSH2 0x3298 JUMP JUMPDEST POP SWAP1 PUSH1 0x11 PUSH1 0x1 DUP4 ADD SLOAD SUB PUSH2 0x3D8 JUMPI POP DUP4 PUSH32 0x2AA8128B3CF57C168078769033A09F2677560674DEFB313C68F8EC74DF66DC90 SWAP6 SWAP7 SWAP3 PUSH1 0x0 DUP1 MLOAD PUSH1 0x20 PUSH2 0x4B7D DUP4 CODECOPY DUP2 MLOAD SWAP2 MSTORE SWAP3 PUSH1 0x1 PUSH1 0xFF NOT DUP3 SLOAD AND OR SWAP1 SSTORE DUP4 MLOAD SWAP1 DUP2 MSTORE LOG1 MLOAD SWAP1 DUP2 MSTORE LOG1 DUP1 RETURN JUMPDEST DUP5 DUP7 DUP1 MLOAD PUSH2 0x1D66 DUP2 PUSH2 0x3170 JUMP JUMPDEST DUP3 DUP2 MSTORE DUP3 DUP8 DUP3 ADD MSTORE ADD MSTORE DUP5 PUSH1 0x1C SSTORE DUP5 PUSH1 0x1D SSTORE DUP5 PUSH1 0x1E SSTORE PUSH2 0x1CC7 JUMP JUMPDEST DUP3 DUP5 CALLVALUE PUSH2 0x46C JUMPI PUSH1 0x20 CALLDATASIZE PUSH1 0x3 NOT ADD SLT PUSH2 0x46C JUMPI PUSH1 0x20 SWAP2 PUSH1 0xFF SWAP1 DUP3 SWAP1 PUSH1 0x1 PUSH1 0x1 PUSH1 0xA0 SHL SUB PUSH2 0x1DAC PUSH2 0x30D6 JUMP JUMPDEST AND DUP2 MSTORE PUSH1 0x3 DUP6 MSTORE KECCAK256 SLOAD AND SWAP1 MLOAD SWAP1 ISZERO ISZERO DUP2 MSTORE RETURN JUMPDEST POP SWAP1 CALLVALUE PUSH2 0x4D0 JUMPI PUSH2 0x1DCF CALLDATASIZE PUSH2 0x31F4 JUMP JUMPDEST SWAP1 SWAP3 SWAP2 CALLER DUP4 MSTORE PUSH1 0x20 SWAP2 PUSH1 0x26 DUP4 MSTORE PUSH2 0x1DEB PUSH1 0xFF DUP9 DUP7 KECCAK256 SLOAD AND PUSH2 0x352A JUMP JUMPDEST DUP4 JUMPDEST DUP3 MLOAD DUP2 LT ISZERO PUSH2 0x1E31 JUMPI PUSH2 0x1E2C SWAP1 PUSH1 0x1 PUSH1 0x1 PUSH1 0xA0 SHL SUB PUSH2 0x1E0C DUP3 DUP7 PUSH2 0x387A JUMP JUMPDEST MLOAD AND DUP7 MSTORE PUSH1 0x5 DUP6 MSTORE PUSH2 0x710 DUP8 DUP11 DUP9 KECCAK256 SWAP1 PUSH1 0xFF DUP1 NOT DUP4 SLOAD AND SWAP2 ISZERO ISZERO AND OR SWAP1 SSTORE JUMP JUMPDEST PUSH2 0x1DED JUMP JUMPDEST POP SWAP1 SWAP3 SWAP5 PUSH2 0x1E42 PUSH1 0x28 SLOAD DUP4 LT PUSH2 0x4A43 JUMP JUMPDEST PUSH2 0x1E50 PUSH1 0xFF PUSH2 0x358 DUP5 PUSH2 0x3298 JUMP JUMPDEST PUSH2 0x1E59 DUP3 PUSH2 0x4AED JUMP JUMPDEST PUSH1 0x27 SLOAD GT PUSH2 0x7EC JUMPI PUSH2 0x1E6A DUP3 PUSH2 0x3298 JUMP JUMPDEST POP SWAP1 PUSH1 0xF PUSH1 0x1 DUP4 ADD SLOAD SUB PUSH2 0x7BB JUMPI POP DUP1 SLOAD PUSH1 0xFF NOT AND PUSH1 0x1 OR SWAP1 SSTORE DUP6 MLOAD SWAP1 DUP2 MSTORE SWAP4 SWAP5 PUSH32 0x191F53B0E0DC669E0BEBAB999CE36B4AF8938F5B060C7B7E6974007743F9C679 SWAP5 PUSH2 0x7B5 SWAP3 PUSH1 0x0 DUP1 MLOAD PUSH1 0x20 PUSH2 0x4B7D DUP4 CODECOPY DUP2 MLOAD SWAP2 MSTORE SWAP2 LOG1 MLOAD SWAP3 DUP4 SWAP3 DUP4 PUSH2 0x4A23 JUMP JUMPDEST POP DUP3 SWAP1 CALLVALUE PUSH2 0x105A JUMPI PUSH1 0x80 CALLDATASIZE PUSH1 0x3 NOT ADD SLT PUSH2 0x105A JUMPI PUSH2 0x1EE8 PUSH2 0x30D6 JUMP JUMPDEST SWAP2 PUSH2 0x1EF1 PUSH2 0x30F1 JUMP JUMPDEST PUSH1 0x44 SWAP3 DUP4 CALLDATALOAD SWAP4 PUSH1 0x64 SWAP1 DUP2 CALLDATALOAD SWAP2 CALLER DUP10 MSTORE PUSH1 0x20 SWAP4 PUSH1 0x26 DUP6 MSTORE PUSH2 0x1F16 PUSH1 0xFF DUP9 DUP13 KECCAK256 SLOAD AND PUSH2 0x352A JUMP JUMPDEST PUSH1 0x1 PUSH1 0x1 PUSH1 0xA0 SHL SUB SWAP9 DUP10 AND SWAP9 DUP10 ISZERO PUSH2 0x214C JUMPI DUP7 AND SWAP6 DUP7 ISZERO PUSH2 0x210E JUMPI DUP9 ISZERO PUSH2 0x20BE JUMPI DUP8 MLOAD PUSH4 0xA9059CBB PUSH1 0xE0 SHL DUP2 MSTORE PUSH1 0x1 PUSH1 0x1 PUSH1 0xA0 SHL SUB SWAP2 SWAP1 SWAP2 AND DUP3 DUP3 ADD SWAP1 DUP2 MSTORE PUSH1 0x20 DUP2 ADD DUP11 SWAP1 MSTORE DUP7 SWAP1 DUP3 SWAP1 DUP2 SWAP1 SUB PUSH1 0x40 ADD DUP2 DUP15 DUP15 GAS CALL DUP1 ISZERO PUSH2 0x20B4 JUMPI PUSH2 0x2079 JUMPI JUMPDEST POP PUSH2 0x1F84 PUSH1 0x28 SLOAD DUP6 LT PUSH2 0x4A43 JUMP JUMPDEST PUSH2 0x1F92 PUSH1 0xFF PUSH2 0x358 DUP7 PUSH2 0x3298 JUMP JUMPDEST PUSH2 0x1F9B DUP5 PUSH2 0x4AED JUMP JUMPDEST PUSH1 0x27 SLOAD GT PUSH2 0x2041 JUMPI PUSH2 0x1FAC DUP5 PUSH2 0x3298 JUMP JUMPDEST POP SWAP3 DUP2 PUSH1 0x1 DUP6 ADD SLOAD SUB PUSH2 0x2014 JUMPI DUP11 PUSH32 0x94DB19FB7047D6922D4FF747F063BB58993E912F3BE4EB1C26749AE78606252D PUSH1 0x60 DUP13 DUP13 DUP13 DUP13 DUP13 PUSH1 0x0 DUP1 MLOAD PUSH1 0x20 PUSH2 0x4B7D DUP4 CODECOPY DUP2 MLOAD SWAP2 MSTORE DUP2 DUP15 DUP15 PUSH1 0x1 PUSH1 0xFF NOT DUP3 SLOAD AND OR SWAP1 SSTORE DUP6 MLOAD SWAP1 DUP2 MSTORE LOG1 DUP3 MLOAD SWAP5 DUP6 MSTORE DUP5 ADD MSTORE DUP3 ADD MSTORE LOG1 DUP1 RETURN JUMPDEST DUP8 MLOAD PUSH3 0x461BCD PUSH1 0xE5 SHL DUP2 MSTORE SWAP2 DUP3 ADD DUP7 SWAP1 MSTORE PUSH1 0x15 PUSH1 0x24 DUP4 ADD MSTORE PUSH1 0x0 DUP1 MLOAD PUSH1 0x20 PUSH2 0x4BDD DUP4 CODECOPY DUP2 MLOAD SWAP2 MSTORE SWAP1 DUP3 ADD MSTORE REVERT JUMPDEST PUSH2 0x185B PUSH1 0xF2 SHL PUSH1 0x84 SWAP3 PUSH1 0x0 DUP1 MLOAD PUSH1 0x20 PUSH2 0x4B9D DUP4 CODECOPY DUP2 MLOAD SWAP2 MSTORE DUP6 DUP9 DUP12 MLOAD SWAP6 PUSH3 0x461BCD PUSH1 0xE5 SHL DUP8 MSTORE DUP7 ADD MSTORE PUSH1 0x22 PUSH1 0x24 DUP7 ADD MSTORE DUP5 ADD MSTORE DUP3 ADD MSTORE REVERT JUMPDEST DUP6 DUP2 DUP2 RETURNDATASIZE DUP4 GT PUSH2 0x20AD JUMPI JUMPDEST PUSH2 0x208E DUP2 DUP4 PUSH2 0x31D2 JUMP JUMPDEST DUP2 ADD SUB SLT PUSH2 0x20A9 JUMPI MLOAD DUP1 ISZERO ISZERO SUB PUSH2 0x20A5 JUMPI DUP11 PUSH2 0x1F76 JUMP JUMPDEST DUP10 DUP1 REVERT JUMPDEST DUP11 DUP1 REVERT JUMPDEST POP RETURNDATASIZE PUSH2 0x2084 JUMP JUMPDEST DUP9 MLOAD RETURNDATASIZE DUP14 DUP3 RETURNDATACOPY RETURNDATASIZE SWAP1 REVERT JUMPDEST POP PUSH7 0x61646472657373 PUSH1 0xC8 SHL PUSH1 0x84 SWAP3 PUSH32 0x616D6F756E742073686F756C64206265206D6F7265207468616E207A65726F20 DUP6 DUP9 DUP12 MLOAD SWAP6 PUSH3 0x461BCD PUSH1 0xE5 SHL DUP8 MSTORE DUP7 ADD MSTORE PUSH1 0x27 PUSH1 0x24 DUP7 ADD MSTORE DUP5 ADD MSTORE DUP3 ADD MSTORE REVERT JUMPDEST POP PUSH32 0x72656365697665722063616E206E6F74206265207A65726F2061646472657373 DUP4 DUP7 DUP1 DUP11 MLOAD SWAP5 PUSH3 0x461BCD PUSH1 0xE5 SHL DUP7 MSTORE DUP6 ADD MSTORE PUSH1 0x24 DUP5 ADD MSTORE DUP3 ADD MSTORE REVERT JUMPDEST POP PUSH4 0x72657373 PUSH1 0xE0 SHL PUSH1 0x84 SWAP3 PUSH32 0x746F6B656E416464726573732063616E206E6F74206265207A65726F20616464 DUP6 DUP9 DUP12 MLOAD SWAP6 PUSH3 0x461BCD PUSH1 0xE5 SHL DUP8 MSTORE DUP7 ADD MSTORE PUSH1 0x24 DUP1 DUP7 ADD MSTORE DUP5 ADD MSTORE DUP3 ADD MSTORE REVERT JUMPDEST DUP3 DUP5 CALLVALUE PUSH2 0x46C JUMPI DUP2 PUSH1 0x3 NOT CALLDATASIZE ADD SLT PUSH2 0x46C JUMPI PUSH1 0x20 SWAP1 PUSH1 0xFF PUSH1 0x8 SLOAD AND SWAP1 MLOAD SWAP1 ISZERO ISZERO DUP2 MSTORE RETURN JUMPDEST POP SWAP2 SWAP1 CALLVALUE PUSH2 0x4D0 JUMPI DUP2 PUSH1 0x3 NOT CALLDATASIZE ADD SLT PUSH2 0x4D0 JUMPI POP PUSH2 0x17FF PUSH1 0x20 SWAP3 PUSH2 0x21DE PUSH2 0x3152 JUMP JUMPDEST SWAP1 CALLDATALOAD PUSH2 0x342A JUMP JUMPDEST POP CALLVALUE PUSH2 0x46C JUMPI PUSH2 0x21F4 CALLDATASIZE PUSH2 0x3107 JUMP JUMPDEST SWAP3 SWAP1 SWAP3 CALLER DUP6 MSTORE PUSH1 0x20 SWAP2 PUSH1 0x26 DUP4 MSTORE PUSH2 0x2210 PUSH1 0xFF DUP9 DUP9 KECCAK256 SLOAD AND PUSH2 0x352A JUMP JUMPDEST PUSH1 0x1 DUP1 PUSH1 0xA0 SHL SUB PUSH1 0x1 PUSH1 0x1 PUSH1 0x60 SHL SUB PUSH1 0xA0 SHL SWAP1 DUP1 DUP7 AND DUP3 PUSH1 0xC SLOAD AND OR PUSH1 0xC SSTORE DUP7 AND SWAP1 DUP2 ISZERO PUSH2 0x22ED JUMPI PUSH1 0xD SLOAD AND OR PUSH1 0xD SSTORE PUSH2 0x224D PUSH1 0x28 SLOAD DUP4 LT PUSH2 0x4A43 JUMP JUMPDEST PUSH2 0x225B PUSH1 0xFF PUSH2 0x358 DUP5 PUSH2 0x3298 JUMP JUMPDEST PUSH2 0x2264 DUP3 PUSH2 0x4AED JUMP JUMPDEST PUSH1 0x27 SLOAD GT PUSH2 0x7EC JUMPI PUSH2 0x2275 DUP3 PUSH2 0x3298 JUMP JUMPDEST POP SWAP1 PUSH1 0xC PUSH1 0x1 DUP4 ADD SLOAD SUB PUSH2 0x7BB JUMPI POP DUP1 SLOAD PUSH1 0xFF NOT AND PUSH1 0x1 OR SWAP1 SSTORE DUP6 MLOAD SWAP1 DUP2 MSTORE SWAP4 SWAP5 PUSH32 0x175E4BBEB77C7E49271724A8534BBDD31EA0F809390EE2F57D6B7AA286440EEF SWAP5 PUSH2 0x7B5 SWAP3 PUSH1 0x0 DUP1 MLOAD PUSH1 0x20 PUSH2 0x4B7D DUP4 CODECOPY DUP2 MLOAD SWAP2 MSTORE SWAP2 LOG1 MLOAD PUSH1 0x1 PUSH1 0x1 PUSH1 0xA0 SHL SUB SWAP3 DUP4 AND DUP2 MSTORE SWAP3 SWAP1 SWAP2 AND PUSH1 0x20 DUP4 ADD MSTORE DUP2 SWAP1 PUSH1 0x40 DUP3 ADD SWAP1 JUMP JUMPDEST PUSH1 0x64 DUP4 DUP7 DUP1 DUP13 MLOAD SWAP3 PUSH3 0x461BCD PUSH1 0xE5 SHL DUP5 MSTORE DUP4 ADD MSTORE PUSH1 0x24 DUP3 ADD MSTORE PUSH32 0x4E6577207061697220616464726573732063616E206E6F74206265207A65726F PUSH1 0x44 DUP3 ADD MSTORE REVERT JUMPDEST DUP3 DUP5 CALLVALUE PUSH2 0x46C JUMPI DUP1 PUSH1 0x3 NOT CALLDATASIZE ADD SLT PUSH2 0x46C JUMPI PUSH2 0x1088 PUSH1 0x20 SWAP3 PUSH2 0x2377 PUSH2 0x2351 PUSH2 0x30D6 JUMP JUMPDEST CALLER DUP4 MSTORE PUSH1 0x2 DUP7 MSTORE DUP5 DUP4 KECCAK256 PUSH1 0x1 PUSH1 0x1 PUSH1 0xA0 SHL SUB DUP3 AND DUP5 MSTORE DUP7 MSTORE SWAP2 DUP5 SWAP1 KECCAK256 SLOAD PUSH1 0x24 CALLDATALOAD SWAP1 PUSH2 0x341D JUMP JUMPDEST SWAP1 CALLER PUSH2 0x39EB JUMP JUMPDEST DUP3 DUP5 CALLVALUE PUSH2 0x46C JUMPI DUP2 PUSH1 0x3 NOT CALLDATASIZE ADD SLT PUSH2 0x46C JUMPI PUSH1 0x20 SWAP1 MLOAD PUSH1 0x12 DUP2 MSTORE RETURN JUMPDEST DUP3 DUP5 CALLVALUE PUSH2 0x46C JUMPI PUSH1 0x20 CALLDATASIZE PUSH1 0x3 NOT ADD SLT PUSH2 0x46C JUMPI PUSH1 0x20 SWAP2 PUSH1 0xFF SWAP1 DUP3 SWAP1 PUSH1 0x1 PUSH1 0x1 PUSH1 0xA0 SHL SUB PUSH2 0x23C5 PUSH2 0x30D6 JUMP JUMPDEST AND DUP2 MSTORE PUSH1 0x26 DUP6 MSTORE KECCAK256 SLOAD AND SWAP1 MLOAD SWAP1 ISZERO ISZERO DUP2 MSTORE RETURN JUMPDEST POP SWAP2 SWAP1 CALLVALUE PUSH2 0x4D0 JUMPI PUSH1 0x20 CALLDATASIZE PUSH1 0x3 NOT ADD SLT PUSH2 0x4D0 JUMPI POP PUSH2 0x17FF PUSH1 0x20 SWAP3 CALLDATALOAD PUSH2 0x34BA JUMP JUMPDEST POP DUP3 CALLVALUE PUSH2 0x105A JUMPI PUSH2 0x2409 CALLDATASIZE PUSH2 0x313C JUMP JUMPDEST SWAP1 SWAP3 CALLER DUP6 MSTORE PUSH1 0x26 PUSH1 0x20 MSTORE PUSH2 0x2422 PUSH1 0xFF DUP5 DUP8 KECCAK256 SLOAD AND PUSH2 0x352A JUMP JUMPDEST PUSH8 0xDE0B6B3A7640000 DUP1 DUP6 MUL SWAP1 DUP6 DUP3 DIV EQ DUP6 ISZERO OR ISZERO PUSH2 0x67D JUMPI PUSH1 0x10 SSTORE PUSH2 0x244B PUSH1 0x28 SLOAD DUP4 LT PUSH2 0x4A43 JUMP JUMPDEST PUSH2 0x2459 PUSH1 0xFF PUSH2 0x358 DUP5 PUSH2 0x3298 JUMP JUMPDEST PUSH2 0x2462 DUP3 PUSH2 0x4AED JUMP JUMPDEST PUSH1 0x27 SLOAD GT PUSH2 0x1266 JUMPI PUSH2 0x2473 DUP3 PUSH2 0x3298 JUMP JUMPDEST POP SWAP1 PUSH1 0xD PUSH1 0x1 DUP4 ADD SLOAD SUB PUSH2 0x1235 JUMPI POP SWAP2 PUSH1 0x0 DUP1 MLOAD PUSH1 0x20 PUSH2 0x4B7D DUP4 CODECOPY DUP2 MLOAD SWAP2 MSTORE PUSH1 0x20 PUSH32 0xD9426B58C81D17F6DD4BB6B8680FE18CFCFED49A38648D7D1A2D8FB9806FC218 SWAP6 SWAP4 DUP2 SWAP6 PUSH1 0x1 PUSH1 0xFF NOT DUP3 SLOAD AND OR SWAP1 SSTORE DUP4 MLOAD SWAP1 DUP2 MSTORE LOG1 MLOAD SWAP1 DUP2 MSTORE LOG1 DUP1 RETURN JUMPDEST DUP3 DUP5 CALLVALUE PUSH2 0x46C JUMPI DUP2 PUSH1 0x3 NOT CALLDATASIZE ADD SLT PUSH2 0x46C JUMPI PUSH1 0x20 SWAP1 PUSH1 0x14 SLOAD SWAP1 MLOAD SWAP1 DUP2 MSTORE RETURN JUMPDEST POP DUP3 CALLVALUE PUSH2 0x105A JUMPI DUP1 PUSH1 0x3 NOT CALLDATASIZE ADD SLT PUSH2 0x105A JUMPI DUP2 CALLDATALOAD SWAP3 PUSH2 0x250E PUSH2 0x30F1 JUMP JUMPDEST SWAP4 CALLER DUP3 MSTORE PUSH1 0x20 SWAP5 PUSH1 0x26 DUP7 MSTORE PUSH2 0x2528 PUSH1 0xFF DUP6 DUP6 KECCAK256 SLOAD AND PUSH2 0x352A JUMP JUMPDEST PUSH1 0x11 DUP3 GT ISZERO DUP1 PUSH2 0x276B JUMPI JUMPDEST ISZERO PUSH2 0x2734 JUMPI PUSH1 0x28 SLOAD SWAP2 DUP3 PUSH2 0x26AC JUMPI JUMPDEST DUP5 MLOAD SWAP1 PUSH2 0x254E DUP3 PUSH2 0x3170 JUMP JUMPDEST DUP5 DUP3 MSTORE DUP8 DUP3 ADD SWAP1 DUP2 MSTORE PUSH1 0x1 PUSH1 0x1 PUSH1 0xA0 SHL SUB SWAP3 DUP4 AND DUP7 DUP4 ADD SWAP1 DUP2 MSTORE SWAP4 PUSH1 0x1 PUSH1 0x40 SHL DUP2 LT ISZERO PUSH2 0x2699 JUMPI DUP1 PUSH1 0x1 PUSH2 0x2585 SWAP3 ADD PUSH1 0x28 SSTORE PUSH2 0x3298 JUMP JUMPDEST SWAP3 SWAP1 SWAP3 PUSH2 0x2687 JUMPI SWAP1 PUSH2 0x25A9 PUSH1 0x2 SWAP4 SWAP3 MLOAD ISZERO ISZERO DUP4 SWAP1 PUSH1 0xFF DUP1 NOT DUP4 SLOAD AND SWAP2 ISZERO ISZERO AND OR SWAP1 SSTORE JUMP JUMPDEST MLOAD PUSH1 0x1 DUP3 ADD SSTORE ADD SWAP2 MLOAD AND PUSH1 0x1 PUSH1 0x1 PUSH1 0x60 SHL SUB PUSH1 0xA0 SHL DUP3 SLOAD AND OR SWAP1 SSTORE PUSH1 0x28 SLOAD SWAP3 PUSH1 0x0 NOT SWAP4 DUP5 DUP2 ADD SWAP1 DUP2 GT PUSH2 0x2674 JUMPI DUP3 MSTORE PUSH1 0x29 DUP6 MSTORE DUP3 DUP3 KECCAK256 CALLER DUP4 MSTORE DUP6 MSTORE DUP3 DUP3 KECCAK256 DUP1 SLOAD PUSH1 0xFF NOT AND PUSH1 0x1 OR SWAP1 SSTORE PUSH1 0x28 SLOAD SWAP4 DUP5 ADD SWAP4 DUP5 GT PUSH2 0x2661 JUMPI POP POP DUP1 MLOAD CALLER DUP2 MSTORE PUSH1 0x20 DUP2 ADD DUP4 SWAP1 MSTORE PUSH32 0x90EC57F18FA7B15C6B8D5E4D1DEB90796C74B2FF23D4D0CECAD0CB42A96B3128 SWAP1 PUSH1 0x40 SWAP1 LOG1 PUSH32 0xE764A167EA16DBA9A9B8FDC48C267800565D742612790348C3342F6ED230ACFA DUP4 DUP3 MLOAD DUP5 DUP2 MSTORE LOG1 MLOAD SWAP1 DUP2 MSTORE RETURN JUMPDEST PUSH4 0x4E487B71 PUSH1 0xE0 SHL DUP3 MSTORE PUSH1 0x11 SWAP1 MSTORE PUSH1 0x24 SWAP1 REVERT JUMPDEST PUSH4 0x4E487B71 PUSH1 0xE0 SHL DUP4 MSTORE PUSH1 0x11 DUP3 MSTORE PUSH1 0x24 DUP4 REVERT JUMPDEST PUSH4 0x4E487B71 PUSH1 0xE0 SHL DUP7 MSTORE DUP6 DUP9 MSTORE PUSH1 0x24 DUP7 REVERT JUMPDEST PUSH4 0x4E487B71 PUSH1 0xE0 SHL DUP7 MSTORE PUSH1 0x41 DUP9 MSTORE PUSH1 0x24 DUP7 REVERT JUMPDEST PUSH1 0x0 NOT DUP4 ADD DUP4 DUP2 GT PUSH2 0x2721 JUMPI PUSH1 0xFF PUSH2 0x26C5 PUSH1 0x1 SWAP3 PUSH2 0x3298 JUMP JUMPDEST POP SLOAD AND ISZERO ISZERO EQ PUSH2 0x2542 JUMPI DUP5 MLOAD PUSH3 0x461BCD PUSH1 0xE5 SHL DUP2 MSTORE DUP1 DUP8 ADD DUP9 SWAP1 MSTORE PUSH1 0x26 PUSH1 0x24 DUP3 ADD MSTORE PUSH32 0x506C656173652045786563757465205175657565205472616E73616374696F6E PUSH1 0x44 DUP3 ADD MSTORE PUSH6 0x8119A5C9CDD PUSH1 0xD2 SHL PUSH1 0x64 DUP3 ADD MSTORE PUSH1 0x84 SWAP1 REVERT JUMPDEST PUSH4 0x4E487B71 PUSH1 0xE0 SHL DUP6 MSTORE PUSH1 0x11 DUP8 MSTORE PUSH1 0x24 DUP6 REVERT JUMPDEST DUP4 MLOAD PUSH3 0x461BCD PUSH1 0xE5 SHL DUP2 MSTORE DUP1 DUP7 ADD DUP8 SWAP1 MSTORE PUSH1 0x11 PUSH1 0x24 DUP3 ADD MSTORE PUSH17 0x1A5B9D985B1A59081B595D1A1BD9081A59 PUSH1 0x7A SHL PUSH1 0x44 DUP3 ADD MSTORE PUSH1 0x64 SWAP1 REVERT JUMPDEST POP DUP2 ISZERO ISZERO PUSH2 0x2533 JUMP JUMPDEST POP DUP3 CALLVALUE PUSH2 0x105A JUMPI PUSH1 0x20 DUP1 PUSH1 0x3 NOT CALLDATASIZE ADD SLT PUSH2 0x1056 JUMPI DUP3 CALLDATALOAD SWAP3 CALLER DUP6 MSTORE PUSH1 0x26 DUP3 MSTORE PUSH2 0x27A1 PUSH1 0xFF DUP5 DUP8 KECCAK256 SLOAD AND PUSH2 0x352A JUMP JUMPDEST PUSH2 0x27AE PUSH1 0x28 SLOAD DUP6 LT PUSH2 0x4A43 JUMP JUMPDEST DUP4 DUP6 MSTORE PUSH1 0x29 DUP3 MSTORE DUP3 DUP6 KECCAK256 CALLER DUP7 MSTORE DUP3 MSTORE PUSH1 0xFF DUP4 DUP7 KECCAK256 SLOAD AND PUSH2 0x2833 JUMPI POP SWAP2 PUSH2 0x7B5 SWAP2 PUSH32 0x90EC57F18FA7B15C6B8D5E4D1DEB90796C74B2FF23D4D0CECAD0CB42A96B3128 SWAP4 PUSH2 0x27FE PUSH1 0xFF PUSH2 0x358 DUP6 PUSH2 0x3298 JUMP JUMPDEST DUP3 DUP7 MSTORE PUSH1 0x29 DUP2 MSTORE DUP2 DUP7 KECCAK256 CALLER DUP1 DUP9 MSTORE SWAP2 MSTORE DUP2 DUP7 KECCAK256 DUP1 SLOAD PUSH1 0xFF NOT AND PUSH1 0x1 OR SWAP1 SSTORE SWAP1 MLOAD SWAP1 DUP2 MSTORE PUSH1 0x20 DUP2 ADD SWAP2 SWAP1 SWAP2 MSTORE SWAP1 DUP2 SWAP1 PUSH1 0x40 DUP3 ADD SWAP1 JUMP JUMPDEST SWAP2 MLOAD PUSH3 0x461BCD PUSH1 0xE5 SHL DUP2 MSTORE SWAP2 DUP3 ADD MSTORE PUSH1 0x15 PUSH1 0x24 DUP3 ADD MSTORE PUSH21 0x74726E782068617320616C726561647920646F6E65 PUSH1 0x58 SHL PUSH1 0x44 DUP3 ADD MSTORE PUSH1 0x64 SWAP1 REVERT JUMPDEST POP CALLVALUE PUSH2 0x46C JUMPI DUP3 SWAP1 PUSH2 0x287D CALLDATASIZE PUSH2 0x3107 JUMP JUMPDEST SWAP4 SWAP1 SWAP2 SWAP5 PUSH1 0x1 DUP1 PUSH1 0xA0 SHL SUB DUP7 AND DUP2 MSTORE PUSH1 0x2 PUSH1 0x20 MSTORE DUP2 DUP2 KECCAK256 CALLER DUP3 MSTORE PUSH1 0x20 MSTORE KECCAK256 SLOAD SWAP2 DUP4 DUP4 LT PUSH2 0x28C8 JUMPI PUSH1 0x20 DUP7 PUSH2 0x1088 DUP8 PUSH2 0x28C0 DUP9 DUP9 PUSH2 0x28BB DUP3 DUP11 DUP7 PUSH2 0x3B38 JUMP JUMPDEST PUSH2 0x331B JUMP JUMPDEST SWAP1 CALLER SWAP1 PUSH2 0x39EB JUMP JUMPDEST PUSH1 0x84 SWAP1 PUSH1 0x20 DUP8 MLOAD SWAP2 PUSH3 0x461BCD PUSH1 0xE5 SHL DUP4 MSTORE DUP3 ADD MSTORE PUSH1 0x28 PUSH1 0x24 DUP3 ADD MSTORE PUSH32 0x45524332303A207472616E7366657220616D6F756E7420657863656564732061 PUSH1 0x44 DUP3 ADD MSTORE PUSH8 0x6C6C6F77616E6365 PUSH1 0xC0 SHL PUSH1 0x64 DUP3 ADD MSTORE REVERT JUMPDEST POP CALLVALUE PUSH2 0x46C JUMPI DUP3 PUSH1 0x3 NOT CALLDATASIZE ADD SLT PUSH2 0x46C JUMPI PUSH2 0x2935 PUSH2 0x30D6 JUMP JUMPDEST SWAP1 PUSH1 0x24 CALLDATALOAD CALLER DUP5 MSTORE PUSH1 0x20 SWAP3 PUSH1 0x26 DUP5 MSTORE PUSH2 0x2952 PUSH1 0xFF DUP8 DUP8 KECCAK256 SLOAD AND PUSH2 0x352A JUMP JUMPDEST PUSH1 0x1 PUSH1 0x1 PUSH1 0xA0 SHL SUB AND SWAP2 DUP3 ISZERO PUSH2 0x2A08 JUMPI DUP3 PUSH1 0x1 PUSH1 0x1 PUSH1 0x60 SHL SUB PUSH1 0xA0 SHL PUSH1 0x17 SLOAD AND OR PUSH1 0x17 SSTORE PUSH2 0x2983 PUSH1 0x28 SLOAD DUP4 LT PUSH2 0x4A43 JUMP JUMPDEST PUSH2 0x2991 PUSH1 0xFF PUSH2 0x358 DUP5 PUSH2 0x3298 JUMP JUMPDEST PUSH2 0x299A DUP3 PUSH2 0x4AED JUMP JUMPDEST PUSH1 0x27 SLOAD GT PUSH2 0x409 JUMPI PUSH2 0x29AB DUP3 PUSH2 0x3298 JUMP JUMPDEST POP SWAP1 PUSH1 0x9 PUSH1 0x1 DUP4 ADD SLOAD SUB PUSH2 0x3D8 JUMPI POP DUP4 PUSH32 0x2662EF2C54FF98367EB3D0304B112D24FF78BEB4077EFCEF65B040BACA760AB SWAP6 SWAP7 SWAP3 PUSH1 0x0 DUP1 MLOAD PUSH1 0x20 PUSH2 0x4B7D DUP4 CODECOPY DUP2 MLOAD SWAP2 MSTORE SWAP3 PUSH1 0x1 PUSH1 0xFF NOT DUP3 SLOAD AND OR SWAP1 SSTORE DUP4 MLOAD SWAP1 DUP2 MSTORE LOG1 MLOAD SWAP1 DUP2 MSTORE LOG1 DUP1 RETURN JUMPDEST DUP6 MLOAD PUSH3 0x461BCD PUSH1 0xE5 SHL DUP2 MSTORE SWAP1 DUP2 ADD DUP5 SWAP1 MSTORE PUSH1 0x27 PUSH1 0x24 DUP3 ADD MSTORE PUSH32 0x6D61726B6574696E6777616C6C657420616464726573732063616E206E6F7420 PUSH1 0x44 DUP3 ADD MSTORE PUSH7 0x6265207A65726F PUSH1 0xC8 SHL PUSH1 0x64 DUP3 ADD MSTORE PUSH1 0x84 SWAP1 REVERT JUMPDEST POP DUP3 CALLVALUE PUSH2 0x105A JUMPI PUSH1 0x20 DUP1 PUSH1 0x3 NOT CALLDATASIZE ADD SLT PUSH2 0x1056 JUMPI DUP3 CALLDATALOAD SWAP3 CALLER DUP6 MSTORE PUSH1 0x26 DUP3 MSTORE PUSH2 0x2A88 PUSH1 0xFF DUP5 DUP8 KECCAK256 SLOAD AND PUSH2 0x352A JUMP JUMPDEST PUSH2 0x2A95 PUSH1 0x28 SLOAD DUP6 LT PUSH2 0x4A43 JUMP JUMPDEST PUSH2 0x2AA3 PUSH1 0xFF PUSH2 0x358 DUP7 PUSH2 0x3298 JUMP JUMPDEST DUP4 DUP6 MSTORE PUSH1 0x29 DUP3 MSTORE DUP3 DUP6 KECCAK256 CALLER DUP7 MSTORE DUP3 MSTORE PUSH1 0xFF DUP4 DUP7 KECCAK256 SLOAD AND ISZERO PUSH2 0x2B13 JUMPI POP DUP3 DUP5 MSTORE PUSH1 0x29 DUP2 MSTORE DUP2 DUP5 KECCAK256 CALLER DUP1 DUP7 MSTORE SWAP2 MSTORE DUP2 DUP5 KECCAK256 DUP1 SLOAD PUSH1 0xFF NOT AND SWAP1 SSTORE SWAP1 MLOAD SWAP1 DUP2 MSTORE PUSH1 0x20 DUP2 ADD SWAP2 SWAP1 SWAP2 MSTORE PUSH32 0xEC9AB91322523C899EDE7830EC9BFC992B5981CDCC27B91162FB23DE5791117B SWAP1 DUP1 PUSH1 0x40 DUP2 ADD PUSH2 0x7B5 JUMP JUMPDEST SWAP2 MLOAD PUSH3 0x461BCD PUSH1 0xE5 SHL DUP2 MSTORE SWAP2 DUP3 ADD MSTORE PUSH1 0x19 PUSH1 0x24 DUP3 ADD MSTORE PUSH32 0x74726E7820686173206E6F74206265656E20617070726F766500000000000000 PUSH1 0x44 DUP3 ADD MSTORE PUSH1 0x64 SWAP1 REVERT JUMPDEST DUP3 DUP5 CALLVALUE PUSH2 0x46C JUMPI DUP2 PUSH1 0x3 NOT CALLDATASIZE ADD SLT PUSH2 0x46C JUMPI PUSH1 0x20 SWAP1 PUSH1 0xE SLOAD SWAP1 MLOAD SWAP1 DUP2 MSTORE RETURN JUMPDEST POP SWAP2 CALLVALUE PUSH2 0x46C JUMPI PUSH1 0x20 SWAP1 DUP2 PUSH1 0x3 NOT CALLDATASIZE ADD SLT PUSH2 0x105A JUMPI DUP4 CALLDATALOAD SWAP4 CALLER DUP5 MSTORE PUSH1 0x26 DUP4 MSTORE PUSH2 0x2BA1 PUSH1 0xFF DUP4 DUP7 KECCAK256 SLOAD AND PUSH2 0x352A JUMP JUMPDEST PUSH1 0x2 PUSH2 0x2BAC DUP7 PUSH2 0x3298 JUMP JUMPDEST POP ADD DUP1 SLOAD PUSH1 0x1 PUSH1 0x1 PUSH1 0xA0 SHL SUB SWAP3 SWAP1 DUP4 AND DUP1 ISZERO PUSH2 0x2C69 JUMPI DUP7 MSTORE PUSH1 0x3 DUP6 MSTORE DUP4 DUP7 KECCAK256 PUSH1 0xFF NOT SWAP1 PUSH1 0x1 DUP3 DUP3 SLOAD AND OR SWAP1 SSTORE PUSH2 0x2BE5 PUSH1 0x28 SLOAD DUP10 LT PUSH2 0x4A43 JUMP JUMPDEST PUSH2 0x2BF3 PUSH1 0xFF PUSH2 0x358 DUP11 PUSH2 0x3298 JUMP JUMPDEST PUSH2 0x2BFC DUP9 PUSH2 0x4AED JUMP JUMPDEST PUSH1 0x27 SLOAD GT PUSH2 0x1691 JUMPI PUSH2 0x2C0D DUP9 PUSH2 0x3298 JUMP JUMPDEST POP SWAP2 PUSH1 0x1 DUP1 DUP5 ADD SLOAD SUB PUSH2 0x1660 JUMPI POP PUSH32 0xDBDE64BEF24F6C6798C1137955E0F3AB1EE540536392BEA881C4AD3E6D61ECC7 SWAP7 SWAP8 DUP3 PUSH1 0x1 DUP9 SWAP4 PUSH1 0x0 DUP1 MLOAD PUSH1 0x20 PUSH2 0x4B7D DUP4 CODECOPY DUP2 MLOAD SWAP2 MSTORE SWAP6 SLOAD AND OR SWAP1 SSTORE DUP6 MLOAD SWAP1 DUP2 MSTORE LOG1 SLOAD AND SWAP1 MLOAD SWAP1 DUP2 MSTORE LOG1 DUP1 RETURN JUMPDEST DUP5 MLOAD PUSH3 0x461BCD PUSH1 0xE5 SHL DUP2 MSTORE DUP1 DUP4 ADD DUP8 SWAP1 MSTORE PUSH1 0xF PUSH1 0x24 DUP3 ADD MSTORE PUSH15 0x696E76616C69642061646472657373 PUSH1 0x88 SHL PUSH1 0x44 DUP3 ADD MSTORE PUSH1 0x64 SWAP1 REVERT JUMPDEST POP SWAP1 CALLVALUE PUSH2 0x4D0 JUMPI PUSH1 0x20 DUP1 PUSH1 0x3 NOT CALLDATASIZE ADD SLT PUSH2 0x46C JUMPI DUP3 CALLDATALOAD SWAP4 CALLER DUP4 MSTORE PUSH1 0x26 DUP3 MSTORE PUSH1 0xFF PUSH2 0x2CCC DUP2 DUP4 DUP7 KECCAK256 SLOAD AND PUSH2 0x352A JUMP JUMPDEST PUSH1 0x2 PUSH2 0x2CD7 DUP8 PUSH2 0x3298 JUMP JUMPDEST POP ADD DUP1 SLOAD PUSH1 0x1 PUSH1 0x1 PUSH1 0xA0 SHL SUB SWAP1 DUP2 AND DUP7 MSTORE DUP7 DUP6 MSTORE DUP4 DUP7 KECCAK256 SLOAD SWAP1 SWAP3 SWAP1 DUP2 AND ISZERO PUSH2 0x2F19 JUMPI DUP6 JUMPDEST PUSH1 0x7 DUP1 SLOAD SWAP1 DUP2 DUP4 LT ISZERO PUSH2 0x2F0B JUMPI PUSH2 0x2D11 DUP4 PUSH2 0x301B JUMP JUMPDEST SWAP3 SWAP1 SLOAD DUP8 DUP1 DUP9 SLOAD AND SWAP2 PUSH1 0x3 SWAP6 DUP7 SHL SHR AND EQ PUSH2 0x2D37 JUMPI POP POP POP PUSH2 0x2D32 SWAP1 PUSH2 0x3328 JUMP JUMPDEST PUSH2 0x2CFB JUMP JUMPDEST SWAP3 PUSH1 0x0 SWAP11 SWAP3 SWAP6 SWAP7 SWAP8 SWAP9 SWAP10 SWAP11 SWAP5 SWAP2 SWAP5 NOT SWAP4 DUP5 DUP2 ADD SWAP1 DUP2 GT PUSH2 0x2EF8 JUMPI SWAP1 PUSH2 0x15AA DUP10 PUSH2 0x2D62 PUSH2 0x2D6F SWAP5 PUSH2 0x301B JUMP JUMPDEST SWAP1 SLOAD SWAP1 DUP11 SHL SHR AND SWAP2 PUSH2 0x301B JUMP JUMPDEST DUP7 DUP7 SLOAD AND SWAP4 DUP5 DUP12 MSTORE PUSH1 0x1 SWAP5 DUP6 DUP12 MSTORE PUSH2 0x2D9B DUP11 DUP14 KECCAK256 SLOAD PUSH2 0x2D95 PUSH2 0x2D8F PUSH2 0x388E JUMP JUMPDEST SWAP1 PUSH2 0x349A JUMP JUMPDEST SWAP1 PUSH2 0x32F2 JUMP JUMPDEST SWAP1 DUP13 MSTORE DUP12 DUP12 MSTORE DUP10 DUP13 KECCAK256 SSTORE DUP8 DUP8 SLOAD AND DUP12 MSTORE DUP5 DUP11 MSTORE DUP11 DUP10 DUP2 KECCAK256 SSTORE DUP8 DUP8 SLOAD AND DUP12 MSTORE DUP3 DUP11 MSTORE DUP9 DUP12 KECCAK256 SWAP4 PUSH1 0xFF NOT SWAP5 DUP6 DUP2 SLOAD AND SWAP1 SSTORE DUP2 SLOAD DUP1 ISZERO PUSH2 0x2EE5 JUMPI PUSH2 0x2E05 SWAP4 SWAP3 SWAP2 ADD SWAP1 PUSH2 0x2DE3 DUP3 PUSH2 0x301B JUMP JUMPDEST DUP12 DUP3 SLOAD SWAP2 DUP12 SHL SHL NOT AND SWAP1 SSTORE SSTORE PUSH2 0x2DFC PUSH1 0x28 SLOAD DUP14 LT PUSH2 0x4A43 JUMP JUMPDEST PUSH2 0x358 DUP13 PUSH2 0x3298 JUMP JUMPDEST PUSH2 0x2E0E DUP11 PUSH2 0x4AED JUMP JUMPDEST PUSH1 0x27 SLOAD GT PUSH2 0x2EA9 JUMPI PUSH2 0x2E1F DUP11 PUSH2 0x3298 JUMP JUMPDEST POP SWAP4 DUP4 DUP6 ADD SLOAD SUB PUSH2 0x2E78 JUMPI POP SWAP8 DUP3 DUP8 SWAP3 PUSH32 0x9351BE60D7684154F1D81ED1DCF87DA46BBC44B32DAD50C57E2722860A9AD48A SWAP10 SWAP11 PUSH1 0x0 DUP1 MLOAD PUSH1 0x20 PUSH2 0x4B7D DUP4 CODECOPY DUP2 MLOAD SWAP2 MSTORE SWAP6 SLOAD AND OR SWAP1 SSTORE DUP6 MLOAD SWAP1 DUP2 MSTORE LOG1 SLOAD AND SWAP1 MLOAD SWAP1 DUP2 MSTORE LOG1 DUP1 RETURN JUMPDEST DUP7 MLOAD PUSH3 0x461BCD PUSH1 0xE5 SHL DUP2 MSTORE SWAP1 DUP2 ADD DUP9 SWAP1 MSTORE PUSH1 0x15 PUSH1 0x24 DUP3 ADD MSTORE PUSH1 0x0 DUP1 MLOAD PUSH1 0x20 PUSH2 0x4BDD DUP4 CODECOPY DUP2 MLOAD SWAP2 MSTORE PUSH1 0x44 DUP3 ADD MSTORE PUSH1 0x64 SWAP1 REVERT JUMPDEST DUP7 MLOAD PUSH3 0x461BCD PUSH1 0xE5 SHL DUP2 MSTORE SWAP1 DUP2 ADD DUP9 SWAP1 MSTORE PUSH1 0x22 PUSH1 0x24 DUP3 ADD MSTORE PUSH1 0x0 DUP1 MLOAD PUSH1 0x20 PUSH2 0x4B9D DUP4 CODECOPY DUP2 MLOAD SWAP2 MSTORE PUSH1 0x44 DUP3 ADD MSTORE PUSH2 0x185B PUSH1 0xF2 SHL PUSH1 0x64 DUP3 ADD MSTORE PUSH1 0x84 SWAP1 REVERT JUMPDEST PUSH4 0x4E487B71 PUSH1 0xE0 SHL DUP14 MSTORE PUSH1 0x31 DUP6 MSTORE PUSH1 0x24 DUP14 REVERT JUMPDEST PUSH4 0x4E487B71 PUSH1 0xE0 SHL DUP13 MSTORE PUSH1 0x11 DUP5 MSTORE PUSH1 0x24 DUP13 REVERT JUMPDEST POP POP POP POP POP POP POP POP SWAP2 POP POP DUP1 RETURN JUMPDEST DUP4 MLOAD PUSH3 0x461BCD PUSH1 0xE5 SHL DUP2 MSTORE DUP1 DUP9 ADD DUP7 SWAP1 MSTORE PUSH1 0x17 PUSH1 0x24 DUP3 ADD MSTORE PUSH32 0x4163636F756E74206973206E6F74206578636C75646564000000000000000000 PUSH1 0x44 DUP3 ADD MSTORE PUSH1 0x64 SWAP1 REVERT JUMPDEST DUP3 DUP5 CALLVALUE PUSH2 0x46C JUMPI DUP1 PUSH1 0x3 NOT CALLDATASIZE ADD SLT PUSH2 0x46C JUMPI PUSH1 0x20 SWAP1 PUSH2 0x1088 PUSH2 0x2F7C PUSH2 0x30D6 JUMP JUMPDEST PUSH1 0x24 CALLDATALOAD SWAP1 CALLER PUSH2 0x39EB JUMP JUMPDEST DUP3 DUP5 CALLVALUE PUSH2 0x46C JUMPI DUP2 PUSH1 0x3 NOT CALLDATASIZE ADD SLT PUSH2 0x46C JUMPI DUP1 MLOAD PUSH2 0x4CC SWAP2 PUSH2 0x2FA7 DUP3 PUSH2 0x31B6 JUMP JUMPDEST PUSH1 0x16 DUP3 MSTORE PUSH22 0x26B7BBB3B6349029B0B731BA3AB0B93C902A37B5B2B7 PUSH1 0x51 SHL PUSH1 0x20 DUP4 ADD MSTORE MLOAD SWAP2 DUP3 SWAP2 DUP3 PUSH2 0x308D JUMP JUMPDEST SWAP2 SWAP1 POP CALLVALUE PUSH2 0x105A JUMPI PUSH1 0x20 CALLDATASIZE PUSH1 0x3 NOT ADD SLT PUSH2 0x105A JUMPI CALLDATALOAD PUSH1 0x25 SLOAD DUP2 LT ISZERO PUSH2 0x105A JUMPI PUSH1 0x25 SWAP1 SWAP3 MSTORE PUSH1 0x0 DUP1 MLOAD PUSH1 0x20 PUSH2 0x4B5D DUP4 CODECOPY DUP2 MLOAD SWAP2 MSTORE SWAP1 SWAP2 ADD SLOAD PUSH1 0x1 PUSH1 0x1 PUSH1 0xA0 SHL SUB AND DUP2 MSTORE PUSH1 0x20 SWAP1 RETURN JUMPDEST PUSH1 0x7 SLOAD DUP2 LT ISZERO PUSH2 0x3052 JUMPI PUSH1 0x7 PUSH1 0x0 MSTORE PUSH32 0xA66CC928B5EDB82AF9BD49922954155AB7B0942694BEA4CE44661D9A8736C688 ADD SWAP1 PUSH1 0x0 SWAP1 JUMP JUMPDEST PUSH4 0x4E487B71 PUSH1 0xE0 SHL PUSH1 0x0 MSTORE PUSH1 0x32 PUSH1 0x4 MSTORE PUSH1 0x24 PUSH1 0x0 REVERT JUMPDEST PUSH1 0x25 SLOAD DUP2 LT ISZERO PUSH2 0x3052 JUMPI PUSH1 0x25 PUSH1 0x0 MSTORE PUSH1 0x0 DUP1 MLOAD PUSH1 0x20 PUSH2 0x4B5D DUP4 CODECOPY DUP2 MLOAD SWAP2 MSTORE ADD SWAP1 PUSH1 0x0 SWAP1 JUMP JUMPDEST PUSH1 0x20 DUP1 DUP3 MSTORE DUP3 MLOAD DUP2 DUP4 ADD DUP2 SWAP1 MSTORE SWAP1 SWAP4 SWAP3 PUSH1 0x0 JUMPDEST DUP3 DUP2 LT PUSH2 0x30C2 JUMPI POP POP PUSH1 0x40 SWAP3 SWAP4 POP PUSH1 0x0 DUP4 DUP3 DUP5 ADD ADD MSTORE PUSH1 0x1F DUP1 NOT SWAP2 ADD AND ADD ADD SWAP1 JUMP JUMPDEST DUP2 DUP2 ADD DUP7 ADD MLOAD DUP5 DUP3 ADD PUSH1 0x40 ADD MSTORE DUP6 ADD PUSH2 0x30A0 JUMP JUMPDEST PUSH1 0x4 CALLDATALOAD SWAP1 PUSH1 0x1 PUSH1 0x1 PUSH1 0xA0 SHL SUB DUP3 AND DUP3 SUB PUSH2 0x30EC JUMPI JUMP JUMPDEST PUSH1 0x0 DUP1 REVERT JUMPDEST PUSH1 0x24 CALLDATALOAD SWAP1 PUSH1 0x1 PUSH1 0x1 PUSH1 0xA0 SHL SUB DUP3 AND DUP3 SUB PUSH2 0x30EC JUMPI JUMP JUMPDEST PUSH1 0x60 SWAP1 PUSH1 0x3 NOT ADD SLT PUSH2 0x30EC JUMPI PUSH1 0x1 PUSH1 0x1 PUSH1 0xA0 SHL SUB SWAP1 PUSH1 0x4 CALLDATALOAD DUP3 DUP2 AND DUP2 SUB PUSH2 0x30EC JUMPI SWAP2 PUSH1 0x24 CALLDATALOAD SWAP1 DUP2 AND DUP2 SUB PUSH2 0x30EC JUMPI SWAP1 PUSH1 0x44 CALLDATALOAD SWAP1 JUMP JUMPDEST PUSH1 0x40 SWAP1 PUSH1 0x3 NOT ADD SLT PUSH2 0x30EC JUMPI PUSH1 0x4 CALLDATALOAD SWAP1 PUSH1 0x24 CALLDATALOAD SWAP1 JUMP JUMPDEST PUSH1 0x24 CALLDATALOAD SWAP1 DUP2 ISZERO ISZERO DUP3 SUB PUSH2 0x30EC JUMPI JUMP JUMPDEST PUSH1 0x4 CALLDATALOAD SWAP1 DUP2 ISZERO ISZERO DUP3 SUB PUSH2 0x30EC JUMPI JUMP JUMPDEST PUSH1 0x60 DUP2 ADD SWAP1 DUP2 LT PUSH8 0xFFFFFFFFFFFFFFFF DUP3 GT OR PUSH2 0x318C JUMPI PUSH1 0x40 MSTORE JUMP JUMPDEST PUSH4 0x4E487B71 PUSH1 0xE0 SHL PUSH1 0x0 MSTORE PUSH1 0x41 PUSH1 0x4 MSTORE PUSH1 0x24 PUSH1 0x0 REVERT JUMPDEST PUSH8 0xFFFFFFFFFFFFFFFF DUP2 GT PUSH2 0x318C JUMPI PUSH1 0x40 MSTORE JUMP JUMPDEST PUSH1 0x40 DUP2 ADD SWAP1 DUP2 LT PUSH8 0xFFFFFFFFFFFFFFFF DUP3 GT OR PUSH2 0x318C JUMPI PUSH1 0x40 MSTORE JUMP JUMPDEST SWAP1 PUSH1 0x1F DUP1 NOT SWAP2 ADD AND DUP2 ADD SWAP1 DUP2 LT PUSH8 0xFFFFFFFFFFFFFFFF DUP3 GT OR PUSH2 0x318C JUMPI PUSH1 0x40 MSTORE JUMP JUMPDEST PUSH1 0x60 PUSH1 0x3 NOT DUP3 ADD SLT PUSH2 0x30EC JUMPI PUSH1 0x4 CALLDATALOAD SWAP1 PUSH8 0xFFFFFFFFFFFFFFFF SWAP1 DUP2 DUP4 GT PUSH2 0x30EC JUMPI DUP1 PUSH1 0x23 DUP5 ADD SLT ISZERO PUSH2 0x30EC JUMPI DUP3 PUSH1 0x4 ADD CALLDATALOAD SWAP2 DUP3 GT PUSH2 0x318C JUMPI DUP2 PUSH1 0x5 SHL PUSH1 0x40 MLOAD SWAP4 PUSH1 0x20 SWAP4 PUSH2 0x3243 DUP6 DUP5 ADD DUP8 PUSH2 0x31D2 JUMP JUMPDEST DUP6 MSTORE PUSH1 0x24 DUP5 DUP7 ADD SWAP3 DUP3 ADD ADD SWAP3 DUP4 GT PUSH2 0x30EC JUMPI PUSH1 0x24 ADD SWAP1 JUMPDEST DUP3 DUP3 LT PUSH2 0x3279 JUMPI POP POP POP POP SWAP1 PUSH1 0x24 CALLDATALOAD DUP1 ISZERO ISZERO DUP2 SUB PUSH2 0x30EC JUMPI SWAP1 PUSH1 0x44 CALLDATALOAD SWAP1 JUMP JUMPDEST DUP2 CALLDATALOAD PUSH1 0x1 PUSH1 0x1 PUSH1 0xA0 SHL SUB DUP2 AND DUP2 SUB PUSH2 0x30EC JUMPI DUP2 MSTORE SWAP1 DUP4 ADD SWAP1 DUP4 ADD PUSH2 0x325A JUMP JUMPDEST PUSH1 0x28 SLOAD DUP2 LT ISZERO PUSH2 0x3052 JUMPI PUSH1 0x3 SWAP1 PUSH1 0x28 PUSH1 0x0 MSTORE MUL PUSH32 0xE16DA923A2D88192E5070F37B4571D58682C0D66212EC634D495F33DE3F77AB5 ADD SWAP1 PUSH1 0x0 SWAP1 JUMP JUMPDEST SWAP1 DUP2 PUSH1 0x20 SWAP2 SUB SLT PUSH2 0x30EC JUMPI MLOAD PUSH1 0x1 PUSH1 0x1 PUSH1 0xA0 SHL SUB DUP2 AND DUP2 SUB PUSH2 0x30EC JUMPI SWAP1 JUMP JUMPDEST DUP2 DUP2 MUL SWAP3 SWAP2 DUP2 ISZERO SWAP2 DUP5 DIV EQ OR ISZERO PUSH2 0x3305 JUMPI JUMP JUMPDEST PUSH4 0x4E487B71 PUSH1 0xE0 SHL PUSH1 0x0 MSTORE PUSH1 0x11 PUSH1 0x4 MSTORE PUSH1 0x24 PUSH1 0x0 REVERT JUMPDEST SWAP2 SWAP1 DUP3 SUB SWAP2 DUP3 GT PUSH2 0x3305 JUMPI JUMP JUMPDEST PUSH1 0x0 NOT DUP2 EQ PUSH2 0x3305 JUMPI PUSH1 0x1 ADD SWAP1 JUMP JUMPDEST ISZERO PUSH2 0x333E JUMPI JUMP JUMPDEST PUSH1 0x40 MLOAD PUSH3 0x461BCD PUSH1 0xE5 SHL DUP2 MSTORE PUSH1 0x20 PUSH1 0x4 DUP3 ADD MSTORE PUSH1 0x2E PUSH1 0x24 DUP3 ADD MSTORE PUSH32 0x496E697469616C697A61626C653A20636F6E747261637420697320616C726561 PUSH1 0x44 DUP3 ADD MSTORE PUSH14 0x191E481A5B9A5D1A585B1A5E9959 PUSH1 0x92 SHL PUSH1 0x64 DUP3 ADD MSTORE PUSH1 0x84 SWAP1 REVERT JUMPDEST PUSH1 0x2A SLOAD PUSH1 0xFF DUP2 PUSH1 0x8 SHR AND PUSH1 0x0 EQ PUSH2 0x33BC JUMPI POP PUSH2 0x33B7 ADDRESS EXTCODESIZE ISZERO PUSH2 0x3337 JUMP JUMPDEST PUSH1 0x0 SWAP1 JUMP JUMPDEST DUP1 PUSH2 0x33CD PUSH1 0x1 PUSH1 0xFF DUP2 SWAP5 AND LT PUSH2 0x3337 JUMP JUMPDEST PUSH1 0xFF NOT AND OR PUSH1 0x2A SSTORE PUSH1 0x1 SWAP1 JUMP JUMPDEST PUSH1 0x1 PUSH1 0x1 PUSH1 0xA0 SHL SUB AND PUSH1 0x0 SWAP1 DUP2 MSTORE PUSH1 0x4 PUSH1 0x20 MSTORE PUSH1 0x40 SWAP1 KECCAK256 SLOAD PUSH1 0xFF AND PUSH2 0x340F JUMPI PUSH1 0x0 PUSH1 0x20 MSTORE PUSH2 0x340C PUSH1 0x40 PUSH1 0x0 KECCAK256 SLOAD PUSH2 0x34BA JUMP JUMPDEST SWAP1 JUMP JUMPDEST PUSH1 0x1 PUSH1 0x20 MSTORE PUSH1 0x40 PUSH1 0x0 KECCAK256 SLOAD SWAP1 JUMP JUMPDEST SWAP2 SWAP1 DUP3 ADD DUP1 SWAP3 GT PUSH2 0x3305 JUMPI JUMP JUMPDEST SWAP1 PUSH1 0xE SLOAD DUP3 GT PUSH2 0x3455 JUMPI PUSH2 0x3445 JUMPI PUSH2 0x3441 SWAP1 PUSH2 0x35BC JUMP JUMPDEST MLOAD SWAP1 JUMP JUMPDEST PUSH2 0x3450 PUSH1 0x20 SWAP2 PUSH2 0x35BC JUMP JUMPDEST ADD MLOAD SWAP1 JUMP JUMPDEST PUSH1 0x40 MLOAD PUSH3 0x461BCD PUSH1 0xE5 SHL DUP2 MSTORE PUSH1 0x20 PUSH1 0x4 DUP3 ADD MSTORE PUSH1 0x1F PUSH1 0x24 DUP3 ADD MSTORE PUSH32 0x416D6F756E74206D757374206265206C657373207468616E20737570706C7900 PUSH1 0x44 DUP3 ADD MSTORE PUSH1 0x64 SWAP1 REVERT JUMPDEST DUP2 ISZERO PUSH2 0x34A4 JUMPI DIV SWAP1 JUMP JUMPDEST PUSH4 0x4E487B71 PUSH1 0xE0 SHL PUSH1 0x0 MSTORE PUSH1 0x12 PUSH1 0x4 MSTORE PUSH1 0x24 PUSH1 0x0 REVERT JUMPDEST PUSH1 0xF SLOAD DUP2 GT PUSH2 0x34D2 JUMPI PUSH2 0x340C SWAP1 PUSH2 0x2D8F PUSH2 0x2D8F PUSH2 0x388E JUMP JUMPDEST PUSH1 0x40 MLOAD PUSH3 0x461BCD PUSH1 0xE5 SHL DUP2 MSTORE PUSH1 0x20 PUSH1 0x4 DUP3 ADD MSTORE PUSH1 0x2A PUSH1 0x24 DUP3 ADD MSTORE PUSH32 0x416D6F756E74206D757374206265206C657373207468616E20746F74616C2072 PUSH1 0x44 DUP3 ADD MSTORE PUSH10 0x65666C656374696F6E73 PUSH1 0xB0 SHL PUSH1 0x64 DUP3 ADD MSTORE PUSH1 0x84 SWAP1 REVERT JUMPDEST ISZERO PUSH2 0x3531 JUMPI JUMP JUMPDEST PUSH1 0x40 MLOAD PUSH3 0x461BCD PUSH1 0xE5 SHL DUP2 MSTORE PUSH1 0x20 PUSH1 0x4 DUP3 ADD MSTORE PUSH1 0xC PUSH1 0x24 DUP3 ADD MSTORE PUSH12 0x3737BA1030B71037BBB732B9 PUSH1 0xA1 SHL PUSH1 0x44 DUP3 ADD MSTORE PUSH1 0x64 SWAP1 REVERT JUMPDEST PUSH1 0x40 MLOAD SWAP1 PUSH2 0x120 DUP3 ADD DUP3 DUP2 LT PUSH8 0xFFFFFFFFFFFFFFFF DUP3 GT OR PUSH2 0x318C JUMPI PUSH1 0x40 MSTORE DUP2 PUSH2 0x100 PUSH1 0x0 SWAP2 DUP3 DUP2 MSTORE DUP3 PUSH1 0x20 DUP3 ADD MSTORE DUP3 PUSH1 0x40 DUP3 ADD MSTORE DUP3 PUSH1 0x60 DUP3 ADD MSTORE DUP3 PUSH1 0x80 DUP3 ADD MSTORE DUP3 PUSH1 0xA0 DUP3 ADD MSTORE DUP3 PUSH1 0xC0 DUP3 ADD MSTORE DUP3 PUSH1 0xE0 DUP3 ADD MSTORE ADD MSTORE JUMP JUMPDEST PUSH2 0x35C4 PUSH2 0x3565 JUMP JUMPDEST POP PUSH2 0x35CD PUSH2 0x3565 JUMP JUMPDEST SWAP1 PUSH1 0x0 PUSH1 0x40 DUP1 MLOAD PUSH2 0x35DD DUP2 PUSH2 0x3170 JUMP JUMPDEST DUP3 DUP2 MSTORE DUP3 PUSH1 0x20 DUP3 ADD MSTORE ADD MSTORE PUSH2 0x35F0 PUSH2 0x36B9 JUMP JUMPDEST SWAP1 PUSH1 0x64 PUSH2 0x35FE DUP4 MLOAD DUP4 PUSH2 0x32F2 JUMP JUMPDEST DIV SWAP2 PUSH1 0xC0 DUP5 ADD SWAP3 DUP4 MSTORE PUSH2 0x368C PUSH2 0x3677 PUSH2 0x3685 PUSH1 0x64 PUSH2 0x3637 PUSH1 0x40 DUP3 PUSH2 0x3626 PUSH1 0x20 DUP10 ADD MLOAD DUP11 PUSH2 0x32F2 JUMP JUMPDEST DIV SWAP7 PUSH1 0xE0 DUP12 ADD SWAP8 DUP9 MSTORE ADD MLOAD DUP8 PUSH2 0x32F2 JUMP JUMPDEST DIV SWAP5 PUSH2 0x100 DUP9 ADD SWAP6 DUP7 MSTORE PUSH2 0x365A PUSH2 0x3652 PUSH2 0x3652 DUP10 MLOAD DUP5 PUSH2 0x331B JUMP JUMPDEST DUP8 MLOAD SWAP1 PUSH2 0x331B JUMP JUMPDEST PUSH1 0xA0 DUP10 ADD MSTORE PUSH2 0x367E PUSH2 0x366D PUSH2 0x2D8F PUSH2 0x388E JUMP JUMPDEST DUP1 SWAP5 DUP2 DUP1 SWAP5 PUSH2 0x32F2 JUMP JUMPDEST SWAP9 MLOAD PUSH2 0x32F2 JUMP JUMPDEST SWAP5 MLOAD PUSH2 0x32F2 JUMP JUMPDEST SWAP4 MLOAD PUSH2 0x32F2 JUMP JUMPDEST SWAP2 PUSH2 0x369F DUP4 PUSH2 0x28BB DUP4 PUSH2 0x28BB DUP7 DUP10 PUSH2 0x331B JUMP JUMPDEST SWAP3 PUSH1 0x80 DUP7 ADD MSTORE PUSH1 0x60 DUP6 ADD MSTORE PUSH1 0x40 DUP5 ADD MSTORE PUSH1 0x20 DUP4 ADD MSTORE DUP2 MSTORE SWAP1 JUMP JUMPDEST PUSH1 0x40 MLOAD SWAP1 PUSH2 0x36C6 DUP3 PUSH2 0x3170 JUMP JUMPDEST PUSH1 0x1C SLOAD DUP3 MSTORE PUSH1 0x1D SLOAD PUSH1 0x20 DUP4 ADD MSTORE PUSH1 0x1E SLOAD PUSH1 0x40 DUP4 ADD MSTORE JUMP JUMPDEST PUSH1 0x40 MLOAD SWAP1 PUSH2 0x36EA DUP3 PUSH2 0x3170 JUMP JUMPDEST DUP2 PUSH1 0x1F SLOAD DUP2 MSTORE PUSH1 0x20 SLOAD PUSH1 0x20 DUP3 ADD MSTORE PUSH1 0x40 PUSH1 0x21 SLOAD SWAP2 ADD MSTORE JUMP JUMPDEST SWAP1 SWAP3 PUSH2 0x370C PUSH2 0x3565 JUMP JUMPDEST SWAP4 ISZERO PUSH2 0x37ED JUMPI PUSH2 0x37A0 SWAP3 PUSH1 0x0 PUSH1 0x40 DUP1 MLOAD PUSH2 0x3725 DUP2 PUSH2 0x3170 JUMP JUMPDEST DUP3 DUP2 MSTORE DUP3 PUSH1 0x20 DUP3 ADD MSTORE ADD MSTORE DUP1 PUSH2 0x37E5 JUMPI JUMPDEST ISZERO PUSH2 0x37A8 JUMPI POP PUSH2 0x3798 PUSH2 0x3747 PUSH2 0x36DD JUMP JUMPDEST PUSH2 0x3798 PUSH1 0x64 PUSH2 0x3757 DUP4 MLOAD DUP7 PUSH2 0x32F2 JUMP JUMPDEST DIV SWAP4 PUSH1 0xC0 DUP8 ADD SWAP5 DUP6 MSTORE PUSH1 0x64 PUSH2 0x3787 PUSH1 0x40 DUP3 PUSH2 0x3776 PUSH1 0x20 DUP9 ADD MLOAD DUP7 PUSH2 0x32F2 JUMP JUMPDEST DIV SWAP6 PUSH1 0xE0 DUP12 ADD SWAP7 DUP8 MSTORE ADD MLOAD DUP4 PUSH2 0x32F2 JUMP JUMPDEST DIV SWAP5 PUSH2 0x100 DUP9 ADD SWAP6 DUP7 MSTORE MLOAD SWAP1 PUSH2 0x331B JUMP JUMPDEST SWAP1 MLOAD SWAP1 PUSH2 0x331B JUMP JUMPDEST PUSH1 0xA0 DUP3 ADD MSTORE SWAP1 JUMP JUMPDEST PUSH2 0x37BC JUMPI PUSH2 0x3798 PUSH2 0x37B7 PUSH2 0x36B9 JUMP JUMPDEST PUSH2 0x3747 JUMP JUMPDEST PUSH2 0x3798 PUSH1 0x40 MLOAD PUSH2 0x37CB DUP2 PUSH2 0x3170 JUMP JUMPDEST PUSH1 0x19 SLOAD DUP2 MSTORE PUSH1 0x1A SLOAD PUSH1 0x20 DUP3 ADD MSTORE PUSH1 0x1B SLOAD PUSH1 0x40 DUP3 ADD MSTORE PUSH2 0x3747 JUMP JUMPDEST POP DUP1 ISZERO PUSH2 0x3736 JUMP JUMPDEST POP PUSH1 0xA0 DUP4 ADD MSTORE POP SWAP1 JUMP JUMPDEST SWAP2 SWAP4 SWAP1 DUP4 PUSH2 0x3804 SWAP2 PUSH2 0x32F2 JUMP JUMPDEST SWAP4 DUP5 SWAP1 ISZERO PUSH2 0x3851 JUMPI POP PUSH2 0x3838 PUSH2 0x381E DUP5 PUSH1 0xC0 DUP6 ADD MLOAD PUSH2 0x32F2 JUMP JUMPDEST SWAP4 PUSH2 0x100 PUSH2 0x3830 DUP3 PUSH1 0xE0 DUP8 ADD MLOAD PUSH2 0x32F2 JUMP JUMPDEST SWAP5 ADD MLOAD PUSH2 0x32F2 JUMP JUMPDEST SWAP1 PUSH2 0x384B DUP3 PUSH2 0x28BB DUP6 PUSH2 0x28BB DUP9 DUP11 PUSH2 0x331B JUMP JUMPDEST SWAP4 SWAP3 SWAP2 SWAP1 JUMP JUMPDEST SWAP3 POP PUSH1 0x0 SWAP2 POP DUP2 SWAP1 DUP2 SWAP1 JUMP JUMPDEST DUP1 MLOAD ISZERO PUSH2 0x3052 JUMPI PUSH1 0x20 ADD SWAP1 JUMP JUMPDEST DUP1 MLOAD PUSH1 0x1 LT ISZERO PUSH2 0x3052 JUMPI PUSH1 0x40 ADD SWAP1 JUMP JUMPDEST DUP1 MLOAD DUP3 LT ISZERO PUSH2 0x3052 JUMPI PUSH1 0x20 SWAP2 PUSH1 0x5 SHL ADD ADD SWAP1 JUMP JUMPDEST PUSH1 0xF SLOAD SWAP1 DUP2 PUSH1 0xE SLOAD SWAP3 DUP4 SWAP1 PUSH1 0x40 SWAP3 DUP4 MLOAD SWAP2 DUP3 SWAP1 PUSH1 0x7 SLOAD SWAP5 DUP6 DUP6 MSTORE PUSH1 0x20 DUP1 SWAP6 ADD SWAP6 DUP4 PUSH1 0x0 SWAP8 PUSH1 0x7 DUP10 MSTORE PUSH32 0xA66CC928B5EDB82AF9BD49922954155AB7B0942694BEA4CE44661D9A8736C688 SWAP3 DUP10 JUMPDEST DUP10 DUP3 DUP3 LT PUSH2 0x39CC JUMPI POP POP POP PUSH2 0x38F1 SWAP3 POP SUB DUP5 PUSH2 0x31D2 JUMP JUMPDEST DUP6 SWAP9 JUMPDEST DUP4 MLOAD DUP11 LT ISZERO PUSH2 0x39A6 JUMPI PUSH1 0x1 PUSH1 0x1 PUSH1 0xA0 SHL SUB SWAP3 DUP4 PUSH2 0x3911 DUP13 DUP8 PUSH2 0x387A JUMP JUMPDEST MLOAD AND DUP9 MSTORE DUP8 DUP8 MSTORE DUP1 DUP10 DUP10 KECCAK256 SLOAD GT DUP1 ISZERO PUSH2 0x3987 JUMPI JUMPDEST PUSH2 0x3979 JUMPI PUSH2 0x3973 SWAP2 PUSH2 0x3950 PUSH2 0x396D SWAP3 DUP7 PUSH2 0x393F DUP16 DUP11 PUSH2 0x387A JUMP JUMPDEST MLOAD AND DUP12 MSTORE DUP11 DUP11 MSTORE DUP12 DUP12 KECCAK256 SLOAD SWAP1 PUSH2 0x331B JUMP JUMPDEST SWAP5 PUSH2 0x395B DUP14 DUP9 PUSH2 0x387A JUMP JUMPDEST MLOAD AND DUP10 MSTORE PUSH1 0x1 DUP9 MSTORE DUP10 DUP10 KECCAK256 SLOAD SWAP1 PUSH2 0x331B JUMP JUMPDEST SWAP10 PUSH2 0x3328 JUMP JUMPDEST SWAP9 PUSH2 0x38F4 JUMP JUMPDEST POP POP SWAP8 POP POP POP SWAP3 POP POP POP SWAP2 SWAP1 JUMP JUMPDEST POP DUP4 PUSH2 0x3993 DUP13 DUP8 PUSH2 0x387A JUMP JUMPDEST MLOAD AND DUP9 MSTORE PUSH1 0x1 DUP8 MSTORE DUP2 DUP10 DUP10 KECCAK256 SLOAD GT PUSH2 0x3925 JUMP JUMPDEST SWAP9 POP SWAP5 POP SWAP5 POP POP SWAP1 POP PUSH2 0x39B9 DUP3 DUP3 PUSH2 0x349A JUMP JUMPDEST DUP4 LT PUSH2 0x39C5 JUMPI POP POP SWAP2 SWAP1 JUMP JUMPDEST SWAP4 POP SWAP2 SWAP1 POP JUMP JUMPDEST DUP6 SLOAD PUSH1 0x1 PUSH1 0x1 PUSH1 0xA0 SHL SUB AND DUP5 MSTORE PUSH1 0x1 SWAP6 DUP7 ADD SWAP6 DUP10 SWAP6 POP SWAP4 ADD SWAP3 ADD PUSH2 0x38DA JUMP JUMPDEST PUSH1 0x1 PUSH1 0x1 PUSH1 0xA0 SHL SUB SWAP1 DUP2 AND SWAP2 DUP3 ISZERO PUSH2 0x3A9C JUMPI AND SWAP2 DUP3 ISZERO PUSH2 0x3A4C JUMPI PUSH1 0x20 PUSH32 0x8C5BE1E5EBEC7D5BD14F71427D1E84F3DD0314C0F7B2291E5B200AC8C7C3B925 SWAP2 DUP4 PUSH1 0x0 MSTORE PUSH1 0x2 DUP3 MSTORE PUSH1 0x40 PUSH1 0x0 KECCAK256 DUP6 PUSH1 0x0 MSTORE DUP3 MSTORE DUP1 PUSH1 0x40 PUSH1 0x0 KECCAK256 SSTORE PUSH1 0x40 MLOAD SWAP1 DUP2 MSTORE LOG3 JUMP JUMPDEST PUSH1 0x40 MLOAD PUSH3 0x461BCD PUSH1 0xE5 SHL DUP2 MSTORE PUSH1 0x20 PUSH1 0x4 DUP3 ADD MSTORE PUSH1 0x22 PUSH1 0x24 DUP3 ADD MSTORE PUSH32 0x45524332303A20617070726F766520746F20746865207A65726F206164647265 PUSH1 0x44 DUP3 ADD MSTORE PUSH2 0x7373 PUSH1 0xF0 SHL PUSH1 0x64 DUP3 ADD MSTORE PUSH1 0x84 SWAP1 REVERT JUMPDEST PUSH1 0x40 MLOAD PUSH3 0x461BCD PUSH1 0xE5 SHL DUP2 MSTORE PUSH1 0x20 PUSH1 0x4 DUP3 ADD MSTORE PUSH1 0x24 DUP1 DUP3 ADD MSTORE PUSH32 0x45524332303A20617070726F76652066726F6D20746865207A65726F20616464 PUSH1 0x44 DUP3 ADD MSTORE PUSH4 0x72657373 PUSH1 0xE0 SHL PUSH1 0x64 DUP3 ADD MSTORE PUSH1 0x84 SWAP1 REVERT JUMPDEST ISZERO PUSH2 0x3AF4 JUMPI JUMP JUMPDEST PUSH1 0x64 PUSH1 0x40 MLOAD PUSH3 0x461BCD PUSH1 0xE5 SHL DUP2 MSTORE PUSH1 0x20 PUSH1 0x4 DUP3 ADD MSTORE PUSH1 0x20 PUSH1 0x24 DUP3 ADD MSTORE PUSH32 0x596F752061726520657863656564696E67206D617857616C6C65744C696D6974 PUSH1 0x44 DUP3 ADD MSTORE REVERT JUMPDEST SWAP2 PUSH1 0x1 PUSH1 0x1 PUSH1 0xA0 SHL SUB DUP4 AND SWAP2 SWAP1 PUSH1 0x0 DUP4 ISZERO PUSH2 0x4870 JUMPI PUSH1 0x1 PUSH1 0x1 PUSH1 0xA0 SHL SUB DUP4 AND SWAP5 DUP6 ISZERO PUSH2 0x481F JUMPI DUP3 ISZERO PUSH2 0x47C8 JUMPI PUSH2 0x3B6D SWAP1 PUSH2 0x33DA JUMP JUMPDEST DUP3 GT PUSH2 0x4769 JUMPI DUP4 DUP2 MSTORE PUSH1 0x20 PUSH1 0x80 MSTORE PUSH1 0x6 PUSH1 0x20 MSTORE PUSH1 0x40 SWAP3 PUSH1 0xFF DUP5 DUP4 KECCAK256 SLOAD AND ISZERO DUP1 PUSH2 0x4758 JUMPI JUMPDEST ISZERO PUSH2 0x4723 JUMPI PUSH1 0xD SLOAD PUSH1 0x1 PUSH1 0x1 PUSH1 0xA0 SHL SUB AND DUP6 DUP2 EQ DUP1 DUP1 PUSH2 0x470C JUMPI JUMPDEST DUP1 PUSH2 0x46FC JUMPI JUMPDEST PUSH2 0x4699 JUMPI JUMPDEST ISZERO DUP1 PUSH2 0x4682 JUMPI JUMPDEST DUP1 PUSH2 0x466B JUMPI JUMPDEST DUP1 PUSH2 0x465B JUMPI JUMPDEST PUSH2 0x4560 JUMPI JUMPDEST POP POP PUSH2 0x3BDA ADDRESS PUSH2 0x33DA JUMP JUMPDEST PUSH1 0x10 SLOAD SWAP1 PUSH1 0x8 SLOAD SWAP1 DUP3 PUSH1 0xFF DUP4 PUSH1 0x10 SHR AND ISZERO SWAP2 DUP3 PUSH2 0x4551 JUMPI JUMPDEST DUP3 PUSH2 0x4546 JUMPI JUMPDEST POP POP DUP1 PUSH2 0x4531 JUMPI JUMPDEST DUP1 PUSH2 0x451A JUMPI JUMPDEST DUP1 PUSH2 0x4503 JUMPI JUMPDEST PUSH2 0x3F6A JUMPI JUMPDEST POP POP PUSH1 0x0 DUP1 MLOAD PUSH1 0x20 PUSH2 0x4BBD DUP4 CODECOPY DUP2 MLOAD SWAP2 MSTORE SWAP3 SWAP2 PUSH1 0xA0 SWAP2 PUSH1 0x1 SWAP2 DUP2 PUSH1 0xFF PUSH1 0x8 SLOAD PUSH1 0x10 SHR AND DUP1 ISZERO PUSH2 0x3F54 JUMPI JUMPDEST DUP1 ISZERO PUSH2 0x3F3E JUMPI JUMPDEST PUSH2 0x3F35 JUMPI JUMPDEST PUSH1 0x1 DUP1 DUP7 SHL SUB PUSH1 0xD SLOAD AND DUP10 EQ PUSH2 0x3F2D JUMPI JUMPDEST PUSH2 0x3CA4 PUSH2 0x3C90 PUSH2 0x3D26 SWAP3 DUP11 DUP7 MSTORE PUSH1 0x3 PUSH1 0x80 MLOAD MSTORE PUSH1 0xFF DUP10 DUP8 KECCAK256 SLOAD AND ISZERO SWAP1 DUP2 PUSH2 0x3F1B JUMPI JUMPDEST DUP2 PUSH2 0x3F01 JUMPI JUMPDEST PUSH2 0x3C88 PUSH2 0x3565 JUMP JUMPDEST POP DUP8 DUP7 PUSH2 0x3702 JUMP JUMPDEST SWAP5 PUSH2 0x3C9C PUSH2 0x2D8F PUSH2 0x388E JUMP JUMPDEST SWAP1 DUP5 DUP8 PUSH2 0x37F7 JUMP JUMPDEST SWAP5 SWAP3 SWAP2 SWAP4 PUSH1 0x80 SWAP7 SWAP2 SWAP7 MLOAD DUP10 ADD SWAP3 DUP12 DUP11 ADD SWAP6 PUSH1 0x60 DUP12 ADD SWAP9 PUSH1 0x80 DUP13 ADD SWAP9 DUP10 MSTORE DUP10 MSTORE DUP7 MSTORE DUP4 MSTORE DUP9 MSTORE DUP12 DUP8 MSTORE PUSH1 0x4 PUSH1 0x80 MLOAD MSTORE PUSH1 0xFF DUP11 DUP9 KECCAK256 SLOAD AND PUSH2 0x3EDB JUMPI JUMPDEST POP DUP12 DUP7 MSTORE PUSH1 0x4 PUSH1 0x80 MLOAD MSTORE PUSH1 0xFF DUP10 DUP8 KECCAK256 SLOAD AND PUSH2 0x3EB2 JUMPI JUMPDEST DUP11 DUP7 MSTORE DUP6 PUSH1 0x80 MLOAD MSTORE PUSH2 0x3D0B DUP10 DUP8 KECCAK256 SLOAD DUP9 MLOAD SWAP1 PUSH2 0x331B JUMP JUMPDEST DUP12 DUP8 MSTORE DUP7 PUSH1 0x80 MLOAD MSTORE DUP10 DUP8 KECCAK256 SSTORE DUP12 DUP7 MSTORE DUP9 DUP7 KECCAK256 SLOAD SWAP1 MLOAD SWAP1 PUSH2 0x341D JUMP JUMPDEST DUP11 DUP6 MSTORE DUP5 PUSH1 0x80 MLOAD MSTORE DUP8 DUP6 KECCAK256 SSTORE MLOAD DUP1 ISZERO DUP1 ISZERO SWAP1 PUSH2 0x3EA5 JUMPI JUMPDEST PUSH2 0x3E7C JUMPI JUMPDEST POP MLOAD DUP1 ISZERO DUP1 ISZERO SWAP1 PUSH2 0x3E6E JUMPI JUMPDEST PUSH2 0x3DE9 JUMPI JUMPDEST POP MLOAD SWAP1 DUP5 DUP3 ISZERO DUP1 ISZERO SWAP1 PUSH2 0x3DDC JUMPI JUMPDEST PUSH2 0x3D77 JUMPI JUMPDEST POP POP POP ADD MLOAD SWAP1 MLOAD SWAP1 DUP2 MSTORE PUSH1 0x80 MLOAD SWAP1 LOG3 JUMP JUMPDEST PUSH2 0x3DB6 SWAP2 PUSH1 0xE0 DUP6 ADD MLOAD PUSH2 0x3D8C DUP2 PUSH1 0x23 SLOAD PUSH2 0x341D JUMP JUMPDEST PUSH1 0x23 SSTORE ADDRESS DUP3 MSTORE PUSH1 0x4 PUSH1 0x80 MLOAD MSTORE PUSH1 0xFF DUP4 DUP4 KECCAK256 SLOAD AND PUSH2 0x3DC0 JUMPI JUMPDEST POP ADDRESS DUP2 MSTORE DUP1 PUSH1 0x80 MLOAD MSTORE KECCAK256 SWAP2 DUP3 SLOAD PUSH2 0x341D JUMP JUMPDEST SWAP1 SSTORE CODESIZE DUP1 DUP5 PUSH2 0x3D66 JUMP JUMPDEST PUSH1 0x1 PUSH1 0x80 MLOAD MSTORE PUSH2 0x3DD4 DUP4 DUP4 KECCAK256 SWAP2 DUP3 SLOAD PUSH2 0x341D JUMP JUMPDEST SWAP1 SSTORE CODESIZE PUSH2 0x3DA4 JUMP JUMPDEST POP PUSH1 0xE0 DUP5 ADD MLOAD ISZERO ISZERO PUSH2 0x3D61 JUMP JUMPDEST PUSH2 0x3E3E SWAP1 PUSH2 0x100 DUP6 ADD SWAP1 DUP2 MLOAD PUSH2 0x3E01 DUP2 PUSH1 0x24 SLOAD PUSH2 0x341D JUMP JUMPDEST PUSH1 0x24 SSTORE ADDRESS DUP7 MSTORE PUSH1 0x4 PUSH1 0x80 MLOAD MSTORE PUSH1 0xFF DUP10 DUP8 KECCAK256 SLOAD AND PUSH2 0x3E52 JUMPI JUMPDEST POP ADDRESS DUP6 MSTORE DUP5 PUSH1 0x80 MLOAD MSTORE PUSH2 0x3E30 DUP9 DUP7 KECCAK256 SWAP2 DUP3 SLOAD PUSH2 0x341D JUMP JUMPDEST SWAP1 SSTORE MLOAD PUSH1 0xE0 DUP6 ADD MLOAD SWAP1 PUSH2 0x341D JUMP JUMPDEST DUP6 MLOAD SWAP1 DUP2 MSTORE DUP8 DUP8 ADDRESS SWAP3 PUSH1 0x80 MLOAD SWAP1 LOG3 CODESIZE PUSH2 0x3D53 JUMP JUMPDEST PUSH1 0x1 PUSH1 0x80 MLOAD MSTORE PUSH2 0x3E66 DUP10 DUP8 KECCAK256 SWAP2 DUP3 SLOAD PUSH2 0x341D JUMP JUMPDEST SWAP1 SSTORE CODESIZE PUSH2 0x3E19 JUMP JUMPDEST POP PUSH2 0x100 DUP5 ADD MLOAD ISZERO ISZERO PUSH2 0x3D4E JUMP JUMPDEST PUSH2 0x3E9C SWAP1 PUSH2 0x3E91 PUSH1 0xC0 DUP8 ADD MLOAD SWAP2 PUSH1 0xF SLOAD PUSH2 0x331B JUMP JUMPDEST PUSH1 0xF SSTORE PUSH1 0x22 SLOAD PUSH2 0x341D JUMP JUMPDEST PUSH1 0x22 SSTORE CODESIZE PUSH2 0x3D42 JUMP JUMPDEST POP PUSH1 0xC0 DUP6 ADD MLOAD ISZERO ISZERO PUSH2 0x3D3D JUMP JUMPDEST PUSH1 0x1 PUSH1 0x80 MLOAD MSTORE PUSH2 0x3EC9 DUP10 DUP8 KECCAK256 SLOAD DUP10 DUP10 ADD MLOAD SWAP1 PUSH2 0x341D JUMP JUMPDEST DUP13 DUP8 MSTORE PUSH1 0x1 PUSH1 0x80 MLOAD MSTORE DUP10 DUP8 KECCAK256 SSTORE PUSH2 0x3CF4 JUMP JUMPDEST PUSH2 0x3EEE SWAP1 PUSH1 0x1 PUSH1 0x80 MLOAD MSTORE DUP11 DUP9 KECCAK256 SLOAD PUSH2 0x331B JUMP JUMPDEST DUP12 DUP8 MSTORE PUSH1 0x1 PUSH1 0x80 MLOAD MSTORE DUP10 DUP8 KECCAK256 SSTORE CODESIZE PUSH2 0x3CDE JUMP JUMPDEST SWAP1 POP PUSH2 0x3F12 PUSH1 0x14 SLOAD PUSH1 0x15 SLOAD SWAP1 PUSH2 0x341D JUMP JUMPDEST NUMBER GT ISZERO SWAP1 PUSH2 0x3C80 JUMP JUMPDEST DUP13 DUP8 MSTORE DUP10 DUP8 KECCAK256 SLOAD PUSH1 0xFF AND ISZERO SWAP2 POP PUSH2 0x3C7A JUMP JUMPDEST POP PUSH1 0x1 PUSH2 0x3C58 JUMP JUMPDEST SWAP3 POP DUP2 SWAP3 PUSH2 0x3C47 JUMP JUMPDEST POP DUP9 DUP4 MSTORE PUSH1 0x3 PUSH1 0x80 MLOAD MSTORE PUSH1 0xFF DUP7 DUP5 KECCAK256 SLOAD AND PUSH2 0x3C42 JUMP JUMPDEST POP DUP8 DUP4 MSTORE PUSH1 0x3 PUSH1 0x80 MLOAD MSTORE PUSH1 0xFF DUP7 DUP5 KECCAK256 SLOAD AND PUSH2 0x3C3B JUMP JUMPDEST PUSH1 0xD SLOAD PUSH1 0x1 PUSH1 0x1 PUSH1 0xA0 SHL SUB AND DUP8 SUB PUSH2 0x4290 JUMPI POP POP PUSH1 0x10 SLOAD PUSH2 0x3F89 PUSH2 0x36DD JUMP JUMPDEST PUSH3 0x10000 PUSH3 0xFF0000 NOT PUSH1 0x8 SLOAD AND OR PUSH1 0x8 SSTORE PUSH2 0x3FAD DUP6 DUP3 ADD MLOAD PUSH1 0x80 MLOAD DUP4 ADD MLOAD SWAP1 PUSH2 0x341D JUMP JUMPDEST DUP1 DUP1 PUSH1 0x1 SHL DIV PUSH1 0x2 EQ DUP2 ISZERO OR ISZERO PUSH2 0x427C JUMPI PUSH2 0x3FE1 PUSH2 0x3FDA DUP3 PUSH1 0x1 SHL PUSH2 0x3FD5 DUP10 DUP7 ADD MLOAD DUP8 PUSH2 0x32F2 JUMP JUMPDEST PUSH2 0x349A JUMP JUMPDEST DUP1 SWAP5 PUSH2 0x331B JUMP JUMPDEST DUP7 MLOAD SELFBALANCE SWAP2 PUSH2 0x3FEE DUP3 PUSH2 0x3170 JUMP JUMPDEST PUSH1 0x2 DUP3 MSTORE DUP9 CALLDATASIZE PUSH1 0x80 MLOAD DUP5 ADD CALLDATACOPY ADDRESS PUSH2 0x4004 DUP4 PUSH2 0x385D JUMP JUMPDEST MSTORE PUSH1 0xC SLOAD DUP10 MLOAD PUSH4 0x15AB88C9 PUSH1 0xE3 SHL DUP2 MSTORE PUSH1 0x80 MLOAD PUSH1 0x1 PUSH1 0x1 PUSH1 0xA0 SHL SUB SWAP1 SWAP3 AND SWAP2 DUP2 PUSH1 0x4 DUP2 DUP6 GAS STATICCALL SWAP1 DUP2 ISZERO PUSH2 0x4272 JUMPI SWAP2 DUP4 SWAP2 PUSH2 0x405C SWAP4 DUP12 SWAP2 PUSH2 0x4253 JUMPI JUMPDEST POP PUSH2 0x4049 DUP7 PUSH2 0x386A JUMP JUMPDEST PUSH1 0x1 PUSH1 0x1 PUSH1 0xA0 SHL SUB SWAP1 SWAP2 AND SWAP1 MSTORE ADDRESS PUSH2 0x39EB JUMP JUMPDEST PUSH1 0xC SLOAD PUSH1 0x1 PUSH1 0x1 PUSH1 0xA0 SHL SUB AND SWAP1 DUP2 EXTCODESIZE ISZERO PUSH2 0x424F JUMPI SWAP2 DUP8 SWAP2 PUSH2 0x40A6 SWAP4 DUP4 DUP13 MLOAD DUP1 SWAP7 DUP2 SWAP6 DUP3 SWAP5 PUSH4 0x791AC947 PUSH1 0xE0 SHL DUP5 MSTORE PUSH1 0x4 DUP5 ADD MSTORE DUP4 PUSH1 0x24 DUP5 ADD MSTORE PUSH1 0xA0 PUSH1 0x44 DUP5 ADD MSTORE PUSH1 0xA4 DUP4 ADD SWAP1 PUSH2 0x49E6 JUMP JUMPDEST ADDRESS PUSH1 0x64 DUP4 ADD MSTORE TIMESTAMP PUSH1 0x84 DUP4 ADD MSTORE SUB SWAP3 GAS CALL DUP1 ISZERO PUSH2 0x4245 JUMPI SWAP1 DUP7 SWAP2 PUSH2 0x422D JUMPI JUMPDEST POP POP SWAP1 PUSH2 0x2D8F PUSH2 0x40D7 PUSH2 0x40E5 SWAP4 SELFBALANCE PUSH2 0x331B JUMP JUMPDEST SWAP2 DUP9 DUP6 ADD MLOAD SWAP1 PUSH1 0x1 SHL PUSH2 0x331B JUMP JUMPDEST SWAP2 PUSH2 0x40F3 DUP7 DUP4 ADD MLOAD DUP5 PUSH2 0x32F2 JUMP JUMPDEST DUP1 PUSH2 0x417D JUMPI JUMPDEST POP POP DUP2 PUSH1 0x1 SHL SWAP2 DUP1 DUP4 DIV PUSH1 0x2 EQ SWAP1 ISZERO OR ISZERO PUSH2 0x4169 JUMPI SWAP2 PUSH2 0x4132 PUSH1 0x0 DUP1 MLOAD PUSH1 0x20 PUSH2 0x4BBD DUP4 CODECOPY DUP2 MLOAD SWAP2 MSTORE SWAP6 SWAP5 SWAP3 PUSH1 0xA0 SWAP5 PUSH1 0x80 MLOAD ADD MLOAD SWAP1 PUSH2 0x32F2 JUMP JUMPDEST DUP1 PUSH2 0x4150 JUMPI JUMPDEST POP PUSH3 0xFF0000 NOT PUSH1 0x8 SLOAD AND PUSH1 0x8 SSTORE JUMPDEST SWAP2 DUP2 SWAP4 SWAP5 POP PUSH2 0x3C11 JUMP JUMPDEST PUSH2 0x4163 SWAP1 PUSH1 0x1 DUP1 DUP7 SHL SUB PUSH1 0x17 SLOAD AND PUSH2 0x48C3 JUMP JUMPDEST CODESIZE PUSH2 0x4138 JUMP JUMPDEST PUSH4 0x4E487B71 PUSH1 0xE0 SHL DUP4 MSTORE PUSH1 0x11 PUSH1 0x4 MSTORE PUSH1 0x24 DUP4 REVERT JUMPDEST PUSH1 0xC SLOAD PUSH1 0x60 SWAP2 SWAP1 PUSH2 0x4199 SWAP1 DUP5 SWAP1 PUSH1 0x1 PUSH1 0x1 PUSH1 0xA0 SHL SUB AND ADDRESS PUSH2 0x39EB JUMP JUMPDEST PUSH1 0xC SLOAD PUSH1 0x18 SLOAD DUP10 MLOAD PUSH4 0xF305D719 PUSH1 0xE0 SHL DUP2 MSTORE ADDRESS PUSH1 0x4 DUP3 ADD MSTORE PUSH1 0x24 DUP2 ADD SWAP6 SWAP1 SWAP6 MSTORE PUSH1 0x44 DUP6 ADD DUP9 SWAP1 MSTORE PUSH1 0x64 DUP6 ADD DUP9 SWAP1 MSTORE PUSH1 0x1 PUSH1 0x1 PUSH1 0xA0 SHL SUB SWAP1 DUP2 AND PUSH1 0x84 DUP7 ADD MSTORE TIMESTAMP PUSH1 0xA4 DUP7 ADD MSTORE DUP5 SWAP3 PUSH1 0xC4 SWAP3 DUP5 SWAP3 AND GAS CALL DUP1 ISZERO PUSH2 0x4223 JUMPI PUSH2 0x41F8 JUMPI JUMPDEST DUP1 PUSH2 0x40F9 JUMP JUMPDEST PUSH1 0x60 SWAP1 DUP2 RETURNDATASIZE DUP2 GT PUSH2 0x421C JUMPI JUMPDEST PUSH2 0x420E DUP2 DUP4 PUSH2 0x31D2 JUMP JUMPDEST DUP2 ADD SUB SLT PUSH2 0x105A JUMPI CODESIZE PUSH2 0x41F2 JUMP JUMPDEST POP RETURNDATASIZE PUSH2 0x4204 JUMP JUMPDEST DUP7 MLOAD RETURNDATASIZE DUP7 DUP3 RETURNDATACOPY RETURNDATASIZE SWAP1 REVERT JUMPDEST PUSH2 0x4236 SWAP1 PUSH2 0x31A2 JUMP JUMPDEST PUSH2 0x4241 JUMPI DUP5 CODESIZE PUSH2 0x40C4 JUMP JUMPDEST DUP5 DUP1 REVERT JUMPDEST DUP9 MLOAD RETURNDATASIZE DUP9 DUP3 RETURNDATACOPY RETURNDATASIZE SWAP1 REVERT JUMPDEST DUP8 DUP1 REVERT JUMPDEST PUSH2 0x426C SWAP2 POP PUSH1 0x80 MLOAD RETURNDATASIZE DUP2 GT PUSH2 0xFB2 JUMPI PUSH2 0xFA4 DUP2 DUP4 PUSH2 0x31D2 JUMP JUMPDEST CODESIZE PUSH2 0x403F JUMP JUMPDEST DUP12 MLOAD RETURNDATASIZE DUP12 DUP3 RETURNDATACOPY RETURNDATASIZE SWAP1 REVERT JUMPDEST PUSH4 0x4E487B71 PUSH1 0xE0 SHL DUP5 MSTORE PUSH1 0x11 PUSH1 0x4 MSTORE PUSH1 0x24 DUP5 REVERT JUMPDEST PUSH3 0x10000 PUSH2 0x429C PUSH2 0x36B9 JUMP JUMPDEST SWAP2 PUSH3 0xFF0000 NOT AND OR PUSH1 0x8 SSTORE PUSH2 0x42BA DUP6 DUP3 ADD MLOAD PUSH1 0x80 MLOAD DUP4 ADD MLOAD SWAP1 PUSH2 0x341D JUMP JUMPDEST DUP1 DUP1 PUSH1 0x1 SHL DIV PUSH1 0x2 EQ DUP2 ISZERO OR ISZERO PUSH2 0x427C JUMPI PUSH2 0x42E2 PUSH2 0x3FDA DUP3 PUSH1 0x1 SHL PUSH2 0x3FD5 DUP10 DUP7 ADD MLOAD DUP8 PUSH2 0x32F2 JUMP JUMPDEST DUP7 MLOAD SELFBALANCE SWAP2 PUSH2 0x42EF DUP3 PUSH2 0x3170 JUMP JUMPDEST PUSH1 0x2 DUP3 MSTORE DUP9 CALLDATASIZE PUSH1 0x80 MLOAD DUP5 ADD CALLDATACOPY ADDRESS PUSH2 0x4305 DUP4 PUSH2 0x385D JUMP JUMPDEST MSTORE PUSH1 0xC SLOAD DUP10 MLOAD PUSH4 0x15AB88C9 PUSH1 0xE3 SHL DUP2 MSTORE PUSH1 0x80 MLOAD PUSH1 0x1 PUSH1 0x1 PUSH1 0xA0 SHL SUB SWAP1 SWAP3 AND SWAP2 DUP2 PUSH1 0x4 DUP2 DUP6 GAS STATICCALL SWAP1 DUP2 ISZERO PUSH2 0x4272 JUMPI SWAP2 DUP4 SWAP2 PUSH2 0x4349 SWAP4 DUP12 SWAP2 PUSH2 0x4253 JUMPI POP PUSH2 0x4049 DUP7 PUSH2 0x386A JUMP JUMPDEST PUSH1 0xC SLOAD PUSH1 0x1 PUSH1 0x1 PUSH1 0xA0 SHL SUB AND SWAP1 DUP2 EXTCODESIZE ISZERO PUSH2 0x424F JUMPI SWAP2 DUP8 SWAP2 PUSH2 0x4393 SWAP4 DUP4 DUP13 MLOAD DUP1 SWAP7 DUP2 SWAP6 DUP3 SWAP5 PUSH4 0x791AC947 PUSH1 0xE0 SHL DUP5 MSTORE PUSH1 0x4 DUP5 ADD MSTORE DUP4 PUSH1 0x24 DUP5 ADD MSTORE PUSH1 0xA0 PUSH1 0x44 DUP5 ADD MSTORE PUSH1 0xA4 DUP4 ADD SWAP1 PUSH2 0x49E6 JUMP JUMPDEST ADDRESS PUSH1 0x64 DUP4 ADD MSTORE TIMESTAMP PUSH1 0x84 DUP4 ADD MSTORE SUB SWAP3 GAS CALL DUP1 ISZERO PUSH2 0x4245 JUMPI PUSH2 0x44E4 JUMPI JUMPDEST POP SWAP1 PUSH2 0x2D8F PUSH2 0x40D7 PUSH2 0x43C0 SWAP4 SELFBALANCE PUSH2 0x331B JUMP JUMPDEST SWAP2 PUSH2 0x43CE DUP7 DUP4 ADD MLOAD DUP5 PUSH2 0x32F2 JUMP JUMPDEST DUP1 PUSH2 0x443E JUMPI JUMPDEST POP POP DUP2 PUSH1 0x1 SHL SWAP2 DUP1 DUP4 DIV PUSH1 0x2 EQ SWAP1 ISZERO OR ISZERO PUSH2 0x4169 JUMPI SWAP2 PUSH2 0x440D PUSH1 0x0 DUP1 MLOAD PUSH1 0x20 PUSH2 0x4BBD DUP4 CODECOPY DUP2 MLOAD SWAP2 MSTORE SWAP6 SWAP5 SWAP3 PUSH1 0xA0 SWAP5 PUSH1 0x80 MLOAD ADD MLOAD SWAP1 PUSH2 0x32F2 JUMP JUMPDEST DUP1 PUSH2 0x4425 JUMPI JUMPDEST POP PUSH3 0xFF0000 NOT PUSH1 0x8 SLOAD AND PUSH1 0x8 SSTORE PUSH2 0x4146 JUMP JUMPDEST PUSH2 0x4438 SWAP1 PUSH1 0x1 DUP1 DUP7 SHL SUB PUSH1 0x17 SLOAD AND PUSH2 0x48C3 JUMP JUMPDEST CODESIZE PUSH2 0x4413 JUMP JUMPDEST PUSH1 0xC SLOAD PUSH1 0x60 SWAP2 SWAP1 PUSH2 0x445A SWAP1 DUP5 SWAP1 PUSH1 0x1 PUSH1 0x1 PUSH1 0xA0 SHL SUB AND ADDRESS PUSH2 0x39EB JUMP JUMPDEST PUSH1 0xC SLOAD PUSH1 0x18 SLOAD DUP10 MLOAD PUSH4 0xF305D719 PUSH1 0xE0 SHL DUP2 MSTORE ADDRESS PUSH1 0x4 DUP3 ADD MSTORE PUSH1 0x24 DUP2 ADD SWAP6 SWAP1 SWAP6 MSTORE PUSH1 0x44 DUP6 ADD DUP9 SWAP1 MSTORE PUSH1 0x64 DUP6 ADD DUP9 SWAP1 MSTORE PUSH1 0x1 PUSH1 0x1 PUSH1 0xA0 SHL SUB SWAP1 DUP2 AND PUSH1 0x84 DUP7 ADD MSTORE TIMESTAMP PUSH1 0xA4 DUP7 ADD MSTORE DUP5 SWAP3 PUSH1 0xC4 SWAP3 DUP5 SWAP3 AND GAS CALL DUP1 ISZERO PUSH2 0x4223 JUMPI PUSH2 0x44B9 JUMPI JUMPDEST DUP1 PUSH2 0x43D4 JUMP JUMPDEST PUSH1 0x60 SWAP1 DUP2 RETURNDATASIZE DUP2 GT PUSH2 0x44DD JUMPI JUMPDEST PUSH2 0x44CF DUP2 DUP4 PUSH2 0x31D2 JUMP JUMPDEST DUP2 ADD SUB SLT PUSH2 0x105A JUMPI CODESIZE PUSH2 0x44B3 JUMP JUMPDEST POP RETURNDATASIZE PUSH2 0x44C5 JUMP JUMPDEST PUSH2 0x40D7 PUSH2 0x43C0 SWAP4 SWAP3 SWAP7 PUSH2 0x44F9 PUSH2 0x2D8F SWAP4 PUSH2 0x31A2 JUMP JUMPDEST SWAP7 SWAP3 SWAP4 POP POP PUSH2 0x43AE JUMP JUMPDEST POP DUP7 DUP4 MSTORE PUSH1 0x3 PUSH1 0x80 MLOAD MSTORE PUSH1 0xFF DUP6 DUP5 KECCAK256 SLOAD AND ISZERO PUSH2 0x3C0C JUMP JUMPDEST POP DUP6 DUP4 MSTORE PUSH1 0x3 PUSH1 0x80 MLOAD MSTORE PUSH1 0xFF DUP6 DUP5 KECCAK256 SLOAD AND ISZERO PUSH2 0x3C06 JUMP JUMPDEST POP PUSH1 0xD SLOAD PUSH1 0x1 PUSH1 0x1 PUSH1 0xA0 SHL SUB AND DUP7 EQ ISZERO PUSH2 0x3C00 JUMP JUMPDEST LT ISZERO SWAP1 POP DUP3 CODESIZE PUSH2 0x3BF8 JUMP JUMPDEST SWAP2 POP PUSH1 0xFF DUP4 PUSH1 0x8 SHR AND SWAP2 PUSH2 0x3BF2 JUMP JUMPDEST PUSH1 0x12 SLOAD DUP5 GT PUSH2 0x4616 JUMPI SWAP1 DUP4 SWAP2 DUP8 SUB PUSH2 0x45F0 JUMPI JUMPDEST POP POP PUSH1 0xFF PUSH1 0xA SLOAD AND PUSH2 0x4587 JUMPI JUMPDEST CODESIZE DUP1 PUSH2 0x3BCF JUMP JUMPDEST DUP4 DUP2 MSTORE PUSH1 0x9 PUSH1 0x80 MLOAD MSTORE PUSH2 0x459D DUP4 DUP3 KECCAK256 SLOAD TIMESTAMP PUSH2 0x331B JUMP JUMPDEST PUSH1 0xB SLOAD GT PUSH2 0x45B8 JUMPI DUP4 DUP2 MSTORE PUSH1 0x9 PUSH1 0x80 MLOAD MSTORE TIMESTAMP DUP4 DUP3 KECCAK256 SSTORE PUSH2 0x4580 JUMP JUMPDEST DUP3 MLOAD PUSH3 0x461BCD PUSH1 0xE5 SHL DUP2 MSTORE PUSH1 0x80 MLOAD PUSH1 0x4 DUP3 ADD MSTORE PUSH1 0x10 PUSH1 0x24 DUP3 ADD MSTORE PUSH16 0x10DBDBDB191BDDDB88195B98589B1959 PUSH1 0x82 SHL PUSH1 0x44 DUP3 ADD MSTORE PUSH1 0x64 SWAP1 REVERT JUMPDEST PUSH2 0x460F SWAP2 PUSH2 0x4600 PUSH2 0x4605 SWAP3 PUSH2 0x33DA JUMP JUMPDEST PUSH2 0x341D JUMP JUMPDEST PUSH1 0x13 SLOAD LT ISZERO PUSH2 0x3AED JUMP JUMPDEST DUP2 CODESIZE PUSH2 0x4573 JUMP JUMPDEST DUP5 MLOAD PUSH3 0x461BCD PUSH1 0xE5 SHL DUP2 MSTORE PUSH1 0x80 MLOAD PUSH1 0x4 DUP3 ADD MSTORE PUSH1 0x1E PUSH1 0x24 DUP3 ADD MSTORE PUSH32 0x596F752061726520657863656564696E67206D617853656C6C4C696D69740000 PUSH1 0x44 DUP3 ADD MSTORE PUSH1 0x64 SWAP1 REVERT JUMPDEST POP PUSH1 0xFF PUSH1 0x8 SLOAD PUSH1 0x10 SHR AND ISZERO PUSH2 0x3BCA JUMP JUMPDEST POP DUP6 DUP4 MSTORE PUSH1 0x3 PUSH1 0x80 MLOAD MSTORE PUSH1 0xFF DUP6 DUP5 KECCAK256 SLOAD AND ISZERO PUSH2 0x3BC4 JUMP JUMPDEST POP DUP7 DUP4 MSTORE PUSH1 0x3 PUSH1 0x80 MLOAD MSTORE PUSH1 0xFF DUP6 DUP5 KECCAK256 SLOAD AND ISZERO PUSH2 0x3BBE JUMP JUMPDEST PUSH1 0x11 SLOAD DUP6 GT PUSH2 0x46B7 JUMPI PUSH2 0x46B2 PUSH2 0x4605 DUP7 PUSH2 0x4600 DUP7 PUSH2 0x33DA JUMP JUMPDEST PUSH2 0x3BB7 JUMP JUMPDEST DUP6 MLOAD PUSH3 0x461BCD PUSH1 0xE5 SHL DUP2 MSTORE PUSH1 0x80 MLOAD PUSH1 0x4 DUP3 ADD MSTORE PUSH1 0x1D PUSH1 0x24 DUP3 ADD MSTORE PUSH32 0x596F752061726520657863656564696E67206D61784275794C696D6974000000 PUSH1 0x44 DUP3 ADD MSTORE PUSH1 0x64 SWAP1 REVERT JUMPDEST POP PUSH1 0xFF PUSH1 0x8 SLOAD PUSH1 0x10 SHR AND ISZERO PUSH2 0x3BB2 JUMP JUMPDEST POP DUP8 DUP5 MSTORE PUSH1 0x3 PUSH1 0x80 MLOAD MSTORE PUSH1 0xFF DUP7 DUP6 KECCAK256 SLOAD AND ISZERO PUSH2 0x3BAC JUMP JUMPDEST DUP4 MLOAD PUSH3 0x461BCD PUSH1 0xE5 SHL DUP2 MSTORE PUSH1 0x80 MLOAD PUSH1 0x4 DUP3 ADD MSTORE PUSH1 0xD PUSH1 0x24 DUP3 ADD MSTORE PUSH13 0x165BDD48185C99481848189BDD PUSH1 0x9A SHL PUSH1 0x44 DUP3 ADD MSTORE PUSH1 0x64 SWAP1 REVERT JUMPDEST POP DUP6 DUP3 MSTORE PUSH1 0xFF DUP5 DUP4 KECCAK256 SLOAD AND ISZERO PUSH2 0x3B91 JUMP JUMPDEST PUSH1 0x40 MLOAD PUSH3 0x461BCD PUSH1 0xE5 SHL DUP2 MSTORE PUSH1 0x20 PUSH1 0x4 DUP3 ADD MSTORE PUSH1 0x31 PUSH1 0x24 DUP3 ADD MSTORE PUSH32 0x596F752061726520747279696E6720746F207472616E73666572206D6F726520 PUSH1 0x44 DUP3 ADD MSTORE PUSH17 0x7468616E20796F75722062616C616E6365 PUSH1 0x78 SHL PUSH1 0x64 DUP3 ADD MSTORE PUSH1 0x84 SWAP1 REVERT JUMPDEST PUSH1 0x40 MLOAD PUSH3 0x461BCD PUSH1 0xE5 SHL DUP2 MSTORE PUSH1 0x20 PUSH1 0x4 DUP3 ADD MSTORE PUSH1 0x29 PUSH1 0x24 DUP3 ADD MSTORE PUSH32 0x5472616E7366657220616D6F756E74206D757374206265206772656174657220 PUSH1 0x44 DUP3 ADD MSTORE PUSH9 0x7468616E207A65726F PUSH1 0xB8 SHL PUSH1 0x64 DUP3 ADD MSTORE PUSH1 0x84 SWAP1 REVERT JUMPDEST PUSH1 0x40 MLOAD PUSH3 0x461BCD PUSH1 0xE5 SHL DUP2 MSTORE PUSH1 0x20 PUSH1 0x4 DUP3 ADD MSTORE PUSH1 0x23 PUSH1 0x24 DUP3 ADD MSTORE PUSH32 0x45524332303A207472616E7366657220746F20746865207A65726F2061646472 PUSH1 0x44 DUP3 ADD MSTORE PUSH3 0x657373 PUSH1 0xE8 SHL PUSH1 0x64 DUP3 ADD MSTORE PUSH1 0x84 SWAP1 REVERT JUMPDEST PUSH1 0x40 MLOAD PUSH3 0x461BCD PUSH1 0xE5 SHL DUP2 MSTORE PUSH1 0x20 PUSH1 0x4 DUP3 ADD MSTORE PUSH1 0x25 PUSH1 0x24 DUP3 ADD MSTORE PUSH32 0x45524332303A207472616E736665722066726F6D20746865207A65726F206164 PUSH1 0x44 DUP3 ADD MSTORE PUSH5 0x6472657373 PUSH1 0xD8 SHL PUSH1 0x64 DUP3 ADD MSTORE PUSH1 0x84 SWAP1 REVERT JUMPDEST DUP2 SELFBALANCE LT PUSH2 0x49A1 JUMPI PUSH1 0x0 DUP1 DUP1 DUP1 SWAP5 DUP2 SWAP5 PUSH1 0x1 DUP1 PUSH1 0xA0 SHL SUB AND GAS CALL SWAP1 RETURNDATASIZE ISZERO PUSH2 0x499B JUMPI RETURNDATASIZE SWAP1 PUSH8 0xFFFFFFFFFFFFFFFF DUP3 GT PUSH2 0x4987 JUMPI PUSH1 0x40 MLOAD SWAP2 PUSH2 0x490C PUSH1 0x1F DUP3 ADD PUSH1 0x1F NOT AND PUSH1 0x20 ADD DUP5 PUSH2 0x31D2 JUMP JUMPDEST DUP3 MSTORE PUSH1 0x20 RETURNDATASIZE SWAP3 ADD RETURNDATACOPY JUMPDEST ISZERO PUSH2 0x491C JUMPI JUMP JUMPDEST PUSH1 0x40 MLOAD PUSH3 0x461BCD PUSH1 0xE5 SHL DUP2 MSTORE PUSH1 0x20 PUSH1 0x4 DUP3 ADD MSTORE PUSH1 0x3A PUSH1 0x24 DUP3 ADD MSTORE PUSH32 0x416464726573733A20756E61626C6520746F2073656E642076616C75652C2072 PUSH1 0x44 DUP3 ADD MSTORE PUSH32 0x6563697069656E74206D61792068617665207265766572746564000000000000 PUSH1 0x64 DUP3 ADD MSTORE PUSH1 0x84 SWAP1 REVERT JUMPDEST PUSH4 0x4E487B71 PUSH1 0xE0 SHL DUP2 MSTORE PUSH1 0x41 PUSH1 0x4 MSTORE PUSH1 0x24 SWAP1 REVERT JUMPDEST POP PUSH2 0x4915 JUMP JUMPDEST PUSH1 0x40 MLOAD PUSH3 0x461BCD PUSH1 0xE5 SHL DUP2 MSTORE PUSH1 0x20 PUSH1 0x4 DUP3 ADD MSTORE PUSH1 0x1D PUSH1 0x24 DUP3 ADD MSTORE PUSH32 0x416464726573733A20696E73756666696369656E742062616C616E6365000000 PUSH1 0x44 DUP3 ADD MSTORE PUSH1 0x64 SWAP1 REVERT JUMPDEST SWAP1 DUP2 MLOAD DUP1 DUP3 MSTORE PUSH1 0x20 DUP1 DUP1 SWAP4 ADD SWAP4 ADD SWAP2 PUSH1 0x0 JUMPDEST DUP3 DUP2 LT PUSH2 0x4A06 JUMPI POP POP POP POP SWAP1 JUMP JUMPDEST DUP4 MLOAD PUSH1 0x1 PUSH1 0x1 PUSH1 0xA0 SHL SUB AND DUP6 MSTORE SWAP4 DUP2 ADD SWAP4 SWAP3 DUP2 ADD SWAP3 PUSH1 0x1 ADD PUSH2 0x49F8 JUMP JUMPDEST SWAP1 PUSH2 0x4A3B PUSH1 0x20 SWAP2 SWAP5 SWAP4 SWAP5 PUSH1 0x40 DUP5 MSTORE PUSH1 0x40 DUP5 ADD SWAP1 PUSH2 0x49E6 JUMP JUMPDEST SWAP4 ISZERO ISZERO SWAP2 ADD MSTORE JUMP JUMPDEST ISZERO PUSH2 0x4A4A JUMPI JUMP JUMPDEST PUSH1 0x40 MLOAD PUSH3 0x461BCD PUSH1 0xE5 SHL DUP2 MSTORE PUSH1 0x20 PUSH1 0x4 DUP3 ADD MSTORE PUSH1 0x13 PUSH1 0x24 DUP3 ADD MSTORE PUSH19 0x1D1C9B9E08191BD95CC81B9BDD08195E1A5CDD PUSH1 0x6A SHL PUSH1 0x44 DUP3 ADD MSTORE PUSH1 0x64 SWAP1 REVERT JUMPDEST PUSH1 0x28 SLOAD DUP1 PUSH2 0x4A92 JUMPI PUSH1 0x0 DUP1 REVERT JUMPDEST PUSH1 0x0 NOT DUP2 ADD SWAP1 DUP2 GT PUSH2 0x3305 JUMPI SWAP1 JUMP JUMPDEST ISZERO PUSH2 0x4AA8 JUMPI JUMP JUMPDEST PUSH1 0x40 MLOAD PUSH3 0x461BCD PUSH1 0xE5 SHL DUP2 MSTORE PUSH1 0x20 PUSH1 0x4 DUP3 ADD MSTORE PUSH1 0x19 PUSH1 0x24 DUP3 ADD MSTORE PUSH32 0x74726E782068617320616C726561647920657865637574656400000000000000 PUSH1 0x44 DUP3 ADD MSTORE PUSH1 0x64 SWAP1 REVERT JUMPDEST PUSH1 0x25 SLOAD PUSH1 0x0 SWAP2 DUP3 JUMPDEST DUP3 DUP2 LT PUSH2 0x4B02 JUMPI POP POP POP SWAP1 JUMP JUMPDEST DUP2 PUSH1 0x0 MSTORE PUSH1 0xFF PUSH1 0x20 PUSH1 0x29 DUP2 MSTORE PUSH1 0x40 SWAP1 DUP2 PUSH1 0x0 KECCAK256 SWAP1 PUSH2 0x4B1F DUP6 PUSH2 0x3068 JUMP JUMPDEST PUSH1 0x1 DUP1 PUSH1 0xA0 SHL SUB SWAP2 SLOAD SWAP1 PUSH1 0x3 SHL SHR AND PUSH1 0x0 MSTORE MSTORE PUSH1 0x0 KECCAK256 SLOAD AND PUSH2 0x4B4A JUMPI JUMPDEST PUSH2 0x4B45 SWAP1 PUSH2 0x3328 JUMP JUMPDEST PUSH2 0x4AF5 JUMP JUMPDEST SWAP3 PUSH1 0x1 DUP2 ADD DUP1 SWAP2 GT PUSH2 0x3305 JUMPI SWAP3 PUSH2 0x4B3C JUMP INVALID BLOCKHASH NOT PUSH9 0xFF42A154441DA5F6C4 0xC9 CALLDATALOAD 0xAC CHAINID 0xB8 PUSH8 0x1F0E062BAAA62A75 GASLIMIT 0xBA MSTORE8 0xBB PUSH15 0x4CDDB556F1D2C1EC821E910B019D36 DUP6 0xB2 0x29 0xDB ISZERO 0x2A 0xE 0xCD MLOAD PUSH29 0xA7E24B8BD7139289796F7520646F6E2774206861766520737566666963 PUSH10 0x656E7420617070726F76 0xDD CALLCODE MSTORE 0xAD SHL 0xE2 0xC8 SWAP12 PUSH10 0xC2B068FC378DAA952BA7 CALL PUSH4 0xC4A11628 CREATE2 GAS 0x4D CREATE2 0x23 0xB3 0xEF PUSH10 0x6E76616C69642046756E PUSH4 0x74696F6E KECCAK256 PUSH4 0x616C6C00 STOP STOP STOP STOP STOP STOP STOP STOP STOP STOP LOG2 PUSH5 0x6970667358 0x22 SLT KECCAK256 RETURNDATACOPY SAR PUSH5 0xFA81B33C7F 0x2A 0xAC 0xC8 PUSH1 0x98 PUSH2 0xF894 0x1E PUSH21 0xE99952E4C5B3B5D2124E643FBCAA64736F6C634300 ADDMOD GT STOP CALLER "},"methodIdentifiers":{"_getAprrovalCount(uint256)":"70da913c","allowance(address,address)":"dd62ed3e","allowedTransfer(address)":"62695eae","approve(address,uint256)":"095ea7b3","approveTransaction(uint256)":"242232d1","approved(uint256,address)":"8253951a","autoLiquidityReceiver()":"ca33e64c","balanceOf(address)":"70a08231","bulkIsBlacklisted(address[],bool,uint256)":"de3e85a5","bulkupdateAllowedTransfer(address[],bool,uint256)":"53075d3f","coolDownEnabled()":"ee36e359","coolDownTime()":"d2ce0db2","deadWallet()":"85141a77","decimals()":"313ce567","decreaseAllowance(address,uint256)":"a457c2d7","excludeFromFee(uint256)":"17bd4cde","excludeFromReward(uint256)":"97dd3e99","genesis_block()":"274a533c","getCurrentRunningTransactionId()":"825f375e","includeInReward(uint256)":"112bb58e","increaseAllowance(address,uint256)":"39509351","initialize(address)":"c4d66de8","isExcludedFromFee(address)":"5342acb4","isExcludedFromReward(address)":"88f82020","isOwner(address)":"2f54bf6e","marketingWallet()":"75f0a874","maxBuyLimit()":"6aa5b37f","maxSellLimit()":"652e2f04","maxWalletLimit()":"66a88d96","name()":"06fdde03","newTransaction(uint256,address)":"2671d558","owners(uint256)":"025e7c27","pair()":"a8aa1b31","reflectionFromToken(uint256,bool)":"4549b039","rescueAnyBEP20Tokens(address,address,uint256,uint256)":"4d050922","rescueBNB(uint256,uint256)":"c95a20d1","revoke(uint256)":"20c5429b","router()":"f887ea40","sellTaxes()":"f66895a3","setData(address,uint256)":"81308721","setSellTaxes(bool,uint256)":"fe72fb67","setTaxes(bool,uint256)":"538ca8f4","swapEnabled()":"6ddd1713","swapTokensAtAmount()":"e2f45605","symbol()":"95d89b41","taxes()":"728f8eea","tokenFromReflection(uint256)":"2d838119","totFeesPaid()":"9ba5e4d5","totalSupply()":"18160ddd","tradingEnabled()":"4ada218b","transactions(uint256)":"9ace38c2","transfer(address,uint256)":"a9059cbb","transferFrom(address,address,uint256)":"23b872dd","updateAllowedTransfer(uint256,bool)":"584a56cc","updateCooldown(bool,uint256,uint256)":"987b2205","updateIsBlacklisted(uint256,bool)":"6c6b9bb2","updateMarketingWallet(address,uint256)":"23797808","updateMaxTxLimit(uint256,uint256,uint256)":"e1b450ad","updateMaxWalletlimit(uint256,uint256)":"9f6dd004","updateRouterAndPair(address,address,uint256)":"3e4e7fbf","updateSwapTokensAtAmount(uint256,uint256)":"2c0e22cc","walletPermission()":"cc960294"}},"storageLayout":{"storage":[{"astId":396,"contract":"contracts/MowgliSanctuaryTokenV1.sol:MowgliSanctuaryTokenV1","label":"_rOwned","offset":0,"slot":"0","type":"t_mapping(t_address,t_uint256)"},{"astId":400,"contract":"contracts/MowgliSanctuaryTokenV1.sol:MowgliSanctuaryTokenV1","label":"_tOwned","offset":0,"slot":"1","type":"t_mapping(t_address,t_uint256)"},{"astId":406,"contract":"contracts/MowgliSanctuaryTokenV1.sol:MowgliSanctuaryTokenV1","label":"_allowances","offset":0,"slot":"2","type":"t_mapping(t_address,t_mapping(t_address,t_uint256))"},{"astId":410,"contract":"contracts/MowgliSanctuaryTokenV1.sol:MowgliSanctuaryTokenV1","label":"_isExcludedFromFee","offset":0,"slot":"3","type":"t_mapping(t_address,t_bool)"},{"astId":414,"contract":"contracts/MowgliSanctuaryTokenV1.sol:MowgliSanctuaryTokenV1","label":"_isExcluded","offset":0,"slot":"4","type":"t_mapping(t_address,t_bool)"},{"astId":418,"contract":"contracts/MowgliSanctuaryTokenV1.sol:MowgliSanctuaryTokenV1","label":"allowedTransfer","offset":0,"slot":"5","type":"t_mapping(t_address,t_bool)"},{"astId":422,"contract":"contracts/MowgliSanctuaryTokenV1.sol:MowgliSanctuaryTokenV1","label":"_isBlacklisted","offset":0,"slot":"6","type":"t_mapping(t_address,t_bool)"},{"astId":425,"contract":"contracts/MowgliSanctuaryTokenV1.sol:MowgliSanctuaryTokenV1","label":"_excluded","offset":0,"slot":"7","type":"t_array(t_address)dyn_storage"},{"astId":427,"contract":"contracts/MowgliSanctuaryTokenV1.sol:MowgliSanctuaryTokenV1","label":"tradingEnabled","offset":0,"slot":"8","type":"t_bool"},{"astId":429,"contract":"contracts/MowgliSanctuaryTokenV1.sol:MowgliSanctuaryTokenV1","label":"swapEnabled","offset":1,"slot":"8","type":"t_bool"},{"astId":431,"contract":"contracts/MowgliSanctuaryTokenV1.sol:MowgliSanctuaryTokenV1","label":"swapping","offset":2,"slot":"8","type":"t_bool"},{"astId":435,"contract":"contracts/MowgliSanctuaryTokenV1.sol:MowgliSanctuaryTokenV1","label":"_lastSell","offset":0,"slot":"9","type":"t_mapping(t_address,t_uint256)"},{"astId":437,"contract":"contracts/MowgliSanctuaryTokenV1.sol:MowgliSanctuaryTokenV1","label":"coolDownEnabled","offset":0,"slot":"10","type":"t_bool"},{"astId":439,"contract":"contracts/MowgliSanctuaryTokenV1.sol:MowgliSanctuaryTokenV1","label":"coolDownTime","offset":0,"slot":"11","type":"t_uint256"},{"astId":442,"contract":"contracts/MowgliSanctuaryTokenV1.sol:MowgliSanctuaryTokenV1","label":"router","offset":0,"slot":"12","type":"t_contract(IRouter)385"},{"astId":444,"contract":"contracts/MowgliSanctuaryTokenV1.sol:MowgliSanctuaryTokenV1","label":"pair","offset":0,"slot":"13","type":"t_address"},{"astId":456,"contract":"contracts/MowgliSanctuaryTokenV1.sol:MowgliSanctuaryTokenV1","label":"_tTotal","offset":0,"slot":"14","type":"t_uint256"},{"astId":458,"contract":"contracts/MowgliSanctuaryTokenV1.sol:MowgliSanctuaryTokenV1","label":"_rTotal","offset":0,"slot":"15","type":"t_uint256"},{"astId":460,"contract":"contracts/MowgliSanctuaryTokenV1.sol:MowgliSanctuaryTokenV1","label":"swapTokensAtAmount","offset":0,"slot":"16","type":"t_uint256"},{"astId":462,"contract":"contracts/MowgliSanctuaryTokenV1.sol:MowgliSanctuaryTokenV1","label":"maxBuyLimit","offset":0,"slot":"17","type":"t_uint256"},{"astId":464,"contract":"contracts/MowgliSanctuaryTokenV1.sol:MowgliSanctuaryTokenV1","label":"maxSellLimit","offset":0,"slot":"18","type":"t_uint256"},{"astId":466,"contract":"contracts/MowgliSanctuaryTokenV1.sol:MowgliSanctuaryTokenV1","label":"maxWalletLimit","offset":0,"slot":"19","type":"t_uint256"},{"astId":468,"contract":"contracts/MowgliSanctuaryTokenV1.sol:MowgliSanctuaryTokenV1","label":"genesis_block","offset":0,"slot":"20","type":"t_uint256"},{"astId":470,"contract":"contracts/MowgliSanctuaryTokenV1.sol:MowgliSanctuaryTokenV1","label":"deadline","offset":0,"slot":"21","type":"t_uint256"},{"astId":472,"contract":"contracts/MowgliSanctuaryTokenV1.sol:MowgliSanctuaryTokenV1","label":"deadWallet","offset":0,"slot":"22","type":"t_address"},{"astId":474,"contract":"contracts/MowgliSanctuaryTokenV1.sol:MowgliSanctuaryTokenV1","label":"marketingWallet","offset":0,"slot":"23","type":"t_address"},{"astId":476,"contract":"contracts/MowgliSanctuaryTokenV1.sol:MowgliSanctuaryTokenV1","label":"autoLiquidityReceiver","offset":0,"slot":"24","type":"t_address"},{"astId":492,"contract":"contracts/MowgliSanctuaryTokenV1.sol:MowgliSanctuaryTokenV1","label":"launchtax","offset":0,"slot":"25","type":"t_struct(Taxes)489_storage"},{"astId":495,"contract":"contracts/MowgliSanctuaryTokenV1.sol:MowgliSanctuaryTokenV1","label":"taxes","offset":0,"slot":"28","type":"t_struct(Taxes)489_storage"},{"astId":498,"contract":"contracts/MowgliSanctuaryTokenV1.sol:MowgliSanctuaryTokenV1","label":"sellTaxes","offset":0,"slot":"31","type":"t_struct(Taxes)489_storage"},{"astId":508,"contract":"contracts/MowgliSanctuaryTokenV1.sol:MowgliSanctuaryTokenV1","label":"totFeesPaid","offset":0,"slot":"34","type":"t_struct(TotFeesPaidStruct)505_storage"},{"astId":622,"contract":"contracts/MowgliSanctuaryTokenV1.sol:MowgliSanctuaryTokenV1","label":"owners","offset":0,"slot":"37","type":"t_array(t_address)dyn_storage"},{"astId":626,"contract":"contracts/MowgliSanctuaryTokenV1.sol:MowgliSanctuaryTokenV1","label":"isOwner","offset":0,"slot":"38","type":"t_mapping(t_address,t_bool)"},{"astId":628,"contract":"contracts/MowgliSanctuaryTokenV1.sol:MowgliSanctuaryTokenV1","label":"walletPermission","offset":0,"slot":"39","type":"t_uint256"},{"astId":632,"contract":"contracts/MowgliSanctuaryTokenV1.sol:MowgliSanctuaryTokenV1","label":"transactions","offset":0,"slot":"40","type":"t_array(t_struct(Transaction)645_storage)dyn_storage"},{"astId":638,"contract":"contracts/MowgliSanctuaryTokenV1.sol:MowgliSanctuaryTokenV1","label":"approved","offset":0,"slot":"41","type":"t_mapping(t_uint256,t_mapping(t_address,t_bool))"},{"astId":730,"contract":"contracts/MowgliSanctuaryTokenV1.sol:MowgliSanctuaryTokenV1","label":"_initialized","offset":0,"slot":"42","type":"t_uint8"},{"astId":733,"contract":"contracts/MowgliSanctuaryTokenV1.sol:MowgliSanctuaryTokenV1","label":"_initializing","offset":1,"slot":"42","type":"t_bool"}],"types":{"t_address":{"encoding":"inplace","label":"address","numberOfBytes":"20"},"t_array(t_address)dyn_storage":{"base":"t_address","encoding":"dynamic_array","label":"address[]","numberOfBytes":"32"},"t_array(t_struct(Transaction)645_storage)dyn_storage":{"base":"t_struct(Transaction)645_storage","encoding":"dynamic_array","label":"struct MowgliSanctuaryTokenV1.Transaction[]","numberOfBytes":"32"},"t_bool":{"encoding":"inplace","label":"bool","numberOfBytes":"1"},"t_contract(IRouter)385":{"encoding":"inplace","label":"contract IRouter","numberOfBytes":"20"},"t_mapping(t_address,t_bool)":{"encoding":"mapping","key":"t_address","label":"mapping(address => bool)","numberOfBytes":"32","value":"t_bool"},"t_mapping(t_address,t_mapping(t_address,t_uint256))":{"encoding":"mapping","key":"t_address","label":"mapping(address => mapping(address => uint256))","numberOfBytes":"32","value":"t_mapping(t_address,t_uint256)"},"t_mapping(t_address,t_uint256)":{"encoding":"mapping","key":"t_address","label":"mapping(address => uint256)","numberOfBytes":"32","value":"t_uint256"},"t_mapping(t_uint256,t_mapping(t_address,t_bool))":{"encoding":"mapping","key":"t_uint256","label":"mapping(uint256 => mapping(address => bool))","numberOfBytes":"32","value":"t_mapping(t_address,t_bool)"},"t_struct(Taxes)489_storage":{"encoding":"inplace","label":"struct MowgliSanctuaryTokenV1.Taxes","members":[{"astId":484,"contract":"contracts/MowgliSanctuaryTokenV1.sol:MowgliSanctuaryTokenV1","label":"rfi","offset":0,"slot":"0","type":"t_uint256"},{"astId":486,"contract":"contracts/MowgliSanctuaryTokenV1.sol:MowgliSanctuaryTokenV1","label":"marketing","offset":0,"slot":"1","type":"t_uint256"},{"astId":488,"contract":"contracts/MowgliSanctuaryTokenV1.sol:MowgliSanctuaryTokenV1","label":"liquidity","offset":0,"slot":"2","type":"t_uint256"}],"numberOfBytes":"96"},"t_struct(TotFeesPaidStruct)505_storage":{"encoding":"inplace","label":"struct MowgliSanctuaryTokenV1.TotFeesPaidStruct","members":[{"astId":500,"contract":"contracts/MowgliSanctuaryTokenV1.sol:MowgliSanctuaryTokenV1","label":"rfi","offset":0,"slot":"0","type":"t_uint256"},{"astId":502,"contract":"contracts/MowgliSanctuaryTokenV1.sol:MowgliSanctuaryTokenV1","label":"marketing","offset":0,"slot":"1","type":"t_uint256"},{"astId":504,"contract":"contracts/MowgliSanctuaryTokenV1.sol:MowgliSanctuaryTokenV1","label":"liquidity","offset":0,"slot":"2","type":"t_uint256"}],"numberOfBytes":"96"},"t_struct(Transaction)645_storage":{"encoding":"inplace","label":"struct MowgliSanctuaryTokenV1.Transaction","members":[{"astId":640,"contract":"contracts/MowgliSanctuaryTokenV1.sol:MowgliSanctuaryTokenV1","label":"isExecuted","offset":0,"slot":"0","type":"t_bool"},{"astId":642,"contract":"contracts/MowgliSanctuaryTokenV1.sol:MowgliSanctuaryTokenV1","label":"methodID","offset":0,"slot":"1","type":"t_uint256"},{"astId":644,"contract":"contracts/MowgliSanctuaryTokenV1.sol:MowgliSanctuaryTokenV1","label":"data","offset":0,"slot":"2","type":"t_address"}],"numberOfBytes":"96"},"t_uint256":{"encoding":"inplace","label":"uint256","numberOfBytes":"32"},"t_uint8":{"encoding":"inplace","label":"uint8","numberOfBytes":"1"}}}}}}