{
  "_format": "hh-sol-artifact-1",
  "contractName": "MowgliSanctuaryTokenVersion2",
  "sourceName": "contracts/MowgliSanctuaryTokenV2.sol",
  "abi": [
    {
      "anonymous": false,
      "inputs": [
        {
          "indexed": true,
          "internalType": "address",
          "name": "owner",
          "type": "address"
        },
        {
          "indexed": true,
          "internalType": "address",
          "name": "spender",
          "type": "address"
        },
        {
          "indexed": false,
          "internalType": "uint256",
          "name": "value",
          "type": "uint256"
        }
      ],
      "name": "Approval",
      "type": "event"
    },
    {
      "anonymous": false,
      "inputs": [
        {
          "indexed": false,
          "internalType": "address",
          "name": "owner",
          "type": "address"
        },
        {
          "indexed": false,
          "internalType": "uint256",
          "name": "trnxId",
          "type": "uint256"
        }
      ],
      "name": "Approve",
      "type": "event"
    },
    {
      "anonymous": false,
      "inputs": [
        {
          "indexed": false,
          "internalType": "uint256",
          "name": "trnxId",
          "type": "uint256"
        }
      ],
      "name": "Execute",
      "type": "event"
    },
    {
      "anonymous": false,
      "inputs": [
        {
          "indexed": false,
          "internalType": "bool",
          "name": "status",
          "type": "bool"
        }
      ],
      "name": "FeesChanged",
      "type": "event"
    },
    {
      "anonymous": false,
      "inputs": [
        {
          "indexed": false,
          "internalType": "uint8",
          "name": "version",
          "type": "uint8"
        }
      ],
      "name": "Initialized",
      "type": "event"
    },
    {
      "anonymous": false,
      "inputs": [
        {
          "indexed": false,
          "internalType": "address",
          "name": "owner",
          "type": "address"
        },
        {
          "indexed": false,
          "internalType": "uint256",
          "name": "trnxId",
          "type": "uint256"
        }
      ],
      "name": "Revoke",
      "type": "event"
    },
    {
      "anonymous": false,
      "inputs": [
        {
          "indexed": true,
          "internalType": "address",
          "name": "from",
          "type": "address"
        },
        {
          "indexed": true,
          "internalType": "address",
          "name": "to",
          "type": "address"
        },
        {
          "indexed": false,
          "internalType": "uint256",
          "name": "value",
          "type": "uint256"
        }
      ],
      "name": "Transfer",
      "type": "event"
    },
    {
      "anonymous": false,
      "inputs": [
        {
          "indexed": false,
          "internalType": "bool",
          "name": "state",
          "type": "bool"
        },
        {
          "indexed": false,
          "internalType": "uint256",
          "name": "time",
          "type": "uint256"
        }
      ],
      "name": "UpdateCooldownTX",
      "type": "event"
    },
    {
      "anonymous": false,
      "inputs": [
        {
          "indexed": false,
          "internalType": "bool",
          "name": "state",
          "type": "bool"
        }
      ],
      "name": "UpdateIsBlacklistedTX",
      "type": "event"
    },
    {
      "anonymous": false,
      "inputs": [
        {
          "indexed": false,
          "internalType": "address",
          "name": "newWallet",
          "type": "address"
        }
      ],
      "name": "UpdateMarketingWalletTX",
      "type": "event"
    },
    {
      "anonymous": false,
      "inputs": [
        {
          "indexed": false,
          "internalType": "uint256",
          "name": "amount",
          "type": "uint256"
        }
      ],
      "name": "UpdateMaxWalletLimitTX",
      "type": "event"
    },
    {
      "anonymous": false,
      "inputs": [
        {
          "indexed": false,
          "internalType": "uint256",
          "name": "maxBuy",
          "type": "uint256"
        },
        {
          "indexed": false,
          "internalType": "uint256",
          "name": "maxSell",
          "type": "uint256"
        }
      ],
      "name": "UpdateMaxtxLimitTX",
      "type": "event"
    },
    {
      "anonymous": false,
      "inputs": [
        {
          "indexed": false,
          "internalType": "address",
          "name": "newRouter",
          "type": "address"
        },
        {
          "indexed": false,
          "internalType": "address",
          "name": "newPair",
          "type": "address"
        }
      ],
      "name": "UpdateRouterAndPairTX",
      "type": "event"
    },
    {
      "anonymous": false,
      "inputs": [
        {
          "indexed": false,
          "internalType": "uint256",
          "name": "amount",
          "type": "uint256"
        }
      ],
      "name": "UpdateSwapTokenAtAmountTX",
      "type": "event"
    },
    {
      "anonymous": false,
      "inputs": [
        {
          "indexed": false,
          "internalType": "uint256",
          "name": "trnx",
          "type": "uint256"
        }
      ],
      "name": "assignTrnx",
      "type": "event"
    },
    {
      "anonymous": false,
      "inputs": [
        {
          "indexed": false,
          "internalType": "address[]",
          "name": "accounts",
          "type": "address[]"
        },
        {
          "indexed": false,
          "internalType": "bool",
          "name": "state",
          "type": "bool"
        }
      ],
      "name": "bulkIsBlacklistedTX",
      "type": "event"
    },
    {
      "anonymous": false,
      "inputs": [
        {
          "indexed": false,
          "internalType": "address[]",
          "name": "accounts",
          "type": "address[]"
        },
        {
          "indexed": false,
          "internalType": "bool",
          "name": "state",
          "type": "bool"
        }
      ],
      "name": "bulkupdateAllowedTransferTX",
      "type": "event"
    },
    {
      "anonymous": false,
      "inputs": [
        {
          "indexed": false,
          "internalType": "address",
          "name": "tokenAddress",
          "type": "address"
        },
        {
          "indexed": false,
          "internalType": "address",
          "name": "toAddress",
          "type": "address"
        },
        {
          "indexed": false,
          "internalType": "uint256",
          "name": "amount",
          "type": "uint256"
        }
      ],
      "name": "rescueAnyBEP20TokensTX",
      "type": "event"
    },
    {
      "anonymous": false,
      "inputs": [
        {
          "indexed": false,
          "internalType": "uint256",
          "name": "amount",
          "type": "uint256"
        }
      ],
      "name": "rescueBNBTX",
      "type": "event"
    },
    {
      "anonymous": false,
      "inputs": [
        {
          "indexed": false,
          "internalType": "address",
          "name": "TheFollowingAddressIsSetAssetExcludeFromFee",
          "type": "address"
        }
      ],
      "name": "setExcludeFromFeeTX",
      "type": "event"
    },
    {
      "anonymous": false,
      "inputs": [
        {
          "indexed": false,
          "internalType": "address",
          "name": "TheFollowingAddressIsExcludedFromRewards",
          "type": "address"
        }
      ],
      "name": "setExcludeFromRewardTX",
      "type": "event"
    },
    {
      "anonymous": false,
      "inputs": [
        {
          "indexed": false,
          "internalType": "address",
          "name": "TheFollowingAddressIsSetAsIncludeInReward",
          "type": "address"
        }
      ],
      "name": "setIncludeFromRewardTX",
      "type": "event"
    },
    {
      "anonymous": false,
      "inputs": [
        {
          "indexed": false,
          "internalType": "bool",
          "name": "state",
          "type": "bool"
        }
      ],
      "name": "updateAllowedTransferTX",
      "type": "event"
    },
    {
      "inputs": [
        {
          "internalType": "uint256",
          "name": "_trnxId",
          "type": "uint256"
        }
      ],
      "name": "_getAprrovalCount",
      "outputs": [
        {
          "internalType": "uint256",
          "name": "",
          "type": "uint256"
        }
      ],
      "stateMutability": "view",
      "type": "function"
    },
    {
      "inputs": [
        {
          "internalType": "address",
          "name": "owner",
          "type": "address"
        },
        {
          "internalType": "address",
          "name": "spender",
          "type": "address"
        }
      ],
      "name": "allowance",
      "outputs": [
        {
          "internalType": "uint256",
          "name": "",
          "type": "uint256"
        }
      ],
      "stateMutability": "view",
      "type": "function"
    },
    {
      "inputs": [
        {
          "internalType": "address",
          "name": "",
          "type": "address"
        }
      ],
      "name": "allowedTransfer",
      "outputs": [
        {
          "internalType": "bool",
          "name": "",
          "type": "bool"
        }
      ],
      "stateMutability": "view",
      "type": "function"
    },
    {
      "inputs": [
        {
          "internalType": "address",
          "name": "spender",
          "type": "address"
        },
        {
          "internalType": "uint256",
          "name": "amount",
          "type": "uint256"
        }
      ],
      "name": "approve",
      "outputs": [
        {
          "internalType": "bool",
          "name": "",
          "type": "bool"
        }
      ],
      "stateMutability": "nonpayable",
      "type": "function"
    },
    {
      "inputs": [
        {
          "internalType": "uint256",
          "name": "_trnxId",
          "type": "uint256"
        }
      ],
      "name": "approveTransaction",
      "outputs": [],
      "stateMutability": "nonpayable",
      "type": "function"
    },
    {
      "inputs": [
        {
          "internalType": "uint256",
          "name": "",
          "type": "uint256"
        },
        {
          "internalType": "address",
          "name": "",
          "type": "address"
        }
      ],
      "name": "approved",
      "outputs": [
        {
          "internalType": "bool",
          "name": "",
          "type": "bool"
        }
      ],
      "stateMutability": "view",
      "type": "function"
    },
    {
      "inputs": [],
      "name": "autoLiquidityReceiver",
      "outputs": [
        {
          "internalType": "address",
          "name": "",
          "type": "address"
        }
      ],
      "stateMutability": "view",
      "type": "function"
    },
    {
      "inputs": [
        {
          "internalType": "address",
          "name": "account",
          "type": "address"
        }
      ],
      "name": "balanceOf",
      "outputs": [
        {
          "internalType": "uint256",
          "name": "",
          "type": "uint256"
        }
      ],
      "stateMutability": "view",
      "type": "function"
    },
    {
      "inputs": [
        {
          "internalType": "address[]",
          "name": "accounts",
          "type": "address[]"
        },
        {
          "internalType": "bool",
          "name": "state",
          "type": "bool"
        },
        {
          "internalType": "uint256",
          "name": "_trnxId",
          "type": "uint256"
        }
      ],
      "name": "bulkIsBlacklisted",
      "outputs": [],
      "stateMutability": "nonpayable",
      "type": "function"
    },
    {
      "inputs": [
        {
          "internalType": "address[]",
          "name": "accounts",
          "type": "address[]"
        },
        {
          "internalType": "bool",
          "name": "state",
          "type": "bool"
        },
        {
          "internalType": "uint256",
          "name": "_trnxId",
          "type": "uint256"
        }
      ],
      "name": "bulkupdateAllowedTransfer",
      "outputs": [],
      "stateMutability": "nonpayable",
      "type": "function"
    },
    {
      "inputs": [],
      "name": "coolDownEnabled",
      "outputs": [
        {
          "internalType": "bool",
          "name": "",
          "type": "bool"
        }
      ],
      "stateMutability": "view",
      "type": "function"
    },
    {
      "inputs": [],
      "name": "coolDownTime",
      "outputs": [
        {
          "internalType": "uint256",
          "name": "",
          "type": "uint256"
        }
      ],
      "stateMutability": "view",
      "type": "function"
    },
    {
      "inputs": [],
      "name": "deadWallet",
      "outputs": [
        {
          "internalType": "address",
          "name": "",
          "type": "address"
        }
      ],
      "stateMutability": "view",
      "type": "function"
    },
    {
      "inputs": [],
      "name": "decimals",
      "outputs": [
        {
          "internalType": "uint8",
          "name": "",
          "type": "uint8"
        }
      ],
      "stateMutability": "pure",
      "type": "function"
    },
    {
      "inputs": [
        {
          "internalType": "address",
          "name": "spender",
          "type": "address"
        },
        {
          "internalType": "uint256",
          "name": "subtractedValue",
          "type": "uint256"
        }
      ],
      "name": "decreaseAllowance",
      "outputs": [
        {
          "internalType": "bool",
          "name": "",
          "type": "bool"
        }
      ],
      "stateMutability": "nonpayable",
      "type": "function"
    },
    {
      "inputs": [
        {
          "internalType": "uint256",
          "name": "_trnxId",
          "type": "uint256"
        }
      ],
      "name": "excludeFromFee",
      "outputs": [],
      "stateMutability": "nonpayable",
      "type": "function"
    },
    {
      "inputs": [
        {
          "internalType": "uint256",
          "name": "_trnxId",
          "type": "uint256"
        }
      ],
      "name": "excludeFromReward",
      "outputs": [],
      "stateMutability": "nonpayable",
      "type": "function"
    },
    {
      "inputs": [],
      "name": "genesis_block",
      "outputs": [
        {
          "internalType": "uint256",
          "name": "",
          "type": "uint256"
        }
      ],
      "stateMutability": "view",
      "type": "function"
    },
    {
      "inputs": [],
      "name": "getCurrentRunningTransactionId",
      "outputs": [
        {
          "internalType": "uint256",
          "name": "",
          "type": "uint256"
        }
      ],
      "stateMutability": "view",
      "type": "function"
    },
    {
      "inputs": [
        {
          "internalType": "uint256",
          "name": "_trnxId",
          "type": "uint256"
        }
      ],
      "name": "includeInReward",
      "outputs": [],
      "stateMutability": "nonpayable",
      "type": "function"
    },
    {
      "inputs": [
        {
          "internalType": "address",
          "name": "spender",
          "type": "address"
        },
        {
          "internalType": "uint256",
          "name": "addedValue",
          "type": "uint256"
        }
      ],
      "name": "increaseAllowance",
      "outputs": [
        {
          "internalType": "bool",
          "name": "",
          "type": "bool"
        }
      ],
      "stateMutability": "nonpayable",
      "type": "function"
    },
    {
      "inputs": [
        {
          "internalType": "address",
          "name": "routerAddress",
          "type": "address"
        }
      ],
      "name": "initialize",
      "outputs": [],
      "stateMutability": "nonpayable",
      "type": "function"
    },
    {
      "inputs": [
        {
          "internalType": "address",
          "name": "account",
          "type": "address"
        }
      ],
      "name": "isExcludedFromFee",
      "outputs": [
        {
          "internalType": "bool",
          "name": "",
          "type": "bool"
        }
      ],
      "stateMutability": "view",
      "type": "function"
    },
    {
      "inputs": [
        {
          "internalType": "address",
          "name": "account",
          "type": "address"
        }
      ],
      "name": "isExcludedFromReward",
      "outputs": [
        {
          "internalType": "bool",
          "name": "",
          "type": "bool"
        }
      ],
      "stateMutability": "view",
      "type": "function"
    },
    {
      "inputs": [
        {
          "internalType": "address",
          "name": "",
          "type": "address"
        }
      ],
      "name": "isOwner",
      "outputs": [
        {
          "internalType": "bool",
          "name": "",
          "type": "bool"
        }
      ],
      "stateMutability": "view",
      "type": "function"
    },
    {
      "inputs": [],
      "name": "marketingWallet",
      "outputs": [
        {
          "internalType": "address",
          "name": "",
          "type": "address"
        }
      ],
      "stateMutability": "view",
      "type": "function"
    },
    {
      "inputs": [],
      "name": "maxBuyLimit",
      "outputs": [
        {
          "internalType": "uint256",
          "name": "",
          "type": "uint256"
        }
      ],
      "stateMutability": "view",
      "type": "function"
    },
    {
      "inputs": [],
      "name": "maxSellLimit",
      "outputs": [
        {
          "internalType": "uint256",
          "name": "",
          "type": "uint256"
        }
      ],
      "stateMutability": "view",
      "type": "function"
    },
    {
      "inputs": [],
      "name": "maxWalletLimit",
      "outputs": [
        {
          "internalType": "uint256",
          "name": "",
          "type": "uint256"
        }
      ],
      "stateMutability": "view",
      "type": "function"
    },
    {
      "inputs": [],
      "name": "name",
      "outputs": [
        {
          "internalType": "string",
          "name": "",
          "type": "string"
        }
      ],
      "stateMutability": "pure",
      "type": "function"
    },
    {
      "inputs": [
        {
          "internalType": "uint256",
          "name": "_methodID",
          "type": "uint256"
        },
        {
          "internalType": "address",
          "name": "_data",
          "type": "address"
        }
      ],
      "name": "newTransaction",
      "outputs": [
        {
          "internalType": "uint256",
          "name": "",
          "type": "uint256"
        }
      ],
      "stateMutability": "nonpayable",
      "type": "function"
    },
    {
      "inputs": [
        {
          "internalType": "uint256",
          "name": "",
          "type": "uint256"
        }
      ],
      "name": "owners",
      "outputs": [
        {
          "internalType": "address",
          "name": "",
          "type": "address"
        }
      ],
      "stateMutability": "view",
      "type": "function"
    },
    {
      "inputs": [],
      "name": "pair",
      "outputs": [
        {
          "internalType": "address",
          "name": "",
          "type": "address"
        }
      ],
      "stateMutability": "view",
      "type": "function"
    },
    {
      "inputs": [
        {
          "internalType": "uint256",
          "name": "tAmount",
          "type": "uint256"
        },
        {
          "internalType": "bool",
          "name": "deductTransferRfi",
          "type": "bool"
        }
      ],
      "name": "reflectionFromToken",
      "outputs": [
        {
          "internalType": "uint256",
          "name": "",
          "type": "uint256"
        }
      ],
      "stateMutability": "view",
      "type": "function"
    },
    {
      "inputs": [
        {
          "internalType": "uint256",
          "name": "weiAmount",
          "type": "uint256"
        },
        {
          "internalType": "uint256",
          "name": "_trnxId",
          "type": "uint256"
        }
      ],
      "name": "rescueBNB",
      "outputs": [],
      "stateMutability": "nonpayable",
      "type": "function"
    },
    {
      "inputs": [
        {
          "internalType": "uint256",
          "name": "_trnxId",
          "type": "uint256"
        }
      ],
      "name": "revoke",
      "outputs": [],
      "stateMutability": "nonpayable",
      "type": "function"
    },
    {
      "inputs": [],
      "name": "router",
      "outputs": [
        {
          "internalType": "contract IRouter",
          "name": "",
          "type": "address"
        }
      ],
      "stateMutability": "view",
      "type": "function"
    },
    {
      "inputs": [],
      "name": "sellTaxes",
      "outputs": [
        {
          "internalType": "uint256",
          "name": "rfi",
          "type": "uint256"
        },
        {
          "internalType": "uint256",
          "name": "marketing",
          "type": "uint256"
        },
        {
          "internalType": "uint256",
          "name": "liquidity",
          "type": "uint256"
        }
      ],
      "stateMutability": "view",
      "type": "function"
    },
    {
      "inputs": [
        {
          "internalType": "address",
          "name": "newData",
          "type": "address"
        },
        {
          "internalType": "uint256",
          "name": "_trnxId",
          "type": "uint256"
        }
      ],
      "name": "setData",
      "outputs": [],
      "stateMutability": "nonpayable",
      "type": "function"
    },
    {
      "inputs": [
        {
          "internalType": "bool",
          "name": "state",
          "type": "bool"
        },
        {
          "internalType": "uint256",
          "name": "_trnxId",
          "type": "uint256"
        }
      ],
      "name": "setSellTaxes",
      "outputs": [],
      "stateMutability": "nonpayable",
      "type": "function"
    },
    {
      "inputs": [
        {
          "internalType": "bool",
          "name": "state",
          "type": "bool"
        },
        {
          "internalType": "uint256",
          "name": "_trnxId",
          "type": "uint256"
        }
      ],
      "name": "setTaxes",
      "outputs": [],
      "stateMutability": "nonpayable",
      "type": "function"
    },
    {
      "inputs": [],
      "name": "swapEnabled",
      "outputs": [
        {
          "internalType": "bool",
          "name": "",
          "type": "bool"
        }
      ],
      "stateMutability": "view",
      "type": "function"
    },
    {
      "inputs": [],
      "name": "swapTokensAtAmount",
      "outputs": [
        {
          "internalType": "uint256",
          "name": "",
          "type": "uint256"
        }
      ],
      "stateMutability": "view",
      "type": "function"
    },
    {
      "inputs": [],
      "name": "symbol",
      "outputs": [
        {
          "internalType": "string",
          "name": "",
          "type": "string"
        }
      ],
      "stateMutability": "pure",
      "type": "function"
    },
    {
      "inputs": [],
      "name": "taxes",
      "outputs": [
        {
          "internalType": "uint256",
          "name": "rfi",
          "type": "uint256"
        },
        {
          "internalType": "uint256",
          "name": "marketing",
          "type": "uint256"
        },
        {
          "internalType": "uint256",
          "name": "liquidity",
          "type": "uint256"
        }
      ],
      "stateMutability": "view",
      "type": "function"
    },
    {
      "inputs": [
        {
          "internalType": "uint256",
          "name": "rAmount",
          "type": "uint256"
        }
      ],
      "name": "tokenFromReflection",
      "outputs": [
        {
          "internalType": "uint256",
          "name": "",
          "type": "uint256"
        }
      ],
      "stateMutability": "view",
      "type": "function"
    },
    {
      "inputs": [],
      "name": "totFeesPaid",
      "outputs": [
        {
          "internalType": "uint256",
          "name": "rfi",
          "type": "uint256"
        },
        {
          "internalType": "uint256",
          "name": "marketing",
          "type": "uint256"
        },
        {
          "internalType": "uint256",
          "name": "liquidity",
          "type": "uint256"
        }
      ],
      "stateMutability": "view",
      "type": "function"
    },
    {
      "inputs": [],
      "name": "totalSupply",
      "outputs": [
        {
          "internalType": "uint256",
          "name": "",
          "type": "uint256"
        }
      ],
      "stateMutability": "view",
      "type": "function"
    },
    {
      "inputs": [],
      "name": "tradingEnabled",
      "outputs": [
        {
          "internalType": "bool",
          "name": "",
          "type": "bool"
        }
      ],
      "stateMutability": "view",
      "type": "function"
    },
    {
      "inputs": [
        {
          "internalType": "uint256",
          "name": "",
          "type": "uint256"
        }
      ],
      "name": "transactions",
      "outputs": [
        {
          "internalType": "bool",
          "name": "isExecuted",
          "type": "bool"
        },
        {
          "internalType": "uint256",
          "name": "methodID",
          "type": "uint256"
        },
        {
          "internalType": "address",
          "name": "data",
          "type": "address"
        }
      ],
      "stateMutability": "view",
      "type": "function"
    },
    {
      "inputs": [
        {
          "internalType": "address",
          "name": "recipient",
          "type": "address"
        },
        {
          "internalType": "uint256",
          "name": "amount",
          "type": "uint256"
        }
      ],
      "name": "transfer",
      "outputs": [
        {
          "internalType": "bool",
          "name": "",
          "type": "bool"
        }
      ],
      "stateMutability": "nonpayable",
      "type": "function"
    },
    {
      "inputs": [
        {
          "internalType": "address",
          "name": "sender",
          "type": "address"
        },
        {
          "internalType": "address",
          "name": "recipient",
          "type": "address"
        },
        {
          "internalType": "uint256",
          "name": "amount",
          "type": "uint256"
        }
      ],
      "name": "transferFrom",
      "outputs": [
        {
          "internalType": "bool",
          "name": "",
          "type": "bool"
        }
      ],
      "stateMutability": "nonpayable",
      "type": "function"
    },
    {
      "inputs": [
        {
          "internalType": "uint256",
          "name": "_trnxId",
          "type": "uint256"
        },
        {
          "internalType": "bool",
          "name": "state",
          "type": "bool"
        }
      ],
      "name": "updateAllowedTransfer",
      "outputs": [],
      "stateMutability": "nonpayable",
      "type": "function"
    },
    {
      "inputs": [
        {
          "internalType": "bool",
          "name": "state",
          "type": "bool"
        },
        {
          "internalType": "uint256",
          "name": "time",
          "type": "uint256"
        },
        {
          "internalType": "uint256",
          "name": "_trnxId",
          "type": "uint256"
        }
      ],
      "name": "updateCooldown",
      "outputs": [],
      "stateMutability": "nonpayable",
      "type": "function"
    },
    {
      "inputs": [
        {
          "internalType": "uint256",
          "name": "_trnxId",
          "type": "uint256"
        },
        {
          "internalType": "bool",
          "name": "state",
          "type": "bool"
        }
      ],
      "name": "updateIsBlacklisted",
      "outputs": [],
      "stateMutability": "nonpayable",
      "type": "function"
    },
    {
      "inputs": [
        {
          "internalType": "address",
          "name": "newWallet",
          "type": "address"
        },
        {
          "internalType": "uint256",
          "name": "_trnxId",
          "type": "uint256"
        }
      ],
      "name": "updateMarketingWallet",
      "outputs": [],
      "stateMutability": "nonpayable",
      "type": "function"
    },
    {
      "inputs": [
        {
          "internalType": "uint256",
          "name": "maxBuy",
          "type": "uint256"
        },
        {
          "internalType": "uint256",
          "name": "maxSell",
          "type": "uint256"
        },
        {
          "internalType": "uint256",
          "name": "_trnxId",
          "type": "uint256"
        }
      ],
      "name": "updateMaxTxLimit",
      "outputs": [],
      "stateMutability": "nonpayable",
      "type": "function"
    },
    {
      "inputs": [
        {
          "internalType": "uint256",
          "name": "amount",
          "type": "uint256"
        },
        {
          "internalType": "uint256",
          "name": "_trnxId",
          "type": "uint256"
        }
      ],
      "name": "updateMaxWalletlimit",
      "outputs": [],
      "stateMutability": "nonpayable",
      "type": "function"
    },
    {
      "inputs": [
        {
          "internalType": "address",
          "name": "newRouter",
          "type": "address"
        },
        {
          "internalType": "address",
          "name": "newPair",
          "type": "address"
        },
        {
          "internalType": "uint256",
          "name": "_trnxId",
          "type": "uint256"
        }
      ],
      "name": "updateRouterAndPair",
      "outputs": [],
      "stateMutability": "nonpayable",
      "type": "function"
    },
    {
      "inputs": [
        {
          "internalType": "uint256",
          "name": "amount",
          "type": "uint256"
        },
        {
          "internalType": "uint256",
          "name": "_trnxId",
          "type": "uint256"
        }
      ],
      "name": "updateSwapTokensAtAmount",
      "outputs": [],
      "stateMutability": "nonpayable",
      "type": "function"
    },
    {
      "inputs": [],
      "name": "walletPermission",
      "outputs": [
        {
          "internalType": "uint256",
          "name": "",
          "type": "uint256"
        }
      ],
      "stateMutability": "view",
      "type": "function"
    },
    {
      "stateMutability": "payable",
      "type": "receive"
    }
  ],
  "bytecode": "0x60806040523480156200001157600080fd5b506195e780620000226000396000f3fe6080604052600436106103a65760003560e01c806370a08231116101e7578063a457c2d71161010d578063dd62ed3e116100a0578063ee36e3591161006f578063ee36e35914610e69578063f66895a314610e94578063f887ea4014610ec1578063fe72fb6714610eec576103ad565b8063dd62ed3e14610daf578063de3e85a514610dec578063e1b450ad14610e15578063e2f4560514610e3e576103ad565b8063c95a20d1116100dc578063c95a20d114610d05578063ca33e64c14610d2e578063cc96029414610d59578063d2ce0db214610d84576103ad565b8063a457c2d714610c37578063a8aa1b3114610c74578063a9059cbb14610c9f578063c4d66de814610cdc576103ad565b806385141a7711610185578063987b220511610154578063987b220514610b795780639ace38c214610ba25780639ba5e4d514610be15780639f6dd00414610c0e576103ad565b806385141a7714610abd57806388f8202014610ae857806395d89b4114610b2557806397dd3e9914610b50576103ad565b806375f0a874116101c157806375f0a87414610a015780638130872114610a2c5780638253951a14610a55578063825f375e14610a92576103ad565b806370a082311461095a57806370da913c14610997578063728f8eea146109d4576103ad565b8063313ce567116102cc578063538ca8f41161026a57806366a88d961161023957806366a88d96146108b05780636aa5b37f146108db5780636c6b9bb2146109065780636ddd17131461092f576103ad565b8063538ca8f4146107f6578063584a56cc1461081f57806362695eae14610848578063652e2f0414610885576103ad565b80634549b039116102a65780634549b039146107285780634ada218b1461076557806353075d3f146107905780635342acb4146107b9576103ad565b8063313ce5671461069757806339509351146106c25780633e4e7fbf146106ff576103ad565b80632379780811610344578063274a533c11610313578063274a533c146105c95780632c0e22cc146105f45780632d8381191461061d5780632f54bf6e1461065a576103ad565b806323797808146104fd57806323b872dd14610526578063242232d1146105635780632671d5581461058c576103ad565b8063112bb58e11610380578063112bb58e1461045757806317bd4cde1461048057806318160ddd146104a957806320c5429b146104d4576103ad565b8063025e7c27146103b257806306fdde03146103ef578063095ea7b31461041a576103ad565b366103ad57005b600080fd5b3480156103be57600080fd5b506103d960048036038101906103d491906173c7565b610f15565b6040516103e69190617435565b60405180910390f35b3480156103fb57600080fd5b50610404610f54565b60405161041191906174e0565b60405180910390f35b34801561042657600080fd5b50610441600480360381019061043c919061752e565b610f91565b60405161044e9190617589565b60405180910390f35b34801561046357600080fd5b5061047e600480360381019061047991906173c7565b610faf565b005b34801561048c57600080fd5b506104a760048036038101906104a291906173c7565b6114ed565b005b3480156104b557600080fd5b506104be611718565b6040516104cb91906175b3565b60405180910390f35b3480156104e057600080fd5b506104fb60048036038101906104f691906173c7565b611722565b005b34801561050957600080fd5b50610524600480360381019061051f919061752e565b6119b4565b005b34801561053257600080fd5b5061054d600480360381019061054891906175ce565b611b36565b60405161055a9190617589565b60405180910390f35b34801561056f57600080fd5b5061058a600480360381019061058591906173c7565b611c36565b005b34801561059857600080fd5b506105b360048036038101906105ae9190617621565b611ecb565b6040516105c091906175b3565b60405180910390f35b3480156105d557600080fd5b506105de612240565b6040516105eb91906175b3565b60405180910390f35b34801561060057600080fd5b5061061b60048036038101906106169190617661565b612246565b005b34801561062957600080fd5b50610644600480360381019061063f91906173c7565b612337565b60405161065191906175b3565b60405180910390f35b34801561066657600080fd5b50610681600480360381019061067c91906176a1565b61239e565b60405161068e9190617589565b60405180910390f35b3480156106a357600080fd5b506106ac6123be565b6040516106b991906176ea565b60405180910390f35b3480156106ce57600080fd5b506106e960048036038101906106e4919061752e565b6123c7565b6040516106f69190617589565b60405180910390f35b34801561070b57600080fd5b50610726600480360381019061072191906175ce565b612471565b005b34801561073457600080fd5b5061074f600480360381019061074a9190617731565b612637565b60405161075c91906175b3565b60405180910390f35b34801561077157600080fd5b5061077a6126c3565b6040516107879190617589565b60405180910390f35b34801561079c57600080fd5b506107b760048036038101906107b291906178b9565b6126d6565b005b3480156107c557600080fd5b506107e060048036038101906107db91906176a1565b61283c565b6040516107ed9190617589565b60405180910390f35b34801561080257600080fd5b5061081d60048036038101906108189190617928565b612892565b005b34801561082b57600080fd5b5061084660048036038101906108419190617731565b6129f8565b005b34801561085457600080fd5b5061086f600480360381019061086a91906176a1565b612b6c565b60405161087c9190617589565b60405180910390f35b34801561089157600080fd5b5061089a612b8c565b6040516108a791906175b3565b60405180910390f35b3480156108bc57600080fd5b506108c5612b92565b6040516108d291906175b3565b60405180910390f35b3480156108e757600080fd5b506108f0612b98565b6040516108fd91906175b3565b60405180910390f35b34801561091257600080fd5b5061092d60048036038101906109289190617731565b612b9e565b005b34801561093b57600080fd5b50610944612d12565b6040516109519190617589565b60405180910390f35b34801561096657600080fd5b50610981600480360381019061097c91906176a1565b612d25565b60405161098e91906175b3565b60405180910390f35b3480156109a357600080fd5b506109be60048036038101906109b991906173c7565b612e0f565b6040516109cb91906175b3565b60405180910390f35b3480156109e057600080fd5b506109e9612ef0565b6040516109f893929190617968565b60405180910390f35b348015610a0d57600080fd5b50610a16612f08565b604051610a239190617435565b60405180910390f35b348015610a3857600080fd5b50610a536004803603810190610a4e919061752e565b612f2e565b005b348015610a6157600080fd5b50610a7c6004803603810190610a779190617621565b6130eb565b604051610a899190617589565b60405180910390f35b348015610a9e57600080fd5b50610aa761311a565b604051610ab491906175b3565b60405180910390f35b348015610ac957600080fd5b50610ad261314a565b604051610adf9190617435565b60405180910390f35b348015610af457600080fd5b50610b0f6004803603810190610b0a91906176a1565b613170565b604051610b1c9190617589565b60405180910390f35b348015610b3157600080fd5b50610b3a6131c6565b604051610b4791906174e0565b60405180910390f35b348015610b5c57600080fd5b50610b776004803603810190610b7291906173c7565b613203565b005b348015610b8557600080fd5b50610ba06004803603810190610b9b919061799f565b613611565b005b348015610bae57600080fd5b50610bc96004803603810190610bc491906173c7565b613713565b604051610bd8939291906179f2565b60405180910390f35b348015610bed57600080fd5b50610bf661377a565b604051610c0593929190617968565b60405180910390f35b348015610c1a57600080fd5b50610c356004803603810190610c309190617661565b613792565b005b348015610c4357600080fd5b50610c5e6004803603810190610c59919061752e565b613889565b604051610c6b9190617589565b60405180910390f35b348015610c8057600080fd5b50610c89613973565b604051610c969190617435565b60405180910390f35b348015610cab57600080fd5b50610cc66004803603810190610cc1919061752e565b613999565b604051610cd39190617589565b60405180910390f35b348015610ce857600080fd5b50610d036004803603810190610cfe91906176a1565b6139bc565b005b348015610d1157600080fd5b50610d2c6004803603810190610d279190617661565b6149ea565b005b348015610d3a57600080fd5b50610d43614b28565b604051610d509190617435565b60405180910390f35b348015610d6557600080fd5b50610d6e614b4e565b604051610d7b91906175b3565b60405180910390f35b348015610d9057600080fd5b50610d99614b54565b604051610da691906175b3565b60405180910390f35b348015610dbb57600080fd5b50610dd66004803603810190610dd19190617a29565b614b5a565b604051610de391906175b3565b60405180910390f35b348015610df857600080fd5b50610e136004803603810190610e0e91906178b9565b614be1565b005b348015610e2157600080fd5b50610e3c6004803603810190610e379190617a69565b614d47565b005b348015610e4a57600080fd5b50610e53614e66565b604051610e6091906175b3565b60405180910390f35b348015610e7557600080fd5b50610e7e614e6c565b604051610e8b9190617589565b60405180910390f35b348015610ea057600080fd5b50610ea9614e7f565b604051610eb893929190617968565b60405180910390f35b348015610ecd57600080fd5b50610ed6614e97565b604051610ee39190617b1b565b60405180910390f35b348015610ef857600080fd5b50610f136004803603810190610f0e9190617928565b614ebd565b005b60258181548110610f2557600080fd5b906000526020600020016000915054906101000a900473ffffffffffffffffffffffffffffffffffffffff1681565b60606040518060400160405280601e81526020017f4d6f77676c692053616e63747561727920546f6b656e56657273696f6e310000815250905090565b6000610fa5610f9e615023565b848461502b565b6001905092915050565b602660003373ffffffffffffffffffffffffffffffffffffffff1673ffffffffffffffffffffffffffffffffffffffff16815260200190815260200160002060009054906101000a900460ff1661103b576040517f08c379a000000000000000000000000000000000000000000000000000000000815260040161103290617b82565b60405180910390fd5b60006028828154811061105157611050617ba2565b5b90600052602060002090600302019050600460008260020160009054906101000a900473ffffffffffffffffffffffffffffffffffffffff1673ffffffffffffffffffffffffffffffffffffffff1673ffffffffffffffffffffffffffffffffffffffff16815260200190815260200160002060009054906101000a900460ff16611111576040517f08c379a000000000000000000000000000000000000000000000000000000000815260040161110890617c1d565b60405180910390fd5b60005b6007805490508110156114e8578160020160009054906101000a900473ffffffffffffffffffffffffffffffffffffffff1673ffffffffffffffffffffffffffffffffffffffff16600782815481106111705761116f617ba2565b5b9060005260206000200160009054906101000a900473ffffffffffffffffffffffffffffffffffffffff1673ffffffffffffffffffffffffffffffffffffffff16036114d557600760016007805490506111ca9190617c6c565b815481106111db576111da617ba2565b5b9060005260206000200160009054906101000a900473ffffffffffffffffffffffffffffffffffffffff166007828154811061121a57611219617ba2565b5b9060005260206000200160006101000a81548173ffffffffffffffffffffffffffffffffffffffff021916908373ffffffffffffffffffffffffffffffffffffffff16021790555061126a6151f4565b600160008460020160009054906101000a900473ffffffffffffffffffffffffffffffffffffffff1673ffffffffffffffffffffffffffffffffffffffff1673ffffffffffffffffffffffffffffffffffffffff168152602001908152602001600020546112d89190617ca0565b6000808460020160009054906101000a900473ffffffffffffffffffffffffffffffffffffffff1673ffffffffffffffffffffffffffffffffffffffff1673ffffffffffffffffffffffffffffffffffffffff168152602001908152602001600020819055506000600160008460020160009054906101000a900473ffffffffffffffffffffffffffffffffffffffff1673ffffffffffffffffffffffffffffffffffffffff1673ffffffffffffffffffffffffffffffffffffffff168152602001908152602001600020819055506000600460008460020160009054906101000a900473ffffffffffffffffffffffffffffffffffffffff1673ffffffffffffffffffffffffffffffffffffffff1673ffffffffffffffffffffffffffffffffffffffff16815260200190815260200160002060006101000a81548160ff021916908315150217905550600780548061143557611434617ce2565b5b6001900381819060005260206000200160006101000a81549073ffffffffffffffffffffffffffffffffffffffff02191690559055611475836003615218565b7f9351be60d7684154f1d81ed1dcf87da46bbc44b32dad50c57e2722860a9ad48a8260020160009054906101000a900473ffffffffffffffffffffffffffffffffffffffff166040516114c89190617435565b60405180910390a16114e8565b80806114e090617d11565b915050611114565b505050565b602660003373ffffffffffffffffffffffffffffffffffffffff1673ffffffffffffffffffffffffffffffffffffffff16815260200190815260200160002060009054906101000a900460ff16611579576040517f08c379a000000000000000000000000000000000000000000000000000000000815260040161157090617b82565b60405180910390fd5b60006028828154811061158f5761158e617ba2565b5b90600052602060002090600302019050600073ffffffffffffffffffffffffffffffffffffffff168160020160009054906101000a900473ffffffffffffffffffffffffffffffffffffffff1673ffffffffffffffffffffffffffffffffffffffff1603611632576040517f08c379a000000000000000000000000000000000000000000000000000000000815260040161162990617da5565b60405180910390fd5b6001600360008360020160009054906101000a900473ffffffffffffffffffffffffffffffffffffffff1673ffffffffffffffffffffffffffffffffffffffff1673ffffffffffffffffffffffffffffffffffffffff16815260200190815260200160002060006101000a81548160ff0219169083151502179055506116b9826001615218565b7fdbde64bef24f6c6798c1137955e0f3ab1ee540536392bea881c4ad3e6d61ecc78160020160009054906101000a900473ffffffffffffffffffffffffffffffffffffffff1660405161170c9190617435565b60405180910390a15050565b6000600e54905090565b602660003373ffffffffffffffffffffffffffffffffffffffff1673ffffffffffffffffffffffffffffffffffffffff16815260200190815260200160002060009054906101000a900460ff166117ae576040517f08c379a00000000000000000000000000000000000000000000000000000000081526004016117a590617b82565b60405180910390fd5b8060288054905081106117f6576040517f08c379a00000000000000000000000000000000000000000000000000000000081526004016117ed90617e11565b60405180910390fd5b8160006028828154811061180d5761180c617ba2565b5b906000526020600020906003020190508060000160009054906101000a900460ff161561186f576040517f08c379a000000000000000000000000000000000000000000000000000000000815260040161186690617e7d565b60405180910390fd5b6029600085815260200190815260200160002060003373ffffffffffffffffffffffffffffffffffffffff1673ffffffffffffffffffffffffffffffffffffffff16815260200190815260200160002060009054906101000a900460ff1661190c576040517f08c379a000000000000000000000000000000000000000000000000000000000815260040161190390617ee9565b60405180910390fd5b60006029600086815260200190815260200160002060003373ffffffffffffffffffffffffffffffffffffffff1673ffffffffffffffffffffffffffffffffffffffff16815260200190815260200160002060006101000a81548160ff0219169083151502179055507fec9ab91322523c899ede7830ec9bfc992b5981cdcc27b91162fb23de5791117b33856040516119a6929190617f09565b60405180910390a150505050565b602660003373ffffffffffffffffffffffffffffffffffffffff1673ffffffffffffffffffffffffffffffffffffffff16815260200190815260200160002060009054906101000a900460ff16611a40576040517f08c379a0000000000000000000000000000000000000000000000000000000008152600401611a3790617b82565b60405180910390fd5b600073ffffffffffffffffffffffffffffffffffffffff168273ffffffffffffffffffffffffffffffffffffffff1603611aaf576040517f08c379a0000000000000000000000000000000000000000000000000000000008152600401611aa690617fa4565b60405180910390fd5b81601760006101000a81548173ffffffffffffffffffffffffffffffffffffffff021916908373ffffffffffffffffffffffffffffffffffffffff160217905550611afb816009615218565b7f02662ef2c54ff98367eb3d0304b112d24ff78beb4077efcef65b040baca760ab82604051611b2a9190617435565b60405180910390a15050565b600080600260008673ffffffffffffffffffffffffffffffffffffffff1673ffffffffffffffffffffffffffffffffffffffff1681526020019081526020016000206000611b82615023565b73ffffffffffffffffffffffffffffffffffffffff1673ffffffffffffffffffffffffffffffffffffffff16815260200190815260200160002054905082811015611c02576040517f08c379a0000000000000000000000000000000000000000000000000000000008152600401611bf990618036565b60405180910390fd5b611c0d8585856153ee565b611c2a85611c19615023565b8584611c259190617c6c565b61502b565b60019150509392505050565b602660003373ffffffffffffffffffffffffffffffffffffffff1673ffffffffffffffffffffffffffffffffffffffff16815260200190815260200160002060009054906101000a900460ff16611cc2576040517f08c379a0000000000000000000000000000000000000000000000000000000008152600401611cb990617b82565b60405180910390fd5b806028805490508110611d0a576040517f08c379a0000000000000000000000000000000000000000000000000000000008152600401611d0190617e11565b60405180910390fd5b816029600082815260200190815260200160002060003373ffffffffffffffffffffffffffffffffffffffff1673ffffffffffffffffffffffffffffffffffffffff16815260200190815260200160002060009054906101000a900460ff1615611da9576040517f08c379a0000000000000000000000000000000000000000000000000000000008152600401611da0906180a2565b60405180910390fd5b82600060288281548110611dc057611dbf617ba2565b5b906000526020600020906003020190508060000160009054906101000a900460ff1615611e22576040517f08c379a0000000000000000000000000000000000000000000000000000000008152600401611e1990617e7d565b60405180910390fd5b60016029600087815260200190815260200160002060003373ffffffffffffffffffffffffffffffffffffffff1673ffffffffffffffffffffffffffffffffffffffff16815260200190815260200160002060006101000a81548160ff0219169083151502179055507f90ec57f18fa7b15c6b8d5e4d1deb90796c74b2ff23d4d0cecad0cb42a96b31283386604051611ebc929190617f09565b60405180910390a15050505050565b6000602660003373ffffffffffffffffffffffffffffffffffffffff1673ffffffffffffffffffffffffffffffffffffffff16815260200190815260200160002060009054906101000a900460ff16611f59576040517f08c379a0000000000000000000000000000000000000000000000000000000008152600401611f5090617b82565b60405180910390fd5b600060128411158015611f6c5750600084115b611fab576040517f08c379a0000000000000000000000000000000000000000000000000000000008152600401611fa29061810e565b60405180910390fd5b60006028805490501115612047576001602880549050611fcb9190617c6c565b90506001151560288281548110611fe557611fe4617ba2565b5b906000526020600020906003020160000160009054906101000a900460ff16151514612046576040517f08c379a000000000000000000000000000000000000000000000000000000000815260040161203d906181a0565b60405180910390fd5b5b602860405180606001604052806000151581526020018681526020018573ffffffffffffffffffffffffffffffffffffffff16815250908060018154018082558091505060019003906000526020600020906003020160009091909190915060008201518160000160006101000a81548160ff0219169083151502179055506020820151816001015560408201518160020160006101000a81548173ffffffffffffffffffffffffffffffffffffffff021916908373ffffffffffffffffffffffffffffffffffffffff160217905550505060016029600060016028805490506121319190617c6c565b815260200190815260200160002060003373ffffffffffffffffffffffffffffffffffffffff1673ffffffffffffffffffffffffffffffffffffffff16815260200190815260200160002060006101000a81548160ff0219169083151502179055507f90ec57f18fa7b15c6b8d5e4d1deb90796c74b2ff23d4d0cecad0cb42a96b31283360016028805490506121c79190617c6c565b6040516121d5929190617f09565b60405180910390a17fe764a167ea16dba9a9b8fdc48c267800565d742612790348c3342f6ed230acfa60016028805490506122109190617c6c565b60405161221d91906175b3565b60405180910390a160016028805490506122379190617c6c565b91505092915050565b60145481565b602660003373ffffffffffffffffffffffffffffffffffffffff1673ffffffffffffffffffffffffffffffffffffffff16815260200190815260200160002060009054906101000a900460ff166122d2576040517f08c379a00000000000000000000000000000000000000000000000000000000081526004016122c990617b82565b60405180910390fd5b6012600a6122e091906182f3565b826122eb9190617ca0565b6010819055506122fc81600d615218565b7fd9426b58c81d17f6dd4bb6b8680fe18cfcfed49a38648d7d1a2d8fb9806fc2188260405161232b91906175b3565b60405180910390a15050565b6000600f5482111561237e576040517f08c379a0000000000000000000000000000000000000000000000000000000008152600401612375906183b0565b60405180910390fd5b60006123886151f4565b9050808361239691906183ff565b915050919050565b60266020528060005260406000206000915054906101000a900460ff1681565b60006012905090565b6000806123d2615023565b9050612466818585600260008673ffffffffffffffffffffffffffffffffffffffff1673ffffffffffffffffffffffffffffffffffffffff16815260200190815260200160002060008973ffffffffffffffffffffffffffffffffffffffff1673ffffffffffffffffffffffffffffffffffffffff168152602001908152602001600020546124619190618430565b61502b565b600191505092915050565b602660003373ffffffffffffffffffffffffffffffffffffffff1673ffffffffffffffffffffffffffffffffffffffff16815260200190815260200160002060009054906101000a900460ff166124fd576040517f08c379a00000000000000000000000000000000000000000000000000000000081526004016124f490617b82565b60405180910390fd5b82600c60006101000a81548173ffffffffffffffffffffffffffffffffffffffff021916908373ffffffffffffffffffffffffffffffffffffffff160217905550600073ffffffffffffffffffffffffffffffffffffffff168273ffffffffffffffffffffffffffffffffffffffff16036125ad576040517f08c379a00000000000000000000000000000000000000000000000000000000081526004016125a4906184b0565b60405180910390fd5b81600d60006101000a81548173ffffffffffffffffffffffffffffffffffffffff021916908373ffffffffffffffffffffffffffffffffffffffff1602179055506125f981600c615218565b7f175e4bbeb77c7e49271724a8534bbdd31ea0f809390ee2f57d6b7aa286440eef838360405161262a9291906184d0565b60405180910390a1505050565b6000600e5483111561267e576040517f08c379a000000000000000000000000000000000000000000000000000000000815260040161267590618545565b60405180910390fd5b816126a2576000612693846001600080615def565b905080600001519150506126bd565b60006126b2846001600080615def565b905080602001519150505b92915050565b600860009054906101000a900460ff1681565b602660003373ffffffffffffffffffffffffffffffffffffffff1673ffffffffffffffffffffffffffffffffffffffff16815260200190815260200160002060009054906101000a900460ff16612762576040517f08c379a000000000000000000000000000000000000000000000000000000000815260040161275990617b82565b60405180910390fd5b60005b83518110156127f257826005600086848151811061278657612785617ba2565b5b602002602001015173ffffffffffffffffffffffffffffffffffffffff1673ffffffffffffffffffffffffffffffffffffffff16815260200190815260200160002060006101000a81548160ff02191690831515021790555080806127ea90617d11565b915050612765565b506127fe81600f615218565b7f191f53b0e0dc669e0bebab999ce36b4af8938f5b060c7b7e6974007743f9c679838360405161282f929190618623565b60405180910390a1505050565b6000600360008373ffffffffffffffffffffffffffffffffffffffff1673ffffffffffffffffffffffffffffffffffffffff16815260200190815260200160002060009054906101000a900460ff169050919050565b602660003373ffffffffffffffffffffffffffffffffffffffff1673ffffffffffffffffffffffffffffffffffffffff16815260200190815260200160002060009054906101000a900460ff1661291e576040517f08c379a000000000000000000000000000000000000000000000000000000000815260040161291590617b82565b60405180910390fd5b600115158215150361297057604051806060016040528060028152602001600181526020016002815250601c6000820151816000015560208201518160010155604082015181600201559050506129b2565b604051806060016040528060008152602001600081526020016000815250601c6000820151816000015560208201518160010155604082015181600201559050505b6129bd816011615218565b7f2aa8128b3cf57c168078769033a09f2677560674defb313c68f8ec74df66dc90826040516129ec9190617589565b60405180910390a15050565b602660003373ffffffffffffffffffffffffffffffffffffffff1673ffffffffffffffffffffffffffffffffffffffff16815260200190815260200160002060009054906101000a900460ff16612a84576040517f08c379a0000000000000000000000000000000000000000000000000000000008152600401612a7b90617b82565b60405180910390fd5b600060288381548110612a9a57612a99617ba2565b5b9060005260206000209060030201905081600560008360020160009054906101000a900473ffffffffffffffffffffffffffffffffffffffff1673ffffffffffffffffffffffffffffffffffffffff1673ffffffffffffffffffffffffffffffffffffffff16815260200190815260200160002060006101000a81548160ff021916908315150217905550612b30836006615218565b7f9df30a92d8b45281aaad80fbcad933dfe9354bcdee1277231df54e63e55195d782604051612b5f9190617589565b60405180910390a1505050565b60056020528060005260406000206000915054906101000a900460ff1681565b60125481565b60135481565b60115481565b602660003373ffffffffffffffffffffffffffffffffffffffff1673ffffffffffffffffffffffffffffffffffffffff16815260200190815260200160002060009054906101000a900460ff16612c2a576040517f08c379a0000000000000000000000000000000000000000000000000000000008152600401612c2190617b82565b60405180910390fd5b600060288381548110612c4057612c3f617ba2565b5b9060005260206000209060030201905081600660008360020160009054906101000a900473ffffffffffffffffffffffffffffffffffffffff1673ffffffffffffffffffffffffffffffffffffffff1673ffffffffffffffffffffffffffffffffffffffff16815260200190815260200160002060006101000a81548160ff021916908315150217905550612cd6836008615218565b7fb4dd5c2209bde9a21f0e7f65b94f8565474c3c3e744b186e1f9b38e086af280d82604051612d059190617589565b60405180910390a1505050565b600860019054906101000a900460ff1681565b6000600460008373ffffffffffffffffffffffffffffffffffffffff1673ffffffffffffffffffffffffffffffffffffffff16815260200190815260200160002060009054906101000a900460ff1615612dc057600160008373ffffffffffffffffffffffffffffffffffffffff1673ffffffffffffffffffffffffffffffffffffffff168152602001908152602001600020549050612e0a565b612e076000808473ffffffffffffffffffffffffffffffffffffffff1673ffffffffffffffffffffffffffffffffffffffff16815260200190815260200160002054612337565b90505b919050565b60008060005b602580549050811015612ee65760296000858152602001908152602001600020600060258381548110612e4b57612e4a617ba2565b5b9060005260206000200160009054906101000a900473ffffffffffffffffffffffffffffffffffffffff1673ffffffffffffffffffffffffffffffffffffffff1673ffffffffffffffffffffffffffffffffffffffff16815260200190815260200160002060009054906101000a900460ff1615612ed357600182612ed09190618430565b91505b8080612ede90617d11565b915050612e15565b5080915050919050565b601c8060000154908060010154908060020154905083565b601760009054906101000a900473ffffffffffffffffffffffffffffffffffffffff1681565b806028805490508110612f76576040517f08c379a0000000000000000000000000000000000000000000000000000000008152600401612f6d90617e11565b60405180910390fd5b602660003373ffffffffffffffffffffffffffffffffffffffff1673ffffffffffffffffffffffffffffffffffffffff16815260200190815260200160002060009054906101000a900460ff16613002576040517f08c379a0000000000000000000000000000000000000000000000000000000008152600401612ff990617b82565b60405180910390fd5b60006028838154811061301857613017617ba2565b5b90600052602060002090600302019050600073ffffffffffffffffffffffffffffffffffffffff168473ffffffffffffffffffffffffffffffffffffffff1603613097576040517f08c379a000000000000000000000000000000000000000000000000000000000815260040161308e9061869f565b60405180910390fd5b838160020160006101000a81548173ffffffffffffffffffffffffffffffffffffffff021916908373ffffffffffffffffffffffffffffffffffffffff1602179055506130e5836012615218565b50505050565b60296020528160005260406000206020528060005260406000206000915091509054906101000a900460ff1681565b600080602880549050111561314257600160288054905061313b9190617c6c565b9050613147565b600080fd5b90565b601660009054906101000a900473ffffffffffffffffffffffffffffffffffffffff1681565b6000600460008373ffffffffffffffffffffffffffffffffffffffff1673ffffffffffffffffffffffffffffffffffffffff16815260200190815260200160002060009054906101000a900460ff169050919050565b60606040518060400160405280600381526020017f4d53540000000000000000000000000000000000000000000000000000000000815250905090565b602660003373ffffffffffffffffffffffffffffffffffffffff1673ffffffffffffffffffffffffffffffffffffffff16815260200190815260200160002060009054906101000a900460ff1661328f576040517f08c379a000000000000000000000000000000000000000000000000000000000815260040161328690617b82565b60405180910390fd5b6000602882815481106132a5576132a4617ba2565b5b90600052602060002090600302019050600460008260020160009054906101000a900473ffffffffffffffffffffffffffffffffffffffff1673ffffffffffffffffffffffffffffffffffffffff1673ffffffffffffffffffffffffffffffffffffffff16815260200190815260200160002060009054906101000a900460ff1615613366576040517f08c379a000000000000000000000000000000000000000000000000000000000815260040161335d9061870b565b60405180910390fd5b60008060008360020160009054906101000a900473ffffffffffffffffffffffffffffffffffffffff1673ffffffffffffffffffffffffffffffffffffffff1673ffffffffffffffffffffffffffffffffffffffff1681526020019081526020016000205411156134a45761343c6000808360020160009054906101000a900473ffffffffffffffffffffffffffffffffffffffff1673ffffffffffffffffffffffffffffffffffffffff1673ffffffffffffffffffffffffffffffffffffffff16815260200190815260200160002054612337565b600160008360020160009054906101000a900473ffffffffffffffffffffffffffffffffffffffff1673ffffffffffffffffffffffffffffffffffffffff1673ffffffffffffffffffffffffffffffffffffffff168152602001908152602001600020819055505b6001600460008360020160009054906101000a900473ffffffffffffffffffffffffffffffffffffffff1673ffffffffffffffffffffffffffffffffffffffff1673ffffffffffffffffffffffffffffffffffffffff16815260200190815260200160002060006101000a81548160ff02191690831515021790555060078160020160009054906101000a900473ffffffffffffffffffffffffffffffffffffffff169080600181540180825580915050600190039060005260206000200160009091909190916101000a81548173ffffffffffffffffffffffffffffffffffffffff021916908373ffffffffffffffffffffffffffffffffffffffff1602179055506135b2826002615218565b7f8cd08ff476550dec3de6ea6137b3eaca4ab9ae21761ea26eb09cb6305fd424a88160020160009054906101000a900473ffffffffffffffffffffffffffffffffffffffff166040516136059190617435565b60405180910390a15050565b602660003373ffffffffffffffffffffffffffffffffffffffff1673ffffffffffffffffffffffffffffffffffffffff16815260200190815260200160002060009054906101000a900460ff1661369d576040517f08c379a000000000000000000000000000000000000000000000000000000000815260040161369490617b82565b60405180910390fd5b6001826136aa9190617ca0565b600b8190555082600a60006101000a81548160ff0219169083151502179055506136d5816007615218565b7ffa4011cdf98f199f8dfb40850066df236ce0c61ec9ca8cf7df069471144fb92d838360405161370692919061872b565b60405180910390a1505050565b6028818154811061372357600080fd5b90600052602060002090600302016000915090508060000160009054906101000a900460ff16908060010154908060020160009054906101000a900473ffffffffffffffffffffffffffffffffffffffff16905083565b60228060000154908060010154908060020154905083565b602660003373ffffffffffffffffffffffffffffffffffffffff1673ffffffffffffffffffffffffffffffffffffffff16815260200190815260200160002060009054906101000a900460ff1661381e576040517f08c379a000000000000000000000000000000000000000000000000000000000815260040161381590617b82565b60405180910390fd5b6138266123be565b600a61383291906182f3565b8261383d9190617ca0565b60138190555061384e81600b615218565b7f575beb4f9d024a957fea2f529f8545a4962564551d15f927269d203b31f349b48260405161387d91906175b3565b60405180910390a15050565b600080613894615023565b90506000600260008373ffffffffffffffffffffffffffffffffffffffff1673ffffffffffffffffffffffffffffffffffffffff16815260200190815260200160002060008673ffffffffffffffffffffffffffffffffffffffff1673ffffffffffffffffffffffffffffffffffffffff1681526020019081526020016000205490508381101561395a576040517f08c379a0000000000000000000000000000000000000000000000000000000008152600401613951906187c6565b60405180910390fd5b613967828686840361502b565b60019250505092915050565b600d60009054906101000a900473ffffffffffffffffffffffffffffffffffffffff1681565b6000806139a4615023565b90506139b18185856153ee565b600191505092915050565b60006139c86001615e4d565b905080156139ec576001602a60016101000a81548160ff0219169083151502179055505b602660003373ffffffffffffffffffffffffffffffffffffffff1673ffffffffffffffffffffffffffffffffffffffff16815260200190815260200160002060009054906101000a900460ff16613a78576040517f08c379a0000000000000000000000000000000000000000000000000000000008152600401613a6f90617b82565b60405180910390fd5b600073ffffffffffffffffffffffffffffffffffffffff168273ffffffffffffffffffffffffffffffffffffffff1603613ae7576040517f08c379a0000000000000000000000000000000000000000000000000000000008152600401613ade90618832565b60405180910390fd5b60008290508073ffffffffffffffffffffffffffffffffffffffff1663c45a01556040518163ffffffff1660e01b8152600401602060405180830381865afa158015613b37573d6000803e3d6000fd5b505050506040513d601f19601f82011682018060405250810190613b5b9190618867565b73ffffffffffffffffffffffffffffffffffffffff1663c9c65396308373ffffffffffffffffffffffffffffffffffffffff1663ad5c46486040518163ffffffff1660e01b8152600401602060405180830381865afa158015613bc2573d6000803e3d6000fd5b505050506040513d601f19601f82011682018060405250810190613be69190618867565b6040518363ffffffff1660e01b8152600401613c039291906184d0565b6020604051808303816000875af1158015613c22573d6000803e3d6000fd5b505050506040513d601f19601f82011682018060405250810190613c469190618867565b600d60006101000a81548173ffffffffffffffffffffffffffffffffffffffff021916908373ffffffffffffffffffffffffffffffffffffffff16021790555080600c60006101000a81548173ffffffffffffffffffffffffffffffffffffffff021916908373ffffffffffffffffffffffffffffffffffffffff1602179055506001600860016101000a81548160ff0219169083151502179055506001600860006101000a81548160ff021916908315150217905550600360278190555033601860006101000a81548173ffffffffffffffffffffffffffffffffffffffff021916908373ffffffffffffffffffffffffffffffffffffffff160217905550603c600b819055506001600a60006101000a81548160ff021916908315150217905550601260ff16600a613d7a9190618894565b63056b0620613d899190617ca0565b600e81905550600e54600019613d9f91906188df565b600019613dac9190617c6c565b600f81905550601260ff16600a613dc39190618894565b62016314613dd19190617ca0565b601081905550601260ff16600a613de89190618894565b620ddec8613df69190617ca0565b601181905550601260ff16600a613e0d9190618894565b620ddec8613e1b9190617ca0565b601281905550601260ff16600a613e329190618894565b620ddec8613e409190617ca0565b60138190555043601481905550600060158190555061dead601660006101000a81548173ffffffffffffffffffffffffffffffffffffffff021916908373ffffffffffffffffffffffffffffffffffffffff160217905550731c7f0c770e45030da303728969821f800dd55476601760006101000a81548173ffffffffffffffffffffffffffffffffffffffff021916908373ffffffffffffffffffffffffffffffffffffffff1602179055506040518060600160405280600081526020016000815260200160008152506019600082015181600001556020820151816001015560408201518160020155905050604051806060016040528060008152602001600081526020016000815250601c600082015181600001556020820151816001015560408201518160020155905050604051806060016040528060028152602001600181526020016002815250601f600082015181600001556020820151816001015560408201518160020155905050600160036000600d60009054906101000a900473ffffffffffffffffffffffffffffffffffffffff1673ffffffffffffffffffffffffffffffffffffffff1673ffffffffffffffffffffffffffffffffffffffff16815260200190815260200160002060006101000a81548160ff021916908315150217905550600160036000601660009054906101000a900473ffffffffffffffffffffffffffffffffffffffff1673ffffffffffffffffffffffffffffffffffffffff1673ffffffffffffffffffffffffffffffffffffffff16815260200190815260200160002060006101000a81548160ff0219169083151502179055506040518060a0016040528073686ac14acc91145a42dea24ded14335472aa7b9c73ffffffffffffffffffffffffffffffffffffffff1673ffffffffffffffffffffffffffffffffffffffff16815260200173370c9120bc57c0f9c4feda2074410292732a35c673ffffffffffffffffffffffffffffffffffffffff1673ffffffffffffffffffffffffffffffffffffffff168152602001731a963858deef16cf6b3fd7dc9750a43abfd2938c73ffffffffffffffffffffffffffffffffffffffff1673ffffffffffffffffffffffffffffffffffffffff16815260200173285e3e816302b81c5f21fc632e166e323c575a8573ffffffffffffffffffffffffffffffffffffffff1673ffffffffffffffffffffffffffffffffffffffff168152602001734e18c6f0070be7aa44786a2678e1de05ecc6231673ffffffffffffffffffffffffffffffffffffffff1673ffffffffffffffffffffffffffffffffffffffff16815250602590600561421b929190617269565b5060005b6025805490508110156144875760006025828154811061424257614241617ba2565b5b9060005260206000200160009054906101000a900473ffffffffffffffffffffffffffffffffffffffff169050600073ffffffffffffffffffffffffffffffffffffffff168173ffffffffffffffffffffffffffffffffffffffff16036142de576040517f08c379a00000000000000000000000000000000000000000000000000000000081526004016142d59061895c565b60405180910390fd5b602660008273ffffffffffffffffffffffffffffffffffffffff1673ffffffffffffffffffffffffffffffffffffffff16815260200190815260200160002060009054906101000a900460ff161561436b576040517f08c379a0000000000000000000000000000000000000000000000000000000008152600401614362906189c8565b60405180910390fd5b6001602660008373ffffffffffffffffffffffffffffffffffffffff1673ffffffffffffffffffffffffffffffffffffffff16815260200190815260200160002060006101000a81548160ff0219169083151502179055506001600360008373ffffffffffffffffffffffffffffffffffffffff1673ffffffffffffffffffffffffffffffffffffffff16815260200190815260200160002060006101000a81548160ff0219169083151502179055506001600560008373ffffffffffffffffffffffffffffffffffffffff1673ffffffffffffffffffffffffffffffffffffffff16815260200190815260200160002060006101000a81548160ff02191690831515021790555050808061447f90617d11565b91505061421f565b50600f54600080614496615023565b73ffffffffffffffffffffffffffffffffffffffff1673ffffffffffffffffffffffffffffffffffffffff168152602001908152602001600020819055506001600360003073ffffffffffffffffffffffffffffffffffffffff1673ffffffffffffffffffffffffffffffffffffffff16815260200190815260200160002060006101000a81548160ff021916908315150217905550600160036000601760009054906101000a900473ffffffffffffffffffffffffffffffffffffffff1673ffffffffffffffffffffffffffffffffffffffff1673ffffffffffffffffffffffffffffffffffffffff16815260200190815260200160002060006101000a81548160ff021916908315150217905550600160036000601660009054906101000a900473ffffffffffffffffffffffffffffffffffffffff1673ffffffffffffffffffffffffffffffffffffffff1673ffffffffffffffffffffffffffffffffffffffff16815260200190815260200160002060006101000a81548160ff02191690831515021790555060016003600073d152f549545093347a162dce210e7293f145215073ffffffffffffffffffffffffffffffffffffffff1673ffffffffffffffffffffffffffffffffffffffff16815260200190815260200160002060006101000a81548160ff021916908315150217905550600160036000737ee058420e5937496f5a2096f04caa7721cf70cc73ffffffffffffffffffffffffffffffffffffffff1673ffffffffffffffffffffffffffffffffffffffff16815260200190815260200160002060006101000a81548160ff0219169083151502179055506001600560003073ffffffffffffffffffffffffffffffffffffffff1673ffffffffffffffffffffffffffffffffffffffff16815260200190815260200160002060006101000a81548160ff021916908315150217905550600160056000600d60009054906101000a900473ffffffffffffffffffffffffffffffffffffffff1673ffffffffffffffffffffffffffffffffffffffff1673ffffffffffffffffffffffffffffffffffffffff16815260200190815260200160002060006101000a81548160ff021916908315150217905550600160056000601760009054906101000a900473ffffffffffffffffffffffffffffffffffffffff1673ffffffffffffffffffffffffffffffffffffffff1673ffffffffffffffffffffffffffffffffffffffff16815260200190815260200160002060006101000a81548160ff02191690831515021790555060016005600073d152f549545093347a162dce210e7293f145215073ffffffffffffffffffffffffffffffffffffffff1673ffffffffffffffffffffffffffffffffffffffff16815260200190815260200160002060006101000a81548160ff021916908315150217905550600160056000737ee058420e5937496f5a2096f04caa7721cf70cc73ffffffffffffffffffffffffffffffffffffffff1673ffffffffffffffffffffffffffffffffffffffff16815260200190815260200160002060006101000a81548160ff021916908315150217905550614924615023565b73ffffffffffffffffffffffffffffffffffffffff16600073ffffffffffffffffffffffffffffffffffffffff167fddf252ad1be2c89b69c2b068fc378daa952ba7f163c4a11628f55a4df523b3ef600e5460405161498391906175b3565b60405180910390a35080156149e6576000602a60016101000a81548160ff0219169083151502179055507f7f26b83ff96e1f2b6a682f133852f6798a09c465da95921460cefb384740249860016040516149dd9190618a23565b60405180910390a15b5050565b602660003373ffffffffffffffffffffffffffffffffffffffff1673ffffffffffffffffffffffffffffffffffffffff16815260200190815260200160002060009054906101000a900460ff16614a76576040517f08c379a0000000000000000000000000000000000000000000000000000000008152600401614a6d90617b82565b60405180910390fd5b81471015614ab9576040517f08c379a0000000000000000000000000000000000000000000000000000000008152600401614ab090618a8a565b60405180910390fd5b614ae2823373ffffffffffffffffffffffffffffffffffffffff16615f4190919063ffffffff16565b614aed816005615218565b7fc806a2e979c8f1a76fe7b47e2bceb111e789dda4d0da93d0e5df7f56f344b1ff82604051614b1c91906175b3565b60405180910390a15050565b601860009054906101000a900473ffffffffffffffffffffffffffffffffffffffff1681565b60275481565b600b5481565b6000600260008473ffffffffffffffffffffffffffffffffffffffff1673ffffffffffffffffffffffffffffffffffffffff16815260200190815260200160002060008373ffffffffffffffffffffffffffffffffffffffff1673ffffffffffffffffffffffffffffffffffffffff16815260200190815260200160002054905092915050565b602660003373ffffffffffffffffffffffffffffffffffffffff1673ffffffffffffffffffffffffffffffffffffffff16815260200190815260200160002060009054906101000a900460ff16614c6d576040517f08c379a0000000000000000000000000000000000000000000000000000000008152600401614c6490617b82565b60405180910390fd5b60005b8351811015614cfd578260066000868481518110614c9157614c90617ba2565b5b602002602001015173ffffffffffffffffffffffffffffffffffffffff1673ffffffffffffffffffffffffffffffffffffffff16815260200190815260200160002060006101000a81548160ff0219169083151502179055508080614cf590617d11565b915050614c70565b50614d0981600e615218565b7f69658000c6a55369e18013a2245d930872faf496d5f06e18b00a14d5746848e28383604051614d3a929190618623565b60405180910390a1505050565b602660003373ffffffffffffffffffffffffffffffffffffffff1673ffffffffffffffffffffffffffffffffffffffff16815260200190815260200160002060009054906101000a900460ff16614dd3576040517f08c379a0000000000000000000000000000000000000000000000000000000008152600401614dca90617b82565b60405180910390fd5b614ddb6123be565b600a614de791906182f3565b83614df29190617ca0565b601181905550614e006123be565b600a614e0c91906182f3565b82614e179190617ca0565b601281905550614e2881600a615218565b7f27753d76d86e2580a6535641fd05c753f41398b68d711d3a8bd15e94118772d88383604051614e59929190618aaa565b60405180910390a1505050565b60105481565b600a60009054906101000a900460ff1681565b601f8060000154908060010154908060020154905083565b600c60009054906101000a900473ffffffffffffffffffffffffffffffffffffffff1681565b602660003373ffffffffffffffffffffffffffffffffffffffff1673ffffffffffffffffffffffffffffffffffffffff16815260200190815260200160002060009054906101000a900460ff16614f49576040517f08c379a0000000000000000000000000000000000000000000000000000000008152600401614f4090617b82565b60405180910390fd5b6001151582151503614f9b57604051806060016040528060028152602001600181526020016002815250601f600082015181600001556020820151816001015560408201518160020155905050614fdd565b604051806060016040528060008152602001600081526020016000815250601f6000820151816000015560208201518160010155604082015181600201559050505b614fe8816010615218565b7f2aa8128b3cf57c168078769033a09f2677560674defb313c68f8ec74df66dc90826040516150179190617589565b60405180910390a15050565b600033905090565b600073ffffffffffffffffffffffffffffffffffffffff168373ffffffffffffffffffffffffffffffffffffffff160361509a576040517f08c379a000000000000000000000000000000000000000000000000000000000815260040161509190618b45565b60405180910390fd5b600073ffffffffffffffffffffffffffffffffffffffff168273ffffffffffffffffffffffffffffffffffffffff1603615109576040517f08c379a000000000000000000000000000000000000000000000000000000000815260040161510090618bd7565b60405180910390fd5b80600260008573ffffffffffffffffffffffffffffffffffffffff1673ffffffffffffffffffffffffffffffffffffffff16815260200190815260200160002060008473ffffffffffffffffffffffffffffffffffffffff1673ffffffffffffffffffffffffffffffffffffffff168152602001908152602001600020819055508173ffffffffffffffffffffffffffffffffffffffff168373ffffffffffffffffffffffffffffffffffffffff167f8c5be1e5ebec7d5bd14f71427d1e84f3dd0314c0f7b2291e5b200ac8c7c3b925836040516151e791906175b3565b60405180910390a3505050565b6000806000615201616035565b91509150808261521191906183ff565b9250505090565b816028805490508110615260576040517f08c379a000000000000000000000000000000000000000000000000000000000815260040161525790617e11565b60405180910390fd5b8260006028828154811061527757615276617ba2565b5b906000526020600020906003020190508060000160009054906101000a900460ff16156152d9576040517f08c379a00000000000000000000000000000000000000000000000000000000081526004016152d090617e7d565b60405180910390fd5b6027546152e586612e0f565b1015615326576040517f08c379a000000000000000000000000000000000000000000000000000000000815260040161531d90618c69565b60405180910390fd5b60006028868154811061533c5761533b617ba2565b5b9060005260206000209060030201905084816001015414615392576040517f08c379a000000000000000000000000000000000000000000000000000000000815260040161538990618cd5565b60405180910390fd5b60018160000160006101000a81548160ff0219169083151502179055507fddb556f1d2c1ec821e910b019d3685b229db152a0ecd517ca7e24b8bd7139289866040516153de91906175b3565b60405180910390a1505050505050565b600073ffffffffffffffffffffffffffffffffffffffff168373ffffffffffffffffffffffffffffffffffffffff160361545d576040517f08c379a000000000000000000000000000000000000000000000000000000000815260040161545490618d67565b60405180910390fd5b600073ffffffffffffffffffffffffffffffffffffffff168273ffffffffffffffffffffffffffffffffffffffff16036154cc576040517f08c379a00000000000000000000000000000000000000000000000000000000081526004016154c390618df9565b60405180910390fd5b6000811161550f576040517f08c379a000000000000000000000000000000000000000000000000000000000815260040161550690618e8b565b60405180910390fd5b61551883612d25565b81111561555a576040517f08c379a000000000000000000000000000000000000000000000000000000000815260040161555190618f1d565b60405180910390fd5b600660008473ffffffffffffffffffffffffffffffffffffffff1673ffffffffffffffffffffffffffffffffffffffff16815260200190815260200160002060009054906101000a900460ff161580156155fe5750600660008373ffffffffffffffffffffffffffffffffffffffff1673ffffffffffffffffffffffffffffffffffffffff16815260200190815260200160002060009054906101000a900460ff16155b61563d576040517f08c379a000000000000000000000000000000000000000000000000000000000815260040161563490618f89565b60405180910390fd5b600d60009054906101000a900473ffffffffffffffffffffffffffffffffffffffff1673ffffffffffffffffffffffffffffffffffffffff168373ffffffffffffffffffffffffffffffffffffffff161480156156e45750600360008373ffffffffffffffffffffffffffffffffffffffff1673ffffffffffffffffffffffffffffffffffffffff16815260200190815260200160002060009054906101000a900460ff16155b80156156fd5750600860029054906101000a900460ff16155b156157a057601154811115615747576040517f08c379a000000000000000000000000000000000000000000000000000000000815260040161573e90618ff5565b60405180910390fd5b6013548161575484612d25565b61575e9190618430565b111561579f576040517f08c379a000000000000000000000000000000000000000000000000000000000815260040161579690619061565b60405180910390fd5b5b600d60009054906101000a900473ffffffffffffffffffffffffffffffffffffffff1673ffffffffffffffffffffffffffffffffffffffff168373ffffffffffffffffffffffffffffffffffffffff16141580156158485750600360008373ffffffffffffffffffffffffffffffffffffffff1673ffffffffffffffffffffffffffffffffffffffff16815260200190815260200160002060009054906101000a900460ff16155b801561589e5750600360008473ffffffffffffffffffffffffffffffffffffffff1673ffffffffffffffffffffffffffffffffffffffff16815260200190815260200160002060009054906101000a900460ff16155b80156158b75750600860029054906101000a900460ff16155b15615a9f57601254811115615901576040517f08c379a00000000000000000000000000000000000000000000000000000000081526004016158f8906190cd565b60405180910390fd5b600d60009054906101000a900473ffffffffffffffffffffffffffffffffffffffff1673ffffffffffffffffffffffffffffffffffffffff168273ffffffffffffffffffffffffffffffffffffffff16146159af576013548161596384612d25565b61596d9190618430565b11156159ae576040517f08c379a00000000000000000000000000000000000000000000000000000000081526004016159a590619061565b60405180910390fd5b5b600a60009054906101000a900460ff1615615a9e576000600960008573ffffffffffffffffffffffffffffffffffffffff1673ffffffffffffffffffffffffffffffffffffffff1681526020019081526020016000205442615a119190617c6c565b9050600b54811015615a58576040517f08c379a0000000000000000000000000000000000000000000000000000000008152600401615a4f90619139565b60405180910390fd5b42600960008673ffffffffffffffffffffffffffffffffffffffff1673ffffffffffffffffffffffffffffffffffffffff16815260200190815260200160002081905550505b5b6000601054615aad30612d25565b10159050600860029054906101000a900460ff16158015615ada5750600860019054906101000a900460ff165b8015615ae35750805b8015615b3d5750600d60009054906101000a900473ffffffffffffffffffffffffffffffffffffffff1673ffffffffffffffffffffffffffffffffffffffff168473ffffffffffffffffffffffffffffffffffffffff1614155b8015615b935750600360008573ffffffffffffffffffffffffffffffffffffffff1673ffffffffffffffffffffffffffffffffffffffff16815260200190815260200160002060009054906101000a900460ff16155b8015615be95750600360008473ffffffffffffffffffffffffffffffffffffffff1673ffffffffffffffffffffffffffffffffffffffff16815260200190815260200160002060009054906101000a900460ff16155b15615cb657600d60009054906101000a900473ffffffffffffffffffffffffffffffffffffffff1673ffffffffffffffffffffffffffffffffffffffff168373ffffffffffffffffffffffffffffffffffffffff1603615c7e57615c79601054601f60405180606001604052908160008201548152602001600182015481526020016002820154815250506162cb565b615cb5565b615cb4601054601c60405180606001604052908160008201548152602001600182015481526020016002820154815250506162cb565b5b5b6000600190506000600860029054906101000a900460ff1680615d225750600360008773ffffffffffffffffffffffffffffffffffffffff1673ffffffffffffffffffffffffffffffffffffffff16815260200190815260200160002060009054906101000a900460ff165b80615d765750600360008673ffffffffffffffffffffffffffffffffffffffff1673ffffffffffffffffffffffffffffffffffffffff16815260200190815260200160002060009054906101000a900460ff165b15615d8057600091505b600d60009054906101000a900473ffffffffffffffffffffffffffffffffffffffff1673ffffffffffffffffffffffffffffffffffffffff168573ffffffffffffffffffffffffffffffffffffffff1603615dda57600190505b615de78686868585616454565b505050505050565b615df76172f3565b615e0385858585616987565b9050615e18818686615e136151f4565b616b05565b856000018660200187604001886060018960800185815250858152508581525085815250858152505050505050949350505050565b6000602a60019054906101000a900460ff1615615ec55760018260ff16148015615e7d5750615e7b30616b9d565b155b615ebc576040517f08c379a0000000000000000000000000000000000000000000000000000000008152600401615eb3906191cb565b60405180910390fd5b60009050615f3c565b8160ff16602a60009054906101000a900460ff1660ff1610615f1c576040517f08c379a0000000000000000000000000000000000000000000000000000000008152600401615f13906191cb565b60405180910390fd5b81602a60006101000a81548160ff021916908360ff160217905550600190505b919050565b80471015615f84576040517f08c379a0000000000000000000000000000000000000000000000000000000008152600401615f7b90619237565b60405180910390fd5b60008273ffffffffffffffffffffffffffffffffffffffff1682604051615faa90619288565b60006040518083038185875af1925050503d8060008114615fe7576040519150601f19603f3d011682016040523d82523d6000602084013e615fec565b606091505b5050905080616030576040517f08c379a00000000000000000000000000000000000000000000000000000000081526004016160279061930f565b60405180910390fd5b505050565b6000806000600f5490506000600e549050600060078054806020026020016040519081016040528092919081815260200182805480156160ca57602002820191906000526020600020905b8160009054906101000a900473ffffffffffffffffffffffffffffffffffffffff1673ffffffffffffffffffffffffffffffffffffffff1681526020019060010190808311616080575b5050505050905060005b815181101561629357836000808484815181106160f4576160f3617ba2565b5b602002602001015173ffffffffffffffffffffffffffffffffffffffff1673ffffffffffffffffffffffffffffffffffffffff16815260200190815260200160002054118061619b5750826001600084848151811061615657616155617ba2565b5b602002602001015173ffffffffffffffffffffffffffffffffffffffff1673ffffffffffffffffffffffffffffffffffffffff16815260200190815260200160002054115b156161b357600f54600e5495509550505050506162c7565b6000808383815181106161c9576161c8617ba2565b5b602002602001015173ffffffffffffffffffffffffffffffffffffffff1673ffffffffffffffffffffffffffffffffffffffff16815260200190815260200160002054846162179190617c6c565b9350600160008383815181106162305761622f617ba2565b5b602002602001015173ffffffffffffffffffffffffffffffffffffffff1673ffffffffffffffffffffffffffffffffffffffff168152602001908152602001600020548361627e9190617c6c565b9250808061628b90617d11565b9150506160d4565b50600e54600f546162a491906183ff565b8310156162bd57600f54600e54945094505050506162c7565b8282945094505050505b9091565b6001600860026101000a81548160ff02191690831515021790555060006002826020015183604001516162fe9190618430565b6163089190617ca0565b905060008183604001518561631d9190617ca0565b61632791906183ff565b9050600081856163379190617c6c565b9050600047905061634782616bc0565b600081476163559190617c6c565b905060008660400151866163699190617c6c565b8261637491906183ff565b905060008760400151876163889190617c6c565b8860400151846163989190617ca0565b6163a291906183ff565b905060008111156163b8576163b78682616e03565b5b600088602001516002846163cc9190617ca0565b6163d69190617ca0565b9050600081111561642d5761642c81601760009054906101000a900473ffffffffffffffffffffffffffffffffffffffff1673ffffffffffffffffffffffffffffffffffffffff16615f4190919063ffffffff16565b5b50505050505050506000600860026101000a81548160ff0219169083151502179055505050565b6000600360008773ffffffffffffffffffffffffffffffffffffffff1673ffffffffffffffffffffffffffffffffffffffff16815260200190815260200160002060009054906101000a900460ff161580156164fa5750600360008673ffffffffffffffffffffffffffffffffffffffff1673ffffffffffffffffffffffffffffffffffffffff16815260200190815260200160002060009054906101000a900460ff16155b801561651557506015546014546165119190618430565b4311155b9050600061652585858585615def565b9050600460008873ffffffffffffffffffffffffffffffffffffffff1673ffffffffffffffffffffffffffffffffffffffff16815260200190815260200160002060009054906101000a900460ff16156166085784600160008973ffffffffffffffffffffffffffffffffffffffff1673ffffffffffffffffffffffffffffffffffffffff168152602001908152602001600020546165c49190617c6c565b600160008973ffffffffffffffffffffffffffffffffffffffff1673ffffffffffffffffffffffffffffffffffffffff168152602001908152602001600020819055505b600460008773ffffffffffffffffffffffffffffffffffffffff1673ffffffffffffffffffffffffffffffffffffffff16815260200190815260200160002060009054906101000a900460ff16156166ed578060a00151600160008873ffffffffffffffffffffffffffffffffffffffff1673ffffffffffffffffffffffffffffffffffffffff168152602001908152602001600020546166a99190618430565b600160008873ffffffffffffffffffffffffffffffffffffffff1673ffffffffffffffffffffffffffffffffffffffff168152602001908152602001600020819055505b80600001516000808973ffffffffffffffffffffffffffffffffffffffff1673ffffffffffffffffffffffffffffffffffffffff1681526020019081526020016000205461673b9190617c6c565b6000808973ffffffffffffffffffffffffffffffffffffffff1673ffffffffffffffffffffffffffffffffffffffff1681526020019081526020016000208190555080602001516000808873ffffffffffffffffffffffffffffffffffffffff1673ffffffffffffffffffffffffffffffffffffffff168152602001908152602001600020546167cb9190618430565b6000808873ffffffffffffffffffffffffffffffffffffffff1673ffffffffffffffffffffffffffffffffffffffff16815260200190815260200160002081905550600081604001511180616824575060008160c00151115b1561683c5761683b81604001518260c00151616ff4565b5b60008160800151118061685457506000816101000151115b156168e65761686c816080015182610100015161702d565b3073ffffffffffffffffffffffffffffffffffffffff168773ffffffffffffffffffffffffffffffffffffffff167fddf252ad1be2c89b69c2b068fc378daa952ba7f163c4a11628f55a4df523b3ef8360e001518461010001516168d09190618430565b6040516168dd91906175b3565b60405180910390a35b6000816060015111806168fd575060008160e00151115b156169155761691481606001518260e0015161714b565b5b8573ffffffffffffffffffffffffffffffffffffffff168773ffffffffffffffffffffffffffffffffffffffff167fddf252ad1be2c89b69c2b068fc378daa952ba7f163c4a11628f55a4df523b3ef8360a0015160405161697691906175b3565b60405180910390a350505050505050565b61698f6172f3565b836169a357848160a0018181525050616afd565b6169ab61733f565b8380156169b6575082155b156169ed57601f60405180606001604052908160008201548152602001600182015481526020016002820154815250509050616a53565b82616a2457601c60405180606001604052908160008201548152602001600182015481526020016002820154815250509050616a52565b6019604051806060016040529081600082015481526020016001820154815260200160028201548152505090505b5b6064816000015187616a659190617ca0565b616a6f91906183ff565b8260c00181815250506064816020015187616a8a9190617ca0565b616a9491906183ff565b8260e00181815250506064816040015187616aaf9190617ca0565b616ab991906183ff565b826101000181815250508161010001518260e001518360c0015188616ade9190617c6c565b616ae89190617c6c565b616af29190617c6c565b8260a0018181525050505b949350505050565b60008060008060008588616b199190617ca0565b945086616b36578485600080600094509450945094509450616b92565b858960c00151616b469190617ca0565b9250858960e00151616b589190617ca0565b915085896101000151616b6b9190617ca0565b905080828487616b7b9190617c6c565b616b859190617c6c565b616b8f9190617c6c565b93505b945094509450945094565b6000808273ffffffffffffffffffffffffffffffffffffffff163b119050919050565b6000600267ffffffffffffffff811115616bdd57616bdc617776565b5b604051908082528060200260200182016040528015616c0b5781602001602082028036833780820191505090505b5090503081600081518110616c2357616c22617ba2565b5b602002602001019073ffffffffffffffffffffffffffffffffffffffff16908173ffffffffffffffffffffffffffffffffffffffff1681525050600c60009054906101000a900473ffffffffffffffffffffffffffffffffffffffff1673ffffffffffffffffffffffffffffffffffffffff1663ad5c46486040518163ffffffff1660e01b8152600401602060405180830381865afa158015616cca573d6000803e3d6000fd5b505050506040513d601f19601f82011682018060405250810190616cee9190618867565b81600181518110616d0257616d01617ba2565b5b602002602001019073ffffffffffffffffffffffffffffffffffffffff16908173ffffffffffffffffffffffffffffffffffffffff1681525050616d6930600c60009054906101000a900473ffffffffffffffffffffffffffffffffffffffff168461502b565b600c60009054906101000a900473ffffffffffffffffffffffffffffffffffffffff1673ffffffffffffffffffffffffffffffffffffffff1663791ac9478360008430426040518663ffffffff1660e01b8152600401616dcd95949392919061936a565b600060405180830381600087803b158015616de757600080fd5b505af1158015616dfb573d6000803e3d6000fd5b505050505050565b616e3030600c60009054906101000a900473ffffffffffffffffffffffffffffffffffffffff168461502b565b60008211616e73576040517f08c379a0000000000000000000000000000000000000000000000000000000008152600401616e6a90619436565b60405180910390fd5b600073ffffffffffffffffffffffffffffffffffffffff16601860009054906101000a900473ffffffffffffffffffffffffffffffffffffffff1673ffffffffffffffffffffffffffffffffffffffff1603616f04576040517f08c379a0000000000000000000000000000000000000000000000000000000008152600401616efb906194c8565b60405180910390fd5b600c60009054906101000a900473ffffffffffffffffffffffffffffffffffffffff1673ffffffffffffffffffffffffffffffffffffffff1663f305d7198230856000806025600081548110616f5d57616f5c617ba2565b5b9060005260206000200160009054906101000a900473ffffffffffffffffffffffffffffffffffffffff16426040518863ffffffff1660e01b8152600401616faa969594939291906194e8565b60606040518083038185885af1158015616fc8573d6000803e3d6000fd5b50505050506040513d601f19601f82011682018060405250810190616fed919061955e565b5050505050565b81600f60008282546170069190617c6c565b9250508190555080602260000160008282546170229190618430565b925050819055505050565b80602260020160008282546170429190618430565b92505081905550600460003073ffffffffffffffffffffffffffffffffffffffff1673ffffffffffffffffffffffffffffffffffffffff16815260200190815260200160002060009054906101000a900460ff16156170f25780600160003073ffffffffffffffffffffffffffffffffffffffff1673ffffffffffffffffffffffffffffffffffffffff16815260200190815260200160002060008282546170ea9190618430565b925050819055505b816000803073ffffffffffffffffffffffffffffffffffffffff1673ffffffffffffffffffffffffffffffffffffffff16815260200190815260200160002060008282546171409190618430565b925050819055505050565b80602260010160008282546171609190618430565b92505081905550600460003073ffffffffffffffffffffffffffffffffffffffff1673ffffffffffffffffffffffffffffffffffffffff16815260200190815260200160002060009054906101000a900460ff16156172105780600160003073ffffffffffffffffffffffffffffffffffffffff1673ffffffffffffffffffffffffffffffffffffffff16815260200190815260200160002060008282546172089190618430565b925050819055505b816000803073ffffffffffffffffffffffffffffffffffffffff1673ffffffffffffffffffffffffffffffffffffffff168152602001908152602001600020600082825461725e9190618430565b925050819055505050565b8280548282559060005260206000209081019282156172e2579160200282015b828111156172e15782518260006101000a81548173ffffffffffffffffffffffffffffffffffffffff021916908373ffffffffffffffffffffffffffffffffffffffff16021790555091602001919060010190617289565b5b5090506172ef9190617360565b5090565b6040518061012001604052806000815260200160008152602001600081526020016000815260200160008152602001600081526020016000815260200160008152602001600081525090565b60405180606001604052806000815260200160008152602001600081525090565b5b80821115617379576000816000905550600101617361565b5090565b6000604051905090565b600080fd5b600080fd5b6000819050919050565b6173a481617391565b81146173af57600080fd5b50565b6000813590506173c18161739b565b92915050565b6000602082840312156173dd576173dc617387565b5b60006173eb848285016173b2565b91505092915050565b600073ffffffffffffffffffffffffffffffffffffffff82169050919050565b600061741f826173f4565b9050919050565b61742f81617414565b82525050565b600060208201905061744a6000830184617426565b92915050565b600081519050919050565b600082825260208201905092915050565b60005b8381101561748a57808201518184015260208101905061746f565b60008484015250505050565b6000601f19601f8301169050919050565b60006174b282617450565b6174bc818561745b565b93506174cc81856020860161746c565b6174d581617496565b840191505092915050565b600060208201905081810360008301526174fa81846174a7565b905092915050565b61750b81617414565b811461751657600080fd5b50565b60008135905061752881617502565b92915050565b6000806040838503121561754557617544617387565b5b600061755385828601617519565b9250506020617564858286016173b2565b9150509250929050565b60008115159050919050565b6175838161756e565b82525050565b600060208201905061759e600083018461757a565b92915050565b6175ad81617391565b82525050565b60006020820190506175c860008301846175a4565b92915050565b6000806000606084860312156175e7576175e6617387565b5b60006175f586828701617519565b935050602061760686828701617519565b9250506040617617868287016173b2565b9150509250925092565b6000806040838503121561763857617637617387565b5b6000617646858286016173b2565b925050602061765785828601617519565b9150509250929050565b6000806040838503121561767857617677617387565b5b6000617686858286016173b2565b9250506020617697858286016173b2565b9150509250929050565b6000602082840312156176b7576176b6617387565b5b60006176c584828501617519565b91505092915050565b600060ff82169050919050565b6176e4816176ce565b82525050565b60006020820190506176ff60008301846176db565b92915050565b61770e8161756e565b811461771957600080fd5b50565b60008135905061772b81617705565b92915050565b6000806040838503121561774857617747617387565b5b6000617756858286016173b2565b92505060206177678582860161771c565b9150509250929050565b600080fd5b7f4e487b7100000000000000000000000000000000000000000000000000000000600052604160045260246000fd5b6177ae82617496565b810181811067ffffffffffffffff821117156177cd576177cc617776565b5b80604052505050565b60006177e061737d565b90506177ec82826177a5565b919050565b600067ffffffffffffffff82111561780c5761780b617776565b5b602082029050602081019050919050565b600080fd5b6000617835617830846177f1565b6177d6565b905080838252602082019050602084028301858111156178585761785761781d565b5b835b81811015617881578061786d8882617519565b84526020840193505060208101905061785a565b5050509392505050565b600082601f8301126178a05761789f617771565b5b81356178b0848260208601617822565b91505092915050565b6000806000606084860312156178d2576178d1617387565b5b600084013567ffffffffffffffff8111156178f0576178ef61738c565b5b6178fc8682870161788b565b935050602061790d8682870161771c565b925050604061791e868287016173b2565b9150509250925092565b6000806040838503121561793f5761793e617387565b5b600061794d8582860161771c565b925050602061795e858286016173b2565b9150509250929050565b600060608201905061797d60008301866175a4565b61798a60208301856175a4565b61799760408301846175a4565b949350505050565b6000806000606084860312156179b8576179b7617387565b5b60006179c68682870161771c565b93505060206179d7868287016173b2565b92505060406179e8868287016173b2565b9150509250925092565b6000606082019050617a07600083018661757a565b617a1460208301856175a4565b617a216040830184617426565b949350505050565b60008060408385031215617a4057617a3f617387565b5b6000617a4e85828601617519565b9250506020617a5f85828601617519565b9150509250929050565b600080600060608486031215617a8257617a81617387565b5b6000617a90868287016173b2565b9350506020617aa1868287016173b2565b9250506040617ab2868287016173b2565b9150509250925092565b6000819050919050565b6000617ae1617adc617ad7846173f4565b617abc565b6173f4565b9050919050565b6000617af382617ac6565b9050919050565b6000617b0582617ae8565b9050919050565b617b1581617afa565b82525050565b6000602082019050617b306000830184617b0c565b92915050565b7f6e6f7420616e206f776e65720000000000000000000000000000000000000000600082015250565b6000617b6c600c8361745b565b9150617b7782617b36565b602082019050919050565b60006020820190508181036000830152617b9b81617b5f565b9050919050565b7f4e487b7100000000000000000000000000000000000000000000000000000000600052603260045260246000fd5b7f4163636f756e74206973206e6f74206578636c75646564000000000000000000600082015250565b6000617c0760178361745b565b9150617c1282617bd1565b602082019050919050565b60006020820190508181036000830152617c3681617bfa565b9050919050565b7f4e487b7100000000000000000000000000000000000000000000000000000000600052601160045260246000fd5b6000617c7782617391565b9150617c8283617391565b9250828203905081811115617c9a57617c99617c3d565b5b92915050565b6000617cab82617391565b9150617cb683617391565b9250828202617cc481617391565b91508282048414831517617cdb57617cda617c3d565b5b5092915050565b7f4e487b7100000000000000000000000000000000000000000000000000000000600052603160045260246000fd5b6000617d1c82617391565b91507fffffffffffffffffffffffffffffffffffffffffffffffffffffffffffffffff8203617d4e57617d4d617c3d565b5b600182019050919050565b7f696e76616c696420616464726573730000000000000000000000000000000000600082015250565b6000617d8f600f8361745b565b9150617d9a82617d59565b602082019050919050565b60006020820190508181036000830152617dbe81617d82565b9050919050565b7f74726e7820646f6573206e6f7420657869737400000000000000000000000000600082015250565b6000617dfb60138361745b565b9150617e0682617dc5565b602082019050919050565b60006020820190508181036000830152617e2a81617dee565b9050919050565b7f74726e782068617320616c726561647920657865637574656400000000000000600082015250565b6000617e6760198361745b565b9150617e7282617e31565b602082019050919050565b60006020820190508181036000830152617e9681617e5a565b9050919050565b7f74726e7820686173206e6f74206265656e20617070726f766500000000000000600082015250565b6000617ed360198361745b565b9150617ede82617e9d565b602082019050919050565b60006020820190508181036000830152617f0281617ec6565b9050919050565b6000604082019050617f1e6000830185617426565b617f2b60208301846175a4565b9392505050565b7f6d61726b6574696e6777616c6c657420616464726573732063616e206e6f742060008201527f6265207a65726f00000000000000000000000000000000000000000000000000602082015250565b6000617f8e60278361745b565b9150617f9982617f32565b604082019050919050565b60006020820190508181036000830152617fbd81617f81565b9050919050565b7f45524332303a207472616e7366657220616d6f756e742065786365656473206160008201527f6c6c6f77616e6365000000000000000000000000000000000000000000000000602082015250565b600061802060288361745b565b915061802b82617fc4565b604082019050919050565b6000602082019050818103600083015261804f81618013565b9050919050565b7f74726e782068617320616c726561647920646f6e650000000000000000000000600082015250565b600061808c60158361745b565b915061809782618056565b602082019050919050565b600060208201905081810360008301526180bb8161807f565b9050919050565b7f696e76616c6964206d6574686f64206964000000000000000000000000000000600082015250565b60006180f860118361745b565b9150618103826180c2565b602082019050919050565b60006020820190508181036000830152618127816180eb565b9050919050565b7f506c656173652045786563757465205175657565205472616e73616374696f6e60008201527f2046697273740000000000000000000000000000000000000000000000000000602082015250565b600061818a60268361745b565b91506181958261812e565b604082019050919050565b600060208201905081810360008301526181b98161817d565b9050919050565b60008160011c9050919050565b6000808291508390505b6001851115618217578086048111156181f3576181f2617c3d565b5b60018516156182025780820291505b8081029050618210856181c0565b94506181d7565b94509492505050565b60008261823057600190506182ec565b8161823e57600090506182ec565b8160018114618254576002811461825e5761828d565b60019150506182ec565b60ff8411156182705761826f617c3d565b5b8360020a91508482111561828757618286617c3d565b5b506182ec565b5060208310610133831016604e8410600b84101617156182c25782820a9050838111156182bd576182bc617c3d565b5b6182ec565b6182cf84848460016181cd565b925090508184048111156182e6576182e5617c3d565b5b81810290505b9392505050565b60006182fe82617391565b9150618309836176ce565b92506183367fffffffffffffffffffffffffffffffffffffffffffffffffffffffffffffffff8484618220565b905092915050565b7f416d6f756e74206d757374206265206c657373207468616e20746f74616c207260008201527f65666c656374696f6e7300000000000000000000000000000000000000000000602082015250565b600061839a602a8361745b565b91506183a58261833e565b604082019050919050565b600060208201905081810360008301526183c98161838d565b9050919050565b7f4e487b7100000000000000000000000000000000000000000000000000000000600052601260045260246000fd5b600061840a82617391565b915061841583617391565b925082618425576184246183d0565b5b828204905092915050565b600061843b82617391565b915061844683617391565b925082820190508082111561845e5761845d617c3d565b5b92915050565b7f4e6577207061697220616464726573732063616e206e6f74206265207a65726f600082015250565b600061849a60208361745b565b91506184a582618464565b602082019050919050565b600060208201905081810360008301526184c98161848d565b9050919050565b60006040820190506184e56000830185617426565b6184f26020830184617426565b9392505050565b7f416d6f756e74206d757374206265206c657373207468616e20737570706c7900600082015250565b600061852f601f8361745b565b915061853a826184f9565b602082019050919050565b6000602082019050818103600083015261855e81618522565b9050919050565b600081519050919050565b600082825260208201905092915050565b6000819050602082019050919050565b61859a81617414565b82525050565b60006185ac8383618591565b60208301905092915050565b6000602082019050919050565b60006185d082618565565b6185da8185618570565b93506185e583618581565b8060005b838110156186165781516185fd88826185a0565b9750618608836185b8565b9250506001810190506185e9565b5085935050505092915050565b6000604082019050818103600083015261863d81856185c5565b905061864c602083018461757a565b9392505050565b7f4461746120616464726573732063616e206e6f74206265207a65726f00000000600082015250565b6000618689601c8361745b565b915061869482618653565b602082019050919050565b600060208201905081810360008301526186b88161867c565b9050919050565b7f4163636f756e7420697320616c7265616479206578636c756465640000000000600082015250565b60006186f5601b8361745b565b9150618700826186bf565b602082019050919050565b60006020820190508181036000830152618724816186e8565b9050919050565b6000604082019050618740600083018561757a565b61874d60208301846175a4565b9392505050565b7f45524332303a2064656372656173656420616c6c6f77616e63652062656c6f7760008201527f207a65726f000000000000000000000000000000000000000000000000000000602082015250565b60006187b060258361745b565b91506187bb82618754565b604082019050919050565b600060208201905081810360008301526187df816187a3565b9050919050565b7f526f75746572206164647265737320656d7074792e0000000000000000000000600082015250565b600061881c60158361745b565b9150618827826187e6565b602082019050919050565b6000602082019050818103600083015261884b8161880f565b9050919050565b60008151905061886181617502565b92915050565b60006020828403121561887d5761887c617387565b5b600061888b84828501618852565b91505092915050565b600061889f82617391565b91506188aa83617391565b92506188d77fffffffffffffffffffffffffffffffffffffffffffffffffffffffffffffffff8484618220565b905092915050565b60006188ea82617391565b91506188f583617391565b925082618905576189046183d0565b5b828206905092915050565b7f696e76616c6964206f776e657200000000000000000000000000000000000000600082015250565b6000618946600d8361745b565b915061895182618910565b602082019050919050565b6000602082019050818103600083015261897581618939565b9050919050565b7f6f776e657220697320616c726561647920746865726521000000000000000000600082015250565b60006189b260178361745b565b91506189bd8261897c565b602082019050919050565b600060208201905081810360008301526189e1816189a5565b9050919050565b6000819050919050565b6000618a0d618a08618a03846189e8565b617abc565b6176ce565b9050919050565b618a1d816189f2565b82525050565b6000602082019050618a386000830184618a14565b92915050565b7f696e73756666696369656e7420424e422062616c616e63650000000000000000600082015250565b6000618a7460188361745b565b9150618a7f82618a3e565b602082019050919050565b60006020820190508181036000830152618aa381618a67565b9050919050565b6000604082019050618abf60008301856175a4565b618acc60208301846175a4565b9392505050565b7f45524332303a20617070726f76652066726f6d20746865207a65726f2061646460008201527f7265737300000000000000000000000000000000000000000000000000000000602082015250565b6000618b2f60248361745b565b9150618b3a82618ad3565b604082019050919050565b60006020820190508181036000830152618b5e81618b22565b9050919050565b7f45524332303a20617070726f766520746f20746865207a65726f20616464726560008201527f7373000000000000000000000000000000000000000000000000000000000000602082015250565b6000618bc160228361745b565b9150618bcc82618b65565b604082019050919050565b60006020820190508181036000830152618bf081618bb4565b9050919050565b7f796f7520646f6e277420686176652073756666696369656e7420617070726f7660008201527f616c000000000000000000000000000000000000000000000000000000000000602082015250565b6000618c5360228361745b565b9150618c5e82618bf7565b604082019050919050565b60006020820190508181036000830152618c8281618c46565b9050919050565b7f696e76616c69642046756e6374696f6e2063616c6c0000000000000000000000600082015250565b6000618cbf60158361745b565b9150618cca82618c89565b602082019050919050565b60006020820190508181036000830152618cee81618cb2565b9050919050565b7f45524332303a207472616e736665722066726f6d20746865207a65726f20616460008201527f6472657373000000000000000000000000000000000000000000000000000000602082015250565b6000618d5160258361745b565b9150618d5c82618cf5565b604082019050919050565b60006020820190508181036000830152618d8081618d44565b9050919050565b7f45524332303a207472616e7366657220746f20746865207a65726f206164647260008201527f6573730000000000000000000000000000000000000000000000000000000000602082015250565b6000618de360238361745b565b9150618dee82618d87565b604082019050919050565b60006020820190508181036000830152618e1281618dd6565b9050919050565b7f5472616e7366657220616d6f756e74206d75737420626520677265617465722060008201527f7468616e207a65726f0000000000000000000000000000000000000000000000602082015250565b6000618e7560298361745b565b9150618e8082618e19565b604082019050919050565b60006020820190508181036000830152618ea481618e68565b9050919050565b7f596f752061726520747279696e6720746f207472616e73666572206d6f72652060008201527f7468616e20796f75722062616c616e6365000000000000000000000000000000602082015250565b6000618f0760318361745b565b9150618f1282618eab565b604082019050919050565b60006020820190508181036000830152618f3681618efa565b9050919050565b7f596f7520617265206120626f7400000000000000000000000000000000000000600082015250565b6000618f73600d8361745b565b9150618f7e82618f3d565b602082019050919050565b60006020820190508181036000830152618fa281618f66565b9050919050565b7f596f752061726520657863656564696e67206d61784275794c696d6974000000600082015250565b6000618fdf601d8361745b565b9150618fea82618fa9565b602082019050919050565b6000602082019050818103600083015261900e81618fd2565b9050919050565b7f596f752061726520657863656564696e67206d617857616c6c65744c696d6974600082015250565b600061904b60208361745b565b915061905682619015565b602082019050919050565b6000602082019050818103600083015261907a8161903e565b9050919050565b7f596f752061726520657863656564696e67206d617853656c6c4c696d69740000600082015250565b60006190b7601e8361745b565b91506190c282619081565b602082019050919050565b600060208201905081810360008301526190e6816190aa565b9050919050565b7f436f6f6c646f776e20656e61626c656400000000000000000000000000000000600082015250565b600061912360108361745b565b915061912e826190ed565b602082019050919050565b6000602082019050818103600083015261915281619116565b9050919050565b7f496e697469616c697a61626c653a20636f6e747261637420697320616c72656160008201527f647920696e697469616c697a6564000000000000000000000000000000000000602082015250565b60006191b5602e8361745b565b91506191c082619159565b604082019050919050565b600060208201905081810360008301526191e4816191a8565b9050919050565b7f416464726573733a20696e73756666696369656e742062616c616e6365000000600082015250565b6000619221601d8361745b565b915061922c826191eb565b602082019050919050565b6000602082019050818103600083015261925081619214565b9050919050565b600081905092915050565b50565b6000619272600083619257565b915061927d82619262565b600082019050919050565b600061929382619265565b9150819050919050565b7f416464726573733a20756e61626c6520746f2073656e642076616c75652c207260008201527f6563697069656e74206d61792068617665207265766572746564000000000000602082015250565b60006192f9603a8361745b565b91506193048261929d565b604082019050919050565b60006020820190508181036000830152619328816192ec565b9050919050565b6000819050919050565b600061935461934f61934a8461932f565b617abc565b617391565b9050919050565b61936481619339565b82525050565b600060a08201905061937f60008301886175a4565b61938c602083018761935b565b818103604083015261939e81866185c5565b90506193ad6060830185617426565b6193ba60808301846175a4565b9695505050505050565b7f546f6b656e20616d6f756e742073686f756c642062652067726561746572207460008201527f68616e207a65726f000000000000000000000000000000000000000000000000602082015250565b600061942060288361745b565b915061942b826193c4565b604082019050919050565b6000602082019050818103600083015261944f81619413565b9050919050565b7f6175746f4c697175696469747952656365697665722063616e206e6f7420626560008201527f207a65726f000000000000000000000000000000000000000000000000000000602082015250565b60006194b260258361745b565b91506194bd82619456565b604082019050919050565b600060208201905081810360008301526194e1816194a5565b9050919050565b600060c0820190506194fd6000830189617426565b61950a60208301886175a4565b619517604083018761935b565b619524606083018661935b565b6195316080830185617426565b61953e60a08301846175a4565b979650505050505050565b6000815190506195588161739b565b92915050565b60008060006060848603121561957757619576617387565b5b600061958586828701619549565b935050602061959686828701619549565b92505060406195a786828701619549565b915050925092509256fea2646970667358221220dfe4a1a63a56030eae61eb1c8161e74b14ca01abd94ab7c1994ad1761577484964736f6c63430008110033",
  "linkReferences": {},
  "deployedLinkReferences": {}
}